{
	"contracts/MainNode.sol": {
		"MainNode": {
			"abi": [
				{
					"anonymous": false,
					"inputs": [
						{
							"indexed": false,
							"internalType": "address",
							"name": "previousAdmin",
							"type": "address"
						},
						{
							"indexed": false,
							"internalType": "address",
							"name": "newAdmin",
							"type": "address"
						}
					],
					"name": "AdminChanged",
					"type": "event"
				},
				{
					"anonymous": false,
					"inputs": [
						{
							"indexed": true,
							"internalType": "address",
							"name": "beacon",
							"type": "address"
						}
					],
					"name": "BeaconUpgraded",
					"type": "event"
				},
				{
					"anonymous": false,
					"inputs": [
						{
							"indexed": false,
							"internalType": "uint8",
							"name": "version",
							"type": "uint8"
						}
					],
					"name": "Initialized",
					"type": "event"
				},
				{
					"anonymous": false,
					"inputs": [
						{
							"indexed": true,
							"internalType": "bytes32",
							"name": "role",
							"type": "bytes32"
						},
						{
							"indexed": true,
							"internalType": "bytes32",
							"name": "previousAdminRole",
							"type": "bytes32"
						},
						{
							"indexed": true,
							"internalType": "bytes32",
							"name": "newAdminRole",
							"type": "bytes32"
						}
					],
					"name": "RoleAdminChanged",
					"type": "event"
				},
				{
					"anonymous": false,
					"inputs": [
						{
							"indexed": true,
							"internalType": "bytes32",
							"name": "role",
							"type": "bytes32"
						},
						{
							"indexed": true,
							"internalType": "address",
							"name": "account",
							"type": "address"
						},
						{
							"indexed": true,
							"internalType": "address",
							"name": "sender",
							"type": "address"
						}
					],
					"name": "RoleGranted",
					"type": "event"
				},
				{
					"anonymous": false,
					"inputs": [
						{
							"indexed": true,
							"internalType": "bytes32",
							"name": "role",
							"type": "bytes32"
						},
						{
							"indexed": true,
							"internalType": "address",
							"name": "account",
							"type": "address"
						},
						{
							"indexed": true,
							"internalType": "address",
							"name": "sender",
							"type": "address"
						}
					],
					"name": "RoleRevoked",
					"type": "event"
				},
				{
					"anonymous": false,
					"inputs": [
						{
							"indexed": true,
							"internalType": "address",
							"name": "implementation",
							"type": "address"
						}
					],
					"name": "Upgraded",
					"type": "event"
				},
				{
					"inputs": [],
					"name": "DEFAULT_ADMIN_ROLE",
					"outputs": [
						{
							"internalType": "bytes32",
							"name": "",
							"type": "bytes32"
						}
					],
					"stateMutability": "view",
					"type": "function"
				},
				{
					"inputs": [],
					"name": "claimReward",
					"outputs": [],
					"stateMutability": "nonpayable",
					"type": "function"
				},
				{
					"inputs": [
						{
							"internalType": "bytes32",
							"name": "role",
							"type": "bytes32"
						}
					],
					"name": "getRoleAdmin",
					"outputs": [
						{
							"internalType": "bytes32",
							"name": "",
							"type": "bytes32"
						}
					],
					"stateMutability": "view",
					"type": "function"
				},
				{
					"inputs": [
						{
							"internalType": "bytes32",
							"name": "role",
							"type": "bytes32"
						},
						{
							"internalType": "address",
							"name": "account",
							"type": "address"
						}
					],
					"name": "grantRole",
					"outputs": [],
					"stateMutability": "nonpayable",
					"type": "function"
				},
				{
					"inputs": [
						{
							"internalType": "bytes32",
							"name": "role",
							"type": "bytes32"
						},
						{
							"internalType": "address",
							"name": "account",
							"type": "address"
						}
					],
					"name": "hasRole",
					"outputs": [
						{
							"internalType": "bool",
							"name": "",
							"type": "bool"
						}
					],
					"stateMutability": "view",
					"type": "function"
				},
				{
					"inputs": [
						{
							"internalType": "address",
							"name": "_tether",
							"type": "address"
						},
						{
							"internalType": "address",
							"name": "_owner",
							"type": "address"
						}
					],
					"name": "initialize",
					"outputs": [],
					"stateMutability": "nonpayable",
					"type": "function"
				},
				{
					"inputs": [],
					"name": "proxiableUUID",
					"outputs": [
						{
							"internalType": "bytes32",
							"name": "",
							"type": "bytes32"
						}
					],
					"stateMutability": "view",
					"type": "function"
				},
				{
					"inputs": [
						{
							"internalType": "bytes32",
							"name": "role",
							"type": "bytes32"
						},
						{
							"internalType": "address",
							"name": "account",
							"type": "address"
						}
					],
					"name": "renounceRole",
					"outputs": [],
					"stateMutability": "nonpayable",
					"type": "function"
				},
				{
					"inputs": [
						{
							"internalType": "bytes32",
							"name": "role",
							"type": "bytes32"
						},
						{
							"internalType": "address",
							"name": "account",
							"type": "address"
						}
					],
					"name": "revokeRole",
					"outputs": [],
					"stateMutability": "nonpayable",
					"type": "function"
				},
				{
					"inputs": [],
					"name": "rewardReferral",
					"outputs": [],
					"stateMutability": "nonpayable",
					"type": "function"
				},
				{
					"inputs": [
						{
							"internalType": "address",
							"name": "_partner",
							"type": "address"
						}
					],
					"name": "setPartner",
					"outputs": [],
					"stateMutability": "nonpayable",
					"type": "function"
				},
				{
					"inputs": [
						{
							"internalType": "address",
							"name": "_referral",
							"type": "address"
						}
					],
					"name": "setReferral",
					"outputs": [],
					"stateMutability": "nonpayable",
					"type": "function"
				},
				{
					"inputs": [
						{
							"internalType": "bytes4",
							"name": "interfaceId",
							"type": "bytes4"
						}
					],
					"name": "supportsInterface",
					"outputs": [
						{
							"internalType": "bool",
							"name": "",
							"type": "bool"
						}
					],
					"stateMutability": "view",
					"type": "function"
				},
				{
					"inputs": [
						{
							"internalType": "address",
							"name": "newImplementation",
							"type": "address"
						}
					],
					"name": "upgradeTo",
					"outputs": [],
					"stateMutability": "nonpayable",
					"type": "function"
				},
				{
					"inputs": [
						{
							"internalType": "address",
							"name": "newImplementation",
							"type": "address"
						},
						{
							"internalType": "bytes",
							"name": "data",
							"type": "bytes"
						}
					],
					"name": "upgradeToAndCall",
					"outputs": [],
					"stateMutability": "payable",
					"type": "function"
				}
			],
			"devdoc": {
				"events": {
					"AdminChanged(address,address)": {
						"details": "Emitted when the admin account has changed."
					},
					"BeaconUpgraded(address)": {
						"details": "Emitted when the beacon is changed."
					},
					"Initialized(uint8)": {
						"details": "Triggered when the contract has been initialized or reinitialized."
					},
					"RoleAdminChanged(bytes32,bytes32,bytes32)": {
						"details": "Emitted when `newAdminRole` is set as ``role``'s admin role, replacing `previousAdminRole` `DEFAULT_ADMIN_ROLE` is the starting admin for all roles, despite {RoleAdminChanged} not being emitted signaling this. _Available since v3.1._"
					},
					"RoleGranted(bytes32,address,address)": {
						"details": "Emitted when `account` is granted `role`. `sender` is the account that originated the contract call, an admin role bearer except when using {AccessControl-_setupRole}."
					},
					"RoleRevoked(bytes32,address,address)": {
						"details": "Emitted when `account` is revoked `role`. `sender` is the account that originated the contract call:   - if using `revokeRole`, it is the admin role bearer   - if using `renounceRole`, it is the role bearer (i.e. `account`)"
					},
					"Upgraded(address)": {
						"details": "Emitted when the implementation is upgraded."
					}
				},
				"kind": "dev",
				"methods": {
					"getRoleAdmin(bytes32)": {
						"details": "Returns the admin role that controls `role`. See {grantRole} and {revokeRole}. To change a role's admin, use {_setRoleAdmin}."
					},
					"grantRole(bytes32,address)": {
						"details": "Grants `role` to `account`. If `account` had not been already granted `role`, emits a {RoleGranted} event. Requirements: - the caller must have ``role``'s admin role. May emit a {RoleGranted} event."
					},
					"hasRole(bytes32,address)": {
						"details": "Returns `true` if `account` has been granted `role`."
					},
					"proxiableUUID()": {
						"details": "Implementation of the ERC1822 {proxiableUUID} function. This returns the storage slot used by the implementation. It is used to validate the implementation's compatibility when performing an upgrade. IMPORTANT: A proxy pointing at a proxiable contract should not be considered proxiable itself, because this risks bricking a proxy that upgrades to it, by delegating to itself until out of gas. Thus it is critical that this function revert if invoked through a proxy. This is guaranteed by the `notDelegated` modifier."
					},
					"renounceRole(bytes32,address)": {
						"details": "Revokes `role` from the calling account. Roles are often managed via {grantRole} and {revokeRole}: this function's purpose is to provide a mechanism for accounts to lose their privileges if they are compromised (such as when a trusted device is misplaced). If the calling account had been revoked `role`, emits a {RoleRevoked} event. Requirements: - the caller must be `account`. May emit a {RoleRevoked} event."
					},
					"revokeRole(bytes32,address)": {
						"details": "Revokes `role` from `account`. If `account` had been granted `role`, emits a {RoleRevoked} event. Requirements: - the caller must have ``role``'s admin role. May emit a {RoleRevoked} event."
					},
					"supportsInterface(bytes4)": {
						"details": "See {IERC165-supportsInterface}."
					},
					"upgradeTo(address)": {
						"custom:oz-upgrades-unsafe-allow-reachable": "delegatecall",
						"details": "Upgrade the implementation of the proxy to `newImplementation`. Calls {_authorizeUpgrade}. Emits an {Upgraded} event."
					},
					"upgradeToAndCall(address,bytes)": {
						"custom:oz-upgrades-unsafe-allow-reachable": "delegatecall",
						"details": "Upgrade the implementation of the proxy to `newImplementation`, and subsequently execute the function call encoded in `data`. Calls {_authorizeUpgrade}. Emits an {Upgraded} event."
					}
				},
				"version": 1
			},
			"evm": {
				"assembly": "    /* \"contracts/MainNode.sol\":407:2904  contract MainNode is Initializable, UUPSUpgradeable, AccessControlUpgradeable{... */\n  mstore(0x40, 0xa0)\n    /* \"@openzeppelin/contracts-upgradeable/proxy/utils/UUPSUpgradeable.sol\":1198:1202  this */\n  address\n    /* \"@openzeppelin/contracts-upgradeable/proxy/utils/UUPSUpgradeable.sol\":1155:1203  address private immutable __self = address(this) */\n  0xffffffffffffffffffffffffffffffffffffffff\n  and\n  0x80\n  swap1\n  0xffffffffffffffffffffffffffffffffffffffff\n  and\n  dup2\n  mstore\n  pop\n    /* \"contracts/MainNode.sol\":407:2904  contract MainNode is Initializable, UUPSUpgradeable, AccessControlUpgradeable{... */\n  callvalue\n  dup1\n  iszero\n  tag_1\n  jumpi\n  0x00\n  dup1\n  revert\ntag_1:\n  pop\n  mload(0x80)\n  codecopy(0x00, dataOffset(sub_0), dataSize(sub_0))\n  0x00\n  assignImmutable(\"0x44986917507edc118e82cff103288e6e452145dcea4c0554fb5180f3e053ae11\")\n  return(0x00, dataSize(sub_0))\nstop\n\nsub_0: assembly {\n        /* \"contracts/MainNode.sol\":407:2904  contract MainNode is Initializable, UUPSUpgradeable, AccessControlUpgradeable{... */\n      mstore(0x40, 0x80)\n      jumpi(tag_1, lt(calldatasize, 0x04))\n      shr(0xe0, calldataload(0x00))\n      dup1\n      0x4f1ef286\n      gt\n      tag_17\n      jumpi\n      dup1\n      0xa16d5960\n      gt\n      tag_18\n      jumpi\n      dup1\n      0xa16d5960\n      eq\n      tag_13\n      jumpi\n      dup1\n      0xa217fddf\n      eq\n      tag_14\n      jumpi\n      dup1\n      0xb88a802f\n      eq\n      tag_15\n      jumpi\n      dup1\n      0xd547741f\n      eq\n      tag_16\n      jumpi\n      jump(tag_1)\n    tag_18:\n      dup1\n      0x4f1ef286\n      eq\n      tag_9\n      jumpi\n      dup1\n      0x52d1902d\n      eq\n      tag_10\n      jumpi\n      dup1\n      0x91d14854\n      eq\n      tag_11\n      jumpi\n      dup1\n      0x9e5914da\n      eq\n      tag_12\n      jumpi\n      jump(tag_1)\n    tag_17:\n      dup1\n      0x2f2ff15d\n      gt\n      tag_19\n      jumpi\n      dup1\n      0x2f2ff15d\n      eq\n      tag_5\n      jumpi\n      dup1\n      0x36568abe\n      eq\n      tag_6\n      jumpi\n      dup1\n      0x3659cfe6\n      eq\n      tag_7\n      jumpi\n      dup1\n      0x485cc955\n      eq\n      tag_8\n      jumpi\n      jump(tag_1)\n    tag_19:\n      dup1\n      0x01ffc9a7\n      eq\n      tag_2\n      jumpi\n      dup1\n      0x0cdb43c4\n      eq\n      tag_3\n      jumpi\n      dup1\n      0x248a9ca3\n      eq\n      tag_4\n      jumpi\n    tag_1:\n      0x00\n      dup1\n      revert\n        /* \"@openzeppelin/contracts-upgradeable/access/AccessControlUpgradeable.sol\":3050:3263  function supportsInterface(bytes4 interfaceId) public view virtual override returns (bool) {... */\n    tag_2:\n      callvalue\n      dup1\n      iszero\n      tag_20\n      jumpi\n      0x00\n      dup1\n      revert\n    tag_20:\n      pop\n      tag_21\n      0x04\n      dup1\n      calldatasize\n      sub\n      dup2\n      add\n      swap1\n      tag_22\n      swap2\n      swap1\n      tag_23\n      jump\t// in\n    tag_22:\n      tag_24\n      jump\t// in\n    tag_21:\n      mload(0x40)\n      tag_25\n      swap2\n      swap1\n      tag_26\n      jump\t// in\n    tag_25:\n      mload(0x40)\n      dup1\n      swap2\n      sub\n      swap1\n      return\n        /* \"contracts/MainNode.sol\":1117:1472  function rewardReferral () external onlyRole(DEFAULT_ADMIN_ROLE){... */\n    tag_3:\n      callvalue\n      dup1\n      iszero\n      tag_27\n      jumpi\n      0x00\n      dup1\n      revert\n    tag_27:\n      pop\n      tag_28\n      tag_29\n      jump\t// in\n    tag_28:\n      stop\n        /* \"@openzeppelin/contracts-upgradeable/access/AccessControlUpgradeable.sol\":4855:4984  function getRoleAdmin(bytes32 role) public view virtual override returns (bytes32) {... */\n    tag_4:\n      callvalue\n      dup1\n      iszero\n      tag_30\n      jumpi\n      0x00\n      dup1\n      revert\n    tag_30:\n      pop\n      tag_31\n      0x04\n      dup1\n      calldatasize\n      sub\n      dup2\n      add\n      swap1\n      tag_32\n      swap2\n      swap1\n      tag_33\n      jump\t// in\n    tag_32:\n      tag_34\n      jump\t// in\n    tag_31:\n      mload(0x40)\n      tag_35\n      swap2\n      swap1\n      tag_36\n      jump\t// in\n    tag_35:\n      mload(0x40)\n      dup1\n      swap2\n      sub\n      swap1\n      return\n        /* \"@openzeppelin/contracts-upgradeable/access/AccessControlUpgradeable.sol\":5280:5425  function grantRole(bytes32 role, address account) public virtual override onlyRole(getRoleAdmin(role)) {... */\n    tag_5:\n      callvalue\n      dup1\n      iszero\n      tag_37\n      jumpi\n      0x00\n      dup1\n      revert\n    tag_37:\n      pop\n      tag_38\n      0x04\n      dup1\n      calldatasize\n      sub\n      dup2\n      add\n      swap1\n      tag_39\n      swap2\n      swap1\n      tag_40\n      jump\t// in\n    tag_39:\n      tag_41\n      jump\t// in\n    tag_38:\n      stop\n        /* \"@openzeppelin/contracts-upgradeable/access/AccessControlUpgradeable.sol\":6389:6603  function renounceRole(bytes32 role, address account) public virtual override {... */\n    tag_6:\n      callvalue\n      dup1\n      iszero\n      tag_42\n      jumpi\n      0x00\n      dup1\n      revert\n    tag_42:\n      pop\n      tag_43\n      0x04\n      dup1\n      calldatasize\n      sub\n      dup2\n      add\n      swap1\n      tag_44\n      swap2\n      swap1\n      tag_40\n      jump\t// in\n    tag_44:\n      tag_45\n      jump\t// in\n    tag_43:\n      stop\n        /* \"@openzeppelin/contracts-upgradeable/proxy/utils/UUPSUpgradeable.sol\":3408:3603  function upgradeTo(address newImplementation) public virtual onlyProxy {... */\n    tag_7:\n      callvalue\n      dup1\n      iszero\n      tag_46\n      jumpi\n      0x00\n      dup1\n      revert\n    tag_46:\n      pop\n      tag_47\n      0x04\n      dup1\n      calldatasize\n      sub\n      dup2\n      add\n      swap1\n      tag_48\n      swap2\n      swap1\n      tag_49\n      jump\t// in\n    tag_48:\n      tag_50\n      jump\t// in\n    tag_47:\n      stop\n        /* \"contracts/MainNode.sol\":780:1111  function initialize (address _tether, address _owner) public initializer{_setupRole(DEFAULT_ADMIN_ROLE, _owner);... */\n    tag_8:\n      callvalue\n      dup1\n      iszero\n      tag_51\n      jumpi\n      0x00\n      dup1\n      revert\n    tag_51:\n      pop\n      tag_52\n      0x04\n      dup1\n      calldatasize\n      sub\n      dup2\n      add\n      swap1\n      tag_53\n      swap2\n      swap1\n      tag_54\n      jump\t// in\n    tag_53:\n      tag_55\n      jump\t// in\n    tag_52:\n      stop\n        /* \"@openzeppelin/contracts-upgradeable/proxy/utils/UUPSUpgradeable.sol\":3922:4142  function upgradeToAndCall(address newImplementation, bytes memory data) public payable virtual onlyProxy {... */\n    tag_9:\n      tag_56\n      0x04\n      dup1\n      calldatasize\n      sub\n      dup2\n      add\n      swap1\n      tag_57\n      swap2\n      swap1\n      tag_58\n      jump\t// in\n    tag_57:\n      tag_59\n      jump\t// in\n    tag_56:\n      stop\n        /* \"@openzeppelin/contracts-upgradeable/proxy/utils/UUPSUpgradeable.sol\":3027:3158  function proxiableUUID() external view virtual override notDelegated returns (bytes32) {... */\n    tag_10:\n      callvalue\n      dup1\n      iszero\n      tag_60\n      jumpi\n      0x00\n      dup1\n      revert\n    tag_60:\n      pop\n      tag_61\n      tag_62\n      jump\t// in\n    tag_61:\n      mload(0x40)\n      tag_63\n      swap2\n      swap1\n      tag_36\n      jump\t// in\n    tag_63:\n      mload(0x40)\n      dup1\n      swap2\n      sub\n      swap1\n      return\n        /* \"@openzeppelin/contracts-upgradeable/access/AccessControlUpgradeable.sol\":3350:3495  function hasRole(bytes32 role, address account) public view virtual override returns (bool) {... */\n    tag_11:\n      callvalue\n      dup1\n      iszero\n      tag_64\n      jumpi\n      0x00\n      dup1\n      revert\n    tag_64:\n      pop\n      tag_65\n      0x04\n      dup1\n      calldatasize\n      sub\n      dup2\n      add\n      swap1\n      tag_66\n      swap2\n      swap1\n      tag_40\n      jump\t// in\n    tag_66:\n      tag_67\n      jump\t// in\n    tag_65:\n      mload(0x40)\n      tag_68\n      swap2\n      swap1\n      tag_26\n      jump\t// in\n    tag_68:\n      mload(0x40)\n      dup1\n      swap2\n      sub\n      swap1\n      return\n        /* \"contracts/MainNode.sol\":2409:2534  function setReferral(address _referral) external onlyRole(DEFAULT_ADMIN_ROLE){... */\n    tag_12:\n      callvalue\n      dup1\n      iszero\n      tag_69\n      jumpi\n      0x00\n      dup1\n      revert\n    tag_69:\n      pop\n      tag_70\n      0x04\n      dup1\n      calldatasize\n      sub\n      dup2\n      add\n      swap1\n      tag_71\n      swap2\n      swap1\n      tag_49\n      jump\t// in\n    tag_71:\n      tag_72\n      jump\t// in\n    tag_70:\n      stop\n        /* \"contracts/MainNode.sol\":2539:2771  function setPartner(address _partner) external onlyRole(DEFAULT_ADMIN_ROLE) {... */\n    tag_13:\n      callvalue\n      dup1\n      iszero\n      tag_73\n      jumpi\n      0x00\n      dup1\n      revert\n    tag_73:\n      pop\n      tag_74\n      0x04\n      dup1\n      calldatasize\n      sub\n      dup2\n      add\n      swap1\n      tag_75\n      swap2\n      swap1\n      tag_49\n      jump\t// in\n    tag_75:\n      tag_76\n      jump\t// in\n    tag_74:\n      stop\n        /* \"@openzeppelin/contracts-upgradeable/access/AccessControlUpgradeable.sol\":2320:2369  bytes32 public constant DEFAULT_ADMIN_ROLE = 0x00 */\n    tag_14:\n      callvalue\n      dup1\n      iszero\n      tag_77\n      jumpi\n      0x00\n      dup1\n      revert\n    tag_77:\n      pop\n      tag_78\n      tag_79\n      jump\t// in\n    tag_78:\n      mload(0x40)\n      tag_80\n      swap2\n      swap1\n      tag_36\n      jump\t// in\n    tag_80:\n      mload(0x40)\n      dup1\n      swap2\n      sub\n      swap1\n      return\n        /* \"contracts/MainNode.sol\":1478:1746  function claimReward() external onlyRole(DEFAULT_ADMIN_ROLE){... */\n    tag_15:\n      callvalue\n      dup1\n      iszero\n      tag_81\n      jumpi\n      0x00\n      dup1\n      revert\n    tag_81:\n      pop\n      tag_82\n      tag_83\n      jump\t// in\n    tag_82:\n      stop\n        /* \"@openzeppelin/contracts-upgradeable/access/AccessControlUpgradeable.sol\":5705:5852  function revokeRole(bytes32 role, address account) public virtual override onlyRole(getRoleAdmin(role)) {... */\n    tag_16:\n      callvalue\n      dup1\n      iszero\n      tag_84\n      jumpi\n      0x00\n      dup1\n      revert\n    tag_84:\n      pop\n      tag_85\n      0x04\n      dup1\n      calldatasize\n      sub\n      dup2\n      add\n      swap1\n      tag_86\n      swap2\n      swap1\n      tag_40\n      jump\t// in\n    tag_86:\n      tag_87\n      jump\t// in\n    tag_85:\n      stop\n        /* \"@openzeppelin/contracts-upgradeable/access/AccessControlUpgradeable.sol\":3050:3263  function supportsInterface(bytes4 interfaceId) public view virtual override returns (bool) {... */\n    tag_24:\n        /* \"@openzeppelin/contracts-upgradeable/access/AccessControlUpgradeable.sol\":3135:3139  bool */\n      0x00\n        /* \"@openzeppelin/contracts-upgradeable/access/AccessControlUpgradeable.sol\":3173:3216  type(IAccessControlUpgradeable).interfaceId */\n      0x7965db0b00000000000000000000000000000000000000000000000000000000\n        /* \"@openzeppelin/contracts-upgradeable/access/AccessControlUpgradeable.sol\":3158:3216  interfaceId == type(IAccessControlUpgradeable).interfaceId */\n      not(0xffffffffffffffffffffffffffffffffffffffffffffffffffffffff)\n      and\n        /* \"@openzeppelin/contracts-upgradeable/access/AccessControlUpgradeable.sol\":3158:3169  interfaceId */\n      dup3\n        /* \"@openzeppelin/contracts-upgradeable/access/AccessControlUpgradeable.sol\":3158:3216  interfaceId == type(IAccessControlUpgradeable).interfaceId */\n      not(0xffffffffffffffffffffffffffffffffffffffffffffffffffffffff)\n      and\n      eq\n        /* \"@openzeppelin/contracts-upgradeable/access/AccessControlUpgradeable.sol\":3158:3256  interfaceId == type(IAccessControlUpgradeable).interfaceId || super.supportsInterface(interfaceId) */\n      dup1\n      tag_89\n      jumpi\n      pop\n        /* \"@openzeppelin/contracts-upgradeable/access/AccessControlUpgradeable.sol\":3220:3256  super.supportsInterface(interfaceId) */\n      tag_90\n        /* \"@openzeppelin/contracts-upgradeable/access/AccessControlUpgradeable.sol\":3244:3255  interfaceId */\n      dup3\n        /* \"@openzeppelin/contracts-upgradeable/access/AccessControlUpgradeable.sol\":3220:3243  super.supportsInterface */\n      tag_91\n        /* \"@openzeppelin/contracts-upgradeable/access/AccessControlUpgradeable.sol\":3220:3256  super.supportsInterface(interfaceId) */\n      jump\t// in\n    tag_90:\n        /* \"@openzeppelin/contracts-upgradeable/access/AccessControlUpgradeable.sol\":3158:3256  interfaceId == type(IAccessControlUpgradeable).interfaceId || super.supportsInterface(interfaceId) */\n    tag_89:\n        /* \"@openzeppelin/contracts-upgradeable/access/AccessControlUpgradeable.sol\":3151:3256  return interfaceId == type(IAccessControlUpgradeable).interfaceId || super.supportsInterface(interfaceId) */\n      swap1\n      pop\n        /* \"@openzeppelin/contracts-upgradeable/access/AccessControlUpgradeable.sol\":3050:3263  function supportsInterface(bytes4 interfaceId) public view virtual override returns (bool) {... */\n      swap2\n      swap1\n      pop\n      jump\t// out\n        /* \"contracts/MainNode.sol\":1117:1472  function rewardReferral () external onlyRole(DEFAULT_ADMIN_ROLE){... */\n    tag_29:\n        /* \"@openzeppelin/contracts-upgradeable/access/AccessControlUpgradeable.sol\":2365:2369  0x00 */\n      0x00\n        /* \"contracts/MainNode.sol\":1162:1180  DEFAULT_ADMIN_ROLE */\n      dup1\n      shl\n        /* \"@openzeppelin/contracts-upgradeable/access/AccessControlUpgradeable.sol\":2798:2814  _checkRole(role) */\n      tag_93\n        /* \"@openzeppelin/contracts-upgradeable/access/AccessControlUpgradeable.sol\":2809:2813  role */\n      dup2\n        /* \"@openzeppelin/contracts-upgradeable/access/AccessControlUpgradeable.sol\":2798:2808  _checkRole */\n      tag_94\n        /* \"@openzeppelin/contracts-upgradeable/access/AccessControlUpgradeable.sol\":2798:2814  _checkRole(role) */\n      jump\t// in\n    tag_93:\n        /* \"contracts/MainNode.sol\":1191:1199  uint fee */\n      0x00\n        /* \"contracts/MainNode.sol\":1209:1221  uint balance */\n      dup1\n        /* \"contracts/MainNode.sol\":1239:1247  referral */\n      0xfc\n      0x00\n      swap1\n      sload\n      swap1\n      0x0100\n      exp\n      swap1\n      div\n      0xffffffffffffffffffffffffffffffffffffffff\n      and\n        /* \"contracts/MainNode.sol\":1239:1266  referral.getBalanceOfPlayer */\n      0xffffffffffffffffffffffffffffffffffffffff\n      and\n      0xbe42e1fc\n        /* \"contracts/MainNode.sol\":1239:1268  referral.getBalanceOfPlayer() */\n      mload(0x40)\n      dup2\n      0xffffffff\n      and\n      0xe0\n      shl\n      dup2\n      mstore\n      0x04\n      add\n      0x20\n      mload(0x40)\n      dup1\n      dup4\n      sub\n      dup2\n      dup7\n      gas\n      staticcall\n      iszero\n      dup1\n      iszero\n      tag_97\n      jumpi\n      returndatasize\n      0x00\n      dup1\n      returndatacopy\n      revert(0x00, returndatasize)\n    tag_97:\n      pop\n      pop\n      pop\n      pop\n      mload(0x40)\n      returndatasize\n      not(0x1f)\n      0x1f\n      dup3\n      add\n      and\n      dup3\n      add\n      dup1\n      0x40\n      mstore\n      pop\n      dup2\n      add\n      swap1\n      tag_98\n      swap2\n      swap1\n      tag_99\n      jump\t// in\n    tag_98:\n        /* \"contracts/MainNode.sol\":1231:1268  balance=referral.getBalanceOfPlayer() */\n      swap1\n      pop\n        /* \"contracts/MainNode.sol\":1296:1297  0 */\n      0x00\n        /* \"contracts/MainNode.sol\":1286:1293  balance */\n      dup2\n        /* \"contracts/MainNode.sol\":1286:1297  balance > 0 */\n      gt\n        /* \"contracts/MainNode.sol\":1278:1325  require(balance > 0 , \"you don't have balance\") */\n      tag_100\n      jumpi\n      mload(0x40)\n      0x08c379a000000000000000000000000000000000000000000000000000000000\n      dup2\n      mstore\n      0x04\n      add\n      tag_101\n      swap1\n      tag_102\n      jump\t// in\n    tag_101:\n      mload(0x40)\n      dup1\n      swap2\n      sub\n      swap1\n      revert\n    tag_100:\n        /* \"contracts/MainNode.sol\":1335:1343  referral */\n      0xfc\n      0x00\n      swap1\n      sload\n      swap1\n      0x0100\n      exp\n      swap1\n      div\n      0xffffffffffffffffffffffffffffffffffffffff\n      and\n        /* \"contracts/MainNode.sol\":1335:1352  referral.withdraw */\n      0xffffffffffffffffffffffffffffffffffffffff\n      and\n      0x3ccfd60b\n        /* \"contracts/MainNode.sol\":1335:1354  referral.withdraw() */\n      mload(0x40)\n      dup2\n      0xffffffff\n      and\n      0xe0\n      shl\n      dup2\n      mstore\n      0x04\n      add\n      0x00\n      mload(0x40)\n      dup1\n      dup4\n      sub\n      dup2\n      0x00\n      dup8\n      dup1\n      extcodesize\n      iszero\n      dup1\n      iszero\n      tag_103\n      jumpi\n      0x00\n      dup1\n      revert\n    tag_103:\n      pop\n      gas\n      call\n      iszero\n      dup1\n      iszero\n      tag_105\n      jumpi\n      returndatasize\n      0x00\n      dup1\n      returndatacopy\n      revert(0x00, returndatasize)\n    tag_105:\n      pop\n      pop\n      pop\n      pop\n        /* \"contracts/MainNode.sol\":1370:1393  feeCalculation(balance) */\n      tag_106\n        /* \"contracts/MainNode.sol\":1385:1392  balance */\n      dup2\n        /* \"contracts/MainNode.sol\":1370:1384  feeCalculation */\n      tag_107\n        /* \"contracts/MainNode.sol\":1370:1393  feeCalculation(balance) */\n      jump\t// in\n    tag_106:\n        /* \"contracts/MainNode.sol\":1364:1393  fee = feeCalculation(balance) */\n      swap2\n      pop\n        /* \"contracts/MainNode.sol\":1414:1417  fee */\n      dup2\n        /* \"contracts/MainNode.sol\":1403:1417  balance -= fee */\n      dup2\n      tag_108\n      swap2\n      swap1\n      tag_109\n      jump\t// in\n    tag_108:\n      swap1\n      pop\n        /* \"contracts/MainNode.sol\":1427:1465  partnershipBalanceCalculation(balance) */\n      tag_110\n        /* \"contracts/MainNode.sol\":1457:1464  balance */\n      dup2\n        /* \"contracts/MainNode.sol\":1427:1456  partnershipBalanceCalculation */\n      tag_111\n        /* \"contracts/MainNode.sol\":1427:1465  partnershipBalanceCalculation(balance) */\n      jump\t// in\n    tag_110:\n        /* \"contracts/MainNode.sol\":1181:1472  {... */\n      pop\n      pop\n        /* \"contracts/MainNode.sol\":1117:1472  function rewardReferral () external onlyRole(DEFAULT_ADMIN_ROLE){... */\n      pop\n      jump\t// out\n        /* \"@openzeppelin/contracts-upgradeable/access/AccessControlUpgradeable.sol\":4855:4984  function getRoleAdmin(bytes32 role) public view virtual override returns (bytes32) {... */\n    tag_34:\n        /* \"@openzeppelin/contracts-upgradeable/access/AccessControlUpgradeable.sol\":4929:4936  bytes32 */\n      0x00\n        /* \"@openzeppelin/contracts-upgradeable/access/AccessControlUpgradeable.sol\":4955:4961  _roles */\n      0xc9\n        /* \"@openzeppelin/contracts-upgradeable/access/AccessControlUpgradeable.sol\":4955:4967  _roles[role] */\n      0x00\n        /* \"@openzeppelin/contracts-upgradeable/access/AccessControlUpgradeable.sol\":4962:4966  role */\n      dup4\n        /* \"@openzeppelin/contracts-upgradeable/access/AccessControlUpgradeable.sol\":4955:4967  _roles[role] */\n      dup2\n      mstore\n      0x20\n      add\n      swap1\n      dup2\n      mstore\n      0x20\n      add\n      0x00\n      keccak256\n        /* \"@openzeppelin/contracts-upgradeable/access/AccessControlUpgradeable.sol\":4955:4977  _roles[role].adminRole */\n      0x01\n      add\n      sload\n        /* \"@openzeppelin/contracts-upgradeable/access/AccessControlUpgradeable.sol\":4948:4977  return _roles[role].adminRole */\n      swap1\n      pop\n        /* \"@openzeppelin/contracts-upgradeable/access/AccessControlUpgradeable.sol\":4855:4984  function getRoleAdmin(bytes32 role) public view virtual override returns (bytes32) {... */\n      swap2\n      swap1\n      pop\n      jump\t// out\n        /* \"@openzeppelin/contracts-upgradeable/access/AccessControlUpgradeable.sol\":5280:5425  function grantRole(bytes32 role, address account) public virtual override onlyRole(getRoleAdmin(role)) {... */\n    tag_41:\n        /* \"@openzeppelin/contracts-upgradeable/access/AccessControlUpgradeable.sol\":5363:5381  getRoleAdmin(role) */\n      tag_113\n        /* \"@openzeppelin/contracts-upgradeable/access/AccessControlUpgradeable.sol\":5376:5380  role */\n      dup3\n        /* \"@openzeppelin/contracts-upgradeable/access/AccessControlUpgradeable.sol\":5363:5375  getRoleAdmin */\n      tag_34\n        /* \"@openzeppelin/contracts-upgradeable/access/AccessControlUpgradeable.sol\":5363:5381  getRoleAdmin(role) */\n      jump\t// in\n    tag_113:\n        /* \"@openzeppelin/contracts-upgradeable/access/AccessControlUpgradeable.sol\":2798:2814  _checkRole(role) */\n      tag_115\n        /* \"@openzeppelin/contracts-upgradeable/access/AccessControlUpgradeable.sol\":2809:2813  role */\n      dup2\n        /* \"@openzeppelin/contracts-upgradeable/access/AccessControlUpgradeable.sol\":2798:2808  _checkRole */\n      tag_94\n        /* \"@openzeppelin/contracts-upgradeable/access/AccessControlUpgradeable.sol\":2798:2814  _checkRole(role) */\n      jump\t// in\n    tag_115:\n        /* \"@openzeppelin/contracts-upgradeable/access/AccessControlUpgradeable.sol\":5393:5418  _grantRole(role, account) */\n      tag_117\n        /* \"@openzeppelin/contracts-upgradeable/access/AccessControlUpgradeable.sol\":5404:5408  role */\n      dup4\n        /* \"@openzeppelin/contracts-upgradeable/access/AccessControlUpgradeable.sol\":5410:5417  account */\n      dup4\n        /* \"@openzeppelin/contracts-upgradeable/access/AccessControlUpgradeable.sol\":5393:5403  _grantRole */\n      tag_118\n        /* \"@openzeppelin/contracts-upgradeable/access/AccessControlUpgradeable.sol\":5393:5418  _grantRole(role, account) */\n      jump\t// in\n    tag_117:\n        /* \"@openzeppelin/contracts-upgradeable/access/AccessControlUpgradeable.sol\":5280:5425  function grantRole(bytes32 role, address account) public virtual override onlyRole(getRoleAdmin(role)) {... */\n      pop\n      pop\n      pop\n      jump\t// out\n        /* \"@openzeppelin/contracts-upgradeable/access/AccessControlUpgradeable.sol\":6389:6603  function renounceRole(bytes32 role, address account) public virtual override {... */\n    tag_45:\n        /* \"@openzeppelin/contracts-upgradeable/access/AccessControlUpgradeable.sol\":6495:6507  _msgSender() */\n      tag_120\n        /* \"@openzeppelin/contracts-upgradeable/access/AccessControlUpgradeable.sol\":6495:6505  _msgSender */\n      tag_121\n        /* \"@openzeppelin/contracts-upgradeable/access/AccessControlUpgradeable.sol\":6495:6507  _msgSender() */\n      jump\t// in\n    tag_120:\n        /* \"@openzeppelin/contracts-upgradeable/access/AccessControlUpgradeable.sol\":6484:6507  account == _msgSender() */\n      0xffffffffffffffffffffffffffffffffffffffff\n      and\n        /* \"@openzeppelin/contracts-upgradeable/access/AccessControlUpgradeable.sol\":6484:6491  account */\n      dup2\n        /* \"@openzeppelin/contracts-upgradeable/access/AccessControlUpgradeable.sol\":6484:6507  account == _msgSender() */\n      0xffffffffffffffffffffffffffffffffffffffff\n      and\n      eq\n        /* \"@openzeppelin/contracts-upgradeable/access/AccessControlUpgradeable.sol\":6476:6559  require(account == _msgSender(), \"AccessControl: can only renounce roles for self\") */\n      tag_122\n      jumpi\n      mload(0x40)\n      0x08c379a000000000000000000000000000000000000000000000000000000000\n      dup2\n      mstore\n      0x04\n      add\n      tag_123\n      swap1\n      tag_124\n      jump\t// in\n    tag_123:\n      mload(0x40)\n      dup1\n      swap2\n      sub\n      swap1\n      revert\n    tag_122:\n        /* \"@openzeppelin/contracts-upgradeable/access/AccessControlUpgradeable.sol\":6570:6596  _revokeRole(role, account) */\n      tag_125\n        /* \"@openzeppelin/contracts-upgradeable/access/AccessControlUpgradeable.sol\":6582:6586  role */\n      dup3\n        /* \"@openzeppelin/contracts-upgradeable/access/AccessControlUpgradeable.sol\":6588:6595  account */\n      dup3\n        /* \"@openzeppelin/contracts-upgradeable/access/AccessControlUpgradeable.sol\":6570:6581  _revokeRole */\n      tag_126\n        /* \"@openzeppelin/contracts-upgradeable/access/AccessControlUpgradeable.sol\":6570:6596  _revokeRole(role, account) */\n      jump\t// in\n    tag_125:\n        /* \"@openzeppelin/contracts-upgradeable/access/AccessControlUpgradeable.sol\":6389:6603  function renounceRole(bytes32 role, address account) public virtual override {... */\n      pop\n      pop\n      jump\t// out\n        /* \"@openzeppelin/contracts-upgradeable/proxy/utils/UUPSUpgradeable.sol\":3408:3603  function upgradeTo(address newImplementation) public virtual onlyProxy {... */\n    tag_50:\n        /* \"@openzeppelin/contracts-upgradeable/proxy/utils/UUPSUpgradeable.sol\":1764:1770  __self */\n      immutable(\"0x44986917507edc118e82cff103288e6e452145dcea4c0554fb5180f3e053ae11\")\n        /* \"@openzeppelin/contracts-upgradeable/proxy/utils/UUPSUpgradeable.sol\":1747:1770  address(this) != __self */\n      0xffffffffffffffffffffffffffffffffffffffff\n      and\n        /* \"@openzeppelin/contracts-upgradeable/proxy/utils/UUPSUpgradeable.sol\":1755:1759  this */\n      address\n        /* \"@openzeppelin/contracts-upgradeable/proxy/utils/UUPSUpgradeable.sol\":1747:1770  address(this) != __self */\n      0xffffffffffffffffffffffffffffffffffffffff\n      and\n      sub\n        /* \"@openzeppelin/contracts-upgradeable/proxy/utils/UUPSUpgradeable.sol\":1739:1819  require(address(this) != __self, \"Function must be called through delegatecall\") */\n      tag_128\n      jumpi\n      mload(0x40)\n      0x08c379a000000000000000000000000000000000000000000000000000000000\n      dup2\n      mstore\n      0x04\n      add\n      tag_129\n      swap1\n      tag_130\n      jump\t// in\n    tag_129:\n      mload(0x40)\n      dup1\n      swap2\n      sub\n      swap1\n      revert\n    tag_128:\n        /* \"@openzeppelin/contracts-upgradeable/proxy/utils/UUPSUpgradeable.sol\":1861:1867  __self */\n      immutable(\"0x44986917507edc118e82cff103288e6e452145dcea4c0554fb5180f3e053ae11\")\n        /* \"@openzeppelin/contracts-upgradeable/proxy/utils/UUPSUpgradeable.sol\":1837:1867  _getImplementation() == __self */\n      0xffffffffffffffffffffffffffffffffffffffff\n      and\n        /* \"@openzeppelin/contracts-upgradeable/proxy/utils/UUPSUpgradeable.sol\":1837:1857  _getImplementation() */\n      tag_131\n        /* \"@openzeppelin/contracts-upgradeable/proxy/utils/UUPSUpgradeable.sol\":1837:1855  _getImplementation */\n      tag_132\n        /* \"@openzeppelin/contracts-upgradeable/proxy/utils/UUPSUpgradeable.sol\":1837:1857  _getImplementation() */\n      jump\t// in\n    tag_131:\n        /* \"@openzeppelin/contracts-upgradeable/proxy/utils/UUPSUpgradeable.sol\":1837:1867  _getImplementation() == __self */\n      0xffffffffffffffffffffffffffffffffffffffff\n      and\n      eq\n        /* \"@openzeppelin/contracts-upgradeable/proxy/utils/UUPSUpgradeable.sol\":1829:1916  require(_getImplementation() == __self, \"Function must be called through active proxy\") */\n      tag_133\n      jumpi\n      mload(0x40)\n      0x08c379a000000000000000000000000000000000000000000000000000000000\n      dup2\n      mstore\n      0x04\n      add\n      tag_134\n      swap1\n      tag_135\n      jump\t// in\n    tag_134:\n      mload(0x40)\n      dup1\n      swap2\n      sub\n      swap1\n      revert\n    tag_133:\n        /* \"@openzeppelin/contracts-upgradeable/proxy/utils/UUPSUpgradeable.sol\":3489:3525  _authorizeUpgrade(newImplementation) */\n      tag_137\n        /* \"@openzeppelin/contracts-upgradeable/proxy/utils/UUPSUpgradeable.sol\":3507:3524  newImplementation */\n      dup2\n        /* \"@openzeppelin/contracts-upgradeable/proxy/utils/UUPSUpgradeable.sol\":3489:3506  _authorizeUpgrade */\n      tag_138\n        /* \"@openzeppelin/contracts-upgradeable/proxy/utils/UUPSUpgradeable.sol\":3489:3525  _authorizeUpgrade(newImplementation) */\n      jump\t// in\n    tag_137:\n        /* \"@openzeppelin/contracts-upgradeable/proxy/utils/UUPSUpgradeable.sol\":3535:3596  _upgradeToAndCallUUPS(newImplementation, new bytes(0), false) */\n      tag_139\n        /* \"@openzeppelin/contracts-upgradeable/proxy/utils/UUPSUpgradeable.sol\":3557:3574  newImplementation */\n      dup2\n        /* \"@openzeppelin/contracts-upgradeable/proxy/utils/UUPSUpgradeable.sol\":3586:3587  0 */\n      0x00\n        /* \"@openzeppelin/contracts-upgradeable/proxy/utils/UUPSUpgradeable.sol\":3576:3588  new bytes(0) */\n      0xffffffffffffffff\n      dup2\n      gt\n      iszero\n      tag_140\n      jumpi\n      tag_141\n      tag_142\n      jump\t// in\n    tag_141:\n    tag_140:\n      mload(0x40)\n      swap1\n      dup1\n      dup3\n      mstore\n      dup1\n      0x1f\n      add\n      not(0x1f)\n      and\n      0x20\n      add\n      dup3\n      add\n      0x40\n      mstore\n      dup1\n      iszero\n      tag_143\n      jumpi\n      dup2\n      0x20\n      add\n      0x01\n      dup3\n      mul\n      dup1\n      calldatasize\n      dup4\n      calldatacopy\n      dup1\n      dup3\n      add\n      swap2\n      pop\n      pop\n      swap1\n      pop\n    tag_143:\n      pop\n        /* \"@openzeppelin/contracts-upgradeable/proxy/utils/UUPSUpgradeable.sol\":3590:3595  false */\n      0x00\n        /* \"@openzeppelin/contracts-upgradeable/proxy/utils/UUPSUpgradeable.sol\":3535:3556  _upgradeToAndCallUUPS */\n      tag_144\n        /* \"@openzeppelin/contracts-upgradeable/proxy/utils/UUPSUpgradeable.sol\":3535:3596  _upgradeToAndCallUUPS(newImplementation, new bytes(0), false) */\n      jump\t// in\n    tag_139:\n        /* \"@openzeppelin/contracts-upgradeable/proxy/utils/UUPSUpgradeable.sol\":3408:3603  function upgradeTo(address newImplementation) public virtual onlyProxy {... */\n      pop\n      jump\t// out\n        /* \"contracts/MainNode.sol\":780:1111  function initialize (address _tether, address _owner) public initializer{_setupRole(DEFAULT_ADMIN_ROLE, _owner);... */\n    tag_55:\n        /* \"@openzeppelin/contracts-upgradeable/proxy/utils/Initializable.sol\":3279:3298  bool isTopLevelCall */\n      0x00\n        /* \"@openzeppelin/contracts-upgradeable/proxy/utils/Initializable.sol\":3302:3315  _initializing */\n      dup1\n      0x01\n      swap1\n      sload\n      swap1\n      0x0100\n      exp\n      swap1\n      div\n      0xff\n      and\n        /* \"@openzeppelin/contracts-upgradeable/proxy/utils/Initializable.sol\":3301:3315  !_initializing */\n      iszero\n        /* \"@openzeppelin/contracts-upgradeable/proxy/utils/Initializable.sol\":3279:3315  bool isTopLevelCall = !_initializing */\n      swap1\n      pop\n        /* \"@openzeppelin/contracts-upgradeable/proxy/utils/Initializable.sol\":3347:3361  isTopLevelCall */\n      dup1\n        /* \"@openzeppelin/contracts-upgradeable/proxy/utils/Initializable.sol\":3347:3381  isTopLevelCall && _initialized < 1 */\n      dup1\n      iszero\n      tag_146\n      jumpi\n      pop\n        /* \"@openzeppelin/contracts-upgradeable/proxy/utils/Initializable.sol\":3380:3381  1 */\n      0x01\n        /* \"@openzeppelin/contracts-upgradeable/proxy/utils/Initializable.sol\":3365:3377  _initialized */\n      0x00\n      dup1\n      sload\n      swap1\n      0x0100\n      exp\n      swap1\n      div\n      0xff\n      and\n        /* \"@openzeppelin/contracts-upgradeable/proxy/utils/Initializable.sol\":3365:3381  _initialized < 1 */\n      0xff\n      and\n      lt\n        /* \"@openzeppelin/contracts-upgradeable/proxy/utils/Initializable.sol\":3347:3381  isTopLevelCall && _initialized < 1 */\n    tag_146:\n        /* \"@openzeppelin/contracts-upgradeable/proxy/utils/Initializable.sol\":3346:3454  (isTopLevelCall && _initialized < 1) || (!AddressUpgradeable.isContract(address(this)) && _initialized == 1) */\n      dup1\n      tag_147\n      jumpi\n      pop\n        /* \"@openzeppelin/contracts-upgradeable/proxy/utils/Initializable.sol\":3388:3432  AddressUpgradeable.isContract(address(this)) */\n      tag_148\n        /* \"@openzeppelin/contracts-upgradeable/proxy/utils/Initializable.sol\":3426:3430  this */\n      address\n        /* \"@openzeppelin/contracts-upgradeable/proxy/utils/Initializable.sol\":3388:3417  AddressUpgradeable.isContract */\n      tag_149\n        /* \"@openzeppelin/contracts-upgradeable/proxy/utils/Initializable.sol\":3388:3432  AddressUpgradeable.isContract(address(this)) */\n      jump\t// in\n    tag_148:\n        /* \"@openzeppelin/contracts-upgradeable/proxy/utils/Initializable.sol\":3387:3432  !AddressUpgradeable.isContract(address(this)) */\n      iszero\n        /* \"@openzeppelin/contracts-upgradeable/proxy/utils/Initializable.sol\":3387:3453  !AddressUpgradeable.isContract(address(this)) && _initialized == 1 */\n      dup1\n      iszero\n      tag_150\n      jumpi\n      pop\n        /* \"@openzeppelin/contracts-upgradeable/proxy/utils/Initializable.sol\":3452:3453  1 */\n      0x01\n        /* \"@openzeppelin/contracts-upgradeable/proxy/utils/Initializable.sol\":3436:3448  _initialized */\n      0x00\n      dup1\n      sload\n      swap1\n      0x0100\n      exp\n      swap1\n      div\n      0xff\n      and\n        /* \"@openzeppelin/contracts-upgradeable/proxy/utils/Initializable.sol\":3436:3453  _initialized == 1 */\n      0xff\n      and\n      eq\n        /* \"@openzeppelin/contracts-upgradeable/proxy/utils/Initializable.sol\":3387:3453  !AddressUpgradeable.isContract(address(this)) && _initialized == 1 */\n    tag_150:\n        /* \"@openzeppelin/contracts-upgradeable/proxy/utils/Initializable.sol\":3346:3454  (isTopLevelCall && _initialized < 1) || (!AddressUpgradeable.isContract(address(this)) && _initialized == 1) */\n    tag_147:\n        /* \"@openzeppelin/contracts-upgradeable/proxy/utils/Initializable.sol\":3325:3526  require(... */\n      tag_151\n      jumpi\n      mload(0x40)\n      0x08c379a000000000000000000000000000000000000000000000000000000000\n      dup2\n      mstore\n      0x04\n      add\n      tag_152\n      swap1\n      tag_153\n      jump\t// in\n    tag_152:\n      mload(0x40)\n      dup1\n      swap2\n      sub\n      swap1\n      revert\n    tag_151:\n        /* \"@openzeppelin/contracts-upgradeable/proxy/utils/Initializable.sol\":3551:3552  1 */\n      0x01\n        /* \"@openzeppelin/contracts-upgradeable/proxy/utils/Initializable.sol\":3536:3548  _initialized */\n      0x00\n      dup1\n        /* \"@openzeppelin/contracts-upgradeable/proxy/utils/Initializable.sol\":3536:3552  _initialized = 1 */\n      0x0100\n      exp\n      dup2\n      sload\n      dup2\n      0xff\n      mul\n      not\n      and\n      swap1\n      dup4\n      0xff\n      and\n      mul\n      or\n      swap1\n      sstore\n      pop\n        /* \"@openzeppelin/contracts-upgradeable/proxy/utils/Initializable.sol\":3566:3580  isTopLevelCall */\n      dup1\n        /* \"@openzeppelin/contracts-upgradeable/proxy/utils/Initializable.sol\":3562:3627  if (isTopLevelCall) {... */\n      iszero\n      tag_154\n      jumpi\n        /* \"@openzeppelin/contracts-upgradeable/proxy/utils/Initializable.sol\":3612:3616  true */\n      0x01\n        /* \"@openzeppelin/contracts-upgradeable/proxy/utils/Initializable.sol\":3596:3609  _initializing */\n      0x00\n      0x01\n        /* \"@openzeppelin/contracts-upgradeable/proxy/utils/Initializable.sol\":3596:3616  _initializing = true */\n      0x0100\n      exp\n      dup2\n      sload\n      dup2\n      0xff\n      mul\n      not\n      and\n      swap1\n      dup4\n      iszero\n      iszero\n      mul\n      or\n      swap1\n      sstore\n      pop\n        /* \"@openzeppelin/contracts-upgradeable/proxy/utils/Initializable.sol\":3562:3627  if (isTopLevelCall) {... */\n    tag_154:\n        /* \"contracts/MainNode.sol\":853:891  _setupRole(DEFAULT_ADMIN_ROLE, _owner) */\n      tag_156\n        /* \"@openzeppelin/contracts-upgradeable/access/AccessControlUpgradeable.sol\":2365:2369  0x00 */\n      0x00\n        /* \"contracts/MainNode.sol\":864:882  DEFAULT_ADMIN_ROLE */\n      dup1\n      shl\n        /* \"contracts/MainNode.sol\":884:890  _owner */\n      dup4\n        /* \"contracts/MainNode.sol\":853:863  _setupRole */\n      tag_157\n        /* \"contracts/MainNode.sol\":853:891  _setupRole(DEFAULT_ADMIN_ROLE, _owner) */\n      jump\t// in\n    tag_156:\n        /* \"contracts/MainNode.sol\":928:935  _tether */\n      dup3\n        /* \"contracts/MainNode.sol\":901:907  tether */\n      0xff\n      0x00\n        /* \"contracts/MainNode.sol\":901:936  tether = IERC20Upgradeable(_tether) */\n      0x0100\n      exp\n      dup2\n      sload\n      dup2\n      0xffffffffffffffffffffffffffffffffffffffff\n      mul\n      not\n      and\n      swap1\n      dup4\n      0xffffffffffffffffffffffffffffffffffffffff\n      and\n      mul\n      or\n      swap1\n      sstore\n      pop\n        /* \"contracts/MainNode.sol\":964:965  1 */\n      0x01\n        /* \"contracts/MainNode.sol\":946:961  firstFeePercent */\n      0xfc\n      0x14\n        /* \"contracts/MainNode.sol\":946:965  firstFeePercent = 1 */\n      0x0100\n      exp\n      dup2\n      sload\n      dup2\n      0xff\n      mul\n      not\n      and\n      swap1\n      dup4\n      0xff\n      and\n      mul\n      or\n      swap1\n      sstore\n      pop\n        /* \"contracts/MainNode.sol\":994:995  2 */\n      0x02\n        /* \"contracts/MainNode.sol\":975:991  secondFeePercent */\n      0xfc\n      0x15\n        /* \"contracts/MainNode.sol\":975:995  secondFeePercent = 2 */\n      0x0100\n      exp\n      dup2\n      sload\n      dup2\n      0xff\n      mul\n      not\n      and\n      swap1\n      dup4\n      0xff\n      and\n      mul\n      or\n      swap1\n      sstore\n      pop\n        /* \"contracts/MainNode.sol\":1023:1024  3 */\n      0x03\n        /* \"contracts/MainNode.sol\":1005:1020  thirdFeePercent */\n      0xfc\n      0x16\n        /* \"contracts/MainNode.sol\":1005:1024  thirdFeePercent = 3 */\n      0x0100\n      exp\n      dup2\n      sload\n      dup2\n      0xff\n      mul\n      not\n      and\n      swap1\n      dup4\n      0xff\n      and\n      mul\n      or\n      swap1\n      sstore\n      pop\n        /* \"contracts/MainNode.sol\":1050:1063  500 * 10 ** 6 */\n      0x1dcd6500\n        /* \"contracts/MainNode.sol\":1034:1047  firstFeeRange */\n      0xfd\n        /* \"contracts/MainNode.sol\":1034:1063  firstFeeRange = 500 * 10 ** 6 */\n      dup2\n      swap1\n      sstore\n      pop\n        /* \"contracts/MainNode.sol\":1090:1104  1000 * 10 ** 6 */\n      0x3b9aca00\n        /* \"contracts/MainNode.sol\":1073:1087  secondFeeRange */\n      0xfe\n        /* \"contracts/MainNode.sol\":1073:1104  secondFeeRange = 1000 * 10 ** 6 */\n      dup2\n      swap1\n      sstore\n      pop\n        /* \"@openzeppelin/contracts-upgradeable/proxy/utils/Initializable.sol\":3651:3665  isTopLevelCall */\n      dup1\n        /* \"@openzeppelin/contracts-upgradeable/proxy/utils/Initializable.sol\":3647:3746  if (isTopLevelCall) {... */\n      iszero\n      tag_158\n      jumpi\n        /* \"@openzeppelin/contracts-upgradeable/proxy/utils/Initializable.sol\":3697:3702  false */\n      0x00\n        /* \"@openzeppelin/contracts-upgradeable/proxy/utils/Initializable.sol\":3681:3694  _initializing */\n      dup1\n      0x01\n        /* \"@openzeppelin/contracts-upgradeable/proxy/utils/Initializable.sol\":3681:3702  _initializing = false */\n      0x0100\n      exp\n      dup2\n      sload\n      dup2\n      0xff\n      mul\n      not\n      and\n      swap1\n      dup4\n      iszero\n      iszero\n      mul\n      or\n      swap1\n      sstore\n      pop\n        /* \"@openzeppelin/contracts-upgradeable/proxy/utils/Initializable.sol\":3721:3735  Initialized(1) */\n      0x7f26b83ff96e1f2b6a682f133852f6798a09c465da95921460cefb3847402498\n        /* \"@openzeppelin/contracts-upgradeable/proxy/utils/Initializable.sol\":3733:3734  1 */\n      0x01\n        /* \"@openzeppelin/contracts-upgradeable/proxy/utils/Initializable.sol\":3721:3735  Initialized(1) */\n      mload(0x40)\n      tag_159\n      swap2\n      swap1\n      tag_160\n      jump\t// in\n    tag_159:\n      mload(0x40)\n      dup1\n      swap2\n      sub\n      swap1\n      log1\n        /* \"@openzeppelin/contracts-upgradeable/proxy/utils/Initializable.sol\":3647:3746  if (isTopLevelCall) {... */\n    tag_158:\n        /* \"@openzeppelin/contracts-upgradeable/proxy/utils/Initializable.sol\":3269:3752  {... */\n      pop\n        /* \"contracts/MainNode.sol\":780:1111  function initialize (address _tether, address _owner) public initializer{_setupRole(DEFAULT_ADMIN_ROLE, _owner);... */\n      pop\n      pop\n      jump\t// out\n        /* \"@openzeppelin/contracts-upgradeable/proxy/utils/UUPSUpgradeable.sol\":3922:4142  function upgradeToAndCall(address newImplementation, bytes memory data) public payable virtual onlyProxy {... */\n    tag_59:\n        /* \"@openzeppelin/contracts-upgradeable/proxy/utils/UUPSUpgradeable.sol\":1764:1770  __self */\n      immutable(\"0x44986917507edc118e82cff103288e6e452145dcea4c0554fb5180f3e053ae11\")\n        /* \"@openzeppelin/contracts-upgradeable/proxy/utils/UUPSUpgradeable.sol\":1747:1770  address(this) != __self */\n      0xffffffffffffffffffffffffffffffffffffffff\n      and\n        /* \"@openzeppelin/contracts-upgradeable/proxy/utils/UUPSUpgradeable.sol\":1755:1759  this */\n      address\n        /* \"@openzeppelin/contracts-upgradeable/proxy/utils/UUPSUpgradeable.sol\":1747:1770  address(this) != __self */\n      0xffffffffffffffffffffffffffffffffffffffff\n      and\n      sub\n        /* \"@openzeppelin/contracts-upgradeable/proxy/utils/UUPSUpgradeable.sol\":1739:1819  require(address(this) != __self, \"Function must be called through delegatecall\") */\n      tag_162\n      jumpi\n      mload(0x40)\n      0x08c379a000000000000000000000000000000000000000000000000000000000\n      dup2\n      mstore\n      0x04\n      add\n      tag_163\n      swap1\n      tag_130\n      jump\t// in\n    tag_163:\n      mload(0x40)\n      dup1\n      swap2\n      sub\n      swap1\n      revert\n    tag_162:\n        /* \"@openzeppelin/contracts-upgradeable/proxy/utils/UUPSUpgradeable.sol\":1861:1867  __self */\n      immutable(\"0x44986917507edc118e82cff103288e6e452145dcea4c0554fb5180f3e053ae11\")\n        /* \"@openzeppelin/contracts-upgradeable/proxy/utils/UUPSUpgradeable.sol\":1837:1867  _getImplementation() == __self */\n      0xffffffffffffffffffffffffffffffffffffffff\n      and\n        /* \"@openzeppelin/contracts-upgradeable/proxy/utils/UUPSUpgradeable.sol\":1837:1857  _getImplementation() */\n      tag_164\n        /* \"@openzeppelin/contracts-upgradeable/proxy/utils/UUPSUpgradeable.sol\":1837:1855  _getImplementation */\n      tag_132\n        /* \"@openzeppelin/contracts-upgradeable/proxy/utils/UUPSUpgradeable.sol\":1837:1857  _getImplementation() */\n      jump\t// in\n    tag_164:\n        /* \"@openzeppelin/contracts-upgradeable/proxy/utils/UUPSUpgradeable.sol\":1837:1867  _getImplementation() == __self */\n      0xffffffffffffffffffffffffffffffffffffffff\n      and\n      eq\n        /* \"@openzeppelin/contracts-upgradeable/proxy/utils/UUPSUpgradeable.sol\":1829:1916  require(_getImplementation() == __self, \"Function must be called through active proxy\") */\n      tag_165\n      jumpi\n      mload(0x40)\n      0x08c379a000000000000000000000000000000000000000000000000000000000\n      dup2\n      mstore\n      0x04\n      add\n      tag_166\n      swap1\n      tag_135\n      jump\t// in\n    tag_166:\n      mload(0x40)\n      dup1\n      swap2\n      sub\n      swap1\n      revert\n    tag_165:\n        /* \"@openzeppelin/contracts-upgradeable/proxy/utils/UUPSUpgradeable.sol\":4037:4073  _authorizeUpgrade(newImplementation) */\n      tag_168\n        /* \"@openzeppelin/contracts-upgradeable/proxy/utils/UUPSUpgradeable.sol\":4055:4072  newImplementation */\n      dup3\n        /* \"@openzeppelin/contracts-upgradeable/proxy/utils/UUPSUpgradeable.sol\":4037:4054  _authorizeUpgrade */\n      tag_138\n        /* \"@openzeppelin/contracts-upgradeable/proxy/utils/UUPSUpgradeable.sol\":4037:4073  _authorizeUpgrade(newImplementation) */\n      jump\t// in\n    tag_168:\n        /* \"@openzeppelin/contracts-upgradeable/proxy/utils/UUPSUpgradeable.sol\":4083:4135  _upgradeToAndCallUUPS(newImplementation, data, true) */\n      tag_169\n        /* \"@openzeppelin/contracts-upgradeable/proxy/utils/UUPSUpgradeable.sol\":4105:4122  newImplementation */\n      dup3\n        /* \"@openzeppelin/contracts-upgradeable/proxy/utils/UUPSUpgradeable.sol\":4124:4128  data */\n      dup3\n        /* \"@openzeppelin/contracts-upgradeable/proxy/utils/UUPSUpgradeable.sol\":4130:4134  true */\n      0x01\n        /* \"@openzeppelin/contracts-upgradeable/proxy/utils/UUPSUpgradeable.sol\":4083:4104  _upgradeToAndCallUUPS */\n      tag_144\n        /* \"@openzeppelin/contracts-upgradeable/proxy/utils/UUPSUpgradeable.sol\":4083:4135  _upgradeToAndCallUUPS(newImplementation, data, true) */\n      jump\t// in\n    tag_169:\n        /* \"@openzeppelin/contracts-upgradeable/proxy/utils/UUPSUpgradeable.sol\":3922:4142  function upgradeToAndCall(address newImplementation, bytes memory data) public payable virtual onlyProxy {... */\n      pop\n      pop\n      jump\t// out\n        /* \"@openzeppelin/contracts-upgradeable/proxy/utils/UUPSUpgradeable.sol\":3027:3158  function proxiableUUID() external view virtual override notDelegated returns (bytes32) {... */\n    tag_62:\n        /* \"@openzeppelin/contracts-upgradeable/proxy/utils/UUPSUpgradeable.sol\":3105:3112  bytes32 */\n      0x00\n        /* \"@openzeppelin/contracts-upgradeable/proxy/utils/UUPSUpgradeable.sol\":2199:2205  __self */\n      immutable(\"0x44986917507edc118e82cff103288e6e452145dcea4c0554fb5180f3e053ae11\")\n        /* \"@openzeppelin/contracts-upgradeable/proxy/utils/UUPSUpgradeable.sol\":2182:2205  address(this) == __self */\n      0xffffffffffffffffffffffffffffffffffffffff\n      and\n        /* \"@openzeppelin/contracts-upgradeable/proxy/utils/UUPSUpgradeable.sol\":2190:2194  this */\n      address\n        /* \"@openzeppelin/contracts-upgradeable/proxy/utils/UUPSUpgradeable.sol\":2182:2205  address(this) == __self */\n      0xffffffffffffffffffffffffffffffffffffffff\n      and\n      eq\n        /* \"@openzeppelin/contracts-upgradeable/proxy/utils/UUPSUpgradeable.sol\":2174:2266  require(address(this) == __self, \"UUPSUpgradeable: must not be called through delegatecall\") */\n      tag_171\n      jumpi\n      mload(0x40)\n      0x08c379a000000000000000000000000000000000000000000000000000000000\n      dup2\n      mstore\n      0x04\n      add\n      tag_172\n      swap1\n      tag_173\n      jump\t// in\n    tag_172:\n      mload(0x40)\n      dup1\n      swap2\n      sub\n      swap1\n      revert\n    tag_171:\n        /* \"@openzeppelin/contracts-upgradeable/proxy/ERC1967/ERC1967UpgradeUpgradeable.sol\":1180:1246  0x360894a13ba1a3210667c828492db98dca3e2076cc3735a920a3ca505d382bbc */\n      0x360894a13ba1a3210667c828492db98dca3e2076cc3735a920a3ca505d382bbc\n        /* \"@openzeppelin/contracts-upgradeable/proxy/utils/UUPSUpgradeable.sol\":3131:3151  _IMPLEMENTATION_SLOT */\n      0x00\n      shl\n        /* \"@openzeppelin/contracts-upgradeable/proxy/utils/UUPSUpgradeable.sol\":3124:3151  return _IMPLEMENTATION_SLOT */\n      swap1\n      pop\n        /* \"@openzeppelin/contracts-upgradeable/proxy/utils/UUPSUpgradeable.sol\":3027:3158  function proxiableUUID() external view virtual override notDelegated returns (bytes32) {... */\n      swap1\n      jump\t// out\n        /* \"@openzeppelin/contracts-upgradeable/access/AccessControlUpgradeable.sol\":3350:3495  function hasRole(bytes32 role, address account) public view virtual override returns (bool) {... */\n    tag_67:\n        /* \"@openzeppelin/contracts-upgradeable/access/AccessControlUpgradeable.sol\":3436:3440  bool */\n      0x00\n        /* \"@openzeppelin/contracts-upgradeable/access/AccessControlUpgradeable.sol\":3459:3465  _roles */\n      0xc9\n        /* \"@openzeppelin/contracts-upgradeable/access/AccessControlUpgradeable.sol\":3459:3471  _roles[role] */\n      0x00\n        /* \"@openzeppelin/contracts-upgradeable/access/AccessControlUpgradeable.sol\":3466:3470  role */\n      dup5\n        /* \"@openzeppelin/contracts-upgradeable/access/AccessControlUpgradeable.sol\":3459:3471  _roles[role] */\n      dup2\n      mstore\n      0x20\n      add\n      swap1\n      dup2\n      mstore\n      0x20\n      add\n      0x00\n      keccak256\n        /* \"@openzeppelin/contracts-upgradeable/access/AccessControlUpgradeable.sol\":3459:3479  _roles[role].members */\n      0x00\n      add\n        /* \"@openzeppelin/contracts-upgradeable/access/AccessControlUpgradeable.sol\":3459:3488  _roles[role].members[account] */\n      0x00\n        /* \"@openzeppelin/contracts-upgradeable/access/AccessControlUpgradeable.sol\":3480:3487  account */\n      dup4\n        /* \"@openzeppelin/contracts-upgradeable/access/AccessControlUpgradeable.sol\":3459:3488  _roles[role].members[account] */\n      0xffffffffffffffffffffffffffffffffffffffff\n      and\n      0xffffffffffffffffffffffffffffffffffffffff\n      and\n      dup2\n      mstore\n      0x20\n      add\n      swap1\n      dup2\n      mstore\n      0x20\n      add\n      0x00\n      keccak256\n      0x00\n      swap1\n      sload\n      swap1\n      0x0100\n      exp\n      swap1\n      div\n      0xff\n      and\n        /* \"@openzeppelin/contracts-upgradeable/access/AccessControlUpgradeable.sol\":3452:3488  return _roles[role].members[account] */\n      swap1\n      pop\n        /* \"@openzeppelin/contracts-upgradeable/access/AccessControlUpgradeable.sol\":3350:3495  function hasRole(bytes32 role, address account) public view virtual override returns (bool) {... */\n      swap3\n      swap2\n      pop\n      pop\n      jump\t// out\n        /* \"contracts/MainNode.sol\":2409:2534  function setReferral(address _referral) external onlyRole(DEFAULT_ADMIN_ROLE){... */\n    tag_72:\n        /* \"@openzeppelin/contracts-upgradeable/access/AccessControlUpgradeable.sol\":2365:2369  0x00 */\n      0x00\n        /* \"contracts/MainNode.sol\":2467:2485  DEFAULT_ADMIN_ROLE */\n      dup1\n      shl\n        /* \"@openzeppelin/contracts-upgradeable/access/AccessControlUpgradeable.sol\":2798:2814  _checkRole(role) */\n      tag_177\n        /* \"@openzeppelin/contracts-upgradeable/access/AccessControlUpgradeable.sol\":2809:2813  role */\n      dup2\n        /* \"@openzeppelin/contracts-upgradeable/access/AccessControlUpgradeable.sol\":2798:2808  _checkRole */\n      tag_94\n        /* \"@openzeppelin/contracts-upgradeable/access/AccessControlUpgradeable.sol\":2798:2814  _checkRole(role) */\n      jump\t// in\n    tag_177:\n        /* \"contracts/MainNode.sol\":2517:2526  _referral */\n      dup2\n        /* \"contracts/MainNode.sol\":2496:2504  referral */\n      0xfc\n      0x00\n        /* \"contracts/MainNode.sol\":2496:2527  referral = IReferral(_referral) */\n      0x0100\n      exp\n      dup2\n      sload\n      dup2\n      0xffffffffffffffffffffffffffffffffffffffff\n      mul\n      not\n      and\n      swap1\n      dup4\n      0xffffffffffffffffffffffffffffffffffffffff\n      and\n      mul\n      or\n      swap1\n      sstore\n      pop\n        /* \"contracts/MainNode.sol\":2409:2534  function setReferral(address _referral) external onlyRole(DEFAULT_ADMIN_ROLE){... */\n      pop\n      pop\n      jump\t// out\n        /* \"contracts/MainNode.sol\":2539:2771  function setPartner(address _partner) external onlyRole(DEFAULT_ADMIN_ROLE) {... */\n    tag_76:\n        /* \"@openzeppelin/contracts-upgradeable/access/AccessControlUpgradeable.sol\":2365:2369  0x00 */\n      0x00\n        /* \"contracts/MainNode.sol\":2595:2613  DEFAULT_ADMIN_ROLE */\n      dup1\n      shl\n        /* \"@openzeppelin/contracts-upgradeable/access/AccessControlUpgradeable.sol\":2798:2814  _checkRole(role) */\n      tag_180\n        /* \"@openzeppelin/contracts-upgradeable/access/AccessControlUpgradeable.sol\":2809:2813  role */\n      dup2\n        /* \"@openzeppelin/contracts-upgradeable/access/AccessControlUpgradeable.sol\":2798:2808  _checkRole */\n      tag_94\n        /* \"@openzeppelin/contracts-upgradeable/access/AccessControlUpgradeable.sol\":2798:2814  _checkRole(role) */\n      jump\t// in\n    tag_180:\n        /* \"contracts/MainNode.sol\":2625:2650  Partner memory newPartner */\n      tag_182\n      tag_183\n      jump\t// in\n    tag_182:\n        /* \"contracts/MainNode.sol\":2681:2689  _partner */\n      dup3\n        /* \"contracts/MainNode.sol\":2660:2670  newPartner */\n      dup2\n        /* \"contracts/MainNode.sol\":2660:2678  newPartner.account */\n      0x00\n      add\n        /* \"contracts/MainNode.sol\":2660:2689  newPartner.account = _partner */\n      swap1\n      0xffffffffffffffffffffffffffffffffffffffff\n      and\n      swap1\n      dup2\n      0xffffffffffffffffffffffffffffffffffffffff\n      and\n      dup2\n      mstore\n      pop\n      pop\n        /* \"contracts/MainNode.sol\":2720:2727  0 ether */\n      0x00\n        /* \"contracts/MainNode.sol\":2699:2709  newPartner */\n      dup2\n        /* \"contracts/MainNode.sol\":2699:2717  newPartner.balance */\n      0x20\n      add\n        /* \"contracts/MainNode.sol\":2699:2727  newPartner.balance = 0 ether */\n      dup2\n      dup2\n      mstore\n      pop\n      pop\n        /* \"contracts/MainNode.sol\":2737:2747  partnerSet */\n      0xfb\n        /* \"contracts/MainNode.sol\":2753:2763  newPartner */\n      dup2\n        /* \"contracts/MainNode.sol\":2737:2764  partnerSet.push(newPartner) */\n      swap1\n      dup1\n      0x01\n      dup2\n      sload\n      add\n      dup1\n      dup3\n      sstore\n      dup1\n      swap2\n      pop\n      pop\n      0x01\n      swap1\n      sub\n      swap1\n      0x00\n      mstore\n      keccak256(0x00, 0x20)\n      swap1\n      0x02\n      mul\n      add\n      0x00\n      swap1\n      swap2\n      swap1\n      swap2\n      swap1\n      swap2\n      pop\n      0x00\n      dup3\n      add\n      mload\n      dup2\n      0x00\n      add\n      exp(0x0100, 0x00)\n      dup2\n      sload\n      dup2\n      0xffffffffffffffffffffffffffffffffffffffff\n      mul\n      not\n      and\n      swap1\n      dup4\n      0xffffffffffffffffffffffffffffffffffffffff\n      and\n      mul\n      or\n      swap1\n      sstore\n      pop\n      0x20\n      dup3\n      add\n      mload\n      dup2\n      0x01\n      add\n      sstore\n      pop\n      pop\n        /* \"contracts/MainNode.sol\":2615:2771  {... */\n      pop\n        /* \"contracts/MainNode.sol\":2539:2771  function setPartner(address _partner) external onlyRole(DEFAULT_ADMIN_ROLE) {... */\n      pop\n      pop\n      jump\t// out\n        /* \"@openzeppelin/contracts-upgradeable/access/AccessControlUpgradeable.sol\":2320:2369  bytes32 public constant DEFAULT_ADMIN_ROLE = 0x00 */\n    tag_79:\n        /* \"@openzeppelin/contracts-upgradeable/access/AccessControlUpgradeable.sol\":2365:2369  0x00 */\n      0x00\n        /* \"@openzeppelin/contracts-upgradeable/access/AccessControlUpgradeable.sol\":2320:2369  bytes32 public constant DEFAULT_ADMIN_ROLE = 0x00 */\n      dup1\n      shl\n      dup2\n      jump\t// out\n        /* \"contracts/MainNode.sol\":1478:1746  function claimReward() external onlyRole(DEFAULT_ADMIN_ROLE){... */\n    tag_83:\n        /* \"@openzeppelin/contracts-upgradeable/access/AccessControlUpgradeable.sol\":2365:2369  0x00 */\n      0x00\n        /* \"contracts/MainNode.sol\":1519:1537  DEFAULT_ADMIN_ROLE */\n      dup1\n      shl\n        /* \"@openzeppelin/contracts-upgradeable/access/AccessControlUpgradeable.sol\":2798:2814  _checkRole(role) */\n      tag_186\n        /* \"@openzeppelin/contracts-upgradeable/access/AccessControlUpgradeable.sol\":2809:2813  role */\n      dup2\n        /* \"@openzeppelin/contracts-upgradeable/access/AccessControlUpgradeable.sol\":2798:2808  _checkRole */\n      tag_94\n        /* \"@openzeppelin/contracts-upgradeable/access/AccessControlUpgradeable.sol\":2798:2814  _checkRole(role) */\n      jump\t// in\n    tag_186:\n        /* \"contracts/MainNode.sol\":1552:1560  uint32 i */\n      0x00\n        /* \"contracts/MainNode.sol\":1548:1740  for(uint32 i = 0; i < partnerSet.length; i++) {... */\n    tag_188:\n        /* \"contracts/MainNode.sol\":1570:1580  partnerSet */\n      0xfb\n        /* \"contracts/MainNode.sol\":1570:1587  partnerSet.length */\n      dup1\n      sload\n      swap1\n      pop\n        /* \"contracts/MainNode.sol\":1566:1567  i */\n      dup2\n        /* \"contracts/MainNode.sol\":1566:1587  i < partnerSet.length */\n      0xffffffff\n      and\n      lt\n        /* \"contracts/MainNode.sol\":1548:1740  for(uint32 i = 0; i < partnerSet.length; i++) {... */\n      iszero\n      tag_189\n      jumpi\n        /* \"contracts/MainNode.sol\":1625:1635  partnerSet */\n      0xfb\n        /* \"contracts/MainNode.sol\":1636:1637  i */\n      dup2\n        /* \"contracts/MainNode.sol\":1625:1638  partnerSet[i] */\n      0xffffffff\n      and\n      dup2\n      sload\n      dup2\n      lt\n      tag_191\n      jumpi\n      tag_192\n      tag_193\n      jump\t// in\n    tag_192:\n    tag_191:\n      swap1\n      0x00\n      mstore\n      keccak256(0x00, 0x20)\n      swap1\n      0x02\n      mul\n      add\n        /* \"contracts/MainNode.sol\":1625:1646  partnerSet[i].account */\n      0x00\n      add\n      0x00\n      swap1\n      sload\n      swap1\n      0x0100\n      exp\n      swap1\n      div\n      0xffffffffffffffffffffffffffffffffffffffff\n      and\n        /* \"contracts/MainNode.sol\":1611:1646  msg.sender == partnerSet[i].account */\n      0xffffffffffffffffffffffffffffffffffffffff\n      and\n        /* \"contracts/MainNode.sol\":1611:1621  msg.sender */\n      caller\n        /* \"contracts/MainNode.sol\":1611:1646  msg.sender == partnerSet[i].account */\n      0xffffffffffffffffffffffffffffffffffffffff\n      and\n      sub\n        /* \"contracts/MainNode.sol\":1608:1730  if(msg.sender == partnerSet[i].account){... */\n      tag_195\n      jumpi\n        /* \"contracts/MainNode.sol\":1665:1671  tether */\n      0xff\n      0x00\n      swap1\n      sload\n      swap1\n      0x0100\n      exp\n      swap1\n      div\n      0xffffffffffffffffffffffffffffffffffffffff\n      and\n        /* \"contracts/MainNode.sol\":1665:1680  tether.transfer */\n      0xffffffffffffffffffffffffffffffffffffffff\n      and\n      0xa9059cbb\n        /* \"contracts/MainNode.sol\":1681:1691  msg.sender */\n      caller\n        /* \"contracts/MainNode.sol\":1693:1703  partnerSet */\n      0xfb\n        /* \"contracts/MainNode.sol\":1704:1705  i */\n      dup5\n        /* \"contracts/MainNode.sol\":1693:1706  partnerSet[i] */\n      0xffffffff\n      and\n      dup2\n      sload\n      dup2\n      lt\n      tag_196\n      jumpi\n      tag_197\n      tag_193\n      jump\t// in\n    tag_197:\n    tag_196:\n      swap1\n      0x00\n      mstore\n      keccak256(0x00, 0x20)\n      swap1\n      0x02\n      mul\n      add\n        /* \"contracts/MainNode.sol\":1693:1714  partnerSet[i].balance */\n      0x01\n      add\n      sload\n        /* \"contracts/MainNode.sol\":1665:1715  tether.transfer(msg.sender, partnerSet[i].balance) */\n      mload(0x40)\n      dup4\n      0xffffffff\n      and\n      0xe0\n      shl\n      dup2\n      mstore\n      0x04\n      add\n      tag_199\n      swap3\n      swap2\n      swap1\n      tag_200\n      jump\t// in\n    tag_199:\n      0x20\n      mload(0x40)\n      dup1\n      dup4\n      sub\n      dup2\n      0x00\n      dup8\n      gas\n      call\n      iszero\n      dup1\n      iszero\n      tag_202\n      jumpi\n      returndatasize\n      0x00\n      dup1\n      returndatacopy\n      revert(0x00, returndatasize)\n    tag_202:\n      pop\n      pop\n      pop\n      pop\n      mload(0x40)\n      returndatasize\n      not(0x1f)\n      0x1f\n      dup3\n      add\n      and\n      dup3\n      add\n      dup1\n      0x40\n      mstore\n      pop\n      dup2\n      add\n      swap1\n      tag_203\n      swap2\n      swap1\n      tag_204\n      jump\t// in\n    tag_203:\n      pop\n        /* \"contracts/MainNode.sol\":1608:1730  if(msg.sender == partnerSet[i].account){... */\n    tag_195:\n        /* \"contracts/MainNode.sol\":1589:1592  i++ */\n      dup1\n      dup1\n      tag_205\n      swap1\n      tag_206\n      jump\t// in\n    tag_205:\n      swap2\n      pop\n      pop\n        /* \"contracts/MainNode.sol\":1548:1740  for(uint32 i = 0; i < partnerSet.length; i++) {... */\n      jump(tag_188)\n    tag_189:\n      pop\n        /* \"contracts/MainNode.sol\":1478:1746  function claimReward() external onlyRole(DEFAULT_ADMIN_ROLE){... */\n      pop\n      jump\t// out\n        /* \"@openzeppelin/contracts-upgradeable/access/AccessControlUpgradeable.sol\":5705:5852  function revokeRole(bytes32 role, address account) public virtual override onlyRole(getRoleAdmin(role)) {... */\n    tag_87:\n        /* \"@openzeppelin/contracts-upgradeable/access/AccessControlUpgradeable.sol\":5789:5807  getRoleAdmin(role) */\n      tag_207\n        /* \"@openzeppelin/contracts-upgradeable/access/AccessControlUpgradeable.sol\":5802:5806  role */\n      dup3\n        /* \"@openzeppelin/contracts-upgradeable/access/AccessControlUpgradeable.sol\":5789:5801  getRoleAdmin */\n      tag_34\n        /* \"@openzeppelin/contracts-upgradeable/access/AccessControlUpgradeable.sol\":5789:5807  getRoleAdmin(role) */\n      jump\t// in\n    tag_207:\n        /* \"@openzeppelin/contracts-upgradeable/access/AccessControlUpgradeable.sol\":2798:2814  _checkRole(role) */\n      tag_209\n        /* \"@openzeppelin/contracts-upgradeable/access/AccessControlUpgradeable.sol\":2809:2813  role */\n      dup2\n        /* \"@openzeppelin/contracts-upgradeable/access/AccessControlUpgradeable.sol\":2798:2808  _checkRole */\n      tag_94\n        /* \"@openzeppelin/contracts-upgradeable/access/AccessControlUpgradeable.sol\":2798:2814  _checkRole(role) */\n      jump\t// in\n    tag_209:\n        /* \"@openzeppelin/contracts-upgradeable/access/AccessControlUpgradeable.sol\":5819:5845  _revokeRole(role, account) */\n      tag_211\n        /* \"@openzeppelin/contracts-upgradeable/access/AccessControlUpgradeable.sol\":5831:5835  role */\n      dup4\n        /* \"@openzeppelin/contracts-upgradeable/access/AccessControlUpgradeable.sol\":5837:5844  account */\n      dup4\n        /* \"@openzeppelin/contracts-upgradeable/access/AccessControlUpgradeable.sol\":5819:5830  _revokeRole */\n      tag_126\n        /* \"@openzeppelin/contracts-upgradeable/access/AccessControlUpgradeable.sol\":5819:5845  _revokeRole(role, account) */\n      jump\t// in\n    tag_211:\n        /* \"@openzeppelin/contracts-upgradeable/access/AccessControlUpgradeable.sol\":5705:5852  function revokeRole(bytes32 role, address account) public virtual override onlyRole(getRoleAdmin(role)) {... */\n      pop\n      pop\n      pop\n      jump\t// out\n        /* \"@openzeppelin/contracts-upgradeable/utils/introspection/ERC165Upgradeable.sol\":1081:1247  function supportsInterface(bytes4 interfaceId) public view virtual override returns (bool) {... */\n    tag_91:\n        /* \"@openzeppelin/contracts-upgradeable/utils/introspection/ERC165Upgradeable.sol\":1166:1170  bool */\n      0x00\n        /* \"@openzeppelin/contracts-upgradeable/utils/introspection/ERC165Upgradeable.sol\":1204:1240  type(IERC165Upgradeable).interfaceId */\n      0x01ffc9a700000000000000000000000000000000000000000000000000000000\n        /* \"@openzeppelin/contracts-upgradeable/utils/introspection/ERC165Upgradeable.sol\":1189:1240  interfaceId == type(IERC165Upgradeable).interfaceId */\n      not(0xffffffffffffffffffffffffffffffffffffffffffffffffffffffff)\n      and\n        /* \"@openzeppelin/contracts-upgradeable/utils/introspection/ERC165Upgradeable.sol\":1189:1200  interfaceId */\n      dup3\n        /* \"@openzeppelin/contracts-upgradeable/utils/introspection/ERC165Upgradeable.sol\":1189:1240  interfaceId == type(IERC165Upgradeable).interfaceId */\n      not(0xffffffffffffffffffffffffffffffffffffffffffffffffffffffff)\n      and\n      eq\n        /* \"@openzeppelin/contracts-upgradeable/utils/introspection/ERC165Upgradeable.sol\":1182:1240  return interfaceId == type(IERC165Upgradeable).interfaceId */\n      swap1\n      pop\n        /* \"@openzeppelin/contracts-upgradeable/utils/introspection/ERC165Upgradeable.sol\":1081:1247  function supportsInterface(bytes4 interfaceId) public view virtual override returns (bool) {... */\n      swap2\n      swap1\n      pop\n      jump\t// out\n        /* \"@openzeppelin/contracts-upgradeable/access/AccessControlUpgradeable.sol\":3789:3892  function _checkRole(bytes32 role) internal view virtual {... */\n    tag_94:\n        /* \"@openzeppelin/contracts-upgradeable/access/AccessControlUpgradeable.sol\":3855:3885  _checkRole(role, _msgSender()) */\n      tag_214\n        /* \"@openzeppelin/contracts-upgradeable/access/AccessControlUpgradeable.sol\":3866:3870  role */\n      dup2\n        /* \"@openzeppelin/contracts-upgradeable/access/AccessControlUpgradeable.sol\":3872:3884  _msgSender() */\n      tag_215\n        /* \"@openzeppelin/contracts-upgradeable/access/AccessControlUpgradeable.sol\":3872:3882  _msgSender */\n      tag_121\n        /* \"@openzeppelin/contracts-upgradeable/access/AccessControlUpgradeable.sol\":3872:3884  _msgSender() */\n      jump\t// in\n    tag_215:\n        /* \"@openzeppelin/contracts-upgradeable/access/AccessControlUpgradeable.sol\":3855:3865  _checkRole */\n      tag_216\n        /* \"@openzeppelin/contracts-upgradeable/access/AccessControlUpgradeable.sol\":3855:3885  _checkRole(role, _msgSender()) */\n      jump\t// in\n    tag_214:\n        /* \"@openzeppelin/contracts-upgradeable/access/AccessControlUpgradeable.sol\":3789:3892  function _checkRole(bytes32 role) internal view virtual {... */\n      pop\n      jump\t// out\n        /* \"contracts/MainNode.sol\":1752:2202  function feeCalculation(uint _amount) private view returns(uint) {... */\n    tag_107:\n        /* \"contracts/MainNode.sol\":1811:1815  uint */\n      0x00\n        /* \"contracts/MainNode.sol\":1827:1835  uint fee */\n      dup1\n        /* \"contracts/MainNode.sol\":1859:1872  firstFeeRange */\n      sload(0xfd)\n        /* \"contracts/MainNode.sol\":1849:1856  _amount */\n      dup4\n        /* \"contracts/MainNode.sol\":1849:1872  _amount < firstFeeRange */\n      lt\n        /* \"contracts/MainNode.sol\":1845:1938  if (_amount < firstFeeRange) {... */\n      iszero\n      tag_218\n      jumpi\n        /* \"contracts/MainNode.sol\":1924:1927  100 */\n      0x64\n        /* \"contracts/MainNode.sol\":1905:1920  firstFeePercent */\n      0xfc\n      0x14\n      swap1\n      sload\n      swap1\n      0x0100\n      exp\n      swap1\n      div\n      0xff\n      and\n        /* \"contracts/MainNode.sol\":1895:1920  _amount * firstFeePercent */\n      0xff\n      and\n        /* \"contracts/MainNode.sol\":1895:1902  _amount */\n      dup5\n        /* \"contracts/MainNode.sol\":1895:1920  _amount * firstFeePercent */\n      tag_219\n      swap2\n      swap1\n      tag_220\n      jump\t// in\n    tag_219:\n        /* \"contracts/MainNode.sol\":1894:1927  (_amount * firstFeePercent) / 100 */\n      tag_221\n      swap2\n      swap1\n      tag_222\n      jump\t// in\n    tag_221:\n        /* \"contracts/MainNode.sol\":1888:1927  fee = (_amount * firstFeePercent) / 100 */\n      swap1\n      pop\n        /* \"contracts/MainNode.sol\":1845:1938  if (_amount < firstFeeRange) {... */\n    tag_218:\n        /* \"contracts/MainNode.sol\":1969:1976  _amount */\n      dup3\n        /* \"contracts/MainNode.sol\":1952:1965  firstFeeRange */\n      sload(0xfd)\n        /* \"contracts/MainNode.sol\":1952:1976  firstFeeRange <= _amount */\n      gt\n      iszero\n        /* \"contracts/MainNode.sol\":1952:2004  firstFeeRange <= _amount && _amount < secondFeeRange */\n      dup1\n      iszero\n      tag_223\n      jumpi\n      pop\n        /* \"contracts/MainNode.sol\":1990:2004  secondFeeRange */\n      sload(0xfe)\n        /* \"contracts/MainNode.sol\":1980:1987  _amount */\n      dup4\n        /* \"contracts/MainNode.sol\":1980:2004  _amount < secondFeeRange */\n      lt\n        /* \"contracts/MainNode.sol\":1952:2004  firstFeeRange <= _amount && _amount < secondFeeRange */\n    tag_223:\n        /* \"contracts/MainNode.sol\":1948:2071  if (firstFeeRange <= _amount && _amount < secondFeeRange) {... */\n      iszero\n      tag_224\n      jumpi\n        /* \"contracts/MainNode.sol\":2057:2060  100 */\n      0x64\n        /* \"contracts/MainNode.sol\":2037:2053  secondFeePercent */\n      0xfc\n      0x15\n      swap1\n      sload\n      swap1\n      0x0100\n      exp\n      swap1\n      div\n      0xff\n      and\n        /* \"contracts/MainNode.sol\":2027:2053  _amount * secondFeePercent */\n      0xff\n      and\n        /* \"contracts/MainNode.sol\":2027:2034  _amount */\n      dup5\n        /* \"contracts/MainNode.sol\":2027:2053  _amount * secondFeePercent */\n      tag_225\n      swap2\n      swap1\n      tag_220\n      jump\t// in\n    tag_225:\n        /* \"contracts/MainNode.sol\":2026:2060  (_amount * secondFeePercent) / 100 */\n      tag_226\n      swap2\n      swap1\n      tag_222\n      jump\t// in\n    tag_226:\n        /* \"contracts/MainNode.sol\":2020:2060  fee = (_amount * secondFeePercent) / 100 */\n      swap1\n      pop\n        /* \"contracts/MainNode.sol\":1948:2071  if (firstFeeRange <= _amount && _amount < secondFeeRange) {... */\n    tag_224:\n        /* \"contracts/MainNode.sol\":2096:2110  secondFeeRange */\n      sload(0xfe)\n        /* \"contracts/MainNode.sol\":2085:2092  _amount */\n      dup4\n        /* \"contracts/MainNode.sol\":2085:2110  _amount >= secondFeeRange */\n      lt\n        /* \"contracts/MainNode.sol\":2081:2176  if (_amount >= secondFeeRange) {... */\n      tag_227\n      jumpi\n        /* \"contracts/MainNode.sol\":2162:2165  100 */\n      0x64\n        /* \"contracts/MainNode.sol\":2143:2158  thirdFeePercent */\n      0xfc\n      0x16\n      swap1\n      sload\n      swap1\n      0x0100\n      exp\n      swap1\n      div\n      0xff\n      and\n        /* \"contracts/MainNode.sol\":2133:2158  _amount * thirdFeePercent */\n      0xff\n      and\n        /* \"contracts/MainNode.sol\":2133:2140  _amount */\n      dup5\n        /* \"contracts/MainNode.sol\":2133:2158  _amount * thirdFeePercent */\n      tag_228\n      swap2\n      swap1\n      tag_220\n      jump\t// in\n    tag_228:\n        /* \"contracts/MainNode.sol\":2132:2165  (_amount * thirdFeePercent) / 100 */\n      tag_229\n      swap2\n      swap1\n      tag_222\n      jump\t// in\n    tag_229:\n        /* \"contracts/MainNode.sol\":2126:2165  fee = (_amount * thirdFeePercent) / 100 */\n      swap1\n      pop\n        /* \"contracts/MainNode.sol\":2081:2176  if (_amount >= secondFeeRange) {... */\n    tag_227:\n        /* \"contracts/MainNode.sol\":2192:2195  fee */\n      dup1\n        /* \"contracts/MainNode.sol\":2185:2195  return fee */\n      swap2\n      pop\n      pop\n        /* \"contracts/MainNode.sol\":1752:2202  function feeCalculation(uint _amount) private view returns(uint) {... */\n      swap2\n      swap1\n      pop\n      jump\t// out\n        /* \"contracts/MainNode.sol\":2207:2404  function partnershipBalanceCalculation (uint _amount) private {... */\n    tag_111:\n        /* \"contracts/MainNode.sol\":2283:2291  uint32 i */\n      0x00\n        /* \"contracts/MainNode.sol\":2279:2398  for(uint32 i=0; i < partnerSet.length; i++){... */\n    tag_231:\n        /* \"contracts/MainNode.sol\":2299:2309  partnerSet */\n      0xfb\n        /* \"contracts/MainNode.sol\":2299:2316  partnerSet.length */\n      dup1\n      sload\n      swap1\n      pop\n        /* \"contracts/MainNode.sol\":2295:2296  i */\n      dup2\n        /* \"contracts/MainNode.sol\":2295:2316  i < partnerSet.length */\n      0xffffffff\n      and\n      lt\n        /* \"contracts/MainNode.sol\":2279:2398  for(uint32 i=0; i < partnerSet.length; i++){... */\n      iszero\n      tag_232\n      jumpi\n        /* \"contracts/MainNode.sol\":2370:2380  partnerSet */\n      0xfb\n        /* \"contracts/MainNode.sol\":2370:2387  partnerSet.length */\n      dup1\n      sload\n      swap1\n      pop\n        /* \"contracts/MainNode.sol\":2360:2367  _amount */\n      dup3\n        /* \"contracts/MainNode.sol\":2360:2387  _amount / partnerSet.length */\n      tag_234\n      swap2\n      swap1\n      tag_222\n      jump\t// in\n    tag_234:\n        /* \"contracts/MainNode.sol\":2336:2346  partnerSet */\n      0xfb\n        /* \"contracts/MainNode.sol\":2347:2348  i */\n      dup3\n        /* \"contracts/MainNode.sol\":2336:2349  partnerSet[i] */\n      0xffffffff\n      and\n      dup2\n      sload\n      dup2\n      lt\n      tag_235\n      jumpi\n      tag_236\n      tag_193\n      jump\t// in\n    tag_236:\n    tag_235:\n      swap1\n      0x00\n      mstore\n      keccak256(0x00, 0x20)\n      swap1\n      0x02\n      mul\n      add\n        /* \"contracts/MainNode.sol\":2336:2357  partnerSet[i].balance */\n      0x01\n      add\n        /* \"contracts/MainNode.sol\":2336:2387  partnerSet[i].balance = _amount / partnerSet.length */\n      dup2\n      swap1\n      sstore\n      pop\n        /* \"contracts/MainNode.sol\":2318:2321  i++ */\n      dup1\n      dup1\n      tag_238\n      swap1\n      tag_206\n      jump\t// in\n    tag_238:\n      swap2\n      pop\n      pop\n        /* \"contracts/MainNode.sol\":2279:2398  for(uint32 i=0; i < partnerSet.length; i++){... */\n      jump(tag_231)\n    tag_232:\n      pop\n        /* \"contracts/MainNode.sol\":2207:2404  function partnershipBalanceCalculation (uint _amount) private {... */\n      pop\n      jump\t// out\n        /* \"@openzeppelin/contracts-upgradeable/access/AccessControlUpgradeable.sol\":7938:8171  function _grantRole(bytes32 role, address account) internal virtual {... */\n    tag_118:\n        /* \"@openzeppelin/contracts-upgradeable/access/AccessControlUpgradeable.sol\":8021:8043  hasRole(role, account) */\n      tag_240\n        /* \"@openzeppelin/contracts-upgradeable/access/AccessControlUpgradeable.sol\":8029:8033  role */\n      dup3\n        /* \"@openzeppelin/contracts-upgradeable/access/AccessControlUpgradeable.sol\":8035:8042  account */\n      dup3\n        /* \"@openzeppelin/contracts-upgradeable/access/AccessControlUpgradeable.sol\":8021:8028  hasRole */\n      tag_67\n        /* \"@openzeppelin/contracts-upgradeable/access/AccessControlUpgradeable.sol\":8021:8043  hasRole(role, account) */\n      jump\t// in\n    tag_240:\n        /* \"@openzeppelin/contracts-upgradeable/access/AccessControlUpgradeable.sol\":8016:8165  if (!hasRole(role, account)) {... */\n      tag_241\n      jumpi\n        /* \"@openzeppelin/contracts-upgradeable/access/AccessControlUpgradeable.sol\":8091:8095  true */\n      0x01\n        /* \"@openzeppelin/contracts-upgradeable/access/AccessControlUpgradeable.sol\":8059:8065  _roles */\n      0xc9\n        /* \"@openzeppelin/contracts-upgradeable/access/AccessControlUpgradeable.sol\":8059:8071  _roles[role] */\n      0x00\n        /* \"@openzeppelin/contracts-upgradeable/access/AccessControlUpgradeable.sol\":8066:8070  role */\n      dup5\n        /* \"@openzeppelin/contracts-upgradeable/access/AccessControlUpgradeable.sol\":8059:8071  _roles[role] */\n      dup2\n      mstore\n      0x20\n      add\n      swap1\n      dup2\n      mstore\n      0x20\n      add\n      0x00\n      keccak256\n        /* \"@openzeppelin/contracts-upgradeable/access/AccessControlUpgradeable.sol\":8059:8079  _roles[role].members */\n      0x00\n      add\n        /* \"@openzeppelin/contracts-upgradeable/access/AccessControlUpgradeable.sol\":8059:8088  _roles[role].members[account] */\n      0x00\n        /* \"@openzeppelin/contracts-upgradeable/access/AccessControlUpgradeable.sol\":8080:8087  account */\n      dup4\n        /* \"@openzeppelin/contracts-upgradeable/access/AccessControlUpgradeable.sol\":8059:8088  _roles[role].members[account] */\n      0xffffffffffffffffffffffffffffffffffffffff\n      and\n      0xffffffffffffffffffffffffffffffffffffffff\n      and\n      dup2\n      mstore\n      0x20\n      add\n      swap1\n      dup2\n      mstore\n      0x20\n      add\n      0x00\n      keccak256\n      0x00\n        /* \"@openzeppelin/contracts-upgradeable/access/AccessControlUpgradeable.sol\":8059:8095  _roles[role].members[account] = true */\n      0x0100\n      exp\n      dup2\n      sload\n      dup2\n      0xff\n      mul\n      not\n      and\n      swap1\n      dup4\n      iszero\n      iszero\n      mul\n      or\n      swap1\n      sstore\n      pop\n        /* \"@openzeppelin/contracts-upgradeable/access/AccessControlUpgradeable.sol\":8141:8153  _msgSender() */\n      tag_242\n        /* \"@openzeppelin/contracts-upgradeable/access/AccessControlUpgradeable.sol\":8141:8151  _msgSender */\n      tag_121\n        /* \"@openzeppelin/contracts-upgradeable/access/AccessControlUpgradeable.sol\":8141:8153  _msgSender() */\n      jump\t// in\n    tag_242:\n        /* \"@openzeppelin/contracts-upgradeable/access/AccessControlUpgradeable.sol\":8114:8154  RoleGranted(role, account, _msgSender()) */\n      0xffffffffffffffffffffffffffffffffffffffff\n      and\n        /* \"@openzeppelin/contracts-upgradeable/access/AccessControlUpgradeable.sol\":8132:8139  account */\n      dup2\n        /* \"@openzeppelin/contracts-upgradeable/access/AccessControlUpgradeable.sol\":8114:8154  RoleGranted(role, account, _msgSender()) */\n      0xffffffffffffffffffffffffffffffffffffffff\n      and\n        /* \"@openzeppelin/contracts-upgradeable/access/AccessControlUpgradeable.sol\":8126:8130  role */\n      dup4\n        /* \"@openzeppelin/contracts-upgradeable/access/AccessControlUpgradeable.sol\":8114:8154  RoleGranted(role, account, _msgSender()) */\n      0x2f8788117e7eff1d82e926ec794901d17c78024a50270940304540a733656f0d\n      mload(0x40)\n      mload(0x40)\n      dup1\n      swap2\n      sub\n      swap1\n      log4\n        /* \"@openzeppelin/contracts-upgradeable/access/AccessControlUpgradeable.sol\":8016:8165  if (!hasRole(role, account)) {... */\n    tag_241:\n        /* \"@openzeppelin/contracts-upgradeable/access/AccessControlUpgradeable.sol\":7938:8171  function _grantRole(bytes32 role, address account) internal virtual {... */\n      pop\n      pop\n      jump\t// out\n        /* \"@openzeppelin/contracts-upgradeable/utils/ContextUpgradeable.sol\":886:982  function _msgSender() internal view virtual returns (address) {... */\n    tag_121:\n        /* \"@openzeppelin/contracts-upgradeable/utils/ContextUpgradeable.sol\":939:946  address */\n      0x00\n        /* \"@openzeppelin/contracts-upgradeable/utils/ContextUpgradeable.sol\":965:975  msg.sender */\n      caller\n        /* \"@openzeppelin/contracts-upgradeable/utils/ContextUpgradeable.sol\":958:975  return msg.sender */\n      swap1\n      pop\n        /* \"@openzeppelin/contracts-upgradeable/utils/ContextUpgradeable.sol\":886:982  function _msgSender() internal view virtual returns (address) {... */\n      swap1\n      jump\t// out\n        /* \"@openzeppelin/contracts-upgradeable/access/AccessControlUpgradeable.sol\":8342:8576  function _revokeRole(bytes32 role, address account) internal virtual {... */\n    tag_126:\n        /* \"@openzeppelin/contracts-upgradeable/access/AccessControlUpgradeable.sol\":8425:8447  hasRole(role, account) */\n      tag_245\n        /* \"@openzeppelin/contracts-upgradeable/access/AccessControlUpgradeable.sol\":8433:8437  role */\n      dup3\n        /* \"@openzeppelin/contracts-upgradeable/access/AccessControlUpgradeable.sol\":8439:8446  account */\n      dup3\n        /* \"@openzeppelin/contracts-upgradeable/access/AccessControlUpgradeable.sol\":8425:8432  hasRole */\n      tag_67\n        /* \"@openzeppelin/contracts-upgradeable/access/AccessControlUpgradeable.sol\":8425:8447  hasRole(role, account) */\n      jump\t// in\n    tag_245:\n        /* \"@openzeppelin/contracts-upgradeable/access/AccessControlUpgradeable.sol\":8421:8570  if (hasRole(role, account)) {... */\n      iszero\n      tag_246\n      jumpi\n        /* \"@openzeppelin/contracts-upgradeable/access/AccessControlUpgradeable.sol\":8495:8500  false */\n      0x00\n        /* \"@openzeppelin/contracts-upgradeable/access/AccessControlUpgradeable.sol\":8463:8469  _roles */\n      0xc9\n        /* \"@openzeppelin/contracts-upgradeable/access/AccessControlUpgradeable.sol\":8463:8475  _roles[role] */\n      0x00\n        /* \"@openzeppelin/contracts-upgradeable/access/AccessControlUpgradeable.sol\":8470:8474  role */\n      dup5\n        /* \"@openzeppelin/contracts-upgradeable/access/AccessControlUpgradeable.sol\":8463:8475  _roles[role] */\n      dup2\n      mstore\n      0x20\n      add\n      swap1\n      dup2\n      mstore\n      0x20\n      add\n      0x00\n      keccak256\n        /* \"@openzeppelin/contracts-upgradeable/access/AccessControlUpgradeable.sol\":8463:8483  _roles[role].members */\n      0x00\n      add\n        /* \"@openzeppelin/contracts-upgradeable/access/AccessControlUpgradeable.sol\":8463:8492  _roles[role].members[account] */\n      0x00\n        /* \"@openzeppelin/contracts-upgradeable/access/AccessControlUpgradeable.sol\":8484:8491  account */\n      dup4\n        /* \"@openzeppelin/contracts-upgradeable/access/AccessControlUpgradeable.sol\":8463:8492  _roles[role].members[account] */\n      0xffffffffffffffffffffffffffffffffffffffff\n      and\n      0xffffffffffffffffffffffffffffffffffffffff\n      and\n      dup2\n      mstore\n      0x20\n      add\n      swap1\n      dup2\n      mstore\n      0x20\n      add\n      0x00\n      keccak256\n      0x00\n        /* \"@openzeppelin/contracts-upgradeable/access/AccessControlUpgradeable.sol\":8463:8500  _roles[role].members[account] = false */\n      0x0100\n      exp\n      dup2\n      sload\n      dup2\n      0xff\n      mul\n      not\n      and\n      swap1\n      dup4\n      iszero\n      iszero\n      mul\n      or\n      swap1\n      sstore\n      pop\n        /* \"@openzeppelin/contracts-upgradeable/access/AccessControlUpgradeable.sol\":8546:8558  _msgSender() */\n      tag_247\n        /* \"@openzeppelin/contracts-upgradeable/access/AccessControlUpgradeable.sol\":8546:8556  _msgSender */\n      tag_121\n        /* \"@openzeppelin/contracts-upgradeable/access/AccessControlUpgradeable.sol\":8546:8558  _msgSender() */\n      jump\t// in\n    tag_247:\n        /* \"@openzeppelin/contracts-upgradeable/access/AccessControlUpgradeable.sol\":8519:8559  RoleRevoked(role, account, _msgSender()) */\n      0xffffffffffffffffffffffffffffffffffffffff\n      and\n        /* \"@openzeppelin/contracts-upgradeable/access/AccessControlUpgradeable.sol\":8537:8544  account */\n      dup2\n        /* \"@openzeppelin/contracts-upgradeable/access/AccessControlUpgradeable.sol\":8519:8559  RoleRevoked(role, account, _msgSender()) */\n      0xffffffffffffffffffffffffffffffffffffffff\n      and\n        /* \"@openzeppelin/contracts-upgradeable/access/AccessControlUpgradeable.sol\":8531:8535  role */\n      dup4\n        /* \"@openzeppelin/contracts-upgradeable/access/AccessControlUpgradeable.sol\":8519:8559  RoleRevoked(role, account, _msgSender()) */\n      0xf6391f5c32d9c69d2a47ea670b442974b53935d1edc7fd64eb21e047a839171b\n      mload(0x40)\n      mload(0x40)\n      dup1\n      swap2\n      sub\n      swap1\n      log4\n        /* \"@openzeppelin/contracts-upgradeable/access/AccessControlUpgradeable.sol\":8421:8570  if (hasRole(role, account)) {... */\n    tag_246:\n        /* \"@openzeppelin/contracts-upgradeable/access/AccessControlUpgradeable.sol\":8342:8576  function _revokeRole(bytes32 role, address account) internal virtual {... */\n      pop\n      pop\n      jump\t// out\n        /* \"@openzeppelin/contracts-upgradeable/proxy/ERC1967/ERC1967UpgradeUpgradeable.sol\":1478:1629  function _getImplementation() internal view returns (address) {... */\n    tag_132:\n        /* \"@openzeppelin/contracts-upgradeable/proxy/ERC1967/ERC1967UpgradeUpgradeable.sol\":1531:1538  address */\n      0x00\n        /* \"@openzeppelin/contracts-upgradeable/proxy/ERC1967/ERC1967UpgradeUpgradeable.sol\":1557:1616  StorageSlotUpgradeable.getAddressSlot(_IMPLEMENTATION_SLOT) */\n      tag_249\n        /* \"@openzeppelin/contracts-upgradeable/proxy/ERC1967/ERC1967UpgradeUpgradeable.sol\":1180:1246  0x360894a13ba1a3210667c828492db98dca3e2076cc3735a920a3ca505d382bbc */\n      0x360894a13ba1a3210667c828492db98dca3e2076cc3735a920a3ca505d382bbc\n        /* \"@openzeppelin/contracts-upgradeable/proxy/ERC1967/ERC1967UpgradeUpgradeable.sol\":1595:1615  _IMPLEMENTATION_SLOT */\n      0x00\n      shl\n        /* \"@openzeppelin/contracts-upgradeable/proxy/ERC1967/ERC1967UpgradeUpgradeable.sol\":1557:1594  StorageSlotUpgradeable.getAddressSlot */\n      tag_250\n        /* \"@openzeppelin/contracts-upgradeable/proxy/ERC1967/ERC1967UpgradeUpgradeable.sol\":1557:1616  StorageSlotUpgradeable.getAddressSlot(_IMPLEMENTATION_SLOT) */\n      jump\t// in\n    tag_249:\n        /* \"@openzeppelin/contracts-upgradeable/proxy/ERC1967/ERC1967UpgradeUpgradeable.sol\":1557:1622  StorageSlotUpgradeable.getAddressSlot(_IMPLEMENTATION_SLOT).value */\n      0x00\n      add\n      0x00\n      swap1\n      sload\n      swap1\n      0x0100\n      exp\n      swap1\n      div\n      0xffffffffffffffffffffffffffffffffffffffff\n      and\n        /* \"@openzeppelin/contracts-upgradeable/proxy/ERC1967/ERC1967UpgradeUpgradeable.sol\":1550:1622  return StorageSlotUpgradeable.getAddressSlot(_IMPLEMENTATION_SLOT).value */\n      swap1\n      pop\n        /* \"@openzeppelin/contracts-upgradeable/proxy/ERC1967/ERC1967UpgradeUpgradeable.sol\":1478:1629  function _getImplementation() internal view returns (address) {... */\n      swap1\n      jump\t// out\n        /* \"contracts/MainNode.sol\":2777:2902  function _authorizeUpgrade(... */\n    tag_138:\n        /* \"@openzeppelin/contracts-upgradeable/access/AccessControlUpgradeable.sol\":2365:2369  0x00 */\n      0x00\n        /* \"contracts/MainNode.sol\":2880:2898  DEFAULT_ADMIN_ROLE */\n      dup1\n      shl\n        /* \"@openzeppelin/contracts-upgradeable/access/AccessControlUpgradeable.sol\":2798:2814  _checkRole(role) */\n      tag_252\n        /* \"@openzeppelin/contracts-upgradeable/access/AccessControlUpgradeable.sol\":2809:2813  role */\n      dup2\n        /* \"@openzeppelin/contracts-upgradeable/access/AccessControlUpgradeable.sol\":2798:2808  _checkRole */\n      tag_94\n        /* \"@openzeppelin/contracts-upgradeable/access/AccessControlUpgradeable.sol\":2798:2814  _checkRole(role) */\n      jump\t// in\n    tag_252:\n        /* \"contracts/MainNode.sol\":2777:2902  function _authorizeUpgrade(... */\n      pop\n      pop\n      jump\t// out\n        /* \"@openzeppelin/contracts-upgradeable/proxy/ERC1967/ERC1967UpgradeUpgradeable.sol\":2841:3785  function _upgradeToAndCallUUPS(address newImplementation, bytes memory data, bool forceCall) internal {... */\n    tag_144:\n        /* \"@openzeppelin/contracts-upgradeable/proxy/ERC1967/ERC1967UpgradeUpgradeable.sol\":3257:3310  StorageSlotUpgradeable.getBooleanSlot(_ROLLBACK_SLOT) */\n      tag_255\n        /* \"@openzeppelin/contracts-upgradeable/proxy/ERC1967/ERC1967UpgradeUpgradeable.sol\":839:905  0x4910fdfa16fed3260ed0e7147f7cc6da11a60208b5b9406d12a635614ffd9143 */\n      0x4910fdfa16fed3260ed0e7147f7cc6da11a60208b5b9406d12a635614ffd9143\n        /* \"@openzeppelin/contracts-upgradeable/proxy/ERC1967/ERC1967UpgradeUpgradeable.sol\":3295:3309  _ROLLBACK_SLOT */\n      0x00\n      shl\n        /* \"@openzeppelin/contracts-upgradeable/proxy/ERC1967/ERC1967UpgradeUpgradeable.sol\":3257:3294  StorageSlotUpgradeable.getBooleanSlot */\n      tag_256\n        /* \"@openzeppelin/contracts-upgradeable/proxy/ERC1967/ERC1967UpgradeUpgradeable.sol\":3257:3310  StorageSlotUpgradeable.getBooleanSlot(_ROLLBACK_SLOT) */\n      jump\t// in\n    tag_255:\n        /* \"@openzeppelin/contracts-upgradeable/proxy/ERC1967/ERC1967UpgradeUpgradeable.sol\":3257:3316  StorageSlotUpgradeable.getBooleanSlot(_ROLLBACK_SLOT).value */\n      0x00\n      add\n      0x00\n      swap1\n      sload\n      swap1\n      0x0100\n      exp\n      swap1\n      div\n      0xff\n      and\n        /* \"@openzeppelin/contracts-upgradeable/proxy/ERC1967/ERC1967UpgradeUpgradeable.sol\":3253:3779  if (StorageSlotUpgradeable.getBooleanSlot(_ROLLBACK_SLOT).value) {... */\n      iszero\n      tag_257\n      jumpi\n        /* \"@openzeppelin/contracts-upgradeable/proxy/ERC1967/ERC1967UpgradeUpgradeable.sol\":3332:3369  _setImplementation(newImplementation) */\n      tag_258\n        /* \"@openzeppelin/contracts-upgradeable/proxy/ERC1967/ERC1967UpgradeUpgradeable.sol\":3351:3368  newImplementation */\n      dup4\n        /* \"@openzeppelin/contracts-upgradeable/proxy/ERC1967/ERC1967UpgradeUpgradeable.sol\":3332:3350  _setImplementation */\n      tag_259\n        /* \"@openzeppelin/contracts-upgradeable/proxy/ERC1967/ERC1967UpgradeUpgradeable.sol\":3332:3369  _setImplementation(newImplementation) */\n      jump\t// in\n    tag_258:\n        /* \"@openzeppelin/contracts-upgradeable/proxy/ERC1967/ERC1967UpgradeUpgradeable.sol\":3253:3779  if (StorageSlotUpgradeable.getBooleanSlot(_ROLLBACK_SLOT).value) {... */\n      jump(tag_260)\n    tag_257:\n        /* \"@openzeppelin/contracts-upgradeable/proxy/ERC1967/ERC1967UpgradeUpgradeable.sol\":3433:3450  newImplementation */\n      dup3\n        /* \"@openzeppelin/contracts-upgradeable/proxy/ERC1967/ERC1967UpgradeUpgradeable.sol\":3404:3465  IERC1822ProxiableUpgradeable(newImplementation).proxiableUUID */\n      0xffffffffffffffffffffffffffffffffffffffff\n      and\n      0x52d1902d\n        /* \"@openzeppelin/contracts-upgradeable/proxy/ERC1967/ERC1967UpgradeUpgradeable.sol\":3404:3467  IERC1822ProxiableUpgradeable(newImplementation).proxiableUUID() */\n      mload(0x40)\n      dup2\n      0xffffffff\n      and\n      0xe0\n      shl\n      dup2\n      mstore\n      0x04\n      add\n      0x20\n      mload(0x40)\n      dup1\n      dup4\n      sub\n      dup2\n      dup7\n      gas\n      staticcall\n      swap3\n      pop\n      pop\n      pop\n      dup1\n      iszero\n      tag_261\n      jumpi\n      pop\n      mload(0x40)\n      returndatasize\n      not(0x1f)\n      0x1f\n      dup3\n      add\n      and\n      dup3\n      add\n      dup1\n      0x40\n      mstore\n      pop\n      dup2\n      add\n      swap1\n      tag_262\n      swap2\n      swap1\n      tag_263\n      jump\t// in\n    tag_262:\n      0x01\n    tag_261:\n        /* \"@openzeppelin/contracts-upgradeable/proxy/ERC1967/ERC1967UpgradeUpgradeable.sol\":3400:3702  try IERC1822ProxiableUpgradeable(newImplementation).proxiableUUID() returns (bytes32 slot) {... */\n      tag_264\n      jumpi\n        /* \"@openzeppelin/contracts-upgradeable/proxy/ERC1967/ERC1967UpgradeUpgradeable.sol\":3631:3687  revert(\"ERC1967Upgrade: new implementation is not UUPS\") */\n      mload(0x40)\n      0x08c379a000000000000000000000000000000000000000000000000000000000\n      dup2\n      mstore\n      0x04\n      add\n      tag_268\n      swap1\n      tag_269\n      jump\t// in\n    tag_268:\n      mload(0x40)\n      dup1\n      swap2\n      sub\n      swap1\n      revert\n        /* \"@openzeppelin/contracts-upgradeable/proxy/ERC1967/ERC1967UpgradeUpgradeable.sol\":3400:3702  try IERC1822ProxiableUpgradeable(newImplementation).proxiableUUID() returns (bytes32 slot) {... */\n    tag_264:\n        /* \"@openzeppelin/contracts-upgradeable/proxy/ERC1967/ERC1967UpgradeUpgradeable.sol\":1180:1246  0x360894a13ba1a3210667c828492db98dca3e2076cc3735a920a3ca505d382bbc */\n      0x360894a13ba1a3210667c828492db98dca3e2076cc3735a920a3ca505d382bbc\n        /* \"@openzeppelin/contracts-upgradeable/proxy/ERC1967/ERC1967UpgradeUpgradeable.sol\":3525:3545  _IMPLEMENTATION_SLOT */\n      0x00\n      shl\n        /* \"@openzeppelin/contracts-upgradeable/proxy/ERC1967/ERC1967UpgradeUpgradeable.sol\":3517:3521  slot */\n      dup2\n        /* \"@openzeppelin/contracts-upgradeable/proxy/ERC1967/ERC1967UpgradeUpgradeable.sol\":3517:3545  slot == _IMPLEMENTATION_SLOT */\n      eq\n        /* \"@openzeppelin/contracts-upgradeable/proxy/ERC1967/ERC1967UpgradeUpgradeable.sol\":3509:3591  require(slot == _IMPLEMENTATION_SLOT, \"ERC1967Upgrade: unsupported proxiableUUID\") */\n      tag_271\n      jumpi\n      mload(0x40)\n      0x08c379a000000000000000000000000000000000000000000000000000000000\n      dup2\n      mstore\n      0x04\n      add\n      tag_272\n      swap1\n      tag_273\n      jump\t// in\n    tag_272:\n      mload(0x40)\n      dup1\n      swap2\n      sub\n      swap1\n      revert\n    tag_271:\n        /* \"@openzeppelin/contracts-upgradeable/proxy/ERC1967/ERC1967UpgradeUpgradeable.sol\":3468:3606  returns (bytes32 slot) {... */\n      pop\n        /* \"@openzeppelin/contracts-upgradeable/proxy/ERC1967/ERC1967UpgradeUpgradeable.sol\":3715:3768  _upgradeToAndCall(newImplementation, data, forceCall) */\n      tag_274\n        /* \"@openzeppelin/contracts-upgradeable/proxy/ERC1967/ERC1967UpgradeUpgradeable.sol\":3733:3750  newImplementation */\n      dup4\n        /* \"@openzeppelin/contracts-upgradeable/proxy/ERC1967/ERC1967UpgradeUpgradeable.sol\":3752:3756  data */\n      dup4\n        /* \"@openzeppelin/contracts-upgradeable/proxy/ERC1967/ERC1967UpgradeUpgradeable.sol\":3758:3767  forceCall */\n      dup4\n        /* \"@openzeppelin/contracts-upgradeable/proxy/ERC1967/ERC1967UpgradeUpgradeable.sol\":3715:3732  _upgradeToAndCall */\n      tag_275\n        /* \"@openzeppelin/contracts-upgradeable/proxy/ERC1967/ERC1967UpgradeUpgradeable.sol\":3715:3768  _upgradeToAndCall(newImplementation, data, forceCall) */\n      jump\t// in\n    tag_274:\n        /* \"@openzeppelin/contracts-upgradeable/proxy/ERC1967/ERC1967UpgradeUpgradeable.sol\":3253:3779  if (StorageSlotUpgradeable.getBooleanSlot(_ROLLBACK_SLOT).value) {... */\n    tag_260:\n        /* \"@openzeppelin/contracts-upgradeable/proxy/ERC1967/ERC1967UpgradeUpgradeable.sol\":2841:3785  function _upgradeToAndCallUUPS(address newImplementation, bytes memory data, bool forceCall) internal {... */\n      pop\n      pop\n      pop\n      jump\t// out\n        /* \"@openzeppelin/contracts-upgradeable/utils/AddressUpgradeable.sol\":1423:1743  function isContract(address account) internal view returns (bool) {... */\n    tag_149:\n        /* \"@openzeppelin/contracts-upgradeable/utils/AddressUpgradeable.sol\":1483:1487  bool */\n      0x00\n        /* \"@openzeppelin/contracts-upgradeable/utils/AddressUpgradeable.sol\":1735:1736  0 */\n      dup1\n        /* \"@openzeppelin/contracts-upgradeable/utils/AddressUpgradeable.sol\":1713:1720  account */\n      dup3\n        /* \"@openzeppelin/contracts-upgradeable/utils/AddressUpgradeable.sol\":1713:1732  account.code.length */\n      0xffffffffffffffffffffffffffffffffffffffff\n      and\n      extcodesize\n        /* \"@openzeppelin/contracts-upgradeable/utils/AddressUpgradeable.sol\":1713:1736  account.code.length > 0 */\n      gt\n        /* \"@openzeppelin/contracts-upgradeable/utils/AddressUpgradeable.sol\":1706:1736  return account.code.length > 0 */\n      swap1\n      pop\n        /* \"@openzeppelin/contracts-upgradeable/utils/AddressUpgradeable.sol\":1423:1743  function isContract(address account) internal view returns (bool) {... */\n      swap2\n      swap1\n      pop\n      jump\t// out\n        /* \"@openzeppelin/contracts-upgradeable/access/AccessControlUpgradeable.sol\":7288:7398  function _setupRole(bytes32 role, address account) internal virtual {... */\n    tag_157:\n        /* \"@openzeppelin/contracts-upgradeable/access/AccessControlUpgradeable.sol\":7366:7391  _grantRole(role, account) */\n      tag_278\n        /* \"@openzeppelin/contracts-upgradeable/access/AccessControlUpgradeable.sol\":7377:7381  role */\n      dup3\n        /* \"@openzeppelin/contracts-upgradeable/access/AccessControlUpgradeable.sol\":7383:7390  account */\n      dup3\n        /* \"@openzeppelin/contracts-upgradeable/access/AccessControlUpgradeable.sol\":7366:7376  _grantRole */\n      tag_118\n        /* \"@openzeppelin/contracts-upgradeable/access/AccessControlUpgradeable.sol\":7366:7391  _grantRole(role, account) */\n      jump\t// in\n    tag_278:\n        /* \"@openzeppelin/contracts-upgradeable/access/AccessControlUpgradeable.sol\":7288:7398  function _setupRole(bytes32 role, address account) internal virtual {... */\n      pop\n      pop\n      jump\t// out\n        /* \"@openzeppelin/contracts-upgradeable/access/AccessControlUpgradeable.sol\":4173:4674  function _checkRole(bytes32 role, address account) internal view virtual {... */\n    tag_216:\n        /* \"@openzeppelin/contracts-upgradeable/access/AccessControlUpgradeable.sol\":4261:4283  hasRole(role, account) */\n      tag_280\n        /* \"@openzeppelin/contracts-upgradeable/access/AccessControlUpgradeable.sol\":4269:4273  role */\n      dup3\n        /* \"@openzeppelin/contracts-upgradeable/access/AccessControlUpgradeable.sol\":4275:4282  account */\n      dup3\n        /* \"@openzeppelin/contracts-upgradeable/access/AccessControlUpgradeable.sol\":4261:4268  hasRole */\n      tag_67\n        /* \"@openzeppelin/contracts-upgradeable/access/AccessControlUpgradeable.sol\":4261:4283  hasRole(role, account) */\n      jump\t// in\n    tag_280:\n        /* \"@openzeppelin/contracts-upgradeable/access/AccessControlUpgradeable.sol\":4256:4668  if (!hasRole(role, account)) {... */\n      tag_281\n      jumpi\n        /* \"@openzeppelin/contracts-upgradeable/access/AccessControlUpgradeable.sol\":4444:4483  StringsUpgradeable.toHexString(account) */\n      tag_282\n        /* \"@openzeppelin/contracts-upgradeable/access/AccessControlUpgradeable.sol\":4475:4482  account */\n      dup2\n        /* \"@openzeppelin/contracts-upgradeable/access/AccessControlUpgradeable.sol\":4444:4474  StringsUpgradeable.toHexString */\n      tag_283\n        /* \"@openzeppelin/contracts-upgradeable/access/AccessControlUpgradeable.sol\":4444:4483  StringsUpgradeable.toHexString(account) */\n      jump\t// in\n    tag_282:\n        /* \"@openzeppelin/contracts-upgradeable/access/AccessControlUpgradeable.sol\":4554:4603  StringsUpgradeable.toHexString(uint256(role), 32) */\n      tag_284\n        /* \"@openzeppelin/contracts-upgradeable/access/AccessControlUpgradeable.sol\":4593:4597  role */\n      dup4\n        /* \"@openzeppelin/contracts-upgradeable/access/AccessControlUpgradeable.sol\":4585:4598  uint256(role) */\n      0x00\n      shr\n        /* \"@openzeppelin/contracts-upgradeable/access/AccessControlUpgradeable.sol\":4600:4602  32 */\n      0x20\n        /* \"@openzeppelin/contracts-upgradeable/access/AccessControlUpgradeable.sol\":4554:4584  StringsUpgradeable.toHexString */\n      tag_285\n        /* \"@openzeppelin/contracts-upgradeable/access/AccessControlUpgradeable.sol\":4554:4603  StringsUpgradeable.toHexString(uint256(role), 32) */\n      jump\t// in\n    tag_284:\n        /* \"@openzeppelin/contracts-upgradeable/access/AccessControlUpgradeable.sol\":4351:4625  abi.encodePacked(... */\n      add(0x20, mload(0x40))\n      tag_286\n      swap3\n      swap2\n      swap1\n      tag_287\n      jump\t// in\n    tag_286:\n      mload(0x40)\n      0x20\n      dup2\n      dup4\n      sub\n      sub\n      dup2\n      mstore\n      swap1\n      0x40\n      mstore\n        /* \"@openzeppelin/contracts-upgradeable/access/AccessControlUpgradeable.sol\":4299:4657  revert(... */\n      mload(0x40)\n      0x08c379a000000000000000000000000000000000000000000000000000000000\n      dup2\n      mstore\n      0x04\n      add\n      tag_288\n      swap2\n      swap1\n      tag_289\n      jump\t// in\n    tag_288:\n      mload(0x40)\n      dup1\n      swap2\n      sub\n      swap1\n      revert\n        /* \"@openzeppelin/contracts-upgradeable/access/AccessControlUpgradeable.sol\":4256:4668  if (!hasRole(role, account)) {... */\n    tag_281:\n        /* \"@openzeppelin/contracts-upgradeable/access/AccessControlUpgradeable.sol\":4173:4674  function _checkRole(bytes32 role, address account) internal view virtual {... */\n      pop\n      pop\n      jump\t// out\n        /* \"@openzeppelin/contracts-upgradeable/utils/StorageSlotUpgradeable.sol\":1870:2060  function getAddressSlot(bytes32 slot) internal pure returns (AddressSlot storage r) {... */\n    tag_250:\n        /* \"@openzeppelin/contracts-upgradeable/utils/StorageSlotUpgradeable.sol\":1931:1952  AddressSlot storage r */\n      0x00\n        /* \"@openzeppelin/contracts-upgradeable/utils/StorageSlotUpgradeable.sol\":2040:2044  slot */\n      dup2\n        /* \"@openzeppelin/contracts-upgradeable/utils/StorageSlotUpgradeable.sol\":2030:2044  r.slot := slot */\n      swap1\n      pop\n        /* \"@openzeppelin/contracts-upgradeable/utils/StorageSlotUpgradeable.sol\":1870:2060  function getAddressSlot(bytes32 slot) internal pure returns (AddressSlot storage r) {... */\n      swap2\n      swap1\n      pop\n      jump\t// out\n        /* \"@openzeppelin/contracts-upgradeable/utils/StorageSlotUpgradeable.sol\":2158:2348  function getBooleanSlot(bytes32 slot) internal pure returns (BooleanSlot storage r) {... */\n    tag_256:\n        /* \"@openzeppelin/contracts-upgradeable/utils/StorageSlotUpgradeable.sol\":2219:2240  BooleanSlot storage r */\n      0x00\n        /* \"@openzeppelin/contracts-upgradeable/utils/StorageSlotUpgradeable.sol\":2328:2332  slot */\n      dup2\n        /* \"@openzeppelin/contracts-upgradeable/utils/StorageSlotUpgradeable.sol\":2318:2332  r.slot := slot */\n      swap1\n      pop\n        /* \"@openzeppelin/contracts-upgradeable/utils/StorageSlotUpgradeable.sol\":2158:2348  function getBooleanSlot(bytes32 slot) internal pure returns (BooleanSlot storage r) {... */\n      swap2\n      swap1\n      pop\n      jump\t// out\n        /* \"@openzeppelin/contracts-upgradeable/proxy/ERC1967/ERC1967UpgradeUpgradeable.sol\":1720:2001  function _setImplementation(address newImplementation) private {... */\n    tag_259:\n        /* \"@openzeppelin/contracts-upgradeable/proxy/ERC1967/ERC1967UpgradeUpgradeable.sol\":1801:1849  AddressUpgradeable.isContract(newImplementation) */\n      tag_293\n        /* \"@openzeppelin/contracts-upgradeable/proxy/ERC1967/ERC1967UpgradeUpgradeable.sol\":1831:1848  newImplementation */\n      dup2\n        /* \"@openzeppelin/contracts-upgradeable/proxy/ERC1967/ERC1967UpgradeUpgradeable.sol\":1801:1830  AddressUpgradeable.isContract */\n      tag_149\n        /* \"@openzeppelin/contracts-upgradeable/proxy/ERC1967/ERC1967UpgradeUpgradeable.sol\":1801:1849  AddressUpgradeable.isContract(newImplementation) */\n      jump\t// in\n    tag_293:\n        /* \"@openzeppelin/contracts-upgradeable/proxy/ERC1967/ERC1967UpgradeUpgradeable.sol\":1793:1899  require(AddressUpgradeable.isContract(newImplementation), \"ERC1967: new implementation is not a contract\") */\n      tag_294\n      jumpi\n      mload(0x40)\n      0x08c379a000000000000000000000000000000000000000000000000000000000\n      dup2\n      mstore\n      0x04\n      add\n      tag_295\n      swap1\n      tag_296\n      jump\t// in\n    tag_295:\n      mload(0x40)\n      dup1\n      swap2\n      sub\n      swap1\n      revert\n    tag_294:\n        /* \"@openzeppelin/contracts-upgradeable/proxy/ERC1967/ERC1967UpgradeUpgradeable.sol\":1977:1994  newImplementation */\n      dup1\n        /* \"@openzeppelin/contracts-upgradeable/proxy/ERC1967/ERC1967UpgradeUpgradeable.sol\":1909:1968  StorageSlotUpgradeable.getAddressSlot(_IMPLEMENTATION_SLOT) */\n      tag_297\n        /* \"@openzeppelin/contracts-upgradeable/proxy/ERC1967/ERC1967UpgradeUpgradeable.sol\":1180:1246  0x360894a13ba1a3210667c828492db98dca3e2076cc3735a920a3ca505d382bbc */\n      0x360894a13ba1a3210667c828492db98dca3e2076cc3735a920a3ca505d382bbc\n        /* \"@openzeppelin/contracts-upgradeable/proxy/ERC1967/ERC1967UpgradeUpgradeable.sol\":1947:1967  _IMPLEMENTATION_SLOT */\n      0x00\n      shl\n        /* \"@openzeppelin/contracts-upgradeable/proxy/ERC1967/ERC1967UpgradeUpgradeable.sol\":1909:1946  StorageSlotUpgradeable.getAddressSlot */\n      tag_250\n        /* \"@openzeppelin/contracts-upgradeable/proxy/ERC1967/ERC1967UpgradeUpgradeable.sol\":1909:1968  StorageSlotUpgradeable.getAddressSlot(_IMPLEMENTATION_SLOT) */\n      jump\t// in\n    tag_297:\n        /* \"@openzeppelin/contracts-upgradeable/proxy/ERC1967/ERC1967UpgradeUpgradeable.sol\":1909:1974  StorageSlotUpgradeable.getAddressSlot(_IMPLEMENTATION_SLOT).value */\n      0x00\n      add\n      0x00\n        /* \"@openzeppelin/contracts-upgradeable/proxy/ERC1967/ERC1967UpgradeUpgradeable.sol\":1909:1994  StorageSlotUpgradeable.getAddressSlot(_IMPLEMENTATION_SLOT).value = newImplementation */\n      0x0100\n      exp\n      dup2\n      sload\n      dup2\n      0xffffffffffffffffffffffffffffffffffffffff\n      mul\n      not\n      and\n      swap1\n      dup4\n      0xffffffffffffffffffffffffffffffffffffffff\n      and\n      mul\n      or\n      swap1\n      sstore\n      pop\n        /* \"@openzeppelin/contracts-upgradeable/proxy/ERC1967/ERC1967UpgradeUpgradeable.sol\":1720:2001  function _setImplementation(address newImplementation) private {... */\n      pop\n      jump\t// out\n        /* \"@openzeppelin/contracts-upgradeable/proxy/ERC1967/ERC1967UpgradeUpgradeable.sol\":2393:2669  function _upgradeToAndCall(address newImplementation, bytes memory data, bool forceCall) internal {... */\n    tag_275:\n        /* \"@openzeppelin/contracts-upgradeable/proxy/ERC1967/ERC1967UpgradeUpgradeable.sol\":2501:2530  _upgradeTo(newImplementation) */\n      tag_299\n        /* \"@openzeppelin/contracts-upgradeable/proxy/ERC1967/ERC1967UpgradeUpgradeable.sol\":2512:2529  newImplementation */\n      dup4\n        /* \"@openzeppelin/contracts-upgradeable/proxy/ERC1967/ERC1967UpgradeUpgradeable.sol\":2501:2511  _upgradeTo */\n      tag_300\n        /* \"@openzeppelin/contracts-upgradeable/proxy/ERC1967/ERC1967UpgradeUpgradeable.sol\":2501:2530  _upgradeTo(newImplementation) */\n      jump\t// in\n    tag_299:\n        /* \"@openzeppelin/contracts-upgradeable/proxy/ERC1967/ERC1967UpgradeUpgradeable.sol\":2558:2559  0 */\n      0x00\n        /* \"@openzeppelin/contracts-upgradeable/proxy/ERC1967/ERC1967UpgradeUpgradeable.sol\":2544:2548  data */\n      dup3\n        /* \"@openzeppelin/contracts-upgradeable/proxy/ERC1967/ERC1967UpgradeUpgradeable.sol\":2544:2555  data.length */\n      mload\n        /* \"@openzeppelin/contracts-upgradeable/proxy/ERC1967/ERC1967UpgradeUpgradeable.sol\":2544:2559  data.length > 0 */\n      gt\n        /* \"@openzeppelin/contracts-upgradeable/proxy/ERC1967/ERC1967UpgradeUpgradeable.sol\":2544:2572  data.length > 0 || forceCall */\n      dup1\n      tag_301\n      jumpi\n      pop\n        /* \"@openzeppelin/contracts-upgradeable/proxy/ERC1967/ERC1967UpgradeUpgradeable.sol\":2563:2572  forceCall */\n      dup1\n        /* \"@openzeppelin/contracts-upgradeable/proxy/ERC1967/ERC1967UpgradeUpgradeable.sol\":2544:2572  data.length > 0 || forceCall */\n    tag_301:\n        /* \"@openzeppelin/contracts-upgradeable/proxy/ERC1967/ERC1967UpgradeUpgradeable.sol\":2540:2663  if (data.length > 0 || forceCall) {... */\n      iszero\n      tag_302\n      jumpi\n        /* \"@openzeppelin/contracts-upgradeable/proxy/ERC1967/ERC1967UpgradeUpgradeable.sol\":2588:2652  AddressUpgradeable.functionDelegateCall(newImplementation, data) */\n      tag_303\n        /* \"@openzeppelin/contracts-upgradeable/proxy/ERC1967/ERC1967UpgradeUpgradeable.sol\":2628:2645  newImplementation */\n      dup4\n        /* \"@openzeppelin/contracts-upgradeable/proxy/ERC1967/ERC1967UpgradeUpgradeable.sol\":2647:2651  data */\n      dup4\n        /* \"@openzeppelin/contracts-upgradeable/proxy/ERC1967/ERC1967UpgradeUpgradeable.sol\":2588:2627  AddressUpgradeable.functionDelegateCall */\n      tag_304\n        /* \"@openzeppelin/contracts-upgradeable/proxy/ERC1967/ERC1967UpgradeUpgradeable.sol\":2588:2652  AddressUpgradeable.functionDelegateCall(newImplementation, data) */\n      jump\t// in\n    tag_303:\n      pop\n        /* \"@openzeppelin/contracts-upgradeable/proxy/ERC1967/ERC1967UpgradeUpgradeable.sol\":2540:2663  if (data.length > 0 || forceCall) {... */\n    tag_302:\n        /* \"@openzeppelin/contracts-upgradeable/proxy/ERC1967/ERC1967UpgradeUpgradeable.sol\":2393:2669  function _upgradeToAndCall(address newImplementation, bytes memory data, bool forceCall) internal {... */\n      pop\n      pop\n      pop\n      jump\t// out\n        /* \"@openzeppelin/contracts-upgradeable/utils/StringsUpgradeable.sol\":2473:2622  function toHexString(address addr) internal pure returns (string memory) {... */\n    tag_283:\n        /* \"@openzeppelin/contracts-upgradeable/utils/StringsUpgradeable.sol\":2531:2544  string memory */\n      0x60\n        /* \"@openzeppelin/contracts-upgradeable/utils/StringsUpgradeable.sol\":2563:2615  toHexString(uint256(uint160(addr)), _ADDRESS_LENGTH) */\n      tag_306\n        /* \"@openzeppelin/contracts-upgradeable/utils/StringsUpgradeable.sol\":2591:2595  addr */\n      dup3\n        /* \"@openzeppelin/contracts-upgradeable/utils/StringsUpgradeable.sol\":2575:2597  uint256(uint160(addr)) */\n      0xffffffffffffffffffffffffffffffffffffffff\n      and\n        /* \"@openzeppelin/contracts-upgradeable/utils/StringsUpgradeable.sol\":376:378  20 */\n      0x14\n        /* \"@openzeppelin/contracts-upgradeable/utils/StringsUpgradeable.sol\":2563:2615  toHexString(uint256(uint160(addr)), _ADDRESS_LENGTH) */\n      0xff\n      and\n        /* \"@openzeppelin/contracts-upgradeable/utils/StringsUpgradeable.sol\":2563:2574  toHexString */\n      tag_285\n        /* \"@openzeppelin/contracts-upgradeable/utils/StringsUpgradeable.sol\":2563:2615  toHexString(uint256(uint160(addr)), _ADDRESS_LENGTH) */\n      jump\t// in\n    tag_306:\n        /* \"@openzeppelin/contracts-upgradeable/utils/StringsUpgradeable.sol\":2556:2615  return toHexString(uint256(uint160(addr)), _ADDRESS_LENGTH) */\n      swap1\n      pop\n        /* \"@openzeppelin/contracts-upgradeable/utils/StringsUpgradeable.sol\":2473:2622  function toHexString(address addr) internal pure returns (string memory) {... */\n      swap2\n      swap1\n      pop\n      jump\t// out\n        /* \"@openzeppelin/contracts-upgradeable/utils/StringsUpgradeable.sol\":1884:2321  function toHexString(uint256 value, uint256 length) internal pure returns (string memory) {... */\n    tag_285:\n        /* \"@openzeppelin/contracts-upgradeable/utils/StringsUpgradeable.sol\":1959:1972  string memory */\n      0x60\n        /* \"@openzeppelin/contracts-upgradeable/utils/StringsUpgradeable.sol\":1984:2003  bytes memory buffer */\n      0x00\n        /* \"@openzeppelin/contracts-upgradeable/utils/StringsUpgradeable.sol\":2029:2030  2 */\n      0x02\n        /* \"@openzeppelin/contracts-upgradeable/utils/StringsUpgradeable.sol\":2020:2026  length */\n      dup4\n        /* \"@openzeppelin/contracts-upgradeable/utils/StringsUpgradeable.sol\":2016:2017  2 */\n      0x02\n        /* \"@openzeppelin/contracts-upgradeable/utils/StringsUpgradeable.sol\":2016:2026  2 * length */\n      tag_308\n      swap2\n      swap1\n      tag_220\n      jump\t// in\n    tag_308:\n        /* \"@openzeppelin/contracts-upgradeable/utils/StringsUpgradeable.sol\":2016:2030  2 * length + 2 */\n      tag_309\n      swap2\n      swap1\n      tag_310\n      jump\t// in\n    tag_309:\n        /* \"@openzeppelin/contracts-upgradeable/utils/StringsUpgradeable.sol\":2006:2031  new bytes(2 * length + 2) */\n      0xffffffffffffffff\n      dup2\n      gt\n      iszero\n      tag_311\n      jumpi\n      tag_312\n      tag_142\n      jump\t// in\n    tag_312:\n    tag_311:\n      mload(0x40)\n      swap1\n      dup1\n      dup3\n      mstore\n      dup1\n      0x1f\n      add\n      not(0x1f)\n      and\n      0x20\n      add\n      dup3\n      add\n      0x40\n      mstore\n      dup1\n      iszero\n      tag_313\n      jumpi\n      dup2\n      0x20\n      add\n      0x01\n      dup3\n      mul\n      dup1\n      calldatasize\n      dup4\n      calldatacopy\n      dup1\n      dup3\n      add\n      swap2\n      pop\n      pop\n      swap1\n      pop\n    tag_313:\n      pop\n        /* \"@openzeppelin/contracts-upgradeable/utils/StringsUpgradeable.sol\":1984:2031  bytes memory buffer = new bytes(2 * length + 2) */\n      swap1\n      pop\n        /* \"@openzeppelin/contracts-upgradeable/utils/StringsUpgradeable.sol\":2041:2056  buffer[0] = \"0\" */\n      0x3000000000000000000000000000000000000000000000000000000000000000\n        /* \"@openzeppelin/contracts-upgradeable/utils/StringsUpgradeable.sol\":2041:2047  buffer */\n      dup2\n        /* \"@openzeppelin/contracts-upgradeable/utils/StringsUpgradeable.sol\":2048:2049  0 */\n      0x00\n        /* \"@openzeppelin/contracts-upgradeable/utils/StringsUpgradeable.sol\":2041:2050  buffer[0] */\n      dup2\n      mload\n      dup2\n      lt\n      tag_314\n      jumpi\n      tag_315\n      tag_193\n      jump\t// in\n    tag_315:\n    tag_314:\n      0x20\n      add\n      add\n        /* \"@openzeppelin/contracts-upgradeable/utils/StringsUpgradeable.sol\":2041:2056  buffer[0] = \"0\" */\n      swap1\n      not(0xffffffffffffffffffffffffffffffffffffffffffffffffffffffffffffff)\n      and\n      swap1\n      dup2\n      0x00\n      byte\n      swap1\n      mstore8\n      pop\n        /* \"@openzeppelin/contracts-upgradeable/utils/StringsUpgradeable.sol\":2066:2081  buffer[1] = \"x\" */\n      0x7800000000000000000000000000000000000000000000000000000000000000\n        /* \"@openzeppelin/contracts-upgradeable/utils/StringsUpgradeable.sol\":2066:2072  buffer */\n      dup2\n        /* \"@openzeppelin/contracts-upgradeable/utils/StringsUpgradeable.sol\":2073:2074  1 */\n      0x01\n        /* \"@openzeppelin/contracts-upgradeable/utils/StringsUpgradeable.sol\":2066:2075  buffer[1] */\n      dup2\n      mload\n      dup2\n      lt\n      tag_316\n      jumpi\n      tag_317\n      tag_193\n      jump\t// in\n    tag_317:\n    tag_316:\n      0x20\n      add\n      add\n        /* \"@openzeppelin/contracts-upgradeable/utils/StringsUpgradeable.sol\":2066:2081  buffer[1] = \"x\" */\n      swap1\n      not(0xffffffffffffffffffffffffffffffffffffffffffffffffffffffffffffff)\n      and\n      swap1\n      dup2\n      0x00\n      byte\n      swap1\n      mstore8\n      pop\n        /* \"@openzeppelin/contracts-upgradeable/utils/StringsUpgradeable.sol\":2096:2105  uint256 i */\n      0x00\n        /* \"@openzeppelin/contracts-upgradeable/utils/StringsUpgradeable.sol\":2121:2122  1 */\n      0x01\n        /* \"@openzeppelin/contracts-upgradeable/utils/StringsUpgradeable.sol\":2112:2118  length */\n      dup5\n        /* \"@openzeppelin/contracts-upgradeable/utils/StringsUpgradeable.sol\":2108:2109  2 */\n      0x02\n        /* \"@openzeppelin/contracts-upgradeable/utils/StringsUpgradeable.sol\":2108:2118  2 * length */\n      tag_321\n      swap2\n      swap1\n      tag_220\n      jump\t// in\n    tag_321:\n        /* \"@openzeppelin/contracts-upgradeable/utils/StringsUpgradeable.sol\":2108:2122  2 * length + 1 */\n      tag_322\n      swap2\n      swap1\n      tag_310\n      jump\t// in\n    tag_322:\n        /* \"@openzeppelin/contracts-upgradeable/utils/StringsUpgradeable.sol\":2096:2122  uint256 i = 2 * length + 1 */\n      swap1\n      pop\n        /* \"@openzeppelin/contracts-upgradeable/utils/StringsUpgradeable.sol\":2091:2219  for (uint256 i = 2 * length + 1; i > 1; --i) {... */\n    tag_318:\n        /* \"@openzeppelin/contracts-upgradeable/utils/StringsUpgradeable.sol\":2128:2129  1 */\n      0x01\n        /* \"@openzeppelin/contracts-upgradeable/utils/StringsUpgradeable.sol\":2124:2125  i */\n      dup2\n        /* \"@openzeppelin/contracts-upgradeable/utils/StringsUpgradeable.sol\":2124:2129  i > 1 */\n      gt\n        /* \"@openzeppelin/contracts-upgradeable/utils/StringsUpgradeable.sol\":2091:2219  for (uint256 i = 2 * length + 1; i > 1; --i) {... */\n      iszero\n      tag_319\n      jumpi\n        /* \"@openzeppelin/contracts-upgradeable/utils/StringsUpgradeable.sol\":2162:2170  _SYMBOLS */\n      0x3031323334353637383961626364656600000000000000000000000000000000\n        /* \"@openzeppelin/contracts-upgradeable/utils/StringsUpgradeable.sol\":2179:2182  0xf */\n      0x0f\n        /* \"@openzeppelin/contracts-upgradeable/utils/StringsUpgradeable.sol\":2171:2176  value */\n      dup7\n        /* \"@openzeppelin/contracts-upgradeable/utils/StringsUpgradeable.sol\":2171:2182  value & 0xf */\n      and\n        /* \"@openzeppelin/contracts-upgradeable/utils/StringsUpgradeable.sol\":2162:2183  _SYMBOLS[value & 0xf] */\n      0x10\n      dup2\n      lt\n      tag_323\n      jumpi\n      tag_324\n      tag_193\n      jump\t// in\n    tag_324:\n    tag_323:\n      byte\n      0xf8\n      shl\n        /* \"@openzeppelin/contracts-upgradeable/utils/StringsUpgradeable.sol\":2150:2156  buffer */\n      dup3\n        /* \"@openzeppelin/contracts-upgradeable/utils/StringsUpgradeable.sol\":2157:2158  i */\n      dup3\n        /* \"@openzeppelin/contracts-upgradeable/utils/StringsUpgradeable.sol\":2150:2159  buffer[i] */\n      dup2\n      mload\n      dup2\n      lt\n      tag_325\n      jumpi\n      tag_326\n      tag_193\n      jump\t// in\n    tag_326:\n    tag_325:\n      0x20\n      add\n      add\n        /* \"@openzeppelin/contracts-upgradeable/utils/StringsUpgradeable.sol\":2150:2183  buffer[i] = _SYMBOLS[value & 0xf] */\n      swap1\n      not(0xffffffffffffffffffffffffffffffffffffffffffffffffffffffffffffff)\n      and\n      swap1\n      dup2\n      0x00\n      byte\n      swap1\n      mstore8\n      pop\n        /* \"@openzeppelin/contracts-upgradeable/utils/StringsUpgradeable.sol\":2207:2208  4 */\n      0x04\n        /* \"@openzeppelin/contracts-upgradeable/utils/StringsUpgradeable.sol\":2197:2208  value >>= 4 */\n      dup6\n      swap1\n      shr\n      swap5\n      pop\n        /* \"@openzeppelin/contracts-upgradeable/utils/StringsUpgradeable.sol\":2131:2134  --i */\n      dup1\n      tag_327\n      swap1\n      tag_328\n      jump\t// in\n    tag_327:\n      swap1\n      pop\n        /* \"@openzeppelin/contracts-upgradeable/utils/StringsUpgradeable.sol\":2091:2219  for (uint256 i = 2 * length + 1; i > 1; --i) {... */\n      jump(tag_318)\n    tag_319:\n      pop\n        /* \"@openzeppelin/contracts-upgradeable/utils/StringsUpgradeable.sol\":2245:2246  0 */\n      0x00\n        /* \"@openzeppelin/contracts-upgradeable/utils/StringsUpgradeable.sol\":2236:2241  value */\n      dup5\n        /* \"@openzeppelin/contracts-upgradeable/utils/StringsUpgradeable.sol\":2236:2246  value == 0 */\n      eq\n        /* \"@openzeppelin/contracts-upgradeable/utils/StringsUpgradeable.sol\":2228:2283  require(value == 0, \"Strings: hex length insufficient\") */\n      tag_329\n      jumpi\n      mload(0x40)\n      0x08c379a000000000000000000000000000000000000000000000000000000000\n      dup2\n      mstore\n      0x04\n      add\n      tag_330\n      swap1\n      tag_331\n      jump\t// in\n    tag_330:\n      mload(0x40)\n      dup1\n      swap2\n      sub\n      swap1\n      revert\n    tag_329:\n        /* \"@openzeppelin/contracts-upgradeable/utils/StringsUpgradeable.sol\":2307:2313  buffer */\n      dup1\n        /* \"@openzeppelin/contracts-upgradeable/utils/StringsUpgradeable.sol\":2293:2314  return string(buffer) */\n      swap2\n      pop\n      pop\n        /* \"@openzeppelin/contracts-upgradeable/utils/StringsUpgradeable.sol\":1884:2321  function toHexString(uint256 value, uint256 length) internal pure returns (string memory) {... */\n      swap3\n      swap2\n      pop\n      pop\n      jump\t// out\n        /* \"@openzeppelin/contracts-upgradeable/proxy/ERC1967/ERC1967UpgradeUpgradeable.sol\":2107:2259  function _upgradeTo(address newImplementation) internal {... */\n    tag_300:\n        /* \"@openzeppelin/contracts-upgradeable/proxy/ERC1967/ERC1967UpgradeUpgradeable.sol\":2173:2210  _setImplementation(newImplementation) */\n      tag_333\n        /* \"@openzeppelin/contracts-upgradeable/proxy/ERC1967/ERC1967UpgradeUpgradeable.sol\":2192:2209  newImplementation */\n      dup2\n        /* \"@openzeppelin/contracts-upgradeable/proxy/ERC1967/ERC1967UpgradeUpgradeable.sol\":2173:2191  _setImplementation */\n      tag_259\n        /* \"@openzeppelin/contracts-upgradeable/proxy/ERC1967/ERC1967UpgradeUpgradeable.sol\":2173:2210  _setImplementation(newImplementation) */\n      jump\t// in\n    tag_333:\n        /* \"@openzeppelin/contracts-upgradeable/proxy/ERC1967/ERC1967UpgradeUpgradeable.sol\":2234:2251  newImplementation */\n      dup1\n        /* \"@openzeppelin/contracts-upgradeable/proxy/ERC1967/ERC1967UpgradeUpgradeable.sol\":2225:2252  Upgraded(newImplementation) */\n      0xffffffffffffffffffffffffffffffffffffffff\n      and\n      0xbc7cd75a20ee27fd9adebab32041f755214dbc6bffa90cc0225b39da2e5c2d3b\n      mload(0x40)\n      mload(0x40)\n      dup1\n      swap2\n      sub\n      swap1\n      log2\n        /* \"@openzeppelin/contracts-upgradeable/proxy/ERC1967/ERC1967UpgradeUpgradeable.sol\":2107:2259  function _upgradeTo(address newImplementation) internal {... */\n      pop\n      jump\t// out\n        /* \"@openzeppelin/contracts-upgradeable/utils/AddressUpgradeable.sol\":6685:6883  function functionDelegateCall(address target, bytes memory data) internal returns (bytes memory) {... */\n    tag_304:\n        /* \"@openzeppelin/contracts-upgradeable/utils/AddressUpgradeable.sol\":6768:6780  bytes memory */\n      0x60\n        /* \"@openzeppelin/contracts-upgradeable/utils/AddressUpgradeable.sol\":6799:6876  functionDelegateCall(target, data, \"Address: low-level delegate call failed\") */\n      tag_335\n        /* \"@openzeppelin/contracts-upgradeable/utils/AddressUpgradeable.sol\":6820:6826  target */\n      dup4\n        /* \"@openzeppelin/contracts-upgradeable/utils/AddressUpgradeable.sol\":6828:6832  data */\n      dup4\n        /* \"@openzeppelin/contracts-upgradeable/utils/AddressUpgradeable.sol\":6799:6876  functionDelegateCall(target, data, \"Address: low-level delegate call failed\") */\n      mload(0x40)\n      dup1\n      0x60\n      add\n      0x40\n      mstore\n      dup1\n      0x27\n      dup2\n      mstore\n      0x20\n      add\n      data_9fdcd12e4b726339b32a442b0a448365d5d85c96b2d2cff917b4f66c63110398\n      0x27\n      swap2\n      codecopy\n        /* \"@openzeppelin/contracts-upgradeable/utils/AddressUpgradeable.sol\":6799:6819  functionDelegateCall */\n      tag_336\n        /* \"@openzeppelin/contracts-upgradeable/utils/AddressUpgradeable.sol\":6799:6876  functionDelegateCall(target, data, \"Address: low-level delegate call failed\") */\n      jump\t// in\n    tag_335:\n        /* \"@openzeppelin/contracts-upgradeable/utils/AddressUpgradeable.sol\":6792:6876  return functionDelegateCall(target, data, \"Address: low-level delegate call failed\") */\n      swap1\n      pop\n        /* \"@openzeppelin/contracts-upgradeable/utils/AddressUpgradeable.sol\":6685:6883  function functionDelegateCall(address target, bytes memory data) internal returns (bytes memory) {... */\n      swap3\n      swap2\n      pop\n      pop\n      jump\t// out\n        /* \"@openzeppelin/contracts-upgradeable/utils/AddressUpgradeable.sol\":7069:7394  function functionDelegateCall(... */\n    tag_336:\n        /* \"@openzeppelin/contracts-upgradeable/utils/AddressUpgradeable.sol\":7210:7222  bytes memory */\n      0x60\n        /* \"@openzeppelin/contracts-upgradeable/utils/AddressUpgradeable.sol\":7235:7247  bool success */\n      0x00\n        /* \"@openzeppelin/contracts-upgradeable/utils/AddressUpgradeable.sol\":7249:7272  bytes memory returndata */\n      dup1\n        /* \"@openzeppelin/contracts-upgradeable/utils/AddressUpgradeable.sol\":7276:7282  target */\n      dup6\n        /* \"@openzeppelin/contracts-upgradeable/utils/AddressUpgradeable.sol\":7276:7295  target.delegatecall */\n      0xffffffffffffffffffffffffffffffffffffffff\n      and\n        /* \"@openzeppelin/contracts-upgradeable/utils/AddressUpgradeable.sol\":7296:7300  data */\n      dup6\n        /* \"@openzeppelin/contracts-upgradeable/utils/AddressUpgradeable.sol\":7276:7301  target.delegatecall(data) */\n      mload(0x40)\n      tag_338\n      swap2\n      swap1\n      tag_339\n      jump\t// in\n    tag_338:\n      0x00\n      mload(0x40)\n      dup1\n      dup4\n      sub\n      dup2\n      dup6\n      gas\n      delegatecall\n      swap2\n      pop\n      pop\n      returndatasize\n      dup1\n      0x00\n      dup2\n      eq\n      tag_342\n      jumpi\n      mload(0x40)\n      swap2\n      pop\n      and(add(returndatasize, 0x3f), not(0x1f))\n      dup3\n      add\n      0x40\n      mstore\n      returndatasize\n      dup3\n      mstore\n      returndatasize\n      0x00\n      0x20\n      dup5\n      add\n      returndatacopy\n      jump(tag_341)\n    tag_342:\n      0x60\n      swap2\n      pop\n    tag_341:\n      pop\n        /* \"@openzeppelin/contracts-upgradeable/utils/AddressUpgradeable.sol\":7234:7301  (bool success, bytes memory returndata) = target.delegatecall(data) */\n      swap2\n      pop\n      swap2\n      pop\n        /* \"@openzeppelin/contracts-upgradeable/utils/AddressUpgradeable.sol\":7318:7387  verifyCallResultFromTarget(target, success, returndata, errorMessage) */\n      tag_343\n        /* \"@openzeppelin/contracts-upgradeable/utils/AddressUpgradeable.sol\":7345:7351  target */\n      dup7\n        /* \"@openzeppelin/contracts-upgradeable/utils/AddressUpgradeable.sol\":7353:7360  success */\n      dup4\n        /* \"@openzeppelin/contracts-upgradeable/utils/AddressUpgradeable.sol\":7362:7372  returndata */\n      dup4\n        /* \"@openzeppelin/contracts-upgradeable/utils/AddressUpgradeable.sol\":7374:7386  errorMessage */\n      dup8\n        /* \"@openzeppelin/contracts-upgradeable/utils/AddressUpgradeable.sol\":7318:7344  verifyCallResultFromTarget */\n      tag_344\n        /* \"@openzeppelin/contracts-upgradeable/utils/AddressUpgradeable.sol\":7318:7387  verifyCallResultFromTarget(target, success, returndata, errorMessage) */\n      jump\t// in\n    tag_343:\n        /* \"@openzeppelin/contracts-upgradeable/utils/AddressUpgradeable.sol\":7311:7387  return verifyCallResultFromTarget(target, success, returndata, errorMessage) */\n      swap3\n      pop\n      pop\n      pop\n        /* \"@openzeppelin/contracts-upgradeable/utils/AddressUpgradeable.sol\":7069:7394  function functionDelegateCall(... */\n      swap4\n      swap3\n      pop\n      pop\n      pop\n      jump\t// out\n        /* \"@openzeppelin/contracts-upgradeable/utils/AddressUpgradeable.sol\":7682:8310  function verifyCallResultFromTarget(... */\n    tag_344:\n        /* \"@openzeppelin/contracts-upgradeable/utils/AddressUpgradeable.sol\":7862:7874  bytes memory */\n      0x60\n        /* \"@openzeppelin/contracts-upgradeable/utils/AddressUpgradeable.sol\":7890:7897  success */\n      dup4\n        /* \"@openzeppelin/contracts-upgradeable/utils/AddressUpgradeable.sol\":7886:8304  if (success) {... */\n      iszero\n      tag_346\n      jumpi\n        /* \"@openzeppelin/contracts-upgradeable/utils/AddressUpgradeable.sol\":7938:7939  0 */\n      0x00\n        /* \"@openzeppelin/contracts-upgradeable/utils/AddressUpgradeable.sol\":7917:7927  returndata */\n      dup4\n        /* \"@openzeppelin/contracts-upgradeable/utils/AddressUpgradeable.sol\":7917:7934  returndata.length */\n      mload\n        /* \"@openzeppelin/contracts-upgradeable/utils/AddressUpgradeable.sol\":7917:7939  returndata.length == 0 */\n      sub\n        /* \"@openzeppelin/contracts-upgradeable/utils/AddressUpgradeable.sol\":7913:8199  if (returndata.length == 0) {... */\n      tag_347\n      jumpi\n        /* \"@openzeppelin/contracts-upgradeable/utils/AddressUpgradeable.sol\":8132:8150  isContract(target) */\n      tag_348\n        /* \"@openzeppelin/contracts-upgradeable/utils/AddressUpgradeable.sol\":8143:8149  target */\n      dup6\n        /* \"@openzeppelin/contracts-upgradeable/utils/AddressUpgradeable.sol\":8132:8142  isContract */\n      tag_149\n        /* \"@openzeppelin/contracts-upgradeable/utils/AddressUpgradeable.sol\":8132:8150  isContract(target) */\n      jump\t// in\n    tag_348:\n        /* \"@openzeppelin/contracts-upgradeable/utils/AddressUpgradeable.sol\":8124:8184  require(isContract(target), \"Address: call to non-contract\") */\n      tag_349\n      jumpi\n      mload(0x40)\n      0x08c379a000000000000000000000000000000000000000000000000000000000\n      dup2\n      mstore\n      0x04\n      add\n      tag_350\n      swap1\n      tag_351\n      jump\t// in\n    tag_350:\n      mload(0x40)\n      dup1\n      swap2\n      sub\n      swap1\n      revert\n    tag_349:\n        /* \"@openzeppelin/contracts-upgradeable/utils/AddressUpgradeable.sol\":7913:8199  if (returndata.length == 0) {... */\n    tag_347:\n        /* \"@openzeppelin/contracts-upgradeable/utils/AddressUpgradeable.sol\":8219:8229  returndata */\n      dup3\n        /* \"@openzeppelin/contracts-upgradeable/utils/AddressUpgradeable.sol\":8212:8229  return returndata */\n      swap1\n      pop\n      jump(tag_345)\n        /* \"@openzeppelin/contracts-upgradeable/utils/AddressUpgradeable.sol\":7886:8304  if (success) {... */\n    tag_346:\n        /* \"@openzeppelin/contracts-upgradeable/utils/AddressUpgradeable.sol\":8260:8293  _revert(returndata, errorMessage) */\n      tag_353\n        /* \"@openzeppelin/contracts-upgradeable/utils/AddressUpgradeable.sol\":8268:8278  returndata */\n      dup4\n        /* \"@openzeppelin/contracts-upgradeable/utils/AddressUpgradeable.sol\":8280:8292  errorMessage */\n      dup4\n        /* \"@openzeppelin/contracts-upgradeable/utils/AddressUpgradeable.sol\":8260:8267  _revert */\n      tag_354\n        /* \"@openzeppelin/contracts-upgradeable/utils/AddressUpgradeable.sol\":8260:8293  _revert(returndata, errorMessage) */\n      jump\t// in\n    tag_353:\n        /* \"@openzeppelin/contracts-upgradeable/utils/AddressUpgradeable.sol\":7682:8310  function verifyCallResultFromTarget(... */\n    tag_345:\n      swap5\n      swap4\n      pop\n      pop\n      pop\n      pop\n      jump\t// out\n        /* \"@openzeppelin/contracts-upgradeable/utils/AddressUpgradeable.sol\":8832:9372  function _revert(bytes memory returndata, string memory errorMessage) private pure {... */\n    tag_354:\n        /* \"@openzeppelin/contracts-upgradeable/utils/AddressUpgradeable.sol\":9011:9012  0 */\n      0x00\n        /* \"@openzeppelin/contracts-upgradeable/utils/AddressUpgradeable.sol\":8991:9001  returndata */\n      dup3\n        /* \"@openzeppelin/contracts-upgradeable/utils/AddressUpgradeable.sol\":8991:9008  returndata.length */\n      mload\n        /* \"@openzeppelin/contracts-upgradeable/utils/AddressUpgradeable.sol\":8991:9012  returndata.length > 0 */\n      gt\n        /* \"@openzeppelin/contracts-upgradeable/utils/AddressUpgradeable.sol\":8987:9366  if (returndata.length > 0) {... */\n      iszero\n      tag_356\n      jumpi\n        /* \"@openzeppelin/contracts-upgradeable/utils/AddressUpgradeable.sol\":9219:9229  returndata */\n      dup2\n        /* \"@openzeppelin/contracts-upgradeable/utils/AddressUpgradeable.sol\":9213:9230  mload(returndata) */\n      mload\n        /* \"@openzeppelin/contracts-upgradeable/utils/AddressUpgradeable.sol\":9275:9290  returndata_size */\n      dup1\n        /* \"@openzeppelin/contracts-upgradeable/utils/AddressUpgradeable.sol\":9262:9272  returndata */\n      dup4\n        /* \"@openzeppelin/contracts-upgradeable/utils/AddressUpgradeable.sol\":9258:9260  32 */\n      0x20\n        /* \"@openzeppelin/contracts-upgradeable/utils/AddressUpgradeable.sol\":9254:9273  add(32, returndata) */\n      add\n        /* \"@openzeppelin/contracts-upgradeable/utils/AddressUpgradeable.sol\":9247:9291  revert(add(32, returndata), returndata_size) */\n      revert\n        /* \"@openzeppelin/contracts-upgradeable/utils/AddressUpgradeable.sol\":8987:9366  if (returndata.length > 0) {... */\n    tag_356:\n        /* \"@openzeppelin/contracts-upgradeable/utils/AddressUpgradeable.sol\":9342:9354  errorMessage */\n      dup1\n        /* \"@openzeppelin/contracts-upgradeable/utils/AddressUpgradeable.sol\":9335:9355  revert(errorMessage) */\n      mload(0x40)\n      0x08c379a000000000000000000000000000000000000000000000000000000000\n      dup2\n      mstore\n      0x04\n      add\n      tag_358\n      swap2\n      swap1\n      tag_289\n      jump\t// in\n    tag_358:\n      mload(0x40)\n      dup1\n      swap2\n      sub\n      swap1\n      revert\n    tag_183:\n      mload(0x40)\n      dup1\n      0x40\n      add\n      0x40\n      mstore\n      dup1\n      and(0xffffffffffffffffffffffffffffffffffffffff, 0x00)\n      dup2\n      mstore\n      0x20\n      add\n      0x00\n      dup2\n      mstore\n      pop\n      swap1\n      jump\t// out\n        /* \"#utility.yul\":7:82   */\n    tag_359:\n        /* \"#utility.yul\":40:46   */\n      0x00\n        /* \"#utility.yul\":73:75   */\n      0x40\n        /* \"#utility.yul\":67:76   */\n      mload\n        /* \"#utility.yul\":57:76   */\n      swap1\n      pop\n        /* \"#utility.yul\":7:82   */\n      swap1\n      jump\t// out\n        /* \"#utility.yul\":88:205   */\n    tag_360:\n        /* \"#utility.yul\":197:198   */\n      0x00\n        /* \"#utility.yul\":194:195   */\n      dup1\n        /* \"#utility.yul\":187:199   */\n      revert\n        /* \"#utility.yul\":211:328   */\n    tag_361:\n        /* \"#utility.yul\":320:321   */\n      0x00\n        /* \"#utility.yul\":317:318   */\n      dup1\n        /* \"#utility.yul\":310:322   */\n      revert\n        /* \"#utility.yul\":334:483   */\n    tag_362:\n        /* \"#utility.yul\":370:377   */\n      0x00\n        /* \"#utility.yul\":410:476   */\n      0xffffffff00000000000000000000000000000000000000000000000000000000\n        /* \"#utility.yul\":403:408   */\n      dup3\n        /* \"#utility.yul\":399:477   */\n      and\n        /* \"#utility.yul\":388:477   */\n      swap1\n      pop\n        /* \"#utility.yul\":334:483   */\n      swap2\n      swap1\n      pop\n      jump\t// out\n        /* \"#utility.yul\":489:609   */\n    tag_363:\n        /* \"#utility.yul\":561:584   */\n      tag_441\n        /* \"#utility.yul\":578:583   */\n      dup2\n        /* \"#utility.yul\":561:584   */\n      tag_362\n      jump\t// in\n    tag_441:\n        /* \"#utility.yul\":554:559   */\n      dup2\n        /* \"#utility.yul\":551:585   */\n      eq\n        /* \"#utility.yul\":541:603   */\n      tag_442\n      jumpi\n        /* \"#utility.yul\":599:600   */\n      0x00\n        /* \"#utility.yul\":596:597   */\n      dup1\n        /* \"#utility.yul\":589:601   */\n      revert\n        /* \"#utility.yul\":541:603   */\n    tag_442:\n        /* \"#utility.yul\":489:609   */\n      pop\n      jump\t// out\n        /* \"#utility.yul\":615:752   */\n    tag_364:\n        /* \"#utility.yul\":660:665   */\n      0x00\n        /* \"#utility.yul\":698:704   */\n      dup2\n        /* \"#utility.yul\":685:705   */\n      calldataload\n        /* \"#utility.yul\":676:705   */\n      swap1\n      pop\n        /* \"#utility.yul\":714:746   */\n      tag_444\n        /* \"#utility.yul\":740:745   */\n      dup2\n        /* \"#utility.yul\":714:746   */\n      tag_363\n      jump\t// in\n    tag_444:\n        /* \"#utility.yul\":615:752   */\n      swap3\n      swap2\n      pop\n      pop\n      jump\t// out\n        /* \"#utility.yul\":758:1085   */\n    tag_23:\n        /* \"#utility.yul\":816:822   */\n      0x00\n        /* \"#utility.yul\":865:867   */\n      0x20\n        /* \"#utility.yul\":853:862   */\n      dup3\n        /* \"#utility.yul\":844:851   */\n      dup5\n        /* \"#utility.yul\":840:863   */\n      sub\n        /* \"#utility.yul\":836:868   */\n      slt\n        /* \"#utility.yul\":833:952   */\n      iszero\n      tag_446\n      jumpi\n        /* \"#utility.yul\":871:950   */\n      tag_447\n      tag_360\n      jump\t// in\n    tag_447:\n        /* \"#utility.yul\":833:952   */\n    tag_446:\n        /* \"#utility.yul\":991:992   */\n      0x00\n        /* \"#utility.yul\":1016:1068   */\n      tag_448\n        /* \"#utility.yul\":1060:1067   */\n      dup5\n        /* \"#utility.yul\":1051:1057   */\n      dup3\n        /* \"#utility.yul\":1040:1049   */\n      dup6\n        /* \"#utility.yul\":1036:1058   */\n      add\n        /* \"#utility.yul\":1016:1068   */\n      tag_364\n      jump\t// in\n    tag_448:\n        /* \"#utility.yul\":1006:1068   */\n      swap2\n      pop\n        /* \"#utility.yul\":962:1078   */\n      pop\n        /* \"#utility.yul\":758:1085   */\n      swap3\n      swap2\n      pop\n      pop\n      jump\t// out\n        /* \"#utility.yul\":1091:1181   */\n    tag_365:\n        /* \"#utility.yul\":1125:1132   */\n      0x00\n        /* \"#utility.yul\":1168:1173   */\n      dup2\n        /* \"#utility.yul\":1161:1174   */\n      iszero\n        /* \"#utility.yul\":1154:1175   */\n      iszero\n        /* \"#utility.yul\":1143:1175   */\n      swap1\n      pop\n        /* \"#utility.yul\":1091:1181   */\n      swap2\n      swap1\n      pop\n      jump\t// out\n        /* \"#utility.yul\":1187:1296   */\n    tag_366:\n        /* \"#utility.yul\":1268:1289   */\n      tag_451\n        /* \"#utility.yul\":1283:1288   */\n      dup2\n        /* \"#utility.yul\":1268:1289   */\n      tag_365\n      jump\t// in\n    tag_451:\n        /* \"#utility.yul\":1263:1266   */\n      dup3\n        /* \"#utility.yul\":1256:1290   */\n      mstore\n        /* \"#utility.yul\":1187:1296   */\n      pop\n      pop\n      jump\t// out\n        /* \"#utility.yul\":1302:1512   */\n    tag_26:\n        /* \"#utility.yul\":1389:1393   */\n      0x00\n        /* \"#utility.yul\":1427:1429   */\n      0x20\n        /* \"#utility.yul\":1416:1425   */\n      dup3\n        /* \"#utility.yul\":1412:1430   */\n      add\n        /* \"#utility.yul\":1404:1430   */\n      swap1\n      pop\n        /* \"#utility.yul\":1440:1505   */\n      tag_453\n        /* \"#utility.yul\":1502:1503   */\n      0x00\n        /* \"#utility.yul\":1491:1500   */\n      dup4\n        /* \"#utility.yul\":1487:1504   */\n      add\n        /* \"#utility.yul\":1478:1484   */\n      dup5\n        /* \"#utility.yul\":1440:1505   */\n      tag_366\n      jump\t// in\n    tag_453:\n        /* \"#utility.yul\":1302:1512   */\n      swap3\n      swap2\n      pop\n      pop\n      jump\t// out\n        /* \"#utility.yul\":1518:1595   */\n    tag_367:\n        /* \"#utility.yul\":1555:1562   */\n      0x00\n        /* \"#utility.yul\":1584:1589   */\n      dup2\n        /* \"#utility.yul\":1573:1589   */\n      swap1\n      pop\n        /* \"#utility.yul\":1518:1595   */\n      swap2\n      swap1\n      pop\n      jump\t// out\n        /* \"#utility.yul\":1601:1723   */\n    tag_368:\n        /* \"#utility.yul\":1674:1698   */\n      tag_456\n        /* \"#utility.yul\":1692:1697   */\n      dup2\n        /* \"#utility.yul\":1674:1698   */\n      tag_367\n      jump\t// in\n    tag_456:\n        /* \"#utility.yul\":1667:1672   */\n      dup2\n        /* \"#utility.yul\":1664:1699   */\n      eq\n        /* \"#utility.yul\":1654:1717   */\n      tag_457\n      jumpi\n        /* \"#utility.yul\":1713:1714   */\n      0x00\n        /* \"#utility.yul\":1710:1711   */\n      dup1\n        /* \"#utility.yul\":1703:1715   */\n      revert\n        /* \"#utility.yul\":1654:1717   */\n    tag_457:\n        /* \"#utility.yul\":1601:1723   */\n      pop\n      jump\t// out\n        /* \"#utility.yul\":1729:1868   */\n    tag_369:\n        /* \"#utility.yul\":1775:1780   */\n      0x00\n        /* \"#utility.yul\":1813:1819   */\n      dup2\n        /* \"#utility.yul\":1800:1820   */\n      calldataload\n        /* \"#utility.yul\":1791:1820   */\n      swap1\n      pop\n        /* \"#utility.yul\":1829:1862   */\n      tag_459\n        /* \"#utility.yul\":1856:1861   */\n      dup2\n        /* \"#utility.yul\":1829:1862   */\n      tag_368\n      jump\t// in\n    tag_459:\n        /* \"#utility.yul\":1729:1868   */\n      swap3\n      swap2\n      pop\n      pop\n      jump\t// out\n        /* \"#utility.yul\":1874:2203   */\n    tag_33:\n        /* \"#utility.yul\":1933:1939   */\n      0x00\n        /* \"#utility.yul\":1982:1984   */\n      0x20\n        /* \"#utility.yul\":1970:1979   */\n      dup3\n        /* \"#utility.yul\":1961:1968   */\n      dup5\n        /* \"#utility.yul\":1957:1980   */\n      sub\n        /* \"#utility.yul\":1953:1985   */\n      slt\n        /* \"#utility.yul\":1950:2069   */\n      iszero\n      tag_461\n      jumpi\n        /* \"#utility.yul\":1988:2067   */\n      tag_462\n      tag_360\n      jump\t// in\n    tag_462:\n        /* \"#utility.yul\":1950:2069   */\n    tag_461:\n        /* \"#utility.yul\":2108:2109   */\n      0x00\n        /* \"#utility.yul\":2133:2186   */\n      tag_463\n        /* \"#utility.yul\":2178:2185   */\n      dup5\n        /* \"#utility.yul\":2169:2175   */\n      dup3\n        /* \"#utility.yul\":2158:2167   */\n      dup6\n        /* \"#utility.yul\":2154:2176   */\n      add\n        /* \"#utility.yul\":2133:2186   */\n      tag_369\n      jump\t// in\n    tag_463:\n        /* \"#utility.yul\":2123:2186   */\n      swap2\n      pop\n        /* \"#utility.yul\":2079:2196   */\n      pop\n        /* \"#utility.yul\":1874:2203   */\n      swap3\n      swap2\n      pop\n      pop\n      jump\t// out\n        /* \"#utility.yul\":2209:2327   */\n    tag_370:\n        /* \"#utility.yul\":2296:2320   */\n      tag_465\n        /* \"#utility.yul\":2314:2319   */\n      dup2\n        /* \"#utility.yul\":2296:2320   */\n      tag_367\n      jump\t// in\n    tag_465:\n        /* \"#utility.yul\":2291:2294   */\n      dup3\n        /* \"#utility.yul\":2284:2321   */\n      mstore\n        /* \"#utility.yul\":2209:2327   */\n      pop\n      pop\n      jump\t// out\n        /* \"#utility.yul\":2333:2555   */\n    tag_36:\n        /* \"#utility.yul\":2426:2430   */\n      0x00\n        /* \"#utility.yul\":2464:2466   */\n      0x20\n        /* \"#utility.yul\":2453:2462   */\n      dup3\n        /* \"#utility.yul\":2449:2467   */\n      add\n        /* \"#utility.yul\":2441:2467   */\n      swap1\n      pop\n        /* \"#utility.yul\":2477:2548   */\n      tag_467\n        /* \"#utility.yul\":2545:2546   */\n      0x00\n        /* \"#utility.yul\":2534:2543   */\n      dup4\n        /* \"#utility.yul\":2530:2547   */\n      add\n        /* \"#utility.yul\":2521:2527   */\n      dup5\n        /* \"#utility.yul\":2477:2548   */\n      tag_370\n      jump\t// in\n    tag_467:\n        /* \"#utility.yul\":2333:2555   */\n      swap3\n      swap2\n      pop\n      pop\n      jump\t// out\n        /* \"#utility.yul\":2561:2687   */\n    tag_371:\n        /* \"#utility.yul\":2598:2605   */\n      0x00\n        /* \"#utility.yul\":2638:2680   */\n      0xffffffffffffffffffffffffffffffffffffffff\n        /* \"#utility.yul\":2631:2636   */\n      dup3\n        /* \"#utility.yul\":2627:2681   */\n      and\n        /* \"#utility.yul\":2616:2681   */\n      swap1\n      pop\n        /* \"#utility.yul\":2561:2687   */\n      swap2\n      swap1\n      pop\n      jump\t// out\n        /* \"#utility.yul\":2693:2789   */\n    tag_372:\n        /* \"#utility.yul\":2730:2737   */\n      0x00\n        /* \"#utility.yul\":2759:2783   */\n      tag_470\n        /* \"#utility.yul\":2777:2782   */\n      dup3\n        /* \"#utility.yul\":2759:2783   */\n      tag_371\n      jump\t// in\n    tag_470:\n        /* \"#utility.yul\":2748:2783   */\n      swap1\n      pop\n        /* \"#utility.yul\":2693:2789   */\n      swap2\n      swap1\n      pop\n      jump\t// out\n        /* \"#utility.yul\":2795:2917   */\n    tag_373:\n        /* \"#utility.yul\":2868:2892   */\n      tag_472\n        /* \"#utility.yul\":2886:2891   */\n      dup2\n        /* \"#utility.yul\":2868:2892   */\n      tag_372\n      jump\t// in\n    tag_472:\n        /* \"#utility.yul\":2861:2866   */\n      dup2\n        /* \"#utility.yul\":2858:2893   */\n      eq\n        /* \"#utility.yul\":2848:2911   */\n      tag_473\n      jumpi\n        /* \"#utility.yul\":2907:2908   */\n      0x00\n        /* \"#utility.yul\":2904:2905   */\n      dup1\n        /* \"#utility.yul\":2897:2909   */\n      revert\n        /* \"#utility.yul\":2848:2911   */\n    tag_473:\n        /* \"#utility.yul\":2795:2917   */\n      pop\n      jump\t// out\n        /* \"#utility.yul\":2923:3062   */\n    tag_374:\n        /* \"#utility.yul\":2969:2974   */\n      0x00\n        /* \"#utility.yul\":3007:3013   */\n      dup2\n        /* \"#utility.yul\":2994:3014   */\n      calldataload\n        /* \"#utility.yul\":2985:3014   */\n      swap1\n      pop\n        /* \"#utility.yul\":3023:3056   */\n      tag_475\n        /* \"#utility.yul\":3050:3055   */\n      dup2\n        /* \"#utility.yul\":3023:3056   */\n      tag_373\n      jump\t// in\n    tag_475:\n        /* \"#utility.yul\":2923:3062   */\n      swap3\n      swap2\n      pop\n      pop\n      jump\t// out\n        /* \"#utility.yul\":3068:3542   */\n    tag_40:\n        /* \"#utility.yul\":3136:3142   */\n      0x00\n        /* \"#utility.yul\":3144:3150   */\n      dup1\n        /* \"#utility.yul\":3193:3195   */\n      0x40\n        /* \"#utility.yul\":3181:3190   */\n      dup4\n        /* \"#utility.yul\":3172:3179   */\n      dup6\n        /* \"#utility.yul\":3168:3191   */\n      sub\n        /* \"#utility.yul\":3164:3196   */\n      slt\n        /* \"#utility.yul\":3161:3280   */\n      iszero\n      tag_477\n      jumpi\n        /* \"#utility.yul\":3199:3278   */\n      tag_478\n      tag_360\n      jump\t// in\n    tag_478:\n        /* \"#utility.yul\":3161:3280   */\n    tag_477:\n        /* \"#utility.yul\":3319:3320   */\n      0x00\n        /* \"#utility.yul\":3344:3397   */\n      tag_479\n        /* \"#utility.yul\":3389:3396   */\n      dup6\n        /* \"#utility.yul\":3380:3386   */\n      dup3\n        /* \"#utility.yul\":3369:3378   */\n      dup7\n        /* \"#utility.yul\":3365:3387   */\n      add\n        /* \"#utility.yul\":3344:3397   */\n      tag_369\n      jump\t// in\n    tag_479:\n        /* \"#utility.yul\":3334:3397   */\n      swap3\n      pop\n        /* \"#utility.yul\":3290:3407   */\n      pop\n        /* \"#utility.yul\":3446:3448   */\n      0x20\n        /* \"#utility.yul\":3472:3525   */\n      tag_480\n        /* \"#utility.yul\":3517:3524   */\n      dup6\n        /* \"#utility.yul\":3508:3514   */\n      dup3\n        /* \"#utility.yul\":3497:3506   */\n      dup7\n        /* \"#utility.yul\":3493:3515   */\n      add\n        /* \"#utility.yul\":3472:3525   */\n      tag_374\n      jump\t// in\n    tag_480:\n        /* \"#utility.yul\":3462:3525   */\n      swap2\n      pop\n        /* \"#utility.yul\":3417:3535   */\n      pop\n        /* \"#utility.yul\":3068:3542   */\n      swap3\n      pop\n      swap3\n      swap1\n      pop\n      jump\t// out\n        /* \"#utility.yul\":3548:3877   */\n    tag_49:\n        /* \"#utility.yul\":3607:3613   */\n      0x00\n        /* \"#utility.yul\":3656:3658   */\n      0x20\n        /* \"#utility.yul\":3644:3653   */\n      dup3\n        /* \"#utility.yul\":3635:3642   */\n      dup5\n        /* \"#utility.yul\":3631:3654   */\n      sub\n        /* \"#utility.yul\":3627:3659   */\n      slt\n        /* \"#utility.yul\":3624:3743   */\n      iszero\n      tag_482\n      jumpi\n        /* \"#utility.yul\":3662:3741   */\n      tag_483\n      tag_360\n      jump\t// in\n    tag_483:\n        /* \"#utility.yul\":3624:3743   */\n    tag_482:\n        /* \"#utility.yul\":3782:3783   */\n      0x00\n        /* \"#utility.yul\":3807:3860   */\n      tag_484\n        /* \"#utility.yul\":3852:3859   */\n      dup5\n        /* \"#utility.yul\":3843:3849   */\n      dup3\n        /* \"#utility.yul\":3832:3841   */\n      dup6\n        /* \"#utility.yul\":3828:3850   */\n      add\n        /* \"#utility.yul\":3807:3860   */\n      tag_374\n      jump\t// in\n    tag_484:\n        /* \"#utility.yul\":3797:3860   */\n      swap2\n      pop\n        /* \"#utility.yul\":3753:3870   */\n      pop\n        /* \"#utility.yul\":3548:3877   */\n      swap3\n      swap2\n      pop\n      pop\n      jump\t// out\n        /* \"#utility.yul\":3883:4357   */\n    tag_54:\n        /* \"#utility.yul\":3951:3957   */\n      0x00\n        /* \"#utility.yul\":3959:3965   */\n      dup1\n        /* \"#utility.yul\":4008:4010   */\n      0x40\n        /* \"#utility.yul\":3996:4005   */\n      dup4\n        /* \"#utility.yul\":3987:3994   */\n      dup6\n        /* \"#utility.yul\":3983:4006   */\n      sub\n        /* \"#utility.yul\":3979:4011   */\n      slt\n        /* \"#utility.yul\":3976:4095   */\n      iszero\n      tag_486\n      jumpi\n        /* \"#utility.yul\":4014:4093   */\n      tag_487\n      tag_360\n      jump\t// in\n    tag_487:\n        /* \"#utility.yul\":3976:4095   */\n    tag_486:\n        /* \"#utility.yul\":4134:4135   */\n      0x00\n        /* \"#utility.yul\":4159:4212   */\n      tag_488\n        /* \"#utility.yul\":4204:4211   */\n      dup6\n        /* \"#utility.yul\":4195:4201   */\n      dup3\n        /* \"#utility.yul\":4184:4193   */\n      dup7\n        /* \"#utility.yul\":4180:4202   */\n      add\n        /* \"#utility.yul\":4159:4212   */\n      tag_374\n      jump\t// in\n    tag_488:\n        /* \"#utility.yul\":4149:4212   */\n      swap3\n      pop\n        /* \"#utility.yul\":4105:4222   */\n      pop\n        /* \"#utility.yul\":4261:4263   */\n      0x20\n        /* \"#utility.yul\":4287:4340   */\n      tag_489\n        /* \"#utility.yul\":4332:4339   */\n      dup6\n        /* \"#utility.yul\":4323:4329   */\n      dup3\n        /* \"#utility.yul\":4312:4321   */\n      dup7\n        /* \"#utility.yul\":4308:4330   */\n      add\n        /* \"#utility.yul\":4287:4340   */\n      tag_374\n      jump\t// in\n    tag_489:\n        /* \"#utility.yul\":4277:4340   */\n      swap2\n      pop\n        /* \"#utility.yul\":4232:4350   */\n      pop\n        /* \"#utility.yul\":3883:4357   */\n      swap3\n      pop\n      swap3\n      swap1\n      pop\n      jump\t// out\n        /* \"#utility.yul\":4363:4480   */\n    tag_375:\n        /* \"#utility.yul\":4472:4473   */\n      0x00\n        /* \"#utility.yul\":4469:4470   */\n      dup1\n        /* \"#utility.yul\":4462:4474   */\n      revert\n        /* \"#utility.yul\":4486:4603   */\n    tag_376:\n        /* \"#utility.yul\":4595:4596   */\n      0x00\n        /* \"#utility.yul\":4592:4593   */\n      dup1\n        /* \"#utility.yul\":4585:4597   */\n      revert\n        /* \"#utility.yul\":4609:4711   */\n    tag_377:\n        /* \"#utility.yul\":4650:4656   */\n      0x00\n        /* \"#utility.yul\":4701:4703   */\n      0x1f\n        /* \"#utility.yul\":4697:4704   */\n      not\n        /* \"#utility.yul\":4692:4694   */\n      0x1f\n        /* \"#utility.yul\":4685:4690   */\n      dup4\n        /* \"#utility.yul\":4681:4695   */\n      add\n        /* \"#utility.yul\":4677:4705   */\n      and\n        /* \"#utility.yul\":4667:4705   */\n      swap1\n      pop\n        /* \"#utility.yul\":4609:4711   */\n      swap2\n      swap1\n      pop\n      jump\t// out\n        /* \"#utility.yul\":4717:4897   */\n    tag_142:\n        /* \"#utility.yul\":4765:4842   */\n      0x4e487b7100000000000000000000000000000000000000000000000000000000\n        /* \"#utility.yul\":4762:4763   */\n      0x00\n        /* \"#utility.yul\":4755:4843   */\n      mstore\n        /* \"#utility.yul\":4862:4866   */\n      0x41\n        /* \"#utility.yul\":4859:4860   */\n      0x04\n        /* \"#utility.yul\":4852:4867   */\n      mstore\n        /* \"#utility.yul\":4886:4890   */\n      0x24\n        /* \"#utility.yul\":4883:4884   */\n      0x00\n        /* \"#utility.yul\":4876:4891   */\n      revert\n        /* \"#utility.yul\":4903:5184   */\n    tag_378:\n        /* \"#utility.yul\":4986:5013   */\n      tag_495\n        /* \"#utility.yul\":5008:5012   */\n      dup3\n        /* \"#utility.yul\":4986:5013   */\n      tag_377\n      jump\t// in\n    tag_495:\n        /* \"#utility.yul\":4978:4984   */\n      dup2\n        /* \"#utility.yul\":4974:5014   */\n      add\n        /* \"#utility.yul\":5116:5122   */\n      dup2\n        /* \"#utility.yul\":5104:5114   */\n      dup2\n        /* \"#utility.yul\":5101:5123   */\n      lt\n        /* \"#utility.yul\":5080:5098   */\n      0xffffffffffffffff\n        /* \"#utility.yul\":5068:5078   */\n      dup3\n        /* \"#utility.yul\":5065:5099   */\n      gt\n        /* \"#utility.yul\":5062:5124   */\n      or\n        /* \"#utility.yul\":5059:5147   */\n      iszero\n      tag_496\n      jumpi\n        /* \"#utility.yul\":5127:5145   */\n      tag_497\n      tag_142\n      jump\t// in\n    tag_497:\n        /* \"#utility.yul\":5059:5147   */\n    tag_496:\n        /* \"#utility.yul\":5167:5177   */\n      dup1\n        /* \"#utility.yul\":5163:5165   */\n      0x40\n        /* \"#utility.yul\":5156:5178   */\n      mstore\n        /* \"#utility.yul\":4946:5184   */\n      pop\n        /* \"#utility.yul\":4903:5184   */\n      pop\n      pop\n      jump\t// out\n        /* \"#utility.yul\":5190:5319   */\n    tag_379:\n        /* \"#utility.yul\":5224:5230   */\n      0x00\n        /* \"#utility.yul\":5251:5271   */\n      tag_499\n      tag_359\n      jump\t// in\n    tag_499:\n        /* \"#utility.yul\":5241:5271   */\n      swap1\n      pop\n        /* \"#utility.yul\":5280:5313   */\n      tag_500\n        /* \"#utility.yul\":5308:5312   */\n      dup3\n        /* \"#utility.yul\":5300:5306   */\n      dup3\n        /* \"#utility.yul\":5280:5313   */\n      tag_378\n      jump\t// in\n    tag_500:\n        /* \"#utility.yul\":5190:5319   */\n      swap2\n      swap1\n      pop\n      jump\t// out\n        /* \"#utility.yul\":5325:5632   */\n    tag_380:\n        /* \"#utility.yul\":5386:5390   */\n      0x00\n        /* \"#utility.yul\":5476:5494   */\n      0xffffffffffffffff\n        /* \"#utility.yul\":5468:5474   */\n      dup3\n        /* \"#utility.yul\":5465:5495   */\n      gt\n        /* \"#utility.yul\":5462:5518   */\n      iszero\n      tag_502\n      jumpi\n        /* \"#utility.yul\":5498:5516   */\n      tag_503\n      tag_142\n      jump\t// in\n    tag_503:\n        /* \"#utility.yul\":5462:5518   */\n    tag_502:\n        /* \"#utility.yul\":5536:5565   */\n      tag_504\n        /* \"#utility.yul\":5558:5564   */\n      dup3\n        /* \"#utility.yul\":5536:5565   */\n      tag_377\n      jump\t// in\n    tag_504:\n        /* \"#utility.yul\":5528:5565   */\n      swap1\n      pop\n        /* \"#utility.yul\":5620:5624   */\n      0x20\n        /* \"#utility.yul\":5614:5618   */\n      dup2\n        /* \"#utility.yul\":5610:5625   */\n      add\n        /* \"#utility.yul\":5602:5625   */\n      swap1\n      pop\n        /* \"#utility.yul\":5325:5632   */\n      swap2\n      swap1\n      pop\n      jump\t// out\n        /* \"#utility.yul\":5638:5786   */\n    tag_381:\n        /* \"#utility.yul\":5736:5742   */\n      dup3\n        /* \"#utility.yul\":5731:5734   */\n      dup2\n        /* \"#utility.yul\":5726:5729   */\n      dup4\n        /* \"#utility.yul\":5713:5743   */\n      calldatacopy\n        /* \"#utility.yul\":5777:5778   */\n      0x00\n        /* \"#utility.yul\":5768:5774   */\n      dup4\n        /* \"#utility.yul\":5763:5766   */\n      dup4\n        /* \"#utility.yul\":5759:5775   */\n      add\n        /* \"#utility.yul\":5752:5779   */\n      mstore\n        /* \"#utility.yul\":5638:5786   */\n      pop\n      pop\n      pop\n      jump\t// out\n        /* \"#utility.yul\":5792:6215   */\n    tag_382:\n        /* \"#utility.yul\":5869:5874   */\n      0x00\n        /* \"#utility.yul\":5894:5959   */\n      tag_507\n        /* \"#utility.yul\":5910:5958   */\n      tag_508\n        /* \"#utility.yul\":5951:5957   */\n      dup5\n        /* \"#utility.yul\":5910:5958   */\n      tag_380\n      jump\t// in\n    tag_508:\n        /* \"#utility.yul\":5894:5959   */\n      tag_379\n      jump\t// in\n    tag_507:\n        /* \"#utility.yul\":5885:5959   */\n      swap1\n      pop\n        /* \"#utility.yul\":5982:5988   */\n      dup3\n        /* \"#utility.yul\":5975:5980   */\n      dup2\n        /* \"#utility.yul\":5968:5989   */\n      mstore\n        /* \"#utility.yul\":6020:6024   */\n      0x20\n        /* \"#utility.yul\":6013:6018   */\n      dup2\n        /* \"#utility.yul\":6009:6025   */\n      add\n        /* \"#utility.yul\":6058:6061   */\n      dup5\n        /* \"#utility.yul\":6049:6055   */\n      dup5\n        /* \"#utility.yul\":6044:6047   */\n      dup5\n        /* \"#utility.yul\":6040:6056   */\n      add\n        /* \"#utility.yul\":6037:6062   */\n      gt\n        /* \"#utility.yul\":6034:6146   */\n      iszero\n      tag_509\n      jumpi\n        /* \"#utility.yul\":6065:6144   */\n      tag_510\n      tag_376\n      jump\t// in\n    tag_510:\n        /* \"#utility.yul\":6034:6146   */\n    tag_509:\n        /* \"#utility.yul\":6155:6209   */\n      tag_511\n        /* \"#utility.yul\":6202:6208   */\n      dup5\n        /* \"#utility.yul\":6197:6200   */\n      dup3\n        /* \"#utility.yul\":6192:6195   */\n      dup6\n        /* \"#utility.yul\":6155:6209   */\n      tag_381\n      jump\t// in\n    tag_511:\n        /* \"#utility.yul\":5875:6215   */\n      pop\n        /* \"#utility.yul\":5792:6215   */\n      swap4\n      swap3\n      pop\n      pop\n      pop\n      jump\t// out\n        /* \"#utility.yul\":6234:6572   */\n    tag_383:\n        /* \"#utility.yul\":6289:6294   */\n      0x00\n        /* \"#utility.yul\":6338:6341   */\n      dup3\n        /* \"#utility.yul\":6331:6335   */\n      0x1f\n        /* \"#utility.yul\":6323:6329   */\n      dup4\n        /* \"#utility.yul\":6319:6336   */\n      add\n        /* \"#utility.yul\":6315:6342   */\n      slt\n        /* \"#utility.yul\":6305:6427   */\n      tag_513\n      jumpi\n        /* \"#utility.yul\":6346:6425   */\n      tag_514\n      tag_375\n      jump\t// in\n    tag_514:\n        /* \"#utility.yul\":6305:6427   */\n    tag_513:\n        /* \"#utility.yul\":6463:6469   */\n      dup2\n        /* \"#utility.yul\":6450:6470   */\n      calldataload\n        /* \"#utility.yul\":6488:6566   */\n      tag_515\n        /* \"#utility.yul\":6562:6565   */\n      dup5\n        /* \"#utility.yul\":6554:6560   */\n      dup3\n        /* \"#utility.yul\":6547:6551   */\n      0x20\n        /* \"#utility.yul\":6539:6545   */\n      dup7\n        /* \"#utility.yul\":6535:6552   */\n      add\n        /* \"#utility.yul\":6488:6566   */\n      tag_382\n      jump\t// in\n    tag_515:\n        /* \"#utility.yul\":6479:6566   */\n      swap2\n      pop\n        /* \"#utility.yul\":6295:6572   */\n      pop\n        /* \"#utility.yul\":6234:6572   */\n      swap3\n      swap2\n      pop\n      pop\n      jump\t// out\n        /* \"#utility.yul\":6578:7230   */\n    tag_58:\n        /* \"#utility.yul\":6655:6661   */\n      0x00\n        /* \"#utility.yul\":6663:6669   */\n      dup1\n        /* \"#utility.yul\":6712:6714   */\n      0x40\n        /* \"#utility.yul\":6700:6709   */\n      dup4\n        /* \"#utility.yul\":6691:6698   */\n      dup6\n        /* \"#utility.yul\":6687:6710   */\n      sub\n        /* \"#utility.yul\":6683:6715   */\n      slt\n        /* \"#utility.yul\":6680:6799   */\n      iszero\n      tag_517\n      jumpi\n        /* \"#utility.yul\":6718:6797   */\n      tag_518\n      tag_360\n      jump\t// in\n    tag_518:\n        /* \"#utility.yul\":6680:6799   */\n    tag_517:\n        /* \"#utility.yul\":6838:6839   */\n      0x00\n        /* \"#utility.yul\":6863:6916   */\n      tag_519\n        /* \"#utility.yul\":6908:6915   */\n      dup6\n        /* \"#utility.yul\":6899:6905   */\n      dup3\n        /* \"#utility.yul\":6888:6897   */\n      dup7\n        /* \"#utility.yul\":6884:6906   */\n      add\n        /* \"#utility.yul\":6863:6916   */\n      tag_374\n      jump\t// in\n    tag_519:\n        /* \"#utility.yul\":6853:6916   */\n      swap3\n      pop\n        /* \"#utility.yul\":6809:6926   */\n      pop\n        /* \"#utility.yul\":6993:6995   */\n      0x20\n        /* \"#utility.yul\":6982:6991   */\n      dup4\n        /* \"#utility.yul\":6978:6996   */\n      add\n        /* \"#utility.yul\":6965:6997   */\n      calldataload\n        /* \"#utility.yul\":7024:7042   */\n      0xffffffffffffffff\n        /* \"#utility.yul\":7016:7022   */\n      dup2\n        /* \"#utility.yul\":7013:7043   */\n      gt\n        /* \"#utility.yul\":7010:7127   */\n      iszero\n      tag_520\n      jumpi\n        /* \"#utility.yul\":7046:7125   */\n      tag_521\n      tag_361\n      jump\t// in\n    tag_521:\n        /* \"#utility.yul\":7010:7127   */\n    tag_520:\n        /* \"#utility.yul\":7151:7213   */\n      tag_522\n        /* \"#utility.yul\":7205:7212   */\n      dup6\n        /* \"#utility.yul\":7196:7202   */\n      dup3\n        /* \"#utility.yul\":7185:7194   */\n      dup7\n        /* \"#utility.yul\":7181:7203   */\n      add\n        /* \"#utility.yul\":7151:7213   */\n      tag_383\n      jump\t// in\n    tag_522:\n        /* \"#utility.yul\":7141:7213   */\n      swap2\n      pop\n        /* \"#utility.yul\":6936:7223   */\n      pop\n        /* \"#utility.yul\":6578:7230   */\n      swap3\n      pop\n      swap3\n      swap1\n      pop\n      jump\t// out\n        /* \"#utility.yul\":7236:7313   */\n    tag_384:\n        /* \"#utility.yul\":7273:7280   */\n      0x00\n        /* \"#utility.yul\":7302:7307   */\n      dup2\n        /* \"#utility.yul\":7291:7307   */\n      swap1\n      pop\n        /* \"#utility.yul\":7236:7313   */\n      swap2\n      swap1\n      pop\n      jump\t// out\n        /* \"#utility.yul\":7319:7441   */\n    tag_385:\n        /* \"#utility.yul\":7392:7416   */\n      tag_525\n        /* \"#utility.yul\":7410:7415   */\n      dup2\n        /* \"#utility.yul\":7392:7416   */\n      tag_384\n      jump\t// in\n    tag_525:\n        /* \"#utility.yul\":7385:7390   */\n      dup2\n        /* \"#utility.yul\":7382:7417   */\n      eq\n        /* \"#utility.yul\":7372:7435   */\n      tag_526\n      jumpi\n        /* \"#utility.yul\":7431:7432   */\n      0x00\n        /* \"#utility.yul\":7428:7429   */\n      dup1\n        /* \"#utility.yul\":7421:7433   */\n      revert\n        /* \"#utility.yul\":7372:7435   */\n    tag_526:\n        /* \"#utility.yul\":7319:7441   */\n      pop\n      jump\t// out\n        /* \"#utility.yul\":7447:7590   */\n    tag_386:\n        /* \"#utility.yul\":7504:7509   */\n      0x00\n        /* \"#utility.yul\":7535:7541   */\n      dup2\n        /* \"#utility.yul\":7529:7542   */\n      mload\n        /* \"#utility.yul\":7520:7542   */\n      swap1\n      pop\n        /* \"#utility.yul\":7551:7584   */\n      tag_528\n        /* \"#utility.yul\":7578:7583   */\n      dup2\n        /* \"#utility.yul\":7551:7584   */\n      tag_385\n      jump\t// in\n    tag_528:\n        /* \"#utility.yul\":7447:7590   */\n      swap3\n      swap2\n      pop\n      pop\n      jump\t// out\n        /* \"#utility.yul\":7596:7947   */\n    tag_99:\n        /* \"#utility.yul\":7666:7672   */\n      0x00\n        /* \"#utility.yul\":7715:7717   */\n      0x20\n        /* \"#utility.yul\":7703:7712   */\n      dup3\n        /* \"#utility.yul\":7694:7701   */\n      dup5\n        /* \"#utility.yul\":7690:7713   */\n      sub\n        /* \"#utility.yul\":7686:7718   */\n      slt\n        /* \"#utility.yul\":7683:7802   */\n      iszero\n      tag_530\n      jumpi\n        /* \"#utility.yul\":7721:7800   */\n      tag_531\n      tag_360\n      jump\t// in\n    tag_531:\n        /* \"#utility.yul\":7683:7802   */\n    tag_530:\n        /* \"#utility.yul\":7841:7842   */\n      0x00\n        /* \"#utility.yul\":7866:7930   */\n      tag_532\n        /* \"#utility.yul\":7922:7929   */\n      dup5\n        /* \"#utility.yul\":7913:7919   */\n      dup3\n        /* \"#utility.yul\":7902:7911   */\n      dup6\n        /* \"#utility.yul\":7898:7920   */\n      add\n        /* \"#utility.yul\":7866:7930   */\n      tag_386\n      jump\t// in\n    tag_532:\n        /* \"#utility.yul\":7856:7930   */\n      swap2\n      pop\n        /* \"#utility.yul\":7812:7940   */\n      pop\n        /* \"#utility.yul\":7596:7947   */\n      swap3\n      swap2\n      pop\n      pop\n      jump\t// out\n        /* \"#utility.yul\":7953:8122   */\n    tag_387:\n        /* \"#utility.yul\":8037:8048   */\n      0x00\n        /* \"#utility.yul\":8071:8077   */\n      dup3\n        /* \"#utility.yul\":8066:8069   */\n      dup3\n        /* \"#utility.yul\":8059:8078   */\n      mstore\n        /* \"#utility.yul\":8111:8115   */\n      0x20\n        /* \"#utility.yul\":8106:8109   */\n      dup3\n        /* \"#utility.yul\":8102:8116   */\n      add\n        /* \"#utility.yul\":8087:8116   */\n      swap1\n      pop\n        /* \"#utility.yul\":7953:8122   */\n      swap3\n      swap2\n      pop\n      pop\n      jump\t// out\n        /* \"#utility.yul\":8128:8300   */\n    tag_388:\n        /* \"#utility.yul\":8268:8292   */\n      0x796f7520646f6e277420686176652062616c616e636500000000000000000000\n        /* \"#utility.yul\":8264:8265   */\n      0x00\n        /* \"#utility.yul\":8256:8262   */\n      dup3\n        /* \"#utility.yul\":8252:8266   */\n      add\n        /* \"#utility.yul\":8245:8293   */\n      mstore\n        /* \"#utility.yul\":8128:8300   */\n      pop\n      jump\t// out\n        /* \"#utility.yul\":8306:8672   */\n    tag_389:\n        /* \"#utility.yul\":8448:8451   */\n      0x00\n        /* \"#utility.yul\":8469:8536   */\n      tag_536\n        /* \"#utility.yul\":8533:8535   */\n      0x16\n        /* \"#utility.yul\":8528:8531   */\n      dup4\n        /* \"#utility.yul\":8469:8536   */\n      tag_387\n      jump\t// in\n    tag_536:\n        /* \"#utility.yul\":8462:8536   */\n      swap2\n      pop\n        /* \"#utility.yul\":8545:8638   */\n      tag_537\n        /* \"#utility.yul\":8634:8637   */\n      dup3\n        /* \"#utility.yul\":8545:8638   */\n      tag_388\n      jump\t// in\n    tag_537:\n        /* \"#utility.yul\":8663:8665   */\n      0x20\n        /* \"#utility.yul\":8658:8661   */\n      dup3\n        /* \"#utility.yul\":8654:8666   */\n      add\n        /* \"#utility.yul\":8647:8666   */\n      swap1\n      pop\n        /* \"#utility.yul\":8306:8672   */\n      swap2\n      swap1\n      pop\n      jump\t// out\n        /* \"#utility.yul\":8678:9097   */\n    tag_102:\n        /* \"#utility.yul\":8844:8848   */\n      0x00\n        /* \"#utility.yul\":8882:8884   */\n      0x20\n        /* \"#utility.yul\":8871:8880   */\n      dup3\n        /* \"#utility.yul\":8867:8885   */\n      add\n        /* \"#utility.yul\":8859:8885   */\n      swap1\n      pop\n        /* \"#utility.yul\":8931:8940   */\n      dup2\n        /* \"#utility.yul\":8925:8929   */\n      dup2\n        /* \"#utility.yul\":8921:8941   */\n      sub\n        /* \"#utility.yul\":8917:8918   */\n      0x00\n        /* \"#utility.yul\":8906:8915   */\n      dup4\n        /* \"#utility.yul\":8902:8919   */\n      add\n        /* \"#utility.yul\":8895:8942   */\n      mstore\n        /* \"#utility.yul\":8959:9090   */\n      tag_539\n        /* \"#utility.yul\":9085:9089   */\n      dup2\n        /* \"#utility.yul\":8959:9090   */\n      tag_389\n      jump\t// in\n    tag_539:\n        /* \"#utility.yul\":8951:9090   */\n      swap1\n      pop\n        /* \"#utility.yul\":8678:9097   */\n      swap2\n      swap1\n      pop\n      jump\t// out\n        /* \"#utility.yul\":9103:9283   */\n    tag_390:\n        /* \"#utility.yul\":9151:9228   */\n      0x4e487b7100000000000000000000000000000000000000000000000000000000\n        /* \"#utility.yul\":9148:9149   */\n      0x00\n        /* \"#utility.yul\":9141:9229   */\n      mstore\n        /* \"#utility.yul\":9248:9252   */\n      0x11\n        /* \"#utility.yul\":9245:9246   */\n      0x04\n        /* \"#utility.yul\":9238:9253   */\n      mstore\n        /* \"#utility.yul\":9272:9276   */\n      0x24\n        /* \"#utility.yul\":9269:9270   */\n      0x00\n        /* \"#utility.yul\":9262:9277   */\n      revert\n        /* \"#utility.yul\":9289:9483   */\n    tag_109:\n        /* \"#utility.yul\":9329:9333   */\n      0x00\n        /* \"#utility.yul\":9349:9369   */\n      tag_542\n        /* \"#utility.yul\":9367:9368   */\n      dup3\n        /* \"#utility.yul\":9349:9369   */\n      tag_384\n      jump\t// in\n    tag_542:\n        /* \"#utility.yul\":9344:9369   */\n      swap2\n      pop\n        /* \"#utility.yul\":9383:9403   */\n      tag_543\n        /* \"#utility.yul\":9401:9402   */\n      dup4\n        /* \"#utility.yul\":9383:9403   */\n      tag_384\n      jump\t// in\n    tag_543:\n        /* \"#utility.yul\":9378:9403   */\n      swap3\n      pop\n        /* \"#utility.yul\":9427:9428   */\n      dup3\n        /* \"#utility.yul\":9424:9425   */\n      dup3\n        /* \"#utility.yul\":9420:9429   */\n      sub\n        /* \"#utility.yul\":9412:9429   */\n      swap1\n      pop\n        /* \"#utility.yul\":9451:9452   */\n      dup2\n        /* \"#utility.yul\":9445:9449   */\n      dup2\n        /* \"#utility.yul\":9442:9453   */\n      gt\n        /* \"#utility.yul\":9439:9476   */\n      iszero\n      tag_544\n      jumpi\n        /* \"#utility.yul\":9456:9474   */\n      tag_545\n      tag_390\n      jump\t// in\n    tag_545:\n        /* \"#utility.yul\":9439:9476   */\n    tag_544:\n        /* \"#utility.yul\":9289:9483   */\n      swap3\n      swap2\n      pop\n      pop\n      jump\t// out\n        /* \"#utility.yul\":9489:9723   */\n    tag_391:\n        /* \"#utility.yul\":9629:9663   */\n      0x416363657373436f6e74726f6c3a2063616e206f6e6c792072656e6f756e6365\n        /* \"#utility.yul\":9625:9626   */\n      0x00\n        /* \"#utility.yul\":9617:9623   */\n      dup3\n        /* \"#utility.yul\":9613:9627   */\n      add\n        /* \"#utility.yul\":9606:9664   */\n      mstore\n        /* \"#utility.yul\":9698:9715   */\n      0x20726f6c657320666f722073656c660000000000000000000000000000000000\n        /* \"#utility.yul\":9693:9695   */\n      0x20\n        /* \"#utility.yul\":9685:9691   */\n      dup3\n        /* \"#utility.yul\":9681:9696   */\n      add\n        /* \"#utility.yul\":9674:9716   */\n      mstore\n        /* \"#utility.yul\":9489:9723   */\n      pop\n      jump\t// out\n        /* \"#utility.yul\":9729:10095   */\n    tag_392:\n        /* \"#utility.yul\":9871:9874   */\n      0x00\n        /* \"#utility.yul\":9892:9959   */\n      tag_548\n        /* \"#utility.yul\":9956:9958   */\n      0x2f\n        /* \"#utility.yul\":9951:9954   */\n      dup4\n        /* \"#utility.yul\":9892:9959   */\n      tag_387\n      jump\t// in\n    tag_548:\n        /* \"#utility.yul\":9885:9959   */\n      swap2\n      pop\n        /* \"#utility.yul\":9968:10061   */\n      tag_549\n        /* \"#utility.yul\":10057:10060   */\n      dup3\n        /* \"#utility.yul\":9968:10061   */\n      tag_391\n      jump\t// in\n    tag_549:\n        /* \"#utility.yul\":10086:10088   */\n      0x40\n        /* \"#utility.yul\":10081:10084   */\n      dup3\n        /* \"#utility.yul\":10077:10089   */\n      add\n        /* \"#utility.yul\":10070:10089   */\n      swap1\n      pop\n        /* \"#utility.yul\":9729:10095   */\n      swap2\n      swap1\n      pop\n      jump\t// out\n        /* \"#utility.yul\":10101:10520   */\n    tag_124:\n        /* \"#utility.yul\":10267:10271   */\n      0x00\n        /* \"#utility.yul\":10305:10307   */\n      0x20\n        /* \"#utility.yul\":10294:10303   */\n      dup3\n        /* \"#utility.yul\":10290:10308   */\n      add\n        /* \"#utility.yul\":10282:10308   */\n      swap1\n      pop\n        /* \"#utility.yul\":10354:10363   */\n      dup2\n        /* \"#utility.yul\":10348:10352   */\n      dup2\n        /* \"#utility.yul\":10344:10364   */\n      sub\n        /* \"#utility.yul\":10340:10341   */\n      0x00\n        /* \"#utility.yul\":10329:10338   */\n      dup4\n        /* \"#utility.yul\":10325:10342   */\n      add\n        /* \"#utility.yul\":10318:10365   */\n      mstore\n        /* \"#utility.yul\":10382:10513   */\n      tag_551\n        /* \"#utility.yul\":10508:10512   */\n      dup2\n        /* \"#utility.yul\":10382:10513   */\n      tag_392\n      jump\t// in\n    tag_551:\n        /* \"#utility.yul\":10374:10513   */\n      swap1\n      pop\n        /* \"#utility.yul\":10101:10520   */\n      swap2\n      swap1\n      pop\n      jump\t// out\n        /* \"#utility.yul\":10526:10757   */\n    tag_393:\n        /* \"#utility.yul\":10666:10700   */\n      0x46756e6374696f6e206d7573742062652063616c6c6564207468726f75676820\n        /* \"#utility.yul\":10662:10663   */\n      0x00\n        /* \"#utility.yul\":10654:10660   */\n      dup3\n        /* \"#utility.yul\":10650:10664   */\n      add\n        /* \"#utility.yul\":10643:10701   */\n      mstore\n        /* \"#utility.yul\":10735:10749   */\n      0x64656c656761746563616c6c0000000000000000000000000000000000000000\n        /* \"#utility.yul\":10730:10732   */\n      0x20\n        /* \"#utility.yul\":10722:10728   */\n      dup3\n        /* \"#utility.yul\":10718:10733   */\n      add\n        /* \"#utility.yul\":10711:10750   */\n      mstore\n        /* \"#utility.yul\":10526:10757   */\n      pop\n      jump\t// out\n        /* \"#utility.yul\":10763:11129   */\n    tag_394:\n        /* \"#utility.yul\":10905:10908   */\n      0x00\n        /* \"#utility.yul\":10926:10993   */\n      tag_554\n        /* \"#utility.yul\":10990:10992   */\n      0x2c\n        /* \"#utility.yul\":10985:10988   */\n      dup4\n        /* \"#utility.yul\":10926:10993   */\n      tag_387\n      jump\t// in\n    tag_554:\n        /* \"#utility.yul\":10919:10993   */\n      swap2\n      pop\n        /* \"#utility.yul\":11002:11095   */\n      tag_555\n        /* \"#utility.yul\":11091:11094   */\n      dup3\n        /* \"#utility.yul\":11002:11095   */\n      tag_393\n      jump\t// in\n    tag_555:\n        /* \"#utility.yul\":11120:11122   */\n      0x40\n        /* \"#utility.yul\":11115:11118   */\n      dup3\n        /* \"#utility.yul\":11111:11123   */\n      add\n        /* \"#utility.yul\":11104:11123   */\n      swap1\n      pop\n        /* \"#utility.yul\":10763:11129   */\n      swap2\n      swap1\n      pop\n      jump\t// out\n        /* \"#utility.yul\":11135:11554   */\n    tag_130:\n        /* \"#utility.yul\":11301:11305   */\n      0x00\n        /* \"#utility.yul\":11339:11341   */\n      0x20\n        /* \"#utility.yul\":11328:11337   */\n      dup3\n        /* \"#utility.yul\":11324:11342   */\n      add\n        /* \"#utility.yul\":11316:11342   */\n      swap1\n      pop\n        /* \"#utility.yul\":11388:11397   */\n      dup2\n        /* \"#utility.yul\":11382:11386   */\n      dup2\n        /* \"#utility.yul\":11378:11398   */\n      sub\n        /* \"#utility.yul\":11374:11375   */\n      0x00\n        /* \"#utility.yul\":11363:11372   */\n      dup4\n        /* \"#utility.yul\":11359:11376   */\n      add\n        /* \"#utility.yul\":11352:11399   */\n      mstore\n        /* \"#utility.yul\":11416:11547   */\n      tag_557\n        /* \"#utility.yul\":11542:11546   */\n      dup2\n        /* \"#utility.yul\":11416:11547   */\n      tag_394\n      jump\t// in\n    tag_557:\n        /* \"#utility.yul\":11408:11547   */\n      swap1\n      pop\n        /* \"#utility.yul\":11135:11554   */\n      swap2\n      swap1\n      pop\n      jump\t// out\n        /* \"#utility.yul\":11560:11791   */\n    tag_395:\n        /* \"#utility.yul\":11700:11734   */\n      0x46756e6374696f6e206d7573742062652063616c6c6564207468726f75676820\n        /* \"#utility.yul\":11696:11697   */\n      0x00\n        /* \"#utility.yul\":11688:11694   */\n      dup3\n        /* \"#utility.yul\":11684:11698   */\n      add\n        /* \"#utility.yul\":11677:11735   */\n      mstore\n        /* \"#utility.yul\":11769:11783   */\n      0x6163746976652070726f78790000000000000000000000000000000000000000\n        /* \"#utility.yul\":11764:11766   */\n      0x20\n        /* \"#utility.yul\":11756:11762   */\n      dup3\n        /* \"#utility.yul\":11752:11767   */\n      add\n        /* \"#utility.yul\":11745:11784   */\n      mstore\n        /* \"#utility.yul\":11560:11791   */\n      pop\n      jump\t// out\n        /* \"#utility.yul\":11797:12163   */\n    tag_396:\n        /* \"#utility.yul\":11939:11942   */\n      0x00\n        /* \"#utility.yul\":11960:12027   */\n      tag_560\n        /* \"#utility.yul\":12024:12026   */\n      0x2c\n        /* \"#utility.yul\":12019:12022   */\n      dup4\n        /* \"#utility.yul\":11960:12027   */\n      tag_387\n      jump\t// in\n    tag_560:\n        /* \"#utility.yul\":11953:12027   */\n      swap2\n      pop\n        /* \"#utility.yul\":12036:12129   */\n      tag_561\n        /* \"#utility.yul\":12125:12128   */\n      dup3\n        /* \"#utility.yul\":12036:12129   */\n      tag_395\n      jump\t// in\n    tag_561:\n        /* \"#utility.yul\":12154:12156   */\n      0x40\n        /* \"#utility.yul\":12149:12152   */\n      dup3\n        /* \"#utility.yul\":12145:12157   */\n      add\n        /* \"#utility.yul\":12138:12157   */\n      swap1\n      pop\n        /* \"#utility.yul\":11797:12163   */\n      swap2\n      swap1\n      pop\n      jump\t// out\n        /* \"#utility.yul\":12169:12588   */\n    tag_135:\n        /* \"#utility.yul\":12335:12339   */\n      0x00\n        /* \"#utility.yul\":12373:12375   */\n      0x20\n        /* \"#utility.yul\":12362:12371   */\n      dup3\n        /* \"#utility.yul\":12358:12376   */\n      add\n        /* \"#utility.yul\":12350:12376   */\n      swap1\n      pop\n        /* \"#utility.yul\":12422:12431   */\n      dup2\n        /* \"#utility.yul\":12416:12420   */\n      dup2\n        /* \"#utility.yul\":12412:12432   */\n      sub\n        /* \"#utility.yul\":12408:12409   */\n      0x00\n        /* \"#utility.yul\":12397:12406   */\n      dup4\n        /* \"#utility.yul\":12393:12410   */\n      add\n        /* \"#utility.yul\":12386:12433   */\n      mstore\n        /* \"#utility.yul\":12450:12581   */\n      tag_563\n        /* \"#utility.yul\":12576:12580   */\n      dup2\n        /* \"#utility.yul\":12450:12581   */\n      tag_396\n      jump\t// in\n    tag_563:\n        /* \"#utility.yul\":12442:12581   */\n      swap1\n      pop\n        /* \"#utility.yul\":12169:12588   */\n      swap2\n      swap1\n      pop\n      jump\t// out\n        /* \"#utility.yul\":12594:12827   */\n    tag_397:\n        /* \"#utility.yul\":12734:12768   */\n      0x496e697469616c697a61626c653a20636f6e747261637420697320616c726561\n        /* \"#utility.yul\":12730:12731   */\n      0x00\n        /* \"#utility.yul\":12722:12728   */\n      dup3\n        /* \"#utility.yul\":12718:12732   */\n      add\n        /* \"#utility.yul\":12711:12769   */\n      mstore\n        /* \"#utility.yul\":12803:12819   */\n      0x647920696e697469616c697a6564000000000000000000000000000000000000\n        /* \"#utility.yul\":12798:12800   */\n      0x20\n        /* \"#utility.yul\":12790:12796   */\n      dup3\n        /* \"#utility.yul\":12786:12801   */\n      add\n        /* \"#utility.yul\":12779:12820   */\n      mstore\n        /* \"#utility.yul\":12594:12827   */\n      pop\n      jump\t// out\n        /* \"#utility.yul\":12833:13199   */\n    tag_398:\n        /* \"#utility.yul\":12975:12978   */\n      0x00\n        /* \"#utility.yul\":12996:13063   */\n      tag_566\n        /* \"#utility.yul\":13060:13062   */\n      0x2e\n        /* \"#utility.yul\":13055:13058   */\n      dup4\n        /* \"#utility.yul\":12996:13063   */\n      tag_387\n      jump\t// in\n    tag_566:\n        /* \"#utility.yul\":12989:13063   */\n      swap2\n      pop\n        /* \"#utility.yul\":13072:13165   */\n      tag_567\n        /* \"#utility.yul\":13161:13164   */\n      dup3\n        /* \"#utility.yul\":13072:13165   */\n      tag_397\n      jump\t// in\n    tag_567:\n        /* \"#utility.yul\":13190:13192   */\n      0x40\n        /* \"#utility.yul\":13185:13188   */\n      dup3\n        /* \"#utility.yul\":13181:13193   */\n      add\n        /* \"#utility.yul\":13174:13193   */\n      swap1\n      pop\n        /* \"#utility.yul\":12833:13199   */\n      swap2\n      swap1\n      pop\n      jump\t// out\n        /* \"#utility.yul\":13205:13624   */\n    tag_153:\n        /* \"#utility.yul\":13371:13375   */\n      0x00\n        /* \"#utility.yul\":13409:13411   */\n      0x20\n        /* \"#utility.yul\":13398:13407   */\n      dup3\n        /* \"#utility.yul\":13394:13412   */\n      add\n        /* \"#utility.yul\":13386:13412   */\n      swap1\n      pop\n        /* \"#utility.yul\":13458:13467   */\n      dup2\n        /* \"#utility.yul\":13452:13456   */\n      dup2\n        /* \"#utility.yul\":13448:13468   */\n      sub\n        /* \"#utility.yul\":13444:13445   */\n      0x00\n        /* \"#utility.yul\":13433:13442   */\n      dup4\n        /* \"#utility.yul\":13429:13446   */\n      add\n        /* \"#utility.yul\":13422:13469   */\n      mstore\n        /* \"#utility.yul\":13486:13617   */\n      tag_569\n        /* \"#utility.yul\":13612:13616   */\n      dup2\n        /* \"#utility.yul\":13486:13617   */\n      tag_398\n      jump\t// in\n    tag_569:\n        /* \"#utility.yul\":13478:13617   */\n      swap1\n      pop\n        /* \"#utility.yul\":13205:13624   */\n      swap2\n      swap1\n      pop\n      jump\t// out\n        /* \"#utility.yul\":13630:13715   */\n    tag_399:\n        /* \"#utility.yul\":13675:13682   */\n      0x00\n        /* \"#utility.yul\":13704:13709   */\n      dup2\n        /* \"#utility.yul\":13693:13709   */\n      swap1\n      pop\n        /* \"#utility.yul\":13630:13715   */\n      swap2\n      swap1\n      pop\n      jump\t// out\n        /* \"#utility.yul\":13721:13807   */\n    tag_400:\n        /* \"#utility.yul\":13756:13763   */\n      0x00\n        /* \"#utility.yul\":13796:13800   */\n      0xff\n        /* \"#utility.yul\":13789:13794   */\n      dup3\n        /* \"#utility.yul\":13785:13801   */\n      and\n        /* \"#utility.yul\":13774:13801   */\n      swap1\n      pop\n        /* \"#utility.yul\":13721:13807   */\n      swap2\n      swap1\n      pop\n      jump\t// out\n        /* \"#utility.yul\":13813:13873   */\n    tag_401:\n        /* \"#utility.yul\":13841:13844   */\n      0x00\n        /* \"#utility.yul\":13862:13867   */\n      dup2\n        /* \"#utility.yul\":13855:13867   */\n      swap1\n      pop\n        /* \"#utility.yul\":13813:13873   */\n      swap2\n      swap1\n      pop\n      jump\t// out\n        /* \"#utility.yul\":13879:14033   */\n    tag_402:\n        /* \"#utility.yul\":13935:13944   */\n      0x00\n        /* \"#utility.yul\":13968:14027   */\n      tag_574\n        /* \"#utility.yul\":13984:14026   */\n      tag_575\n        /* \"#utility.yul\":13993:14025   */\n      tag_576\n        /* \"#utility.yul\":14019:14024   */\n      dup5\n        /* \"#utility.yul\":13993:14025   */\n      tag_399\n      jump\t// in\n    tag_576:\n        /* \"#utility.yul\":13984:14026   */\n      tag_401\n      jump\t// in\n    tag_575:\n        /* \"#utility.yul\":13968:14027   */\n      tag_400\n      jump\t// in\n    tag_574:\n        /* \"#utility.yul\":13955:14027   */\n      swap1\n      pop\n        /* \"#utility.yul\":13879:14033   */\n      swap2\n      swap1\n      pop\n      jump\t// out\n        /* \"#utility.yul\":14039:14182   */\n    tag_403:\n        /* \"#utility.yul\":14132:14175   */\n      tag_578\n        /* \"#utility.yul\":14169:14174   */\n      dup2\n        /* \"#utility.yul\":14132:14175   */\n      tag_402\n      jump\t// in\n    tag_578:\n        /* \"#utility.yul\":14127:14130   */\n      dup3\n        /* \"#utility.yul\":14120:14176   */\n      mstore\n        /* \"#utility.yul\":14039:14182   */\n      pop\n      pop\n      jump\t// out\n        /* \"#utility.yul\":14188:14422   */\n    tag_160:\n        /* \"#utility.yul\":14287:14291   */\n      0x00\n        /* \"#utility.yul\":14325:14327   */\n      0x20\n        /* \"#utility.yul\":14314:14323   */\n      dup3\n        /* \"#utility.yul\":14310:14328   */\n      add\n        /* \"#utility.yul\":14302:14328   */\n      swap1\n      pop\n        /* \"#utility.yul\":14338:14415   */\n      tag_580\n        /* \"#utility.yul\":14412:14413   */\n      0x00\n        /* \"#utility.yul\":14401:14410   */\n      dup4\n        /* \"#utility.yul\":14397:14414   */\n      add\n        /* \"#utility.yul\":14388:14394   */\n      dup5\n        /* \"#utility.yul\":14338:14415   */\n      tag_403\n      jump\t// in\n    tag_580:\n        /* \"#utility.yul\":14188:14422   */\n      swap3\n      swap2\n      pop\n      pop\n      jump\t// out\n        /* \"#utility.yul\":14428:14671   */\n    tag_404:\n        /* \"#utility.yul\":14568:14602   */\n      0x555550535570677261646561626c653a206d757374206e6f742062652063616c\n        /* \"#utility.yul\":14564:14565   */\n      0x00\n        /* \"#utility.yul\":14556:14562   */\n      dup3\n        /* \"#utility.yul\":14552:14566   */\n      add\n        /* \"#utility.yul\":14545:14603   */\n      mstore\n        /* \"#utility.yul\":14637:14663   */\n      0x6c6564207468726f7567682064656c656761746563616c6c0000000000000000\n        /* \"#utility.yul\":14632:14634   */\n      0x20\n        /* \"#utility.yul\":14624:14630   */\n      dup3\n        /* \"#utility.yul\":14620:14635   */\n      add\n        /* \"#utility.yul\":14613:14664   */\n      mstore\n        /* \"#utility.yul\":14428:14671   */\n      pop\n      jump\t// out\n        /* \"#utility.yul\":14677:15043   */\n    tag_405:\n        /* \"#utility.yul\":14819:14822   */\n      0x00\n        /* \"#utility.yul\":14840:14907   */\n      tag_583\n        /* \"#utility.yul\":14904:14906   */\n      0x38\n        /* \"#utility.yul\":14899:14902   */\n      dup4\n        /* \"#utility.yul\":14840:14907   */\n      tag_387\n      jump\t// in\n    tag_583:\n        /* \"#utility.yul\":14833:14907   */\n      swap2\n      pop\n        /* \"#utility.yul\":14916:15009   */\n      tag_584\n        /* \"#utility.yul\":15005:15008   */\n      dup3\n        /* \"#utility.yul\":14916:15009   */\n      tag_404\n      jump\t// in\n    tag_584:\n        /* \"#utility.yul\":15034:15036   */\n      0x40\n        /* \"#utility.yul\":15029:15032   */\n      dup3\n        /* \"#utility.yul\":15025:15037   */\n      add\n        /* \"#utility.yul\":15018:15037   */\n      swap1\n      pop\n        /* \"#utility.yul\":14677:15043   */\n      swap2\n      swap1\n      pop\n      jump\t// out\n        /* \"#utility.yul\":15049:15468   */\n    tag_173:\n        /* \"#utility.yul\":15215:15219   */\n      0x00\n        /* \"#utility.yul\":15253:15255   */\n      0x20\n        /* \"#utility.yul\":15242:15251   */\n      dup3\n        /* \"#utility.yul\":15238:15256   */\n      add\n        /* \"#utility.yul\":15230:15256   */\n      swap1\n      pop\n        /* \"#utility.yul\":15302:15311   */\n      dup2\n        /* \"#utility.yul\":15296:15300   */\n      dup2\n        /* \"#utility.yul\":15292:15312   */\n      sub\n        /* \"#utility.yul\":15288:15289   */\n      0x00\n        /* \"#utility.yul\":15277:15286   */\n      dup4\n        /* \"#utility.yul\":15273:15290   */\n      add\n        /* \"#utility.yul\":15266:15313   */\n      mstore\n        /* \"#utility.yul\":15330:15461   */\n      tag_586\n        /* \"#utility.yul\":15456:15460   */\n      dup2\n        /* \"#utility.yul\":15330:15461   */\n      tag_405\n      jump\t// in\n    tag_586:\n        /* \"#utility.yul\":15322:15461   */\n      swap1\n      pop\n        /* \"#utility.yul\":15049:15468   */\n      swap2\n      swap1\n      pop\n      jump\t// out\n        /* \"#utility.yul\":15474:15654   */\n    tag_193:\n        /* \"#utility.yul\":15522:15599   */\n      0x4e487b7100000000000000000000000000000000000000000000000000000000\n        /* \"#utility.yul\":15519:15520   */\n      0x00\n        /* \"#utility.yul\":15512:15600   */\n      mstore\n        /* \"#utility.yul\":15619:15623   */\n      0x32\n        /* \"#utility.yul\":15616:15617   */\n      0x04\n        /* \"#utility.yul\":15609:15624   */\n      mstore\n        /* \"#utility.yul\":15643:15647   */\n      0x24\n        /* \"#utility.yul\":15640:15641   */\n      0x00\n        /* \"#utility.yul\":15633:15648   */\n      revert\n        /* \"#utility.yul\":15660:15778   */\n    tag_406:\n        /* \"#utility.yul\":15747:15771   */\n      tag_589\n        /* \"#utility.yul\":15765:15770   */\n      dup2\n        /* \"#utility.yul\":15747:15771   */\n      tag_372\n      jump\t// in\n    tag_589:\n        /* \"#utility.yul\":15742:15745   */\n      dup3\n        /* \"#utility.yul\":15735:15772   */\n      mstore\n        /* \"#utility.yul\":15660:15778   */\n      pop\n      pop\n      jump\t// out\n        /* \"#utility.yul\":15784:15902   */\n    tag_407:\n        /* \"#utility.yul\":15871:15895   */\n      tag_591\n        /* \"#utility.yul\":15889:15894   */\n      dup2\n        /* \"#utility.yul\":15871:15895   */\n      tag_384\n      jump\t// in\n    tag_591:\n        /* \"#utility.yul\":15866:15869   */\n      dup3\n        /* \"#utility.yul\":15859:15896   */\n      mstore\n        /* \"#utility.yul\":15784:15902   */\n      pop\n      pop\n      jump\t// out\n        /* \"#utility.yul\":15908:16240   */\n    tag_200:\n        /* \"#utility.yul\":16029:16033   */\n      0x00\n        /* \"#utility.yul\":16067:16069   */\n      0x40\n        /* \"#utility.yul\":16056:16065   */\n      dup3\n        /* \"#utility.yul\":16052:16070   */\n      add\n        /* \"#utility.yul\":16044:16070   */\n      swap1\n      pop\n        /* \"#utility.yul\":16080:16151   */\n      tag_593\n        /* \"#utility.yul\":16148:16149   */\n      0x00\n        /* \"#utility.yul\":16137:16146   */\n      dup4\n        /* \"#utility.yul\":16133:16150   */\n      add\n        /* \"#utility.yul\":16124:16130   */\n      dup6\n        /* \"#utility.yul\":16080:16151   */\n      tag_406\n      jump\t// in\n    tag_593:\n        /* \"#utility.yul\":16161:16233   */\n      tag_594\n        /* \"#utility.yul\":16229:16231   */\n      0x20\n        /* \"#utility.yul\":16218:16227   */\n      dup4\n        /* \"#utility.yul\":16214:16232   */\n      add\n        /* \"#utility.yul\":16205:16211   */\n      dup5\n        /* \"#utility.yul\":16161:16233   */\n      tag_407\n      jump\t// in\n    tag_594:\n        /* \"#utility.yul\":15908:16240   */\n      swap4\n      swap3\n      pop\n      pop\n      pop\n      jump\t// out\n        /* \"#utility.yul\":16246:16362   */\n    tag_408:\n        /* \"#utility.yul\":16316:16337   */\n      tag_596\n        /* \"#utility.yul\":16331:16336   */\n      dup2\n        /* \"#utility.yul\":16316:16337   */\n      tag_365\n      jump\t// in\n    tag_596:\n        /* \"#utility.yul\":16309:16314   */\n      dup2\n        /* \"#utility.yul\":16306:16338   */\n      eq\n        /* \"#utility.yul\":16296:16356   */\n      tag_597\n      jumpi\n        /* \"#utility.yul\":16352:16353   */\n      0x00\n        /* \"#utility.yul\":16349:16350   */\n      dup1\n        /* \"#utility.yul\":16342:16354   */\n      revert\n        /* \"#utility.yul\":16296:16356   */\n    tag_597:\n        /* \"#utility.yul\":16246:16362   */\n      pop\n      jump\t// out\n        /* \"#utility.yul\":16368:16505   */\n    tag_409:\n        /* \"#utility.yul\":16422:16427   */\n      0x00\n        /* \"#utility.yul\":16453:16459   */\n      dup2\n        /* \"#utility.yul\":16447:16460   */\n      mload\n        /* \"#utility.yul\":16438:16460   */\n      swap1\n      pop\n        /* \"#utility.yul\":16469:16499   */\n      tag_599\n        /* \"#utility.yul\":16493:16498   */\n      dup2\n        /* \"#utility.yul\":16469:16499   */\n      tag_408\n      jump\t// in\n    tag_599:\n        /* \"#utility.yul\":16368:16505   */\n      swap3\n      swap2\n      pop\n      pop\n      jump\t// out\n        /* \"#utility.yul\":16511:16856   */\n    tag_204:\n        /* \"#utility.yul\":16578:16584   */\n      0x00\n        /* \"#utility.yul\":16627:16629   */\n      0x20\n        /* \"#utility.yul\":16615:16624   */\n      dup3\n        /* \"#utility.yul\":16606:16613   */\n      dup5\n        /* \"#utility.yul\":16602:16625   */\n      sub\n        /* \"#utility.yul\":16598:16630   */\n      slt\n        /* \"#utility.yul\":16595:16714   */\n      iszero\n      tag_601\n      jumpi\n        /* \"#utility.yul\":16633:16712   */\n      tag_602\n      tag_360\n      jump\t// in\n    tag_602:\n        /* \"#utility.yul\":16595:16714   */\n    tag_601:\n        /* \"#utility.yul\":16753:16754   */\n      0x00\n        /* \"#utility.yul\":16778:16839   */\n      tag_603\n        /* \"#utility.yul\":16831:16838   */\n      dup5\n        /* \"#utility.yul\":16822:16828   */\n      dup3\n        /* \"#utility.yul\":16811:16820   */\n      dup6\n        /* \"#utility.yul\":16807:16829   */\n      add\n        /* \"#utility.yul\":16778:16839   */\n      tag_409\n      jump\t// in\n    tag_603:\n        /* \"#utility.yul\":16768:16839   */\n      swap2\n      pop\n        /* \"#utility.yul\":16724:16849   */\n      pop\n        /* \"#utility.yul\":16511:16856   */\n      swap3\n      swap2\n      pop\n      pop\n      jump\t// out\n        /* \"#utility.yul\":16862:16955   */\n    tag_410:\n        /* \"#utility.yul\":16898:16905   */\n      0x00\n        /* \"#utility.yul\":16938:16948   */\n      0xffffffff\n        /* \"#utility.yul\":16931:16936   */\n      dup3\n        /* \"#utility.yul\":16927:16949   */\n      and\n        /* \"#utility.yul\":16916:16949   */\n      swap1\n      pop\n        /* \"#utility.yul\":16862:16955   */\n      swap2\n      swap1\n      pop\n      jump\t// out\n        /* \"#utility.yul\":16961:17136   */\n    tag_206:\n        /* \"#utility.yul\":16999:17002   */\n      0x00\n        /* \"#utility.yul\":17022:17045   */\n      tag_606\n        /* \"#utility.yul\":17039:17044   */\n      dup3\n        /* \"#utility.yul\":17022:17045   */\n      tag_410\n      jump\t// in\n    tag_606:\n        /* \"#utility.yul\":17013:17045   */\n      swap2\n      pop\n        /* \"#utility.yul\":17067:17077   */\n      0xffffffff\n        /* \"#utility.yul\":17060:17065   */\n      dup3\n        /* \"#utility.yul\":17057:17078   */\n      sub\n        /* \"#utility.yul\":17054:17101   */\n      tag_607\n      jumpi\n        /* \"#utility.yul\":17081:17099   */\n      tag_608\n      tag_390\n      jump\t// in\n    tag_608:\n        /* \"#utility.yul\":17054:17101   */\n    tag_607:\n        /* \"#utility.yul\":17128:17129   */\n      0x01\n        /* \"#utility.yul\":17121:17126   */\n      dup3\n        /* \"#utility.yul\":17117:17130   */\n      add\n        /* \"#utility.yul\":17110:17130   */\n      swap1\n      pop\n        /* \"#utility.yul\":16961:17136   */\n      swap2\n      swap1\n      pop\n      jump\t// out\n        /* \"#utility.yul\":17142:17552   */\n    tag_220:\n        /* \"#utility.yul\":17182:17189   */\n      0x00\n        /* \"#utility.yul\":17205:17225   */\n      tag_610\n        /* \"#utility.yul\":17223:17224   */\n      dup3\n        /* \"#utility.yul\":17205:17225   */\n      tag_384\n      jump\t// in\n    tag_610:\n        /* \"#utility.yul\":17200:17225   */\n      swap2\n      pop\n        /* \"#utility.yul\":17239:17259   */\n      tag_611\n        /* \"#utility.yul\":17257:17258   */\n      dup4\n        /* \"#utility.yul\":17239:17259   */\n      tag_384\n      jump\t// in\n    tag_611:\n        /* \"#utility.yul\":17234:17259   */\n      swap3\n      pop\n        /* \"#utility.yul\":17294:17295   */\n      dup3\n        /* \"#utility.yul\":17291:17292   */\n      dup3\n        /* \"#utility.yul\":17287:17296   */\n      mul\n        /* \"#utility.yul\":17316:17346   */\n      tag_612\n        /* \"#utility.yul\":17334:17345   */\n      dup2\n        /* \"#utility.yul\":17316:17346   */\n      tag_384\n      jump\t// in\n    tag_612:\n        /* \"#utility.yul\":17305:17346   */\n      swap2\n      pop\n        /* \"#utility.yul\":17495:17496   */\n      dup3\n        /* \"#utility.yul\":17486:17493   */\n      dup3\n        /* \"#utility.yul\":17482:17497   */\n      div\n        /* \"#utility.yul\":17479:17480   */\n      dup5\n        /* \"#utility.yul\":17476:17498   */\n      eq\n        /* \"#utility.yul\":17456:17457   */\n      dup4\n        /* \"#utility.yul\":17449:17458   */\n      iszero\n        /* \"#utility.yul\":17429:17512   */\n      or\n        /* \"#utility.yul\":17406:17545   */\n      tag_613\n      jumpi\n        /* \"#utility.yul\":17525:17543   */\n      tag_614\n      tag_390\n      jump\t// in\n    tag_614:\n        /* \"#utility.yul\":17406:17545   */\n    tag_613:\n        /* \"#utility.yul\":17190:17552   */\n      pop\n        /* \"#utility.yul\":17142:17552   */\n      swap3\n      swap2\n      pop\n      pop\n      jump\t// out\n        /* \"#utility.yul\":17558:17738   */\n    tag_411:\n        /* \"#utility.yul\":17606:17683   */\n      0x4e487b7100000000000000000000000000000000000000000000000000000000\n        /* \"#utility.yul\":17603:17604   */\n      0x00\n        /* \"#utility.yul\":17596:17684   */\n      mstore\n        /* \"#utility.yul\":17703:17707   */\n      0x12\n        /* \"#utility.yul\":17700:17701   */\n      0x04\n        /* \"#utility.yul\":17693:17708   */\n      mstore\n        /* \"#utility.yul\":17727:17731   */\n      0x24\n        /* \"#utility.yul\":17724:17725   */\n      0x00\n        /* \"#utility.yul\":17717:17732   */\n      revert\n        /* \"#utility.yul\":17744:17929   */\n    tag_222:\n        /* \"#utility.yul\":17784:17785   */\n      0x00\n        /* \"#utility.yul\":17801:17821   */\n      tag_617\n        /* \"#utility.yul\":17819:17820   */\n      dup3\n        /* \"#utility.yul\":17801:17821   */\n      tag_384\n      jump\t// in\n    tag_617:\n        /* \"#utility.yul\":17796:17821   */\n      swap2\n      pop\n        /* \"#utility.yul\":17835:17855   */\n      tag_618\n        /* \"#utility.yul\":17853:17854   */\n      dup4\n        /* \"#utility.yul\":17835:17855   */\n      tag_384\n      jump\t// in\n    tag_618:\n        /* \"#utility.yul\":17830:17855   */\n      swap3\n      pop\n        /* \"#utility.yul\":17874:17875   */\n      dup3\n        /* \"#utility.yul\":17864:17899   */\n      tag_619\n      jumpi\n        /* \"#utility.yul\":17879:17897   */\n      tag_620\n      tag_411\n      jump\t// in\n    tag_620:\n        /* \"#utility.yul\":17864:17899   */\n    tag_619:\n        /* \"#utility.yul\":17921:17922   */\n      dup3\n        /* \"#utility.yul\":17918:17919   */\n      dup3\n        /* \"#utility.yul\":17914:17923   */\n      div\n        /* \"#utility.yul\":17909:17923   */\n      swap1\n      pop\n        /* \"#utility.yul\":17744:17929   */\n      swap3\n      swap2\n      pop\n      pop\n      jump\t// out\n        /* \"#utility.yul\":17935:18078   */\n    tag_412:\n        /* \"#utility.yul\":17992:17997   */\n      0x00\n        /* \"#utility.yul\":18023:18029   */\n      dup2\n        /* \"#utility.yul\":18017:18030   */\n      mload\n        /* \"#utility.yul\":18008:18030   */\n      swap1\n      pop\n        /* \"#utility.yul\":18039:18072   */\n      tag_622\n        /* \"#utility.yul\":18066:18071   */\n      dup2\n        /* \"#utility.yul\":18039:18072   */\n      tag_368\n      jump\t// in\n    tag_622:\n        /* \"#utility.yul\":17935:18078   */\n      swap3\n      swap2\n      pop\n      pop\n      jump\t// out\n        /* \"#utility.yul\":18084:18435   */\n    tag_263:\n        /* \"#utility.yul\":18154:18160   */\n      0x00\n        /* \"#utility.yul\":18203:18205   */\n      0x20\n        /* \"#utility.yul\":18191:18200   */\n      dup3\n        /* \"#utility.yul\":18182:18189   */\n      dup5\n        /* \"#utility.yul\":18178:18201   */\n      sub\n        /* \"#utility.yul\":18174:18206   */\n      slt\n        /* \"#utility.yul\":18171:18290   */\n      iszero\n      tag_624\n      jumpi\n        /* \"#utility.yul\":18209:18288   */\n      tag_625\n      tag_360\n      jump\t// in\n    tag_625:\n        /* \"#utility.yul\":18171:18290   */\n    tag_624:\n        /* \"#utility.yul\":18329:18330   */\n      0x00\n        /* \"#utility.yul\":18354:18418   */\n      tag_626\n        /* \"#utility.yul\":18410:18417   */\n      dup5\n        /* \"#utility.yul\":18401:18407   */\n      dup3\n        /* \"#utility.yul\":18390:18399   */\n      dup6\n        /* \"#utility.yul\":18386:18408   */\n      add\n        /* \"#utility.yul\":18354:18418   */\n      tag_412\n      jump\t// in\n    tag_626:\n        /* \"#utility.yul\":18344:18418   */\n      swap2\n      pop\n        /* \"#utility.yul\":18300:18428   */\n      pop\n        /* \"#utility.yul\":18084:18435   */\n      swap3\n      swap2\n      pop\n      pop\n      jump\t// out\n        /* \"#utility.yul\":18441:18674   */\n    tag_413:\n        /* \"#utility.yul\":18581:18615   */\n      0x45524331393637557067726164653a206e657720696d706c656d656e74617469\n        /* \"#utility.yul\":18577:18578   */\n      0x00\n        /* \"#utility.yul\":18569:18575   */\n      dup3\n        /* \"#utility.yul\":18565:18579   */\n      add\n        /* \"#utility.yul\":18558:18616   */\n      mstore\n        /* \"#utility.yul\":18650:18666   */\n      0x6f6e206973206e6f742055555053000000000000000000000000000000000000\n        /* \"#utility.yul\":18645:18647   */\n      0x20\n        /* \"#utility.yul\":18637:18643   */\n      dup3\n        /* \"#utility.yul\":18633:18648   */\n      add\n        /* \"#utility.yul\":18626:18667   */\n      mstore\n        /* \"#utility.yul\":18441:18674   */\n      pop\n      jump\t// out\n        /* \"#utility.yul\":18680:19046   */\n    tag_414:\n        /* \"#utility.yul\":18822:18825   */\n      0x00\n        /* \"#utility.yul\":18843:18910   */\n      tag_629\n        /* \"#utility.yul\":18907:18909   */\n      0x2e\n        /* \"#utility.yul\":18902:18905   */\n      dup4\n        /* \"#utility.yul\":18843:18910   */\n      tag_387\n      jump\t// in\n    tag_629:\n        /* \"#utility.yul\":18836:18910   */\n      swap2\n      pop\n        /* \"#utility.yul\":18919:19012   */\n      tag_630\n        /* \"#utility.yul\":19008:19011   */\n      dup3\n        /* \"#utility.yul\":18919:19012   */\n      tag_413\n      jump\t// in\n    tag_630:\n        /* \"#utility.yul\":19037:19039   */\n      0x40\n        /* \"#utility.yul\":19032:19035   */\n      dup3\n        /* \"#utility.yul\":19028:19040   */\n      add\n        /* \"#utility.yul\":19021:19040   */\n      swap1\n      pop\n        /* \"#utility.yul\":18680:19046   */\n      swap2\n      swap1\n      pop\n      jump\t// out\n        /* \"#utility.yul\":19052:19471   */\n    tag_269:\n        /* \"#utility.yul\":19218:19222   */\n      0x00\n        /* \"#utility.yul\":19256:19258   */\n      0x20\n        /* \"#utility.yul\":19245:19254   */\n      dup3\n        /* \"#utility.yul\":19241:19259   */\n      add\n        /* \"#utility.yul\":19233:19259   */\n      swap1\n      pop\n        /* \"#utility.yul\":19305:19314   */\n      dup2\n        /* \"#utility.yul\":19299:19303   */\n      dup2\n        /* \"#utility.yul\":19295:19315   */\n      sub\n        /* \"#utility.yul\":19291:19292   */\n      0x00\n        /* \"#utility.yul\":19280:19289   */\n      dup4\n        /* \"#utility.yul\":19276:19293   */\n      add\n        /* \"#utility.yul\":19269:19316   */\n      mstore\n        /* \"#utility.yul\":19333:19464   */\n      tag_632\n        /* \"#utility.yul\":19459:19463   */\n      dup2\n        /* \"#utility.yul\":19333:19464   */\n      tag_414\n      jump\t// in\n    tag_632:\n        /* \"#utility.yul\":19325:19464   */\n      swap1\n      pop\n        /* \"#utility.yul\":19052:19471   */\n      swap2\n      swap1\n      pop\n      jump\t// out\n        /* \"#utility.yul\":19477:19705   */\n    tag_415:\n        /* \"#utility.yul\":19617:19651   */\n      0x45524331393637557067726164653a20756e737570706f727465642070726f78\n        /* \"#utility.yul\":19613:19614   */\n      0x00\n        /* \"#utility.yul\":19605:19611   */\n      dup3\n        /* \"#utility.yul\":19601:19615   */\n      add\n        /* \"#utility.yul\":19594:19652   */\n      mstore\n        /* \"#utility.yul\":19686:19697   */\n      0x6961626c65555549440000000000000000000000000000000000000000000000\n        /* \"#utility.yul\":19681:19683   */\n      0x20\n        /* \"#utility.yul\":19673:19679   */\n      dup3\n        /* \"#utility.yul\":19669:19684   */\n      add\n        /* \"#utility.yul\":19662:19698   */\n      mstore\n        /* \"#utility.yul\":19477:19705   */\n      pop\n      jump\t// out\n        /* \"#utility.yul\":19711:20077   */\n    tag_416:\n        /* \"#utility.yul\":19853:19856   */\n      0x00\n        /* \"#utility.yul\":19874:19941   */\n      tag_635\n        /* \"#utility.yul\":19938:19940   */\n      0x29\n        /* \"#utility.yul\":19933:19936   */\n      dup4\n        /* \"#utility.yul\":19874:19941   */\n      tag_387\n      jump\t// in\n    tag_635:\n        /* \"#utility.yul\":19867:19941   */\n      swap2\n      pop\n        /* \"#utility.yul\":19950:20043   */\n      tag_636\n        /* \"#utility.yul\":20039:20042   */\n      dup3\n        /* \"#utility.yul\":19950:20043   */\n      tag_415\n      jump\t// in\n    tag_636:\n        /* \"#utility.yul\":20068:20070   */\n      0x40\n        /* \"#utility.yul\":20063:20066   */\n      dup3\n        /* \"#utility.yul\":20059:20071   */\n      add\n        /* \"#utility.yul\":20052:20071   */\n      swap1\n      pop\n        /* \"#utility.yul\":19711:20077   */\n      swap2\n      swap1\n      pop\n      jump\t// out\n        /* \"#utility.yul\":20083:20502   */\n    tag_273:\n        /* \"#utility.yul\":20249:20253   */\n      0x00\n        /* \"#utility.yul\":20287:20289   */\n      0x20\n        /* \"#utility.yul\":20276:20285   */\n      dup3\n        /* \"#utility.yul\":20272:20290   */\n      add\n        /* \"#utility.yul\":20264:20290   */\n      swap1\n      pop\n        /* \"#utility.yul\":20336:20345   */\n      dup2\n        /* \"#utility.yul\":20330:20334   */\n      dup2\n        /* \"#utility.yul\":20326:20346   */\n      sub\n        /* \"#utility.yul\":20322:20323   */\n      0x00\n        /* \"#utility.yul\":20311:20320   */\n      dup4\n        /* \"#utility.yul\":20307:20324   */\n      add\n        /* \"#utility.yul\":20300:20347   */\n      mstore\n        /* \"#utility.yul\":20364:20495   */\n      tag_638\n        /* \"#utility.yul\":20490:20494   */\n      dup2\n        /* \"#utility.yul\":20364:20495   */\n      tag_416\n      jump\t// in\n    tag_638:\n        /* \"#utility.yul\":20356:20495   */\n      swap1\n      pop\n        /* \"#utility.yul\":20083:20502   */\n      swap2\n      swap1\n      pop\n      jump\t// out\n        /* \"#utility.yul\":20508:20656   */\n    tag_417:\n        /* \"#utility.yul\":20610:20621   */\n      0x00\n        /* \"#utility.yul\":20647:20650   */\n      dup2\n        /* \"#utility.yul\":20632:20650   */\n      swap1\n      pop\n        /* \"#utility.yul\":20508:20656   */\n      swap3\n      swap2\n      pop\n      pop\n      jump\t// out\n        /* \"#utility.yul\":20662:20835   */\n    tag_418:\n        /* \"#utility.yul\":20802:20827   */\n      0x416363657373436f6e74726f6c3a206163636f756e7420000000000000000000\n        /* \"#utility.yul\":20798:20799   */\n      0x00\n        /* \"#utility.yul\":20790:20796   */\n      dup3\n        /* \"#utility.yul\":20786:20800   */\n      add\n        /* \"#utility.yul\":20779:20828   */\n      mstore\n        /* \"#utility.yul\":20662:20835   */\n      pop\n      jump\t// out\n        /* \"#utility.yul\":20841:21243   */\n    tag_419:\n        /* \"#utility.yul\":21001:21004   */\n      0x00\n        /* \"#utility.yul\":21022:21107   */\n      tag_642\n        /* \"#utility.yul\":21104:21106   */\n      0x17\n        /* \"#utility.yul\":21099:21102   */\n      dup4\n        /* \"#utility.yul\":21022:21107   */\n      tag_417\n      jump\t// in\n    tag_642:\n        /* \"#utility.yul\":21015:21107   */\n      swap2\n      pop\n        /* \"#utility.yul\":21116:21209   */\n      tag_643\n        /* \"#utility.yul\":21205:21208   */\n      dup3\n        /* \"#utility.yul\":21116:21209   */\n      tag_418\n      jump\t// in\n    tag_643:\n        /* \"#utility.yul\":21234:21236   */\n      0x17\n        /* \"#utility.yul\":21229:21232   */\n      dup3\n        /* \"#utility.yul\":21225:21237   */\n      add\n        /* \"#utility.yul\":21218:21237   */\n      swap1\n      pop\n        /* \"#utility.yul\":20841:21243   */\n      swap2\n      swap1\n      pop\n      jump\t// out\n        /* \"#utility.yul\":21249:21348   */\n    tag_420:\n        /* \"#utility.yul\":21301:21307   */\n      0x00\n        /* \"#utility.yul\":21335:21340   */\n      dup2\n        /* \"#utility.yul\":21329:21341   */\n      mload\n        /* \"#utility.yul\":21319:21341   */\n      swap1\n      pop\n        /* \"#utility.yul\":21249:21348   */\n      swap2\n      swap1\n      pop\n      jump\t// out\n        /* \"#utility.yul\":21354:21493   */\n    tag_421:\n        /* \"#utility.yul\":21443:21449   */\n      dup3\n        /* \"#utility.yul\":21438:21441   */\n      dup2\n        /* \"#utility.yul\":21433:21436   */\n      dup4\n        /* \"#utility.yul\":21427:21450   */\n      mcopy\n        /* \"#utility.yul\":21484:21485   */\n      0x00\n        /* \"#utility.yul\":21475:21481   */\n      dup4\n        /* \"#utility.yul\":21470:21473   */\n      dup4\n        /* \"#utility.yul\":21466:21482   */\n      add\n        /* \"#utility.yul\":21459:21486   */\n      mstore\n        /* \"#utility.yul\":21354:21493   */\n      pop\n      pop\n      pop\n      jump\t// out\n        /* \"#utility.yul\":21499:21889   */\n    tag_422:\n        /* \"#utility.yul\":21605:21608   */\n      0x00\n        /* \"#utility.yul\":21633:21672   */\n      tag_647\n        /* \"#utility.yul\":21666:21671   */\n      dup3\n        /* \"#utility.yul\":21633:21672   */\n      tag_420\n      jump\t// in\n    tag_647:\n        /* \"#utility.yul\":21688:21777   */\n      tag_648\n        /* \"#utility.yul\":21770:21776   */\n      dup2\n        /* \"#utility.yul\":21765:21768   */\n      dup6\n        /* \"#utility.yul\":21688:21777   */\n      tag_417\n      jump\t// in\n    tag_648:\n        /* \"#utility.yul\":21681:21777   */\n      swap4\n      pop\n        /* \"#utility.yul\":21786:21851   */\n      tag_649\n        /* \"#utility.yul\":21844:21850   */\n      dup2\n        /* \"#utility.yul\":21839:21842   */\n      dup6\n        /* \"#utility.yul\":21832:21836   */\n      0x20\n        /* \"#utility.yul\":21825:21830   */\n      dup7\n        /* \"#utility.yul\":21821:21837   */\n      add\n        /* \"#utility.yul\":21786:21851   */\n      tag_421\n      jump\t// in\n    tag_649:\n        /* \"#utility.yul\":21876:21882   */\n      dup1\n        /* \"#utility.yul\":21871:21874   */\n      dup5\n        /* \"#utility.yul\":21867:21883   */\n      add\n        /* \"#utility.yul\":21860:21883   */\n      swap2\n      pop\n        /* \"#utility.yul\":21609:21889   */\n      pop\n        /* \"#utility.yul\":21499:21889   */\n      swap3\n      swap2\n      pop\n      pop\n      jump\t// out\n        /* \"#utility.yul\":21895:22062   */\n    tag_423:\n        /* \"#utility.yul\":22035:22054   */\n      0x206973206d697373696e6720726f6c6520000000000000000000000000000000\n        /* \"#utility.yul\":22031:22032   */\n      0x00\n        /* \"#utility.yul\":22023:22029   */\n      dup3\n        /* \"#utility.yul\":22019:22033   */\n      add\n        /* \"#utility.yul\":22012:22055   */\n      mstore\n        /* \"#utility.yul\":21895:22062   */\n      pop\n      jump\t// out\n        /* \"#utility.yul\":22068:22470   */\n    tag_424:\n        /* \"#utility.yul\":22228:22231   */\n      0x00\n        /* \"#utility.yul\":22249:22334   */\n      tag_652\n        /* \"#utility.yul\":22331:22333   */\n      0x11\n        /* \"#utility.yul\":22326:22329   */\n      dup4\n        /* \"#utility.yul\":22249:22334   */\n      tag_417\n      jump\t// in\n    tag_652:\n        /* \"#utility.yul\":22242:22334   */\n      swap2\n      pop\n        /* \"#utility.yul\":22343:22436   */\n      tag_653\n        /* \"#utility.yul\":22432:22435   */\n      dup3\n        /* \"#utility.yul\":22343:22436   */\n      tag_423\n      jump\t// in\n    tag_653:\n        /* \"#utility.yul\":22461:22463   */\n      0x11\n        /* \"#utility.yul\":22456:22459   */\n      dup3\n        /* \"#utility.yul\":22452:22464   */\n      add\n        /* \"#utility.yul\":22445:22464   */\n      swap1\n      pop\n        /* \"#utility.yul\":22068:22470   */\n      swap2\n      swap1\n      pop\n      jump\t// out\n        /* \"#utility.yul\":22476:23443   */\n    tag_287:\n        /* \"#utility.yul\":22858:22861   */\n      0x00\n        /* \"#utility.yul\":22880:23028   */\n      tag_655\n        /* \"#utility.yul\":23024:23027   */\n      dup3\n        /* \"#utility.yul\":22880:23028   */\n      tag_419\n      jump\t// in\n    tag_655:\n        /* \"#utility.yul\":22873:23028   */\n      swap2\n      pop\n        /* \"#utility.yul\":23045:23140   */\n      tag_656\n        /* \"#utility.yul\":23136:23139   */\n      dup3\n        /* \"#utility.yul\":23127:23133   */\n      dup6\n        /* \"#utility.yul\":23045:23140   */\n      tag_422\n      jump\t// in\n    tag_656:\n        /* \"#utility.yul\":23038:23140   */\n      swap2\n      pop\n        /* \"#utility.yul\":23157:23305   */\n      tag_657\n        /* \"#utility.yul\":23301:23304   */\n      dup3\n        /* \"#utility.yul\":23157:23305   */\n      tag_424\n      jump\t// in\n    tag_657:\n        /* \"#utility.yul\":23150:23305   */\n      swap2\n      pop\n        /* \"#utility.yul\":23322:23417   */\n      tag_658\n        /* \"#utility.yul\":23413:23416   */\n      dup3\n        /* \"#utility.yul\":23404:23410   */\n      dup5\n        /* \"#utility.yul\":23322:23417   */\n      tag_422\n      jump\t// in\n    tag_658:\n        /* \"#utility.yul\":23315:23417   */\n      swap2\n      pop\n        /* \"#utility.yul\":23434:23437   */\n      dup2\n        /* \"#utility.yul\":23427:23437   */\n      swap1\n      pop\n        /* \"#utility.yul\":22476:23443   */\n      swap4\n      swap3\n      pop\n      pop\n      pop\n      jump\t// out\n        /* \"#utility.yul\":23449:23826   */\n    tag_425:\n        /* \"#utility.yul\":23537:23540   */\n      0x00\n        /* \"#utility.yul\":23565:23604   */\n      tag_660\n        /* \"#utility.yul\":23598:23603   */\n      dup3\n        /* \"#utility.yul\":23565:23604   */\n      tag_420\n      jump\t// in\n    tag_660:\n        /* \"#utility.yul\":23620:23691   */\n      tag_661\n        /* \"#utility.yul\":23684:23690   */\n      dup2\n        /* \"#utility.yul\":23679:23682   */\n      dup6\n        /* \"#utility.yul\":23620:23691   */\n      tag_387\n      jump\t// in\n    tag_661:\n        /* \"#utility.yul\":23613:23691   */\n      swap4\n      pop\n        /* \"#utility.yul\":23700:23765   */\n      tag_662\n        /* \"#utility.yul\":23758:23764   */\n      dup2\n        /* \"#utility.yul\":23753:23756   */\n      dup6\n        /* \"#utility.yul\":23746:23750   */\n      0x20\n        /* \"#utility.yul\":23739:23744   */\n      dup7\n        /* \"#utility.yul\":23735:23751   */\n      add\n        /* \"#utility.yul\":23700:23765   */\n      tag_421\n      jump\t// in\n    tag_662:\n        /* \"#utility.yul\":23790:23819   */\n      tag_663\n        /* \"#utility.yul\":23812:23818   */\n      dup2\n        /* \"#utility.yul\":23790:23819   */\n      tag_377\n      jump\t// in\n    tag_663:\n        /* \"#utility.yul\":23785:23788   */\n      dup5\n        /* \"#utility.yul\":23781:23820   */\n      add\n        /* \"#utility.yul\":23774:23820   */\n      swap2\n      pop\n        /* \"#utility.yul\":23541:23826   */\n      pop\n        /* \"#utility.yul\":23449:23826   */\n      swap3\n      swap2\n      pop\n      pop\n      jump\t// out\n        /* \"#utility.yul\":23832:24145   */\n    tag_289:\n        /* \"#utility.yul\":23945:23949   */\n      0x00\n        /* \"#utility.yul\":23983:23985   */\n      0x20\n        /* \"#utility.yul\":23972:23981   */\n      dup3\n        /* \"#utility.yul\":23968:23986   */\n      add\n        /* \"#utility.yul\":23960:23986   */\n      swap1\n      pop\n        /* \"#utility.yul\":24032:24041   */\n      dup2\n        /* \"#utility.yul\":24026:24030   */\n      dup2\n        /* \"#utility.yul\":24022:24042   */\n      sub\n        /* \"#utility.yul\":24018:24019   */\n      0x00\n        /* \"#utility.yul\":24007:24016   */\n      dup4\n        /* \"#utility.yul\":24003:24020   */\n      add\n        /* \"#utility.yul\":23996:24043   */\n      mstore\n        /* \"#utility.yul\":24060:24138   */\n      tag_665\n        /* \"#utility.yul\":24133:24137   */\n      dup2\n        /* \"#utility.yul\":24124:24130   */\n      dup5\n        /* \"#utility.yul\":24060:24138   */\n      tag_425\n      jump\t// in\n    tag_665:\n        /* \"#utility.yul\":24052:24138   */\n      swap1\n      pop\n        /* \"#utility.yul\":23832:24145   */\n      swap3\n      swap2\n      pop\n      pop\n      jump\t// out\n        /* \"#utility.yul\":24151:24383   */\n    tag_426:\n        /* \"#utility.yul\":24291:24325   */\n      0x455243313936373a206e657720696d706c656d656e746174696f6e206973206e\n        /* \"#utility.yul\":24287:24288   */\n      0x00\n        /* \"#utility.yul\":24279:24285   */\n      dup3\n        /* \"#utility.yul\":24275:24289   */\n      add\n        /* \"#utility.yul\":24268:24326   */\n      mstore\n        /* \"#utility.yul\":24360:24375   */\n      0x6f74206120636f6e747261637400000000000000000000000000000000000000\n        /* \"#utility.yul\":24355:24357   */\n      0x20\n        /* \"#utility.yul\":24347:24353   */\n      dup3\n        /* \"#utility.yul\":24343:24358   */\n      add\n        /* \"#utility.yul\":24336:24376   */\n      mstore\n        /* \"#utility.yul\":24151:24383   */\n      pop\n      jump\t// out\n        /* \"#utility.yul\":24389:24755   */\n    tag_427:\n        /* \"#utility.yul\":24531:24534   */\n      0x00\n        /* \"#utility.yul\":24552:24619   */\n      tag_668\n        /* \"#utility.yul\":24616:24618   */\n      0x2d\n        /* \"#utility.yul\":24611:24614   */\n      dup4\n        /* \"#utility.yul\":24552:24619   */\n      tag_387\n      jump\t// in\n    tag_668:\n        /* \"#utility.yul\":24545:24619   */\n      swap2\n      pop\n        /* \"#utility.yul\":24628:24721   */\n      tag_669\n        /* \"#utility.yul\":24717:24720   */\n      dup3\n        /* \"#utility.yul\":24628:24721   */\n      tag_426\n      jump\t// in\n    tag_669:\n        /* \"#utility.yul\":24746:24748   */\n      0x40\n        /* \"#utility.yul\":24741:24744   */\n      dup3\n        /* \"#utility.yul\":24737:24749   */\n      add\n        /* \"#utility.yul\":24730:24749   */\n      swap1\n      pop\n        /* \"#utility.yul\":24389:24755   */\n      swap2\n      swap1\n      pop\n      jump\t// out\n        /* \"#utility.yul\":24761:25180   */\n    tag_296:\n        /* \"#utility.yul\":24927:24931   */\n      0x00\n        /* \"#utility.yul\":24965:24967   */\n      0x20\n        /* \"#utility.yul\":24954:24963   */\n      dup3\n        /* \"#utility.yul\":24950:24968   */\n      add\n        /* \"#utility.yul\":24942:24968   */\n      swap1\n      pop\n        /* \"#utility.yul\":25014:25023   */\n      dup2\n        /* \"#utility.yul\":25008:25012   */\n      dup2\n        /* \"#utility.yul\":25004:25024   */\n      sub\n        /* \"#utility.yul\":25000:25001   */\n      0x00\n        /* \"#utility.yul\":24989:24998   */\n      dup4\n        /* \"#utility.yul\":24985:25002   */\n      add\n        /* \"#utility.yul\":24978:25025   */\n      mstore\n        /* \"#utility.yul\":25042:25173   */\n      tag_671\n        /* \"#utility.yul\":25168:25172   */\n      dup2\n        /* \"#utility.yul\":25042:25173   */\n      tag_427\n      jump\t// in\n    tag_671:\n        /* \"#utility.yul\":25034:25173   */\n      swap1\n      pop\n        /* \"#utility.yul\":24761:25180   */\n      swap2\n      swap1\n      pop\n      jump\t// out\n        /* \"#utility.yul\":25186:25377   */\n    tag_310:\n        /* \"#utility.yul\":25226:25229   */\n      0x00\n        /* \"#utility.yul\":25245:25265   */\n      tag_673\n        /* \"#utility.yul\":25263:25264   */\n      dup3\n        /* \"#utility.yul\":25245:25265   */\n      tag_384\n      jump\t// in\n    tag_673:\n        /* \"#utility.yul\":25240:25265   */\n      swap2\n      pop\n        /* \"#utility.yul\":25279:25299   */\n      tag_674\n        /* \"#utility.yul\":25297:25298   */\n      dup4\n        /* \"#utility.yul\":25279:25299   */\n      tag_384\n      jump\t// in\n    tag_674:\n        /* \"#utility.yul\":25274:25299   */\n      swap3\n      pop\n        /* \"#utility.yul\":25322:25323   */\n      dup3\n        /* \"#utility.yul\":25319:25320   */\n      dup3\n        /* \"#utility.yul\":25315:25324   */\n      add\n        /* \"#utility.yul\":25308:25324   */\n      swap1\n      pop\n        /* \"#utility.yul\":25343:25346   */\n      dup1\n        /* \"#utility.yul\":25340:25341   */\n      dup3\n        /* \"#utility.yul\":25337:25347   */\n      gt\n        /* \"#utility.yul\":25334:25370   */\n      iszero\n      tag_675\n      jumpi\n        /* \"#utility.yul\":25350:25368   */\n      tag_676\n      tag_390\n      jump\t// in\n    tag_676:\n        /* \"#utility.yul\":25334:25370   */\n    tag_675:\n        /* \"#utility.yul\":25186:25377   */\n      swap3\n      swap2\n      pop\n      pop\n      jump\t// out\n        /* \"#utility.yul\":25383:25554   */\n    tag_328:\n        /* \"#utility.yul\":25422:25425   */\n      0x00\n        /* \"#utility.yul\":25445:25469   */\n      tag_678\n        /* \"#utility.yul\":25463:25468   */\n      dup3\n        /* \"#utility.yul\":25445:25469   */\n      tag_384\n      jump\t// in\n    tag_678:\n        /* \"#utility.yul\":25436:25469   */\n      swap2\n      pop\n        /* \"#utility.yul\":25491:25495   */\n      0x00\n        /* \"#utility.yul\":25484:25489   */\n      dup3\n        /* \"#utility.yul\":25481:25496   */\n      sub\n        /* \"#utility.yul\":25478:25519   */\n      tag_679\n      jumpi\n        /* \"#utility.yul\":25499:25517   */\n      tag_680\n      tag_390\n      jump\t// in\n    tag_680:\n        /* \"#utility.yul\":25478:25519   */\n    tag_679:\n        /* \"#utility.yul\":25546:25547   */\n      0x01\n        /* \"#utility.yul\":25539:25544   */\n      dup3\n        /* \"#utility.yul\":25535:25548   */\n      sub\n        /* \"#utility.yul\":25528:25548   */\n      swap1\n      pop\n        /* \"#utility.yul\":25383:25554   */\n      swap2\n      swap1\n      pop\n      jump\t// out\n        /* \"#utility.yul\":25560:25742   */\n    tag_428:\n        /* \"#utility.yul\":25700:25734   */\n      0x537472696e67733a20686578206c656e67746820696e73756666696369656e74\n        /* \"#utility.yul\":25696:25697   */\n      0x00\n        /* \"#utility.yul\":25688:25694   */\n      dup3\n        /* \"#utility.yul\":25684:25698   */\n      add\n        /* \"#utility.yul\":25677:25735   */\n      mstore\n        /* \"#utility.yul\":25560:25742   */\n      pop\n      jump\t// out\n        /* \"#utility.yul\":25748:26114   */\n    tag_429:\n        /* \"#utility.yul\":25890:25893   */\n      0x00\n        /* \"#utility.yul\":25911:25978   */\n      tag_683\n        /* \"#utility.yul\":25975:25977   */\n      0x20\n        /* \"#utility.yul\":25970:25973   */\n      dup4\n        /* \"#utility.yul\":25911:25978   */\n      tag_387\n      jump\t// in\n    tag_683:\n        /* \"#utility.yul\":25904:25978   */\n      swap2\n      pop\n        /* \"#utility.yul\":25987:26080   */\n      tag_684\n        /* \"#utility.yul\":26076:26079   */\n      dup3\n        /* \"#utility.yul\":25987:26080   */\n      tag_428\n      jump\t// in\n    tag_684:\n        /* \"#utility.yul\":26105:26107   */\n      0x20\n        /* \"#utility.yul\":26100:26103   */\n      dup3\n        /* \"#utility.yul\":26096:26108   */\n      add\n        /* \"#utility.yul\":26089:26108   */\n      swap1\n      pop\n        /* \"#utility.yul\":25748:26114   */\n      swap2\n      swap1\n      pop\n      jump\t// out\n        /* \"#utility.yul\":26120:26539   */\n    tag_331:\n        /* \"#utility.yul\":26286:26290   */\n      0x00\n        /* \"#utility.yul\":26324:26326   */\n      0x20\n        /* \"#utility.yul\":26313:26322   */\n      dup3\n        /* \"#utility.yul\":26309:26327   */\n      add\n        /* \"#utility.yul\":26301:26327   */\n      swap1\n      pop\n        /* \"#utility.yul\":26373:26382   */\n      dup2\n        /* \"#utility.yul\":26367:26371   */\n      dup2\n        /* \"#utility.yul\":26363:26383   */\n      sub\n        /* \"#utility.yul\":26359:26360   */\n      0x00\n        /* \"#utility.yul\":26348:26357   */\n      dup4\n        /* \"#utility.yul\":26344:26361   */\n      add\n        /* \"#utility.yul\":26337:26384   */\n      mstore\n        /* \"#utility.yul\":26401:26532   */\n      tag_686\n        /* \"#utility.yul\":26527:26531   */\n      dup2\n        /* \"#utility.yul\":26401:26532   */\n      tag_429\n      jump\t// in\n    tag_686:\n        /* \"#utility.yul\":26393:26532   */\n      swap1\n      pop\n        /* \"#utility.yul\":26120:26539   */\n      swap2\n      swap1\n      pop\n      jump\t// out\n        /* \"#utility.yul\":26545:26643   */\n    tag_430:\n        /* \"#utility.yul\":26596:26602   */\n      0x00\n        /* \"#utility.yul\":26630:26635   */\n      dup2\n        /* \"#utility.yul\":26624:26636   */\n      mload\n        /* \"#utility.yul\":26614:26636   */\n      swap1\n      pop\n        /* \"#utility.yul\":26545:26643   */\n      swap2\n      swap1\n      pop\n      jump\t// out\n        /* \"#utility.yul\":26649:26796   */\n    tag_431:\n        /* \"#utility.yul\":26750:26761   */\n      0x00\n        /* \"#utility.yul\":26787:26790   */\n      dup2\n        /* \"#utility.yul\":26772:26790   */\n      swap1\n      pop\n        /* \"#utility.yul\":26649:26796   */\n      swap3\n      swap2\n      pop\n      pop\n      jump\t// out\n        /* \"#utility.yul\":26802:27188   */\n    tag_432:\n        /* \"#utility.yul\":26906:26909   */\n      0x00\n        /* \"#utility.yul\":26934:26972   */\n      tag_690\n        /* \"#utility.yul\":26966:26971   */\n      dup3\n        /* \"#utility.yul\":26934:26972   */\n      tag_430\n      jump\t// in\n    tag_690:\n        /* \"#utility.yul\":26988:27076   */\n      tag_691\n        /* \"#utility.yul\":27069:27075   */\n      dup2\n        /* \"#utility.yul\":27064:27067   */\n      dup6\n        /* \"#utility.yul\":26988:27076   */\n      tag_431\n      jump\t// in\n    tag_691:\n        /* \"#utility.yul\":26981:27076   */\n      swap4\n      pop\n        /* \"#utility.yul\":27085:27150   */\n      tag_692\n        /* \"#utility.yul\":27143:27149   */\n      dup2\n        /* \"#utility.yul\":27138:27141   */\n      dup6\n        /* \"#utility.yul\":27131:27135   */\n      0x20\n        /* \"#utility.yul\":27124:27129   */\n      dup7\n        /* \"#utility.yul\":27120:27136   */\n      add\n        /* \"#utility.yul\":27085:27150   */\n      tag_421\n      jump\t// in\n    tag_692:\n        /* \"#utility.yul\":27175:27181   */\n      dup1\n        /* \"#utility.yul\":27170:27173   */\n      dup5\n        /* \"#utility.yul\":27166:27182   */\n      add\n        /* \"#utility.yul\":27159:27182   */\n      swap2\n      pop\n        /* \"#utility.yul\":26910:27188   */\n      pop\n        /* \"#utility.yul\":26802:27188   */\n      swap3\n      swap2\n      pop\n      pop\n      jump\t// out\n        /* \"#utility.yul\":27194:27465   */\n    tag_339:\n        /* \"#utility.yul\":27324:27327   */\n      0x00\n        /* \"#utility.yul\":27346:27439   */\n      tag_694\n        /* \"#utility.yul\":27435:27438   */\n      dup3\n        /* \"#utility.yul\":27426:27432   */\n      dup5\n        /* \"#utility.yul\":27346:27439   */\n      tag_432\n      jump\t// in\n    tag_694:\n        /* \"#utility.yul\":27339:27439   */\n      swap2\n      pop\n        /* \"#utility.yul\":27456:27459   */\n      dup2\n        /* \"#utility.yul\":27449:27459   */\n      swap1\n      pop\n        /* \"#utility.yul\":27194:27465   */\n      swap3\n      swap2\n      pop\n      pop\n      jump\t// out\n        /* \"#utility.yul\":27471:27650   */\n    tag_433:\n        /* \"#utility.yul\":27611:27642   */\n      0x416464726573733a2063616c6c20746f206e6f6e2d636f6e7472616374000000\n        /* \"#utility.yul\":27607:27608   */\n      0x00\n        /* \"#utility.yul\":27599:27605   */\n      dup3\n        /* \"#utility.yul\":27595:27609   */\n      add\n        /* \"#utility.yul\":27588:27643   */\n      mstore\n        /* \"#utility.yul\":27471:27650   */\n      pop\n      jump\t// out\n        /* \"#utility.yul\":27656:28022   */\n    tag_434:\n        /* \"#utility.yul\":27798:27801   */\n      0x00\n        /* \"#utility.yul\":27819:27886   */\n      tag_697\n        /* \"#utility.yul\":27883:27885   */\n      0x1d\n        /* \"#utility.yul\":27878:27881   */\n      dup4\n        /* \"#utility.yul\":27819:27886   */\n      tag_387\n      jump\t// in\n    tag_697:\n        /* \"#utility.yul\":27812:27886   */\n      swap2\n      pop\n        /* \"#utility.yul\":27895:27988   */\n      tag_698\n        /* \"#utility.yul\":27984:27987   */\n      dup3\n        /* \"#utility.yul\":27895:27988   */\n      tag_433\n      jump\t// in\n    tag_698:\n        /* \"#utility.yul\":28013:28015   */\n      0x20\n        /* \"#utility.yul\":28008:28011   */\n      dup3\n        /* \"#utility.yul\":28004:28016   */\n      add\n        /* \"#utility.yul\":27997:28016   */\n      swap1\n      pop\n        /* \"#utility.yul\":27656:28022   */\n      swap2\n      swap1\n      pop\n      jump\t// out\n        /* \"#utility.yul\":28028:28447   */\n    tag_351:\n        /* \"#utility.yul\":28194:28198   */\n      0x00\n        /* \"#utility.yul\":28232:28234   */\n      0x20\n        /* \"#utility.yul\":28221:28230   */\n      dup3\n        /* \"#utility.yul\":28217:28235   */\n      add\n        /* \"#utility.yul\":28209:28235   */\n      swap1\n      pop\n        /* \"#utility.yul\":28281:28290   */\n      dup2\n        /* \"#utility.yul\":28275:28279   */\n      dup2\n        /* \"#utility.yul\":28271:28291   */\n      sub\n        /* \"#utility.yul\":28267:28268   */\n      0x00\n        /* \"#utility.yul\":28256:28265   */\n      dup4\n        /* \"#utility.yul\":28252:28269   */\n      add\n        /* \"#utility.yul\":28245:28292   */\n      mstore\n        /* \"#utility.yul\":28309:28440   */\n      tag_700\n        /* \"#utility.yul\":28435:28439   */\n      dup2\n        /* \"#utility.yul\":28309:28440   */\n      tag_434\n      jump\t// in\n    tag_700:\n        /* \"#utility.yul\":28301:28440   */\n      swap1\n      pop\n        /* \"#utility.yul\":28028:28447   */\n      swap2\n      swap1\n      pop\n      jump\t// out\n    stop\n    data_9fdcd12e4b726339b32a442b0a448365d5d85c96b2d2cff917b4f66c63110398 416464726573733a206c6f772d6c6576656c2064656c65676174652063616c6c206661696c6564\n\n    auxdata: 0xa264697066735822122043ce69cc8f86caff5bc1da1159d451786c6db514fe5e76c296ac21309527cc5564736f6c63430008190033\n}\n",
				"bytecode": {
					"linkReferences": {},
					"object": "60a06040523073ffffffffffffffffffffffffffffffffffffffff1660809073ffffffffffffffffffffffffffffffffffffffff168152503480156041575f80fd5b506080516128e26100765f395f8181610612015281816106a00152818161098001528181610a0e0152610abd01526128e25ff3fe6080604052600436106100e7575f3560e01c80634f1ef28611610089578063a16d596011610058578063a16d5960146102c3578063a217fddf146102eb578063b88a802f14610315578063d547741f1461032b576100e7565b80634f1ef2861461021957806352d1902d1461023557806391d148541461025f5780639e5914da1461029b576100e7565b80632f2ff15d116100c55780632f2ff15d1461017957806336568abe146101a15780633659cfe6146101c9578063485cc955146101f1576100e7565b806301ffc9a7146100eb5780630cdb43c414610127578063248a9ca31461013d575b5f80fd5b3480156100f6575f80fd5b50610111600480360381019061010c9190611a24565b610353565b60405161011e9190611a69565b60405180910390f35b348015610132575f80fd5b5061013b6103cc565b005b348015610148575f80fd5b50610163600480360381019061015e9190611ab5565b61054f565b6040516101709190611aef565b60405180910390f35b348015610184575f80fd5b5061019f600480360381019061019a9190611b62565b61056c565b005b3480156101ac575f80fd5b506101c760048036038101906101c29190611b62565b61058d565b005b3480156101d4575f80fd5b506101ef60048036038101906101ea9190611ba0565b610610565b005b3480156101fc575f80fd5b5061021760048036038101906102129190611bcb565b610796565b005b610233600480360381019061022e9190611d45565b61097e565b005b348015610240575f80fd5b50610249610aba565b6040516102569190611aef565b60405180910390f35b34801561026a575f80fd5b5061028560048036038101906102809190611b62565b610b71565b6040516102929190611a69565b60405180910390f35b3480156102a6575f80fd5b506102c160048036038101906102bc9190611ba0565b610bd5565b005b3480156102ce575f80fd5b506102e960048036038101906102e49190611ba0565b610c25565b005b3480156102f6575f80fd5b506102ff610cf8565b60405161030c9190611aef565b60405180910390f35b348015610320575f80fd5b50610329610cfe565b005b348015610336575f80fd5b50610351600480360381019061034c9190611b62565b610e77565b005b5f7f7965db0b000000000000000000000000000000000000000000000000000000007bffffffffffffffffffffffffffffffffffffffffffffffffffffffff1916827bffffffffffffffffffffffffffffffffffffffffffffffffffffffff191614806103c557506103c482610e98565b5b9050919050565b5f801b6103d881610f01565b5f8060fc5f9054906101000a900473ffffffffffffffffffffffffffffffffffffffff1673ffffffffffffffffffffffffffffffffffffffff1663be42e1fc6040518163ffffffff1660e01b8152600401602060405180830381865afa158015610444573d5f803e3d5ffd5b505050506040513d601f19601f820116820180604052508101906104689190611dd2565b90505f81116104ac576040517f08c379a00000000000000000000000000000000000000000000000000000000081526004016104a390611e57565b60405180910390fd5b60fc5f9054906101000a900473ffffffffffffffffffffffffffffffffffffffff1673ffffffffffffffffffffffffffffffffffffffff16633ccfd60b6040518163ffffffff1660e01b81526004015f604051808303815f87803b158015610512575f80fd5b505af1158015610524573d5f803e3d5ffd5b5050505061053181610f15565b9150818161053f9190611ea2565b905061054a81610fd2565b505050565b5f60c95f8381526020019081526020015f20600101549050919050565b6105758261054f565b61057e81610f01565b610588838361103c565b505050565b610595611117565b73ffffffffffffffffffffffffffffffffffffffff168173ffffffffffffffffffffffffffffffffffffffff1614610602576040517f08c379a00000000000000000000000000000000000000000000000000000000081526004016105f990611f45565b60405180910390fd5b61060c828261111e565b5050565b7f000000000000000000000000000000000000000000000000000000000000000073ffffffffffffffffffffffffffffffffffffffff163073ffffffffffffffffffffffffffffffffffffffff160361069e576040517f08c379a000000000000000000000000000000000000000000000000000000000815260040161069590611fd3565b60405180910390fd5b7f000000000000000000000000000000000000000000000000000000000000000073ffffffffffffffffffffffffffffffffffffffff166106dd6111f9565b73ffffffffffffffffffffffffffffffffffffffff1614610733576040517f08c379a000000000000000000000000000000000000000000000000000000000815260040161072a90612061565b60405180910390fd5b61073c8161124c565b610793815f67ffffffffffffffff81111561075a57610759611c21565b5b6040519080825280601f01601f19166020018201604052801561078c5781602001600182028036833780820191505090505b505f61125c565b50565b5f8060019054906101000a900460ff161590508080156107c5575060015f8054906101000a900460ff1660ff16105b806107f157506107d4306113c6565b1580156107f0575060015f8054906101000a900460ff1660ff16145b5b610830576040517f08c379a0000000000000000000000000000000000000000000000000000000008152600401610827906120ef565b60405180910390fd5b60015f806101000a81548160ff021916908360ff160217905550801561086b5760015f60016101000a81548160ff0219169083151502179055505b6108775f801b836113e8565b8260ff5f6101000a81548173ffffffffffffffffffffffffffffffffffffffff021916908373ffffffffffffffffffffffffffffffffffffffff160217905550600160fc60146101000a81548160ff021916908360ff160217905550600260fc60156101000a81548160ff021916908360ff160217905550600360fc60166101000a81548160ff021916908360ff160217905550631dcd650060fd81905550633b9aca0060fe819055508015610979575f8060016101000a81548160ff0219169083151502179055507f7f26b83ff96e1f2b6a682f133852f6798a09c465da95921460cefb38474024986001604051610970919061215b565b60405180910390a15b505050565b7f000000000000000000000000000000000000000000000000000000000000000073ffffffffffffffffffffffffffffffffffffffff163073ffffffffffffffffffffffffffffffffffffffff1603610a0c576040517f08c379a0000000000000000000000000000000000000000000000000000000008152600401610a0390611fd3565b60405180910390fd5b7f000000000000000000000000000000000000000000000000000000000000000073ffffffffffffffffffffffffffffffffffffffff16610a4b6111f9565b73ffffffffffffffffffffffffffffffffffffffff1614610aa1576040517f08c379a0000000000000000000000000000000000000000000000000000000008152600401610a9890612061565b60405180910390fd5b610aaa8261124c565b610ab68282600161125c565b5050565b5f7f000000000000000000000000000000000000000000000000000000000000000073ffffffffffffffffffffffffffffffffffffffff163073ffffffffffffffffffffffffffffffffffffffff1614610b49576040517f08c379a0000000000000000000000000000000000000000000000000000000008152600401610b40906121e4565b60405180910390fd5b7f360894a13ba1a3210667c828492db98dca3e2076cc3735a920a3ca505d382bbc5f1b905090565b5f60c95f8481526020019081526020015f205f015f8373ffffffffffffffffffffffffffffffffffffffff1673ffffffffffffffffffffffffffffffffffffffff1681526020019081526020015f205f9054906101000a900460ff16905092915050565b5f801b610be181610f01565b8160fc5f6101000a81548173ffffffffffffffffffffffffffffffffffffffff021916908373ffffffffffffffffffffffffffffffffffffffff1602179055505050565b5f801b610c3181610f01565b610c39611990565b82815f019073ffffffffffffffffffffffffffffffffffffffff16908173ffffffffffffffffffffffffffffffffffffffff16815250505f81602001818152505060fb81908060018154018082558091505060019003905f5260205f2090600202015f909190919091505f820151815f015f6101000a81548173ffffffffffffffffffffffffffffffffffffffff021916908373ffffffffffffffffffffffffffffffffffffffff160217905550602082015181600101555050505050565b5f801b81565b5f801b610d0a81610f01565b5f5b60fb805490508163ffffffff161015610e735760fb8163ffffffff1681548110610d3957610d38612202565b5b905f5260205f2090600202015f015f9054906101000a900473ffffffffffffffffffffffffffffffffffffffff1673ffffffffffffffffffffffffffffffffffffffff163373ffffffffffffffffffffffffffffffffffffffff1603610e605760ff5f9054906101000a900473ffffffffffffffffffffffffffffffffffffffff1673ffffffffffffffffffffffffffffffffffffffff1663a9059cbb3360fb8463ffffffff1681548110610df157610df0612202565b5b905f5260205f209060020201600101546040518363ffffffff1660e01b8152600401610e1e92919061224d565b6020604051808303815f875af1158015610e3a573d5f803e3d5ffd5b505050506040513d601f19601f82011682018060405250810190610e5e919061229e565b505b8080610e6b906122d8565b915050610d0c565b5050565b610e808261054f565b610e8981610f01565b610e93838361111e565b505050565b5f7f01ffc9a7000000000000000000000000000000000000000000000000000000007bffffffffffffffffffffffffffffffffffffffffffffffffffffffff1916827bffffffffffffffffffffffffffffffffffffffffffffffffffffffff1916149050919050565b610f1281610f0d611117565b6113f6565b50565b5f8060fd54831015610f4e57606460fc60149054906101000a900460ff1660ff1684610f419190612303565b610f4b9190612371565b90505b8260fd5411158015610f61575060fe5483105b15610f9357606460fc60159054906101000a900460ff1660ff1684610f869190612303565b610f909190612371565b90505b60fe548310610fc957606460fc60169054906101000a900460ff1660ff1684610fbc9190612303565b610fc69190612371565b90505b80915050919050565b5f5b60fb805490508163ffffffff1610156110385760fb8054905082610ff89190612371565b60fb8263ffffffff168154811061101257611011612202565b5b905f5260205f209060020201600101819055508080611030906122d8565b915050610fd4565b5050565b6110468282610b71565b61111357600160c95f8481526020019081526020015f205f015f8373ffffffffffffffffffffffffffffffffffffffff1673ffffffffffffffffffffffffffffffffffffffff1681526020019081526020015f205f6101000a81548160ff0219169083151502179055506110b8611117565b73ffffffffffffffffffffffffffffffffffffffff168173ffffffffffffffffffffffffffffffffffffffff16837f2f8788117e7eff1d82e926ec794901d17c78024a50270940304540a733656f0d60405160405180910390a45b5050565b5f33905090565b6111288282610b71565b156111f5575f60c95f8481526020019081526020015f205f015f8373ffffffffffffffffffffffffffffffffffffffff1673ffffffffffffffffffffffffffffffffffffffff1681526020019081526020015f205f6101000a81548160ff02191690831515021790555061119a611117565b73ffffffffffffffffffffffffffffffffffffffff168173ffffffffffffffffffffffffffffffffffffffff16837ff6391f5c32d9c69d2a47ea670b442974b53935d1edc7fd64eb21e047a839171b60405160405180910390a45b5050565b5f6112257f360894a13ba1a3210667c828492db98dca3e2076cc3735a920a3ca505d382bbc5f1b61147a565b5f015f9054906101000a900473ffffffffffffffffffffffffffffffffffffffff16905090565b5f801b61125881610f01565b5050565b6112877f4910fdfa16fed3260ed0e7147f7cc6da11a60208b5b9406d12a635614ffd91435f1b611483565b5f015f9054906101000a900460ff16156112a9576112a48361148c565b6113c1565b8273ffffffffffffffffffffffffffffffffffffffff166352d1902d6040518163ffffffff1660e01b8152600401602060405180830381865afa92505050801561131157506040513d601f19601f8201168201806040525081019061130e91906123b5565b60015b611350576040517f08c379a000000000000000000000000000000000000000000000000000000000815260040161134790612450565b60405180910390fd5b7f360894a13ba1a3210667c828492db98dca3e2076cc3735a920a3ca505d382bbc5f1b81146113b4576040517f08c379a00000000000000000000000000000000000000000000000000000000081526004016113ab906124de565b60405180910390fd5b506113c0838383611542565b5b505050565b5f808273ffffffffffffffffffffffffffffffffffffffff163b119050919050565b6113f2828261103c565b5050565b6114008282610b71565b6114765761140d8161156d565b61141a835f1c602061159a565b60405160200161142b9291906125e2565b6040516020818303038152906040526040517f08c379a000000000000000000000000000000000000000000000000000000000815260040161146d9190612653565b60405180910390fd5b5050565b5f819050919050565b5f819050919050565b611495816113c6565b6114d4576040517f08c379a00000000000000000000000000000000000000000000000000000000081526004016114cb906126e3565b60405180910390fd5b806115007f360894a13ba1a3210667c828492db98dca3e2076cc3735a920a3ca505d382bbc5f1b61147a565b5f015f6101000a81548173ffffffffffffffffffffffffffffffffffffffff021916908373ffffffffffffffffffffffffffffffffffffffff16021790555050565b61154b836117cf565b5f825111806115575750805b1561156857611566838361181e565b505b505050565b60606115938273ffffffffffffffffffffffffffffffffffffffff16601460ff1661159a565b9050919050565b60605f60028360026115ac9190612303565b6115b69190612701565b67ffffffffffffffff8111156115cf576115ce611c21565b5b6040519080825280601f01601f1916602001820160405280156116015781602001600182028036833780820191505090505b5090507f3000000000000000000000000000000000000000000000000000000000000000815f8151811061163857611637612202565b5b60200101907effffffffffffffffffffffffffffffffffffffffffffffffffffffffffffff191690815f1a9053507f78000000000000000000000000000000000000000000000000000000000000008160018151811061169b5761169a612202565b5b60200101907effffffffffffffffffffffffffffffffffffffffffffffffffffffffffffff191690815f1a9053505f60018460026116d99190612303565b6116e39190612701565b90505b6001811115611782577f3031323334353637383961626364656600000000000000000000000000000000600f86166010811061172557611724612202565b5b1a60f81b82828151811061173c5761173b612202565b5b60200101907effffffffffffffffffffffffffffffffffffffffffffffffffffffffffffff191690815f1a905350600485901c94508061177b90612734565b90506116e6565b505f84146117c5576040517f08c379a00000000000000000000000000000000000000000000000000000000081526004016117bc906127a5565b60405180910390fd5b8091505092915050565b6117d88161148c565b8073ffffffffffffffffffffffffffffffffffffffff167fbc7cd75a20ee27fd9adebab32041f755214dbc6bffa90cc0225b39da2e5c2d3b60405160405180910390a250565b606061184383836040518060600160405280602781526020016128866027913961184b565b905092915050565b60605f808573ffffffffffffffffffffffffffffffffffffffff16856040516118749190612807565b5f60405180830381855af49150503d805f81146118ac576040519150601f19603f3d011682016040523d82523d5f602084013e6118b1565b606091505b50915091506118c2868383876118cd565b925050509392505050565b6060831561192e575f835103611926576118e6856113c6565b611925576040517f08c379a000000000000000000000000000000000000000000000000000000000815260040161191c90612867565b60405180910390fd5b5b829050611939565b6119388383611941565b5b949350505050565b5f825111156119535781518083602001fd5b806040517f08c379a00000000000000000000000000000000000000000000000000000000081526004016119879190612653565b60405180910390fd5b60405180604001604052805f73ffffffffffffffffffffffffffffffffffffffff1681526020015f81525090565b5f604051905090565b5f80fd5b5f80fd5b5f7fffffffff0000000000000000000000000000000000000000000000000000000082169050919050565b611a03816119cf565b8114611a0d575f80fd5b50565b5f81359050611a1e816119fa565b92915050565b5f60208284031215611a3957611a386119c7565b5b5f611a4684828501611a10565b91505092915050565b5f8115159050919050565b611a6381611a4f565b82525050565b5f602082019050611a7c5f830184611a5a565b92915050565b5f819050919050565b611a9481611a82565b8114611a9e575f80fd5b50565b5f81359050611aaf81611a8b565b92915050565b5f60208284031215611aca57611ac96119c7565b5b5f611ad784828501611aa1565b91505092915050565b611ae981611a82565b82525050565b5f602082019050611b025f830184611ae0565b92915050565b5f73ffffffffffffffffffffffffffffffffffffffff82169050919050565b5f611b3182611b08565b9050919050565b611b4181611b27565b8114611b4b575f80fd5b50565b5f81359050611b5c81611b38565b92915050565b5f8060408385031215611b7857611b776119c7565b5b5f611b8585828601611aa1565b9250506020611b9685828601611b4e565b9150509250929050565b5f60208284031215611bb557611bb46119c7565b5b5f611bc284828501611b4e565b91505092915050565b5f8060408385031215611be157611be06119c7565b5b5f611bee85828601611b4e565b9250506020611bff85828601611b4e565b9150509250929050565b5f80fd5b5f80fd5b5f601f19601f8301169050919050565b7f4e487b71000000000000000000000000000000000000000000000000000000005f52604160045260245ffd5b611c5782611c11565b810181811067ffffffffffffffff82111715611c7657611c75611c21565b5b80604052505050565b5f611c886119be565b9050611c948282611c4e565b919050565b5f67ffffffffffffffff821115611cb357611cb2611c21565b5b611cbc82611c11565b9050602081019050919050565b828183375f83830152505050565b5f611ce9611ce484611c99565b611c7f565b905082815260208101848484011115611d0557611d04611c0d565b5b611d10848285611cc9565b509392505050565b5f82601f830112611d2c57611d2b611c09565b5b8135611d3c848260208601611cd7565b91505092915050565b5f8060408385031215611d5b57611d5a6119c7565b5b5f611d6885828601611b4e565b925050602083013567ffffffffffffffff811115611d8957611d886119cb565b5b611d9585828601611d18565b9150509250929050565b5f819050919050565b611db181611d9f565b8114611dbb575f80fd5b50565b5f81519050611dcc81611da8565b92915050565b5f60208284031215611de757611de66119c7565b5b5f611df484828501611dbe565b91505092915050565b5f82825260208201905092915050565b7f796f7520646f6e277420686176652062616c616e6365000000000000000000005f82015250565b5f611e41601683611dfd565b9150611e4c82611e0d565b602082019050919050565b5f6020820190508181035f830152611e6e81611e35565b9050919050565b7f4e487b71000000000000000000000000000000000000000000000000000000005f52601160045260245ffd5b5f611eac82611d9f565b9150611eb783611d9f565b9250828203905081811115611ecf57611ece611e75565b5b92915050565b7f416363657373436f6e74726f6c3a2063616e206f6e6c792072656e6f756e63655f8201527f20726f6c657320666f722073656c660000000000000000000000000000000000602082015250565b5f611f2f602f83611dfd565b9150611f3a82611ed5565b604082019050919050565b5f6020820190508181035f830152611f5c81611f23565b9050919050565b7f46756e6374696f6e206d7573742062652063616c6c6564207468726f756768205f8201527f64656c656761746563616c6c0000000000000000000000000000000000000000602082015250565b5f611fbd602c83611dfd565b9150611fc882611f63565b604082019050919050565b5f6020820190508181035f830152611fea81611fb1565b9050919050565b7f46756e6374696f6e206d7573742062652063616c6c6564207468726f756768205f8201527f6163746976652070726f78790000000000000000000000000000000000000000602082015250565b5f61204b602c83611dfd565b915061205682611ff1565b604082019050919050565b5f6020820190508181035f8301526120788161203f565b9050919050565b7f496e697469616c697a61626c653a20636f6e747261637420697320616c7265615f8201527f647920696e697469616c697a6564000000000000000000000000000000000000602082015250565b5f6120d9602e83611dfd565b91506120e48261207f565b604082019050919050565b5f6020820190508181035f830152612106816120cd565b9050919050565b5f819050919050565b5f60ff82169050919050565b5f819050919050565b5f61214561214061213b8461210d565b612122565b612116565b9050919050565b6121558161212b565b82525050565b5f60208201905061216e5f83018461214c565b92915050565b7f555550535570677261646561626c653a206d757374206e6f742062652063616c5f8201527f6c6564207468726f7567682064656c656761746563616c6c0000000000000000602082015250565b5f6121ce603883611dfd565b91506121d982612174565b604082019050919050565b5f6020820190508181035f8301526121fb816121c2565b9050919050565b7f4e487b71000000000000000000000000000000000000000000000000000000005f52603260045260245ffd5b61223881611b27565b82525050565b61224781611d9f565b82525050565b5f6040820190506122605f83018561222f565b61226d602083018461223e565b9392505050565b61227d81611a4f565b8114612287575f80fd5b50565b5f8151905061229881612274565b92915050565b5f602082840312156122b3576122b26119c7565b5b5f6122c08482850161228a565b91505092915050565b5f63ffffffff82169050919050565b5f6122e2826122c9565b915063ffffffff82036122f8576122f7611e75565b5b600182019050919050565b5f61230d82611d9f565b915061231883611d9f565b925082820261232681611d9f565b9150828204841483151761233d5761233c611e75565b5b5092915050565b7f4e487b71000000000000000000000000000000000000000000000000000000005f52601260045260245ffd5b5f61237b82611d9f565b915061238683611d9f565b92508261239657612395612344565b5b828204905092915050565b5f815190506123af81611a8b565b92915050565b5f602082840312156123ca576123c96119c7565b5b5f6123d7848285016123a1565b91505092915050565b7f45524331393637557067726164653a206e657720696d706c656d656e746174695f8201527f6f6e206973206e6f742055555053000000000000000000000000000000000000602082015250565b5f61243a602e83611dfd565b9150612445826123e0565b604082019050919050565b5f6020820190508181035f8301526124678161242e565b9050919050565b7f45524331393637557067726164653a20756e737570706f727465642070726f785f8201527f6961626c65555549440000000000000000000000000000000000000000000000602082015250565b5f6124c8602983611dfd565b91506124d38261246e565b604082019050919050565b5f6020820190508181035f8301526124f5816124bc565b9050919050565b5f81905092915050565b7f416363657373436f6e74726f6c3a206163636f756e74200000000000000000005f82015250565b5f61253a6017836124fc565b915061254582612506565b601782019050919050565b5f81519050919050565b8281835e5f83830152505050565b5f61257282612550565b61257c81856124fc565b935061258c81856020860161255a565b80840191505092915050565b7f206973206d697373696e6720726f6c65200000000000000000000000000000005f82015250565b5f6125cc6011836124fc565b91506125d782612598565b601182019050919050565b5f6125ec8261252e565b91506125f88285612568565b9150612603826125c0565b915061260f8284612568565b91508190509392505050565b5f61262582612550565b61262f8185611dfd565b935061263f81856020860161255a565b61264881611c11565b840191505092915050565b5f6020820190508181035f83015261266b818461261b565b905092915050565b7f455243313936373a206e657720696d706c656d656e746174696f6e206973206e5f8201527f6f74206120636f6e747261637400000000000000000000000000000000000000602082015250565b5f6126cd602d83611dfd565b91506126d882612673565b604082019050919050565b5f6020820190508181035f8301526126fa816126c1565b9050919050565b5f61270b82611d9f565b915061271683611d9f565b925082820190508082111561272e5761272d611e75565b5b92915050565b5f61273e82611d9f565b91505f82036127505761274f611e75565b5b600182039050919050565b7f537472696e67733a20686578206c656e67746820696e73756666696369656e745f82015250565b5f61278f602083611dfd565b915061279a8261275b565b602082019050919050565b5f6020820190508181035f8301526127bc81612783565b9050919050565b5f81519050919050565b5f81905092915050565b5f6127e1826127c3565b6127eb81856127cd565b93506127fb81856020860161255a565b80840191505092915050565b5f61281282846127d7565b915081905092915050565b7f416464726573733a2063616c6c20746f206e6f6e2d636f6e74726163740000005f82015250565b5f612851601d83611dfd565b915061285c8261281d565b602082019050919050565b5f6020820190508181035f83015261287e81612845565b905091905056fe416464726573733a206c6f772d6c6576656c2064656c65676174652063616c6c206661696c6564a264697066735822122043ce69cc8f86caff5bc1da1159d451786c6db514fe5e76c296ac21309527cc5564736f6c63430008190033",
					"opcodes": "PUSH1 0xA0 PUSH1 0x40 MSTORE ADDRESS PUSH20 0xFFFFFFFFFFFFFFFFFFFFFFFFFFFFFFFFFFFFFFFF AND PUSH1 0x80 SWAP1 PUSH20 0xFFFFFFFFFFFFFFFFFFFFFFFFFFFFFFFFFFFFFFFF AND DUP2 MSTORE POP CALLVALUE DUP1 ISZERO PUSH1 0x41 JUMPI PUSH0 DUP1 REVERT JUMPDEST POP PUSH1 0x80 MLOAD PUSH2 0x28E2 PUSH2 0x76 PUSH0 CODECOPY PUSH0 DUP2 DUP2 PUSH2 0x612 ADD MSTORE DUP2 DUP2 PUSH2 0x6A0 ADD MSTORE DUP2 DUP2 PUSH2 0x980 ADD MSTORE DUP2 DUP2 PUSH2 0xA0E ADD MSTORE PUSH2 0xABD ADD MSTORE PUSH2 0x28E2 PUSH0 RETURN INVALID PUSH1 0x80 PUSH1 0x40 MSTORE PUSH1 0x4 CALLDATASIZE LT PUSH2 0xE7 JUMPI PUSH0 CALLDATALOAD PUSH1 0xE0 SHR DUP1 PUSH4 0x4F1EF286 GT PUSH2 0x89 JUMPI DUP1 PUSH4 0xA16D5960 GT PUSH2 0x58 JUMPI DUP1 PUSH4 0xA16D5960 EQ PUSH2 0x2C3 JUMPI DUP1 PUSH4 0xA217FDDF EQ PUSH2 0x2EB JUMPI DUP1 PUSH4 0xB88A802F EQ PUSH2 0x315 JUMPI DUP1 PUSH4 0xD547741F EQ PUSH2 0x32B JUMPI PUSH2 0xE7 JUMP JUMPDEST DUP1 PUSH4 0x4F1EF286 EQ PUSH2 0x219 JUMPI DUP1 PUSH4 0x52D1902D EQ PUSH2 0x235 JUMPI DUP1 PUSH4 0x91D14854 EQ PUSH2 0x25F JUMPI DUP1 PUSH4 0x9E5914DA EQ PUSH2 0x29B JUMPI PUSH2 0xE7 JUMP JUMPDEST DUP1 PUSH4 0x2F2FF15D GT PUSH2 0xC5 JUMPI DUP1 PUSH4 0x2F2FF15D EQ PUSH2 0x179 JUMPI DUP1 PUSH4 0x36568ABE EQ PUSH2 0x1A1 JUMPI DUP1 PUSH4 0x3659CFE6 EQ PUSH2 0x1C9 JUMPI DUP1 PUSH4 0x485CC955 EQ PUSH2 0x1F1 JUMPI PUSH2 0xE7 JUMP JUMPDEST DUP1 PUSH4 0x1FFC9A7 EQ PUSH2 0xEB JUMPI DUP1 PUSH4 0xCDB43C4 EQ PUSH2 0x127 JUMPI DUP1 PUSH4 0x248A9CA3 EQ PUSH2 0x13D JUMPI JUMPDEST PUSH0 DUP1 REVERT JUMPDEST CALLVALUE DUP1 ISZERO PUSH2 0xF6 JUMPI PUSH0 DUP1 REVERT JUMPDEST POP PUSH2 0x111 PUSH1 0x4 DUP1 CALLDATASIZE SUB DUP2 ADD SWAP1 PUSH2 0x10C SWAP2 SWAP1 PUSH2 0x1A24 JUMP JUMPDEST PUSH2 0x353 JUMP JUMPDEST PUSH1 0x40 MLOAD PUSH2 0x11E SWAP2 SWAP1 PUSH2 0x1A69 JUMP JUMPDEST PUSH1 0x40 MLOAD DUP1 SWAP2 SUB SWAP1 RETURN JUMPDEST CALLVALUE DUP1 ISZERO PUSH2 0x132 JUMPI PUSH0 DUP1 REVERT JUMPDEST POP PUSH2 0x13B PUSH2 0x3CC JUMP JUMPDEST STOP JUMPDEST CALLVALUE DUP1 ISZERO PUSH2 0x148 JUMPI PUSH0 DUP1 REVERT JUMPDEST POP PUSH2 0x163 PUSH1 0x4 DUP1 CALLDATASIZE SUB DUP2 ADD SWAP1 PUSH2 0x15E SWAP2 SWAP1 PUSH2 0x1AB5 JUMP JUMPDEST PUSH2 0x54F JUMP JUMPDEST PUSH1 0x40 MLOAD PUSH2 0x170 SWAP2 SWAP1 PUSH2 0x1AEF JUMP JUMPDEST PUSH1 0x40 MLOAD DUP1 SWAP2 SUB SWAP1 RETURN JUMPDEST CALLVALUE DUP1 ISZERO PUSH2 0x184 JUMPI PUSH0 DUP1 REVERT JUMPDEST POP PUSH2 0x19F PUSH1 0x4 DUP1 CALLDATASIZE SUB DUP2 ADD SWAP1 PUSH2 0x19A SWAP2 SWAP1 PUSH2 0x1B62 JUMP JUMPDEST PUSH2 0x56C JUMP JUMPDEST STOP JUMPDEST CALLVALUE DUP1 ISZERO PUSH2 0x1AC JUMPI PUSH0 DUP1 REVERT JUMPDEST POP PUSH2 0x1C7 PUSH1 0x4 DUP1 CALLDATASIZE SUB DUP2 ADD SWAP1 PUSH2 0x1C2 SWAP2 SWAP1 PUSH2 0x1B62 JUMP JUMPDEST PUSH2 0x58D JUMP JUMPDEST STOP JUMPDEST CALLVALUE DUP1 ISZERO PUSH2 0x1D4 JUMPI PUSH0 DUP1 REVERT JUMPDEST POP PUSH2 0x1EF PUSH1 0x4 DUP1 CALLDATASIZE SUB DUP2 ADD SWAP1 PUSH2 0x1EA SWAP2 SWAP1 PUSH2 0x1BA0 JUMP JUMPDEST PUSH2 0x610 JUMP JUMPDEST STOP JUMPDEST CALLVALUE DUP1 ISZERO PUSH2 0x1FC JUMPI PUSH0 DUP1 REVERT JUMPDEST POP PUSH2 0x217 PUSH1 0x4 DUP1 CALLDATASIZE SUB DUP2 ADD SWAP1 PUSH2 0x212 SWAP2 SWAP1 PUSH2 0x1BCB JUMP JUMPDEST PUSH2 0x796 JUMP JUMPDEST STOP JUMPDEST PUSH2 0x233 PUSH1 0x4 DUP1 CALLDATASIZE SUB DUP2 ADD SWAP1 PUSH2 0x22E SWAP2 SWAP1 PUSH2 0x1D45 JUMP JUMPDEST PUSH2 0x97E JUMP JUMPDEST STOP JUMPDEST CALLVALUE DUP1 ISZERO PUSH2 0x240 JUMPI PUSH0 DUP1 REVERT JUMPDEST POP PUSH2 0x249 PUSH2 0xABA JUMP JUMPDEST PUSH1 0x40 MLOAD PUSH2 0x256 SWAP2 SWAP1 PUSH2 0x1AEF JUMP JUMPDEST PUSH1 0x40 MLOAD DUP1 SWAP2 SUB SWAP1 RETURN JUMPDEST CALLVALUE DUP1 ISZERO PUSH2 0x26A JUMPI PUSH0 DUP1 REVERT JUMPDEST POP PUSH2 0x285 PUSH1 0x4 DUP1 CALLDATASIZE SUB DUP2 ADD SWAP1 PUSH2 0x280 SWAP2 SWAP1 PUSH2 0x1B62 JUMP JUMPDEST PUSH2 0xB71 JUMP JUMPDEST PUSH1 0x40 MLOAD PUSH2 0x292 SWAP2 SWAP1 PUSH2 0x1A69 JUMP JUMPDEST PUSH1 0x40 MLOAD DUP1 SWAP2 SUB SWAP1 RETURN JUMPDEST CALLVALUE DUP1 ISZERO PUSH2 0x2A6 JUMPI PUSH0 DUP1 REVERT JUMPDEST POP PUSH2 0x2C1 PUSH1 0x4 DUP1 CALLDATASIZE SUB DUP2 ADD SWAP1 PUSH2 0x2BC SWAP2 SWAP1 PUSH2 0x1BA0 JUMP JUMPDEST PUSH2 0xBD5 JUMP JUMPDEST STOP JUMPDEST CALLVALUE DUP1 ISZERO PUSH2 0x2CE JUMPI PUSH0 DUP1 REVERT JUMPDEST POP PUSH2 0x2E9 PUSH1 0x4 DUP1 CALLDATASIZE SUB DUP2 ADD SWAP1 PUSH2 0x2E4 SWAP2 SWAP1 PUSH2 0x1BA0 JUMP JUMPDEST PUSH2 0xC25 JUMP JUMPDEST STOP JUMPDEST CALLVALUE DUP1 ISZERO PUSH2 0x2F6 JUMPI PUSH0 DUP1 REVERT JUMPDEST POP PUSH2 0x2FF PUSH2 0xCF8 JUMP JUMPDEST PUSH1 0x40 MLOAD PUSH2 0x30C SWAP2 SWAP1 PUSH2 0x1AEF JUMP JUMPDEST PUSH1 0x40 MLOAD DUP1 SWAP2 SUB SWAP1 RETURN JUMPDEST CALLVALUE DUP1 ISZERO PUSH2 0x320 JUMPI PUSH0 DUP1 REVERT JUMPDEST POP PUSH2 0x329 PUSH2 0xCFE JUMP JUMPDEST STOP JUMPDEST CALLVALUE DUP1 ISZERO PUSH2 0x336 JUMPI PUSH0 DUP1 REVERT JUMPDEST POP PUSH2 0x351 PUSH1 0x4 DUP1 CALLDATASIZE SUB DUP2 ADD SWAP1 PUSH2 0x34C SWAP2 SWAP1 PUSH2 0x1B62 JUMP JUMPDEST PUSH2 0xE77 JUMP JUMPDEST STOP JUMPDEST PUSH0 PUSH32 0x7965DB0B00000000000000000000000000000000000000000000000000000000 PUSH28 0xFFFFFFFFFFFFFFFFFFFFFFFFFFFFFFFFFFFFFFFFFFFFFFFFFFFFFFFF NOT AND DUP3 PUSH28 0xFFFFFFFFFFFFFFFFFFFFFFFFFFFFFFFFFFFFFFFFFFFFFFFFFFFFFFFF NOT AND EQ DUP1 PUSH2 0x3C5 JUMPI POP PUSH2 0x3C4 DUP3 PUSH2 0xE98 JUMP JUMPDEST JUMPDEST SWAP1 POP SWAP2 SWAP1 POP JUMP JUMPDEST PUSH0 DUP1 SHL PUSH2 0x3D8 DUP2 PUSH2 0xF01 JUMP JUMPDEST PUSH0 DUP1 PUSH1 0xFC PUSH0 SWAP1 SLOAD SWAP1 PUSH2 0x100 EXP SWAP1 DIV PUSH20 0xFFFFFFFFFFFFFFFFFFFFFFFFFFFFFFFFFFFFFFFF AND PUSH20 0xFFFFFFFFFFFFFFFFFFFFFFFFFFFFFFFFFFFFFFFF AND PUSH4 0xBE42E1FC PUSH1 0x40 MLOAD DUP2 PUSH4 0xFFFFFFFF AND PUSH1 0xE0 SHL DUP2 MSTORE PUSH1 0x4 ADD PUSH1 0x20 PUSH1 0x40 MLOAD DUP1 DUP4 SUB DUP2 DUP7 GAS STATICCALL ISZERO DUP1 ISZERO PUSH2 0x444 JUMPI RETURNDATASIZE PUSH0 DUP1 RETURNDATACOPY RETURNDATASIZE PUSH0 REVERT JUMPDEST POP POP POP POP PUSH1 0x40 MLOAD RETURNDATASIZE PUSH1 0x1F NOT PUSH1 0x1F DUP3 ADD AND DUP3 ADD DUP1 PUSH1 0x40 MSTORE POP DUP2 ADD SWAP1 PUSH2 0x468 SWAP2 SWAP1 PUSH2 0x1DD2 JUMP JUMPDEST SWAP1 POP PUSH0 DUP2 GT PUSH2 0x4AC JUMPI PUSH1 0x40 MLOAD PUSH32 0x8C379A000000000000000000000000000000000000000000000000000000000 DUP2 MSTORE PUSH1 0x4 ADD PUSH2 0x4A3 SWAP1 PUSH2 0x1E57 JUMP JUMPDEST PUSH1 0x40 MLOAD DUP1 SWAP2 SUB SWAP1 REVERT JUMPDEST PUSH1 0xFC PUSH0 SWAP1 SLOAD SWAP1 PUSH2 0x100 EXP SWAP1 DIV PUSH20 0xFFFFFFFFFFFFFFFFFFFFFFFFFFFFFFFFFFFFFFFF AND PUSH20 0xFFFFFFFFFFFFFFFFFFFFFFFFFFFFFFFFFFFFFFFF AND PUSH4 0x3CCFD60B PUSH1 0x40 MLOAD DUP2 PUSH4 0xFFFFFFFF AND PUSH1 0xE0 SHL DUP2 MSTORE PUSH1 0x4 ADD PUSH0 PUSH1 0x40 MLOAD DUP1 DUP4 SUB DUP2 PUSH0 DUP8 DUP1 EXTCODESIZE ISZERO DUP1 ISZERO PUSH2 0x512 JUMPI PUSH0 DUP1 REVERT JUMPDEST POP GAS CALL ISZERO DUP1 ISZERO PUSH2 0x524 JUMPI RETURNDATASIZE PUSH0 DUP1 RETURNDATACOPY RETURNDATASIZE PUSH0 REVERT JUMPDEST POP POP POP POP PUSH2 0x531 DUP2 PUSH2 0xF15 JUMP JUMPDEST SWAP2 POP DUP2 DUP2 PUSH2 0x53F SWAP2 SWAP1 PUSH2 0x1EA2 JUMP JUMPDEST SWAP1 POP PUSH2 0x54A DUP2 PUSH2 0xFD2 JUMP JUMPDEST POP POP POP JUMP JUMPDEST PUSH0 PUSH1 0xC9 PUSH0 DUP4 DUP2 MSTORE PUSH1 0x20 ADD SWAP1 DUP2 MSTORE PUSH1 0x20 ADD PUSH0 KECCAK256 PUSH1 0x1 ADD SLOAD SWAP1 POP SWAP2 SWAP1 POP JUMP JUMPDEST PUSH2 0x575 DUP3 PUSH2 0x54F JUMP JUMPDEST PUSH2 0x57E DUP2 PUSH2 0xF01 JUMP JUMPDEST PUSH2 0x588 DUP4 DUP4 PUSH2 0x103C JUMP JUMPDEST POP POP POP JUMP JUMPDEST PUSH2 0x595 PUSH2 0x1117 JUMP JUMPDEST PUSH20 0xFFFFFFFFFFFFFFFFFFFFFFFFFFFFFFFFFFFFFFFF AND DUP2 PUSH20 0xFFFFFFFFFFFFFFFFFFFFFFFFFFFFFFFFFFFFFFFF AND EQ PUSH2 0x602 JUMPI PUSH1 0x40 MLOAD PUSH32 0x8C379A000000000000000000000000000000000000000000000000000000000 DUP2 MSTORE PUSH1 0x4 ADD PUSH2 0x5F9 SWAP1 PUSH2 0x1F45 JUMP JUMPDEST PUSH1 0x40 MLOAD DUP1 SWAP2 SUB SWAP1 REVERT JUMPDEST PUSH2 0x60C DUP3 DUP3 PUSH2 0x111E JUMP JUMPDEST POP POP JUMP JUMPDEST PUSH32 0x0 PUSH20 0xFFFFFFFFFFFFFFFFFFFFFFFFFFFFFFFFFFFFFFFF AND ADDRESS PUSH20 0xFFFFFFFFFFFFFFFFFFFFFFFFFFFFFFFFFFFFFFFF AND SUB PUSH2 0x69E JUMPI PUSH1 0x40 MLOAD PUSH32 0x8C379A000000000000000000000000000000000000000000000000000000000 DUP2 MSTORE PUSH1 0x4 ADD PUSH2 0x695 SWAP1 PUSH2 0x1FD3 JUMP JUMPDEST PUSH1 0x40 MLOAD DUP1 SWAP2 SUB SWAP1 REVERT JUMPDEST PUSH32 0x0 PUSH20 0xFFFFFFFFFFFFFFFFFFFFFFFFFFFFFFFFFFFFFFFF AND PUSH2 0x6DD PUSH2 0x11F9 JUMP JUMPDEST PUSH20 0xFFFFFFFFFFFFFFFFFFFFFFFFFFFFFFFFFFFFFFFF AND EQ PUSH2 0x733 JUMPI PUSH1 0x40 MLOAD PUSH32 0x8C379A000000000000000000000000000000000000000000000000000000000 DUP2 MSTORE PUSH1 0x4 ADD PUSH2 0x72A SWAP1 PUSH2 0x2061 JUMP JUMPDEST PUSH1 0x40 MLOAD DUP1 SWAP2 SUB SWAP1 REVERT JUMPDEST PUSH2 0x73C DUP2 PUSH2 0x124C JUMP JUMPDEST PUSH2 0x793 DUP2 PUSH0 PUSH8 0xFFFFFFFFFFFFFFFF DUP2 GT ISZERO PUSH2 0x75A JUMPI PUSH2 0x759 PUSH2 0x1C21 JUMP JUMPDEST JUMPDEST PUSH1 0x40 MLOAD SWAP1 DUP1 DUP3 MSTORE DUP1 PUSH1 0x1F ADD PUSH1 0x1F NOT AND PUSH1 0x20 ADD DUP3 ADD PUSH1 0x40 MSTORE DUP1 ISZERO PUSH2 0x78C JUMPI DUP2 PUSH1 0x20 ADD PUSH1 0x1 DUP3 MUL DUP1 CALLDATASIZE DUP4 CALLDATACOPY DUP1 DUP3 ADD SWAP2 POP POP SWAP1 POP JUMPDEST POP PUSH0 PUSH2 0x125C JUMP JUMPDEST POP JUMP JUMPDEST PUSH0 DUP1 PUSH1 0x1 SWAP1 SLOAD SWAP1 PUSH2 0x100 EXP SWAP1 DIV PUSH1 0xFF AND ISZERO SWAP1 POP DUP1 DUP1 ISZERO PUSH2 0x7C5 JUMPI POP PUSH1 0x1 PUSH0 DUP1 SLOAD SWAP1 PUSH2 0x100 EXP SWAP1 DIV PUSH1 0xFF AND PUSH1 0xFF AND LT JUMPDEST DUP1 PUSH2 0x7F1 JUMPI POP PUSH2 0x7D4 ADDRESS PUSH2 0x13C6 JUMP JUMPDEST ISZERO DUP1 ISZERO PUSH2 0x7F0 JUMPI POP PUSH1 0x1 PUSH0 DUP1 SLOAD SWAP1 PUSH2 0x100 EXP SWAP1 DIV PUSH1 0xFF AND PUSH1 0xFF AND EQ JUMPDEST JUMPDEST PUSH2 0x830 JUMPI PUSH1 0x40 MLOAD PUSH32 0x8C379A000000000000000000000000000000000000000000000000000000000 DUP2 MSTORE PUSH1 0x4 ADD PUSH2 0x827 SWAP1 PUSH2 0x20EF JUMP JUMPDEST PUSH1 0x40 MLOAD DUP1 SWAP2 SUB SWAP1 REVERT JUMPDEST PUSH1 0x1 PUSH0 DUP1 PUSH2 0x100 EXP DUP2 SLOAD DUP2 PUSH1 0xFF MUL NOT AND SWAP1 DUP4 PUSH1 0xFF AND MUL OR SWAP1 SSTORE POP DUP1 ISZERO PUSH2 0x86B JUMPI PUSH1 0x1 PUSH0 PUSH1 0x1 PUSH2 0x100 EXP DUP2 SLOAD DUP2 PUSH1 0xFF MUL NOT AND SWAP1 DUP4 ISZERO ISZERO MUL OR SWAP1 SSTORE POP JUMPDEST PUSH2 0x877 PUSH0 DUP1 SHL DUP4 PUSH2 0x13E8 JUMP JUMPDEST DUP3 PUSH1 0xFF PUSH0 PUSH2 0x100 EXP DUP2 SLOAD DUP2 PUSH20 0xFFFFFFFFFFFFFFFFFFFFFFFFFFFFFFFFFFFFFFFF MUL NOT AND SWAP1 DUP4 PUSH20 0xFFFFFFFFFFFFFFFFFFFFFFFFFFFFFFFFFFFFFFFF AND MUL OR SWAP1 SSTORE POP PUSH1 0x1 PUSH1 0xFC PUSH1 0x14 PUSH2 0x100 EXP DUP2 SLOAD DUP2 PUSH1 0xFF MUL NOT AND SWAP1 DUP4 PUSH1 0xFF AND MUL OR SWAP1 SSTORE POP PUSH1 0x2 PUSH1 0xFC PUSH1 0x15 PUSH2 0x100 EXP DUP2 SLOAD DUP2 PUSH1 0xFF MUL NOT AND SWAP1 DUP4 PUSH1 0xFF AND MUL OR SWAP1 SSTORE POP PUSH1 0x3 PUSH1 0xFC PUSH1 0x16 PUSH2 0x100 EXP DUP2 SLOAD DUP2 PUSH1 0xFF MUL NOT AND SWAP1 DUP4 PUSH1 0xFF AND MUL OR SWAP1 SSTORE POP PUSH4 0x1DCD6500 PUSH1 0xFD DUP2 SWAP1 SSTORE POP PUSH4 0x3B9ACA00 PUSH1 0xFE DUP2 SWAP1 SSTORE POP DUP1 ISZERO PUSH2 0x979 JUMPI PUSH0 DUP1 PUSH1 0x1 PUSH2 0x100 EXP DUP2 SLOAD DUP2 PUSH1 0xFF MUL NOT AND SWAP1 DUP4 ISZERO ISZERO MUL OR SWAP1 SSTORE POP PUSH32 0x7F26B83FF96E1F2B6A682F133852F6798A09C465DA95921460CEFB3847402498 PUSH1 0x1 PUSH1 0x40 MLOAD PUSH2 0x970 SWAP2 SWAP1 PUSH2 0x215B JUMP JUMPDEST PUSH1 0x40 MLOAD DUP1 SWAP2 SUB SWAP1 LOG1 JUMPDEST POP POP POP JUMP JUMPDEST PUSH32 0x0 PUSH20 0xFFFFFFFFFFFFFFFFFFFFFFFFFFFFFFFFFFFFFFFF AND ADDRESS PUSH20 0xFFFFFFFFFFFFFFFFFFFFFFFFFFFFFFFFFFFFFFFF AND SUB PUSH2 0xA0C JUMPI PUSH1 0x40 MLOAD PUSH32 0x8C379A000000000000000000000000000000000000000000000000000000000 DUP2 MSTORE PUSH1 0x4 ADD PUSH2 0xA03 SWAP1 PUSH2 0x1FD3 JUMP JUMPDEST PUSH1 0x40 MLOAD DUP1 SWAP2 SUB SWAP1 REVERT JUMPDEST PUSH32 0x0 PUSH20 0xFFFFFFFFFFFFFFFFFFFFFFFFFFFFFFFFFFFFFFFF AND PUSH2 0xA4B PUSH2 0x11F9 JUMP JUMPDEST PUSH20 0xFFFFFFFFFFFFFFFFFFFFFFFFFFFFFFFFFFFFFFFF AND EQ PUSH2 0xAA1 JUMPI PUSH1 0x40 MLOAD PUSH32 0x8C379A000000000000000000000000000000000000000000000000000000000 DUP2 MSTORE PUSH1 0x4 ADD PUSH2 0xA98 SWAP1 PUSH2 0x2061 JUMP JUMPDEST PUSH1 0x40 MLOAD DUP1 SWAP2 SUB SWAP1 REVERT JUMPDEST PUSH2 0xAAA DUP3 PUSH2 0x124C JUMP JUMPDEST PUSH2 0xAB6 DUP3 DUP3 PUSH1 0x1 PUSH2 0x125C JUMP JUMPDEST POP POP JUMP JUMPDEST PUSH0 PUSH32 0x0 PUSH20 0xFFFFFFFFFFFFFFFFFFFFFFFFFFFFFFFFFFFFFFFF AND ADDRESS PUSH20 0xFFFFFFFFFFFFFFFFFFFFFFFFFFFFFFFFFFFFFFFF AND EQ PUSH2 0xB49 JUMPI PUSH1 0x40 MLOAD PUSH32 0x8C379A000000000000000000000000000000000000000000000000000000000 DUP2 MSTORE PUSH1 0x4 ADD PUSH2 0xB40 SWAP1 PUSH2 0x21E4 JUMP JUMPDEST PUSH1 0x40 MLOAD DUP1 SWAP2 SUB SWAP1 REVERT JUMPDEST PUSH32 0x360894A13BA1A3210667C828492DB98DCA3E2076CC3735A920A3CA505D382BBC PUSH0 SHL SWAP1 POP SWAP1 JUMP JUMPDEST PUSH0 PUSH1 0xC9 PUSH0 DUP5 DUP2 MSTORE PUSH1 0x20 ADD SWAP1 DUP2 MSTORE PUSH1 0x20 ADD PUSH0 KECCAK256 PUSH0 ADD PUSH0 DUP4 PUSH20 0xFFFFFFFFFFFFFFFFFFFFFFFFFFFFFFFFFFFFFFFF AND PUSH20 0xFFFFFFFFFFFFFFFFFFFFFFFFFFFFFFFFFFFFFFFF AND DUP2 MSTORE PUSH1 0x20 ADD SWAP1 DUP2 MSTORE PUSH1 0x20 ADD PUSH0 KECCAK256 PUSH0 SWAP1 SLOAD SWAP1 PUSH2 0x100 EXP SWAP1 DIV PUSH1 0xFF AND SWAP1 POP SWAP3 SWAP2 POP POP JUMP JUMPDEST PUSH0 DUP1 SHL PUSH2 0xBE1 DUP2 PUSH2 0xF01 JUMP JUMPDEST DUP2 PUSH1 0xFC PUSH0 PUSH2 0x100 EXP DUP2 SLOAD DUP2 PUSH20 0xFFFFFFFFFFFFFFFFFFFFFFFFFFFFFFFFFFFFFFFF MUL NOT AND SWAP1 DUP4 PUSH20 0xFFFFFFFFFFFFFFFFFFFFFFFFFFFFFFFFFFFFFFFF AND MUL OR SWAP1 SSTORE POP POP POP JUMP JUMPDEST PUSH0 DUP1 SHL PUSH2 0xC31 DUP2 PUSH2 0xF01 JUMP JUMPDEST PUSH2 0xC39 PUSH2 0x1990 JUMP JUMPDEST DUP3 DUP2 PUSH0 ADD SWAP1 PUSH20 0xFFFFFFFFFFFFFFFFFFFFFFFFFFFFFFFFFFFFFFFF AND SWAP1 DUP2 PUSH20 0xFFFFFFFFFFFFFFFFFFFFFFFFFFFFFFFFFFFFFFFF AND DUP2 MSTORE POP POP PUSH0 DUP2 PUSH1 0x20 ADD DUP2 DUP2 MSTORE POP POP PUSH1 0xFB DUP2 SWAP1 DUP1 PUSH1 0x1 DUP2 SLOAD ADD DUP1 DUP3 SSTORE DUP1 SWAP2 POP POP PUSH1 0x1 SWAP1 SUB SWAP1 PUSH0 MSTORE PUSH1 0x20 PUSH0 KECCAK256 SWAP1 PUSH1 0x2 MUL ADD PUSH0 SWAP1 SWAP2 SWAP1 SWAP2 SWAP1 SWAP2 POP PUSH0 DUP3 ADD MLOAD DUP2 PUSH0 ADD PUSH0 PUSH2 0x100 EXP DUP2 SLOAD DUP2 PUSH20 0xFFFFFFFFFFFFFFFFFFFFFFFFFFFFFFFFFFFFFFFF MUL NOT AND SWAP1 DUP4 PUSH20 0xFFFFFFFFFFFFFFFFFFFFFFFFFFFFFFFFFFFFFFFF AND MUL OR SWAP1 SSTORE POP PUSH1 0x20 DUP3 ADD MLOAD DUP2 PUSH1 0x1 ADD SSTORE POP POP POP POP POP JUMP JUMPDEST PUSH0 DUP1 SHL DUP2 JUMP JUMPDEST PUSH0 DUP1 SHL PUSH2 0xD0A DUP2 PUSH2 0xF01 JUMP JUMPDEST PUSH0 JUMPDEST PUSH1 0xFB DUP1 SLOAD SWAP1 POP DUP2 PUSH4 0xFFFFFFFF AND LT ISZERO PUSH2 0xE73 JUMPI PUSH1 0xFB DUP2 PUSH4 0xFFFFFFFF AND DUP2 SLOAD DUP2 LT PUSH2 0xD39 JUMPI PUSH2 0xD38 PUSH2 0x2202 JUMP JUMPDEST JUMPDEST SWAP1 PUSH0 MSTORE PUSH1 0x20 PUSH0 KECCAK256 SWAP1 PUSH1 0x2 MUL ADD PUSH0 ADD PUSH0 SWAP1 SLOAD SWAP1 PUSH2 0x100 EXP SWAP1 DIV PUSH20 0xFFFFFFFFFFFFFFFFFFFFFFFFFFFFFFFFFFFFFFFF AND PUSH20 0xFFFFFFFFFFFFFFFFFFFFFFFFFFFFFFFFFFFFFFFF AND CALLER PUSH20 0xFFFFFFFFFFFFFFFFFFFFFFFFFFFFFFFFFFFFFFFF AND SUB PUSH2 0xE60 JUMPI PUSH1 0xFF PUSH0 SWAP1 SLOAD SWAP1 PUSH2 0x100 EXP SWAP1 DIV PUSH20 0xFFFFFFFFFFFFFFFFFFFFFFFFFFFFFFFFFFFFFFFF AND PUSH20 0xFFFFFFFFFFFFFFFFFFFFFFFFFFFFFFFFFFFFFFFF AND PUSH4 0xA9059CBB CALLER PUSH1 0xFB DUP5 PUSH4 0xFFFFFFFF AND DUP2 SLOAD DUP2 LT PUSH2 0xDF1 JUMPI PUSH2 0xDF0 PUSH2 0x2202 JUMP JUMPDEST JUMPDEST SWAP1 PUSH0 MSTORE PUSH1 0x20 PUSH0 KECCAK256 SWAP1 PUSH1 0x2 MUL ADD PUSH1 0x1 ADD SLOAD PUSH1 0x40 MLOAD DUP4 PUSH4 0xFFFFFFFF AND PUSH1 0xE0 SHL DUP2 MSTORE PUSH1 0x4 ADD PUSH2 0xE1E SWAP3 SWAP2 SWAP1 PUSH2 0x224D JUMP JUMPDEST PUSH1 0x20 PUSH1 0x40 MLOAD DUP1 DUP4 SUB DUP2 PUSH0 DUP8 GAS CALL ISZERO DUP1 ISZERO PUSH2 0xE3A JUMPI RETURNDATASIZE PUSH0 DUP1 RETURNDATACOPY RETURNDATASIZE PUSH0 REVERT JUMPDEST POP POP POP POP PUSH1 0x40 MLOAD RETURNDATASIZE PUSH1 0x1F NOT PUSH1 0x1F DUP3 ADD AND DUP3 ADD DUP1 PUSH1 0x40 MSTORE POP DUP2 ADD SWAP1 PUSH2 0xE5E SWAP2 SWAP1 PUSH2 0x229E JUMP JUMPDEST POP JUMPDEST DUP1 DUP1 PUSH2 0xE6B SWAP1 PUSH2 0x22D8 JUMP JUMPDEST SWAP2 POP POP PUSH2 0xD0C JUMP JUMPDEST POP POP JUMP JUMPDEST PUSH2 0xE80 DUP3 PUSH2 0x54F JUMP JUMPDEST PUSH2 0xE89 DUP2 PUSH2 0xF01 JUMP JUMPDEST PUSH2 0xE93 DUP4 DUP4 PUSH2 0x111E JUMP JUMPDEST POP POP POP JUMP JUMPDEST PUSH0 PUSH32 0x1FFC9A700000000000000000000000000000000000000000000000000000000 PUSH28 0xFFFFFFFFFFFFFFFFFFFFFFFFFFFFFFFFFFFFFFFFFFFFFFFFFFFFFFFF NOT AND DUP3 PUSH28 0xFFFFFFFFFFFFFFFFFFFFFFFFFFFFFFFFFFFFFFFFFFFFFFFFFFFFFFFF NOT AND EQ SWAP1 POP SWAP2 SWAP1 POP JUMP JUMPDEST PUSH2 0xF12 DUP2 PUSH2 0xF0D PUSH2 0x1117 JUMP JUMPDEST PUSH2 0x13F6 JUMP JUMPDEST POP JUMP JUMPDEST PUSH0 DUP1 PUSH1 0xFD SLOAD DUP4 LT ISZERO PUSH2 0xF4E JUMPI PUSH1 0x64 PUSH1 0xFC PUSH1 0x14 SWAP1 SLOAD SWAP1 PUSH2 0x100 EXP SWAP1 DIV PUSH1 0xFF AND PUSH1 0xFF AND DUP5 PUSH2 0xF41 SWAP2 SWAP1 PUSH2 0x2303 JUMP JUMPDEST PUSH2 0xF4B SWAP2 SWAP1 PUSH2 0x2371 JUMP JUMPDEST SWAP1 POP JUMPDEST DUP3 PUSH1 0xFD SLOAD GT ISZERO DUP1 ISZERO PUSH2 0xF61 JUMPI POP PUSH1 0xFE SLOAD DUP4 LT JUMPDEST ISZERO PUSH2 0xF93 JUMPI PUSH1 0x64 PUSH1 0xFC PUSH1 0x15 SWAP1 SLOAD SWAP1 PUSH2 0x100 EXP SWAP1 DIV PUSH1 0xFF AND PUSH1 0xFF AND DUP5 PUSH2 0xF86 SWAP2 SWAP1 PUSH2 0x2303 JUMP JUMPDEST PUSH2 0xF90 SWAP2 SWAP1 PUSH2 0x2371 JUMP JUMPDEST SWAP1 POP JUMPDEST PUSH1 0xFE SLOAD DUP4 LT PUSH2 0xFC9 JUMPI PUSH1 0x64 PUSH1 0xFC PUSH1 0x16 SWAP1 SLOAD SWAP1 PUSH2 0x100 EXP SWAP1 DIV PUSH1 0xFF AND PUSH1 0xFF AND DUP5 PUSH2 0xFBC SWAP2 SWAP1 PUSH2 0x2303 JUMP JUMPDEST PUSH2 0xFC6 SWAP2 SWAP1 PUSH2 0x2371 JUMP JUMPDEST SWAP1 POP JUMPDEST DUP1 SWAP2 POP POP SWAP2 SWAP1 POP JUMP JUMPDEST PUSH0 JUMPDEST PUSH1 0xFB DUP1 SLOAD SWAP1 POP DUP2 PUSH4 0xFFFFFFFF AND LT ISZERO PUSH2 0x1038 JUMPI PUSH1 0xFB DUP1 SLOAD SWAP1 POP DUP3 PUSH2 0xFF8 SWAP2 SWAP1 PUSH2 0x2371 JUMP JUMPDEST PUSH1 0xFB DUP3 PUSH4 0xFFFFFFFF AND DUP2 SLOAD DUP2 LT PUSH2 0x1012 JUMPI PUSH2 0x1011 PUSH2 0x2202 JUMP JUMPDEST JUMPDEST SWAP1 PUSH0 MSTORE PUSH1 0x20 PUSH0 KECCAK256 SWAP1 PUSH1 0x2 MUL ADD PUSH1 0x1 ADD DUP2 SWAP1 SSTORE POP DUP1 DUP1 PUSH2 0x1030 SWAP1 PUSH2 0x22D8 JUMP JUMPDEST SWAP2 POP POP PUSH2 0xFD4 JUMP JUMPDEST POP POP JUMP JUMPDEST PUSH2 0x1046 DUP3 DUP3 PUSH2 0xB71 JUMP JUMPDEST PUSH2 0x1113 JUMPI PUSH1 0x1 PUSH1 0xC9 PUSH0 DUP5 DUP2 MSTORE PUSH1 0x20 ADD SWAP1 DUP2 MSTORE PUSH1 0x20 ADD PUSH0 KECCAK256 PUSH0 ADD PUSH0 DUP4 PUSH20 0xFFFFFFFFFFFFFFFFFFFFFFFFFFFFFFFFFFFFFFFF AND PUSH20 0xFFFFFFFFFFFFFFFFFFFFFFFFFFFFFFFFFFFFFFFF AND DUP2 MSTORE PUSH1 0x20 ADD SWAP1 DUP2 MSTORE PUSH1 0x20 ADD PUSH0 KECCAK256 PUSH0 PUSH2 0x100 EXP DUP2 SLOAD DUP2 PUSH1 0xFF MUL NOT AND SWAP1 DUP4 ISZERO ISZERO MUL OR SWAP1 SSTORE POP PUSH2 0x10B8 PUSH2 0x1117 JUMP JUMPDEST PUSH20 0xFFFFFFFFFFFFFFFFFFFFFFFFFFFFFFFFFFFFFFFF AND DUP2 PUSH20 0xFFFFFFFFFFFFFFFFFFFFFFFFFFFFFFFFFFFFFFFF AND DUP4 PUSH32 0x2F8788117E7EFF1D82E926EC794901D17C78024A50270940304540A733656F0D PUSH1 0x40 MLOAD PUSH1 0x40 MLOAD DUP1 SWAP2 SUB SWAP1 LOG4 JUMPDEST POP POP JUMP JUMPDEST PUSH0 CALLER SWAP1 POP SWAP1 JUMP JUMPDEST PUSH2 0x1128 DUP3 DUP3 PUSH2 0xB71 JUMP JUMPDEST ISZERO PUSH2 0x11F5 JUMPI PUSH0 PUSH1 0xC9 PUSH0 DUP5 DUP2 MSTORE PUSH1 0x20 ADD SWAP1 DUP2 MSTORE PUSH1 0x20 ADD PUSH0 KECCAK256 PUSH0 ADD PUSH0 DUP4 PUSH20 0xFFFFFFFFFFFFFFFFFFFFFFFFFFFFFFFFFFFFFFFF AND PUSH20 0xFFFFFFFFFFFFFFFFFFFFFFFFFFFFFFFFFFFFFFFF AND DUP2 MSTORE PUSH1 0x20 ADD SWAP1 DUP2 MSTORE PUSH1 0x20 ADD PUSH0 KECCAK256 PUSH0 PUSH2 0x100 EXP DUP2 SLOAD DUP2 PUSH1 0xFF MUL NOT AND SWAP1 DUP4 ISZERO ISZERO MUL OR SWAP1 SSTORE POP PUSH2 0x119A PUSH2 0x1117 JUMP JUMPDEST PUSH20 0xFFFFFFFFFFFFFFFFFFFFFFFFFFFFFFFFFFFFFFFF AND DUP2 PUSH20 0xFFFFFFFFFFFFFFFFFFFFFFFFFFFFFFFFFFFFFFFF AND DUP4 PUSH32 0xF6391F5C32D9C69D2A47EA670B442974B53935D1EDC7FD64EB21E047A839171B PUSH1 0x40 MLOAD PUSH1 0x40 MLOAD DUP1 SWAP2 SUB SWAP1 LOG4 JUMPDEST POP POP JUMP JUMPDEST PUSH0 PUSH2 0x1225 PUSH32 0x360894A13BA1A3210667C828492DB98DCA3E2076CC3735A920A3CA505D382BBC PUSH0 SHL PUSH2 0x147A JUMP JUMPDEST PUSH0 ADD PUSH0 SWAP1 SLOAD SWAP1 PUSH2 0x100 EXP SWAP1 DIV PUSH20 0xFFFFFFFFFFFFFFFFFFFFFFFFFFFFFFFFFFFFFFFF AND SWAP1 POP SWAP1 JUMP JUMPDEST PUSH0 DUP1 SHL PUSH2 0x1258 DUP2 PUSH2 0xF01 JUMP JUMPDEST POP POP JUMP JUMPDEST PUSH2 0x1287 PUSH32 0x4910FDFA16FED3260ED0E7147F7CC6DA11A60208B5B9406D12A635614FFD9143 PUSH0 SHL PUSH2 0x1483 JUMP JUMPDEST PUSH0 ADD PUSH0 SWAP1 SLOAD SWAP1 PUSH2 0x100 EXP SWAP1 DIV PUSH1 0xFF AND ISZERO PUSH2 0x12A9 JUMPI PUSH2 0x12A4 DUP4 PUSH2 0x148C JUMP JUMPDEST PUSH2 0x13C1 JUMP JUMPDEST DUP3 PUSH20 0xFFFFFFFFFFFFFFFFFFFFFFFFFFFFFFFFFFFFFFFF AND PUSH4 0x52D1902D PUSH1 0x40 MLOAD DUP2 PUSH4 0xFFFFFFFF AND PUSH1 0xE0 SHL DUP2 MSTORE PUSH1 0x4 ADD PUSH1 0x20 PUSH1 0x40 MLOAD DUP1 DUP4 SUB DUP2 DUP7 GAS STATICCALL SWAP3 POP POP POP DUP1 ISZERO PUSH2 0x1311 JUMPI POP PUSH1 0x40 MLOAD RETURNDATASIZE PUSH1 0x1F NOT PUSH1 0x1F DUP3 ADD AND DUP3 ADD DUP1 PUSH1 0x40 MSTORE POP DUP2 ADD SWAP1 PUSH2 0x130E SWAP2 SWAP1 PUSH2 0x23B5 JUMP JUMPDEST PUSH1 0x1 JUMPDEST PUSH2 0x1350 JUMPI PUSH1 0x40 MLOAD PUSH32 0x8C379A000000000000000000000000000000000000000000000000000000000 DUP2 MSTORE PUSH1 0x4 ADD PUSH2 0x1347 SWAP1 PUSH2 0x2450 JUMP JUMPDEST PUSH1 0x40 MLOAD DUP1 SWAP2 SUB SWAP1 REVERT JUMPDEST PUSH32 0x360894A13BA1A3210667C828492DB98DCA3E2076CC3735A920A3CA505D382BBC PUSH0 SHL DUP2 EQ PUSH2 0x13B4 JUMPI PUSH1 0x40 MLOAD PUSH32 0x8C379A000000000000000000000000000000000000000000000000000000000 DUP2 MSTORE PUSH1 0x4 ADD PUSH2 0x13AB SWAP1 PUSH2 0x24DE JUMP JUMPDEST PUSH1 0x40 MLOAD DUP1 SWAP2 SUB SWAP1 REVERT JUMPDEST POP PUSH2 0x13C0 DUP4 DUP4 DUP4 PUSH2 0x1542 JUMP JUMPDEST JUMPDEST POP POP POP JUMP JUMPDEST PUSH0 DUP1 DUP3 PUSH20 0xFFFFFFFFFFFFFFFFFFFFFFFFFFFFFFFFFFFFFFFF AND EXTCODESIZE GT SWAP1 POP SWAP2 SWAP1 POP JUMP JUMPDEST PUSH2 0x13F2 DUP3 DUP3 PUSH2 0x103C JUMP JUMPDEST POP POP JUMP JUMPDEST PUSH2 0x1400 DUP3 DUP3 PUSH2 0xB71 JUMP JUMPDEST PUSH2 0x1476 JUMPI PUSH2 0x140D DUP2 PUSH2 0x156D JUMP JUMPDEST PUSH2 0x141A DUP4 PUSH0 SHR PUSH1 0x20 PUSH2 0x159A JUMP JUMPDEST PUSH1 0x40 MLOAD PUSH1 0x20 ADD PUSH2 0x142B SWAP3 SWAP2 SWAP1 PUSH2 0x25E2 JUMP JUMPDEST PUSH1 0x40 MLOAD PUSH1 0x20 DUP2 DUP4 SUB SUB DUP2 MSTORE SWAP1 PUSH1 0x40 MSTORE PUSH1 0x40 MLOAD PUSH32 0x8C379A000000000000000000000000000000000000000000000000000000000 DUP2 MSTORE PUSH1 0x4 ADD PUSH2 0x146D SWAP2 SWAP1 PUSH2 0x2653 JUMP JUMPDEST PUSH1 0x40 MLOAD DUP1 SWAP2 SUB SWAP1 REVERT JUMPDEST POP POP JUMP JUMPDEST PUSH0 DUP2 SWAP1 POP SWAP2 SWAP1 POP JUMP JUMPDEST PUSH0 DUP2 SWAP1 POP SWAP2 SWAP1 POP JUMP JUMPDEST PUSH2 0x1495 DUP2 PUSH2 0x13C6 JUMP JUMPDEST PUSH2 0x14D4 JUMPI PUSH1 0x40 MLOAD PUSH32 0x8C379A000000000000000000000000000000000000000000000000000000000 DUP2 MSTORE PUSH1 0x4 ADD PUSH2 0x14CB SWAP1 PUSH2 0x26E3 JUMP JUMPDEST PUSH1 0x40 MLOAD DUP1 SWAP2 SUB SWAP1 REVERT JUMPDEST DUP1 PUSH2 0x1500 PUSH32 0x360894A13BA1A3210667C828492DB98DCA3E2076CC3735A920A3CA505D382BBC PUSH0 SHL PUSH2 0x147A JUMP JUMPDEST PUSH0 ADD PUSH0 PUSH2 0x100 EXP DUP2 SLOAD DUP2 PUSH20 0xFFFFFFFFFFFFFFFFFFFFFFFFFFFFFFFFFFFFFFFF MUL NOT AND SWAP1 DUP4 PUSH20 0xFFFFFFFFFFFFFFFFFFFFFFFFFFFFFFFFFFFFFFFF AND MUL OR SWAP1 SSTORE POP POP JUMP JUMPDEST PUSH2 0x154B DUP4 PUSH2 0x17CF JUMP JUMPDEST PUSH0 DUP3 MLOAD GT DUP1 PUSH2 0x1557 JUMPI POP DUP1 JUMPDEST ISZERO PUSH2 0x1568 JUMPI PUSH2 0x1566 DUP4 DUP4 PUSH2 0x181E JUMP JUMPDEST POP JUMPDEST POP POP POP JUMP JUMPDEST PUSH1 0x60 PUSH2 0x1593 DUP3 PUSH20 0xFFFFFFFFFFFFFFFFFFFFFFFFFFFFFFFFFFFFFFFF AND PUSH1 0x14 PUSH1 0xFF AND PUSH2 0x159A JUMP JUMPDEST SWAP1 POP SWAP2 SWAP1 POP JUMP JUMPDEST PUSH1 0x60 PUSH0 PUSH1 0x2 DUP4 PUSH1 0x2 PUSH2 0x15AC SWAP2 SWAP1 PUSH2 0x2303 JUMP JUMPDEST PUSH2 0x15B6 SWAP2 SWAP1 PUSH2 0x2701 JUMP JUMPDEST PUSH8 0xFFFFFFFFFFFFFFFF DUP2 GT ISZERO PUSH2 0x15CF JUMPI PUSH2 0x15CE PUSH2 0x1C21 JUMP JUMPDEST JUMPDEST PUSH1 0x40 MLOAD SWAP1 DUP1 DUP3 MSTORE DUP1 PUSH1 0x1F ADD PUSH1 0x1F NOT AND PUSH1 0x20 ADD DUP3 ADD PUSH1 0x40 MSTORE DUP1 ISZERO PUSH2 0x1601 JUMPI DUP2 PUSH1 0x20 ADD PUSH1 0x1 DUP3 MUL DUP1 CALLDATASIZE DUP4 CALLDATACOPY DUP1 DUP3 ADD SWAP2 POP POP SWAP1 POP JUMPDEST POP SWAP1 POP PUSH32 0x3000000000000000000000000000000000000000000000000000000000000000 DUP2 PUSH0 DUP2 MLOAD DUP2 LT PUSH2 0x1638 JUMPI PUSH2 0x1637 PUSH2 0x2202 JUMP JUMPDEST JUMPDEST PUSH1 0x20 ADD ADD SWAP1 PUSH31 0xFFFFFFFFFFFFFFFFFFFFFFFFFFFFFFFFFFFFFFFFFFFFFFFFFFFFFFFFFFFFFF NOT AND SWAP1 DUP2 PUSH0 BYTE SWAP1 MSTORE8 POP PUSH32 0x7800000000000000000000000000000000000000000000000000000000000000 DUP2 PUSH1 0x1 DUP2 MLOAD DUP2 LT PUSH2 0x169B JUMPI PUSH2 0x169A PUSH2 0x2202 JUMP JUMPDEST JUMPDEST PUSH1 0x20 ADD ADD SWAP1 PUSH31 0xFFFFFFFFFFFFFFFFFFFFFFFFFFFFFFFFFFFFFFFFFFFFFFFFFFFFFFFFFFFFFF NOT AND SWAP1 DUP2 PUSH0 BYTE SWAP1 MSTORE8 POP PUSH0 PUSH1 0x1 DUP5 PUSH1 0x2 PUSH2 0x16D9 SWAP2 SWAP1 PUSH2 0x2303 JUMP JUMPDEST PUSH2 0x16E3 SWAP2 SWAP1 PUSH2 0x2701 JUMP JUMPDEST SWAP1 POP JUMPDEST PUSH1 0x1 DUP2 GT ISZERO PUSH2 0x1782 JUMPI PUSH32 0x3031323334353637383961626364656600000000000000000000000000000000 PUSH1 0xF DUP7 AND PUSH1 0x10 DUP2 LT PUSH2 0x1725 JUMPI PUSH2 0x1724 PUSH2 0x2202 JUMP JUMPDEST JUMPDEST BYTE PUSH1 0xF8 SHL DUP3 DUP3 DUP2 MLOAD DUP2 LT PUSH2 0x173C JUMPI PUSH2 0x173B PUSH2 0x2202 JUMP JUMPDEST JUMPDEST PUSH1 0x20 ADD ADD SWAP1 PUSH31 0xFFFFFFFFFFFFFFFFFFFFFFFFFFFFFFFFFFFFFFFFFFFFFFFFFFFFFFFFFFFFFF NOT AND SWAP1 DUP2 PUSH0 BYTE SWAP1 MSTORE8 POP PUSH1 0x4 DUP6 SWAP1 SHR SWAP5 POP DUP1 PUSH2 0x177B SWAP1 PUSH2 0x2734 JUMP JUMPDEST SWAP1 POP PUSH2 0x16E6 JUMP JUMPDEST POP PUSH0 DUP5 EQ PUSH2 0x17C5 JUMPI PUSH1 0x40 MLOAD PUSH32 0x8C379A000000000000000000000000000000000000000000000000000000000 DUP2 MSTORE PUSH1 0x4 ADD PUSH2 0x17BC SWAP1 PUSH2 0x27A5 JUMP JUMPDEST PUSH1 0x40 MLOAD DUP1 SWAP2 SUB SWAP1 REVERT JUMPDEST DUP1 SWAP2 POP POP SWAP3 SWAP2 POP POP JUMP JUMPDEST PUSH2 0x17D8 DUP2 PUSH2 0x148C JUMP JUMPDEST DUP1 PUSH20 0xFFFFFFFFFFFFFFFFFFFFFFFFFFFFFFFFFFFFFFFF AND PUSH32 0xBC7CD75A20EE27FD9ADEBAB32041F755214DBC6BFFA90CC0225B39DA2E5C2D3B PUSH1 0x40 MLOAD PUSH1 0x40 MLOAD DUP1 SWAP2 SUB SWAP1 LOG2 POP JUMP JUMPDEST PUSH1 0x60 PUSH2 0x1843 DUP4 DUP4 PUSH1 0x40 MLOAD DUP1 PUSH1 0x60 ADD PUSH1 0x40 MSTORE DUP1 PUSH1 0x27 DUP2 MSTORE PUSH1 0x20 ADD PUSH2 0x2886 PUSH1 0x27 SWAP2 CODECOPY PUSH2 0x184B JUMP JUMPDEST SWAP1 POP SWAP3 SWAP2 POP POP JUMP JUMPDEST PUSH1 0x60 PUSH0 DUP1 DUP6 PUSH20 0xFFFFFFFFFFFFFFFFFFFFFFFFFFFFFFFFFFFFFFFF AND DUP6 PUSH1 0x40 MLOAD PUSH2 0x1874 SWAP2 SWAP1 PUSH2 0x2807 JUMP JUMPDEST PUSH0 PUSH1 0x40 MLOAD DUP1 DUP4 SUB DUP2 DUP6 GAS DELEGATECALL SWAP2 POP POP RETURNDATASIZE DUP1 PUSH0 DUP2 EQ PUSH2 0x18AC JUMPI PUSH1 0x40 MLOAD SWAP2 POP PUSH1 0x1F NOT PUSH1 0x3F RETURNDATASIZE ADD AND DUP3 ADD PUSH1 0x40 MSTORE RETURNDATASIZE DUP3 MSTORE RETURNDATASIZE PUSH0 PUSH1 0x20 DUP5 ADD RETURNDATACOPY PUSH2 0x18B1 JUMP JUMPDEST PUSH1 0x60 SWAP2 POP JUMPDEST POP SWAP2 POP SWAP2 POP PUSH2 0x18C2 DUP7 DUP4 DUP4 DUP8 PUSH2 0x18CD JUMP JUMPDEST SWAP3 POP POP POP SWAP4 SWAP3 POP POP POP JUMP JUMPDEST PUSH1 0x60 DUP4 ISZERO PUSH2 0x192E JUMPI PUSH0 DUP4 MLOAD SUB PUSH2 0x1926 JUMPI PUSH2 0x18E6 DUP6 PUSH2 0x13C6 JUMP JUMPDEST PUSH2 0x1925 JUMPI PUSH1 0x40 MLOAD PUSH32 0x8C379A000000000000000000000000000000000000000000000000000000000 DUP2 MSTORE PUSH1 0x4 ADD PUSH2 0x191C SWAP1 PUSH2 0x2867 JUMP JUMPDEST PUSH1 0x40 MLOAD DUP1 SWAP2 SUB SWAP1 REVERT JUMPDEST JUMPDEST DUP3 SWAP1 POP PUSH2 0x1939 JUMP JUMPDEST PUSH2 0x1938 DUP4 DUP4 PUSH2 0x1941 JUMP JUMPDEST JUMPDEST SWAP5 SWAP4 POP POP POP POP JUMP JUMPDEST PUSH0 DUP3 MLOAD GT ISZERO PUSH2 0x1953 JUMPI DUP2 MLOAD DUP1 DUP4 PUSH1 0x20 ADD REVERT JUMPDEST DUP1 PUSH1 0x40 MLOAD PUSH32 0x8C379A000000000000000000000000000000000000000000000000000000000 DUP2 MSTORE PUSH1 0x4 ADD PUSH2 0x1987 SWAP2 SWAP1 PUSH2 0x2653 JUMP JUMPDEST PUSH1 0x40 MLOAD DUP1 SWAP2 SUB SWAP1 REVERT JUMPDEST PUSH1 0x40 MLOAD DUP1 PUSH1 0x40 ADD PUSH1 0x40 MSTORE DUP1 PUSH0 PUSH20 0xFFFFFFFFFFFFFFFFFFFFFFFFFFFFFFFFFFFFFFFF AND DUP2 MSTORE PUSH1 0x20 ADD PUSH0 DUP2 MSTORE POP SWAP1 JUMP JUMPDEST PUSH0 PUSH1 0x40 MLOAD SWAP1 POP SWAP1 JUMP JUMPDEST PUSH0 DUP1 REVERT JUMPDEST PUSH0 DUP1 REVERT JUMPDEST PUSH0 PUSH32 0xFFFFFFFF00000000000000000000000000000000000000000000000000000000 DUP3 AND SWAP1 POP SWAP2 SWAP1 POP JUMP JUMPDEST PUSH2 0x1A03 DUP2 PUSH2 0x19CF JUMP JUMPDEST DUP2 EQ PUSH2 0x1A0D JUMPI PUSH0 DUP1 REVERT JUMPDEST POP JUMP JUMPDEST PUSH0 DUP2 CALLDATALOAD SWAP1 POP PUSH2 0x1A1E DUP2 PUSH2 0x19FA JUMP JUMPDEST SWAP3 SWAP2 POP POP JUMP JUMPDEST PUSH0 PUSH1 0x20 DUP3 DUP5 SUB SLT ISZERO PUSH2 0x1A39 JUMPI PUSH2 0x1A38 PUSH2 0x19C7 JUMP JUMPDEST JUMPDEST PUSH0 PUSH2 0x1A46 DUP5 DUP3 DUP6 ADD PUSH2 0x1A10 JUMP JUMPDEST SWAP2 POP POP SWAP3 SWAP2 POP POP JUMP JUMPDEST PUSH0 DUP2 ISZERO ISZERO SWAP1 POP SWAP2 SWAP1 POP JUMP JUMPDEST PUSH2 0x1A63 DUP2 PUSH2 0x1A4F JUMP JUMPDEST DUP3 MSTORE POP POP JUMP JUMPDEST PUSH0 PUSH1 0x20 DUP3 ADD SWAP1 POP PUSH2 0x1A7C PUSH0 DUP4 ADD DUP5 PUSH2 0x1A5A JUMP JUMPDEST SWAP3 SWAP2 POP POP JUMP JUMPDEST PUSH0 DUP2 SWAP1 POP SWAP2 SWAP1 POP JUMP JUMPDEST PUSH2 0x1A94 DUP2 PUSH2 0x1A82 JUMP JUMPDEST DUP2 EQ PUSH2 0x1A9E JUMPI PUSH0 DUP1 REVERT JUMPDEST POP JUMP JUMPDEST PUSH0 DUP2 CALLDATALOAD SWAP1 POP PUSH2 0x1AAF DUP2 PUSH2 0x1A8B JUMP JUMPDEST SWAP3 SWAP2 POP POP JUMP JUMPDEST PUSH0 PUSH1 0x20 DUP3 DUP5 SUB SLT ISZERO PUSH2 0x1ACA JUMPI PUSH2 0x1AC9 PUSH2 0x19C7 JUMP JUMPDEST JUMPDEST PUSH0 PUSH2 0x1AD7 DUP5 DUP3 DUP6 ADD PUSH2 0x1AA1 JUMP JUMPDEST SWAP2 POP POP SWAP3 SWAP2 POP POP JUMP JUMPDEST PUSH2 0x1AE9 DUP2 PUSH2 0x1A82 JUMP JUMPDEST DUP3 MSTORE POP POP JUMP JUMPDEST PUSH0 PUSH1 0x20 DUP3 ADD SWAP1 POP PUSH2 0x1B02 PUSH0 DUP4 ADD DUP5 PUSH2 0x1AE0 JUMP JUMPDEST SWAP3 SWAP2 POP POP JUMP JUMPDEST PUSH0 PUSH20 0xFFFFFFFFFFFFFFFFFFFFFFFFFFFFFFFFFFFFFFFF DUP3 AND SWAP1 POP SWAP2 SWAP1 POP JUMP JUMPDEST PUSH0 PUSH2 0x1B31 DUP3 PUSH2 0x1B08 JUMP JUMPDEST SWAP1 POP SWAP2 SWAP1 POP JUMP JUMPDEST PUSH2 0x1B41 DUP2 PUSH2 0x1B27 JUMP JUMPDEST DUP2 EQ PUSH2 0x1B4B JUMPI PUSH0 DUP1 REVERT JUMPDEST POP JUMP JUMPDEST PUSH0 DUP2 CALLDATALOAD SWAP1 POP PUSH2 0x1B5C DUP2 PUSH2 0x1B38 JUMP JUMPDEST SWAP3 SWAP2 POP POP JUMP JUMPDEST PUSH0 DUP1 PUSH1 0x40 DUP4 DUP6 SUB SLT ISZERO PUSH2 0x1B78 JUMPI PUSH2 0x1B77 PUSH2 0x19C7 JUMP JUMPDEST JUMPDEST PUSH0 PUSH2 0x1B85 DUP6 DUP3 DUP7 ADD PUSH2 0x1AA1 JUMP JUMPDEST SWAP3 POP POP PUSH1 0x20 PUSH2 0x1B96 DUP6 DUP3 DUP7 ADD PUSH2 0x1B4E JUMP JUMPDEST SWAP2 POP POP SWAP3 POP SWAP3 SWAP1 POP JUMP JUMPDEST PUSH0 PUSH1 0x20 DUP3 DUP5 SUB SLT ISZERO PUSH2 0x1BB5 JUMPI PUSH2 0x1BB4 PUSH2 0x19C7 JUMP JUMPDEST JUMPDEST PUSH0 PUSH2 0x1BC2 DUP5 DUP3 DUP6 ADD PUSH2 0x1B4E JUMP JUMPDEST SWAP2 POP POP SWAP3 SWAP2 POP POP JUMP JUMPDEST PUSH0 DUP1 PUSH1 0x40 DUP4 DUP6 SUB SLT ISZERO PUSH2 0x1BE1 JUMPI PUSH2 0x1BE0 PUSH2 0x19C7 JUMP JUMPDEST JUMPDEST PUSH0 PUSH2 0x1BEE DUP6 DUP3 DUP7 ADD PUSH2 0x1B4E JUMP JUMPDEST SWAP3 POP POP PUSH1 0x20 PUSH2 0x1BFF DUP6 DUP3 DUP7 ADD PUSH2 0x1B4E JUMP JUMPDEST SWAP2 POP POP SWAP3 POP SWAP3 SWAP1 POP JUMP JUMPDEST PUSH0 DUP1 REVERT JUMPDEST PUSH0 DUP1 REVERT JUMPDEST PUSH0 PUSH1 0x1F NOT PUSH1 0x1F DUP4 ADD AND SWAP1 POP SWAP2 SWAP1 POP JUMP JUMPDEST PUSH32 0x4E487B7100000000000000000000000000000000000000000000000000000000 PUSH0 MSTORE PUSH1 0x41 PUSH1 0x4 MSTORE PUSH1 0x24 PUSH0 REVERT JUMPDEST PUSH2 0x1C57 DUP3 PUSH2 0x1C11 JUMP JUMPDEST DUP2 ADD DUP2 DUP2 LT PUSH8 0xFFFFFFFFFFFFFFFF DUP3 GT OR ISZERO PUSH2 0x1C76 JUMPI PUSH2 0x1C75 PUSH2 0x1C21 JUMP JUMPDEST JUMPDEST DUP1 PUSH1 0x40 MSTORE POP POP POP JUMP JUMPDEST PUSH0 PUSH2 0x1C88 PUSH2 0x19BE JUMP JUMPDEST SWAP1 POP PUSH2 0x1C94 DUP3 DUP3 PUSH2 0x1C4E JUMP JUMPDEST SWAP2 SWAP1 POP JUMP JUMPDEST PUSH0 PUSH8 0xFFFFFFFFFFFFFFFF DUP3 GT ISZERO PUSH2 0x1CB3 JUMPI PUSH2 0x1CB2 PUSH2 0x1C21 JUMP JUMPDEST JUMPDEST PUSH2 0x1CBC DUP3 PUSH2 0x1C11 JUMP JUMPDEST SWAP1 POP PUSH1 0x20 DUP2 ADD SWAP1 POP SWAP2 SWAP1 POP JUMP JUMPDEST DUP3 DUP2 DUP4 CALLDATACOPY PUSH0 DUP4 DUP4 ADD MSTORE POP POP POP JUMP JUMPDEST PUSH0 PUSH2 0x1CE9 PUSH2 0x1CE4 DUP5 PUSH2 0x1C99 JUMP JUMPDEST PUSH2 0x1C7F JUMP JUMPDEST SWAP1 POP DUP3 DUP2 MSTORE PUSH1 0x20 DUP2 ADD DUP5 DUP5 DUP5 ADD GT ISZERO PUSH2 0x1D05 JUMPI PUSH2 0x1D04 PUSH2 0x1C0D JUMP JUMPDEST JUMPDEST PUSH2 0x1D10 DUP5 DUP3 DUP6 PUSH2 0x1CC9 JUMP JUMPDEST POP SWAP4 SWAP3 POP POP POP JUMP JUMPDEST PUSH0 DUP3 PUSH1 0x1F DUP4 ADD SLT PUSH2 0x1D2C JUMPI PUSH2 0x1D2B PUSH2 0x1C09 JUMP JUMPDEST JUMPDEST DUP2 CALLDATALOAD PUSH2 0x1D3C DUP5 DUP3 PUSH1 0x20 DUP7 ADD PUSH2 0x1CD7 JUMP JUMPDEST SWAP2 POP POP SWAP3 SWAP2 POP POP JUMP JUMPDEST PUSH0 DUP1 PUSH1 0x40 DUP4 DUP6 SUB SLT ISZERO PUSH2 0x1D5B JUMPI PUSH2 0x1D5A PUSH2 0x19C7 JUMP JUMPDEST JUMPDEST PUSH0 PUSH2 0x1D68 DUP6 DUP3 DUP7 ADD PUSH2 0x1B4E JUMP JUMPDEST SWAP3 POP POP PUSH1 0x20 DUP4 ADD CALLDATALOAD PUSH8 0xFFFFFFFFFFFFFFFF DUP2 GT ISZERO PUSH2 0x1D89 JUMPI PUSH2 0x1D88 PUSH2 0x19CB JUMP JUMPDEST JUMPDEST PUSH2 0x1D95 DUP6 DUP3 DUP7 ADD PUSH2 0x1D18 JUMP JUMPDEST SWAP2 POP POP SWAP3 POP SWAP3 SWAP1 POP JUMP JUMPDEST PUSH0 DUP2 SWAP1 POP SWAP2 SWAP1 POP JUMP JUMPDEST PUSH2 0x1DB1 DUP2 PUSH2 0x1D9F JUMP JUMPDEST DUP2 EQ PUSH2 0x1DBB JUMPI PUSH0 DUP1 REVERT JUMPDEST POP JUMP JUMPDEST PUSH0 DUP2 MLOAD SWAP1 POP PUSH2 0x1DCC DUP2 PUSH2 0x1DA8 JUMP JUMPDEST SWAP3 SWAP2 POP POP JUMP JUMPDEST PUSH0 PUSH1 0x20 DUP3 DUP5 SUB SLT ISZERO PUSH2 0x1DE7 JUMPI PUSH2 0x1DE6 PUSH2 0x19C7 JUMP JUMPDEST JUMPDEST PUSH0 PUSH2 0x1DF4 DUP5 DUP3 DUP6 ADD PUSH2 0x1DBE JUMP JUMPDEST SWAP2 POP POP SWAP3 SWAP2 POP POP JUMP JUMPDEST PUSH0 DUP3 DUP3 MSTORE PUSH1 0x20 DUP3 ADD SWAP1 POP SWAP3 SWAP2 POP POP JUMP JUMPDEST PUSH32 0x796F7520646F6E277420686176652062616C616E636500000000000000000000 PUSH0 DUP3 ADD MSTORE POP JUMP JUMPDEST PUSH0 PUSH2 0x1E41 PUSH1 0x16 DUP4 PUSH2 0x1DFD JUMP JUMPDEST SWAP2 POP PUSH2 0x1E4C DUP3 PUSH2 0x1E0D JUMP JUMPDEST PUSH1 0x20 DUP3 ADD SWAP1 POP SWAP2 SWAP1 POP JUMP JUMPDEST PUSH0 PUSH1 0x20 DUP3 ADD SWAP1 POP DUP2 DUP2 SUB PUSH0 DUP4 ADD MSTORE PUSH2 0x1E6E DUP2 PUSH2 0x1E35 JUMP JUMPDEST SWAP1 POP SWAP2 SWAP1 POP JUMP JUMPDEST PUSH32 0x4E487B7100000000000000000000000000000000000000000000000000000000 PUSH0 MSTORE PUSH1 0x11 PUSH1 0x4 MSTORE PUSH1 0x24 PUSH0 REVERT JUMPDEST PUSH0 PUSH2 0x1EAC DUP3 PUSH2 0x1D9F JUMP JUMPDEST SWAP2 POP PUSH2 0x1EB7 DUP4 PUSH2 0x1D9F JUMP JUMPDEST SWAP3 POP DUP3 DUP3 SUB SWAP1 POP DUP2 DUP2 GT ISZERO PUSH2 0x1ECF JUMPI PUSH2 0x1ECE PUSH2 0x1E75 JUMP JUMPDEST JUMPDEST SWAP3 SWAP2 POP POP JUMP JUMPDEST PUSH32 0x416363657373436F6E74726F6C3A2063616E206F6E6C792072656E6F756E6365 PUSH0 DUP3 ADD MSTORE PUSH32 0x20726F6C657320666F722073656C660000000000000000000000000000000000 PUSH1 0x20 DUP3 ADD MSTORE POP JUMP JUMPDEST PUSH0 PUSH2 0x1F2F PUSH1 0x2F DUP4 PUSH2 0x1DFD JUMP JUMPDEST SWAP2 POP PUSH2 0x1F3A DUP3 PUSH2 0x1ED5 JUMP JUMPDEST PUSH1 0x40 DUP3 ADD SWAP1 POP SWAP2 SWAP1 POP JUMP JUMPDEST PUSH0 PUSH1 0x20 DUP3 ADD SWAP1 POP DUP2 DUP2 SUB PUSH0 DUP4 ADD MSTORE PUSH2 0x1F5C DUP2 PUSH2 0x1F23 JUMP JUMPDEST SWAP1 POP SWAP2 SWAP1 POP JUMP JUMPDEST PUSH32 0x46756E6374696F6E206D7573742062652063616C6C6564207468726F75676820 PUSH0 DUP3 ADD MSTORE PUSH32 0x64656C656761746563616C6C0000000000000000000000000000000000000000 PUSH1 0x20 DUP3 ADD MSTORE POP JUMP JUMPDEST PUSH0 PUSH2 0x1FBD PUSH1 0x2C DUP4 PUSH2 0x1DFD JUMP JUMPDEST SWAP2 POP PUSH2 0x1FC8 DUP3 PUSH2 0x1F63 JUMP JUMPDEST PUSH1 0x40 DUP3 ADD SWAP1 POP SWAP2 SWAP1 POP JUMP JUMPDEST PUSH0 PUSH1 0x20 DUP3 ADD SWAP1 POP DUP2 DUP2 SUB PUSH0 DUP4 ADD MSTORE PUSH2 0x1FEA DUP2 PUSH2 0x1FB1 JUMP JUMPDEST SWAP1 POP SWAP2 SWAP1 POP JUMP JUMPDEST PUSH32 0x46756E6374696F6E206D7573742062652063616C6C6564207468726F75676820 PUSH0 DUP3 ADD MSTORE PUSH32 0x6163746976652070726F78790000000000000000000000000000000000000000 PUSH1 0x20 DUP3 ADD MSTORE POP JUMP JUMPDEST PUSH0 PUSH2 0x204B PUSH1 0x2C DUP4 PUSH2 0x1DFD JUMP JUMPDEST SWAP2 POP PUSH2 0x2056 DUP3 PUSH2 0x1FF1 JUMP JUMPDEST PUSH1 0x40 DUP3 ADD SWAP1 POP SWAP2 SWAP1 POP JUMP JUMPDEST PUSH0 PUSH1 0x20 DUP3 ADD SWAP1 POP DUP2 DUP2 SUB PUSH0 DUP4 ADD MSTORE PUSH2 0x2078 DUP2 PUSH2 0x203F JUMP JUMPDEST SWAP1 POP SWAP2 SWAP1 POP JUMP JUMPDEST PUSH32 0x496E697469616C697A61626C653A20636F6E747261637420697320616C726561 PUSH0 DUP3 ADD MSTORE PUSH32 0x647920696E697469616C697A6564000000000000000000000000000000000000 PUSH1 0x20 DUP3 ADD MSTORE POP JUMP JUMPDEST PUSH0 PUSH2 0x20D9 PUSH1 0x2E DUP4 PUSH2 0x1DFD JUMP JUMPDEST SWAP2 POP PUSH2 0x20E4 DUP3 PUSH2 0x207F JUMP JUMPDEST PUSH1 0x40 DUP3 ADD SWAP1 POP SWAP2 SWAP1 POP JUMP JUMPDEST PUSH0 PUSH1 0x20 DUP3 ADD SWAP1 POP DUP2 DUP2 SUB PUSH0 DUP4 ADD MSTORE PUSH2 0x2106 DUP2 PUSH2 0x20CD JUMP JUMPDEST SWAP1 POP SWAP2 SWAP1 POP JUMP JUMPDEST PUSH0 DUP2 SWAP1 POP SWAP2 SWAP1 POP JUMP JUMPDEST PUSH0 PUSH1 0xFF DUP3 AND SWAP1 POP SWAP2 SWAP1 POP JUMP JUMPDEST PUSH0 DUP2 SWAP1 POP SWAP2 SWAP1 POP JUMP JUMPDEST PUSH0 PUSH2 0x2145 PUSH2 0x2140 PUSH2 0x213B DUP5 PUSH2 0x210D JUMP JUMPDEST PUSH2 0x2122 JUMP JUMPDEST PUSH2 0x2116 JUMP JUMPDEST SWAP1 POP SWAP2 SWAP1 POP JUMP JUMPDEST PUSH2 0x2155 DUP2 PUSH2 0x212B JUMP JUMPDEST DUP3 MSTORE POP POP JUMP JUMPDEST PUSH0 PUSH1 0x20 DUP3 ADD SWAP1 POP PUSH2 0x216E PUSH0 DUP4 ADD DUP5 PUSH2 0x214C JUMP JUMPDEST SWAP3 SWAP2 POP POP JUMP JUMPDEST PUSH32 0x555550535570677261646561626C653A206D757374206E6F742062652063616C PUSH0 DUP3 ADD MSTORE PUSH32 0x6C6564207468726F7567682064656C656761746563616C6C0000000000000000 PUSH1 0x20 DUP3 ADD MSTORE POP JUMP JUMPDEST PUSH0 PUSH2 0x21CE PUSH1 0x38 DUP4 PUSH2 0x1DFD JUMP JUMPDEST SWAP2 POP PUSH2 0x21D9 DUP3 PUSH2 0x2174 JUMP JUMPDEST PUSH1 0x40 DUP3 ADD SWAP1 POP SWAP2 SWAP1 POP JUMP JUMPDEST PUSH0 PUSH1 0x20 DUP3 ADD SWAP1 POP DUP2 DUP2 SUB PUSH0 DUP4 ADD MSTORE PUSH2 0x21FB DUP2 PUSH2 0x21C2 JUMP JUMPDEST SWAP1 POP SWAP2 SWAP1 POP JUMP JUMPDEST PUSH32 0x4E487B7100000000000000000000000000000000000000000000000000000000 PUSH0 MSTORE PUSH1 0x32 PUSH1 0x4 MSTORE PUSH1 0x24 PUSH0 REVERT JUMPDEST PUSH2 0x2238 DUP2 PUSH2 0x1B27 JUMP JUMPDEST DUP3 MSTORE POP POP JUMP JUMPDEST PUSH2 0x2247 DUP2 PUSH2 0x1D9F JUMP JUMPDEST DUP3 MSTORE POP POP JUMP JUMPDEST PUSH0 PUSH1 0x40 DUP3 ADD SWAP1 POP PUSH2 0x2260 PUSH0 DUP4 ADD DUP6 PUSH2 0x222F JUMP JUMPDEST PUSH2 0x226D PUSH1 0x20 DUP4 ADD DUP5 PUSH2 0x223E JUMP JUMPDEST SWAP4 SWAP3 POP POP POP JUMP JUMPDEST PUSH2 0x227D DUP2 PUSH2 0x1A4F JUMP JUMPDEST DUP2 EQ PUSH2 0x2287 JUMPI PUSH0 DUP1 REVERT JUMPDEST POP JUMP JUMPDEST PUSH0 DUP2 MLOAD SWAP1 POP PUSH2 0x2298 DUP2 PUSH2 0x2274 JUMP JUMPDEST SWAP3 SWAP2 POP POP JUMP JUMPDEST PUSH0 PUSH1 0x20 DUP3 DUP5 SUB SLT ISZERO PUSH2 0x22B3 JUMPI PUSH2 0x22B2 PUSH2 0x19C7 JUMP JUMPDEST JUMPDEST PUSH0 PUSH2 0x22C0 DUP5 DUP3 DUP6 ADD PUSH2 0x228A JUMP JUMPDEST SWAP2 POP POP SWAP3 SWAP2 POP POP JUMP JUMPDEST PUSH0 PUSH4 0xFFFFFFFF DUP3 AND SWAP1 POP SWAP2 SWAP1 POP JUMP JUMPDEST PUSH0 PUSH2 0x22E2 DUP3 PUSH2 0x22C9 JUMP JUMPDEST SWAP2 POP PUSH4 0xFFFFFFFF DUP3 SUB PUSH2 0x22F8 JUMPI PUSH2 0x22F7 PUSH2 0x1E75 JUMP JUMPDEST JUMPDEST PUSH1 0x1 DUP3 ADD SWAP1 POP SWAP2 SWAP1 POP JUMP JUMPDEST PUSH0 PUSH2 0x230D DUP3 PUSH2 0x1D9F JUMP JUMPDEST SWAP2 POP PUSH2 0x2318 DUP4 PUSH2 0x1D9F JUMP JUMPDEST SWAP3 POP DUP3 DUP3 MUL PUSH2 0x2326 DUP2 PUSH2 0x1D9F JUMP JUMPDEST SWAP2 POP DUP3 DUP3 DIV DUP5 EQ DUP4 ISZERO OR PUSH2 0x233D JUMPI PUSH2 0x233C PUSH2 0x1E75 JUMP JUMPDEST JUMPDEST POP SWAP3 SWAP2 POP POP JUMP JUMPDEST PUSH32 0x4E487B7100000000000000000000000000000000000000000000000000000000 PUSH0 MSTORE PUSH1 0x12 PUSH1 0x4 MSTORE PUSH1 0x24 PUSH0 REVERT JUMPDEST PUSH0 PUSH2 0x237B DUP3 PUSH2 0x1D9F JUMP JUMPDEST SWAP2 POP PUSH2 0x2386 DUP4 PUSH2 0x1D9F JUMP JUMPDEST SWAP3 POP DUP3 PUSH2 0x2396 JUMPI PUSH2 0x2395 PUSH2 0x2344 JUMP JUMPDEST JUMPDEST DUP3 DUP3 DIV SWAP1 POP SWAP3 SWAP2 POP POP JUMP JUMPDEST PUSH0 DUP2 MLOAD SWAP1 POP PUSH2 0x23AF DUP2 PUSH2 0x1A8B JUMP JUMPDEST SWAP3 SWAP2 POP POP JUMP JUMPDEST PUSH0 PUSH1 0x20 DUP3 DUP5 SUB SLT ISZERO PUSH2 0x23CA JUMPI PUSH2 0x23C9 PUSH2 0x19C7 JUMP JUMPDEST JUMPDEST PUSH0 PUSH2 0x23D7 DUP5 DUP3 DUP6 ADD PUSH2 0x23A1 JUMP JUMPDEST SWAP2 POP POP SWAP3 SWAP2 POP POP JUMP JUMPDEST PUSH32 0x45524331393637557067726164653A206E657720696D706C656D656E74617469 PUSH0 DUP3 ADD MSTORE PUSH32 0x6F6E206973206E6F742055555053000000000000000000000000000000000000 PUSH1 0x20 DUP3 ADD MSTORE POP JUMP JUMPDEST PUSH0 PUSH2 0x243A PUSH1 0x2E DUP4 PUSH2 0x1DFD JUMP JUMPDEST SWAP2 POP PUSH2 0x2445 DUP3 PUSH2 0x23E0 JUMP JUMPDEST PUSH1 0x40 DUP3 ADD SWAP1 POP SWAP2 SWAP1 POP JUMP JUMPDEST PUSH0 PUSH1 0x20 DUP3 ADD SWAP1 POP DUP2 DUP2 SUB PUSH0 DUP4 ADD MSTORE PUSH2 0x2467 DUP2 PUSH2 0x242E JUMP JUMPDEST SWAP1 POP SWAP2 SWAP1 POP JUMP JUMPDEST PUSH32 0x45524331393637557067726164653A20756E737570706F727465642070726F78 PUSH0 DUP3 ADD MSTORE PUSH32 0x6961626C65555549440000000000000000000000000000000000000000000000 PUSH1 0x20 DUP3 ADD MSTORE POP JUMP JUMPDEST PUSH0 PUSH2 0x24C8 PUSH1 0x29 DUP4 PUSH2 0x1DFD JUMP JUMPDEST SWAP2 POP PUSH2 0x24D3 DUP3 PUSH2 0x246E JUMP JUMPDEST PUSH1 0x40 DUP3 ADD SWAP1 POP SWAP2 SWAP1 POP JUMP JUMPDEST PUSH0 PUSH1 0x20 DUP3 ADD SWAP1 POP DUP2 DUP2 SUB PUSH0 DUP4 ADD MSTORE PUSH2 0x24F5 DUP2 PUSH2 0x24BC JUMP JUMPDEST SWAP1 POP SWAP2 SWAP1 POP JUMP JUMPDEST PUSH0 DUP2 SWAP1 POP SWAP3 SWAP2 POP POP JUMP JUMPDEST PUSH32 0x416363657373436F6E74726F6C3A206163636F756E7420000000000000000000 PUSH0 DUP3 ADD MSTORE POP JUMP JUMPDEST PUSH0 PUSH2 0x253A PUSH1 0x17 DUP4 PUSH2 0x24FC JUMP JUMPDEST SWAP2 POP PUSH2 0x2545 DUP3 PUSH2 0x2506 JUMP JUMPDEST PUSH1 0x17 DUP3 ADD SWAP1 POP SWAP2 SWAP1 POP JUMP JUMPDEST PUSH0 DUP2 MLOAD SWAP1 POP SWAP2 SWAP1 POP JUMP JUMPDEST DUP3 DUP2 DUP4 MCOPY PUSH0 DUP4 DUP4 ADD MSTORE POP POP POP JUMP JUMPDEST PUSH0 PUSH2 0x2572 DUP3 PUSH2 0x2550 JUMP JUMPDEST PUSH2 0x257C DUP2 DUP6 PUSH2 0x24FC JUMP JUMPDEST SWAP4 POP PUSH2 0x258C DUP2 DUP6 PUSH1 0x20 DUP7 ADD PUSH2 0x255A JUMP JUMPDEST DUP1 DUP5 ADD SWAP2 POP POP SWAP3 SWAP2 POP POP JUMP JUMPDEST PUSH32 0x206973206D697373696E6720726F6C6520000000000000000000000000000000 PUSH0 DUP3 ADD MSTORE POP JUMP JUMPDEST PUSH0 PUSH2 0x25CC PUSH1 0x11 DUP4 PUSH2 0x24FC JUMP JUMPDEST SWAP2 POP PUSH2 0x25D7 DUP3 PUSH2 0x2598 JUMP JUMPDEST PUSH1 0x11 DUP3 ADD SWAP1 POP SWAP2 SWAP1 POP JUMP JUMPDEST PUSH0 PUSH2 0x25EC DUP3 PUSH2 0x252E JUMP JUMPDEST SWAP2 POP PUSH2 0x25F8 DUP3 DUP6 PUSH2 0x2568 JUMP JUMPDEST SWAP2 POP PUSH2 0x2603 DUP3 PUSH2 0x25C0 JUMP JUMPDEST SWAP2 POP PUSH2 0x260F DUP3 DUP5 PUSH2 0x2568 JUMP JUMPDEST SWAP2 POP DUP2 SWAP1 POP SWAP4 SWAP3 POP POP POP JUMP JUMPDEST PUSH0 PUSH2 0x2625 DUP3 PUSH2 0x2550 JUMP JUMPDEST PUSH2 0x262F DUP2 DUP6 PUSH2 0x1DFD JUMP JUMPDEST SWAP4 POP PUSH2 0x263F DUP2 DUP6 PUSH1 0x20 DUP7 ADD PUSH2 0x255A JUMP JUMPDEST PUSH2 0x2648 DUP2 PUSH2 0x1C11 JUMP JUMPDEST DUP5 ADD SWAP2 POP POP SWAP3 SWAP2 POP POP JUMP JUMPDEST PUSH0 PUSH1 0x20 DUP3 ADD SWAP1 POP DUP2 DUP2 SUB PUSH0 DUP4 ADD MSTORE PUSH2 0x266B DUP2 DUP5 PUSH2 0x261B JUMP JUMPDEST SWAP1 POP SWAP3 SWAP2 POP POP JUMP JUMPDEST PUSH32 0x455243313936373A206E657720696D706C656D656E746174696F6E206973206E PUSH0 DUP3 ADD MSTORE PUSH32 0x6F74206120636F6E747261637400000000000000000000000000000000000000 PUSH1 0x20 DUP3 ADD MSTORE POP JUMP JUMPDEST PUSH0 PUSH2 0x26CD PUSH1 0x2D DUP4 PUSH2 0x1DFD JUMP JUMPDEST SWAP2 POP PUSH2 0x26D8 DUP3 PUSH2 0x2673 JUMP JUMPDEST PUSH1 0x40 DUP3 ADD SWAP1 POP SWAP2 SWAP1 POP JUMP JUMPDEST PUSH0 PUSH1 0x20 DUP3 ADD SWAP1 POP DUP2 DUP2 SUB PUSH0 DUP4 ADD MSTORE PUSH2 0x26FA DUP2 PUSH2 0x26C1 JUMP JUMPDEST SWAP1 POP SWAP2 SWAP1 POP JUMP JUMPDEST PUSH0 PUSH2 0x270B DUP3 PUSH2 0x1D9F JUMP JUMPDEST SWAP2 POP PUSH2 0x2716 DUP4 PUSH2 0x1D9F JUMP JUMPDEST SWAP3 POP DUP3 DUP3 ADD SWAP1 POP DUP1 DUP3 GT ISZERO PUSH2 0x272E JUMPI PUSH2 0x272D PUSH2 0x1E75 JUMP JUMPDEST JUMPDEST SWAP3 SWAP2 POP POP JUMP JUMPDEST PUSH0 PUSH2 0x273E DUP3 PUSH2 0x1D9F JUMP JUMPDEST SWAP2 POP PUSH0 DUP3 SUB PUSH2 0x2750 JUMPI PUSH2 0x274F PUSH2 0x1E75 JUMP JUMPDEST JUMPDEST PUSH1 0x1 DUP3 SUB SWAP1 POP SWAP2 SWAP1 POP JUMP JUMPDEST PUSH32 0x537472696E67733A20686578206C656E67746820696E73756666696369656E74 PUSH0 DUP3 ADD MSTORE POP JUMP JUMPDEST PUSH0 PUSH2 0x278F PUSH1 0x20 DUP4 PUSH2 0x1DFD JUMP JUMPDEST SWAP2 POP PUSH2 0x279A DUP3 PUSH2 0x275B JUMP JUMPDEST PUSH1 0x20 DUP3 ADD SWAP1 POP SWAP2 SWAP1 POP JUMP JUMPDEST PUSH0 PUSH1 0x20 DUP3 ADD SWAP1 POP DUP2 DUP2 SUB PUSH0 DUP4 ADD MSTORE PUSH2 0x27BC DUP2 PUSH2 0x2783 JUMP JUMPDEST SWAP1 POP SWAP2 SWAP1 POP JUMP JUMPDEST PUSH0 DUP2 MLOAD SWAP1 POP SWAP2 SWAP1 POP JUMP JUMPDEST PUSH0 DUP2 SWAP1 POP SWAP3 SWAP2 POP POP JUMP JUMPDEST PUSH0 PUSH2 0x27E1 DUP3 PUSH2 0x27C3 JUMP JUMPDEST PUSH2 0x27EB DUP2 DUP6 PUSH2 0x27CD JUMP JUMPDEST SWAP4 POP PUSH2 0x27FB DUP2 DUP6 PUSH1 0x20 DUP7 ADD PUSH2 0x255A JUMP JUMPDEST DUP1 DUP5 ADD SWAP2 POP POP SWAP3 SWAP2 POP POP JUMP JUMPDEST PUSH0 PUSH2 0x2812 DUP3 DUP5 PUSH2 0x27D7 JUMP JUMPDEST SWAP2 POP DUP2 SWAP1 POP SWAP3 SWAP2 POP POP JUMP JUMPDEST PUSH32 0x416464726573733A2063616C6C20746F206E6F6E2D636F6E7472616374000000 PUSH0 DUP3 ADD MSTORE POP JUMP JUMPDEST PUSH0 PUSH2 0x2851 PUSH1 0x1D DUP4 PUSH2 0x1DFD JUMP JUMPDEST SWAP2 POP PUSH2 0x285C DUP3 PUSH2 0x281D JUMP JUMPDEST PUSH1 0x20 DUP3 ADD SWAP1 POP SWAP2 SWAP1 POP JUMP JUMPDEST PUSH0 PUSH1 0x20 DUP3 ADD SWAP1 POP DUP2 DUP2 SUB PUSH0 DUP4 ADD MSTORE PUSH2 0x287E DUP2 PUSH2 0x2845 JUMP JUMPDEST SWAP1 POP SWAP2 SWAP1 POP JUMP INVALID COINBASE PUSH5 0x6472657373 GASPRICE KECCAK256 PUSH13 0x6F772D6C6576656C2064656C65 PUSH8 0x6174652063616C6C KECCAK256 PUSH7 0x61696C6564A264 PUSH10 0x7066735822122043CE69 0xCC DUP16 DUP7 0xCA SELFDESTRUCT JUMPDEST 0xC1 0xDA GT MSIZE 0xD4 MLOAD PUSH25 0x6C6DB514FE5E76C296AC21309527CC5564736F6C6343000819 STOP CALLER "
				},
				"gasEstimates": {
					"creation": {
						"codeDepositCost": "2093200",
						"executionCost": "infinite",
						"totalCost": "infinite"
					},
					"external": {
						"DEFAULT_ADMIN_ROLE()": "374",
						"claimReward()": "infinite",
						"getRoleAdmin(bytes32)": "infinite",
						"grantRole(bytes32,address)": "infinite",
						"hasRole(bytes32,address)": "3189",
						"initialize(address,address)": "infinite",
						"proxiableUUID()": "infinite",
						"renounceRole(bytes32,address)": "infinite",
						"revokeRole(bytes32,address)": "infinite",
						"rewardReferral()": "infinite",
						"setPartner(address)": "infinite",
						"setReferral(address)": "infinite",
						"supportsInterface(bytes4)": "741",
						"upgradeTo(address)": "infinite",
						"upgradeToAndCall(address,bytes)": "infinite"
					},
					"internal": {
						"_authorizeUpgrade(address)": "infinite",
						"feeCalculation(uint256)": "infinite",
						"partnershipBalanceCalculation(uint256)": "infinite"
					}
				},
				"methodIdentifiers": {
					"DEFAULT_ADMIN_ROLE()": "a217fddf",
					"claimReward()": "b88a802f",
					"getRoleAdmin(bytes32)": "248a9ca3",
					"grantRole(bytes32,address)": "2f2ff15d",
					"hasRole(bytes32,address)": "91d14854",
					"initialize(address,address)": "485cc955",
					"proxiableUUID()": "52d1902d",
					"renounceRole(bytes32,address)": "36568abe",
					"revokeRole(bytes32,address)": "d547741f",
					"rewardReferral()": "0cdb43c4",
					"setPartner(address)": "a16d5960",
					"setReferral(address)": "9e5914da",
					"supportsInterface(bytes4)": "01ffc9a7",
					"upgradeTo(address)": "3659cfe6",
					"upgradeToAndCall(address,bytes)": "4f1ef286"
				}
			},
			"storageLayout": {
				"storage": [
					{
						"astId": 782,
						"contract": "contracts/MainNode.sol:MainNode",
						"label": "_initialized",
						"offset": 0,
						"slot": "0",
						"type": "t_uint8"
					},
					{
						"astId": 785,
						"contract": "contracts/MainNode.sol:MainNode",
						"label": "_initializing",
						"offset": 1,
						"slot": "0",
						"type": "t_bool"
					},
					{
						"astId": 764,
						"contract": "contracts/MainNode.sol:MainNode",
						"label": "__gap",
						"offset": 0,
						"slot": "1",
						"type": "t_array(t_uint256)50_storage"
					},
					{
						"astId": 1080,
						"contract": "contracts/MainNode.sol:MainNode",
						"label": "__gap",
						"offset": 0,
						"slot": "51",
						"type": "t_array(t_uint256)50_storage"
					},
					{
						"astId": 1951,
						"contract": "contracts/MainNode.sol:MainNode",
						"label": "__gap",
						"offset": 0,
						"slot": "101",
						"type": "t_array(t_uint256)50_storage"
					},
					{
						"astId": 2335,
						"contract": "contracts/MainNode.sol:MainNode",
						"label": "__gap",
						"offset": 0,
						"slot": "151",
						"type": "t_array(t_uint256)50_storage"
					},
					{
						"astId": 28,
						"contract": "contracts/MainNode.sol:MainNode",
						"label": "_roles",
						"offset": 0,
						"slot": "201",
						"type": "t_mapping(t_bytes32,t_struct(RoleData)23_storage)"
					},
					{
						"astId": 335,
						"contract": "contracts/MainNode.sol:MainNode",
						"label": "__gap",
						"offset": 0,
						"slot": "202",
						"type": "t_array(t_uint256)49_storage"
					},
					{
						"astId": 3352,
						"contract": "contracts/MainNode.sol:MainNode",
						"label": "partnerSet",
						"offset": 0,
						"slot": "251",
						"type": "t_array(t_struct(Partner)3348_storage)dyn_storage"
					},
					{
						"astId": 3355,
						"contract": "contracts/MainNode.sol:MainNode",
						"label": "referral",
						"offset": 0,
						"slot": "252",
						"type": "t_contract(IReferral)3330"
					},
					{
						"astId": 3357,
						"contract": "contracts/MainNode.sol:MainNode",
						"label": "firstFeePercent",
						"offset": 20,
						"slot": "252",
						"type": "t_uint8"
					},
					{
						"astId": 3359,
						"contract": "contracts/MainNode.sol:MainNode",
						"label": "secondFeePercent",
						"offset": 21,
						"slot": "252",
						"type": "t_uint8"
					},
					{
						"astId": 3361,
						"contract": "contracts/MainNode.sol:MainNode",
						"label": "thirdFeePercent",
						"offset": 22,
						"slot": "252",
						"type": "t_uint8"
					},
					{
						"astId": 3363,
						"contract": "contracts/MainNode.sol:MainNode",
						"label": "firstFeeRange",
						"offset": 0,
						"slot": "253",
						"type": "t_uint256"
					},
					{
						"astId": 3365,
						"contract": "contracts/MainNode.sol:MainNode",
						"label": "secondFeeRange",
						"offset": 0,
						"slot": "254",
						"type": "t_uint256"
					},
					{
						"astId": 3368,
						"contract": "contracts/MainNode.sol:MainNode",
						"label": "tether",
						"offset": 0,
						"slot": "255",
						"type": "t_contract(IERC20Upgradeable)1159"
					}
				],
				"types": {
					"t_address": {
						"encoding": "inplace",
						"label": "address",
						"numberOfBytes": "20"
					},
					"t_array(t_struct(Partner)3348_storage)dyn_storage": {
						"base": "t_struct(Partner)3348_storage",
						"encoding": "dynamic_array",
						"label": "struct MainNode.Partner[]",
						"numberOfBytes": "32"
					},
					"t_array(t_uint256)49_storage": {
						"base": "t_uint256",
						"encoding": "inplace",
						"label": "uint256[49]",
						"numberOfBytes": "1568"
					},
					"t_array(t_uint256)50_storage": {
						"base": "t_uint256",
						"encoding": "inplace",
						"label": "uint256[50]",
						"numberOfBytes": "1600"
					},
					"t_bool": {
						"encoding": "inplace",
						"label": "bool",
						"numberOfBytes": "1"
					},
					"t_bytes32": {
						"encoding": "inplace",
						"label": "bytes32",
						"numberOfBytes": "32"
					},
					"t_contract(IERC20Upgradeable)1159": {
						"encoding": "inplace",
						"label": "contract IERC20Upgradeable",
						"numberOfBytes": "20"
					},
					"t_contract(IReferral)3330": {
						"encoding": "inplace",
						"label": "contract IReferral",
						"numberOfBytes": "20"
					},
					"t_mapping(t_address,t_bool)": {
						"encoding": "mapping",
						"key": "t_address",
						"label": "mapping(address => bool)",
						"numberOfBytes": "32",
						"value": "t_bool"
					},
					"t_mapping(t_bytes32,t_struct(RoleData)23_storage)": {
						"encoding": "mapping",
						"key": "t_bytes32",
						"label": "mapping(bytes32 => struct AccessControlUpgradeable.RoleData)",
						"numberOfBytes": "32",
						"value": "t_struct(RoleData)23_storage"
					},
					"t_struct(Partner)3348_storage": {
						"encoding": "inplace",
						"label": "struct MainNode.Partner",
						"members": [
							{
								"astId": 3345,
								"contract": "contracts/MainNode.sol:MainNode",
								"label": "account",
								"offset": 0,
								"slot": "0",
								"type": "t_address"
							},
							{
								"astId": 3347,
								"contract": "contracts/MainNode.sol:MainNode",
								"label": "balance",
								"offset": 0,
								"slot": "1",
								"type": "t_uint256"
							}
						],
						"numberOfBytes": "64"
					},
					"t_struct(RoleData)23_storage": {
						"encoding": "inplace",
						"label": "struct AccessControlUpgradeable.RoleData",
						"members": [
							{
								"astId": 20,
								"contract": "contracts/MainNode.sol:MainNode",
								"label": "members",
								"offset": 0,
								"slot": "0",
								"type": "t_mapping(t_address,t_bool)"
							},
							{
								"astId": 22,
								"contract": "contracts/MainNode.sol:MainNode",
								"label": "adminRole",
								"offset": 0,
								"slot": "1",
								"type": "t_bytes32"
							}
						],
						"numberOfBytes": "64"
					},
					"t_uint256": {
						"encoding": "inplace",
						"label": "uint256",
						"numberOfBytes": "32"
					},
					"t_uint8": {
						"encoding": "inplace",
						"label": "uint8",
						"numberOfBytes": "1"
					}
				}
			},
			"userdoc": {
				"kind": "user",
				"methods": {},
				"version": 1
			}
		}
	}
}