{
	"contracts/GameVault.sol": {
		"GameVault": {
			"abi": [
				{
					"anonymous": false,
					"inputs": [
						{
							"indexed": false,
							"internalType": "address",
							"name": "previousAdmin",
							"type": "address"
						},
						{
							"indexed": false,
							"internalType": "address",
							"name": "newAdmin",
							"type": "address"
						}
					],
					"name": "AdminChanged",
					"type": "event"
				},
				{
					"anonymous": false,
					"inputs": [
						{
							"indexed": true,
							"internalType": "address",
							"name": "beacon",
							"type": "address"
						}
					],
					"name": "BeaconUpgraded",
					"type": "event"
				},
				{
					"anonymous": false,
					"inputs": [
						{
							"indexed": false,
							"internalType": "uint256",
							"name": "",
							"type": "uint256"
						}
					],
					"name": "ChallengeReward",
					"type": "event"
				},
				{
					"anonymous": false,
					"inputs": [
						{
							"indexed": false,
							"internalType": "address",
							"name": "",
							"type": "address"
						},
						{
							"indexed": false,
							"internalType": "uint256",
							"name": "",
							"type": "uint256"
						}
					],
					"name": "ClaimReward",
					"type": "event"
				},
				{
					"anonymous": false,
					"inputs": [
						{
							"indexed": false,
							"internalType": "uint8",
							"name": "version",
							"type": "uint8"
						}
					],
					"name": "Initialized",
					"type": "event"
				},
				{
					"anonymous": false,
					"inputs": [
						{
							"indexed": true,
							"internalType": "bytes32",
							"name": "role",
							"type": "bytes32"
						},
						{
							"indexed": true,
							"internalType": "bytes32",
							"name": "previousAdminRole",
							"type": "bytes32"
						},
						{
							"indexed": true,
							"internalType": "bytes32",
							"name": "newAdminRole",
							"type": "bytes32"
						}
					],
					"name": "RoleAdminChanged",
					"type": "event"
				},
				{
					"anonymous": false,
					"inputs": [
						{
							"indexed": true,
							"internalType": "bytes32",
							"name": "role",
							"type": "bytes32"
						},
						{
							"indexed": true,
							"internalType": "address",
							"name": "account",
							"type": "address"
						},
						{
							"indexed": true,
							"internalType": "address",
							"name": "sender",
							"type": "address"
						}
					],
					"name": "RoleGranted",
					"type": "event"
				},
				{
					"anonymous": false,
					"inputs": [
						{
							"indexed": true,
							"internalType": "bytes32",
							"name": "role",
							"type": "bytes32"
						},
						{
							"indexed": true,
							"internalType": "address",
							"name": "account",
							"type": "address"
						},
						{
							"indexed": true,
							"internalType": "address",
							"name": "sender",
							"type": "address"
						}
					],
					"name": "RoleRevoked",
					"type": "event"
				},
				{
					"anonymous": false,
					"inputs": [
						{
							"indexed": true,
							"internalType": "address",
							"name": "implementation",
							"type": "address"
						}
					],
					"name": "Upgraded",
					"type": "event"
				},
				{
					"inputs": [],
					"name": "DEFAULT_ADMIN_ROLE",
					"outputs": [
						{
							"internalType": "bytes32",
							"name": "",
							"type": "bytes32"
						}
					],
					"stateMutability": "view",
					"type": "function"
				},
				{
					"inputs": [],
					"name": "claimReward",
					"outputs": [],
					"stateMutability": "nonpayable",
					"type": "function"
				},
				{
					"inputs": [
						{
							"internalType": "address[]",
							"name": "_playerSet",
							"type": "address[]"
						}
					],
					"name": "claimRewardAdminList",
					"outputs": [],
					"stateMutability": "nonpayable",
					"type": "function"
				},
				{
					"inputs": [
						{
							"internalType": "bytes32",
							"name": "role",
							"type": "bytes32"
						}
					],
					"name": "getRoleAdmin",
					"outputs": [
						{
							"internalType": "bytes32",
							"name": "",
							"type": "bytes32"
						}
					],
					"stateMutability": "view",
					"type": "function"
				},
				{
					"inputs": [
						{
							"internalType": "bytes32",
							"name": "role",
							"type": "bytes32"
						},
						{
							"internalType": "address",
							"name": "account",
							"type": "address"
						}
					],
					"name": "grantRole",
					"outputs": [],
					"stateMutability": "nonpayable",
					"type": "function"
				},
				{
					"inputs": [
						{
							"internalType": "bytes32",
							"name": "role",
							"type": "bytes32"
						},
						{
							"internalType": "address",
							"name": "account",
							"type": "address"
						}
					],
					"name": "hasRole",
					"outputs": [
						{
							"internalType": "bool",
							"name": "",
							"type": "bool"
						}
					],
					"stateMutability": "view",
					"type": "function"
				},
				{
					"inputs": [
						{
							"internalType": "address",
							"name": "_tether",
							"type": "address"
						},
						{
							"internalType": "address",
							"name": "_owner",
							"type": "address"
						}
					],
					"name": "initialize",
					"outputs": [],
					"stateMutability": "nonpayable",
					"type": "function"
				},
				{
					"inputs": [],
					"name": "playerBalance",
					"outputs": [
						{
							"internalType": "uint256",
							"name": "",
							"type": "uint256"
						}
					],
					"stateMutability": "view",
					"type": "function"
				},
				{
					"inputs": [
						{
							"internalType": "address",
							"name": "_player",
							"type": "address"
						}
					],
					"name": "playerBalanceAdmin",
					"outputs": [
						{
							"internalType": "uint256",
							"name": "",
							"type": "uint256"
						}
					],
					"stateMutability": "view",
					"type": "function"
				},
				{
					"inputs": [
						{
							"components": [
								{
									"internalType": "address",
									"name": "player",
									"type": "address"
								},
								{
									"internalType": "uint256",
									"name": "balance",
									"type": "uint256"
								}
							],
							"internalType": "struct GameVault.PlayerInfo[]",
							"name": "_playerSet",
							"type": "tuple[]"
						}
					],
					"name": "playersReward",
					"outputs": [],
					"stateMutability": "nonpayable",
					"type": "function"
				},
				{
					"inputs": [],
					"name": "proxiableUUID",
					"outputs": [
						{
							"internalType": "bytes32",
							"name": "",
							"type": "bytes32"
						}
					],
					"stateMutability": "view",
					"type": "function"
				},
				{
					"inputs": [
						{
							"internalType": "bytes32",
							"name": "role",
							"type": "bytes32"
						},
						{
							"internalType": "address",
							"name": "account",
							"type": "address"
						}
					],
					"name": "renounceRole",
					"outputs": [],
					"stateMutability": "nonpayable",
					"type": "function"
				},
				{
					"inputs": [
						{
							"internalType": "bytes32",
							"name": "role",
							"type": "bytes32"
						},
						{
							"internalType": "address",
							"name": "account",
							"type": "address"
						}
					],
					"name": "revokeRole",
					"outputs": [],
					"stateMutability": "nonpayable",
					"type": "function"
				},
				{
					"inputs": [
						{
							"internalType": "bytes4",
							"name": "interfaceId",
							"type": "bytes4"
						}
					],
					"name": "supportsInterface",
					"outputs": [
						{
							"internalType": "bool",
							"name": "",
							"type": "bool"
						}
					],
					"stateMutability": "view",
					"type": "function"
				},
				{
					"inputs": [
						{
							"internalType": "address",
							"name": "newImplementation",
							"type": "address"
						}
					],
					"name": "upgradeTo",
					"outputs": [],
					"stateMutability": "nonpayable",
					"type": "function"
				},
				{
					"inputs": [
						{
							"internalType": "address",
							"name": "newImplementation",
							"type": "address"
						},
						{
							"internalType": "bytes",
							"name": "data",
							"type": "bytes"
						}
					],
					"name": "upgradeToAndCall",
					"outputs": [],
					"stateMutability": "payable",
					"type": "function"
				}
			],
			"devdoc": {
				"events": {
					"AdminChanged(address,address)": {
						"details": "Emitted when the admin account has changed."
					},
					"BeaconUpgraded(address)": {
						"details": "Emitted when the beacon is changed."
					},
					"Initialized(uint8)": {
						"details": "Triggered when the contract has been initialized or reinitialized."
					},
					"RoleAdminChanged(bytes32,bytes32,bytes32)": {
						"details": "Emitted when `newAdminRole` is set as ``role``'s admin role, replacing `previousAdminRole` `DEFAULT_ADMIN_ROLE` is the starting admin for all roles, despite {RoleAdminChanged} not being emitted signaling this. _Available since v3.1._"
					},
					"RoleGranted(bytes32,address,address)": {
						"details": "Emitted when `account` is granted `role`. `sender` is the account that originated the contract call, an admin role bearer except when using {AccessControl-_setupRole}."
					},
					"RoleRevoked(bytes32,address,address)": {
						"details": "Emitted when `account` is revoked `role`. `sender` is the account that originated the contract call:   - if using `revokeRole`, it is the admin role bearer   - if using `renounceRole`, it is the role bearer (i.e. `account`)"
					},
					"Upgraded(address)": {
						"details": "Emitted when the implementation is upgraded."
					}
				},
				"kind": "dev",
				"methods": {
					"getRoleAdmin(bytes32)": {
						"details": "Returns the admin role that controls `role`. See {grantRole} and {revokeRole}. To change a role's admin, use {_setRoleAdmin}."
					},
					"grantRole(bytes32,address)": {
						"details": "Grants `role` to `account`. If `account` had not been already granted `role`, emits a {RoleGranted} event. Requirements: - the caller must have ``role``'s admin role. May emit a {RoleGranted} event."
					},
					"hasRole(bytes32,address)": {
						"details": "Returns `true` if `account` has been granted `role`."
					},
					"proxiableUUID()": {
						"details": "Implementation of the ERC1822 {proxiableUUID} function. This returns the storage slot used by the implementation. It is used to validate the implementation's compatibility when performing an upgrade. IMPORTANT: A proxy pointing at a proxiable contract should not be considered proxiable itself, because this risks bricking a proxy that upgrades to it, by delegating to itself until out of gas. Thus it is critical that this function revert if invoked through a proxy. This is guaranteed by the `notDelegated` modifier."
					},
					"renounceRole(bytes32,address)": {
						"details": "Revokes `role` from the calling account. Roles are often managed via {grantRole} and {revokeRole}: this function's purpose is to provide a mechanism for accounts to lose their privileges if they are compromised (such as when a trusted device is misplaced). If the calling account had been revoked `role`, emits a {RoleRevoked} event. Requirements: - the caller must be `account`. May emit a {RoleRevoked} event."
					},
					"revokeRole(bytes32,address)": {
						"details": "Revokes `role` from `account`. If `account` had been granted `role`, emits a {RoleRevoked} event. Requirements: - the caller must have ``role``'s admin role. May emit a {RoleRevoked} event."
					},
					"supportsInterface(bytes4)": {
						"details": "See {IERC165-supportsInterface}."
					},
					"upgradeTo(address)": {
						"custom:oz-upgrades-unsafe-allow-reachable": "delegatecall",
						"details": "Upgrade the implementation of the proxy to `newImplementation`. Calls {_authorizeUpgrade}. Emits an {Upgraded} event."
					},
					"upgradeToAndCall(address,bytes)": {
						"custom:oz-upgrades-unsafe-allow-reachable": "delegatecall",
						"details": "Upgrade the implementation of the proxy to `newImplementation`, and subsequently execute the function call encoded in `data`. Calls {_authorizeUpgrade}. Emits an {Upgraded} event."
					}
				},
				"version": 1
			},
			"evm": {
				"assembly": "    /* \"contracts/GameVault.sol\":381:2657  contract GameVault is Initializable, UUPSUpgradeable, AccessControlUpgradeable {... */\n  mstore(0x40, 0xa0)\n    /* \"@openzeppelin/contracts-upgradeable/proxy/utils/UUPSUpgradeable.sol\":1332:1336  this */\n  address\n    /* \"@openzeppelin/contracts-upgradeable/proxy/utils/UUPSUpgradeable.sol\":1289:1337  address private immutable __self = address(this) */\n  0xffffffffffffffffffffffffffffffffffffffff\n  and\n  0x80\n  swap1\n  0xffffffffffffffffffffffffffffffffffffffff\n  and\n  dup2\n  mstore\n  pop\n    /* \"contracts/GameVault.sol\":381:2657  contract GameVault is Initializable, UUPSUpgradeable, AccessControlUpgradeable {... */\n  callvalue\n  dup1\n  iszero\n  tag_1\n  jumpi\n  0x00\n  dup1\n  revert\ntag_1:\n  pop\n  mload(0x80)\n  codecopy(0x00, dataOffset(sub_0), dataSize(sub_0))\n  0x00\n  assignImmutable(\"0x3f2cb8b8a6f6ba8772056c1e4910fb442737deea593ec84e00cbccee66f6d0e1\")\n  return(0x00, dataSize(sub_0))\nstop\n\nsub_0: assembly {\n        /* \"contracts/GameVault.sol\":381:2657  contract GameVault is Initializable, UUPSUpgradeable, AccessControlUpgradeable {... */\n      mstore(0x40, 0x80)\n      jumpi(tag_1, lt(calldatasize, 0x04))\n      shr(0xe0, calldataload(0x00))\n      dup1\n      0x542e37cc\n      gt\n      tag_18\n      jumpi\n      dup1\n      0xb88a802f\n      gt\n      tag_19\n      jumpi\n      dup1\n      0xb88a802f\n      eq\n      tag_14\n      jumpi\n      dup1\n      0xbb6ceb4f\n      eq\n      tag_15\n      jumpi\n      dup1\n      0xd547741f\n      eq\n      tag_16\n      jumpi\n      dup1\n      0xf396d899\n      eq\n      tag_17\n      jumpi\n      jump(tag_1)\n    tag_19:\n      dup1\n      0x542e37cc\n      eq\n      tag_10\n      jumpi\n      dup1\n      0x651f066a\n      eq\n      tag_11\n      jumpi\n      dup1\n      0x91d14854\n      eq\n      tag_12\n      jumpi\n      dup1\n      0xa217fddf\n      eq\n      tag_13\n      jumpi\n      jump(tag_1)\n    tag_18:\n      dup1\n      0x3659cfe6\n      gt\n      tag_20\n      jumpi\n      dup1\n      0x3659cfe6\n      eq\n      tag_6\n      jumpi\n      dup1\n      0x485cc955\n      eq\n      tag_7\n      jumpi\n      dup1\n      0x4f1ef286\n      eq\n      tag_8\n      jumpi\n      dup1\n      0x52d1902d\n      eq\n      tag_9\n      jumpi\n      jump(tag_1)\n    tag_20:\n      dup1\n      0x01ffc9a7\n      eq\n      tag_2\n      jumpi\n      dup1\n      0x248a9ca3\n      eq\n      tag_3\n      jumpi\n      dup1\n      0x2f2ff15d\n      eq\n      tag_4\n      jumpi\n      dup1\n      0x36568abe\n      eq\n      tag_5\n      jumpi\n    tag_1:\n      0x00\n      dup1\n      revert\n        /* \"@openzeppelin/contracts-upgradeable/access/AccessControlUpgradeable.sol\":3029:3242  function supportsInterface(bytes4 interfaceId) public view virtual override returns (bool) {... */\n    tag_2:\n      callvalue\n      dup1\n      iszero\n      tag_21\n      jumpi\n      0x00\n      dup1\n      revert\n    tag_21:\n      pop\n      tag_22\n      0x04\n      dup1\n      calldatasize\n      sub\n      dup2\n      add\n      swap1\n      tag_23\n      swap2\n      swap1\n      tag_24\n      jump\t// in\n    tag_23:\n      tag_25\n      jump\t// in\n    tag_22:\n      mload(0x40)\n      tag_26\n      swap2\n      swap1\n      tag_27\n      jump\t// in\n    tag_26:\n      mload(0x40)\n      dup1\n      swap2\n      sub\n      swap1\n      return\n        /* \"@openzeppelin/contracts-upgradeable/access/AccessControlUpgradeable.sol\":4834:4963  function getRoleAdmin(bytes32 role) public view virtual override returns (bytes32) {... */\n    tag_3:\n      callvalue\n      dup1\n      iszero\n      tag_28\n      jumpi\n      0x00\n      dup1\n      revert\n    tag_28:\n      pop\n      tag_29\n      0x04\n      dup1\n      calldatasize\n      sub\n      dup2\n      add\n      swap1\n      tag_30\n      swap2\n      swap1\n      tag_31\n      jump\t// in\n    tag_30:\n      tag_32\n      jump\t// in\n    tag_29:\n      mload(0x40)\n      tag_33\n      swap2\n      swap1\n      tag_34\n      jump\t// in\n    tag_33:\n      mload(0x40)\n      dup1\n      swap2\n      sub\n      swap1\n      return\n        /* \"@openzeppelin/contracts-upgradeable/access/AccessControlUpgradeable.sol\":5259:5404  function grantRole(bytes32 role, address account) public virtual override onlyRole(getRoleAdmin(role)) {... */\n    tag_4:\n      callvalue\n      dup1\n      iszero\n      tag_35\n      jumpi\n      0x00\n      dup1\n      revert\n    tag_35:\n      pop\n      tag_36\n      0x04\n      dup1\n      calldatasize\n      sub\n      dup2\n      add\n      swap1\n      tag_37\n      swap2\n      swap1\n      tag_38\n      jump\t// in\n    tag_37:\n      tag_39\n      jump\t// in\n    tag_36:\n      stop\n        /* \"@openzeppelin/contracts-upgradeable/access/AccessControlUpgradeable.sol\":6368:6582  function renounceRole(bytes32 role, address account) public virtual override {... */\n    tag_5:\n      callvalue\n      dup1\n      iszero\n      tag_40\n      jumpi\n      0x00\n      dup1\n      revert\n    tag_40:\n      pop\n      tag_41\n      0x04\n      dup1\n      calldatasize\n      sub\n      dup2\n      add\n      swap1\n      tag_42\n      swap2\n      swap1\n      tag_38\n      jump\t// in\n    tag_42:\n      tag_43\n      jump\t// in\n    tag_41:\n      stop\n        /* \"@openzeppelin/contracts-upgradeable/proxy/utils/UUPSUpgradeable.sol\":3387:3582  function upgradeTo(address newImplementation) public virtual onlyProxy {... */\n    tag_6:\n      callvalue\n      dup1\n      iszero\n      tag_44\n      jumpi\n      0x00\n      dup1\n      revert\n    tag_44:\n      pop\n      tag_45\n      0x04\n      dup1\n      calldatasize\n      sub\n      dup2\n      add\n      swap1\n      tag_46\n      swap2\n      swap1\n      tag_47\n      jump\t// in\n    tag_46:\n      tag_48\n      jump\t// in\n    tag_45:\n      stop\n        /* \"contracts/GameVault.sol\":754:949  function initialize (... */\n    tag_7:\n      callvalue\n      dup1\n      iszero\n      tag_49\n      jumpi\n      0x00\n      dup1\n      revert\n    tag_49:\n      pop\n      tag_50\n      0x04\n      dup1\n      calldatasize\n      sub\n      dup2\n      add\n      swap1\n      tag_51\n      swap2\n      swap1\n      tag_52\n      jump\t// in\n    tag_51:\n      tag_53\n      jump\t// in\n    tag_50:\n      stop\n        /* \"@openzeppelin/contracts-upgradeable/proxy/utils/UUPSUpgradeable.sol\":3901:4121  function upgradeToAndCall(address newImplementation, bytes memory data) public payable virtual onlyProxy {... */\n    tag_8:\n      tag_54\n      0x04\n      dup1\n      calldatasize\n      sub\n      dup2\n      add\n      swap1\n      tag_55\n      swap2\n      swap1\n      tag_56\n      jump\t// in\n    tag_55:\n      tag_57\n      jump\t// in\n    tag_54:\n      stop\n        /* \"@openzeppelin/contracts-upgradeable/proxy/utils/UUPSUpgradeable.sol\":3006:3137  function proxiableUUID() external view virtual override notDelegated returns (bytes32) {... */\n    tag_9:\n      callvalue\n      dup1\n      iszero\n      tag_58\n      jumpi\n      0x00\n      dup1\n      revert\n    tag_58:\n      pop\n      tag_59\n      tag_60\n      jump\t// in\n    tag_59:\n      mload(0x40)\n      tag_61\n      swap2\n      swap1\n      tag_34\n      jump\t// in\n    tag_61:\n      mload(0x40)\n      dup1\n      swap2\n      sub\n      swap1\n      return\n        /* \"contracts/GameVault.sol\":2049:2263  function claimRewardAdminList(address[] memory _playerSet) external onlyRole(DEFAULT_ADMIN_ROLE) {... */\n    tag_10:\n      callvalue\n      dup1\n      iszero\n      tag_62\n      jumpi\n      0x00\n      dup1\n      revert\n    tag_62:\n      pop\n      tag_63\n      0x04\n      dup1\n      calldatasize\n      sub\n      dup2\n      add\n      swap1\n      tag_64\n      swap2\n      swap1\n      tag_65\n      jump\t// in\n    tag_64:\n      tag_66\n      jump\t// in\n    tag_63:\n      stop\n        /* \"contracts/GameVault.sol\":2268:2372  function playerBalance() external view returns(uint)  {... */\n    tag_11:\n      callvalue\n      dup1\n      iszero\n      tag_67\n      jumpi\n      0x00\n      dup1\n      revert\n    tag_67:\n      pop\n      tag_68\n      tag_69\n      jump\t// in\n    tag_68:\n      mload(0x40)\n      tag_70\n      swap2\n      swap1\n      tag_71\n      jump\t// in\n    tag_70:\n      mload(0x40)\n      dup1\n      swap2\n      sub\n      swap1\n      return\n        /* \"@openzeppelin/contracts-upgradeable/access/AccessControlUpgradeable.sol\":3329:3474  function hasRole(bytes32 role, address account) public view virtual override returns (bool) {... */\n    tag_12:\n      callvalue\n      dup1\n      iszero\n      tag_72\n      jumpi\n      0x00\n      dup1\n      revert\n    tag_72:\n      pop\n      tag_73\n      0x04\n      dup1\n      calldatasize\n      sub\n      dup2\n      add\n      swap1\n      tag_74\n      swap2\n      swap1\n      tag_38\n      jump\t// in\n    tag_74:\n      tag_75\n      jump\t// in\n    tag_73:\n      mload(0x40)\n      tag_76\n      swap2\n      swap1\n      tag_27\n      jump\t// in\n    tag_76:\n      mload(0x40)\n      dup1\n      swap2\n      sub\n      swap1\n      return\n        /* \"@openzeppelin/contracts-upgradeable/access/AccessControlUpgradeable.sol\":2450:2499  bytes32 public constant DEFAULT_ADMIN_ROLE = 0x00 */\n    tag_13:\n      callvalue\n      dup1\n      iszero\n      tag_77\n      jumpi\n      0x00\n      dup1\n      revert\n    tag_77:\n      pop\n      tag_78\n      tag_79\n      jump\t// in\n    tag_78:\n      mload(0x40)\n      tag_80\n      swap2\n      swap1\n      tag_34\n      jump\t// in\n    tag_80:\n      mload(0x40)\n      dup1\n      swap2\n      sub\n      swap1\n      return\n        /* \"contracts/GameVault.sol\":1200:1619  function claimReward() external {... */\n    tag_14:\n      callvalue\n      dup1\n      iszero\n      tag_81\n      jumpi\n      0x00\n      dup1\n      revert\n    tag_81:\n      pop\n      tag_82\n      tag_83\n      jump\t// in\n    tag_82:\n      stop\n        /* \"contracts/GameVault.sol\":2377:2525  function playerBalanceAdmin(address _player) external view onlyRole(DEFAULT_ADMIN_ROLE) returns(uint){... */\n    tag_15:\n      callvalue\n      dup1\n      iszero\n      tag_84\n      jumpi\n      0x00\n      dup1\n      revert\n    tag_84:\n      pop\n      tag_85\n      0x04\n      dup1\n      calldatasize\n      sub\n      dup2\n      add\n      swap1\n      tag_86\n      swap2\n      swap1\n      tag_47\n      jump\t// in\n    tag_86:\n      tag_87\n      jump\t// in\n    tag_85:\n      mload(0x40)\n      tag_88\n      swap2\n      swap1\n      tag_71\n      jump\t// in\n    tag_88:\n      mload(0x40)\n      dup1\n      swap2\n      sub\n      swap1\n      return\n        /* \"@openzeppelin/contracts-upgradeable/access/AccessControlUpgradeable.sol\":5684:5831  function revokeRole(bytes32 role, address account) public virtual override onlyRole(getRoleAdmin(role)) {... */\n    tag_16:\n      callvalue\n      dup1\n      iszero\n      tag_89\n      jumpi\n      0x00\n      dup1\n      revert\n    tag_89:\n      pop\n      tag_90\n      0x04\n      dup1\n      calldatasize\n      sub\n      dup2\n      add\n      swap1\n      tag_91\n      swap2\n      swap1\n      tag_38\n      jump\t// in\n    tag_91:\n      tag_92\n      jump\t// in\n    tag_90:\n      stop\n        /* \"contracts/GameVault.sol\":954:1195  function playersReward(PlayerInfo[] calldata _playerSet) external onlyRole(DEFAULT_ADMIN_ROLE){... */\n    tag_17:\n      callvalue\n      dup1\n      iszero\n      tag_93\n      jumpi\n      0x00\n      dup1\n      revert\n    tag_93:\n      pop\n      tag_94\n      0x04\n      dup1\n      calldatasize\n      sub\n      dup2\n      add\n      swap1\n      tag_95\n      swap2\n      swap1\n      tag_96\n      jump\t// in\n    tag_95:\n      tag_97\n      jump\t// in\n    tag_94:\n      stop\n        /* \"@openzeppelin/contracts-upgradeable/access/AccessControlUpgradeable.sol\":3029:3242  function supportsInterface(bytes4 interfaceId) public view virtual override returns (bool) {... */\n    tag_25:\n        /* \"@openzeppelin/contracts-upgradeable/access/AccessControlUpgradeable.sol\":3114:3118  bool */\n      0x00\n        /* \"@openzeppelin/contracts-upgradeable/access/AccessControlUpgradeable.sol\":3152:3195  type(IAccessControlUpgradeable).interfaceId */\n      0x7965db0b00000000000000000000000000000000000000000000000000000000\n        /* \"@openzeppelin/contracts-upgradeable/access/AccessControlUpgradeable.sol\":3137:3195  interfaceId == type(IAccessControlUpgradeable).interfaceId */\n      not(0xffffffffffffffffffffffffffffffffffffffffffffffffffffffff)\n      and\n        /* \"@openzeppelin/contracts-upgradeable/access/AccessControlUpgradeable.sol\":3137:3148  interfaceId */\n      dup3\n        /* \"@openzeppelin/contracts-upgradeable/access/AccessControlUpgradeable.sol\":3137:3195  interfaceId == type(IAccessControlUpgradeable).interfaceId */\n      not(0xffffffffffffffffffffffffffffffffffffffffffffffffffffffff)\n      and\n      eq\n        /* \"@openzeppelin/contracts-upgradeable/access/AccessControlUpgradeable.sol\":3137:3235  interfaceId == type(IAccessControlUpgradeable).interfaceId || super.supportsInterface(interfaceId) */\n      dup1\n      tag_99\n      jumpi\n      pop\n        /* \"@openzeppelin/contracts-upgradeable/access/AccessControlUpgradeable.sol\":3199:3235  super.supportsInterface(interfaceId) */\n      tag_100\n        /* \"@openzeppelin/contracts-upgradeable/access/AccessControlUpgradeable.sol\":3223:3234  interfaceId */\n      dup3\n        /* \"@openzeppelin/contracts-upgradeable/access/AccessControlUpgradeable.sol\":3199:3222  super.supportsInterface */\n      tag_101\n        /* \"@openzeppelin/contracts-upgradeable/access/AccessControlUpgradeable.sol\":3199:3235  super.supportsInterface(interfaceId) */\n      jump\t// in\n    tag_100:\n        /* \"@openzeppelin/contracts-upgradeable/access/AccessControlUpgradeable.sol\":3137:3235  interfaceId == type(IAccessControlUpgradeable).interfaceId || super.supportsInterface(interfaceId) */\n    tag_99:\n        /* \"@openzeppelin/contracts-upgradeable/access/AccessControlUpgradeable.sol\":3130:3235  return interfaceId == type(IAccessControlUpgradeable).interfaceId || super.supportsInterface(interfaceId) */\n      swap1\n      pop\n        /* \"@openzeppelin/contracts-upgradeable/access/AccessControlUpgradeable.sol\":3029:3242  function supportsInterface(bytes4 interfaceId) public view virtual override returns (bool) {... */\n      swap2\n      swap1\n      pop\n      jump\t// out\n        /* \"@openzeppelin/contracts-upgradeable/access/AccessControlUpgradeable.sol\":4834:4963  function getRoleAdmin(bytes32 role) public view virtual override returns (bytes32) {... */\n    tag_32:\n        /* \"@openzeppelin/contracts-upgradeable/access/AccessControlUpgradeable.sol\":4908:4915  bytes32 */\n      0x00\n        /* \"@openzeppelin/contracts-upgradeable/access/AccessControlUpgradeable.sol\":4934:4940  _roles */\n      0xc9\n        /* \"@openzeppelin/contracts-upgradeable/access/AccessControlUpgradeable.sol\":4934:4946  _roles[role] */\n      0x00\n        /* \"@openzeppelin/contracts-upgradeable/access/AccessControlUpgradeable.sol\":4941:4945  role */\n      dup4\n        /* \"@openzeppelin/contracts-upgradeable/access/AccessControlUpgradeable.sol\":4934:4946  _roles[role] */\n      dup2\n      mstore\n      0x20\n      add\n      swap1\n      dup2\n      mstore\n      0x20\n      add\n      0x00\n      keccak256\n        /* \"@openzeppelin/contracts-upgradeable/access/AccessControlUpgradeable.sol\":4934:4956  _roles[role].adminRole */\n      0x01\n      add\n      sload\n        /* \"@openzeppelin/contracts-upgradeable/access/AccessControlUpgradeable.sol\":4927:4956  return _roles[role].adminRole */\n      swap1\n      pop\n        /* \"@openzeppelin/contracts-upgradeable/access/AccessControlUpgradeable.sol\":4834:4963  function getRoleAdmin(bytes32 role) public view virtual override returns (bytes32) {... */\n      swap2\n      swap1\n      pop\n      jump\t// out\n        /* \"@openzeppelin/contracts-upgradeable/access/AccessControlUpgradeable.sol\":5259:5404  function grantRole(bytes32 role, address account) public virtual override onlyRole(getRoleAdmin(role)) {... */\n    tag_39:\n        /* \"@openzeppelin/contracts-upgradeable/access/AccessControlUpgradeable.sol\":5342:5360  getRoleAdmin(role) */\n      tag_103\n        /* \"@openzeppelin/contracts-upgradeable/access/AccessControlUpgradeable.sol\":5355:5359  role */\n      dup3\n        /* \"@openzeppelin/contracts-upgradeable/access/AccessControlUpgradeable.sol\":5342:5354  getRoleAdmin */\n      tag_32\n        /* \"@openzeppelin/contracts-upgradeable/access/AccessControlUpgradeable.sol\":5342:5360  getRoleAdmin(role) */\n      jump\t// in\n    tag_103:\n        /* \"@openzeppelin/contracts-upgradeable/access/AccessControlUpgradeable.sol\":2928:2944  _checkRole(role) */\n      tag_105\n        /* \"@openzeppelin/contracts-upgradeable/access/AccessControlUpgradeable.sol\":2939:2943  role */\n      dup2\n        /* \"@openzeppelin/contracts-upgradeable/access/AccessControlUpgradeable.sol\":2928:2938  _checkRole */\n      tag_106\n        /* \"@openzeppelin/contracts-upgradeable/access/AccessControlUpgradeable.sol\":2928:2944  _checkRole(role) */\n      jump\t// in\n    tag_105:\n        /* \"@openzeppelin/contracts-upgradeable/access/AccessControlUpgradeable.sol\":5372:5397  _grantRole(role, account) */\n      tag_108\n        /* \"@openzeppelin/contracts-upgradeable/access/AccessControlUpgradeable.sol\":5383:5387  role */\n      dup4\n        /* \"@openzeppelin/contracts-upgradeable/access/AccessControlUpgradeable.sol\":5389:5396  account */\n      dup4\n        /* \"@openzeppelin/contracts-upgradeable/access/AccessControlUpgradeable.sol\":5372:5382  _grantRole */\n      tag_109\n        /* \"@openzeppelin/contracts-upgradeable/access/AccessControlUpgradeable.sol\":5372:5397  _grantRole(role, account) */\n      jump\t// in\n    tag_108:\n        /* \"@openzeppelin/contracts-upgradeable/access/AccessControlUpgradeable.sol\":5259:5404  function grantRole(bytes32 role, address account) public virtual override onlyRole(getRoleAdmin(role)) {... */\n      pop\n      pop\n      pop\n      jump\t// out\n        /* \"@openzeppelin/contracts-upgradeable/access/AccessControlUpgradeable.sol\":6368:6582  function renounceRole(bytes32 role, address account) public virtual override {... */\n    tag_43:\n        /* \"@openzeppelin/contracts-upgradeable/access/AccessControlUpgradeable.sol\":6474:6486  _msgSender() */\n      tag_111\n        /* \"@openzeppelin/contracts-upgradeable/access/AccessControlUpgradeable.sol\":6474:6484  _msgSender */\n      tag_112\n        /* \"@openzeppelin/contracts-upgradeable/access/AccessControlUpgradeable.sol\":6474:6486  _msgSender() */\n      jump\t// in\n    tag_111:\n        /* \"@openzeppelin/contracts-upgradeable/access/AccessControlUpgradeable.sol\":6463:6486  account == _msgSender() */\n      0xffffffffffffffffffffffffffffffffffffffff\n      and\n        /* \"@openzeppelin/contracts-upgradeable/access/AccessControlUpgradeable.sol\":6463:6470  account */\n      dup2\n        /* \"@openzeppelin/contracts-upgradeable/access/AccessControlUpgradeable.sol\":6463:6486  account == _msgSender() */\n      0xffffffffffffffffffffffffffffffffffffffff\n      and\n      eq\n        /* \"@openzeppelin/contracts-upgradeable/access/AccessControlUpgradeable.sol\":6455:6538  require(account == _msgSender(), \"AccessControl: can only renounce roles for self\") */\n      tag_113\n      jumpi\n      mload(0x40)\n      0x08c379a000000000000000000000000000000000000000000000000000000000\n      dup2\n      mstore\n      0x04\n      add\n      tag_114\n      swap1\n      tag_115\n      jump\t// in\n    tag_114:\n      mload(0x40)\n      dup1\n      swap2\n      sub\n      swap1\n      revert\n    tag_113:\n        /* \"@openzeppelin/contracts-upgradeable/access/AccessControlUpgradeable.sol\":6549:6575  _revokeRole(role, account) */\n      tag_116\n        /* \"@openzeppelin/contracts-upgradeable/access/AccessControlUpgradeable.sol\":6561:6565  role */\n      dup3\n        /* \"@openzeppelin/contracts-upgradeable/access/AccessControlUpgradeable.sol\":6567:6574  account */\n      dup3\n        /* \"@openzeppelin/contracts-upgradeable/access/AccessControlUpgradeable.sol\":6549:6560  _revokeRole */\n      tag_117\n        /* \"@openzeppelin/contracts-upgradeable/access/AccessControlUpgradeable.sol\":6549:6575  _revokeRole(role, account) */\n      jump\t// in\n    tag_116:\n        /* \"@openzeppelin/contracts-upgradeable/access/AccessControlUpgradeable.sol\":6368:6582  function renounceRole(bytes32 role, address account) public virtual override {... */\n      pop\n      pop\n      jump\t// out\n        /* \"@openzeppelin/contracts-upgradeable/proxy/utils/UUPSUpgradeable.sol\":3387:3582  function upgradeTo(address newImplementation) public virtual onlyProxy {... */\n    tag_48:\n        /* \"@openzeppelin/contracts-upgradeable/proxy/utils/UUPSUpgradeable.sol\":1898:1904  __self */\n      immutable(\"0x3f2cb8b8a6f6ba8772056c1e4910fb442737deea593ec84e00cbccee66f6d0e1\")\n        /* \"@openzeppelin/contracts-upgradeable/proxy/utils/UUPSUpgradeable.sol\":1881:1904  address(this) != __self */\n      0xffffffffffffffffffffffffffffffffffffffff\n      and\n        /* \"@openzeppelin/contracts-upgradeable/proxy/utils/UUPSUpgradeable.sol\":1889:1893  this */\n      address\n        /* \"@openzeppelin/contracts-upgradeable/proxy/utils/UUPSUpgradeable.sol\":1881:1904  address(this) != __self */\n      0xffffffffffffffffffffffffffffffffffffffff\n      and\n      sub\n        /* \"@openzeppelin/contracts-upgradeable/proxy/utils/UUPSUpgradeable.sol\":1873:1953  require(address(this) != __self, \"Function must be called through delegatecall\") */\n      tag_119\n      jumpi\n      mload(0x40)\n      0x08c379a000000000000000000000000000000000000000000000000000000000\n      dup2\n      mstore\n      0x04\n      add\n      tag_120\n      swap1\n      tag_121\n      jump\t// in\n    tag_120:\n      mload(0x40)\n      dup1\n      swap2\n      sub\n      swap1\n      revert\n    tag_119:\n        /* \"@openzeppelin/contracts-upgradeable/proxy/utils/UUPSUpgradeable.sol\":1995:2001  __self */\n      immutable(\"0x3f2cb8b8a6f6ba8772056c1e4910fb442737deea593ec84e00cbccee66f6d0e1\")\n        /* \"@openzeppelin/contracts-upgradeable/proxy/utils/UUPSUpgradeable.sol\":1971:2001  _getImplementation() == __self */\n      0xffffffffffffffffffffffffffffffffffffffff\n      and\n        /* \"@openzeppelin/contracts-upgradeable/proxy/utils/UUPSUpgradeable.sol\":1971:1991  _getImplementation() */\n      tag_122\n        /* \"@openzeppelin/contracts-upgradeable/proxy/utils/UUPSUpgradeable.sol\":1971:1989  _getImplementation */\n      tag_123\n        /* \"@openzeppelin/contracts-upgradeable/proxy/utils/UUPSUpgradeable.sol\":1971:1991  _getImplementation() */\n      jump\t// in\n    tag_122:\n        /* \"@openzeppelin/contracts-upgradeable/proxy/utils/UUPSUpgradeable.sol\":1971:2001  _getImplementation() == __self */\n      0xffffffffffffffffffffffffffffffffffffffff\n      and\n      eq\n        /* \"@openzeppelin/contracts-upgradeable/proxy/utils/UUPSUpgradeable.sol\":1963:2050  require(_getImplementation() == __self, \"Function must be called through active proxy\") */\n      tag_124\n      jumpi\n      mload(0x40)\n      0x08c379a000000000000000000000000000000000000000000000000000000000\n      dup2\n      mstore\n      0x04\n      add\n      tag_125\n      swap1\n      tag_126\n      jump\t// in\n    tag_125:\n      mload(0x40)\n      dup1\n      swap2\n      sub\n      swap1\n      revert\n    tag_124:\n        /* \"@openzeppelin/contracts-upgradeable/proxy/utils/UUPSUpgradeable.sol\":3468:3504  _authorizeUpgrade(newImplementation) */\n      tag_128\n        /* \"@openzeppelin/contracts-upgradeable/proxy/utils/UUPSUpgradeable.sol\":3486:3503  newImplementation */\n      dup2\n        /* \"@openzeppelin/contracts-upgradeable/proxy/utils/UUPSUpgradeable.sol\":3468:3485  _authorizeUpgrade */\n      tag_129\n        /* \"@openzeppelin/contracts-upgradeable/proxy/utils/UUPSUpgradeable.sol\":3468:3504  _authorizeUpgrade(newImplementation) */\n      jump\t// in\n    tag_128:\n        /* \"@openzeppelin/contracts-upgradeable/proxy/utils/UUPSUpgradeable.sol\":3514:3575  _upgradeToAndCallUUPS(newImplementation, new bytes(0), false) */\n      tag_130\n        /* \"@openzeppelin/contracts-upgradeable/proxy/utils/UUPSUpgradeable.sol\":3536:3553  newImplementation */\n      dup2\n        /* \"@openzeppelin/contracts-upgradeable/proxy/utils/UUPSUpgradeable.sol\":3565:3566  0 */\n      0x00\n        /* \"@openzeppelin/contracts-upgradeable/proxy/utils/UUPSUpgradeable.sol\":3555:3567  new bytes(0) */\n      0xffffffffffffffff\n      dup2\n      gt\n      iszero\n      tag_131\n      jumpi\n      tag_132\n      tag_133\n      jump\t// in\n    tag_132:\n    tag_131:\n      mload(0x40)\n      swap1\n      dup1\n      dup3\n      mstore\n      dup1\n      0x1f\n      add\n      not(0x1f)\n      and\n      0x20\n      add\n      dup3\n      add\n      0x40\n      mstore\n      dup1\n      iszero\n      tag_134\n      jumpi\n      dup2\n      0x20\n      add\n      0x01\n      dup3\n      mul\n      dup1\n      calldatasize\n      dup4\n      calldatacopy\n      dup1\n      dup3\n      add\n      swap2\n      pop\n      pop\n      swap1\n      pop\n    tag_134:\n      pop\n        /* \"@openzeppelin/contracts-upgradeable/proxy/utils/UUPSUpgradeable.sol\":3569:3574  false */\n      0x00\n        /* \"@openzeppelin/contracts-upgradeable/proxy/utils/UUPSUpgradeable.sol\":3514:3535  _upgradeToAndCallUUPS */\n      tag_135\n        /* \"@openzeppelin/contracts-upgradeable/proxy/utils/UUPSUpgradeable.sol\":3514:3575  _upgradeToAndCallUUPS(newImplementation, new bytes(0), false) */\n      jump\t// in\n    tag_130:\n        /* \"@openzeppelin/contracts-upgradeable/proxy/utils/UUPSUpgradeable.sol\":3387:3582  function upgradeTo(address newImplementation) public virtual onlyProxy {... */\n      pop\n      jump\t// out\n        /* \"contracts/GameVault.sol\":754:949  function initialize (... */\n    tag_53:\n        /* \"@openzeppelin/contracts-upgradeable/proxy/utils/Initializable.sol\":3279:3298  bool isTopLevelCall */\n      0x00\n        /* \"@openzeppelin/contracts-upgradeable/proxy/utils/Initializable.sol\":3302:3315  _initializing */\n      dup1\n      0x01\n      swap1\n      sload\n      swap1\n      0x0100\n      exp\n      swap1\n      div\n      0xff\n      and\n        /* \"@openzeppelin/contracts-upgradeable/proxy/utils/Initializable.sol\":3301:3315  !_initializing */\n      iszero\n        /* \"@openzeppelin/contracts-upgradeable/proxy/utils/Initializable.sol\":3279:3315  bool isTopLevelCall = !_initializing */\n      swap1\n      pop\n        /* \"@openzeppelin/contracts-upgradeable/proxy/utils/Initializable.sol\":3347:3361  isTopLevelCall */\n      dup1\n        /* \"@openzeppelin/contracts-upgradeable/proxy/utils/Initializable.sol\":3347:3381  isTopLevelCall && _initialized < 1 */\n      dup1\n      iszero\n      tag_137\n      jumpi\n      pop\n        /* \"@openzeppelin/contracts-upgradeable/proxy/utils/Initializable.sol\":3380:3381  1 */\n      0x01\n        /* \"@openzeppelin/contracts-upgradeable/proxy/utils/Initializable.sol\":3365:3377  _initialized */\n      0x00\n      dup1\n      sload\n      swap1\n      0x0100\n      exp\n      swap1\n      div\n      0xff\n      and\n        /* \"@openzeppelin/contracts-upgradeable/proxy/utils/Initializable.sol\":3365:3381  _initialized < 1 */\n      0xff\n      and\n      lt\n        /* \"@openzeppelin/contracts-upgradeable/proxy/utils/Initializable.sol\":3347:3381  isTopLevelCall && _initialized < 1 */\n    tag_137:\n        /* \"@openzeppelin/contracts-upgradeable/proxy/utils/Initializable.sol\":3346:3454  (isTopLevelCall && _initialized < 1) || (!AddressUpgradeable.isContract(address(this)) && _initialized == 1) */\n      dup1\n      tag_138\n      jumpi\n      pop\n        /* \"@openzeppelin/contracts-upgradeable/proxy/utils/Initializable.sol\":3388:3432  AddressUpgradeable.isContract(address(this)) */\n      tag_139\n        /* \"@openzeppelin/contracts-upgradeable/proxy/utils/Initializable.sol\":3426:3430  this */\n      address\n        /* \"@openzeppelin/contracts-upgradeable/proxy/utils/Initializable.sol\":3388:3417  AddressUpgradeable.isContract */\n      tag_140\n        /* \"@openzeppelin/contracts-upgradeable/proxy/utils/Initializable.sol\":3388:3432  AddressUpgradeable.isContract(address(this)) */\n      jump\t// in\n    tag_139:\n        /* \"@openzeppelin/contracts-upgradeable/proxy/utils/Initializable.sol\":3387:3432  !AddressUpgradeable.isContract(address(this)) */\n      iszero\n        /* \"@openzeppelin/contracts-upgradeable/proxy/utils/Initializable.sol\":3387:3453  !AddressUpgradeable.isContract(address(this)) && _initialized == 1 */\n      dup1\n      iszero\n      tag_141\n      jumpi\n      pop\n        /* \"@openzeppelin/contracts-upgradeable/proxy/utils/Initializable.sol\":3452:3453  1 */\n      0x01\n        /* \"@openzeppelin/contracts-upgradeable/proxy/utils/Initializable.sol\":3436:3448  _initialized */\n      0x00\n      dup1\n      sload\n      swap1\n      0x0100\n      exp\n      swap1\n      div\n      0xff\n      and\n        /* \"@openzeppelin/contracts-upgradeable/proxy/utils/Initializable.sol\":3436:3453  _initialized == 1 */\n      0xff\n      and\n      eq\n        /* \"@openzeppelin/contracts-upgradeable/proxy/utils/Initializable.sol\":3387:3453  !AddressUpgradeable.isContract(address(this)) && _initialized == 1 */\n    tag_141:\n        /* \"@openzeppelin/contracts-upgradeable/proxy/utils/Initializable.sol\":3346:3454  (isTopLevelCall && _initialized < 1) || (!AddressUpgradeable.isContract(address(this)) && _initialized == 1) */\n    tag_138:\n        /* \"@openzeppelin/contracts-upgradeable/proxy/utils/Initializable.sol\":3325:3526  require(... */\n      tag_142\n      jumpi\n      mload(0x40)\n      0x08c379a000000000000000000000000000000000000000000000000000000000\n      dup2\n      mstore\n      0x04\n      add\n      tag_143\n      swap1\n      tag_144\n      jump\t// in\n    tag_143:\n      mload(0x40)\n      dup1\n      swap2\n      sub\n      swap1\n      revert\n    tag_142:\n        /* \"@openzeppelin/contracts-upgradeable/proxy/utils/Initializable.sol\":3551:3552  1 */\n      0x01\n        /* \"@openzeppelin/contracts-upgradeable/proxy/utils/Initializable.sol\":3536:3548  _initialized */\n      0x00\n      dup1\n        /* \"@openzeppelin/contracts-upgradeable/proxy/utils/Initializable.sol\":3536:3552  _initialized = 1 */\n      0x0100\n      exp\n      dup2\n      sload\n      dup2\n      0xff\n      mul\n      not\n      and\n      swap1\n      dup4\n      0xff\n      and\n      mul\n      or\n      swap1\n      sstore\n      pop\n        /* \"@openzeppelin/contracts-upgradeable/proxy/utils/Initializable.sol\":3566:3580  isTopLevelCall */\n      dup1\n        /* \"@openzeppelin/contracts-upgradeable/proxy/utils/Initializable.sol\":3562:3627  if (isTopLevelCall) {... */\n      iszero\n      tag_145\n      jumpi\n        /* \"@openzeppelin/contracts-upgradeable/proxy/utils/Initializable.sol\":3612:3616  true */\n      0x01\n        /* \"@openzeppelin/contracts-upgradeable/proxy/utils/Initializable.sol\":3596:3609  _initializing */\n      0x00\n      0x01\n        /* \"@openzeppelin/contracts-upgradeable/proxy/utils/Initializable.sol\":3596:3616  _initializing = true */\n      0x0100\n      exp\n      dup2\n      sload\n      dup2\n      0xff\n      mul\n      not\n      and\n      swap1\n      dup4\n      iszero\n      iszero\n      mul\n      or\n      swap1\n      sstore\n      pop\n        /* \"@openzeppelin/contracts-upgradeable/proxy/utils/Initializable.sol\":3562:3627  if (isTopLevelCall) {... */\n    tag_145:\n        /* \"contracts/GameVault.sol\":886:893  _tether */\n      dup3\n        /* \"contracts/GameVault.sol\":859:865  tether */\n      0xfb\n      0x00\n        /* \"contracts/GameVault.sol\":859:894  tether = IERC20Upgradeable(_tether) */\n      0x0100\n      exp\n      dup2\n      sload\n      dup2\n      0xffffffffffffffffffffffffffffffffffffffff\n      mul\n      not\n      and\n      swap1\n      dup4\n      0xffffffffffffffffffffffffffffffffffffffff\n      and\n      mul\n      or\n      swap1\n      sstore\n      pop\n        /* \"contracts/GameVault.sol\":904:942  _setupRole(DEFAULT_ADMIN_ROLE, _owner) */\n      tag_147\n        /* \"@openzeppelin/contracts-upgradeable/access/AccessControlUpgradeable.sol\":2495:2499  0x00 */\n      0x00\n        /* \"contracts/GameVault.sol\":915:933  DEFAULT_ADMIN_ROLE */\n      dup1\n      shl\n        /* \"contracts/GameVault.sol\":935:941  _owner */\n      dup4\n        /* \"contracts/GameVault.sol\":904:914  _setupRole */\n      tag_148\n        /* \"contracts/GameVault.sol\":904:942  _setupRole(DEFAULT_ADMIN_ROLE, _owner) */\n      jump\t// in\n    tag_147:\n        /* \"@openzeppelin/contracts-upgradeable/proxy/utils/Initializable.sol\":3651:3665  isTopLevelCall */\n      dup1\n        /* \"@openzeppelin/contracts-upgradeable/proxy/utils/Initializable.sol\":3647:3746  if (isTopLevelCall) {... */\n      iszero\n      tag_149\n      jumpi\n        /* \"@openzeppelin/contracts-upgradeable/proxy/utils/Initializable.sol\":3697:3702  false */\n      0x00\n        /* \"@openzeppelin/contracts-upgradeable/proxy/utils/Initializable.sol\":3681:3694  _initializing */\n      dup1\n      0x01\n        /* \"@openzeppelin/contracts-upgradeable/proxy/utils/Initializable.sol\":3681:3702  _initializing = false */\n      0x0100\n      exp\n      dup2\n      sload\n      dup2\n      0xff\n      mul\n      not\n      and\n      swap1\n      dup4\n      iszero\n      iszero\n      mul\n      or\n      swap1\n      sstore\n      pop\n        /* \"@openzeppelin/contracts-upgradeable/proxy/utils/Initializable.sol\":3721:3735  Initialized(1) */\n      0x7f26b83ff96e1f2b6a682f133852f6798a09c465da95921460cefb3847402498\n        /* \"@openzeppelin/contracts-upgradeable/proxy/utils/Initializable.sol\":3733:3734  1 */\n      0x01\n        /* \"@openzeppelin/contracts-upgradeable/proxy/utils/Initializable.sol\":3721:3735  Initialized(1) */\n      mload(0x40)\n      tag_150\n      swap2\n      swap1\n      tag_151\n      jump\t// in\n    tag_150:\n      mload(0x40)\n      dup1\n      swap2\n      sub\n      swap1\n      log1\n        /* \"@openzeppelin/contracts-upgradeable/proxy/utils/Initializable.sol\":3647:3746  if (isTopLevelCall) {... */\n    tag_149:\n        /* \"@openzeppelin/contracts-upgradeable/proxy/utils/Initializable.sol\":3269:3752  {... */\n      pop\n        /* \"contracts/GameVault.sol\":754:949  function initialize (... */\n      pop\n      pop\n      jump\t// out\n        /* \"@openzeppelin/contracts-upgradeable/proxy/utils/UUPSUpgradeable.sol\":3901:4121  function upgradeToAndCall(address newImplementation, bytes memory data) public payable virtual onlyProxy {... */\n    tag_57:\n        /* \"@openzeppelin/contracts-upgradeable/proxy/utils/UUPSUpgradeable.sol\":1898:1904  __self */\n      immutable(\"0x3f2cb8b8a6f6ba8772056c1e4910fb442737deea593ec84e00cbccee66f6d0e1\")\n        /* \"@openzeppelin/contracts-upgradeable/proxy/utils/UUPSUpgradeable.sol\":1881:1904  address(this) != __self */\n      0xffffffffffffffffffffffffffffffffffffffff\n      and\n        /* \"@openzeppelin/contracts-upgradeable/proxy/utils/UUPSUpgradeable.sol\":1889:1893  this */\n      address\n        /* \"@openzeppelin/contracts-upgradeable/proxy/utils/UUPSUpgradeable.sol\":1881:1904  address(this) != __self */\n      0xffffffffffffffffffffffffffffffffffffffff\n      and\n      sub\n        /* \"@openzeppelin/contracts-upgradeable/proxy/utils/UUPSUpgradeable.sol\":1873:1953  require(address(this) != __self, \"Function must be called through delegatecall\") */\n      tag_153\n      jumpi\n      mload(0x40)\n      0x08c379a000000000000000000000000000000000000000000000000000000000\n      dup2\n      mstore\n      0x04\n      add\n      tag_154\n      swap1\n      tag_121\n      jump\t// in\n    tag_154:\n      mload(0x40)\n      dup1\n      swap2\n      sub\n      swap1\n      revert\n    tag_153:\n        /* \"@openzeppelin/contracts-upgradeable/proxy/utils/UUPSUpgradeable.sol\":1995:2001  __self */\n      immutable(\"0x3f2cb8b8a6f6ba8772056c1e4910fb442737deea593ec84e00cbccee66f6d0e1\")\n        /* \"@openzeppelin/contracts-upgradeable/proxy/utils/UUPSUpgradeable.sol\":1971:2001  _getImplementation() == __self */\n      0xffffffffffffffffffffffffffffffffffffffff\n      and\n        /* \"@openzeppelin/contracts-upgradeable/proxy/utils/UUPSUpgradeable.sol\":1971:1991  _getImplementation() */\n      tag_155\n        /* \"@openzeppelin/contracts-upgradeable/proxy/utils/UUPSUpgradeable.sol\":1971:1989  _getImplementation */\n      tag_123\n        /* \"@openzeppelin/contracts-upgradeable/proxy/utils/UUPSUpgradeable.sol\":1971:1991  _getImplementation() */\n      jump\t// in\n    tag_155:\n        /* \"@openzeppelin/contracts-upgradeable/proxy/utils/UUPSUpgradeable.sol\":1971:2001  _getImplementation() == __self */\n      0xffffffffffffffffffffffffffffffffffffffff\n      and\n      eq\n        /* \"@openzeppelin/contracts-upgradeable/proxy/utils/UUPSUpgradeable.sol\":1963:2050  require(_getImplementation() == __self, \"Function must be called through active proxy\") */\n      tag_156\n      jumpi\n      mload(0x40)\n      0x08c379a000000000000000000000000000000000000000000000000000000000\n      dup2\n      mstore\n      0x04\n      add\n      tag_157\n      swap1\n      tag_126\n      jump\t// in\n    tag_157:\n      mload(0x40)\n      dup1\n      swap2\n      sub\n      swap1\n      revert\n    tag_156:\n        /* \"@openzeppelin/contracts-upgradeable/proxy/utils/UUPSUpgradeable.sol\":4016:4052  _authorizeUpgrade(newImplementation) */\n      tag_159\n        /* \"@openzeppelin/contracts-upgradeable/proxy/utils/UUPSUpgradeable.sol\":4034:4051  newImplementation */\n      dup3\n        /* \"@openzeppelin/contracts-upgradeable/proxy/utils/UUPSUpgradeable.sol\":4016:4033  _authorizeUpgrade */\n      tag_129\n        /* \"@openzeppelin/contracts-upgradeable/proxy/utils/UUPSUpgradeable.sol\":4016:4052  _authorizeUpgrade(newImplementation) */\n      jump\t// in\n    tag_159:\n        /* \"@openzeppelin/contracts-upgradeable/proxy/utils/UUPSUpgradeable.sol\":4062:4114  _upgradeToAndCallUUPS(newImplementation, data, true) */\n      tag_160\n        /* \"@openzeppelin/contracts-upgradeable/proxy/utils/UUPSUpgradeable.sol\":4084:4101  newImplementation */\n      dup3\n        /* \"@openzeppelin/contracts-upgradeable/proxy/utils/UUPSUpgradeable.sol\":4103:4107  data */\n      dup3\n        /* \"@openzeppelin/contracts-upgradeable/proxy/utils/UUPSUpgradeable.sol\":4109:4113  true */\n      0x01\n        /* \"@openzeppelin/contracts-upgradeable/proxy/utils/UUPSUpgradeable.sol\":4062:4083  _upgradeToAndCallUUPS */\n      tag_135\n        /* \"@openzeppelin/contracts-upgradeable/proxy/utils/UUPSUpgradeable.sol\":4062:4114  _upgradeToAndCallUUPS(newImplementation, data, true) */\n      jump\t// in\n    tag_160:\n        /* \"@openzeppelin/contracts-upgradeable/proxy/utils/UUPSUpgradeable.sol\":3901:4121  function upgradeToAndCall(address newImplementation, bytes memory data) public payable virtual onlyProxy {... */\n      pop\n      pop\n      jump\t// out\n        /* \"@openzeppelin/contracts-upgradeable/proxy/utils/UUPSUpgradeable.sol\":3006:3137  function proxiableUUID() external view virtual override notDelegated returns (bytes32) {... */\n    tag_60:\n        /* \"@openzeppelin/contracts-upgradeable/proxy/utils/UUPSUpgradeable.sol\":3084:3091  bytes32 */\n      0x00\n        /* \"@openzeppelin/contracts-upgradeable/proxy/utils/UUPSUpgradeable.sol\":2333:2339  __self */\n      immutable(\"0x3f2cb8b8a6f6ba8772056c1e4910fb442737deea593ec84e00cbccee66f6d0e1\")\n        /* \"@openzeppelin/contracts-upgradeable/proxy/utils/UUPSUpgradeable.sol\":2316:2339  address(this) == __self */\n      0xffffffffffffffffffffffffffffffffffffffff\n      and\n        /* \"@openzeppelin/contracts-upgradeable/proxy/utils/UUPSUpgradeable.sol\":2324:2328  this */\n      address\n        /* \"@openzeppelin/contracts-upgradeable/proxy/utils/UUPSUpgradeable.sol\":2316:2339  address(this) == __self */\n      0xffffffffffffffffffffffffffffffffffffffff\n      and\n      eq\n        /* \"@openzeppelin/contracts-upgradeable/proxy/utils/UUPSUpgradeable.sol\":2308:2400  require(address(this) == __self, \"UUPSUpgradeable: must not be called through delegatecall\") */\n      tag_162\n      jumpi\n      mload(0x40)\n      0x08c379a000000000000000000000000000000000000000000000000000000000\n      dup2\n      mstore\n      0x04\n      add\n      tag_163\n      swap1\n      tag_164\n      jump\t// in\n    tag_163:\n      mload(0x40)\n      dup1\n      swap2\n      sub\n      swap1\n      revert\n    tag_162:\n        /* \"@openzeppelin/contracts-upgradeable/proxy/ERC1967/ERC1967UpgradeUpgradeable.sol\":1312:1378  0x360894a13ba1a3210667c828492db98dca3e2076cc3735a920a3ca505d382bbc */\n      0x360894a13ba1a3210667c828492db98dca3e2076cc3735a920a3ca505d382bbc\n        /* \"@openzeppelin/contracts-upgradeable/proxy/utils/UUPSUpgradeable.sol\":3110:3130  _IMPLEMENTATION_SLOT */\n      0x00\n      shl\n        /* \"@openzeppelin/contracts-upgradeable/proxy/utils/UUPSUpgradeable.sol\":3103:3130  return _IMPLEMENTATION_SLOT */\n      swap1\n      pop\n        /* \"@openzeppelin/contracts-upgradeable/proxy/utils/UUPSUpgradeable.sol\":3006:3137  function proxiableUUID() external view virtual override notDelegated returns (bytes32) {... */\n      swap1\n      jump\t// out\n        /* \"contracts/GameVault.sol\":2049:2263  function claimRewardAdminList(address[] memory _playerSet) external onlyRole(DEFAULT_ADMIN_ROLE) {... */\n    tag_66:\n        /* \"@openzeppelin/contracts-upgradeable/access/AccessControlUpgradeable.sol\":2495:2499  0x00 */\n      0x00\n        /* \"contracts/GameVault.sol\":2126:2144  DEFAULT_ADMIN_ROLE */\n      dup1\n      shl\n        /* \"@openzeppelin/contracts-upgradeable/access/AccessControlUpgradeable.sol\":2928:2944  _checkRole(role) */\n      tag_167\n        /* \"@openzeppelin/contracts-upgradeable/access/AccessControlUpgradeable.sol\":2939:2943  role */\n      dup2\n        /* \"@openzeppelin/contracts-upgradeable/access/AccessControlUpgradeable.sol\":2928:2938  _checkRole */\n      tag_106\n        /* \"@openzeppelin/contracts-upgradeable/access/AccessControlUpgradeable.sol\":2928:2944  _checkRole(role) */\n      jump\t// in\n    tag_167:\n        /* \"contracts/GameVault.sol\":2160:2169  uint256 i */\n      0x00\n        /* \"contracts/GameVault.sol\":2156:2257  for(uint256 i = 0 ; i< _playerSet.length; i++){... */\n    tag_169:\n        /* \"contracts/GameVault.sol\":2179:2189  _playerSet */\n      dup3\n        /* \"contracts/GameVault.sol\":2179:2196  _playerSet.length */\n      mload\n        /* \"contracts/GameVault.sol\":2176:2177  i */\n      dup2\n        /* \"contracts/GameVault.sol\":2176:2196  i< _playerSet.length */\n      lt\n        /* \"contracts/GameVault.sol\":2156:2257  for(uint256 i = 0 ; i< _playerSet.length; i++){... */\n      iszero\n      tag_170\n      jumpi\n        /* \"contracts/GameVault.sol\":2215:2246  claimRewardAdmin(_playerSet[i]) */\n      tag_172\n        /* \"contracts/GameVault.sol\":2232:2242  _playerSet */\n      dup4\n        /* \"contracts/GameVault.sol\":2243:2244  i */\n      dup3\n        /* \"contracts/GameVault.sol\":2232:2245  _playerSet[i] */\n      dup2\n      mload\n      dup2\n      lt\n      tag_173\n      jumpi\n      tag_174\n      tag_175\n      jump\t// in\n    tag_174:\n    tag_173:\n      0x20\n      mul\n      0x20\n      add\n      add\n      mload\n        /* \"contracts/GameVault.sol\":2215:2231  claimRewardAdmin */\n      tag_176\n        /* \"contracts/GameVault.sol\":2215:2246  claimRewardAdmin(_playerSet[i]) */\n      jump\t// in\n    tag_172:\n        /* \"contracts/GameVault.sol\":2198:2201  i++ */\n      dup1\n      dup1\n      0x01\n      add\n      swap2\n      pop\n      pop\n        /* \"contracts/GameVault.sol\":2156:2257  for(uint256 i = 0 ; i< _playerSet.length; i++){... */\n      jump(tag_169)\n    tag_170:\n      pop\n        /* \"contracts/GameVault.sol\":2049:2263  function claimRewardAdminList(address[] memory _playerSet) external onlyRole(DEFAULT_ADMIN_ROLE) {... */\n      pop\n      pop\n      jump\t// out\n        /* \"contracts/GameVault.sol\":2268:2372  function playerBalance() external view returns(uint)  {... */\n    tag_69:\n        /* \"contracts/GameVault.sol\":2315:2319  uint */\n      0x00\n        /* \"contracts/GameVault.sol\":2339:2353  playersBalance */\n      0xfc\n        /* \"contracts/GameVault.sol\":2339:2365  playersBalance[msg.sender] */\n      0x00\n        /* \"contracts/GameVault.sol\":2354:2364  msg.sender */\n      caller\n        /* \"contracts/GameVault.sol\":2339:2365  playersBalance[msg.sender] */\n      0xffffffffffffffffffffffffffffffffffffffff\n      and\n      0xffffffffffffffffffffffffffffffffffffffff\n      and\n      dup2\n      mstore\n      0x20\n      add\n      swap1\n      dup2\n      mstore\n      0x20\n      add\n      0x00\n      keccak256\n      sload\n        /* \"contracts/GameVault.sol\":2332:2365  return playersBalance[msg.sender] */\n      swap1\n      pop\n        /* \"contracts/GameVault.sol\":2268:2372  function playerBalance() external view returns(uint)  {... */\n      swap1\n      jump\t// out\n        /* \"@openzeppelin/contracts-upgradeable/access/AccessControlUpgradeable.sol\":3329:3474  function hasRole(bytes32 role, address account) public view virtual override returns (bool) {... */\n    tag_75:\n        /* \"@openzeppelin/contracts-upgradeable/access/AccessControlUpgradeable.sol\":3415:3419  bool */\n      0x00\n        /* \"@openzeppelin/contracts-upgradeable/access/AccessControlUpgradeable.sol\":3438:3444  _roles */\n      0xc9\n        /* \"@openzeppelin/contracts-upgradeable/access/AccessControlUpgradeable.sol\":3438:3450  _roles[role] */\n      0x00\n        /* \"@openzeppelin/contracts-upgradeable/access/AccessControlUpgradeable.sol\":3445:3449  role */\n      dup5\n        /* \"@openzeppelin/contracts-upgradeable/access/AccessControlUpgradeable.sol\":3438:3450  _roles[role] */\n      dup2\n      mstore\n      0x20\n      add\n      swap1\n      dup2\n      mstore\n      0x20\n      add\n      0x00\n      keccak256\n        /* \"@openzeppelin/contracts-upgradeable/access/AccessControlUpgradeable.sol\":3438:3458  _roles[role].members */\n      0x00\n      add\n        /* \"@openzeppelin/contracts-upgradeable/access/AccessControlUpgradeable.sol\":3438:3467  _roles[role].members[account] */\n      0x00\n        /* \"@openzeppelin/contracts-upgradeable/access/AccessControlUpgradeable.sol\":3459:3466  account */\n      dup4\n        /* \"@openzeppelin/contracts-upgradeable/access/AccessControlUpgradeable.sol\":3438:3467  _roles[role].members[account] */\n      0xffffffffffffffffffffffffffffffffffffffff\n      and\n      0xffffffffffffffffffffffffffffffffffffffff\n      and\n      dup2\n      mstore\n      0x20\n      add\n      swap1\n      dup2\n      mstore\n      0x20\n      add\n      0x00\n      keccak256\n      0x00\n      swap1\n      sload\n      swap1\n      0x0100\n      exp\n      swap1\n      div\n      0xff\n      and\n        /* \"@openzeppelin/contracts-upgradeable/access/AccessControlUpgradeable.sol\":3431:3467  return _roles[role].members[account] */\n      swap1\n      pop\n        /* \"@openzeppelin/contracts-upgradeable/access/AccessControlUpgradeable.sol\":3329:3474  function hasRole(bytes32 role, address account) public view virtual override returns (bool) {... */\n      swap3\n      swap2\n      pop\n      pop\n      jump\t// out\n        /* \"@openzeppelin/contracts-upgradeable/access/AccessControlUpgradeable.sol\":2450:2499  bytes32 public constant DEFAULT_ADMIN_ROLE = 0x00 */\n    tag_79:\n        /* \"@openzeppelin/contracts-upgradeable/access/AccessControlUpgradeable.sol\":2495:2499  0x00 */\n      0x00\n        /* \"@openzeppelin/contracts-upgradeable/access/AccessControlUpgradeable.sol\":2450:2499  bytes32 public constant DEFAULT_ADMIN_ROLE = 0x00 */\n      dup1\n      shl\n      dup2\n      jump\t// out\n        /* \"contracts/GameVault.sol\":1200:1619  function claimReward() external {... */\n    tag_83:\n        /* \"contracts/GameVault.sol\":1279:1280  0 */\n      0x00\n        /* \"contracts/GameVault.sol\":1250:1264  playersBalance */\n      0xfc\n        /* \"contracts/GameVault.sol\":1250:1276  playersBalance[msg.sender] */\n      0x00\n        /* \"contracts/GameVault.sol\":1265:1275  msg.sender */\n      caller\n        /* \"contracts/GameVault.sol\":1250:1276  playersBalance[msg.sender] */\n      0xffffffffffffffffffffffffffffffffffffffff\n      and\n      0xffffffffffffffffffffffffffffffffffffffff\n      and\n      dup2\n      mstore\n      0x20\n      add\n      swap1\n      dup2\n      mstore\n      0x20\n      add\n      0x00\n      keccak256\n      sload\n        /* \"contracts/GameVault.sol\":1250:1280  playersBalance[msg.sender] > 0 */\n      gt\n        /* \"contracts/GameVault.sol\":1242:1311  require(playersBalance[msg.sender] > 0 , \"You don't have any reward\") */\n      tag_180\n      jumpi\n      mload(0x40)\n      0x08c379a000000000000000000000000000000000000000000000000000000000\n      dup2\n      mstore\n      0x04\n      add\n      tag_181\n      swap1\n      tag_182\n      jump\t// in\n    tag_181:\n      mload(0x40)\n      dup1\n      swap2\n      sub\n      swap1\n      revert\n    tag_180:\n        /* \"contracts/GameVault.sol\":1359:1365  tether */\n      0xfb\n      0x00\n      swap1\n      sload\n      swap1\n      0x0100\n      exp\n      swap1\n      div\n      0xffffffffffffffffffffffffffffffffffffffff\n      and\n        /* \"contracts/GameVault.sol\":1359:1375  tether.balanceOf */\n      0xffffffffffffffffffffffffffffffffffffffff\n      and\n      0x70a08231\n        /* \"contracts/GameVault.sol\":1384:1388  this */\n      address\n        /* \"contracts/GameVault.sol\":1359:1390  tether.balanceOf(address(this)) */\n      mload(0x40)\n      dup3\n      0xffffffff\n      and\n      0xe0\n      shl\n      dup2\n      mstore\n      0x04\n      add\n      tag_183\n      swap2\n      swap1\n      tag_184\n      jump\t// in\n    tag_183:\n      0x20\n      mload(0x40)\n      dup1\n      dup4\n      sub\n      dup2\n      dup7\n      gas\n      staticcall\n      iszero\n      dup1\n      iszero\n      tag_186\n      jumpi\n      returndatasize\n      0x00\n      dup1\n      returndatacopy\n      revert(0x00, returndatasize)\n    tag_186:\n      pop\n      pop\n      pop\n      pop\n      mload(0x40)\n      returndatasize\n      not(0x1f)\n      0x1f\n      dup3\n      add\n      and\n      dup3\n      add\n      dup1\n      0x40\n      mstore\n      pop\n      dup2\n      add\n      swap1\n      tag_187\n      swap2\n      swap1\n      tag_188\n      jump\t// in\n    tag_187:\n        /* \"contracts/GameVault.sol\":1329:1343  playersBalance */\n      0xfc\n        /* \"contracts/GameVault.sol\":1329:1355  playersBalance[msg.sender] */\n      0x00\n        /* \"contracts/GameVault.sol\":1344:1354  msg.sender */\n      caller\n        /* \"contracts/GameVault.sol\":1329:1355  playersBalance[msg.sender] */\n      0xffffffffffffffffffffffffffffffffffffffff\n      and\n      0xffffffffffffffffffffffffffffffffffffffff\n      and\n      dup2\n      mstore\n      0x20\n      add\n      swap1\n      dup2\n      mstore\n      0x20\n      add\n      0x00\n      keccak256\n      sload\n        /* \"contracts/GameVault.sol\":1329:1390  playersBalance[msg.sender] <= tether.balanceOf(address(this)) */\n      gt\n      iszero\n        /* \"contracts/GameVault.sol\":1321:1428  require(playersBalance[msg.sender] <= tether.balanceOf(address(this)), \"You can't withdraw at this moment\") */\n      tag_189\n      jumpi\n      mload(0x40)\n      0x08c379a000000000000000000000000000000000000000000000000000000000\n      dup2\n      mstore\n      0x04\n      add\n      tag_190\n      swap1\n      tag_191\n      jump\t// in\n    tag_190:\n      mload(0x40)\n      dup1\n      swap2\n      sub\n      swap1\n      revert\n    tag_189:\n        /* \"contracts/GameVault.sol\":1438:1452  uint256 amount */\n      0x00\n        /* \"contracts/GameVault.sol\":1455:1469  playersBalance */\n      0xfc\n        /* \"contracts/GameVault.sol\":1455:1481  playersBalance[msg.sender] */\n      0x00\n        /* \"contracts/GameVault.sol\":1470:1480  msg.sender */\n      caller\n        /* \"contracts/GameVault.sol\":1455:1481  playersBalance[msg.sender] */\n      0xffffffffffffffffffffffffffffffffffffffff\n      and\n      0xffffffffffffffffffffffffffffffffffffffff\n      and\n      dup2\n      mstore\n      0x20\n      add\n      swap1\n      dup2\n      mstore\n      0x20\n      add\n      0x00\n      keccak256\n      sload\n        /* \"contracts/GameVault.sol\":1438:1481  uint256 amount = playersBalance[msg.sender] */\n      swap1\n      pop\n        /* \"contracts/GameVault.sol\":1520:1521  0 */\n      0x00\n        /* \"contracts/GameVault.sol\":1491:1505  playersBalance */\n      0xfc\n        /* \"contracts/GameVault.sol\":1491:1517  playersBalance[msg.sender] */\n      0x00\n        /* \"contracts/GameVault.sol\":1506:1516  msg.sender */\n      caller\n        /* \"contracts/GameVault.sol\":1491:1517  playersBalance[msg.sender] */\n      0xffffffffffffffffffffffffffffffffffffffff\n      and\n      0xffffffffffffffffffffffffffffffffffffffff\n      and\n      dup2\n      mstore\n      0x20\n      add\n      swap1\n      dup2\n      mstore\n      0x20\n      add\n      0x00\n      keccak256\n        /* \"contracts/GameVault.sol\":1491:1521  playersBalance[msg.sender] = 0 */\n      dup2\n      swap1\n      sstore\n      pop\n        /* \"contracts/GameVault.sol\":1531:1537  tether */\n      0xfb\n      0x00\n      swap1\n      sload\n      swap1\n      0x0100\n      exp\n      swap1\n      div\n      0xffffffffffffffffffffffffffffffffffffffff\n      and\n        /* \"contracts/GameVault.sol\":1531:1546  tether.transfer */\n      0xffffffffffffffffffffffffffffffffffffffff\n      and\n      0xa9059cbb\n        /* \"contracts/GameVault.sol\":1547:1557  msg.sender */\n      caller\n        /* \"contracts/GameVault.sol\":1559:1565  amount */\n      dup4\n        /* \"contracts/GameVault.sol\":1531:1566  tether.transfer(msg.sender, amount) */\n      mload(0x40)\n      dup4\n      0xffffffff\n      and\n      0xe0\n      shl\n      dup2\n      mstore\n      0x04\n      add\n      tag_192\n      swap3\n      swap2\n      swap1\n      tag_193\n      jump\t// in\n    tag_192:\n      0x20\n      mload(0x40)\n      dup1\n      dup4\n      sub\n      dup2\n      0x00\n      dup8\n      gas\n      call\n      iszero\n      dup1\n      iszero\n      tag_195\n      jumpi\n      returndatasize\n      0x00\n      dup1\n      returndatacopy\n      revert(0x00, returndatasize)\n    tag_195:\n      pop\n      pop\n      pop\n      pop\n      mload(0x40)\n      returndatasize\n      not(0x1f)\n      0x1f\n      dup3\n      add\n      and\n      dup3\n      add\n      dup1\n      0x40\n      mstore\n      pop\n      dup2\n      add\n      swap1\n      tag_196\n      swap2\n      swap1\n      tag_197\n      jump\t// in\n    tag_196:\n      pop\n        /* \"contracts/GameVault.sol\":1581:1612  ClaimReward(msg.sender, amount) */\n      0xba8de60c3403ec381d1d484652ea1980e3c3e56359195c92525bff4ce47ad98e\n        /* \"contracts/GameVault.sol\":1593:1603  msg.sender */\n      caller\n        /* \"contracts/GameVault.sol\":1605:1611  amount */\n      dup3\n        /* \"contracts/GameVault.sol\":1581:1612  ClaimReward(msg.sender, amount) */\n      mload(0x40)\n      tag_198\n      swap3\n      swap2\n      swap1\n      tag_193\n      jump\t// in\n    tag_198:\n      mload(0x40)\n      dup1\n      swap2\n      sub\n      swap1\n      log1\n        /* \"contracts/GameVault.sol\":1232:1619  {... */\n      pop\n        /* \"contracts/GameVault.sol\":1200:1619  function claimReward() external {... */\n      jump\t// out\n        /* \"contracts/GameVault.sol\":2377:2525  function playerBalanceAdmin(address _player) external view onlyRole(DEFAULT_ADMIN_ROLE) returns(uint){... */\n    tag_87:\n        /* \"contracts/GameVault.sol\":2473:2477  uint */\n      0x00\n        /* \"@openzeppelin/contracts-upgradeable/access/AccessControlUpgradeable.sol\":2495:2499  0x00 */\n      dup1\n        /* \"contracts/GameVault.sol\":2445:2463  DEFAULT_ADMIN_ROLE */\n      0x00\n      shl\n        /* \"@openzeppelin/contracts-upgradeable/access/AccessControlUpgradeable.sol\":2928:2944  _checkRole(role) */\n      tag_200\n        /* \"@openzeppelin/contracts-upgradeable/access/AccessControlUpgradeable.sol\":2939:2943  role */\n      dup2\n        /* \"@openzeppelin/contracts-upgradeable/access/AccessControlUpgradeable.sol\":2928:2938  _checkRole */\n      tag_106\n        /* \"@openzeppelin/contracts-upgradeable/access/AccessControlUpgradeable.sol\":2928:2944  _checkRole(role) */\n      jump\t// in\n    tag_200:\n        /* \"contracts/GameVault.sol\":2495:2509  playersBalance */\n      0xfc\n        /* \"contracts/GameVault.sol\":2495:2518  playersBalance[_player] */\n      0x00\n        /* \"contracts/GameVault.sol\":2510:2517  _player */\n      dup5\n        /* \"contracts/GameVault.sol\":2495:2518  playersBalance[_player] */\n      0xffffffffffffffffffffffffffffffffffffffff\n      and\n      0xffffffffffffffffffffffffffffffffffffffff\n      and\n      dup2\n      mstore\n      0x20\n      add\n      swap1\n      dup2\n      mstore\n      0x20\n      add\n      0x00\n      keccak256\n      sload\n        /* \"contracts/GameVault.sol\":2488:2518  return playersBalance[_player] */\n      swap2\n      pop\n        /* \"contracts/GameVault.sol\":2377:2525  function playerBalanceAdmin(address _player) external view onlyRole(DEFAULT_ADMIN_ROLE) returns(uint){... */\n      pop\n      swap2\n      swap1\n      pop\n      jump\t// out\n        /* \"@openzeppelin/contracts-upgradeable/access/AccessControlUpgradeable.sol\":5684:5831  function revokeRole(bytes32 role, address account) public virtual override onlyRole(getRoleAdmin(role)) {... */\n    tag_92:\n        /* \"@openzeppelin/contracts-upgradeable/access/AccessControlUpgradeable.sol\":5768:5786  getRoleAdmin(role) */\n      tag_202\n        /* \"@openzeppelin/contracts-upgradeable/access/AccessControlUpgradeable.sol\":5781:5785  role */\n      dup3\n        /* \"@openzeppelin/contracts-upgradeable/access/AccessControlUpgradeable.sol\":5768:5780  getRoleAdmin */\n      tag_32\n        /* \"@openzeppelin/contracts-upgradeable/access/AccessControlUpgradeable.sol\":5768:5786  getRoleAdmin(role) */\n      jump\t// in\n    tag_202:\n        /* \"@openzeppelin/contracts-upgradeable/access/AccessControlUpgradeable.sol\":2928:2944  _checkRole(role) */\n      tag_204\n        /* \"@openzeppelin/contracts-upgradeable/access/AccessControlUpgradeable.sol\":2939:2943  role */\n      dup2\n        /* \"@openzeppelin/contracts-upgradeable/access/AccessControlUpgradeable.sol\":2928:2938  _checkRole */\n      tag_106\n        /* \"@openzeppelin/contracts-upgradeable/access/AccessControlUpgradeable.sol\":2928:2944  _checkRole(role) */\n      jump\t// in\n    tag_204:\n        /* \"@openzeppelin/contracts-upgradeable/access/AccessControlUpgradeable.sol\":5798:5824  _revokeRole(role, account) */\n      tag_206\n        /* \"@openzeppelin/contracts-upgradeable/access/AccessControlUpgradeable.sol\":5810:5814  role */\n      dup4\n        /* \"@openzeppelin/contracts-upgradeable/access/AccessControlUpgradeable.sol\":5816:5823  account */\n      dup4\n        /* \"@openzeppelin/contracts-upgradeable/access/AccessControlUpgradeable.sol\":5798:5809  _revokeRole */\n      tag_117\n        /* \"@openzeppelin/contracts-upgradeable/access/AccessControlUpgradeable.sol\":5798:5824  _revokeRole(role, account) */\n      jump\t// in\n    tag_206:\n        /* \"@openzeppelin/contracts-upgradeable/access/AccessControlUpgradeable.sol\":5684:5831  function revokeRole(bytes32 role, address account) public virtual override onlyRole(getRoleAdmin(role)) {... */\n      pop\n      pop\n      pop\n      jump\t// out\n        /* \"contracts/GameVault.sol\":954:1195  function playersReward(PlayerInfo[] calldata _playerSet) external onlyRole(DEFAULT_ADMIN_ROLE){... */\n    tag_97:\n        /* \"@openzeppelin/contracts-upgradeable/access/AccessControlUpgradeable.sol\":2495:2499  0x00 */\n      0x00\n        /* \"contracts/GameVault.sol\":1029:1047  DEFAULT_ADMIN_ROLE */\n      dup1\n      shl\n        /* \"@openzeppelin/contracts-upgradeable/access/AccessControlUpgradeable.sol\":2928:2944  _checkRole(role) */\n      tag_208\n        /* \"@openzeppelin/contracts-upgradeable/access/AccessControlUpgradeable.sol\":2939:2943  role */\n      dup2\n        /* \"@openzeppelin/contracts-upgradeable/access/AccessControlUpgradeable.sol\":2928:2938  _checkRole */\n      tag_106\n        /* \"@openzeppelin/contracts-upgradeable/access/AccessControlUpgradeable.sol\":2928:2944  _checkRole(role) */\n      jump\t// in\n    tag_208:\n        /* \"contracts/GameVault.sol\":1062:1071  uint256 i */\n      0x00\n        /* \"contracts/GameVault.sol\":1058:1189  for(uint256 i=0; i< _playerSet.length; i++) {... */\n    tag_210:\n        /* \"contracts/GameVault.sol\":1078:1088  _playerSet */\n      dup4\n      dup4\n        /* \"contracts/GameVault.sol\":1078:1095  _playerSet.length */\n      swap1\n      pop\n        /* \"contracts/GameVault.sol\":1075:1076  i */\n      dup2\n        /* \"contracts/GameVault.sol\":1075:1095  i< _playerSet.length */\n      lt\n        /* \"contracts/GameVault.sol\":1058:1189  for(uint256 i=0; i< _playerSet.length; i++) {... */\n      iszero\n      tag_211\n      jumpi\n        /* \"contracts/GameVault.sol\":1157:1167  _playerSet */\n      dup4\n      dup4\n        /* \"contracts/GameVault.sol\":1168:1169  i */\n      dup3\n        /* \"contracts/GameVault.sol\":1157:1170  _playerSet[i] */\n      dup2\n      dup2\n      lt\n      tag_213\n      jumpi\n      tag_214\n      tag_175\n      jump\t// in\n    tag_214:\n    tag_213:\n      swap1\n      pop\n      0x40\n      mul\n      add\n        /* \"contracts/GameVault.sol\":1157:1178  _playerSet[i].balance */\n      0x20\n      add\n      calldataload\n        /* \"contracts/GameVault.sol\":1116:1130  playersBalance */\n      0xfc\n        /* \"contracts/GameVault.sol\":1116:1152  playersBalance[_playerSet[i].player] */\n      0x00\n        /* \"contracts/GameVault.sol\":1131:1141  _playerSet */\n      dup7\n      dup7\n        /* \"contracts/GameVault.sol\":1142:1143  i */\n      dup6\n        /* \"contracts/GameVault.sol\":1131:1144  _playerSet[i] */\n      dup2\n      dup2\n      lt\n      tag_215\n      jumpi\n      tag_216\n      tag_175\n      jump\t// in\n    tag_216:\n    tag_215:\n      swap1\n      pop\n      0x40\n      mul\n      add\n        /* \"contracts/GameVault.sol\":1131:1151  _playerSet[i].player */\n      0x00\n      add\n      0x20\n      dup2\n      add\n      swap1\n      tag_217\n      swap2\n      swap1\n      tag_47\n      jump\t// in\n    tag_217:\n        /* \"contracts/GameVault.sol\":1116:1152  playersBalance[_playerSet[i].player] */\n      0xffffffffffffffffffffffffffffffffffffffff\n      and\n      0xffffffffffffffffffffffffffffffffffffffff\n      and\n      dup2\n      mstore\n      0x20\n      add\n      swap1\n      dup2\n      mstore\n      0x20\n      add\n      0x00\n      keccak256\n      0x00\n        /* \"contracts/GameVault.sol\":1116:1178  playersBalance[_playerSet[i].player] +=  _playerSet[i].balance */\n      dup3\n      dup3\n      sload\n      tag_218\n      swap2\n      swap1\n      tag_219\n      jump\t// in\n    tag_218:\n      swap3\n      pop\n      pop\n      dup2\n      swap1\n      sstore\n      pop\n        /* \"contracts/GameVault.sol\":1097:1100  i++ */\n      dup1\n      dup1\n      0x01\n      add\n      swap2\n      pop\n      pop\n        /* \"contracts/GameVault.sol\":1058:1189  for(uint256 i=0; i< _playerSet.length; i++) {... */\n      jump(tag_210)\n    tag_211:\n      pop\n        /* \"contracts/GameVault.sol\":954:1195  function playersReward(PlayerInfo[] calldata _playerSet) external onlyRole(DEFAULT_ADMIN_ROLE){... */\n      pop\n      pop\n      pop\n      jump\t// out\n        /* \"@openzeppelin/contracts-upgradeable/utils/introspection/ERC165Upgradeable.sol\":1060:1226  function supportsInterface(bytes4 interfaceId) public view virtual override returns (bool) {... */\n    tag_101:\n        /* \"@openzeppelin/contracts-upgradeable/utils/introspection/ERC165Upgradeable.sol\":1145:1149  bool */\n      0x00\n        /* \"@openzeppelin/contracts-upgradeable/utils/introspection/ERC165Upgradeable.sol\":1183:1219  type(IERC165Upgradeable).interfaceId */\n      0x01ffc9a700000000000000000000000000000000000000000000000000000000\n        /* \"@openzeppelin/contracts-upgradeable/utils/introspection/ERC165Upgradeable.sol\":1168:1219  interfaceId == type(IERC165Upgradeable).interfaceId */\n      not(0xffffffffffffffffffffffffffffffffffffffffffffffffffffffff)\n      and\n        /* \"@openzeppelin/contracts-upgradeable/utils/introspection/ERC165Upgradeable.sol\":1168:1179  interfaceId */\n      dup3\n        /* \"@openzeppelin/contracts-upgradeable/utils/introspection/ERC165Upgradeable.sol\":1168:1219  interfaceId == type(IERC165Upgradeable).interfaceId */\n      not(0xffffffffffffffffffffffffffffffffffffffffffffffffffffffff)\n      and\n      eq\n        /* \"@openzeppelin/contracts-upgradeable/utils/introspection/ERC165Upgradeable.sol\":1161:1219  return interfaceId == type(IERC165Upgradeable).interfaceId */\n      swap1\n      pop\n        /* \"@openzeppelin/contracts-upgradeable/utils/introspection/ERC165Upgradeable.sol\":1060:1226  function supportsInterface(bytes4 interfaceId) public view virtual override returns (bool) {... */\n      swap2\n      swap1\n      pop\n      jump\t// out\n        /* \"@openzeppelin/contracts-upgradeable/access/AccessControlUpgradeable.sol\":3768:3871  function _checkRole(bytes32 role) internal view virtual {... */\n    tag_106:\n        /* \"@openzeppelin/contracts-upgradeable/access/AccessControlUpgradeable.sol\":3834:3864  _checkRole(role, _msgSender()) */\n      tag_222\n        /* \"@openzeppelin/contracts-upgradeable/access/AccessControlUpgradeable.sol\":3845:3849  role */\n      dup2\n        /* \"@openzeppelin/contracts-upgradeable/access/AccessControlUpgradeable.sol\":3851:3863  _msgSender() */\n      tag_223\n        /* \"@openzeppelin/contracts-upgradeable/access/AccessControlUpgradeable.sol\":3851:3861  _msgSender */\n      tag_112\n        /* \"@openzeppelin/contracts-upgradeable/access/AccessControlUpgradeable.sol\":3851:3863  _msgSender() */\n      jump\t// in\n    tag_223:\n        /* \"@openzeppelin/contracts-upgradeable/access/AccessControlUpgradeable.sol\":3834:3844  _checkRole */\n      tag_224\n        /* \"@openzeppelin/contracts-upgradeable/access/AccessControlUpgradeable.sol\":3834:3864  _checkRole(role, _msgSender()) */\n      jump\t// in\n    tag_222:\n        /* \"@openzeppelin/contracts-upgradeable/access/AccessControlUpgradeable.sol\":3768:3871  function _checkRole(bytes32 role) internal view virtual {... */\n      pop\n      jump\t// out\n        /* \"@openzeppelin/contracts-upgradeable/access/AccessControlUpgradeable.sol\":7917:8150  function _grantRole(bytes32 role, address account) internal virtual {... */\n    tag_109:\n        /* \"@openzeppelin/contracts-upgradeable/access/AccessControlUpgradeable.sol\":8000:8022  hasRole(role, account) */\n      tag_226\n        /* \"@openzeppelin/contracts-upgradeable/access/AccessControlUpgradeable.sol\":8008:8012  role */\n      dup3\n        /* \"@openzeppelin/contracts-upgradeable/access/AccessControlUpgradeable.sol\":8014:8021  account */\n      dup3\n        /* \"@openzeppelin/contracts-upgradeable/access/AccessControlUpgradeable.sol\":8000:8007  hasRole */\n      tag_75\n        /* \"@openzeppelin/contracts-upgradeable/access/AccessControlUpgradeable.sol\":8000:8022  hasRole(role, account) */\n      jump\t// in\n    tag_226:\n        /* \"@openzeppelin/contracts-upgradeable/access/AccessControlUpgradeable.sol\":7995:8144  if (!hasRole(role, account)) {... */\n      tag_227\n      jumpi\n        /* \"@openzeppelin/contracts-upgradeable/access/AccessControlUpgradeable.sol\":8070:8074  true */\n      0x01\n        /* \"@openzeppelin/contracts-upgradeable/access/AccessControlUpgradeable.sol\":8038:8044  _roles */\n      0xc9\n        /* \"@openzeppelin/contracts-upgradeable/access/AccessControlUpgradeable.sol\":8038:8050  _roles[role] */\n      0x00\n        /* \"@openzeppelin/contracts-upgradeable/access/AccessControlUpgradeable.sol\":8045:8049  role */\n      dup5\n        /* \"@openzeppelin/contracts-upgradeable/access/AccessControlUpgradeable.sol\":8038:8050  _roles[role] */\n      dup2\n      mstore\n      0x20\n      add\n      swap1\n      dup2\n      mstore\n      0x20\n      add\n      0x00\n      keccak256\n        /* \"@openzeppelin/contracts-upgradeable/access/AccessControlUpgradeable.sol\":8038:8058  _roles[role].members */\n      0x00\n      add\n        /* \"@openzeppelin/contracts-upgradeable/access/AccessControlUpgradeable.sol\":8038:8067  _roles[role].members[account] */\n      0x00\n        /* \"@openzeppelin/contracts-upgradeable/access/AccessControlUpgradeable.sol\":8059:8066  account */\n      dup4\n        /* \"@openzeppelin/contracts-upgradeable/access/AccessControlUpgradeable.sol\":8038:8067  _roles[role].members[account] */\n      0xffffffffffffffffffffffffffffffffffffffff\n      and\n      0xffffffffffffffffffffffffffffffffffffffff\n      and\n      dup2\n      mstore\n      0x20\n      add\n      swap1\n      dup2\n      mstore\n      0x20\n      add\n      0x00\n      keccak256\n      0x00\n        /* \"@openzeppelin/contracts-upgradeable/access/AccessControlUpgradeable.sol\":8038:8074  _roles[role].members[account] = true */\n      0x0100\n      exp\n      dup2\n      sload\n      dup2\n      0xff\n      mul\n      not\n      and\n      swap1\n      dup4\n      iszero\n      iszero\n      mul\n      or\n      swap1\n      sstore\n      pop\n        /* \"@openzeppelin/contracts-upgradeable/access/AccessControlUpgradeable.sol\":8120:8132  _msgSender() */\n      tag_228\n        /* \"@openzeppelin/contracts-upgradeable/access/AccessControlUpgradeable.sol\":8120:8130  _msgSender */\n      tag_112\n        /* \"@openzeppelin/contracts-upgradeable/access/AccessControlUpgradeable.sol\":8120:8132  _msgSender() */\n      jump\t// in\n    tag_228:\n        /* \"@openzeppelin/contracts-upgradeable/access/AccessControlUpgradeable.sol\":8093:8133  RoleGranted(role, account, _msgSender()) */\n      0xffffffffffffffffffffffffffffffffffffffff\n      and\n        /* \"@openzeppelin/contracts-upgradeable/access/AccessControlUpgradeable.sol\":8111:8118  account */\n      dup2\n        /* \"@openzeppelin/contracts-upgradeable/access/AccessControlUpgradeable.sol\":8093:8133  RoleGranted(role, account, _msgSender()) */\n      0xffffffffffffffffffffffffffffffffffffffff\n      and\n        /* \"@openzeppelin/contracts-upgradeable/access/AccessControlUpgradeable.sol\":8105:8109  role */\n      dup4\n        /* \"@openzeppelin/contracts-upgradeable/access/AccessControlUpgradeable.sol\":8093:8133  RoleGranted(role, account, _msgSender()) */\n      0x2f8788117e7eff1d82e926ec794901d17c78024a50270940304540a733656f0d\n      mload(0x40)\n      mload(0x40)\n      dup1\n      swap2\n      sub\n      swap1\n      log4\n        /* \"@openzeppelin/contracts-upgradeable/access/AccessControlUpgradeable.sol\":7995:8144  if (!hasRole(role, account)) {... */\n    tag_227:\n        /* \"@openzeppelin/contracts-upgradeable/access/AccessControlUpgradeable.sol\":7917:8150  function _grantRole(bytes32 role, address account) internal virtual {... */\n      pop\n      pop\n      jump\t// out\n        /* \"@openzeppelin/contracts-upgradeable/utils/ContextUpgradeable.sol\":850:946  function _msgSender() internal view virtual returns (address) {... */\n    tag_112:\n        /* \"@openzeppelin/contracts-upgradeable/utils/ContextUpgradeable.sol\":903:910  address */\n      0x00\n        /* \"@openzeppelin/contracts-upgradeable/utils/ContextUpgradeable.sol\":929:939  msg.sender */\n      caller\n        /* \"@openzeppelin/contracts-upgradeable/utils/ContextUpgradeable.sol\":922:939  return msg.sender */\n      swap1\n      pop\n        /* \"@openzeppelin/contracts-upgradeable/utils/ContextUpgradeable.sol\":850:946  function _msgSender() internal view virtual returns (address) {... */\n      swap1\n      jump\t// out\n        /* \"@openzeppelin/contracts-upgradeable/access/AccessControlUpgradeable.sol\":8321:8555  function _revokeRole(bytes32 role, address account) internal virtual {... */\n    tag_117:\n        /* \"@openzeppelin/contracts-upgradeable/access/AccessControlUpgradeable.sol\":8404:8426  hasRole(role, account) */\n      tag_231\n        /* \"@openzeppelin/contracts-upgradeable/access/AccessControlUpgradeable.sol\":8412:8416  role */\n      dup3\n        /* \"@openzeppelin/contracts-upgradeable/access/AccessControlUpgradeable.sol\":8418:8425  account */\n      dup3\n        /* \"@openzeppelin/contracts-upgradeable/access/AccessControlUpgradeable.sol\":8404:8411  hasRole */\n      tag_75\n        /* \"@openzeppelin/contracts-upgradeable/access/AccessControlUpgradeable.sol\":8404:8426  hasRole(role, account) */\n      jump\t// in\n    tag_231:\n        /* \"@openzeppelin/contracts-upgradeable/access/AccessControlUpgradeable.sol\":8400:8549  if (hasRole(role, account)) {... */\n      iszero\n      tag_232\n      jumpi\n        /* \"@openzeppelin/contracts-upgradeable/access/AccessControlUpgradeable.sol\":8474:8479  false */\n      0x00\n        /* \"@openzeppelin/contracts-upgradeable/access/AccessControlUpgradeable.sol\":8442:8448  _roles */\n      0xc9\n        /* \"@openzeppelin/contracts-upgradeable/access/AccessControlUpgradeable.sol\":8442:8454  _roles[role] */\n      0x00\n        /* \"@openzeppelin/contracts-upgradeable/access/AccessControlUpgradeable.sol\":8449:8453  role */\n      dup5\n        /* \"@openzeppelin/contracts-upgradeable/access/AccessControlUpgradeable.sol\":8442:8454  _roles[role] */\n      dup2\n      mstore\n      0x20\n      add\n      swap1\n      dup2\n      mstore\n      0x20\n      add\n      0x00\n      keccak256\n        /* \"@openzeppelin/contracts-upgradeable/access/AccessControlUpgradeable.sol\":8442:8462  _roles[role].members */\n      0x00\n      add\n        /* \"@openzeppelin/contracts-upgradeable/access/AccessControlUpgradeable.sol\":8442:8471  _roles[role].members[account] */\n      0x00\n        /* \"@openzeppelin/contracts-upgradeable/access/AccessControlUpgradeable.sol\":8463:8470  account */\n      dup4\n        /* \"@openzeppelin/contracts-upgradeable/access/AccessControlUpgradeable.sol\":8442:8471  _roles[role].members[account] */\n      0xffffffffffffffffffffffffffffffffffffffff\n      and\n      0xffffffffffffffffffffffffffffffffffffffff\n      and\n      dup2\n      mstore\n      0x20\n      add\n      swap1\n      dup2\n      mstore\n      0x20\n      add\n      0x00\n      keccak256\n      0x00\n        /* \"@openzeppelin/contracts-upgradeable/access/AccessControlUpgradeable.sol\":8442:8479  _roles[role].members[account] = false */\n      0x0100\n      exp\n      dup2\n      sload\n      dup2\n      0xff\n      mul\n      not\n      and\n      swap1\n      dup4\n      iszero\n      iszero\n      mul\n      or\n      swap1\n      sstore\n      pop\n        /* \"@openzeppelin/contracts-upgradeable/access/AccessControlUpgradeable.sol\":8525:8537  _msgSender() */\n      tag_233\n        /* \"@openzeppelin/contracts-upgradeable/access/AccessControlUpgradeable.sol\":8525:8535  _msgSender */\n      tag_112\n        /* \"@openzeppelin/contracts-upgradeable/access/AccessControlUpgradeable.sol\":8525:8537  _msgSender() */\n      jump\t// in\n    tag_233:\n        /* \"@openzeppelin/contracts-upgradeable/access/AccessControlUpgradeable.sol\":8498:8538  RoleRevoked(role, account, _msgSender()) */\n      0xffffffffffffffffffffffffffffffffffffffff\n      and\n        /* \"@openzeppelin/contracts-upgradeable/access/AccessControlUpgradeable.sol\":8516:8523  account */\n      dup2\n        /* \"@openzeppelin/contracts-upgradeable/access/AccessControlUpgradeable.sol\":8498:8538  RoleRevoked(role, account, _msgSender()) */\n      0xffffffffffffffffffffffffffffffffffffffff\n      and\n        /* \"@openzeppelin/contracts-upgradeable/access/AccessControlUpgradeable.sol\":8510:8514  role */\n      dup4\n        /* \"@openzeppelin/contracts-upgradeable/access/AccessControlUpgradeable.sol\":8498:8538  RoleRevoked(role, account, _msgSender()) */\n      0xf6391f5c32d9c69d2a47ea670b442974b53935d1edc7fd64eb21e047a839171b\n      mload(0x40)\n      mload(0x40)\n      dup1\n      swap2\n      sub\n      swap1\n      log4\n        /* \"@openzeppelin/contracts-upgradeable/access/AccessControlUpgradeable.sol\":8400:8549  if (hasRole(role, account)) {... */\n    tag_232:\n        /* \"@openzeppelin/contracts-upgradeable/access/AccessControlUpgradeable.sol\":8321:8555  function _revokeRole(bytes32 role, address account) internal virtual {... */\n      pop\n      pop\n      jump\t// out\n        /* \"@openzeppelin/contracts-upgradeable/proxy/ERC1967/ERC1967UpgradeUpgradeable.sol\":1457:1608  function _getImplementation() internal view returns (address) {... */\n    tag_123:\n        /* \"@openzeppelin/contracts-upgradeable/proxy/ERC1967/ERC1967UpgradeUpgradeable.sol\":1510:1517  address */\n      0x00\n        /* \"@openzeppelin/contracts-upgradeable/proxy/ERC1967/ERC1967UpgradeUpgradeable.sol\":1536:1595  StorageSlotUpgradeable.getAddressSlot(_IMPLEMENTATION_SLOT) */\n      tag_235\n        /* \"@openzeppelin/contracts-upgradeable/proxy/ERC1967/ERC1967UpgradeUpgradeable.sol\":1312:1378  0x360894a13ba1a3210667c828492db98dca3e2076cc3735a920a3ca505d382bbc */\n      0x360894a13ba1a3210667c828492db98dca3e2076cc3735a920a3ca505d382bbc\n        /* \"@openzeppelin/contracts-upgradeable/proxy/ERC1967/ERC1967UpgradeUpgradeable.sol\":1574:1594  _IMPLEMENTATION_SLOT */\n      0x00\n      shl\n        /* \"@openzeppelin/contracts-upgradeable/proxy/ERC1967/ERC1967UpgradeUpgradeable.sol\":1536:1573  StorageSlotUpgradeable.getAddressSlot */\n      tag_236\n        /* \"@openzeppelin/contracts-upgradeable/proxy/ERC1967/ERC1967UpgradeUpgradeable.sol\":1536:1595  StorageSlotUpgradeable.getAddressSlot(_IMPLEMENTATION_SLOT) */\n      jump\t// in\n    tag_235:\n        /* \"@openzeppelin/contracts-upgradeable/proxy/ERC1967/ERC1967UpgradeUpgradeable.sol\":1536:1601  StorageSlotUpgradeable.getAddressSlot(_IMPLEMENTATION_SLOT).value */\n      0x00\n      add\n      0x00\n      swap1\n      sload\n      swap1\n      0x0100\n      exp\n      swap1\n      div\n      0xffffffffffffffffffffffffffffffffffffffff\n      and\n        /* \"@openzeppelin/contracts-upgradeable/proxy/ERC1967/ERC1967UpgradeUpgradeable.sol\":1529:1601  return StorageSlotUpgradeable.getAddressSlot(_IMPLEMENTATION_SLOT).value */\n      swap1\n      pop\n        /* \"@openzeppelin/contracts-upgradeable/proxy/ERC1967/ERC1967UpgradeUpgradeable.sol\":1457:1608  function _getImplementation() internal view returns (address) {... */\n      swap1\n      jump\t// out\n        /* \"contracts/GameVault.sol\":2530:2655  function _authorizeUpgrade(... */\n    tag_129:\n        /* \"@openzeppelin/contracts-upgradeable/access/AccessControlUpgradeable.sol\":2495:2499  0x00 */\n      0x00\n        /* \"contracts/GameVault.sol\":2633:2651  DEFAULT_ADMIN_ROLE */\n      dup1\n      shl\n        /* \"@openzeppelin/contracts-upgradeable/access/AccessControlUpgradeable.sol\":2928:2944  _checkRole(role) */\n      tag_238\n        /* \"@openzeppelin/contracts-upgradeable/access/AccessControlUpgradeable.sol\":2939:2943  role */\n      dup2\n        /* \"@openzeppelin/contracts-upgradeable/access/AccessControlUpgradeable.sol\":2928:2938  _checkRole */\n      tag_106\n        /* \"@openzeppelin/contracts-upgradeable/access/AccessControlUpgradeable.sol\":2928:2944  _checkRole(role) */\n      jump\t// in\n    tag_238:\n        /* \"contracts/GameVault.sol\":2530:2655  function _authorizeUpgrade(... */\n      pop\n      pop\n      jump\t// out\n        /* \"@openzeppelin/contracts-upgradeable/proxy/ERC1967/ERC1967UpgradeUpgradeable.sol\":2820:3764  function _upgradeToAndCallUUPS(address newImplementation, bytes memory data, bool forceCall) internal {... */\n    tag_135:\n        /* \"@openzeppelin/contracts-upgradeable/proxy/ERC1967/ERC1967UpgradeUpgradeable.sol\":3236:3289  StorageSlotUpgradeable.getBooleanSlot(_ROLLBACK_SLOT) */\n      tag_241\n        /* \"@openzeppelin/contracts-upgradeable/proxy/ERC1967/ERC1967UpgradeUpgradeable.sol\":971:1037  0x4910fdfa16fed3260ed0e7147f7cc6da11a60208b5b9406d12a635614ffd9143 */\n      0x4910fdfa16fed3260ed0e7147f7cc6da11a60208b5b9406d12a635614ffd9143\n        /* \"@openzeppelin/contracts-upgradeable/proxy/ERC1967/ERC1967UpgradeUpgradeable.sol\":3274:3288  _ROLLBACK_SLOT */\n      0x00\n      shl\n        /* \"@openzeppelin/contracts-upgradeable/proxy/ERC1967/ERC1967UpgradeUpgradeable.sol\":3236:3273  StorageSlotUpgradeable.getBooleanSlot */\n      tag_242\n        /* \"@openzeppelin/contracts-upgradeable/proxy/ERC1967/ERC1967UpgradeUpgradeable.sol\":3236:3289  StorageSlotUpgradeable.getBooleanSlot(_ROLLBACK_SLOT) */\n      jump\t// in\n    tag_241:\n        /* \"@openzeppelin/contracts-upgradeable/proxy/ERC1967/ERC1967UpgradeUpgradeable.sol\":3236:3295  StorageSlotUpgradeable.getBooleanSlot(_ROLLBACK_SLOT).value */\n      0x00\n      add\n      0x00\n      swap1\n      sload\n      swap1\n      0x0100\n      exp\n      swap1\n      div\n      0xff\n      and\n        /* \"@openzeppelin/contracts-upgradeable/proxy/ERC1967/ERC1967UpgradeUpgradeable.sol\":3232:3758  if (StorageSlotUpgradeable.getBooleanSlot(_ROLLBACK_SLOT).value) {... */\n      iszero\n      tag_243\n      jumpi\n        /* \"@openzeppelin/contracts-upgradeable/proxy/ERC1967/ERC1967UpgradeUpgradeable.sol\":3311:3348  _setImplementation(newImplementation) */\n      tag_244\n        /* \"@openzeppelin/contracts-upgradeable/proxy/ERC1967/ERC1967UpgradeUpgradeable.sol\":3330:3347  newImplementation */\n      dup4\n        /* \"@openzeppelin/contracts-upgradeable/proxy/ERC1967/ERC1967UpgradeUpgradeable.sol\":3311:3329  _setImplementation */\n      tag_245\n        /* \"@openzeppelin/contracts-upgradeable/proxy/ERC1967/ERC1967UpgradeUpgradeable.sol\":3311:3348  _setImplementation(newImplementation) */\n      jump\t// in\n    tag_244:\n        /* \"@openzeppelin/contracts-upgradeable/proxy/ERC1967/ERC1967UpgradeUpgradeable.sol\":3232:3758  if (StorageSlotUpgradeable.getBooleanSlot(_ROLLBACK_SLOT).value) {... */\n      jump(tag_246)\n    tag_243:\n        /* \"@openzeppelin/contracts-upgradeable/proxy/ERC1967/ERC1967UpgradeUpgradeable.sol\":3412:3429  newImplementation */\n      dup3\n        /* \"@openzeppelin/contracts-upgradeable/proxy/ERC1967/ERC1967UpgradeUpgradeable.sol\":3383:3444  IERC1822ProxiableUpgradeable(newImplementation).proxiableUUID */\n      0xffffffffffffffffffffffffffffffffffffffff\n      and\n      0x52d1902d\n        /* \"@openzeppelin/contracts-upgradeable/proxy/ERC1967/ERC1967UpgradeUpgradeable.sol\":3383:3446  IERC1822ProxiableUpgradeable(newImplementation).proxiableUUID() */\n      mload(0x40)\n      dup2\n      0xffffffff\n      and\n      0xe0\n      shl\n      dup2\n      mstore\n      0x04\n      add\n      0x20\n      mload(0x40)\n      dup1\n      dup4\n      sub\n      dup2\n      dup7\n      gas\n      staticcall\n      swap3\n      pop\n      pop\n      pop\n      dup1\n      iszero\n      tag_247\n      jumpi\n      pop\n      mload(0x40)\n      returndatasize\n      not(0x1f)\n      0x1f\n      dup3\n      add\n      and\n      dup3\n      add\n      dup1\n      0x40\n      mstore\n      pop\n      dup2\n      add\n      swap1\n      tag_248\n      swap2\n      swap1\n      tag_249\n      jump\t// in\n    tag_248:\n      0x01\n    tag_247:\n        /* \"@openzeppelin/contracts-upgradeable/proxy/ERC1967/ERC1967UpgradeUpgradeable.sol\":3379:3681  try IERC1822ProxiableUpgradeable(newImplementation).proxiableUUID() returns (bytes32 slot) {... */\n      tag_250\n      jumpi\n        /* \"@openzeppelin/contracts-upgradeable/proxy/ERC1967/ERC1967UpgradeUpgradeable.sol\":3610:3666  revert(\"ERC1967Upgrade: new implementation is not UUPS\") */\n      mload(0x40)\n      0x08c379a000000000000000000000000000000000000000000000000000000000\n      dup2\n      mstore\n      0x04\n      add\n      tag_254\n      swap1\n      tag_255\n      jump\t// in\n    tag_254:\n      mload(0x40)\n      dup1\n      swap2\n      sub\n      swap1\n      revert\n        /* \"@openzeppelin/contracts-upgradeable/proxy/ERC1967/ERC1967UpgradeUpgradeable.sol\":3379:3681  try IERC1822ProxiableUpgradeable(newImplementation).proxiableUUID() returns (bytes32 slot) {... */\n    tag_250:\n        /* \"@openzeppelin/contracts-upgradeable/proxy/ERC1967/ERC1967UpgradeUpgradeable.sol\":1312:1378  0x360894a13ba1a3210667c828492db98dca3e2076cc3735a920a3ca505d382bbc */\n      0x360894a13ba1a3210667c828492db98dca3e2076cc3735a920a3ca505d382bbc\n        /* \"@openzeppelin/contracts-upgradeable/proxy/ERC1967/ERC1967UpgradeUpgradeable.sol\":3504:3524  _IMPLEMENTATION_SLOT */\n      0x00\n      shl\n        /* \"@openzeppelin/contracts-upgradeable/proxy/ERC1967/ERC1967UpgradeUpgradeable.sol\":3496:3500  slot */\n      dup2\n        /* \"@openzeppelin/contracts-upgradeable/proxy/ERC1967/ERC1967UpgradeUpgradeable.sol\":3496:3524  slot == _IMPLEMENTATION_SLOT */\n      eq\n        /* \"@openzeppelin/contracts-upgradeable/proxy/ERC1967/ERC1967UpgradeUpgradeable.sol\":3488:3570  require(slot == _IMPLEMENTATION_SLOT, \"ERC1967Upgrade: unsupported proxiableUUID\") */\n      tag_257\n      jumpi\n      mload(0x40)\n      0x08c379a000000000000000000000000000000000000000000000000000000000\n      dup2\n      mstore\n      0x04\n      add\n      tag_258\n      swap1\n      tag_259\n      jump\t// in\n    tag_258:\n      mload(0x40)\n      dup1\n      swap2\n      sub\n      swap1\n      revert\n    tag_257:\n        /* \"@openzeppelin/contracts-upgradeable/proxy/ERC1967/ERC1967UpgradeUpgradeable.sol\":3447:3585  returns (bytes32 slot) {... */\n      pop\n        /* \"@openzeppelin/contracts-upgradeable/proxy/ERC1967/ERC1967UpgradeUpgradeable.sol\":3694:3747  _upgradeToAndCall(newImplementation, data, forceCall) */\n      tag_260\n        /* \"@openzeppelin/contracts-upgradeable/proxy/ERC1967/ERC1967UpgradeUpgradeable.sol\":3712:3729  newImplementation */\n      dup4\n        /* \"@openzeppelin/contracts-upgradeable/proxy/ERC1967/ERC1967UpgradeUpgradeable.sol\":3731:3735  data */\n      dup4\n        /* \"@openzeppelin/contracts-upgradeable/proxy/ERC1967/ERC1967UpgradeUpgradeable.sol\":3737:3746  forceCall */\n      dup4\n        /* \"@openzeppelin/contracts-upgradeable/proxy/ERC1967/ERC1967UpgradeUpgradeable.sol\":3694:3711  _upgradeToAndCall */\n      tag_261\n        /* \"@openzeppelin/contracts-upgradeable/proxy/ERC1967/ERC1967UpgradeUpgradeable.sol\":3694:3747  _upgradeToAndCall(newImplementation, data, forceCall) */\n      jump\t// in\n    tag_260:\n        /* \"@openzeppelin/contracts-upgradeable/proxy/ERC1967/ERC1967UpgradeUpgradeable.sol\":3232:3758  if (StorageSlotUpgradeable.getBooleanSlot(_ROLLBACK_SLOT).value) {... */\n    tag_246:\n        /* \"@openzeppelin/contracts-upgradeable/proxy/ERC1967/ERC1967UpgradeUpgradeable.sol\":2820:3764  function _upgradeToAndCallUUPS(address newImplementation, bytes memory data, bool forceCall) internal {... */\n      pop\n      pop\n      pop\n      jump\t// out\n        /* \"@openzeppelin/contracts-upgradeable/utils/AddressUpgradeable.sol\":1423:1743  function isContract(address account) internal view returns (bool) {... */\n    tag_140:\n        /* \"@openzeppelin/contracts-upgradeable/utils/AddressUpgradeable.sol\":1483:1487  bool */\n      0x00\n        /* \"@openzeppelin/contracts-upgradeable/utils/AddressUpgradeable.sol\":1735:1736  0 */\n      dup1\n        /* \"@openzeppelin/contracts-upgradeable/utils/AddressUpgradeable.sol\":1713:1720  account */\n      dup3\n        /* \"@openzeppelin/contracts-upgradeable/utils/AddressUpgradeable.sol\":1713:1732  account.code.length */\n      0xffffffffffffffffffffffffffffffffffffffff\n      and\n      extcodesize\n        /* \"@openzeppelin/contracts-upgradeable/utils/AddressUpgradeable.sol\":1713:1736  account.code.length > 0 */\n      gt\n        /* \"@openzeppelin/contracts-upgradeable/utils/AddressUpgradeable.sol\":1706:1736  return account.code.length > 0 */\n      swap1\n      pop\n        /* \"@openzeppelin/contracts-upgradeable/utils/AddressUpgradeable.sol\":1423:1743  function isContract(address account) internal view returns (bool) {... */\n      swap2\n      swap1\n      pop\n      jump\t// out\n        /* \"@openzeppelin/contracts-upgradeable/access/AccessControlUpgradeable.sol\":7267:7377  function _setupRole(bytes32 role, address account) internal virtual {... */\n    tag_148:\n        /* \"@openzeppelin/contracts-upgradeable/access/AccessControlUpgradeable.sol\":7345:7370  _grantRole(role, account) */\n      tag_264\n        /* \"@openzeppelin/contracts-upgradeable/access/AccessControlUpgradeable.sol\":7356:7360  role */\n      dup3\n        /* \"@openzeppelin/contracts-upgradeable/access/AccessControlUpgradeable.sol\":7362:7369  account */\n      dup3\n        /* \"@openzeppelin/contracts-upgradeable/access/AccessControlUpgradeable.sol\":7345:7355  _grantRole */\n      tag_109\n        /* \"@openzeppelin/contracts-upgradeable/access/AccessControlUpgradeable.sol\":7345:7370  _grantRole(role, account) */\n      jump\t// in\n    tag_264:\n        /* \"@openzeppelin/contracts-upgradeable/access/AccessControlUpgradeable.sol\":7267:7377  function _setupRole(bytes32 role, address account) internal virtual {... */\n      pop\n      pop\n      jump\t// out\n        /* \"contracts/GameVault.sol\":1624:2044  function claimRewardAdmin(address _player) private {... */\n    tag_176:\n        /* \"contracts/GameVault.sol\":1719:1720  0 */\n      0x00\n        /* \"contracts/GameVault.sol\":1693:1707  playersBalance */\n      0xfc\n        /* \"contracts/GameVault.sol\":1693:1716  playersBalance[_player] */\n      0x00\n        /* \"contracts/GameVault.sol\":1708:1715  _player */\n      dup4\n        /* \"contracts/GameVault.sol\":1693:1716  playersBalance[_player] */\n      0xffffffffffffffffffffffffffffffffffffffff\n      and\n      0xffffffffffffffffffffffffffffffffffffffff\n      and\n      dup2\n      mstore\n      0x20\n      add\n      swap1\n      dup2\n      mstore\n      0x20\n      add\n      0x00\n      keccak256\n      sload\n        /* \"contracts/GameVault.sol\":1693:1720  playersBalance[_player] > 0 */\n      gt\n        /* \"contracts/GameVault.sol\":1685:1751  require(playersBalance[_player] > 0 , \"You don't have any reward\") */\n      tag_266\n      jumpi\n      mload(0x40)\n      0x08c379a000000000000000000000000000000000000000000000000000000000\n      dup2\n      mstore\n      0x04\n      add\n      tag_267\n      swap1\n      tag_182\n      jump\t// in\n    tag_267:\n      mload(0x40)\n      dup1\n      swap2\n      sub\n      swap1\n      revert\n    tag_266:\n        /* \"contracts/GameVault.sol\":1796:1802  tether */\n      0xfb\n      0x00\n      swap1\n      sload\n      swap1\n      0x0100\n      exp\n      swap1\n      div\n      0xffffffffffffffffffffffffffffffffffffffff\n      and\n        /* \"contracts/GameVault.sol\":1796:1812  tether.balanceOf */\n      0xffffffffffffffffffffffffffffffffffffffff\n      and\n      0x70a08231\n        /* \"contracts/GameVault.sol\":1821:1825  this */\n      address\n        /* \"contracts/GameVault.sol\":1796:1827  tether.balanceOf(address(this)) */\n      mload(0x40)\n      dup3\n      0xffffffff\n      and\n      0xe0\n      shl\n      dup2\n      mstore\n      0x04\n      add\n      tag_268\n      swap2\n      swap1\n      tag_184\n      jump\t// in\n    tag_268:\n      0x20\n      mload(0x40)\n      dup1\n      dup4\n      sub\n      dup2\n      dup7\n      gas\n      staticcall\n      iszero\n      dup1\n      iszero\n      tag_270\n      jumpi\n      returndatasize\n      0x00\n      dup1\n      returndatacopy\n      revert(0x00, returndatasize)\n    tag_270:\n      pop\n      pop\n      pop\n      pop\n      mload(0x40)\n      returndatasize\n      not(0x1f)\n      0x1f\n      dup3\n      add\n      and\n      dup3\n      add\n      dup1\n      0x40\n      mstore\n      pop\n      dup2\n      add\n      swap1\n      tag_271\n      swap2\n      swap1\n      tag_188\n      jump\t// in\n    tag_271:\n        /* \"contracts/GameVault.sol\":1769:1783  playersBalance */\n      0xfc\n        /* \"contracts/GameVault.sol\":1769:1792  playersBalance[_player] */\n      0x00\n        /* \"contracts/GameVault.sol\":1784:1791  _player */\n      dup4\n        /* \"contracts/GameVault.sol\":1769:1792  playersBalance[_player] */\n      0xffffffffffffffffffffffffffffffffffffffff\n      and\n      0xffffffffffffffffffffffffffffffffffffffff\n      and\n      dup2\n      mstore\n      0x20\n      add\n      swap1\n      dup2\n      mstore\n      0x20\n      add\n      0x00\n      keccak256\n      sload\n        /* \"contracts/GameVault.sol\":1769:1827  playersBalance[_player] <= tether.balanceOf(address(this)) */\n      gt\n      iszero\n        /* \"contracts/GameVault.sol\":1761:1865  require(playersBalance[_player] <= tether.balanceOf(address(this)), \"You can't withdraw at this moment\") */\n      tag_272\n      jumpi\n      mload(0x40)\n      0x08c379a000000000000000000000000000000000000000000000000000000000\n      dup2\n      mstore\n      0x04\n      add\n      tag_273\n      swap1\n      tag_191\n      jump\t// in\n    tag_273:\n      mload(0x40)\n      dup1\n      swap2\n      sub\n      swap1\n      revert\n    tag_272:\n        /* \"contracts/GameVault.sol\":1875:1889  uint256 amount */\n      0x00\n        /* \"contracts/GameVault.sol\":1892:1906  playersBalance */\n      0xfc\n        /* \"contracts/GameVault.sol\":1892:1915  playersBalance[_player] */\n      0x00\n        /* \"contracts/GameVault.sol\":1907:1914  _player */\n      dup4\n        /* \"contracts/GameVault.sol\":1892:1915  playersBalance[_player] */\n      0xffffffffffffffffffffffffffffffffffffffff\n      and\n      0xffffffffffffffffffffffffffffffffffffffff\n      and\n      dup2\n      mstore\n      0x20\n      add\n      swap1\n      dup2\n      mstore\n      0x20\n      add\n      0x00\n      keccak256\n      sload\n        /* \"contracts/GameVault.sol\":1875:1915  uint256 amount = playersBalance[_player] */\n      swap1\n      pop\n        /* \"contracts/GameVault.sol\":1951:1952  0 */\n      0x00\n        /* \"contracts/GameVault.sol\":1925:1939  playersBalance */\n      0xfc\n        /* \"contracts/GameVault.sol\":1925:1948  playersBalance[_player] */\n      0x00\n        /* \"contracts/GameVault.sol\":1940:1947  _player */\n      dup5\n        /* \"contracts/GameVault.sol\":1925:1948  playersBalance[_player] */\n      0xffffffffffffffffffffffffffffffffffffffff\n      and\n      0xffffffffffffffffffffffffffffffffffffffff\n      and\n      dup2\n      mstore\n      0x20\n      add\n      swap1\n      dup2\n      mstore\n      0x20\n      add\n      0x00\n      keccak256\n        /* \"contracts/GameVault.sol\":1925:1952  playersBalance[_player] = 0 */\n      dup2\n      swap1\n      sstore\n      pop\n        /* \"contracts/GameVault.sol\":1962:1968  tether */\n      0xfb\n      0x00\n      swap1\n      sload\n      swap1\n      0x0100\n      exp\n      swap1\n      div\n      0xffffffffffffffffffffffffffffffffffffffff\n      and\n        /* \"contracts/GameVault.sol\":1962:1977  tether.transfer */\n      0xffffffffffffffffffffffffffffffffffffffff\n      and\n      0xa9059cbb\n        /* \"contracts/GameVault.sol\":1978:1985  _player */\n      dup4\n        /* \"contracts/GameVault.sol\":1987:1993  amount */\n      dup4\n        /* \"contracts/GameVault.sol\":1962:1994  tether.transfer(_player, amount) */\n      mload(0x40)\n      dup4\n      0xffffffff\n      and\n      0xe0\n      shl\n      dup2\n      mstore\n      0x04\n      add\n      tag_274\n      swap3\n      swap2\n      swap1\n      tag_193\n      jump\t// in\n    tag_274:\n      0x20\n      mload(0x40)\n      dup1\n      dup4\n      sub\n      dup2\n      0x00\n      dup8\n      gas\n      call\n      iszero\n      dup1\n      iszero\n      tag_276\n      jumpi\n      returndatasize\n      0x00\n      dup1\n      returndatacopy\n      revert(0x00, returndatasize)\n    tag_276:\n      pop\n      pop\n      pop\n      pop\n      mload(0x40)\n      returndatasize\n      not(0x1f)\n      0x1f\n      dup3\n      add\n      and\n      dup3\n      add\n      dup1\n      0x40\n      mstore\n      pop\n      dup2\n      add\n      swap1\n      tag_277\n      swap2\n      swap1\n      tag_197\n      jump\t// in\n    tag_277:\n      pop\n        /* \"contracts/GameVault.sol\":2009:2037  ClaimReward(_player, amount) */\n      0xba8de60c3403ec381d1d484652ea1980e3c3e56359195c92525bff4ce47ad98e\n        /* \"contracts/GameVault.sol\":2021:2028  _player */\n      dup3\n        /* \"contracts/GameVault.sol\":2030:2036  amount */\n      dup3\n        /* \"contracts/GameVault.sol\":2009:2037  ClaimReward(_player, amount) */\n      mload(0x40)\n      tag_278\n      swap3\n      swap2\n      swap1\n      tag_193\n      jump\t// in\n    tag_278:\n      mload(0x40)\n      dup1\n      swap2\n      sub\n      swap1\n      log1\n        /* \"contracts/GameVault.sol\":1675:2044  {... */\n      pop\n        /* \"contracts/GameVault.sol\":1624:2044  function claimRewardAdmin(address _player) private {... */\n      pop\n      jump\t// out\n        /* \"@openzeppelin/contracts-upgradeable/access/AccessControlUpgradeable.sol\":4152:4653  function _checkRole(bytes32 role, address account) internal view virtual {... */\n    tag_224:\n        /* \"@openzeppelin/contracts-upgradeable/access/AccessControlUpgradeable.sol\":4240:4262  hasRole(role, account) */\n      tag_280\n        /* \"@openzeppelin/contracts-upgradeable/access/AccessControlUpgradeable.sol\":4248:4252  role */\n      dup3\n        /* \"@openzeppelin/contracts-upgradeable/access/AccessControlUpgradeable.sol\":4254:4261  account */\n      dup3\n        /* \"@openzeppelin/contracts-upgradeable/access/AccessControlUpgradeable.sol\":4240:4247  hasRole */\n      tag_75\n        /* \"@openzeppelin/contracts-upgradeable/access/AccessControlUpgradeable.sol\":4240:4262  hasRole(role, account) */\n      jump\t// in\n    tag_280:\n        /* \"@openzeppelin/contracts-upgradeable/access/AccessControlUpgradeable.sol\":4235:4647  if (!hasRole(role, account)) {... */\n      tag_281\n      jumpi\n        /* \"@openzeppelin/contracts-upgradeable/access/AccessControlUpgradeable.sol\":4423:4462  StringsUpgradeable.toHexString(account) */\n      tag_282\n        /* \"@openzeppelin/contracts-upgradeable/access/AccessControlUpgradeable.sol\":4454:4461  account */\n      dup2\n        /* \"@openzeppelin/contracts-upgradeable/access/AccessControlUpgradeable.sol\":4423:4453  StringsUpgradeable.toHexString */\n      tag_283\n        /* \"@openzeppelin/contracts-upgradeable/access/AccessControlUpgradeable.sol\":4423:4462  StringsUpgradeable.toHexString(account) */\n      jump\t// in\n    tag_282:\n        /* \"@openzeppelin/contracts-upgradeable/access/AccessControlUpgradeable.sol\":4533:4582  StringsUpgradeable.toHexString(uint256(role), 32) */\n      tag_284\n        /* \"@openzeppelin/contracts-upgradeable/access/AccessControlUpgradeable.sol\":4572:4576  role */\n      dup4\n        /* \"@openzeppelin/contracts-upgradeable/access/AccessControlUpgradeable.sol\":4564:4577  uint256(role) */\n      0x00\n      shr\n        /* \"@openzeppelin/contracts-upgradeable/access/AccessControlUpgradeable.sol\":4579:4581  32 */\n      0x20\n        /* \"@openzeppelin/contracts-upgradeable/access/AccessControlUpgradeable.sol\":4533:4563  StringsUpgradeable.toHexString */\n      tag_285\n        /* \"@openzeppelin/contracts-upgradeable/access/AccessControlUpgradeable.sol\":4533:4582  StringsUpgradeable.toHexString(uint256(role), 32) */\n      jump\t// in\n    tag_284:\n        /* \"@openzeppelin/contracts-upgradeable/access/AccessControlUpgradeable.sol\":4330:4604  abi.encodePacked(... */\n      add(0x20, mload(0x40))\n      tag_286\n      swap3\n      swap2\n      swap1\n      tag_287\n      jump\t// in\n    tag_286:\n      mload(0x40)\n      0x20\n      dup2\n      dup4\n      sub\n      sub\n      dup2\n      mstore\n      swap1\n      0x40\n      mstore\n        /* \"@openzeppelin/contracts-upgradeable/access/AccessControlUpgradeable.sol\":4278:4636  revert(... */\n      mload(0x40)\n      0x08c379a000000000000000000000000000000000000000000000000000000000\n      dup2\n      mstore\n      0x04\n      add\n      tag_288\n      swap2\n      swap1\n      tag_289\n      jump\t// in\n    tag_288:\n      mload(0x40)\n      dup1\n      swap2\n      sub\n      swap1\n      revert\n        /* \"@openzeppelin/contracts-upgradeable/access/AccessControlUpgradeable.sol\":4235:4647  if (!hasRole(role, account)) {... */\n    tag_281:\n        /* \"@openzeppelin/contracts-upgradeable/access/AccessControlUpgradeable.sol\":4152:4653  function _checkRole(bytes32 role, address account) internal view virtual {... */\n      pop\n      pop\n      jump\t// out\n        /* \"@openzeppelin/contracts-upgradeable/utils/StorageSlotUpgradeable.sol\":1870:2060  function getAddressSlot(bytes32 slot) internal pure returns (AddressSlot storage r) {... */\n    tag_236:\n        /* \"@openzeppelin/contracts-upgradeable/utils/StorageSlotUpgradeable.sol\":1931:1952  AddressSlot storage r */\n      0x00\n        /* \"@openzeppelin/contracts-upgradeable/utils/StorageSlotUpgradeable.sol\":2040:2044  slot */\n      dup2\n        /* \"@openzeppelin/contracts-upgradeable/utils/StorageSlotUpgradeable.sol\":2030:2044  r.slot := slot */\n      swap1\n      pop\n        /* \"@openzeppelin/contracts-upgradeable/utils/StorageSlotUpgradeable.sol\":1870:2060  function getAddressSlot(bytes32 slot) internal pure returns (AddressSlot storage r) {... */\n      swap2\n      swap1\n      pop\n      jump\t// out\n        /* \"@openzeppelin/contracts-upgradeable/utils/StorageSlotUpgradeable.sol\":2158:2348  function getBooleanSlot(bytes32 slot) internal pure returns (BooleanSlot storage r) {... */\n    tag_242:\n        /* \"@openzeppelin/contracts-upgradeable/utils/StorageSlotUpgradeable.sol\":2219:2240  BooleanSlot storage r */\n      0x00\n        /* \"@openzeppelin/contracts-upgradeable/utils/StorageSlotUpgradeable.sol\":2328:2332  slot */\n      dup2\n        /* \"@openzeppelin/contracts-upgradeable/utils/StorageSlotUpgradeable.sol\":2318:2332  r.slot := slot */\n      swap1\n      pop\n        /* \"@openzeppelin/contracts-upgradeable/utils/StorageSlotUpgradeable.sol\":2158:2348  function getBooleanSlot(bytes32 slot) internal pure returns (BooleanSlot storage r) {... */\n      swap2\n      swap1\n      pop\n      jump\t// out\n        /* \"@openzeppelin/contracts-upgradeable/proxy/ERC1967/ERC1967UpgradeUpgradeable.sol\":1699:1980  function _setImplementation(address newImplementation) private {... */\n    tag_245:\n        /* \"@openzeppelin/contracts-upgradeable/proxy/ERC1967/ERC1967UpgradeUpgradeable.sol\":1780:1828  AddressUpgradeable.isContract(newImplementation) */\n      tag_293\n        /* \"@openzeppelin/contracts-upgradeable/proxy/ERC1967/ERC1967UpgradeUpgradeable.sol\":1810:1827  newImplementation */\n      dup2\n        /* \"@openzeppelin/contracts-upgradeable/proxy/ERC1967/ERC1967UpgradeUpgradeable.sol\":1780:1809  AddressUpgradeable.isContract */\n      tag_140\n        /* \"@openzeppelin/contracts-upgradeable/proxy/ERC1967/ERC1967UpgradeUpgradeable.sol\":1780:1828  AddressUpgradeable.isContract(newImplementation) */\n      jump\t// in\n    tag_293:\n        /* \"@openzeppelin/contracts-upgradeable/proxy/ERC1967/ERC1967UpgradeUpgradeable.sol\":1772:1878  require(AddressUpgradeable.isContract(newImplementation), \"ERC1967: new implementation is not a contract\") */\n      tag_294\n      jumpi\n      mload(0x40)\n      0x08c379a000000000000000000000000000000000000000000000000000000000\n      dup2\n      mstore\n      0x04\n      add\n      tag_295\n      swap1\n      tag_296\n      jump\t// in\n    tag_295:\n      mload(0x40)\n      dup1\n      swap2\n      sub\n      swap1\n      revert\n    tag_294:\n        /* \"@openzeppelin/contracts-upgradeable/proxy/ERC1967/ERC1967UpgradeUpgradeable.sol\":1956:1973  newImplementation */\n      dup1\n        /* \"@openzeppelin/contracts-upgradeable/proxy/ERC1967/ERC1967UpgradeUpgradeable.sol\":1888:1947  StorageSlotUpgradeable.getAddressSlot(_IMPLEMENTATION_SLOT) */\n      tag_297\n        /* \"@openzeppelin/contracts-upgradeable/proxy/ERC1967/ERC1967UpgradeUpgradeable.sol\":1312:1378  0x360894a13ba1a3210667c828492db98dca3e2076cc3735a920a3ca505d382bbc */\n      0x360894a13ba1a3210667c828492db98dca3e2076cc3735a920a3ca505d382bbc\n        /* \"@openzeppelin/contracts-upgradeable/proxy/ERC1967/ERC1967UpgradeUpgradeable.sol\":1926:1946  _IMPLEMENTATION_SLOT */\n      0x00\n      shl\n        /* \"@openzeppelin/contracts-upgradeable/proxy/ERC1967/ERC1967UpgradeUpgradeable.sol\":1888:1925  StorageSlotUpgradeable.getAddressSlot */\n      tag_236\n        /* \"@openzeppelin/contracts-upgradeable/proxy/ERC1967/ERC1967UpgradeUpgradeable.sol\":1888:1947  StorageSlotUpgradeable.getAddressSlot(_IMPLEMENTATION_SLOT) */\n      jump\t// in\n    tag_297:\n        /* \"@openzeppelin/contracts-upgradeable/proxy/ERC1967/ERC1967UpgradeUpgradeable.sol\":1888:1953  StorageSlotUpgradeable.getAddressSlot(_IMPLEMENTATION_SLOT).value */\n      0x00\n      add\n      0x00\n        /* \"@openzeppelin/contracts-upgradeable/proxy/ERC1967/ERC1967UpgradeUpgradeable.sol\":1888:1973  StorageSlotUpgradeable.getAddressSlot(_IMPLEMENTATION_SLOT).value = newImplementation */\n      0x0100\n      exp\n      dup2\n      sload\n      dup2\n      0xffffffffffffffffffffffffffffffffffffffff\n      mul\n      not\n      and\n      swap1\n      dup4\n      0xffffffffffffffffffffffffffffffffffffffff\n      and\n      mul\n      or\n      swap1\n      sstore\n      pop\n        /* \"@openzeppelin/contracts-upgradeable/proxy/ERC1967/ERC1967UpgradeUpgradeable.sol\":1699:1980  function _setImplementation(address newImplementation) private {... */\n      pop\n      jump\t// out\n        /* \"@openzeppelin/contracts-upgradeable/proxy/ERC1967/ERC1967UpgradeUpgradeable.sol\":2372:2648  function _upgradeToAndCall(address newImplementation, bytes memory data, bool forceCall) internal {... */\n    tag_261:\n        /* \"@openzeppelin/contracts-upgradeable/proxy/ERC1967/ERC1967UpgradeUpgradeable.sol\":2480:2509  _upgradeTo(newImplementation) */\n      tag_299\n        /* \"@openzeppelin/contracts-upgradeable/proxy/ERC1967/ERC1967UpgradeUpgradeable.sol\":2491:2508  newImplementation */\n      dup4\n        /* \"@openzeppelin/contracts-upgradeable/proxy/ERC1967/ERC1967UpgradeUpgradeable.sol\":2480:2490  _upgradeTo */\n      tag_300\n        /* \"@openzeppelin/contracts-upgradeable/proxy/ERC1967/ERC1967UpgradeUpgradeable.sol\":2480:2509  _upgradeTo(newImplementation) */\n      jump\t// in\n    tag_299:\n        /* \"@openzeppelin/contracts-upgradeable/proxy/ERC1967/ERC1967UpgradeUpgradeable.sol\":2537:2538  0 */\n      0x00\n        /* \"@openzeppelin/contracts-upgradeable/proxy/ERC1967/ERC1967UpgradeUpgradeable.sol\":2523:2527  data */\n      dup3\n        /* \"@openzeppelin/contracts-upgradeable/proxy/ERC1967/ERC1967UpgradeUpgradeable.sol\":2523:2534  data.length */\n      mload\n        /* \"@openzeppelin/contracts-upgradeable/proxy/ERC1967/ERC1967UpgradeUpgradeable.sol\":2523:2538  data.length > 0 */\n      gt\n        /* \"@openzeppelin/contracts-upgradeable/proxy/ERC1967/ERC1967UpgradeUpgradeable.sol\":2523:2551  data.length > 0 || forceCall */\n      dup1\n      tag_301\n      jumpi\n      pop\n        /* \"@openzeppelin/contracts-upgradeable/proxy/ERC1967/ERC1967UpgradeUpgradeable.sol\":2542:2551  forceCall */\n      dup1\n        /* \"@openzeppelin/contracts-upgradeable/proxy/ERC1967/ERC1967UpgradeUpgradeable.sol\":2523:2551  data.length > 0 || forceCall */\n    tag_301:\n        /* \"@openzeppelin/contracts-upgradeable/proxy/ERC1967/ERC1967UpgradeUpgradeable.sol\":2519:2642  if (data.length > 0 || forceCall) {... */\n      iszero\n      tag_302\n      jumpi\n        /* \"@openzeppelin/contracts-upgradeable/proxy/ERC1967/ERC1967UpgradeUpgradeable.sol\":2567:2631  AddressUpgradeable.functionDelegateCall(newImplementation, data) */\n      tag_303\n        /* \"@openzeppelin/contracts-upgradeable/proxy/ERC1967/ERC1967UpgradeUpgradeable.sol\":2607:2624  newImplementation */\n      dup4\n        /* \"@openzeppelin/contracts-upgradeable/proxy/ERC1967/ERC1967UpgradeUpgradeable.sol\":2626:2630  data */\n      dup4\n        /* \"@openzeppelin/contracts-upgradeable/proxy/ERC1967/ERC1967UpgradeUpgradeable.sol\":2567:2606  AddressUpgradeable.functionDelegateCall */\n      tag_304\n        /* \"@openzeppelin/contracts-upgradeable/proxy/ERC1967/ERC1967UpgradeUpgradeable.sol\":2567:2631  AddressUpgradeable.functionDelegateCall(newImplementation, data) */\n      jump\t// in\n    tag_303:\n      pop\n        /* \"@openzeppelin/contracts-upgradeable/proxy/ERC1967/ERC1967UpgradeUpgradeable.sol\":2519:2642  if (data.length > 0 || forceCall) {... */\n    tag_302:\n        /* \"@openzeppelin/contracts-upgradeable/proxy/ERC1967/ERC1967UpgradeUpgradeable.sol\":2372:2648  function _upgradeToAndCall(address newImplementation, bytes memory data, bool forceCall) internal {... */\n      pop\n      pop\n      pop\n      jump\t// out\n        /* \"@openzeppelin/contracts-upgradeable/utils/StringsUpgradeable.sol\":2473:2622  function toHexString(address addr) internal pure returns (string memory) {... */\n    tag_283:\n        /* \"@openzeppelin/contracts-upgradeable/utils/StringsUpgradeable.sol\":2531:2544  string memory */\n      0x60\n        /* \"@openzeppelin/contracts-upgradeable/utils/StringsUpgradeable.sol\":2563:2615  toHexString(uint256(uint160(addr)), _ADDRESS_LENGTH) */\n      tag_306\n        /* \"@openzeppelin/contracts-upgradeable/utils/StringsUpgradeable.sol\":2591:2595  addr */\n      dup3\n        /* \"@openzeppelin/contracts-upgradeable/utils/StringsUpgradeable.sol\":2575:2597  uint256(uint160(addr)) */\n      0xffffffffffffffffffffffffffffffffffffffff\n      and\n        /* \"@openzeppelin/contracts-upgradeable/utils/StringsUpgradeable.sol\":376:378  20 */\n      0x14\n        /* \"@openzeppelin/contracts-upgradeable/utils/StringsUpgradeable.sol\":2563:2615  toHexString(uint256(uint160(addr)), _ADDRESS_LENGTH) */\n      0xff\n      and\n        /* \"@openzeppelin/contracts-upgradeable/utils/StringsUpgradeable.sol\":2563:2574  toHexString */\n      tag_285\n        /* \"@openzeppelin/contracts-upgradeable/utils/StringsUpgradeable.sol\":2563:2615  toHexString(uint256(uint160(addr)), _ADDRESS_LENGTH) */\n      jump\t// in\n    tag_306:\n        /* \"@openzeppelin/contracts-upgradeable/utils/StringsUpgradeable.sol\":2556:2615  return toHexString(uint256(uint160(addr)), _ADDRESS_LENGTH) */\n      swap1\n      pop\n        /* \"@openzeppelin/contracts-upgradeable/utils/StringsUpgradeable.sol\":2473:2622  function toHexString(address addr) internal pure returns (string memory) {... */\n      swap2\n      swap1\n      pop\n      jump\t// out\n        /* \"@openzeppelin/contracts-upgradeable/utils/StringsUpgradeable.sol\":1884:2321  function toHexString(uint256 value, uint256 length) internal pure returns (string memory) {... */\n    tag_285:\n        /* \"@openzeppelin/contracts-upgradeable/utils/StringsUpgradeable.sol\":1959:1972  string memory */\n      0x60\n        /* \"@openzeppelin/contracts-upgradeable/utils/StringsUpgradeable.sol\":1984:2003  bytes memory buffer */\n      0x00\n        /* \"@openzeppelin/contracts-upgradeable/utils/StringsUpgradeable.sol\":2029:2030  2 */\n      0x02\n        /* \"@openzeppelin/contracts-upgradeable/utils/StringsUpgradeable.sol\":2020:2026  length */\n      dup4\n        /* \"@openzeppelin/contracts-upgradeable/utils/StringsUpgradeable.sol\":2016:2017  2 */\n      0x02\n        /* \"@openzeppelin/contracts-upgradeable/utils/StringsUpgradeable.sol\":2016:2026  2 * length */\n      tag_308\n      swap2\n      swap1\n      tag_309\n      jump\t// in\n    tag_308:\n        /* \"@openzeppelin/contracts-upgradeable/utils/StringsUpgradeable.sol\":2016:2030  2 * length + 2 */\n      tag_310\n      swap2\n      swap1\n      tag_219\n      jump\t// in\n    tag_310:\n        /* \"@openzeppelin/contracts-upgradeable/utils/StringsUpgradeable.sol\":2006:2031  new bytes(2 * length + 2) */\n      0xffffffffffffffff\n      dup2\n      gt\n      iszero\n      tag_311\n      jumpi\n      tag_312\n      tag_133\n      jump\t// in\n    tag_312:\n    tag_311:\n      mload(0x40)\n      swap1\n      dup1\n      dup3\n      mstore\n      dup1\n      0x1f\n      add\n      not(0x1f)\n      and\n      0x20\n      add\n      dup3\n      add\n      0x40\n      mstore\n      dup1\n      iszero\n      tag_313\n      jumpi\n      dup2\n      0x20\n      add\n      0x01\n      dup3\n      mul\n      dup1\n      calldatasize\n      dup4\n      calldatacopy\n      dup1\n      dup3\n      add\n      swap2\n      pop\n      pop\n      swap1\n      pop\n    tag_313:\n      pop\n        /* \"@openzeppelin/contracts-upgradeable/utils/StringsUpgradeable.sol\":1984:2031  bytes memory buffer = new bytes(2 * length + 2) */\n      swap1\n      pop\n        /* \"@openzeppelin/contracts-upgradeable/utils/StringsUpgradeable.sol\":2041:2056  buffer[0] = \"0\" */\n      0x3000000000000000000000000000000000000000000000000000000000000000\n        /* \"@openzeppelin/contracts-upgradeable/utils/StringsUpgradeable.sol\":2041:2047  buffer */\n      dup2\n        /* \"@openzeppelin/contracts-upgradeable/utils/StringsUpgradeable.sol\":2048:2049  0 */\n      0x00\n        /* \"@openzeppelin/contracts-upgradeable/utils/StringsUpgradeable.sol\":2041:2050  buffer[0] */\n      dup2\n      mload\n      dup2\n      lt\n      tag_314\n      jumpi\n      tag_315\n      tag_175\n      jump\t// in\n    tag_315:\n    tag_314:\n      0x20\n      add\n      add\n        /* \"@openzeppelin/contracts-upgradeable/utils/StringsUpgradeable.sol\":2041:2056  buffer[0] = \"0\" */\n      swap1\n      not(0xffffffffffffffffffffffffffffffffffffffffffffffffffffffffffffff)\n      and\n      swap1\n      dup2\n      0x00\n      byte\n      swap1\n      mstore8\n      pop\n        /* \"@openzeppelin/contracts-upgradeable/utils/StringsUpgradeable.sol\":2066:2081  buffer[1] = \"x\" */\n      0x7800000000000000000000000000000000000000000000000000000000000000\n        /* \"@openzeppelin/contracts-upgradeable/utils/StringsUpgradeable.sol\":2066:2072  buffer */\n      dup2\n        /* \"@openzeppelin/contracts-upgradeable/utils/StringsUpgradeable.sol\":2073:2074  1 */\n      0x01\n        /* \"@openzeppelin/contracts-upgradeable/utils/StringsUpgradeable.sol\":2066:2075  buffer[1] */\n      dup2\n      mload\n      dup2\n      lt\n      tag_316\n      jumpi\n      tag_317\n      tag_175\n      jump\t// in\n    tag_317:\n    tag_316:\n      0x20\n      add\n      add\n        /* \"@openzeppelin/contracts-upgradeable/utils/StringsUpgradeable.sol\":2066:2081  buffer[1] = \"x\" */\n      swap1\n      not(0xffffffffffffffffffffffffffffffffffffffffffffffffffffffffffffff)\n      and\n      swap1\n      dup2\n      0x00\n      byte\n      swap1\n      mstore8\n      pop\n        /* \"@openzeppelin/contracts-upgradeable/utils/StringsUpgradeable.sol\":2096:2105  uint256 i */\n      0x00\n        /* \"@openzeppelin/contracts-upgradeable/utils/StringsUpgradeable.sol\":2121:2122  1 */\n      0x01\n        /* \"@openzeppelin/contracts-upgradeable/utils/StringsUpgradeable.sol\":2112:2118  length */\n      dup5\n        /* \"@openzeppelin/contracts-upgradeable/utils/StringsUpgradeable.sol\":2108:2109  2 */\n      0x02\n        /* \"@openzeppelin/contracts-upgradeable/utils/StringsUpgradeable.sol\":2108:2118  2 * length */\n      tag_321\n      swap2\n      swap1\n      tag_309\n      jump\t// in\n    tag_321:\n        /* \"@openzeppelin/contracts-upgradeable/utils/StringsUpgradeable.sol\":2108:2122  2 * length + 1 */\n      tag_322\n      swap2\n      swap1\n      tag_219\n      jump\t// in\n    tag_322:\n        /* \"@openzeppelin/contracts-upgradeable/utils/StringsUpgradeable.sol\":2096:2122  uint256 i = 2 * length + 1 */\n      swap1\n      pop\n        /* \"@openzeppelin/contracts-upgradeable/utils/StringsUpgradeable.sol\":2091:2219  for (uint256 i = 2 * length + 1; i > 1; --i) {... */\n    tag_318:\n        /* \"@openzeppelin/contracts-upgradeable/utils/StringsUpgradeable.sol\":2128:2129  1 */\n      0x01\n        /* \"@openzeppelin/contracts-upgradeable/utils/StringsUpgradeable.sol\":2124:2125  i */\n      dup2\n        /* \"@openzeppelin/contracts-upgradeable/utils/StringsUpgradeable.sol\":2124:2129  i > 1 */\n      gt\n        /* \"@openzeppelin/contracts-upgradeable/utils/StringsUpgradeable.sol\":2091:2219  for (uint256 i = 2 * length + 1; i > 1; --i) {... */\n      iszero\n      tag_319\n      jumpi\n        /* \"@openzeppelin/contracts-upgradeable/utils/StringsUpgradeable.sol\":2162:2170  _SYMBOLS */\n      0x3031323334353637383961626364656600000000000000000000000000000000\n        /* \"@openzeppelin/contracts-upgradeable/utils/StringsUpgradeable.sol\":2179:2182  0xf */\n      0x0f\n        /* \"@openzeppelin/contracts-upgradeable/utils/StringsUpgradeable.sol\":2171:2176  value */\n      dup7\n        /* \"@openzeppelin/contracts-upgradeable/utils/StringsUpgradeable.sol\":2171:2182  value & 0xf */\n      and\n        /* \"@openzeppelin/contracts-upgradeable/utils/StringsUpgradeable.sol\":2162:2183  _SYMBOLS[value & 0xf] */\n      0x10\n      dup2\n      lt\n      tag_323\n      jumpi\n      tag_324\n      tag_175\n      jump\t// in\n    tag_324:\n    tag_323:\n      byte\n      0xf8\n      shl\n        /* \"@openzeppelin/contracts-upgradeable/utils/StringsUpgradeable.sol\":2150:2156  buffer */\n      dup3\n        /* \"@openzeppelin/contracts-upgradeable/utils/StringsUpgradeable.sol\":2157:2158  i */\n      dup3\n        /* \"@openzeppelin/contracts-upgradeable/utils/StringsUpgradeable.sol\":2150:2159  buffer[i] */\n      dup2\n      mload\n      dup2\n      lt\n      tag_325\n      jumpi\n      tag_326\n      tag_175\n      jump\t// in\n    tag_326:\n    tag_325:\n      0x20\n      add\n      add\n        /* \"@openzeppelin/contracts-upgradeable/utils/StringsUpgradeable.sol\":2150:2183  buffer[i] = _SYMBOLS[value & 0xf] */\n      swap1\n      not(0xffffffffffffffffffffffffffffffffffffffffffffffffffffffffffffff)\n      and\n      swap1\n      dup2\n      0x00\n      byte\n      swap1\n      mstore8\n      pop\n        /* \"@openzeppelin/contracts-upgradeable/utils/StringsUpgradeable.sol\":2207:2208  4 */\n      0x04\n        /* \"@openzeppelin/contracts-upgradeable/utils/StringsUpgradeable.sol\":2197:2208  value >>= 4 */\n      dup6\n      swap1\n      shr\n      swap5\n      pop\n        /* \"@openzeppelin/contracts-upgradeable/utils/StringsUpgradeable.sol\":2131:2134  --i */\n      dup1\n      tag_327\n      swap1\n      tag_328\n      jump\t// in\n    tag_327:\n      swap1\n      pop\n        /* \"@openzeppelin/contracts-upgradeable/utils/StringsUpgradeable.sol\":2091:2219  for (uint256 i = 2 * length + 1; i > 1; --i) {... */\n      jump(tag_318)\n    tag_319:\n      pop\n        /* \"@openzeppelin/contracts-upgradeable/utils/StringsUpgradeable.sol\":2245:2246  0 */\n      0x00\n        /* \"@openzeppelin/contracts-upgradeable/utils/StringsUpgradeable.sol\":2236:2241  value */\n      dup5\n        /* \"@openzeppelin/contracts-upgradeable/utils/StringsUpgradeable.sol\":2236:2246  value == 0 */\n      eq\n        /* \"@openzeppelin/contracts-upgradeable/utils/StringsUpgradeable.sol\":2228:2283  require(value == 0, \"Strings: hex length insufficient\") */\n      tag_329\n      jumpi\n      mload(0x40)\n      0x08c379a000000000000000000000000000000000000000000000000000000000\n      dup2\n      mstore\n      0x04\n      add\n      tag_330\n      swap1\n      tag_331\n      jump\t// in\n    tag_330:\n      mload(0x40)\n      dup1\n      swap2\n      sub\n      swap1\n      revert\n    tag_329:\n        /* \"@openzeppelin/contracts-upgradeable/utils/StringsUpgradeable.sol\":2307:2313  buffer */\n      dup1\n        /* \"@openzeppelin/contracts-upgradeable/utils/StringsUpgradeable.sol\":2293:2314  return string(buffer) */\n      swap2\n      pop\n      pop\n        /* \"@openzeppelin/contracts-upgradeable/utils/StringsUpgradeable.sol\":1884:2321  function toHexString(uint256 value, uint256 length) internal pure returns (string memory) {... */\n      swap3\n      swap2\n      pop\n      pop\n      jump\t// out\n        /* \"@openzeppelin/contracts-upgradeable/proxy/ERC1967/ERC1967UpgradeUpgradeable.sol\":2086:2238  function _upgradeTo(address newImplementation) internal {... */\n    tag_300:\n        /* \"@openzeppelin/contracts-upgradeable/proxy/ERC1967/ERC1967UpgradeUpgradeable.sol\":2152:2189  _setImplementation(newImplementation) */\n      tag_333\n        /* \"@openzeppelin/contracts-upgradeable/proxy/ERC1967/ERC1967UpgradeUpgradeable.sol\":2171:2188  newImplementation */\n      dup2\n        /* \"@openzeppelin/contracts-upgradeable/proxy/ERC1967/ERC1967UpgradeUpgradeable.sol\":2152:2170  _setImplementation */\n      tag_245\n        /* \"@openzeppelin/contracts-upgradeable/proxy/ERC1967/ERC1967UpgradeUpgradeable.sol\":2152:2189  _setImplementation(newImplementation) */\n      jump\t// in\n    tag_333:\n        /* \"@openzeppelin/contracts-upgradeable/proxy/ERC1967/ERC1967UpgradeUpgradeable.sol\":2213:2230  newImplementation */\n      dup1\n        /* \"@openzeppelin/contracts-upgradeable/proxy/ERC1967/ERC1967UpgradeUpgradeable.sol\":2204:2231  Upgraded(newImplementation) */\n      0xffffffffffffffffffffffffffffffffffffffff\n      and\n      0xbc7cd75a20ee27fd9adebab32041f755214dbc6bffa90cc0225b39da2e5c2d3b\n      mload(0x40)\n      mload(0x40)\n      dup1\n      swap2\n      sub\n      swap1\n      log2\n        /* \"@openzeppelin/contracts-upgradeable/proxy/ERC1967/ERC1967UpgradeUpgradeable.sol\":2086:2238  function _upgradeTo(address newImplementation) internal {... */\n      pop\n      jump\t// out\n        /* \"@openzeppelin/contracts-upgradeable/utils/AddressUpgradeable.sol\":6685:6883  function functionDelegateCall(address target, bytes memory data) internal returns (bytes memory) {... */\n    tag_304:\n        /* \"@openzeppelin/contracts-upgradeable/utils/AddressUpgradeable.sol\":6768:6780  bytes memory */\n      0x60\n        /* \"@openzeppelin/contracts-upgradeable/utils/AddressUpgradeable.sol\":6799:6876  functionDelegateCall(target, data, \"Address: low-level delegate call failed\") */\n      tag_335\n        /* \"@openzeppelin/contracts-upgradeable/utils/AddressUpgradeable.sol\":6820:6826  target */\n      dup4\n        /* \"@openzeppelin/contracts-upgradeable/utils/AddressUpgradeable.sol\":6828:6832  data */\n      dup4\n        /* \"@openzeppelin/contracts-upgradeable/utils/AddressUpgradeable.sol\":6799:6876  functionDelegateCall(target, data, \"Address: low-level delegate call failed\") */\n      mload(0x40)\n      dup1\n      0x60\n      add\n      0x40\n      mstore\n      dup1\n      0x27\n      dup2\n      mstore\n      0x20\n      add\n      data_9fdcd12e4b726339b32a442b0a448365d5d85c96b2d2cff917b4f66c63110398\n      0x27\n      swap2\n      codecopy\n        /* \"@openzeppelin/contracts-upgradeable/utils/AddressUpgradeable.sol\":6799:6819  functionDelegateCall */\n      tag_336\n        /* \"@openzeppelin/contracts-upgradeable/utils/AddressUpgradeable.sol\":6799:6876  functionDelegateCall(target, data, \"Address: low-level delegate call failed\") */\n      jump\t// in\n    tag_335:\n        /* \"@openzeppelin/contracts-upgradeable/utils/AddressUpgradeable.sol\":6792:6876  return functionDelegateCall(target, data, \"Address: low-level delegate call failed\") */\n      swap1\n      pop\n        /* \"@openzeppelin/contracts-upgradeable/utils/AddressUpgradeable.sol\":6685:6883  function functionDelegateCall(address target, bytes memory data) internal returns (bytes memory) {... */\n      swap3\n      swap2\n      pop\n      pop\n      jump\t// out\n        /* \"@openzeppelin/contracts-upgradeable/utils/AddressUpgradeable.sol\":7069:7394  function functionDelegateCall(... */\n    tag_336:\n        /* \"@openzeppelin/contracts-upgradeable/utils/AddressUpgradeable.sol\":7210:7222  bytes memory */\n      0x60\n        /* \"@openzeppelin/contracts-upgradeable/utils/AddressUpgradeable.sol\":7235:7247  bool success */\n      0x00\n        /* \"@openzeppelin/contracts-upgradeable/utils/AddressUpgradeable.sol\":7249:7272  bytes memory returndata */\n      dup1\n        /* \"@openzeppelin/contracts-upgradeable/utils/AddressUpgradeable.sol\":7276:7282  target */\n      dup6\n        /* \"@openzeppelin/contracts-upgradeable/utils/AddressUpgradeable.sol\":7276:7295  target.delegatecall */\n      0xffffffffffffffffffffffffffffffffffffffff\n      and\n        /* \"@openzeppelin/contracts-upgradeable/utils/AddressUpgradeable.sol\":7296:7300  data */\n      dup6\n        /* \"@openzeppelin/contracts-upgradeable/utils/AddressUpgradeable.sol\":7276:7301  target.delegatecall(data) */\n      mload(0x40)\n      tag_338\n      swap2\n      swap1\n      tag_339\n      jump\t// in\n    tag_338:\n      0x00\n      mload(0x40)\n      dup1\n      dup4\n      sub\n      dup2\n      dup6\n      gas\n      delegatecall\n      swap2\n      pop\n      pop\n      returndatasize\n      dup1\n      0x00\n      dup2\n      eq\n      tag_342\n      jumpi\n      mload(0x40)\n      swap2\n      pop\n      and(add(returndatasize, 0x3f), not(0x1f))\n      dup3\n      add\n      0x40\n      mstore\n      returndatasize\n      dup3\n      mstore\n      returndatasize\n      0x00\n      0x20\n      dup5\n      add\n      returndatacopy\n      jump(tag_341)\n    tag_342:\n      0x60\n      swap2\n      pop\n    tag_341:\n      pop\n        /* \"@openzeppelin/contracts-upgradeable/utils/AddressUpgradeable.sol\":7234:7301  (bool success, bytes memory returndata) = target.delegatecall(data) */\n      swap2\n      pop\n      swap2\n      pop\n        /* \"@openzeppelin/contracts-upgradeable/utils/AddressUpgradeable.sol\":7318:7387  verifyCallResultFromTarget(target, success, returndata, errorMessage) */\n      tag_343\n        /* \"@openzeppelin/contracts-upgradeable/utils/AddressUpgradeable.sol\":7345:7351  target */\n      dup7\n        /* \"@openzeppelin/contracts-upgradeable/utils/AddressUpgradeable.sol\":7353:7360  success */\n      dup4\n        /* \"@openzeppelin/contracts-upgradeable/utils/AddressUpgradeable.sol\":7362:7372  returndata */\n      dup4\n        /* \"@openzeppelin/contracts-upgradeable/utils/AddressUpgradeable.sol\":7374:7386  errorMessage */\n      dup8\n        /* \"@openzeppelin/contracts-upgradeable/utils/AddressUpgradeable.sol\":7318:7344  verifyCallResultFromTarget */\n      tag_344\n        /* \"@openzeppelin/contracts-upgradeable/utils/AddressUpgradeable.sol\":7318:7387  verifyCallResultFromTarget(target, success, returndata, errorMessage) */\n      jump\t// in\n    tag_343:\n        /* \"@openzeppelin/contracts-upgradeable/utils/AddressUpgradeable.sol\":7311:7387  return verifyCallResultFromTarget(target, success, returndata, errorMessage) */\n      swap3\n      pop\n      pop\n      pop\n        /* \"@openzeppelin/contracts-upgradeable/utils/AddressUpgradeable.sol\":7069:7394  function functionDelegateCall(... */\n      swap4\n      swap3\n      pop\n      pop\n      pop\n      jump\t// out\n        /* \"@openzeppelin/contracts-upgradeable/utils/AddressUpgradeable.sol\":7682:8310  function verifyCallResultFromTarget(... */\n    tag_344:\n        /* \"@openzeppelin/contracts-upgradeable/utils/AddressUpgradeable.sol\":7862:7874  bytes memory */\n      0x60\n        /* \"@openzeppelin/contracts-upgradeable/utils/AddressUpgradeable.sol\":7890:7897  success */\n      dup4\n        /* \"@openzeppelin/contracts-upgradeable/utils/AddressUpgradeable.sol\":7886:8304  if (success) {... */\n      iszero\n      tag_346\n      jumpi\n        /* \"@openzeppelin/contracts-upgradeable/utils/AddressUpgradeable.sol\":7938:7939  0 */\n      0x00\n        /* \"@openzeppelin/contracts-upgradeable/utils/AddressUpgradeable.sol\":7917:7927  returndata */\n      dup4\n        /* \"@openzeppelin/contracts-upgradeable/utils/AddressUpgradeable.sol\":7917:7934  returndata.length */\n      mload\n        /* \"@openzeppelin/contracts-upgradeable/utils/AddressUpgradeable.sol\":7917:7939  returndata.length == 0 */\n      sub\n        /* \"@openzeppelin/contracts-upgradeable/utils/AddressUpgradeable.sol\":7913:8199  if (returndata.length == 0) {... */\n      tag_347\n      jumpi\n        /* \"@openzeppelin/contracts-upgradeable/utils/AddressUpgradeable.sol\":8132:8150  isContract(target) */\n      tag_348\n        /* \"@openzeppelin/contracts-upgradeable/utils/AddressUpgradeable.sol\":8143:8149  target */\n      dup6\n        /* \"@openzeppelin/contracts-upgradeable/utils/AddressUpgradeable.sol\":8132:8142  isContract */\n      tag_140\n        /* \"@openzeppelin/contracts-upgradeable/utils/AddressUpgradeable.sol\":8132:8150  isContract(target) */\n      jump\t// in\n    tag_348:\n        /* \"@openzeppelin/contracts-upgradeable/utils/AddressUpgradeable.sol\":8124:8184  require(isContract(target), \"Address: call to non-contract\") */\n      tag_349\n      jumpi\n      mload(0x40)\n      0x08c379a000000000000000000000000000000000000000000000000000000000\n      dup2\n      mstore\n      0x04\n      add\n      tag_350\n      swap1\n      tag_351\n      jump\t// in\n    tag_350:\n      mload(0x40)\n      dup1\n      swap2\n      sub\n      swap1\n      revert\n    tag_349:\n        /* \"@openzeppelin/contracts-upgradeable/utils/AddressUpgradeable.sol\":7913:8199  if (returndata.length == 0) {... */\n    tag_347:\n        /* \"@openzeppelin/contracts-upgradeable/utils/AddressUpgradeable.sol\":8219:8229  returndata */\n      dup3\n        /* \"@openzeppelin/contracts-upgradeable/utils/AddressUpgradeable.sol\":8212:8229  return returndata */\n      swap1\n      pop\n      jump(tag_345)\n        /* \"@openzeppelin/contracts-upgradeable/utils/AddressUpgradeable.sol\":7886:8304  if (success) {... */\n    tag_346:\n        /* \"@openzeppelin/contracts-upgradeable/utils/AddressUpgradeable.sol\":8260:8293  _revert(returndata, errorMessage) */\n      tag_353\n        /* \"@openzeppelin/contracts-upgradeable/utils/AddressUpgradeable.sol\":8268:8278  returndata */\n      dup4\n        /* \"@openzeppelin/contracts-upgradeable/utils/AddressUpgradeable.sol\":8280:8292  errorMessage */\n      dup4\n        /* \"@openzeppelin/contracts-upgradeable/utils/AddressUpgradeable.sol\":8260:8267  _revert */\n      tag_354\n        /* \"@openzeppelin/contracts-upgradeable/utils/AddressUpgradeable.sol\":8260:8293  _revert(returndata, errorMessage) */\n      jump\t// in\n    tag_353:\n        /* \"@openzeppelin/contracts-upgradeable/utils/AddressUpgradeable.sol\":7682:8310  function verifyCallResultFromTarget(... */\n    tag_345:\n      swap5\n      swap4\n      pop\n      pop\n      pop\n      pop\n      jump\t// out\n        /* \"@openzeppelin/contracts-upgradeable/utils/AddressUpgradeable.sol\":8832:9372  function _revert(bytes memory returndata, string memory errorMessage) private pure {... */\n    tag_354:\n        /* \"@openzeppelin/contracts-upgradeable/utils/AddressUpgradeable.sol\":9011:9012  0 */\n      0x00\n        /* \"@openzeppelin/contracts-upgradeable/utils/AddressUpgradeable.sol\":8991:9001  returndata */\n      dup3\n        /* \"@openzeppelin/contracts-upgradeable/utils/AddressUpgradeable.sol\":8991:9008  returndata.length */\n      mload\n        /* \"@openzeppelin/contracts-upgradeable/utils/AddressUpgradeable.sol\":8991:9012  returndata.length > 0 */\n      gt\n        /* \"@openzeppelin/contracts-upgradeable/utils/AddressUpgradeable.sol\":8987:9366  if (returndata.length > 0) {... */\n      iszero\n      tag_356\n      jumpi\n        /* \"@openzeppelin/contracts-upgradeable/utils/AddressUpgradeable.sol\":9219:9229  returndata */\n      dup2\n        /* \"@openzeppelin/contracts-upgradeable/utils/AddressUpgradeable.sol\":9213:9230  mload(returndata) */\n      mload\n        /* \"@openzeppelin/contracts-upgradeable/utils/AddressUpgradeable.sol\":9275:9290  returndata_size */\n      dup1\n        /* \"@openzeppelin/contracts-upgradeable/utils/AddressUpgradeable.sol\":9262:9272  returndata */\n      dup4\n        /* \"@openzeppelin/contracts-upgradeable/utils/AddressUpgradeable.sol\":9258:9260  32 */\n      0x20\n        /* \"@openzeppelin/contracts-upgradeable/utils/AddressUpgradeable.sol\":9254:9273  add(32, returndata) */\n      add\n        /* \"@openzeppelin/contracts-upgradeable/utils/AddressUpgradeable.sol\":9247:9291  revert(add(32, returndata), returndata_size) */\n      revert\n        /* \"@openzeppelin/contracts-upgradeable/utils/AddressUpgradeable.sol\":8987:9366  if (returndata.length > 0) {... */\n    tag_356:\n        /* \"@openzeppelin/contracts-upgradeable/utils/AddressUpgradeable.sol\":9342:9354  errorMessage */\n      dup1\n        /* \"@openzeppelin/contracts-upgradeable/utils/AddressUpgradeable.sol\":9335:9355  revert(errorMessage) */\n      mload(0x40)\n      0x08c379a000000000000000000000000000000000000000000000000000000000\n      dup2\n      mstore\n      0x04\n      add\n      tag_358\n      swap2\n      swap1\n      tag_289\n      jump\t// in\n    tag_358:\n      mload(0x40)\n      dup1\n      swap2\n      sub\n      swap1\n      revert\n        /* \"#utility.yul\":7:82   */\n    tag_359:\n        /* \"#utility.yul\":40:46   */\n      0x00\n        /* \"#utility.yul\":73:75   */\n      0x40\n        /* \"#utility.yul\":67:76   */\n      mload\n        /* \"#utility.yul\":57:76   */\n      swap1\n      pop\n        /* \"#utility.yul\":7:82   */\n      swap1\n      jump\t// out\n        /* \"#utility.yul\":88:205   */\n    tag_360:\n        /* \"#utility.yul\":197:198   */\n      0x00\n        /* \"#utility.yul\":194:195   */\n      dup1\n        /* \"#utility.yul\":187:199   */\n      revert\n        /* \"#utility.yul\":211:328   */\n    tag_361:\n        /* \"#utility.yul\":320:321   */\n      0x00\n        /* \"#utility.yul\":317:318   */\n      dup1\n        /* \"#utility.yul\":310:322   */\n      revert\n        /* \"#utility.yul\":334:483   */\n    tag_362:\n        /* \"#utility.yul\":370:377   */\n      0x00\n        /* \"#utility.yul\":410:476   */\n      0xffffffff00000000000000000000000000000000000000000000000000000000\n        /* \"#utility.yul\":403:408   */\n      dup3\n        /* \"#utility.yul\":399:477   */\n      and\n        /* \"#utility.yul\":388:477   */\n      swap1\n      pop\n        /* \"#utility.yul\":334:483   */\n      swap2\n      swap1\n      pop\n      jump\t// out\n        /* \"#utility.yul\":489:609   */\n    tag_363:\n        /* \"#utility.yul\":561:584   */\n      tag_447\n        /* \"#utility.yul\":578:583   */\n      dup2\n        /* \"#utility.yul\":561:584   */\n      tag_362\n      jump\t// in\n    tag_447:\n        /* \"#utility.yul\":554:559   */\n      dup2\n        /* \"#utility.yul\":551:585   */\n      eq\n        /* \"#utility.yul\":541:603   */\n      tag_448\n      jumpi\n        /* \"#utility.yul\":599:600   */\n      0x00\n        /* \"#utility.yul\":596:597   */\n      dup1\n        /* \"#utility.yul\":589:601   */\n      revert\n        /* \"#utility.yul\":541:603   */\n    tag_448:\n        /* \"#utility.yul\":489:609   */\n      pop\n      jump\t// out\n        /* \"#utility.yul\":615:752   */\n    tag_364:\n        /* \"#utility.yul\":660:665   */\n      0x00\n        /* \"#utility.yul\":698:704   */\n      dup2\n        /* \"#utility.yul\":685:705   */\n      calldataload\n        /* \"#utility.yul\":676:705   */\n      swap1\n      pop\n        /* \"#utility.yul\":714:746   */\n      tag_450\n        /* \"#utility.yul\":740:745   */\n      dup2\n        /* \"#utility.yul\":714:746   */\n      tag_363\n      jump\t// in\n    tag_450:\n        /* \"#utility.yul\":615:752   */\n      swap3\n      swap2\n      pop\n      pop\n      jump\t// out\n        /* \"#utility.yul\":758:1085   */\n    tag_24:\n        /* \"#utility.yul\":816:822   */\n      0x00\n        /* \"#utility.yul\":865:867   */\n      0x20\n        /* \"#utility.yul\":853:862   */\n      dup3\n        /* \"#utility.yul\":844:851   */\n      dup5\n        /* \"#utility.yul\":840:863   */\n      sub\n        /* \"#utility.yul\":836:868   */\n      slt\n        /* \"#utility.yul\":833:952   */\n      iszero\n      tag_452\n      jumpi\n        /* \"#utility.yul\":871:950   */\n      tag_453\n      tag_360\n      jump\t// in\n    tag_453:\n        /* \"#utility.yul\":833:952   */\n    tag_452:\n        /* \"#utility.yul\":991:992   */\n      0x00\n        /* \"#utility.yul\":1016:1068   */\n      tag_454\n        /* \"#utility.yul\":1060:1067   */\n      dup5\n        /* \"#utility.yul\":1051:1057   */\n      dup3\n        /* \"#utility.yul\":1040:1049   */\n      dup6\n        /* \"#utility.yul\":1036:1058   */\n      add\n        /* \"#utility.yul\":1016:1068   */\n      tag_364\n      jump\t// in\n    tag_454:\n        /* \"#utility.yul\":1006:1068   */\n      swap2\n      pop\n        /* \"#utility.yul\":962:1078   */\n      pop\n        /* \"#utility.yul\":758:1085   */\n      swap3\n      swap2\n      pop\n      pop\n      jump\t// out\n        /* \"#utility.yul\":1091:1181   */\n    tag_365:\n        /* \"#utility.yul\":1125:1132   */\n      0x00\n        /* \"#utility.yul\":1168:1173   */\n      dup2\n        /* \"#utility.yul\":1161:1174   */\n      iszero\n        /* \"#utility.yul\":1154:1175   */\n      iszero\n        /* \"#utility.yul\":1143:1175   */\n      swap1\n      pop\n        /* \"#utility.yul\":1091:1181   */\n      swap2\n      swap1\n      pop\n      jump\t// out\n        /* \"#utility.yul\":1187:1296   */\n    tag_366:\n        /* \"#utility.yul\":1268:1289   */\n      tag_457\n        /* \"#utility.yul\":1283:1288   */\n      dup2\n        /* \"#utility.yul\":1268:1289   */\n      tag_365\n      jump\t// in\n    tag_457:\n        /* \"#utility.yul\":1263:1266   */\n      dup3\n        /* \"#utility.yul\":1256:1290   */\n      mstore\n        /* \"#utility.yul\":1187:1296   */\n      pop\n      pop\n      jump\t// out\n        /* \"#utility.yul\":1302:1512   */\n    tag_27:\n        /* \"#utility.yul\":1389:1393   */\n      0x00\n        /* \"#utility.yul\":1427:1429   */\n      0x20\n        /* \"#utility.yul\":1416:1425   */\n      dup3\n        /* \"#utility.yul\":1412:1430   */\n      add\n        /* \"#utility.yul\":1404:1430   */\n      swap1\n      pop\n        /* \"#utility.yul\":1440:1505   */\n      tag_459\n        /* \"#utility.yul\":1502:1503   */\n      0x00\n        /* \"#utility.yul\":1491:1500   */\n      dup4\n        /* \"#utility.yul\":1487:1504   */\n      add\n        /* \"#utility.yul\":1478:1484   */\n      dup5\n        /* \"#utility.yul\":1440:1505   */\n      tag_366\n      jump\t// in\n    tag_459:\n        /* \"#utility.yul\":1302:1512   */\n      swap3\n      swap2\n      pop\n      pop\n      jump\t// out\n        /* \"#utility.yul\":1518:1595   */\n    tag_367:\n        /* \"#utility.yul\":1555:1562   */\n      0x00\n        /* \"#utility.yul\":1584:1589   */\n      dup2\n        /* \"#utility.yul\":1573:1589   */\n      swap1\n      pop\n        /* \"#utility.yul\":1518:1595   */\n      swap2\n      swap1\n      pop\n      jump\t// out\n        /* \"#utility.yul\":1601:1723   */\n    tag_368:\n        /* \"#utility.yul\":1674:1698   */\n      tag_462\n        /* \"#utility.yul\":1692:1697   */\n      dup2\n        /* \"#utility.yul\":1674:1698   */\n      tag_367\n      jump\t// in\n    tag_462:\n        /* \"#utility.yul\":1667:1672   */\n      dup2\n        /* \"#utility.yul\":1664:1699   */\n      eq\n        /* \"#utility.yul\":1654:1717   */\n      tag_463\n      jumpi\n        /* \"#utility.yul\":1713:1714   */\n      0x00\n        /* \"#utility.yul\":1710:1711   */\n      dup1\n        /* \"#utility.yul\":1703:1715   */\n      revert\n        /* \"#utility.yul\":1654:1717   */\n    tag_463:\n        /* \"#utility.yul\":1601:1723   */\n      pop\n      jump\t// out\n        /* \"#utility.yul\":1729:1868   */\n    tag_369:\n        /* \"#utility.yul\":1775:1780   */\n      0x00\n        /* \"#utility.yul\":1813:1819   */\n      dup2\n        /* \"#utility.yul\":1800:1820   */\n      calldataload\n        /* \"#utility.yul\":1791:1820   */\n      swap1\n      pop\n        /* \"#utility.yul\":1829:1862   */\n      tag_465\n        /* \"#utility.yul\":1856:1861   */\n      dup2\n        /* \"#utility.yul\":1829:1862   */\n      tag_368\n      jump\t// in\n    tag_465:\n        /* \"#utility.yul\":1729:1868   */\n      swap3\n      swap2\n      pop\n      pop\n      jump\t// out\n        /* \"#utility.yul\":1874:2203   */\n    tag_31:\n        /* \"#utility.yul\":1933:1939   */\n      0x00\n        /* \"#utility.yul\":1982:1984   */\n      0x20\n        /* \"#utility.yul\":1970:1979   */\n      dup3\n        /* \"#utility.yul\":1961:1968   */\n      dup5\n        /* \"#utility.yul\":1957:1980   */\n      sub\n        /* \"#utility.yul\":1953:1985   */\n      slt\n        /* \"#utility.yul\":1950:2069   */\n      iszero\n      tag_467\n      jumpi\n        /* \"#utility.yul\":1988:2067   */\n      tag_468\n      tag_360\n      jump\t// in\n    tag_468:\n        /* \"#utility.yul\":1950:2069   */\n    tag_467:\n        /* \"#utility.yul\":2108:2109   */\n      0x00\n        /* \"#utility.yul\":2133:2186   */\n      tag_469\n        /* \"#utility.yul\":2178:2185   */\n      dup5\n        /* \"#utility.yul\":2169:2175   */\n      dup3\n        /* \"#utility.yul\":2158:2167   */\n      dup6\n        /* \"#utility.yul\":2154:2176   */\n      add\n        /* \"#utility.yul\":2133:2186   */\n      tag_369\n      jump\t// in\n    tag_469:\n        /* \"#utility.yul\":2123:2186   */\n      swap2\n      pop\n        /* \"#utility.yul\":2079:2196   */\n      pop\n        /* \"#utility.yul\":1874:2203   */\n      swap3\n      swap2\n      pop\n      pop\n      jump\t// out\n        /* \"#utility.yul\":2209:2327   */\n    tag_370:\n        /* \"#utility.yul\":2296:2320   */\n      tag_471\n        /* \"#utility.yul\":2314:2319   */\n      dup2\n        /* \"#utility.yul\":2296:2320   */\n      tag_367\n      jump\t// in\n    tag_471:\n        /* \"#utility.yul\":2291:2294   */\n      dup3\n        /* \"#utility.yul\":2284:2321   */\n      mstore\n        /* \"#utility.yul\":2209:2327   */\n      pop\n      pop\n      jump\t// out\n        /* \"#utility.yul\":2333:2555   */\n    tag_34:\n        /* \"#utility.yul\":2426:2430   */\n      0x00\n        /* \"#utility.yul\":2464:2466   */\n      0x20\n        /* \"#utility.yul\":2453:2462   */\n      dup3\n        /* \"#utility.yul\":2449:2467   */\n      add\n        /* \"#utility.yul\":2441:2467   */\n      swap1\n      pop\n        /* \"#utility.yul\":2477:2548   */\n      tag_473\n        /* \"#utility.yul\":2545:2546   */\n      0x00\n        /* \"#utility.yul\":2534:2543   */\n      dup4\n        /* \"#utility.yul\":2530:2547   */\n      add\n        /* \"#utility.yul\":2521:2527   */\n      dup5\n        /* \"#utility.yul\":2477:2548   */\n      tag_370\n      jump\t// in\n    tag_473:\n        /* \"#utility.yul\":2333:2555   */\n      swap3\n      swap2\n      pop\n      pop\n      jump\t// out\n        /* \"#utility.yul\":2561:2687   */\n    tag_371:\n        /* \"#utility.yul\":2598:2605   */\n      0x00\n        /* \"#utility.yul\":2638:2680   */\n      0xffffffffffffffffffffffffffffffffffffffff\n        /* \"#utility.yul\":2631:2636   */\n      dup3\n        /* \"#utility.yul\":2627:2681   */\n      and\n        /* \"#utility.yul\":2616:2681   */\n      swap1\n      pop\n        /* \"#utility.yul\":2561:2687   */\n      swap2\n      swap1\n      pop\n      jump\t// out\n        /* \"#utility.yul\":2693:2789   */\n    tag_372:\n        /* \"#utility.yul\":2730:2737   */\n      0x00\n        /* \"#utility.yul\":2759:2783   */\n      tag_476\n        /* \"#utility.yul\":2777:2782   */\n      dup3\n        /* \"#utility.yul\":2759:2783   */\n      tag_371\n      jump\t// in\n    tag_476:\n        /* \"#utility.yul\":2748:2783   */\n      swap1\n      pop\n        /* \"#utility.yul\":2693:2789   */\n      swap2\n      swap1\n      pop\n      jump\t// out\n        /* \"#utility.yul\":2795:2917   */\n    tag_373:\n        /* \"#utility.yul\":2868:2892   */\n      tag_478\n        /* \"#utility.yul\":2886:2891   */\n      dup2\n        /* \"#utility.yul\":2868:2892   */\n      tag_372\n      jump\t// in\n    tag_478:\n        /* \"#utility.yul\":2861:2866   */\n      dup2\n        /* \"#utility.yul\":2858:2893   */\n      eq\n        /* \"#utility.yul\":2848:2911   */\n      tag_479\n      jumpi\n        /* \"#utility.yul\":2907:2908   */\n      0x00\n        /* \"#utility.yul\":2904:2905   */\n      dup1\n        /* \"#utility.yul\":2897:2909   */\n      revert\n        /* \"#utility.yul\":2848:2911   */\n    tag_479:\n        /* \"#utility.yul\":2795:2917   */\n      pop\n      jump\t// out\n        /* \"#utility.yul\":2923:3062   */\n    tag_374:\n        /* \"#utility.yul\":2969:2974   */\n      0x00\n        /* \"#utility.yul\":3007:3013   */\n      dup2\n        /* \"#utility.yul\":2994:3014   */\n      calldataload\n        /* \"#utility.yul\":2985:3014   */\n      swap1\n      pop\n        /* \"#utility.yul\":3023:3056   */\n      tag_481\n        /* \"#utility.yul\":3050:3055   */\n      dup2\n        /* \"#utility.yul\":3023:3056   */\n      tag_373\n      jump\t// in\n    tag_481:\n        /* \"#utility.yul\":2923:3062   */\n      swap3\n      swap2\n      pop\n      pop\n      jump\t// out\n        /* \"#utility.yul\":3068:3542   */\n    tag_38:\n        /* \"#utility.yul\":3136:3142   */\n      0x00\n        /* \"#utility.yul\":3144:3150   */\n      dup1\n        /* \"#utility.yul\":3193:3195   */\n      0x40\n        /* \"#utility.yul\":3181:3190   */\n      dup4\n        /* \"#utility.yul\":3172:3179   */\n      dup6\n        /* \"#utility.yul\":3168:3191   */\n      sub\n        /* \"#utility.yul\":3164:3196   */\n      slt\n        /* \"#utility.yul\":3161:3280   */\n      iszero\n      tag_483\n      jumpi\n        /* \"#utility.yul\":3199:3278   */\n      tag_484\n      tag_360\n      jump\t// in\n    tag_484:\n        /* \"#utility.yul\":3161:3280   */\n    tag_483:\n        /* \"#utility.yul\":3319:3320   */\n      0x00\n        /* \"#utility.yul\":3344:3397   */\n      tag_485\n        /* \"#utility.yul\":3389:3396   */\n      dup6\n        /* \"#utility.yul\":3380:3386   */\n      dup3\n        /* \"#utility.yul\":3369:3378   */\n      dup7\n        /* \"#utility.yul\":3365:3387   */\n      add\n        /* \"#utility.yul\":3344:3397   */\n      tag_369\n      jump\t// in\n    tag_485:\n        /* \"#utility.yul\":3334:3397   */\n      swap3\n      pop\n        /* \"#utility.yul\":3290:3407   */\n      pop\n        /* \"#utility.yul\":3446:3448   */\n      0x20\n        /* \"#utility.yul\":3472:3525   */\n      tag_486\n        /* \"#utility.yul\":3517:3524   */\n      dup6\n        /* \"#utility.yul\":3508:3514   */\n      dup3\n        /* \"#utility.yul\":3497:3506   */\n      dup7\n        /* \"#utility.yul\":3493:3515   */\n      add\n        /* \"#utility.yul\":3472:3525   */\n      tag_374\n      jump\t// in\n    tag_486:\n        /* \"#utility.yul\":3462:3525   */\n      swap2\n      pop\n        /* \"#utility.yul\":3417:3535   */\n      pop\n        /* \"#utility.yul\":3068:3542   */\n      swap3\n      pop\n      swap3\n      swap1\n      pop\n      jump\t// out\n        /* \"#utility.yul\":3548:3877   */\n    tag_47:\n        /* \"#utility.yul\":3607:3613   */\n      0x00\n        /* \"#utility.yul\":3656:3658   */\n      0x20\n        /* \"#utility.yul\":3644:3653   */\n      dup3\n        /* \"#utility.yul\":3635:3642   */\n      dup5\n        /* \"#utility.yul\":3631:3654   */\n      sub\n        /* \"#utility.yul\":3627:3659   */\n      slt\n        /* \"#utility.yul\":3624:3743   */\n      iszero\n      tag_488\n      jumpi\n        /* \"#utility.yul\":3662:3741   */\n      tag_489\n      tag_360\n      jump\t// in\n    tag_489:\n        /* \"#utility.yul\":3624:3743   */\n    tag_488:\n        /* \"#utility.yul\":3782:3783   */\n      0x00\n        /* \"#utility.yul\":3807:3860   */\n      tag_490\n        /* \"#utility.yul\":3852:3859   */\n      dup5\n        /* \"#utility.yul\":3843:3849   */\n      dup3\n        /* \"#utility.yul\":3832:3841   */\n      dup6\n        /* \"#utility.yul\":3828:3850   */\n      add\n        /* \"#utility.yul\":3807:3860   */\n      tag_374\n      jump\t// in\n    tag_490:\n        /* \"#utility.yul\":3797:3860   */\n      swap2\n      pop\n        /* \"#utility.yul\":3753:3870   */\n      pop\n        /* \"#utility.yul\":3548:3877   */\n      swap3\n      swap2\n      pop\n      pop\n      jump\t// out\n        /* \"#utility.yul\":3883:4357   */\n    tag_52:\n        /* \"#utility.yul\":3951:3957   */\n      0x00\n        /* \"#utility.yul\":3959:3965   */\n      dup1\n        /* \"#utility.yul\":4008:4010   */\n      0x40\n        /* \"#utility.yul\":3996:4005   */\n      dup4\n        /* \"#utility.yul\":3987:3994   */\n      dup6\n        /* \"#utility.yul\":3983:4006   */\n      sub\n        /* \"#utility.yul\":3979:4011   */\n      slt\n        /* \"#utility.yul\":3976:4095   */\n      iszero\n      tag_492\n      jumpi\n        /* \"#utility.yul\":4014:4093   */\n      tag_493\n      tag_360\n      jump\t// in\n    tag_493:\n        /* \"#utility.yul\":3976:4095   */\n    tag_492:\n        /* \"#utility.yul\":4134:4135   */\n      0x00\n        /* \"#utility.yul\":4159:4212   */\n      tag_494\n        /* \"#utility.yul\":4204:4211   */\n      dup6\n        /* \"#utility.yul\":4195:4201   */\n      dup3\n        /* \"#utility.yul\":4184:4193   */\n      dup7\n        /* \"#utility.yul\":4180:4202   */\n      add\n        /* \"#utility.yul\":4159:4212   */\n      tag_374\n      jump\t// in\n    tag_494:\n        /* \"#utility.yul\":4149:4212   */\n      swap3\n      pop\n        /* \"#utility.yul\":4105:4222   */\n      pop\n        /* \"#utility.yul\":4261:4263   */\n      0x20\n        /* \"#utility.yul\":4287:4340   */\n      tag_495\n        /* \"#utility.yul\":4332:4339   */\n      dup6\n        /* \"#utility.yul\":4323:4329   */\n      dup3\n        /* \"#utility.yul\":4312:4321   */\n      dup7\n        /* \"#utility.yul\":4308:4330   */\n      add\n        /* \"#utility.yul\":4287:4340   */\n      tag_374\n      jump\t// in\n    tag_495:\n        /* \"#utility.yul\":4277:4340   */\n      swap2\n      pop\n        /* \"#utility.yul\":4232:4350   */\n      pop\n        /* \"#utility.yul\":3883:4357   */\n      swap3\n      pop\n      swap3\n      swap1\n      pop\n      jump\t// out\n        /* \"#utility.yul\":4363:4480   */\n    tag_375:\n        /* \"#utility.yul\":4472:4473   */\n      0x00\n        /* \"#utility.yul\":4469:4470   */\n      dup1\n        /* \"#utility.yul\":4462:4474   */\n      revert\n        /* \"#utility.yul\":4486:4603   */\n    tag_376:\n        /* \"#utility.yul\":4595:4596   */\n      0x00\n        /* \"#utility.yul\":4592:4593   */\n      dup1\n        /* \"#utility.yul\":4585:4597   */\n      revert\n        /* \"#utility.yul\":4609:4711   */\n    tag_377:\n        /* \"#utility.yul\":4650:4656   */\n      0x00\n        /* \"#utility.yul\":4701:4703   */\n      0x1f\n        /* \"#utility.yul\":4697:4704   */\n      not\n        /* \"#utility.yul\":4692:4694   */\n      0x1f\n        /* \"#utility.yul\":4685:4690   */\n      dup4\n        /* \"#utility.yul\":4681:4695   */\n      add\n        /* \"#utility.yul\":4677:4705   */\n      and\n        /* \"#utility.yul\":4667:4705   */\n      swap1\n      pop\n        /* \"#utility.yul\":4609:4711   */\n      swap2\n      swap1\n      pop\n      jump\t// out\n        /* \"#utility.yul\":4717:4897   */\n    tag_133:\n        /* \"#utility.yul\":4765:4842   */\n      0x4e487b7100000000000000000000000000000000000000000000000000000000\n        /* \"#utility.yul\":4762:4763   */\n      0x00\n        /* \"#utility.yul\":4755:4843   */\n      mstore\n        /* \"#utility.yul\":4862:4866   */\n      0x41\n        /* \"#utility.yul\":4859:4860   */\n      0x04\n        /* \"#utility.yul\":4852:4867   */\n      mstore\n        /* \"#utility.yul\":4886:4890   */\n      0x24\n        /* \"#utility.yul\":4883:4884   */\n      0x00\n        /* \"#utility.yul\":4876:4891   */\n      revert\n        /* \"#utility.yul\":4903:5184   */\n    tag_378:\n        /* \"#utility.yul\":4986:5013   */\n      tag_501\n        /* \"#utility.yul\":5008:5012   */\n      dup3\n        /* \"#utility.yul\":4986:5013   */\n      tag_377\n      jump\t// in\n    tag_501:\n        /* \"#utility.yul\":4978:4984   */\n      dup2\n        /* \"#utility.yul\":4974:5014   */\n      add\n        /* \"#utility.yul\":5116:5122   */\n      dup2\n        /* \"#utility.yul\":5104:5114   */\n      dup2\n        /* \"#utility.yul\":5101:5123   */\n      lt\n        /* \"#utility.yul\":5080:5098   */\n      0xffffffffffffffff\n        /* \"#utility.yul\":5068:5078   */\n      dup3\n        /* \"#utility.yul\":5065:5099   */\n      gt\n        /* \"#utility.yul\":5062:5124   */\n      or\n        /* \"#utility.yul\":5059:5147   */\n      iszero\n      tag_502\n      jumpi\n        /* \"#utility.yul\":5127:5145   */\n      tag_503\n      tag_133\n      jump\t// in\n    tag_503:\n        /* \"#utility.yul\":5059:5147   */\n    tag_502:\n        /* \"#utility.yul\":5167:5177   */\n      dup1\n        /* \"#utility.yul\":5163:5165   */\n      0x40\n        /* \"#utility.yul\":5156:5178   */\n      mstore\n        /* \"#utility.yul\":4946:5184   */\n      pop\n        /* \"#utility.yul\":4903:5184   */\n      pop\n      pop\n      jump\t// out\n        /* \"#utility.yul\":5190:5319   */\n    tag_379:\n        /* \"#utility.yul\":5224:5230   */\n      0x00\n        /* \"#utility.yul\":5251:5271   */\n      tag_505\n      tag_359\n      jump\t// in\n    tag_505:\n        /* \"#utility.yul\":5241:5271   */\n      swap1\n      pop\n        /* \"#utility.yul\":5280:5313   */\n      tag_506\n        /* \"#utility.yul\":5308:5312   */\n      dup3\n        /* \"#utility.yul\":5300:5306   */\n      dup3\n        /* \"#utility.yul\":5280:5313   */\n      tag_378\n      jump\t// in\n    tag_506:\n        /* \"#utility.yul\":5190:5319   */\n      swap2\n      swap1\n      pop\n      jump\t// out\n        /* \"#utility.yul\":5325:5632   */\n    tag_380:\n        /* \"#utility.yul\":5386:5390   */\n      0x00\n        /* \"#utility.yul\":5476:5494   */\n      0xffffffffffffffff\n        /* \"#utility.yul\":5468:5474   */\n      dup3\n        /* \"#utility.yul\":5465:5495   */\n      gt\n        /* \"#utility.yul\":5462:5518   */\n      iszero\n      tag_508\n      jumpi\n        /* \"#utility.yul\":5498:5516   */\n      tag_509\n      tag_133\n      jump\t// in\n    tag_509:\n        /* \"#utility.yul\":5462:5518   */\n    tag_508:\n        /* \"#utility.yul\":5536:5565   */\n      tag_510\n        /* \"#utility.yul\":5558:5564   */\n      dup3\n        /* \"#utility.yul\":5536:5565   */\n      tag_377\n      jump\t// in\n    tag_510:\n        /* \"#utility.yul\":5528:5565   */\n      swap1\n      pop\n        /* \"#utility.yul\":5620:5624   */\n      0x20\n        /* \"#utility.yul\":5614:5618   */\n      dup2\n        /* \"#utility.yul\":5610:5625   */\n      add\n        /* \"#utility.yul\":5602:5625   */\n      swap1\n      pop\n        /* \"#utility.yul\":5325:5632   */\n      swap2\n      swap1\n      pop\n      jump\t// out\n        /* \"#utility.yul\":5638:5786   */\n    tag_381:\n        /* \"#utility.yul\":5736:5742   */\n      dup3\n        /* \"#utility.yul\":5731:5734   */\n      dup2\n        /* \"#utility.yul\":5726:5729   */\n      dup4\n        /* \"#utility.yul\":5713:5743   */\n      calldatacopy\n        /* \"#utility.yul\":5777:5778   */\n      0x00\n        /* \"#utility.yul\":5768:5774   */\n      dup4\n        /* \"#utility.yul\":5763:5766   */\n      dup4\n        /* \"#utility.yul\":5759:5775   */\n      add\n        /* \"#utility.yul\":5752:5779   */\n      mstore\n        /* \"#utility.yul\":5638:5786   */\n      pop\n      pop\n      pop\n      jump\t// out\n        /* \"#utility.yul\":5792:6215   */\n    tag_382:\n        /* \"#utility.yul\":5869:5874   */\n      0x00\n        /* \"#utility.yul\":5894:5959   */\n      tag_513\n        /* \"#utility.yul\":5910:5958   */\n      tag_514\n        /* \"#utility.yul\":5951:5957   */\n      dup5\n        /* \"#utility.yul\":5910:5958   */\n      tag_380\n      jump\t// in\n    tag_514:\n        /* \"#utility.yul\":5894:5959   */\n      tag_379\n      jump\t// in\n    tag_513:\n        /* \"#utility.yul\":5885:5959   */\n      swap1\n      pop\n        /* \"#utility.yul\":5982:5988   */\n      dup3\n        /* \"#utility.yul\":5975:5980   */\n      dup2\n        /* \"#utility.yul\":5968:5989   */\n      mstore\n        /* \"#utility.yul\":6020:6024   */\n      0x20\n        /* \"#utility.yul\":6013:6018   */\n      dup2\n        /* \"#utility.yul\":6009:6025   */\n      add\n        /* \"#utility.yul\":6058:6061   */\n      dup5\n        /* \"#utility.yul\":6049:6055   */\n      dup5\n        /* \"#utility.yul\":6044:6047   */\n      dup5\n        /* \"#utility.yul\":6040:6056   */\n      add\n        /* \"#utility.yul\":6037:6062   */\n      gt\n        /* \"#utility.yul\":6034:6146   */\n      iszero\n      tag_515\n      jumpi\n        /* \"#utility.yul\":6065:6144   */\n      tag_516\n      tag_376\n      jump\t// in\n    tag_516:\n        /* \"#utility.yul\":6034:6146   */\n    tag_515:\n        /* \"#utility.yul\":6155:6209   */\n      tag_517\n        /* \"#utility.yul\":6202:6208   */\n      dup5\n        /* \"#utility.yul\":6197:6200   */\n      dup3\n        /* \"#utility.yul\":6192:6195   */\n      dup6\n        /* \"#utility.yul\":6155:6209   */\n      tag_381\n      jump\t// in\n    tag_517:\n        /* \"#utility.yul\":5875:6215   */\n      pop\n        /* \"#utility.yul\":5792:6215   */\n      swap4\n      swap3\n      pop\n      pop\n      pop\n      jump\t// out\n        /* \"#utility.yul\":6234:6572   */\n    tag_383:\n        /* \"#utility.yul\":6289:6294   */\n      0x00\n        /* \"#utility.yul\":6338:6341   */\n      dup3\n        /* \"#utility.yul\":6331:6335   */\n      0x1f\n        /* \"#utility.yul\":6323:6329   */\n      dup4\n        /* \"#utility.yul\":6319:6336   */\n      add\n        /* \"#utility.yul\":6315:6342   */\n      slt\n        /* \"#utility.yul\":6305:6427   */\n      tag_519\n      jumpi\n        /* \"#utility.yul\":6346:6425   */\n      tag_520\n      tag_375\n      jump\t// in\n    tag_520:\n        /* \"#utility.yul\":6305:6427   */\n    tag_519:\n        /* \"#utility.yul\":6463:6469   */\n      dup2\n        /* \"#utility.yul\":6450:6470   */\n      calldataload\n        /* \"#utility.yul\":6488:6566   */\n      tag_521\n        /* \"#utility.yul\":6562:6565   */\n      dup5\n        /* \"#utility.yul\":6554:6560   */\n      dup3\n        /* \"#utility.yul\":6547:6551   */\n      0x20\n        /* \"#utility.yul\":6539:6545   */\n      dup7\n        /* \"#utility.yul\":6535:6552   */\n      add\n        /* \"#utility.yul\":6488:6566   */\n      tag_382\n      jump\t// in\n    tag_521:\n        /* \"#utility.yul\":6479:6566   */\n      swap2\n      pop\n        /* \"#utility.yul\":6295:6572   */\n      pop\n        /* \"#utility.yul\":6234:6572   */\n      swap3\n      swap2\n      pop\n      pop\n      jump\t// out\n        /* \"#utility.yul\":6578:7230   */\n    tag_56:\n        /* \"#utility.yul\":6655:6661   */\n      0x00\n        /* \"#utility.yul\":6663:6669   */\n      dup1\n        /* \"#utility.yul\":6712:6714   */\n      0x40\n        /* \"#utility.yul\":6700:6709   */\n      dup4\n        /* \"#utility.yul\":6691:6698   */\n      dup6\n        /* \"#utility.yul\":6687:6710   */\n      sub\n        /* \"#utility.yul\":6683:6715   */\n      slt\n        /* \"#utility.yul\":6680:6799   */\n      iszero\n      tag_523\n      jumpi\n        /* \"#utility.yul\":6718:6797   */\n      tag_524\n      tag_360\n      jump\t// in\n    tag_524:\n        /* \"#utility.yul\":6680:6799   */\n    tag_523:\n        /* \"#utility.yul\":6838:6839   */\n      0x00\n        /* \"#utility.yul\":6863:6916   */\n      tag_525\n        /* \"#utility.yul\":6908:6915   */\n      dup6\n        /* \"#utility.yul\":6899:6905   */\n      dup3\n        /* \"#utility.yul\":6888:6897   */\n      dup7\n        /* \"#utility.yul\":6884:6906   */\n      add\n        /* \"#utility.yul\":6863:6916   */\n      tag_374\n      jump\t// in\n    tag_525:\n        /* \"#utility.yul\":6853:6916   */\n      swap3\n      pop\n        /* \"#utility.yul\":6809:6926   */\n      pop\n        /* \"#utility.yul\":6993:6995   */\n      0x20\n        /* \"#utility.yul\":6982:6991   */\n      dup4\n        /* \"#utility.yul\":6978:6996   */\n      add\n        /* \"#utility.yul\":6965:6997   */\n      calldataload\n        /* \"#utility.yul\":7024:7042   */\n      0xffffffffffffffff\n        /* \"#utility.yul\":7016:7022   */\n      dup2\n        /* \"#utility.yul\":7013:7043   */\n      gt\n        /* \"#utility.yul\":7010:7127   */\n      iszero\n      tag_526\n      jumpi\n        /* \"#utility.yul\":7046:7125   */\n      tag_527\n      tag_361\n      jump\t// in\n    tag_527:\n        /* \"#utility.yul\":7010:7127   */\n    tag_526:\n        /* \"#utility.yul\":7151:7213   */\n      tag_528\n        /* \"#utility.yul\":7205:7212   */\n      dup6\n        /* \"#utility.yul\":7196:7202   */\n      dup3\n        /* \"#utility.yul\":7185:7194   */\n      dup7\n        /* \"#utility.yul\":7181:7203   */\n      add\n        /* \"#utility.yul\":7151:7213   */\n      tag_383\n      jump\t// in\n    tag_528:\n        /* \"#utility.yul\":7141:7213   */\n      swap2\n      pop\n        /* \"#utility.yul\":6936:7223   */\n      pop\n        /* \"#utility.yul\":6578:7230   */\n      swap3\n      pop\n      swap3\n      swap1\n      pop\n      jump\t// out\n        /* \"#utility.yul\":7236:7547   */\n    tag_384:\n        /* \"#utility.yul\":7313:7317   */\n      0x00\n        /* \"#utility.yul\":7403:7421   */\n      0xffffffffffffffff\n        /* \"#utility.yul\":7395:7401   */\n      dup3\n        /* \"#utility.yul\":7392:7422   */\n      gt\n        /* \"#utility.yul\":7389:7445   */\n      iszero\n      tag_530\n      jumpi\n        /* \"#utility.yul\":7425:7443   */\n      tag_531\n      tag_133\n      jump\t// in\n    tag_531:\n        /* \"#utility.yul\":7389:7445   */\n    tag_530:\n        /* \"#utility.yul\":7475:7479   */\n      0x20\n        /* \"#utility.yul\":7467:7473   */\n      dup3\n        /* \"#utility.yul\":7463:7480   */\n      mul\n        /* \"#utility.yul\":7455:7480   */\n      swap1\n      pop\n        /* \"#utility.yul\":7535:7539   */\n      0x20\n        /* \"#utility.yul\":7529:7533   */\n      dup2\n        /* \"#utility.yul\":7525:7540   */\n      add\n        /* \"#utility.yul\":7517:7540   */\n      swap1\n      pop\n        /* \"#utility.yul\":7236:7547   */\n      swap2\n      swap1\n      pop\n      jump\t// out\n        /* \"#utility.yul\":7553:7670   */\n    tag_385:\n        /* \"#utility.yul\":7662:7663   */\n      0x00\n        /* \"#utility.yul\":7659:7660   */\n      dup1\n        /* \"#utility.yul\":7652:7664   */\n      revert\n        /* \"#utility.yul\":7693:8403   */\n    tag_386:\n        /* \"#utility.yul\":7789:7794   */\n      0x00\n        /* \"#utility.yul\":7814:7895   */\n      tag_534\n        /* \"#utility.yul\":7830:7894   */\n      tag_535\n        /* \"#utility.yul\":7887:7893   */\n      dup5\n        /* \"#utility.yul\":7830:7894   */\n      tag_384\n      jump\t// in\n    tag_535:\n        /* \"#utility.yul\":7814:7895   */\n      tag_379\n      jump\t// in\n    tag_534:\n        /* \"#utility.yul\":7805:7895   */\n      swap1\n      pop\n        /* \"#utility.yul\":7915:7920   */\n      dup1\n        /* \"#utility.yul\":7944:7950   */\n      dup4\n        /* \"#utility.yul\":7937:7942   */\n      dup3\n        /* \"#utility.yul\":7930:7951   */\n      mstore\n        /* \"#utility.yul\":7978:7982   */\n      0x20\n        /* \"#utility.yul\":7971:7976   */\n      dup3\n        /* \"#utility.yul\":7967:7983   */\n      add\n        /* \"#utility.yul\":7960:7983   */\n      swap1\n      pop\n        /* \"#utility.yul\":8031:8035   */\n      0x20\n        /* \"#utility.yul\":8023:8029   */\n      dup5\n        /* \"#utility.yul\":8019:8036   */\n      mul\n        /* \"#utility.yul\":8011:8017   */\n      dup4\n        /* \"#utility.yul\":8007:8037   */\n      add\n        /* \"#utility.yul\":8060:8063   */\n      dup6\n        /* \"#utility.yul\":8052:8058   */\n      dup2\n        /* \"#utility.yul\":8049:8064   */\n      gt\n        /* \"#utility.yul\":8046:8168   */\n      iszero\n      tag_536\n      jumpi\n        /* \"#utility.yul\":8079:8158   */\n      tag_537\n      tag_385\n      jump\t// in\n    tag_537:\n        /* \"#utility.yul\":8046:8168   */\n    tag_536:\n        /* \"#utility.yul\":8194:8200   */\n      dup4\n        /* \"#utility.yul\":8177:8397   */\n    tag_538:\n        /* \"#utility.yul\":8211:8217   */\n      dup2\n        /* \"#utility.yul\":8206:8209   */\n      dup2\n        /* \"#utility.yul\":8203:8218   */\n      lt\n        /* \"#utility.yul\":8177:8397   */\n      iszero\n      tag_540\n      jumpi\n        /* \"#utility.yul\":8286:8289   */\n      dup1\n        /* \"#utility.yul\":8315:8352   */\n      tag_541\n        /* \"#utility.yul\":8348:8351   */\n      dup9\n        /* \"#utility.yul\":8336:8346   */\n      dup3\n        /* \"#utility.yul\":8315:8352   */\n      tag_374\n      jump\t// in\n    tag_541:\n        /* \"#utility.yul\":8310:8313   */\n      dup5\n        /* \"#utility.yul\":8303:8353   */\n      mstore\n        /* \"#utility.yul\":8382:8386   */\n      0x20\n        /* \"#utility.yul\":8377:8380   */\n      dup5\n        /* \"#utility.yul\":8373:8387   */\n      add\n        /* \"#utility.yul\":8366:8387   */\n      swap4\n      pop\n        /* \"#utility.yul\":8253:8397   */\n      pop\n        /* \"#utility.yul\":8237:8241   */\n      0x20\n        /* \"#utility.yul\":8232:8235   */\n      dup2\n        /* \"#utility.yul\":8228:8242   */\n      add\n        /* \"#utility.yul\":8221:8242   */\n      swap1\n      pop\n        /* \"#utility.yul\":8177:8397   */\n      jump(tag_538)\n    tag_540:\n        /* \"#utility.yul\":8181:8202   */\n      pop\n        /* \"#utility.yul\":7795:8403   */\n      pop\n      pop\n        /* \"#utility.yul\":7693:8403   */\n      swap4\n      swap3\n      pop\n      pop\n      pop\n      jump\t// out\n        /* \"#utility.yul\":8426:8796   */\n    tag_387:\n        /* \"#utility.yul\":8497:8502   */\n      0x00\n        /* \"#utility.yul\":8546:8549   */\n      dup3\n        /* \"#utility.yul\":8539:8543   */\n      0x1f\n        /* \"#utility.yul\":8531:8537   */\n      dup4\n        /* \"#utility.yul\":8527:8544   */\n      add\n        /* \"#utility.yul\":8523:8550   */\n      slt\n        /* \"#utility.yul\":8513:8635   */\n      tag_543\n      jumpi\n        /* \"#utility.yul\":8554:8633   */\n      tag_544\n      tag_375\n      jump\t// in\n    tag_544:\n        /* \"#utility.yul\":8513:8635   */\n    tag_543:\n        /* \"#utility.yul\":8671:8677   */\n      dup2\n        /* \"#utility.yul\":8658:8678   */\n      calldataload\n        /* \"#utility.yul\":8696:8790   */\n      tag_545\n        /* \"#utility.yul\":8786:8789   */\n      dup5\n        /* \"#utility.yul\":8778:8784   */\n      dup3\n        /* \"#utility.yul\":8771:8775   */\n      0x20\n        /* \"#utility.yul\":8763:8769   */\n      dup7\n        /* \"#utility.yul\":8759:8776   */\n      add\n        /* \"#utility.yul\":8696:8790   */\n      tag_386\n      jump\t// in\n    tag_545:\n        /* \"#utility.yul\":8687:8790   */\n      swap2\n      pop\n        /* \"#utility.yul\":8503:8796   */\n      pop\n        /* \"#utility.yul\":8426:8796   */\n      swap3\n      swap2\n      pop\n      pop\n      jump\t// out\n        /* \"#utility.yul\":8802:9341   */\n    tag_65:\n        /* \"#utility.yul\":8886:8892   */\n      0x00\n        /* \"#utility.yul\":8935:8937   */\n      0x20\n        /* \"#utility.yul\":8923:8932   */\n      dup3\n        /* \"#utility.yul\":8914:8921   */\n      dup5\n        /* \"#utility.yul\":8910:8933   */\n      sub\n        /* \"#utility.yul\":8906:8938   */\n      slt\n        /* \"#utility.yul\":8903:9022   */\n      iszero\n      tag_547\n      jumpi\n        /* \"#utility.yul\":8941:9020   */\n      tag_548\n      tag_360\n      jump\t// in\n    tag_548:\n        /* \"#utility.yul\":8903:9022   */\n    tag_547:\n        /* \"#utility.yul\":9089:9090   */\n      0x00\n        /* \"#utility.yul\":9078:9087   */\n      dup3\n        /* \"#utility.yul\":9074:9091   */\n      add\n        /* \"#utility.yul\":9061:9092   */\n      calldataload\n        /* \"#utility.yul\":9119:9137   */\n      0xffffffffffffffff\n        /* \"#utility.yul\":9111:9117   */\n      dup2\n        /* \"#utility.yul\":9108:9138   */\n      gt\n        /* \"#utility.yul\":9105:9222   */\n      iszero\n      tag_549\n      jumpi\n        /* \"#utility.yul\":9141:9220   */\n      tag_550\n      tag_361\n      jump\t// in\n    tag_550:\n        /* \"#utility.yul\":9105:9222   */\n    tag_549:\n        /* \"#utility.yul\":9246:9324   */\n      tag_551\n        /* \"#utility.yul\":9316:9323   */\n      dup5\n        /* \"#utility.yul\":9307:9313   */\n      dup3\n        /* \"#utility.yul\":9296:9305   */\n      dup6\n        /* \"#utility.yul\":9292:9314   */\n      add\n        /* \"#utility.yul\":9246:9324   */\n      tag_387\n      jump\t// in\n    tag_551:\n        /* \"#utility.yul\":9236:9324   */\n      swap2\n      pop\n        /* \"#utility.yul\":9032:9334   */\n      pop\n        /* \"#utility.yul\":8802:9341   */\n      swap3\n      swap2\n      pop\n      pop\n      jump\t// out\n        /* \"#utility.yul\":9347:9424   */\n    tag_388:\n        /* \"#utility.yul\":9384:9391   */\n      0x00\n        /* \"#utility.yul\":9413:9418   */\n      dup2\n        /* \"#utility.yul\":9402:9418   */\n      swap1\n      pop\n        /* \"#utility.yul\":9347:9424   */\n      swap2\n      swap1\n      pop\n      jump\t// out\n        /* \"#utility.yul\":9430:9548   */\n    tag_389:\n        /* \"#utility.yul\":9517:9541   */\n      tag_554\n        /* \"#utility.yul\":9535:9540   */\n      dup2\n        /* \"#utility.yul\":9517:9541   */\n      tag_388\n      jump\t// in\n    tag_554:\n        /* \"#utility.yul\":9512:9515   */\n      dup3\n        /* \"#utility.yul\":9505:9542   */\n      mstore\n        /* \"#utility.yul\":9430:9548   */\n      pop\n      pop\n      jump\t// out\n        /* \"#utility.yul\":9554:9776   */\n    tag_71:\n        /* \"#utility.yul\":9647:9651   */\n      0x00\n        /* \"#utility.yul\":9685:9687   */\n      0x20\n        /* \"#utility.yul\":9674:9683   */\n      dup3\n        /* \"#utility.yul\":9670:9688   */\n      add\n        /* \"#utility.yul\":9662:9688   */\n      swap1\n      pop\n        /* \"#utility.yul\":9698:9769   */\n      tag_556\n        /* \"#utility.yul\":9766:9767   */\n      0x00\n        /* \"#utility.yul\":9755:9764   */\n      dup4\n        /* \"#utility.yul\":9751:9768   */\n      add\n        /* \"#utility.yul\":9742:9748   */\n      dup5\n        /* \"#utility.yul\":9698:9769   */\n      tag_389\n      jump\t// in\n    tag_556:\n        /* \"#utility.yul\":9554:9776   */\n      swap3\n      swap2\n      pop\n      pop\n      jump\t// out\n        /* \"#utility.yul\":9782:9899   */\n    tag_390:\n        /* \"#utility.yul\":9891:9892   */\n      0x00\n        /* \"#utility.yul\":9888:9889   */\n      dup1\n        /* \"#utility.yul\":9881:9893   */\n      revert\n        /* \"#utility.yul\":9942:10540   */\n    tag_391:\n        /* \"#utility.yul\":10045:10053   */\n      0x00\n        /* \"#utility.yul\":10055:10061   */\n      dup1\n        /* \"#utility.yul\":10105:10108   */\n      dup4\n        /* \"#utility.yul\":10098:10102   */\n      0x1f\n        /* \"#utility.yul\":10090:10096   */\n      dup5\n        /* \"#utility.yul\":10086:10103   */\n      add\n        /* \"#utility.yul\":10082:10109   */\n      slt\n        /* \"#utility.yul\":10072:10194   */\n      tag_559\n      jumpi\n        /* \"#utility.yul\":10113:10192   */\n      tag_560\n      tag_375\n      jump\t// in\n    tag_560:\n        /* \"#utility.yul\":10072:10194   */\n    tag_559:\n        /* \"#utility.yul\":10226:10232   */\n      dup3\n        /* \"#utility.yul\":10213:10233   */\n      calldataload\n        /* \"#utility.yul\":10203:10233   */\n      swap1\n      pop\n        /* \"#utility.yul\":10256:10274   */\n      0xffffffffffffffff\n        /* \"#utility.yul\":10248:10254   */\n      dup2\n        /* \"#utility.yul\":10245:10275   */\n      gt\n        /* \"#utility.yul\":10242:10359   */\n      iszero\n      tag_561\n      jumpi\n        /* \"#utility.yul\":10278:10357   */\n      tag_562\n      tag_390\n      jump\t// in\n    tag_562:\n        /* \"#utility.yul\":10242:10359   */\n    tag_561:\n        /* \"#utility.yul\":10392:10396   */\n      0x20\n        /* \"#utility.yul\":10384:10390   */\n      dup4\n        /* \"#utility.yul\":10380:10397   */\n      add\n        /* \"#utility.yul\":10368:10397   */\n      swap2\n      pop\n        /* \"#utility.yul\":10446:10449   */\n      dup4\n        /* \"#utility.yul\":10438:10442   */\n      0x40\n        /* \"#utility.yul\":10430:10436   */\n      dup3\n        /* \"#utility.yul\":10426:10443   */\n      mul\n        /* \"#utility.yul\":10416:10424   */\n      dup4\n        /* \"#utility.yul\":10412:10444   */\n      add\n        /* \"#utility.yul\":10409:10450   */\n      gt\n        /* \"#utility.yul\":10406:10534   */\n      iszero\n      tag_563\n      jumpi\n        /* \"#utility.yul\":10453:10532   */\n      tag_564\n      tag_385\n      jump\t// in\n    tag_564:\n        /* \"#utility.yul\":10406:10534   */\n    tag_563:\n        /* \"#utility.yul\":9942:10540   */\n      swap3\n      pop\n      swap3\n      swap1\n      pop\n      jump\t// out\n        /* \"#utility.yul\":10546:11165   */\n    tag_96:\n        /* \"#utility.yul\":10662:10668   */\n      0x00\n        /* \"#utility.yul\":10670:10676   */\n      dup1\n        /* \"#utility.yul\":10719:10721   */\n      0x20\n        /* \"#utility.yul\":10707:10716   */\n      dup4\n        /* \"#utility.yul\":10698:10705   */\n      dup6\n        /* \"#utility.yul\":10694:10717   */\n      sub\n        /* \"#utility.yul\":10690:10722   */\n      slt\n        /* \"#utility.yul\":10687:10806   */\n      iszero\n      tag_566\n      jumpi\n        /* \"#utility.yul\":10725:10804   */\n      tag_567\n      tag_360\n      jump\t// in\n    tag_567:\n        /* \"#utility.yul\":10687:10806   */\n    tag_566:\n        /* \"#utility.yul\":10873:10874   */\n      0x00\n        /* \"#utility.yul\":10862:10871   */\n      dup4\n        /* \"#utility.yul\":10858:10875   */\n      add\n        /* \"#utility.yul\":10845:10876   */\n      calldataload\n        /* \"#utility.yul\":10903:10921   */\n      0xffffffffffffffff\n        /* \"#utility.yul\":10895:10901   */\n      dup2\n        /* \"#utility.yul\":10892:10922   */\n      gt\n        /* \"#utility.yul\":10889:11006   */\n      iszero\n      tag_568\n      jumpi\n        /* \"#utility.yul\":10925:11004   */\n      tag_569\n      tag_361\n      jump\t// in\n    tag_569:\n        /* \"#utility.yul\":10889:11006   */\n    tag_568:\n        /* \"#utility.yul\":11038:11148   */\n      tag_570\n        /* \"#utility.yul\":11140:11147   */\n      dup6\n        /* \"#utility.yul\":11131:11137   */\n      dup3\n        /* \"#utility.yul\":11120:11129   */\n      dup7\n        /* \"#utility.yul\":11116:11138   */\n      add\n        /* \"#utility.yul\":11038:11148   */\n      tag_391\n      jump\t// in\n    tag_570:\n        /* \"#utility.yul\":11020:11148   */\n      swap3\n      pop\n      swap3\n      pop\n        /* \"#utility.yul\":10816:11158   */\n      pop\n        /* \"#utility.yul\":10546:11165   */\n      swap3\n      pop\n      swap3\n      swap1\n      pop\n      jump\t// out\n        /* \"#utility.yul\":11171:11340   */\n    tag_392:\n        /* \"#utility.yul\":11255:11266   */\n      0x00\n        /* \"#utility.yul\":11289:11295   */\n      dup3\n        /* \"#utility.yul\":11284:11287   */\n      dup3\n        /* \"#utility.yul\":11277:11296   */\n      mstore\n        /* \"#utility.yul\":11329:11333   */\n      0x20\n        /* \"#utility.yul\":11324:11327   */\n      dup3\n        /* \"#utility.yul\":11320:11334   */\n      add\n        /* \"#utility.yul\":11305:11334   */\n      swap1\n      pop\n        /* \"#utility.yul\":11171:11340   */\n      swap3\n      swap2\n      pop\n      pop\n      jump\t// out\n        /* \"#utility.yul\":11346:11580   */\n    tag_393:\n        /* \"#utility.yul\":11486:11520   */\n      0x416363657373436f6e74726f6c3a2063616e206f6e6c792072656e6f756e6365\n        /* \"#utility.yul\":11482:11483   */\n      0x00\n        /* \"#utility.yul\":11474:11480   */\n      dup3\n        /* \"#utility.yul\":11470:11484   */\n      add\n        /* \"#utility.yul\":11463:11521   */\n      mstore\n        /* \"#utility.yul\":11555:11572   */\n      0x20726f6c657320666f722073656c660000000000000000000000000000000000\n        /* \"#utility.yul\":11550:11552   */\n      0x20\n        /* \"#utility.yul\":11542:11548   */\n      dup3\n        /* \"#utility.yul\":11538:11553   */\n      add\n        /* \"#utility.yul\":11531:11573   */\n      mstore\n        /* \"#utility.yul\":11346:11580   */\n      pop\n      jump\t// out\n        /* \"#utility.yul\":11586:11952   */\n    tag_394:\n        /* \"#utility.yul\":11728:11731   */\n      0x00\n        /* \"#utility.yul\":11749:11816   */\n      tag_574\n        /* \"#utility.yul\":11813:11815   */\n      0x2f\n        /* \"#utility.yul\":11808:11811   */\n      dup4\n        /* \"#utility.yul\":11749:11816   */\n      tag_392\n      jump\t// in\n    tag_574:\n        /* \"#utility.yul\":11742:11816   */\n      swap2\n      pop\n        /* \"#utility.yul\":11825:11918   */\n      tag_575\n        /* \"#utility.yul\":11914:11917   */\n      dup3\n        /* \"#utility.yul\":11825:11918   */\n      tag_393\n      jump\t// in\n    tag_575:\n        /* \"#utility.yul\":11943:11945   */\n      0x40\n        /* \"#utility.yul\":11938:11941   */\n      dup3\n        /* \"#utility.yul\":11934:11946   */\n      add\n        /* \"#utility.yul\":11927:11946   */\n      swap1\n      pop\n        /* \"#utility.yul\":11586:11952   */\n      swap2\n      swap1\n      pop\n      jump\t// out\n        /* \"#utility.yul\":11958:12377   */\n    tag_115:\n        /* \"#utility.yul\":12124:12128   */\n      0x00\n        /* \"#utility.yul\":12162:12164   */\n      0x20\n        /* \"#utility.yul\":12151:12160   */\n      dup3\n        /* \"#utility.yul\":12147:12165   */\n      add\n        /* \"#utility.yul\":12139:12165   */\n      swap1\n      pop\n        /* \"#utility.yul\":12211:12220   */\n      dup2\n        /* \"#utility.yul\":12205:12209   */\n      dup2\n        /* \"#utility.yul\":12201:12221   */\n      sub\n        /* \"#utility.yul\":12197:12198   */\n      0x00\n        /* \"#utility.yul\":12186:12195   */\n      dup4\n        /* \"#utility.yul\":12182:12199   */\n      add\n        /* \"#utility.yul\":12175:12222   */\n      mstore\n        /* \"#utility.yul\":12239:12370   */\n      tag_577\n        /* \"#utility.yul\":12365:12369   */\n      dup2\n        /* \"#utility.yul\":12239:12370   */\n      tag_394\n      jump\t// in\n    tag_577:\n        /* \"#utility.yul\":12231:12370   */\n      swap1\n      pop\n        /* \"#utility.yul\":11958:12377   */\n      swap2\n      swap1\n      pop\n      jump\t// out\n        /* \"#utility.yul\":12383:12614   */\n    tag_395:\n        /* \"#utility.yul\":12523:12557   */\n      0x46756e6374696f6e206d7573742062652063616c6c6564207468726f75676820\n        /* \"#utility.yul\":12519:12520   */\n      0x00\n        /* \"#utility.yul\":12511:12517   */\n      dup3\n        /* \"#utility.yul\":12507:12521   */\n      add\n        /* \"#utility.yul\":12500:12558   */\n      mstore\n        /* \"#utility.yul\":12592:12606   */\n      0x64656c656761746563616c6c0000000000000000000000000000000000000000\n        /* \"#utility.yul\":12587:12589   */\n      0x20\n        /* \"#utility.yul\":12579:12585   */\n      dup3\n        /* \"#utility.yul\":12575:12590   */\n      add\n        /* \"#utility.yul\":12568:12607   */\n      mstore\n        /* \"#utility.yul\":12383:12614   */\n      pop\n      jump\t// out\n        /* \"#utility.yul\":12620:12986   */\n    tag_396:\n        /* \"#utility.yul\":12762:12765   */\n      0x00\n        /* \"#utility.yul\":12783:12850   */\n      tag_580\n        /* \"#utility.yul\":12847:12849   */\n      0x2c\n        /* \"#utility.yul\":12842:12845   */\n      dup4\n        /* \"#utility.yul\":12783:12850   */\n      tag_392\n      jump\t// in\n    tag_580:\n        /* \"#utility.yul\":12776:12850   */\n      swap2\n      pop\n        /* \"#utility.yul\":12859:12952   */\n      tag_581\n        /* \"#utility.yul\":12948:12951   */\n      dup3\n        /* \"#utility.yul\":12859:12952   */\n      tag_395\n      jump\t// in\n    tag_581:\n        /* \"#utility.yul\":12977:12979   */\n      0x40\n        /* \"#utility.yul\":12972:12975   */\n      dup3\n        /* \"#utility.yul\":12968:12980   */\n      add\n        /* \"#utility.yul\":12961:12980   */\n      swap1\n      pop\n        /* \"#utility.yul\":12620:12986   */\n      swap2\n      swap1\n      pop\n      jump\t// out\n        /* \"#utility.yul\":12992:13411   */\n    tag_121:\n        /* \"#utility.yul\":13158:13162   */\n      0x00\n        /* \"#utility.yul\":13196:13198   */\n      0x20\n        /* \"#utility.yul\":13185:13194   */\n      dup3\n        /* \"#utility.yul\":13181:13199   */\n      add\n        /* \"#utility.yul\":13173:13199   */\n      swap1\n      pop\n        /* \"#utility.yul\":13245:13254   */\n      dup2\n        /* \"#utility.yul\":13239:13243   */\n      dup2\n        /* \"#utility.yul\":13235:13255   */\n      sub\n        /* \"#utility.yul\":13231:13232   */\n      0x00\n        /* \"#utility.yul\":13220:13229   */\n      dup4\n        /* \"#utility.yul\":13216:13233   */\n      add\n        /* \"#utility.yul\":13209:13256   */\n      mstore\n        /* \"#utility.yul\":13273:13404   */\n      tag_583\n        /* \"#utility.yul\":13399:13403   */\n      dup2\n        /* \"#utility.yul\":13273:13404   */\n      tag_396\n      jump\t// in\n    tag_583:\n        /* \"#utility.yul\":13265:13404   */\n      swap1\n      pop\n        /* \"#utility.yul\":12992:13411   */\n      swap2\n      swap1\n      pop\n      jump\t// out\n        /* \"#utility.yul\":13417:13648   */\n    tag_397:\n        /* \"#utility.yul\":13557:13591   */\n      0x46756e6374696f6e206d7573742062652063616c6c6564207468726f75676820\n        /* \"#utility.yul\":13553:13554   */\n      0x00\n        /* \"#utility.yul\":13545:13551   */\n      dup3\n        /* \"#utility.yul\":13541:13555   */\n      add\n        /* \"#utility.yul\":13534:13592   */\n      mstore\n        /* \"#utility.yul\":13626:13640   */\n      0x6163746976652070726f78790000000000000000000000000000000000000000\n        /* \"#utility.yul\":13621:13623   */\n      0x20\n        /* \"#utility.yul\":13613:13619   */\n      dup3\n        /* \"#utility.yul\":13609:13624   */\n      add\n        /* \"#utility.yul\":13602:13641   */\n      mstore\n        /* \"#utility.yul\":13417:13648   */\n      pop\n      jump\t// out\n        /* \"#utility.yul\":13654:14020   */\n    tag_398:\n        /* \"#utility.yul\":13796:13799   */\n      0x00\n        /* \"#utility.yul\":13817:13884   */\n      tag_586\n        /* \"#utility.yul\":13881:13883   */\n      0x2c\n        /* \"#utility.yul\":13876:13879   */\n      dup4\n        /* \"#utility.yul\":13817:13884   */\n      tag_392\n      jump\t// in\n    tag_586:\n        /* \"#utility.yul\":13810:13884   */\n      swap2\n      pop\n        /* \"#utility.yul\":13893:13986   */\n      tag_587\n        /* \"#utility.yul\":13982:13985   */\n      dup3\n        /* \"#utility.yul\":13893:13986   */\n      tag_397\n      jump\t// in\n    tag_587:\n        /* \"#utility.yul\":14011:14013   */\n      0x40\n        /* \"#utility.yul\":14006:14009   */\n      dup3\n        /* \"#utility.yul\":14002:14014   */\n      add\n        /* \"#utility.yul\":13995:14014   */\n      swap1\n      pop\n        /* \"#utility.yul\":13654:14020   */\n      swap2\n      swap1\n      pop\n      jump\t// out\n        /* \"#utility.yul\":14026:14445   */\n    tag_126:\n        /* \"#utility.yul\":14192:14196   */\n      0x00\n        /* \"#utility.yul\":14230:14232   */\n      0x20\n        /* \"#utility.yul\":14219:14228   */\n      dup3\n        /* \"#utility.yul\":14215:14233   */\n      add\n        /* \"#utility.yul\":14207:14233   */\n      swap1\n      pop\n        /* \"#utility.yul\":14279:14288   */\n      dup2\n        /* \"#utility.yul\":14273:14277   */\n      dup2\n        /* \"#utility.yul\":14269:14289   */\n      sub\n        /* \"#utility.yul\":14265:14266   */\n      0x00\n        /* \"#utility.yul\":14254:14263   */\n      dup4\n        /* \"#utility.yul\":14250:14267   */\n      add\n        /* \"#utility.yul\":14243:14290   */\n      mstore\n        /* \"#utility.yul\":14307:14438   */\n      tag_589\n        /* \"#utility.yul\":14433:14437   */\n      dup2\n        /* \"#utility.yul\":14307:14438   */\n      tag_398\n      jump\t// in\n    tag_589:\n        /* \"#utility.yul\":14299:14438   */\n      swap1\n      pop\n        /* \"#utility.yul\":14026:14445   */\n      swap2\n      swap1\n      pop\n      jump\t// out\n        /* \"#utility.yul\":14451:14684   */\n    tag_399:\n        /* \"#utility.yul\":14591:14625   */\n      0x496e697469616c697a61626c653a20636f6e747261637420697320616c726561\n        /* \"#utility.yul\":14587:14588   */\n      0x00\n        /* \"#utility.yul\":14579:14585   */\n      dup3\n        /* \"#utility.yul\":14575:14589   */\n      add\n        /* \"#utility.yul\":14568:14626   */\n      mstore\n        /* \"#utility.yul\":14660:14676   */\n      0x647920696e697469616c697a6564000000000000000000000000000000000000\n        /* \"#utility.yul\":14655:14657   */\n      0x20\n        /* \"#utility.yul\":14647:14653   */\n      dup3\n        /* \"#utility.yul\":14643:14658   */\n      add\n        /* \"#utility.yul\":14636:14677   */\n      mstore\n        /* \"#utility.yul\":14451:14684   */\n      pop\n      jump\t// out\n        /* \"#utility.yul\":14690:15056   */\n    tag_400:\n        /* \"#utility.yul\":14832:14835   */\n      0x00\n        /* \"#utility.yul\":14853:14920   */\n      tag_592\n        /* \"#utility.yul\":14917:14919   */\n      0x2e\n        /* \"#utility.yul\":14912:14915   */\n      dup4\n        /* \"#utility.yul\":14853:14920   */\n      tag_392\n      jump\t// in\n    tag_592:\n        /* \"#utility.yul\":14846:14920   */\n      swap2\n      pop\n        /* \"#utility.yul\":14929:15022   */\n      tag_593\n        /* \"#utility.yul\":15018:15021   */\n      dup3\n        /* \"#utility.yul\":14929:15022   */\n      tag_399\n      jump\t// in\n    tag_593:\n        /* \"#utility.yul\":15047:15049   */\n      0x40\n        /* \"#utility.yul\":15042:15045   */\n      dup3\n        /* \"#utility.yul\":15038:15050   */\n      add\n        /* \"#utility.yul\":15031:15050   */\n      swap1\n      pop\n        /* \"#utility.yul\":14690:15056   */\n      swap2\n      swap1\n      pop\n      jump\t// out\n        /* \"#utility.yul\":15062:15481   */\n    tag_144:\n        /* \"#utility.yul\":15228:15232   */\n      0x00\n        /* \"#utility.yul\":15266:15268   */\n      0x20\n        /* \"#utility.yul\":15255:15264   */\n      dup3\n        /* \"#utility.yul\":15251:15269   */\n      add\n        /* \"#utility.yul\":15243:15269   */\n      swap1\n      pop\n        /* \"#utility.yul\":15315:15324   */\n      dup2\n        /* \"#utility.yul\":15309:15313   */\n      dup2\n        /* \"#utility.yul\":15305:15325   */\n      sub\n        /* \"#utility.yul\":15301:15302   */\n      0x00\n        /* \"#utility.yul\":15290:15299   */\n      dup4\n        /* \"#utility.yul\":15286:15303   */\n      add\n        /* \"#utility.yul\":15279:15326   */\n      mstore\n        /* \"#utility.yul\":15343:15474   */\n      tag_595\n        /* \"#utility.yul\":15469:15473   */\n      dup2\n        /* \"#utility.yul\":15343:15474   */\n      tag_400\n      jump\t// in\n    tag_595:\n        /* \"#utility.yul\":15335:15474   */\n      swap1\n      pop\n        /* \"#utility.yul\":15062:15481   */\n      swap2\n      swap1\n      pop\n      jump\t// out\n        /* \"#utility.yul\":15487:15572   */\n    tag_401:\n        /* \"#utility.yul\":15532:15539   */\n      0x00\n        /* \"#utility.yul\":15561:15566   */\n      dup2\n        /* \"#utility.yul\":15550:15566   */\n      swap1\n      pop\n        /* \"#utility.yul\":15487:15572   */\n      swap2\n      swap1\n      pop\n      jump\t// out\n        /* \"#utility.yul\":15578:15664   */\n    tag_402:\n        /* \"#utility.yul\":15613:15620   */\n      0x00\n        /* \"#utility.yul\":15653:15657   */\n      0xff\n        /* \"#utility.yul\":15646:15651   */\n      dup3\n        /* \"#utility.yul\":15642:15658   */\n      and\n        /* \"#utility.yul\":15631:15658   */\n      swap1\n      pop\n        /* \"#utility.yul\":15578:15664   */\n      swap2\n      swap1\n      pop\n      jump\t// out\n        /* \"#utility.yul\":15670:15730   */\n    tag_403:\n        /* \"#utility.yul\":15698:15701   */\n      0x00\n        /* \"#utility.yul\":15719:15724   */\n      dup2\n        /* \"#utility.yul\":15712:15724   */\n      swap1\n      pop\n        /* \"#utility.yul\":15670:15730   */\n      swap2\n      swap1\n      pop\n      jump\t// out\n        /* \"#utility.yul\":15736:15890   */\n    tag_404:\n        /* \"#utility.yul\":15792:15801   */\n      0x00\n        /* \"#utility.yul\":15825:15884   */\n      tag_600\n        /* \"#utility.yul\":15841:15883   */\n      tag_601\n        /* \"#utility.yul\":15850:15882   */\n      tag_602\n        /* \"#utility.yul\":15876:15881   */\n      dup5\n        /* \"#utility.yul\":15850:15882   */\n      tag_401\n      jump\t// in\n    tag_602:\n        /* \"#utility.yul\":15841:15883   */\n      tag_403\n      jump\t// in\n    tag_601:\n        /* \"#utility.yul\":15825:15884   */\n      tag_402\n      jump\t// in\n    tag_600:\n        /* \"#utility.yul\":15812:15884   */\n      swap1\n      pop\n        /* \"#utility.yul\":15736:15890   */\n      swap2\n      swap1\n      pop\n      jump\t// out\n        /* \"#utility.yul\":15896:16039   */\n    tag_405:\n        /* \"#utility.yul\":15989:16032   */\n      tag_604\n        /* \"#utility.yul\":16026:16031   */\n      dup2\n        /* \"#utility.yul\":15989:16032   */\n      tag_404\n      jump\t// in\n    tag_604:\n        /* \"#utility.yul\":15984:15987   */\n      dup3\n        /* \"#utility.yul\":15977:16033   */\n      mstore\n        /* \"#utility.yul\":15896:16039   */\n      pop\n      pop\n      jump\t// out\n        /* \"#utility.yul\":16045:16279   */\n    tag_151:\n        /* \"#utility.yul\":16144:16148   */\n      0x00\n        /* \"#utility.yul\":16182:16184   */\n      0x20\n        /* \"#utility.yul\":16171:16180   */\n      dup3\n        /* \"#utility.yul\":16167:16185   */\n      add\n        /* \"#utility.yul\":16159:16185   */\n      swap1\n      pop\n        /* \"#utility.yul\":16195:16272   */\n      tag_606\n        /* \"#utility.yul\":16269:16270   */\n      0x00\n        /* \"#utility.yul\":16258:16267   */\n      dup4\n        /* \"#utility.yul\":16254:16271   */\n      add\n        /* \"#utility.yul\":16245:16251   */\n      dup5\n        /* \"#utility.yul\":16195:16272   */\n      tag_405\n      jump\t// in\n    tag_606:\n        /* \"#utility.yul\":16045:16279   */\n      swap3\n      swap2\n      pop\n      pop\n      jump\t// out\n        /* \"#utility.yul\":16285:16528   */\n    tag_406:\n        /* \"#utility.yul\":16425:16459   */\n      0x555550535570677261646561626c653a206d757374206e6f742062652063616c\n        /* \"#utility.yul\":16421:16422   */\n      0x00\n        /* \"#utility.yul\":16413:16419   */\n      dup3\n        /* \"#utility.yul\":16409:16423   */\n      add\n        /* \"#utility.yul\":16402:16460   */\n      mstore\n        /* \"#utility.yul\":16494:16520   */\n      0x6c6564207468726f7567682064656c656761746563616c6c0000000000000000\n        /* \"#utility.yul\":16489:16491   */\n      0x20\n        /* \"#utility.yul\":16481:16487   */\n      dup3\n        /* \"#utility.yul\":16477:16492   */\n      add\n        /* \"#utility.yul\":16470:16521   */\n      mstore\n        /* \"#utility.yul\":16285:16528   */\n      pop\n      jump\t// out\n        /* \"#utility.yul\":16534:16900   */\n    tag_407:\n        /* \"#utility.yul\":16676:16679   */\n      0x00\n        /* \"#utility.yul\":16697:16764   */\n      tag_609\n        /* \"#utility.yul\":16761:16763   */\n      0x38\n        /* \"#utility.yul\":16756:16759   */\n      dup4\n        /* \"#utility.yul\":16697:16764   */\n      tag_392\n      jump\t// in\n    tag_609:\n        /* \"#utility.yul\":16690:16764   */\n      swap2\n      pop\n        /* \"#utility.yul\":16773:16866   */\n      tag_610\n        /* \"#utility.yul\":16862:16865   */\n      dup3\n        /* \"#utility.yul\":16773:16866   */\n      tag_406\n      jump\t// in\n    tag_610:\n        /* \"#utility.yul\":16891:16893   */\n      0x40\n        /* \"#utility.yul\":16886:16889   */\n      dup3\n        /* \"#utility.yul\":16882:16894   */\n      add\n        /* \"#utility.yul\":16875:16894   */\n      swap1\n      pop\n        /* \"#utility.yul\":16534:16900   */\n      swap2\n      swap1\n      pop\n      jump\t// out\n        /* \"#utility.yul\":16906:17325   */\n    tag_164:\n        /* \"#utility.yul\":17072:17076   */\n      0x00\n        /* \"#utility.yul\":17110:17112   */\n      0x20\n        /* \"#utility.yul\":17099:17108   */\n      dup3\n        /* \"#utility.yul\":17095:17113   */\n      add\n        /* \"#utility.yul\":17087:17113   */\n      swap1\n      pop\n        /* \"#utility.yul\":17159:17168   */\n      dup2\n        /* \"#utility.yul\":17153:17157   */\n      dup2\n        /* \"#utility.yul\":17149:17169   */\n      sub\n        /* \"#utility.yul\":17145:17146   */\n      0x00\n        /* \"#utility.yul\":17134:17143   */\n      dup4\n        /* \"#utility.yul\":17130:17147   */\n      add\n        /* \"#utility.yul\":17123:17170   */\n      mstore\n        /* \"#utility.yul\":17187:17318   */\n      tag_612\n        /* \"#utility.yul\":17313:17317   */\n      dup2\n        /* \"#utility.yul\":17187:17318   */\n      tag_407\n      jump\t// in\n    tag_612:\n        /* \"#utility.yul\":17179:17318   */\n      swap1\n      pop\n        /* \"#utility.yul\":16906:17325   */\n      swap2\n      swap1\n      pop\n      jump\t// out\n        /* \"#utility.yul\":17331:17511   */\n    tag_175:\n        /* \"#utility.yul\":17379:17456   */\n      0x4e487b7100000000000000000000000000000000000000000000000000000000\n        /* \"#utility.yul\":17376:17377   */\n      0x00\n        /* \"#utility.yul\":17369:17457   */\n      mstore\n        /* \"#utility.yul\":17476:17480   */\n      0x32\n        /* \"#utility.yul\":17473:17474   */\n      0x04\n        /* \"#utility.yul\":17466:17481   */\n      mstore\n        /* \"#utility.yul\":17500:17504   */\n      0x24\n        /* \"#utility.yul\":17497:17498   */\n      0x00\n        /* \"#utility.yul\":17490:17505   */\n      revert\n        /* \"#utility.yul\":17517:17692   */\n    tag_408:\n        /* \"#utility.yul\":17657:17684   */\n      0x596f7520646f6e2774206861766520616e792072657761726400000000000000\n        /* \"#utility.yul\":17653:17654   */\n      0x00\n        /* \"#utility.yul\":17645:17651   */\n      dup3\n        /* \"#utility.yul\":17641:17655   */\n      add\n        /* \"#utility.yul\":17634:17685   */\n      mstore\n        /* \"#utility.yul\":17517:17692   */\n      pop\n      jump\t// out\n        /* \"#utility.yul\":17698:18064   */\n    tag_409:\n        /* \"#utility.yul\":17840:17843   */\n      0x00\n        /* \"#utility.yul\":17861:17928   */\n      tag_616\n        /* \"#utility.yul\":17925:17927   */\n      0x19\n        /* \"#utility.yul\":17920:17923   */\n      dup4\n        /* \"#utility.yul\":17861:17928   */\n      tag_392\n      jump\t// in\n    tag_616:\n        /* \"#utility.yul\":17854:17928   */\n      swap2\n      pop\n        /* \"#utility.yul\":17937:18030   */\n      tag_617\n        /* \"#utility.yul\":18026:18029   */\n      dup3\n        /* \"#utility.yul\":17937:18030   */\n      tag_408\n      jump\t// in\n    tag_617:\n        /* \"#utility.yul\":18055:18057   */\n      0x20\n        /* \"#utility.yul\":18050:18053   */\n      dup3\n        /* \"#utility.yul\":18046:18058   */\n      add\n        /* \"#utility.yul\":18039:18058   */\n      swap1\n      pop\n        /* \"#utility.yul\":17698:18064   */\n      swap2\n      swap1\n      pop\n      jump\t// out\n        /* \"#utility.yul\":18070:18489   */\n    tag_182:\n        /* \"#utility.yul\":18236:18240   */\n      0x00\n        /* \"#utility.yul\":18274:18276   */\n      0x20\n        /* \"#utility.yul\":18263:18272   */\n      dup3\n        /* \"#utility.yul\":18259:18277   */\n      add\n        /* \"#utility.yul\":18251:18277   */\n      swap1\n      pop\n        /* \"#utility.yul\":18323:18332   */\n      dup2\n        /* \"#utility.yul\":18317:18321   */\n      dup2\n        /* \"#utility.yul\":18313:18333   */\n      sub\n        /* \"#utility.yul\":18309:18310   */\n      0x00\n        /* \"#utility.yul\":18298:18307   */\n      dup4\n        /* \"#utility.yul\":18294:18311   */\n      add\n        /* \"#utility.yul\":18287:18334   */\n      mstore\n        /* \"#utility.yul\":18351:18482   */\n      tag_619\n        /* \"#utility.yul\":18477:18481   */\n      dup2\n        /* \"#utility.yul\":18351:18482   */\n      tag_409\n      jump\t// in\n    tag_619:\n        /* \"#utility.yul\":18343:18482   */\n      swap1\n      pop\n        /* \"#utility.yul\":18070:18489   */\n      swap2\n      swap1\n      pop\n      jump\t// out\n        /* \"#utility.yul\":18495:18613   */\n    tag_410:\n        /* \"#utility.yul\":18582:18606   */\n      tag_621\n        /* \"#utility.yul\":18600:18605   */\n      dup2\n        /* \"#utility.yul\":18582:18606   */\n      tag_372\n      jump\t// in\n    tag_621:\n        /* \"#utility.yul\":18577:18580   */\n      dup3\n        /* \"#utility.yul\":18570:18607   */\n      mstore\n        /* \"#utility.yul\":18495:18613   */\n      pop\n      pop\n      jump\t// out\n        /* \"#utility.yul\":18619:18841   */\n    tag_184:\n        /* \"#utility.yul\":18712:18716   */\n      0x00\n        /* \"#utility.yul\":18750:18752   */\n      0x20\n        /* \"#utility.yul\":18739:18748   */\n      dup3\n        /* \"#utility.yul\":18735:18753   */\n      add\n        /* \"#utility.yul\":18727:18753   */\n      swap1\n      pop\n        /* \"#utility.yul\":18763:18834   */\n      tag_623\n        /* \"#utility.yul\":18831:18832   */\n      0x00\n        /* \"#utility.yul\":18820:18829   */\n      dup4\n        /* \"#utility.yul\":18816:18833   */\n      add\n        /* \"#utility.yul\":18807:18813   */\n      dup5\n        /* \"#utility.yul\":18763:18834   */\n      tag_410\n      jump\t// in\n    tag_623:\n        /* \"#utility.yul\":18619:18841   */\n      swap3\n      swap2\n      pop\n      pop\n      jump\t// out\n        /* \"#utility.yul\":18847:18969   */\n    tag_411:\n        /* \"#utility.yul\":18920:18944   */\n      tag_625\n        /* \"#utility.yul\":18938:18943   */\n      dup2\n        /* \"#utility.yul\":18920:18944   */\n      tag_388\n      jump\t// in\n    tag_625:\n        /* \"#utility.yul\":18913:18918   */\n      dup2\n        /* \"#utility.yul\":18910:18945   */\n      eq\n        /* \"#utility.yul\":18900:18963   */\n      tag_626\n      jumpi\n        /* \"#utility.yul\":18959:18960   */\n      0x00\n        /* \"#utility.yul\":18956:18957   */\n      dup1\n        /* \"#utility.yul\":18949:18961   */\n      revert\n        /* \"#utility.yul\":18900:18963   */\n    tag_626:\n        /* \"#utility.yul\":18847:18969   */\n      pop\n      jump\t// out\n        /* \"#utility.yul\":18975:19118   */\n    tag_412:\n        /* \"#utility.yul\":19032:19037   */\n      0x00\n        /* \"#utility.yul\":19063:19069   */\n      dup2\n        /* \"#utility.yul\":19057:19070   */\n      mload\n        /* \"#utility.yul\":19048:19070   */\n      swap1\n      pop\n        /* \"#utility.yul\":19079:19112   */\n      tag_628\n        /* \"#utility.yul\":19106:19111   */\n      dup2\n        /* \"#utility.yul\":19079:19112   */\n      tag_411\n      jump\t// in\n    tag_628:\n        /* \"#utility.yul\":18975:19118   */\n      swap3\n      swap2\n      pop\n      pop\n      jump\t// out\n        /* \"#utility.yul\":19124:19475   */\n    tag_188:\n        /* \"#utility.yul\":19194:19200   */\n      0x00\n        /* \"#utility.yul\":19243:19245   */\n      0x20\n        /* \"#utility.yul\":19231:19240   */\n      dup3\n        /* \"#utility.yul\":19222:19229   */\n      dup5\n        /* \"#utility.yul\":19218:19241   */\n      sub\n        /* \"#utility.yul\":19214:19246   */\n      slt\n        /* \"#utility.yul\":19211:19330   */\n      iszero\n      tag_630\n      jumpi\n        /* \"#utility.yul\":19249:19328   */\n      tag_631\n      tag_360\n      jump\t// in\n    tag_631:\n        /* \"#utility.yul\":19211:19330   */\n    tag_630:\n        /* \"#utility.yul\":19369:19370   */\n      0x00\n        /* \"#utility.yul\":19394:19458   */\n      tag_632\n        /* \"#utility.yul\":19450:19457   */\n      dup5\n        /* \"#utility.yul\":19441:19447   */\n      dup3\n        /* \"#utility.yul\":19430:19439   */\n      dup6\n        /* \"#utility.yul\":19426:19448   */\n      add\n        /* \"#utility.yul\":19394:19458   */\n      tag_412\n      jump\t// in\n    tag_632:\n        /* \"#utility.yul\":19384:19458   */\n      swap2\n      pop\n        /* \"#utility.yul\":19340:19468   */\n      pop\n        /* \"#utility.yul\":19124:19475   */\n      swap3\n      swap2\n      pop\n      pop\n      jump\t// out\n        /* \"#utility.yul\":19481:19701   */\n    tag_413:\n        /* \"#utility.yul\":19621:19655   */\n      0x596f752063616e27742077697468647261772061742074686973206d6f6d656e\n        /* \"#utility.yul\":19617:19618   */\n      0x00\n        /* \"#utility.yul\":19609:19615   */\n      dup3\n        /* \"#utility.yul\":19605:19619   */\n      add\n        /* \"#utility.yul\":19598:19656   */\n      mstore\n        /* \"#utility.yul\":19690:19693   */\n      0x7400000000000000000000000000000000000000000000000000000000000000\n        /* \"#utility.yul\":19685:19687   */\n      0x20\n        /* \"#utility.yul\":19677:19683   */\n      dup3\n        /* \"#utility.yul\":19673:19688   */\n      add\n        /* \"#utility.yul\":19666:19694   */\n      mstore\n        /* \"#utility.yul\":19481:19701   */\n      pop\n      jump\t// out\n        /* \"#utility.yul\":19707:20073   */\n    tag_414:\n        /* \"#utility.yul\":19849:19852   */\n      0x00\n        /* \"#utility.yul\":19870:19937   */\n      tag_635\n        /* \"#utility.yul\":19934:19936   */\n      0x21\n        /* \"#utility.yul\":19929:19932   */\n      dup4\n        /* \"#utility.yul\":19870:19937   */\n      tag_392\n      jump\t// in\n    tag_635:\n        /* \"#utility.yul\":19863:19937   */\n      swap2\n      pop\n        /* \"#utility.yul\":19946:20039   */\n      tag_636\n        /* \"#utility.yul\":20035:20038   */\n      dup3\n        /* \"#utility.yul\":19946:20039   */\n      tag_413\n      jump\t// in\n    tag_636:\n        /* \"#utility.yul\":20064:20066   */\n      0x40\n        /* \"#utility.yul\":20059:20062   */\n      dup3\n        /* \"#utility.yul\":20055:20067   */\n      add\n        /* \"#utility.yul\":20048:20067   */\n      swap1\n      pop\n        /* \"#utility.yul\":19707:20073   */\n      swap2\n      swap1\n      pop\n      jump\t// out\n        /* \"#utility.yul\":20079:20498   */\n    tag_191:\n        /* \"#utility.yul\":20245:20249   */\n      0x00\n        /* \"#utility.yul\":20283:20285   */\n      0x20\n        /* \"#utility.yul\":20272:20281   */\n      dup3\n        /* \"#utility.yul\":20268:20286   */\n      add\n        /* \"#utility.yul\":20260:20286   */\n      swap1\n      pop\n        /* \"#utility.yul\":20332:20341   */\n      dup2\n        /* \"#utility.yul\":20326:20330   */\n      dup2\n        /* \"#utility.yul\":20322:20342   */\n      sub\n        /* \"#utility.yul\":20318:20319   */\n      0x00\n        /* \"#utility.yul\":20307:20316   */\n      dup4\n        /* \"#utility.yul\":20303:20320   */\n      add\n        /* \"#utility.yul\":20296:20343   */\n      mstore\n        /* \"#utility.yul\":20360:20491   */\n      tag_638\n        /* \"#utility.yul\":20486:20490   */\n      dup2\n        /* \"#utility.yul\":20360:20491   */\n      tag_414\n      jump\t// in\n    tag_638:\n        /* \"#utility.yul\":20352:20491   */\n      swap1\n      pop\n        /* \"#utility.yul\":20079:20498   */\n      swap2\n      swap1\n      pop\n      jump\t// out\n        /* \"#utility.yul\":20504:20836   */\n    tag_193:\n        /* \"#utility.yul\":20625:20629   */\n      0x00\n        /* \"#utility.yul\":20663:20665   */\n      0x40\n        /* \"#utility.yul\":20652:20661   */\n      dup3\n        /* \"#utility.yul\":20648:20666   */\n      add\n        /* \"#utility.yul\":20640:20666   */\n      swap1\n      pop\n        /* \"#utility.yul\":20676:20747   */\n      tag_640\n        /* \"#utility.yul\":20744:20745   */\n      0x00\n        /* \"#utility.yul\":20733:20742   */\n      dup4\n        /* \"#utility.yul\":20729:20746   */\n      add\n        /* \"#utility.yul\":20720:20726   */\n      dup6\n        /* \"#utility.yul\":20676:20747   */\n      tag_410\n      jump\t// in\n    tag_640:\n        /* \"#utility.yul\":20757:20829   */\n      tag_641\n        /* \"#utility.yul\":20825:20827   */\n      0x20\n        /* \"#utility.yul\":20814:20823   */\n      dup4\n        /* \"#utility.yul\":20810:20828   */\n      add\n        /* \"#utility.yul\":20801:20807   */\n      dup5\n        /* \"#utility.yul\":20757:20829   */\n      tag_389\n      jump\t// in\n    tag_641:\n        /* \"#utility.yul\":20504:20836   */\n      swap4\n      swap3\n      pop\n      pop\n      pop\n      jump\t// out\n        /* \"#utility.yul\":20842:20958   */\n    tag_415:\n        /* \"#utility.yul\":20912:20933   */\n      tag_643\n        /* \"#utility.yul\":20927:20932   */\n      dup2\n        /* \"#utility.yul\":20912:20933   */\n      tag_365\n      jump\t// in\n    tag_643:\n        /* \"#utility.yul\":20905:20910   */\n      dup2\n        /* \"#utility.yul\":20902:20934   */\n      eq\n        /* \"#utility.yul\":20892:20952   */\n      tag_644\n      jumpi\n        /* \"#utility.yul\":20948:20949   */\n      0x00\n        /* \"#utility.yul\":20945:20946   */\n      dup1\n        /* \"#utility.yul\":20938:20950   */\n      revert\n        /* \"#utility.yul\":20892:20952   */\n    tag_644:\n        /* \"#utility.yul\":20842:20958   */\n      pop\n      jump\t// out\n        /* \"#utility.yul\":20964:21101   */\n    tag_416:\n        /* \"#utility.yul\":21018:21023   */\n      0x00\n        /* \"#utility.yul\":21049:21055   */\n      dup2\n        /* \"#utility.yul\":21043:21056   */\n      mload\n        /* \"#utility.yul\":21034:21056   */\n      swap1\n      pop\n        /* \"#utility.yul\":21065:21095   */\n      tag_646\n        /* \"#utility.yul\":21089:21094   */\n      dup2\n        /* \"#utility.yul\":21065:21095   */\n      tag_415\n      jump\t// in\n    tag_646:\n        /* \"#utility.yul\":20964:21101   */\n      swap3\n      swap2\n      pop\n      pop\n      jump\t// out\n        /* \"#utility.yul\":21107:21452   */\n    tag_197:\n        /* \"#utility.yul\":21174:21180   */\n      0x00\n        /* \"#utility.yul\":21223:21225   */\n      0x20\n        /* \"#utility.yul\":21211:21220   */\n      dup3\n        /* \"#utility.yul\":21202:21209   */\n      dup5\n        /* \"#utility.yul\":21198:21221   */\n      sub\n        /* \"#utility.yul\":21194:21226   */\n      slt\n        /* \"#utility.yul\":21191:21310   */\n      iszero\n      tag_648\n      jumpi\n        /* \"#utility.yul\":21229:21308   */\n      tag_649\n      tag_360\n      jump\t// in\n    tag_649:\n        /* \"#utility.yul\":21191:21310   */\n    tag_648:\n        /* \"#utility.yul\":21349:21350   */\n      0x00\n        /* \"#utility.yul\":21374:21435   */\n      tag_650\n        /* \"#utility.yul\":21427:21434   */\n      dup5\n        /* \"#utility.yul\":21418:21424   */\n      dup3\n        /* \"#utility.yul\":21407:21416   */\n      dup6\n        /* \"#utility.yul\":21403:21425   */\n      add\n        /* \"#utility.yul\":21374:21435   */\n      tag_416\n      jump\t// in\n    tag_650:\n        /* \"#utility.yul\":21364:21435   */\n      swap2\n      pop\n        /* \"#utility.yul\":21320:21445   */\n      pop\n        /* \"#utility.yul\":21107:21452   */\n      swap3\n      swap2\n      pop\n      pop\n      jump\t// out\n        /* \"#utility.yul\":21458:21638   */\n    tag_417:\n        /* \"#utility.yul\":21506:21583   */\n      0x4e487b7100000000000000000000000000000000000000000000000000000000\n        /* \"#utility.yul\":21503:21504   */\n      0x00\n        /* \"#utility.yul\":21496:21584   */\n      mstore\n        /* \"#utility.yul\":21603:21607   */\n      0x11\n        /* \"#utility.yul\":21600:21601   */\n      0x04\n        /* \"#utility.yul\":21593:21608   */\n      mstore\n        /* \"#utility.yul\":21627:21631   */\n      0x24\n        /* \"#utility.yul\":21624:21625   */\n      0x00\n        /* \"#utility.yul\":21617:21632   */\n      revert\n        /* \"#utility.yul\":21644:21835   */\n    tag_219:\n        /* \"#utility.yul\":21684:21687   */\n      0x00\n        /* \"#utility.yul\":21703:21723   */\n      tag_653\n        /* \"#utility.yul\":21721:21722   */\n      dup3\n        /* \"#utility.yul\":21703:21723   */\n      tag_388\n      jump\t// in\n    tag_653:\n        /* \"#utility.yul\":21698:21723   */\n      swap2\n      pop\n        /* \"#utility.yul\":21737:21757   */\n      tag_654\n        /* \"#utility.yul\":21755:21756   */\n      dup4\n        /* \"#utility.yul\":21737:21757   */\n      tag_388\n      jump\t// in\n    tag_654:\n        /* \"#utility.yul\":21732:21757   */\n      swap3\n      pop\n        /* \"#utility.yul\":21780:21781   */\n      dup3\n        /* \"#utility.yul\":21777:21778   */\n      dup3\n        /* \"#utility.yul\":21773:21782   */\n      add\n        /* \"#utility.yul\":21766:21782   */\n      swap1\n      pop\n        /* \"#utility.yul\":21801:21804   */\n      dup1\n        /* \"#utility.yul\":21798:21799   */\n      dup3\n        /* \"#utility.yul\":21795:21805   */\n      gt\n        /* \"#utility.yul\":21792:21828   */\n      iszero\n      tag_655\n      jumpi\n        /* \"#utility.yul\":21808:21826   */\n      tag_656\n      tag_417\n      jump\t// in\n    tag_656:\n        /* \"#utility.yul\":21792:21828   */\n    tag_655:\n        /* \"#utility.yul\":21644:21835   */\n      swap3\n      swap2\n      pop\n      pop\n      jump\t// out\n        /* \"#utility.yul\":21841:21984   */\n    tag_418:\n        /* \"#utility.yul\":21898:21903   */\n      0x00\n        /* \"#utility.yul\":21929:21935   */\n      dup2\n        /* \"#utility.yul\":21923:21936   */\n      mload\n        /* \"#utility.yul\":21914:21936   */\n      swap1\n      pop\n        /* \"#utility.yul\":21945:21978   */\n      tag_658\n        /* \"#utility.yul\":21972:21977   */\n      dup2\n        /* \"#utility.yul\":21945:21978   */\n      tag_368\n      jump\t// in\n    tag_658:\n        /* \"#utility.yul\":21841:21984   */\n      swap3\n      swap2\n      pop\n      pop\n      jump\t// out\n        /* \"#utility.yul\":21990:22341   */\n    tag_249:\n        /* \"#utility.yul\":22060:22066   */\n      0x00\n        /* \"#utility.yul\":22109:22111   */\n      0x20\n        /* \"#utility.yul\":22097:22106   */\n      dup3\n        /* \"#utility.yul\":22088:22095   */\n      dup5\n        /* \"#utility.yul\":22084:22107   */\n      sub\n        /* \"#utility.yul\":22080:22112   */\n      slt\n        /* \"#utility.yul\":22077:22196   */\n      iszero\n      tag_660\n      jumpi\n        /* \"#utility.yul\":22115:22194   */\n      tag_661\n      tag_360\n      jump\t// in\n    tag_661:\n        /* \"#utility.yul\":22077:22196   */\n    tag_660:\n        /* \"#utility.yul\":22235:22236   */\n      0x00\n        /* \"#utility.yul\":22260:22324   */\n      tag_662\n        /* \"#utility.yul\":22316:22323   */\n      dup5\n        /* \"#utility.yul\":22307:22313   */\n      dup3\n        /* \"#utility.yul\":22296:22305   */\n      dup6\n        /* \"#utility.yul\":22292:22314   */\n      add\n        /* \"#utility.yul\":22260:22324   */\n      tag_418\n      jump\t// in\n    tag_662:\n        /* \"#utility.yul\":22250:22324   */\n      swap2\n      pop\n        /* \"#utility.yul\":22206:22334   */\n      pop\n        /* \"#utility.yul\":21990:22341   */\n      swap3\n      swap2\n      pop\n      pop\n      jump\t// out\n        /* \"#utility.yul\":22347:22580   */\n    tag_419:\n        /* \"#utility.yul\":22487:22521   */\n      0x45524331393637557067726164653a206e657720696d706c656d656e74617469\n        /* \"#utility.yul\":22483:22484   */\n      0x00\n        /* \"#utility.yul\":22475:22481   */\n      dup3\n        /* \"#utility.yul\":22471:22485   */\n      add\n        /* \"#utility.yul\":22464:22522   */\n      mstore\n        /* \"#utility.yul\":22556:22572   */\n      0x6f6e206973206e6f742055555053000000000000000000000000000000000000\n        /* \"#utility.yul\":22551:22553   */\n      0x20\n        /* \"#utility.yul\":22543:22549   */\n      dup3\n        /* \"#utility.yul\":22539:22554   */\n      add\n        /* \"#utility.yul\":22532:22573   */\n      mstore\n        /* \"#utility.yul\":22347:22580   */\n      pop\n      jump\t// out\n        /* \"#utility.yul\":22586:22952   */\n    tag_420:\n        /* \"#utility.yul\":22728:22731   */\n      0x00\n        /* \"#utility.yul\":22749:22816   */\n      tag_665\n        /* \"#utility.yul\":22813:22815   */\n      0x2e\n        /* \"#utility.yul\":22808:22811   */\n      dup4\n        /* \"#utility.yul\":22749:22816   */\n      tag_392\n      jump\t// in\n    tag_665:\n        /* \"#utility.yul\":22742:22816   */\n      swap2\n      pop\n        /* \"#utility.yul\":22825:22918   */\n      tag_666\n        /* \"#utility.yul\":22914:22917   */\n      dup3\n        /* \"#utility.yul\":22825:22918   */\n      tag_419\n      jump\t// in\n    tag_666:\n        /* \"#utility.yul\":22943:22945   */\n      0x40\n        /* \"#utility.yul\":22938:22941   */\n      dup3\n        /* \"#utility.yul\":22934:22946   */\n      add\n        /* \"#utility.yul\":22927:22946   */\n      swap1\n      pop\n        /* \"#utility.yul\":22586:22952   */\n      swap2\n      swap1\n      pop\n      jump\t// out\n        /* \"#utility.yul\":22958:23377   */\n    tag_255:\n        /* \"#utility.yul\":23124:23128   */\n      0x00\n        /* \"#utility.yul\":23162:23164   */\n      0x20\n        /* \"#utility.yul\":23151:23160   */\n      dup3\n        /* \"#utility.yul\":23147:23165   */\n      add\n        /* \"#utility.yul\":23139:23165   */\n      swap1\n      pop\n        /* \"#utility.yul\":23211:23220   */\n      dup2\n        /* \"#utility.yul\":23205:23209   */\n      dup2\n        /* \"#utility.yul\":23201:23221   */\n      sub\n        /* \"#utility.yul\":23197:23198   */\n      0x00\n        /* \"#utility.yul\":23186:23195   */\n      dup4\n        /* \"#utility.yul\":23182:23199   */\n      add\n        /* \"#utility.yul\":23175:23222   */\n      mstore\n        /* \"#utility.yul\":23239:23370   */\n      tag_668\n        /* \"#utility.yul\":23365:23369   */\n      dup2\n        /* \"#utility.yul\":23239:23370   */\n      tag_420\n      jump\t// in\n    tag_668:\n        /* \"#utility.yul\":23231:23370   */\n      swap1\n      pop\n        /* \"#utility.yul\":22958:23377   */\n      swap2\n      swap1\n      pop\n      jump\t// out\n        /* \"#utility.yul\":23383:23611   */\n    tag_421:\n        /* \"#utility.yul\":23523:23557   */\n      0x45524331393637557067726164653a20756e737570706f727465642070726f78\n        /* \"#utility.yul\":23519:23520   */\n      0x00\n        /* \"#utility.yul\":23511:23517   */\n      dup3\n        /* \"#utility.yul\":23507:23521   */\n      add\n        /* \"#utility.yul\":23500:23558   */\n      mstore\n        /* \"#utility.yul\":23592:23603   */\n      0x6961626c65555549440000000000000000000000000000000000000000000000\n        /* \"#utility.yul\":23587:23589   */\n      0x20\n        /* \"#utility.yul\":23579:23585   */\n      dup3\n        /* \"#utility.yul\":23575:23590   */\n      add\n        /* \"#utility.yul\":23568:23604   */\n      mstore\n        /* \"#utility.yul\":23383:23611   */\n      pop\n      jump\t// out\n        /* \"#utility.yul\":23617:23983   */\n    tag_422:\n        /* \"#utility.yul\":23759:23762   */\n      0x00\n        /* \"#utility.yul\":23780:23847   */\n      tag_671\n        /* \"#utility.yul\":23844:23846   */\n      0x29\n        /* \"#utility.yul\":23839:23842   */\n      dup4\n        /* \"#utility.yul\":23780:23847   */\n      tag_392\n      jump\t// in\n    tag_671:\n        /* \"#utility.yul\":23773:23847   */\n      swap2\n      pop\n        /* \"#utility.yul\":23856:23949   */\n      tag_672\n        /* \"#utility.yul\":23945:23948   */\n      dup3\n        /* \"#utility.yul\":23856:23949   */\n      tag_421\n      jump\t// in\n    tag_672:\n        /* \"#utility.yul\":23974:23976   */\n      0x40\n        /* \"#utility.yul\":23969:23972   */\n      dup3\n        /* \"#utility.yul\":23965:23977   */\n      add\n        /* \"#utility.yul\":23958:23977   */\n      swap1\n      pop\n        /* \"#utility.yul\":23617:23983   */\n      swap2\n      swap1\n      pop\n      jump\t// out\n        /* \"#utility.yul\":23989:24408   */\n    tag_259:\n        /* \"#utility.yul\":24155:24159   */\n      0x00\n        /* \"#utility.yul\":24193:24195   */\n      0x20\n        /* \"#utility.yul\":24182:24191   */\n      dup3\n        /* \"#utility.yul\":24178:24196   */\n      add\n        /* \"#utility.yul\":24170:24196   */\n      swap1\n      pop\n        /* \"#utility.yul\":24242:24251   */\n      dup2\n        /* \"#utility.yul\":24236:24240   */\n      dup2\n        /* \"#utility.yul\":24232:24252   */\n      sub\n        /* \"#utility.yul\":24228:24229   */\n      0x00\n        /* \"#utility.yul\":24217:24226   */\n      dup4\n        /* \"#utility.yul\":24213:24230   */\n      add\n        /* \"#utility.yul\":24206:24253   */\n      mstore\n        /* \"#utility.yul\":24270:24401   */\n      tag_674\n        /* \"#utility.yul\":24396:24400   */\n      dup2\n        /* \"#utility.yul\":24270:24401   */\n      tag_422\n      jump\t// in\n    tag_674:\n        /* \"#utility.yul\":24262:24401   */\n      swap1\n      pop\n        /* \"#utility.yul\":23989:24408   */\n      swap2\n      swap1\n      pop\n      jump\t// out\n        /* \"#utility.yul\":24414:24562   */\n    tag_423:\n        /* \"#utility.yul\":24516:24527   */\n      0x00\n        /* \"#utility.yul\":24553:24556   */\n      dup2\n        /* \"#utility.yul\":24538:24556   */\n      swap1\n      pop\n        /* \"#utility.yul\":24414:24562   */\n      swap3\n      swap2\n      pop\n      pop\n      jump\t// out\n        /* \"#utility.yul\":24568:24741   */\n    tag_424:\n        /* \"#utility.yul\":24708:24733   */\n      0x416363657373436f6e74726f6c3a206163636f756e7420000000000000000000\n        /* \"#utility.yul\":24704:24705   */\n      0x00\n        /* \"#utility.yul\":24696:24702   */\n      dup3\n        /* \"#utility.yul\":24692:24706   */\n      add\n        /* \"#utility.yul\":24685:24734   */\n      mstore\n        /* \"#utility.yul\":24568:24741   */\n      pop\n      jump\t// out\n        /* \"#utility.yul\":24747:25149   */\n    tag_425:\n        /* \"#utility.yul\":24907:24910   */\n      0x00\n        /* \"#utility.yul\":24928:25013   */\n      tag_678\n        /* \"#utility.yul\":25010:25012   */\n      0x17\n        /* \"#utility.yul\":25005:25008   */\n      dup4\n        /* \"#utility.yul\":24928:25013   */\n      tag_423\n      jump\t// in\n    tag_678:\n        /* \"#utility.yul\":24921:25013   */\n      swap2\n      pop\n        /* \"#utility.yul\":25022:25115   */\n      tag_679\n        /* \"#utility.yul\":25111:25114   */\n      dup3\n        /* \"#utility.yul\":25022:25115   */\n      tag_424\n      jump\t// in\n    tag_679:\n        /* \"#utility.yul\":25140:25142   */\n      0x17\n        /* \"#utility.yul\":25135:25138   */\n      dup3\n        /* \"#utility.yul\":25131:25143   */\n      add\n        /* \"#utility.yul\":25124:25143   */\n      swap1\n      pop\n        /* \"#utility.yul\":24747:25149   */\n      swap2\n      swap1\n      pop\n      jump\t// out\n        /* \"#utility.yul\":25155:25254   */\n    tag_426:\n        /* \"#utility.yul\":25207:25213   */\n      0x00\n        /* \"#utility.yul\":25241:25246   */\n      dup2\n        /* \"#utility.yul\":25235:25247   */\n      mload\n        /* \"#utility.yul\":25225:25247   */\n      swap1\n      pop\n        /* \"#utility.yul\":25155:25254   */\n      swap2\n      swap1\n      pop\n      jump\t// out\n        /* \"#utility.yul\":25260:25399   */\n    tag_427:\n        /* \"#utility.yul\":25349:25355   */\n      dup3\n        /* \"#utility.yul\":25344:25347   */\n      dup2\n        /* \"#utility.yul\":25339:25342   */\n      dup4\n        /* \"#utility.yul\":25333:25356   */\n      mcopy\n        /* \"#utility.yul\":25390:25391   */\n      0x00\n        /* \"#utility.yul\":25381:25387   */\n      dup4\n        /* \"#utility.yul\":25376:25379   */\n      dup4\n        /* \"#utility.yul\":25372:25388   */\n      add\n        /* \"#utility.yul\":25365:25392   */\n      mstore\n        /* \"#utility.yul\":25260:25399   */\n      pop\n      pop\n      pop\n      jump\t// out\n        /* \"#utility.yul\":25405:25795   */\n    tag_428:\n        /* \"#utility.yul\":25511:25514   */\n      0x00\n        /* \"#utility.yul\":25539:25578   */\n      tag_683\n        /* \"#utility.yul\":25572:25577   */\n      dup3\n        /* \"#utility.yul\":25539:25578   */\n      tag_426\n      jump\t// in\n    tag_683:\n        /* \"#utility.yul\":25594:25683   */\n      tag_684\n        /* \"#utility.yul\":25676:25682   */\n      dup2\n        /* \"#utility.yul\":25671:25674   */\n      dup6\n        /* \"#utility.yul\":25594:25683   */\n      tag_423\n      jump\t// in\n    tag_684:\n        /* \"#utility.yul\":25587:25683   */\n      swap4\n      pop\n        /* \"#utility.yul\":25692:25757   */\n      tag_685\n        /* \"#utility.yul\":25750:25756   */\n      dup2\n        /* \"#utility.yul\":25745:25748   */\n      dup6\n        /* \"#utility.yul\":25738:25742   */\n      0x20\n        /* \"#utility.yul\":25731:25736   */\n      dup7\n        /* \"#utility.yul\":25727:25743   */\n      add\n        /* \"#utility.yul\":25692:25757   */\n      tag_427\n      jump\t// in\n    tag_685:\n        /* \"#utility.yul\":25782:25788   */\n      dup1\n        /* \"#utility.yul\":25777:25780   */\n      dup5\n        /* \"#utility.yul\":25773:25789   */\n      add\n        /* \"#utility.yul\":25766:25789   */\n      swap2\n      pop\n        /* \"#utility.yul\":25515:25795   */\n      pop\n        /* \"#utility.yul\":25405:25795   */\n      swap3\n      swap2\n      pop\n      pop\n      jump\t// out\n        /* \"#utility.yul\":25801:25968   */\n    tag_429:\n        /* \"#utility.yul\":25941:25960   */\n      0x206973206d697373696e6720726f6c6520000000000000000000000000000000\n        /* \"#utility.yul\":25937:25938   */\n      0x00\n        /* \"#utility.yul\":25929:25935   */\n      dup3\n        /* \"#utility.yul\":25925:25939   */\n      add\n        /* \"#utility.yul\":25918:25961   */\n      mstore\n        /* \"#utility.yul\":25801:25968   */\n      pop\n      jump\t// out\n        /* \"#utility.yul\":25974:26376   */\n    tag_430:\n        /* \"#utility.yul\":26134:26137   */\n      0x00\n        /* \"#utility.yul\":26155:26240   */\n      tag_688\n        /* \"#utility.yul\":26237:26239   */\n      0x11\n        /* \"#utility.yul\":26232:26235   */\n      dup4\n        /* \"#utility.yul\":26155:26240   */\n      tag_423\n      jump\t// in\n    tag_688:\n        /* \"#utility.yul\":26148:26240   */\n      swap2\n      pop\n        /* \"#utility.yul\":26249:26342   */\n      tag_689\n        /* \"#utility.yul\":26338:26341   */\n      dup3\n        /* \"#utility.yul\":26249:26342   */\n      tag_429\n      jump\t// in\n    tag_689:\n        /* \"#utility.yul\":26367:26369   */\n      0x11\n        /* \"#utility.yul\":26362:26365   */\n      dup3\n        /* \"#utility.yul\":26358:26370   */\n      add\n        /* \"#utility.yul\":26351:26370   */\n      swap1\n      pop\n        /* \"#utility.yul\":25974:26376   */\n      swap2\n      swap1\n      pop\n      jump\t// out\n        /* \"#utility.yul\":26382:27349   */\n    tag_287:\n        /* \"#utility.yul\":26764:26767   */\n      0x00\n        /* \"#utility.yul\":26786:26934   */\n      tag_691\n        /* \"#utility.yul\":26930:26933   */\n      dup3\n        /* \"#utility.yul\":26786:26934   */\n      tag_425\n      jump\t// in\n    tag_691:\n        /* \"#utility.yul\":26779:26934   */\n      swap2\n      pop\n        /* \"#utility.yul\":26951:27046   */\n      tag_692\n        /* \"#utility.yul\":27042:27045   */\n      dup3\n        /* \"#utility.yul\":27033:27039   */\n      dup6\n        /* \"#utility.yul\":26951:27046   */\n      tag_428\n      jump\t// in\n    tag_692:\n        /* \"#utility.yul\":26944:27046   */\n      swap2\n      pop\n        /* \"#utility.yul\":27063:27211   */\n      tag_693\n        /* \"#utility.yul\":27207:27210   */\n      dup3\n        /* \"#utility.yul\":27063:27211   */\n      tag_430\n      jump\t// in\n    tag_693:\n        /* \"#utility.yul\":27056:27211   */\n      swap2\n      pop\n        /* \"#utility.yul\":27228:27323   */\n      tag_694\n        /* \"#utility.yul\":27319:27322   */\n      dup3\n        /* \"#utility.yul\":27310:27316   */\n      dup5\n        /* \"#utility.yul\":27228:27323   */\n      tag_428\n      jump\t// in\n    tag_694:\n        /* \"#utility.yul\":27221:27323   */\n      swap2\n      pop\n        /* \"#utility.yul\":27340:27343   */\n      dup2\n        /* \"#utility.yul\":27333:27343   */\n      swap1\n      pop\n        /* \"#utility.yul\":26382:27349   */\n      swap4\n      swap3\n      pop\n      pop\n      pop\n      jump\t// out\n        /* \"#utility.yul\":27355:27732   */\n    tag_431:\n        /* \"#utility.yul\":27443:27446   */\n      0x00\n        /* \"#utility.yul\":27471:27510   */\n      tag_696\n        /* \"#utility.yul\":27504:27509   */\n      dup3\n        /* \"#utility.yul\":27471:27510   */\n      tag_426\n      jump\t// in\n    tag_696:\n        /* \"#utility.yul\":27526:27597   */\n      tag_697\n        /* \"#utility.yul\":27590:27596   */\n      dup2\n        /* \"#utility.yul\":27585:27588   */\n      dup6\n        /* \"#utility.yul\":27526:27597   */\n      tag_392\n      jump\t// in\n    tag_697:\n        /* \"#utility.yul\":27519:27597   */\n      swap4\n      pop\n        /* \"#utility.yul\":27606:27671   */\n      tag_698\n        /* \"#utility.yul\":27664:27670   */\n      dup2\n        /* \"#utility.yul\":27659:27662   */\n      dup6\n        /* \"#utility.yul\":27652:27656   */\n      0x20\n        /* \"#utility.yul\":27645:27650   */\n      dup7\n        /* \"#utility.yul\":27641:27657   */\n      add\n        /* \"#utility.yul\":27606:27671   */\n      tag_427\n      jump\t// in\n    tag_698:\n        /* \"#utility.yul\":27696:27725   */\n      tag_699\n        /* \"#utility.yul\":27718:27724   */\n      dup2\n        /* \"#utility.yul\":27696:27725   */\n      tag_377\n      jump\t// in\n    tag_699:\n        /* \"#utility.yul\":27691:27694   */\n      dup5\n        /* \"#utility.yul\":27687:27726   */\n      add\n        /* \"#utility.yul\":27680:27726   */\n      swap2\n      pop\n        /* \"#utility.yul\":27447:27732   */\n      pop\n        /* \"#utility.yul\":27355:27732   */\n      swap3\n      swap2\n      pop\n      pop\n      jump\t// out\n        /* \"#utility.yul\":27738:28051   */\n    tag_289:\n        /* \"#utility.yul\":27851:27855   */\n      0x00\n        /* \"#utility.yul\":27889:27891   */\n      0x20\n        /* \"#utility.yul\":27878:27887   */\n      dup3\n        /* \"#utility.yul\":27874:27892   */\n      add\n        /* \"#utility.yul\":27866:27892   */\n      swap1\n      pop\n        /* \"#utility.yul\":27938:27947   */\n      dup2\n        /* \"#utility.yul\":27932:27936   */\n      dup2\n        /* \"#utility.yul\":27928:27948   */\n      sub\n        /* \"#utility.yul\":27924:27925   */\n      0x00\n        /* \"#utility.yul\":27913:27922   */\n      dup4\n        /* \"#utility.yul\":27909:27926   */\n      add\n        /* \"#utility.yul\":27902:27949   */\n      mstore\n        /* \"#utility.yul\":27966:28044   */\n      tag_701\n        /* \"#utility.yul\":28039:28043   */\n      dup2\n        /* \"#utility.yul\":28030:28036   */\n      dup5\n        /* \"#utility.yul\":27966:28044   */\n      tag_431\n      jump\t// in\n    tag_701:\n        /* \"#utility.yul\":27958:28044   */\n      swap1\n      pop\n        /* \"#utility.yul\":27738:28051   */\n      swap3\n      swap2\n      pop\n      pop\n      jump\t// out\n        /* \"#utility.yul\":28057:28289   */\n    tag_432:\n        /* \"#utility.yul\":28197:28231   */\n      0x455243313936373a206e657720696d706c656d656e746174696f6e206973206e\n        /* \"#utility.yul\":28193:28194   */\n      0x00\n        /* \"#utility.yul\":28185:28191   */\n      dup3\n        /* \"#utility.yul\":28181:28195   */\n      add\n        /* \"#utility.yul\":28174:28232   */\n      mstore\n        /* \"#utility.yul\":28266:28281   */\n      0x6f74206120636f6e747261637400000000000000000000000000000000000000\n        /* \"#utility.yul\":28261:28263   */\n      0x20\n        /* \"#utility.yul\":28253:28259   */\n      dup3\n        /* \"#utility.yul\":28249:28264   */\n      add\n        /* \"#utility.yul\":28242:28282   */\n      mstore\n        /* \"#utility.yul\":28057:28289   */\n      pop\n      jump\t// out\n        /* \"#utility.yul\":28295:28661   */\n    tag_433:\n        /* \"#utility.yul\":28437:28440   */\n      0x00\n        /* \"#utility.yul\":28458:28525   */\n      tag_704\n        /* \"#utility.yul\":28522:28524   */\n      0x2d\n        /* \"#utility.yul\":28517:28520   */\n      dup4\n        /* \"#utility.yul\":28458:28525   */\n      tag_392\n      jump\t// in\n    tag_704:\n        /* \"#utility.yul\":28451:28525   */\n      swap2\n      pop\n        /* \"#utility.yul\":28534:28627   */\n      tag_705\n        /* \"#utility.yul\":28623:28626   */\n      dup3\n        /* \"#utility.yul\":28534:28627   */\n      tag_432\n      jump\t// in\n    tag_705:\n        /* \"#utility.yul\":28652:28654   */\n      0x40\n        /* \"#utility.yul\":28647:28650   */\n      dup3\n        /* \"#utility.yul\":28643:28655   */\n      add\n        /* \"#utility.yul\":28636:28655   */\n      swap1\n      pop\n        /* \"#utility.yul\":28295:28661   */\n      swap2\n      swap1\n      pop\n      jump\t// out\n        /* \"#utility.yul\":28667:29086   */\n    tag_296:\n        /* \"#utility.yul\":28833:28837   */\n      0x00\n        /* \"#utility.yul\":28871:28873   */\n      0x20\n        /* \"#utility.yul\":28860:28869   */\n      dup3\n        /* \"#utility.yul\":28856:28874   */\n      add\n        /* \"#utility.yul\":28848:28874   */\n      swap1\n      pop\n        /* \"#utility.yul\":28920:28929   */\n      dup2\n        /* \"#utility.yul\":28914:28918   */\n      dup2\n        /* \"#utility.yul\":28910:28930   */\n      sub\n        /* \"#utility.yul\":28906:28907   */\n      0x00\n        /* \"#utility.yul\":28895:28904   */\n      dup4\n        /* \"#utility.yul\":28891:28908   */\n      add\n        /* \"#utility.yul\":28884:28931   */\n      mstore\n        /* \"#utility.yul\":28948:29079   */\n      tag_707\n        /* \"#utility.yul\":29074:29078   */\n      dup2\n        /* \"#utility.yul\":28948:29079   */\n      tag_433\n      jump\t// in\n    tag_707:\n        /* \"#utility.yul\":28940:29079   */\n      swap1\n      pop\n        /* \"#utility.yul\":28667:29086   */\n      swap2\n      swap1\n      pop\n      jump\t// out\n        /* \"#utility.yul\":29092:29502   */\n    tag_309:\n        /* \"#utility.yul\":29132:29139   */\n      0x00\n        /* \"#utility.yul\":29155:29175   */\n      tag_709\n        /* \"#utility.yul\":29173:29174   */\n      dup3\n        /* \"#utility.yul\":29155:29175   */\n      tag_388\n      jump\t// in\n    tag_709:\n        /* \"#utility.yul\":29150:29175   */\n      swap2\n      pop\n        /* \"#utility.yul\":29189:29209   */\n      tag_710\n        /* \"#utility.yul\":29207:29208   */\n      dup4\n        /* \"#utility.yul\":29189:29209   */\n      tag_388\n      jump\t// in\n    tag_710:\n        /* \"#utility.yul\":29184:29209   */\n      swap3\n      pop\n        /* \"#utility.yul\":29244:29245   */\n      dup3\n        /* \"#utility.yul\":29241:29242   */\n      dup3\n        /* \"#utility.yul\":29237:29246   */\n      mul\n        /* \"#utility.yul\":29266:29296   */\n      tag_711\n        /* \"#utility.yul\":29284:29295   */\n      dup2\n        /* \"#utility.yul\":29266:29296   */\n      tag_388\n      jump\t// in\n    tag_711:\n        /* \"#utility.yul\":29255:29296   */\n      swap2\n      pop\n        /* \"#utility.yul\":29445:29446   */\n      dup3\n        /* \"#utility.yul\":29436:29443   */\n      dup3\n        /* \"#utility.yul\":29432:29447   */\n      div\n        /* \"#utility.yul\":29429:29430   */\n      dup5\n        /* \"#utility.yul\":29426:29448   */\n      eq\n        /* \"#utility.yul\":29406:29407   */\n      dup4\n        /* \"#utility.yul\":29399:29408   */\n      iszero\n        /* \"#utility.yul\":29379:29462   */\n      or\n        /* \"#utility.yul\":29356:29495   */\n      tag_712\n      jumpi\n        /* \"#utility.yul\":29475:29493   */\n      tag_713\n      tag_417\n      jump\t// in\n    tag_713:\n        /* \"#utility.yul\":29356:29495   */\n    tag_712:\n        /* \"#utility.yul\":29140:29502   */\n      pop\n        /* \"#utility.yul\":29092:29502   */\n      swap3\n      swap2\n      pop\n      pop\n      jump\t// out\n        /* \"#utility.yul\":29508:29679   */\n    tag_328:\n        /* \"#utility.yul\":29547:29550   */\n      0x00\n        /* \"#utility.yul\":29570:29594   */\n      tag_715\n        /* \"#utility.yul\":29588:29593   */\n      dup3\n        /* \"#utility.yul\":29570:29594   */\n      tag_388\n      jump\t// in\n    tag_715:\n        /* \"#utility.yul\":29561:29594   */\n      swap2\n      pop\n        /* \"#utility.yul\":29616:29620   */\n      0x00\n        /* \"#utility.yul\":29609:29614   */\n      dup3\n        /* \"#utility.yul\":29606:29621   */\n      sub\n        /* \"#utility.yul\":29603:29644   */\n      tag_716\n      jumpi\n        /* \"#utility.yul\":29624:29642   */\n      tag_717\n      tag_417\n      jump\t// in\n    tag_717:\n        /* \"#utility.yul\":29603:29644   */\n    tag_716:\n        /* \"#utility.yul\":29671:29672   */\n      0x01\n        /* \"#utility.yul\":29664:29669   */\n      dup3\n        /* \"#utility.yul\":29660:29673   */\n      sub\n        /* \"#utility.yul\":29653:29673   */\n      swap1\n      pop\n        /* \"#utility.yul\":29508:29679   */\n      swap2\n      swap1\n      pop\n      jump\t// out\n        /* \"#utility.yul\":29685:29867   */\n    tag_434:\n        /* \"#utility.yul\":29825:29859   */\n      0x537472696e67733a20686578206c656e67746820696e73756666696369656e74\n        /* \"#utility.yul\":29821:29822   */\n      0x00\n        /* \"#utility.yul\":29813:29819   */\n      dup3\n        /* \"#utility.yul\":29809:29823   */\n      add\n        /* \"#utility.yul\":29802:29860   */\n      mstore\n        /* \"#utility.yul\":29685:29867   */\n      pop\n      jump\t// out\n        /* \"#utility.yul\":29873:30239   */\n    tag_435:\n        /* \"#utility.yul\":30015:30018   */\n      0x00\n        /* \"#utility.yul\":30036:30103   */\n      tag_720\n        /* \"#utility.yul\":30100:30102   */\n      0x20\n        /* \"#utility.yul\":30095:30098   */\n      dup4\n        /* \"#utility.yul\":30036:30103   */\n      tag_392\n      jump\t// in\n    tag_720:\n        /* \"#utility.yul\":30029:30103   */\n      swap2\n      pop\n        /* \"#utility.yul\":30112:30205   */\n      tag_721\n        /* \"#utility.yul\":30201:30204   */\n      dup3\n        /* \"#utility.yul\":30112:30205   */\n      tag_434\n      jump\t// in\n    tag_721:\n        /* \"#utility.yul\":30230:30232   */\n      0x20\n        /* \"#utility.yul\":30225:30228   */\n      dup3\n        /* \"#utility.yul\":30221:30233   */\n      add\n        /* \"#utility.yul\":30214:30233   */\n      swap1\n      pop\n        /* \"#utility.yul\":29873:30239   */\n      swap2\n      swap1\n      pop\n      jump\t// out\n        /* \"#utility.yul\":30245:30664   */\n    tag_331:\n        /* \"#utility.yul\":30411:30415   */\n      0x00\n        /* \"#utility.yul\":30449:30451   */\n      0x20\n        /* \"#utility.yul\":30438:30447   */\n      dup3\n        /* \"#utility.yul\":30434:30452   */\n      add\n        /* \"#utility.yul\":30426:30452   */\n      swap1\n      pop\n        /* \"#utility.yul\":30498:30507   */\n      dup2\n        /* \"#utility.yul\":30492:30496   */\n      dup2\n        /* \"#utility.yul\":30488:30508   */\n      sub\n        /* \"#utility.yul\":30484:30485   */\n      0x00\n        /* \"#utility.yul\":30473:30482   */\n      dup4\n        /* \"#utility.yul\":30469:30486   */\n      add\n        /* \"#utility.yul\":30462:30509   */\n      mstore\n        /* \"#utility.yul\":30526:30657   */\n      tag_723\n        /* \"#utility.yul\":30652:30656   */\n      dup2\n        /* \"#utility.yul\":30526:30657   */\n      tag_435\n      jump\t// in\n    tag_723:\n        /* \"#utility.yul\":30518:30657   */\n      swap1\n      pop\n        /* \"#utility.yul\":30245:30664   */\n      swap2\n      swap1\n      pop\n      jump\t// out\n        /* \"#utility.yul\":30670:30768   */\n    tag_436:\n        /* \"#utility.yul\":30721:30727   */\n      0x00\n        /* \"#utility.yul\":30755:30760   */\n      dup2\n        /* \"#utility.yul\":30749:30761   */\n      mload\n        /* \"#utility.yul\":30739:30761   */\n      swap1\n      pop\n        /* \"#utility.yul\":30670:30768   */\n      swap2\n      swap1\n      pop\n      jump\t// out\n        /* \"#utility.yul\":30774:30921   */\n    tag_437:\n        /* \"#utility.yul\":30875:30886   */\n      0x00\n        /* \"#utility.yul\":30912:30915   */\n      dup2\n        /* \"#utility.yul\":30897:30915   */\n      swap1\n      pop\n        /* \"#utility.yul\":30774:30921   */\n      swap3\n      swap2\n      pop\n      pop\n      jump\t// out\n        /* \"#utility.yul\":30927:31313   */\n    tag_438:\n        /* \"#utility.yul\":31031:31034   */\n      0x00\n        /* \"#utility.yul\":31059:31097   */\n      tag_727\n        /* \"#utility.yul\":31091:31096   */\n      dup3\n        /* \"#utility.yul\":31059:31097   */\n      tag_436\n      jump\t// in\n    tag_727:\n        /* \"#utility.yul\":31113:31201   */\n      tag_728\n        /* \"#utility.yul\":31194:31200   */\n      dup2\n        /* \"#utility.yul\":31189:31192   */\n      dup6\n        /* \"#utility.yul\":31113:31201   */\n      tag_437\n      jump\t// in\n    tag_728:\n        /* \"#utility.yul\":31106:31201   */\n      swap4\n      pop\n        /* \"#utility.yul\":31210:31275   */\n      tag_729\n        /* \"#utility.yul\":31268:31274   */\n      dup2\n        /* \"#utility.yul\":31263:31266   */\n      dup6\n        /* \"#utility.yul\":31256:31260   */\n      0x20\n        /* \"#utility.yul\":31249:31254   */\n      dup7\n        /* \"#utility.yul\":31245:31261   */\n      add\n        /* \"#utility.yul\":31210:31275   */\n      tag_427\n      jump\t// in\n    tag_729:\n        /* \"#utility.yul\":31300:31306   */\n      dup1\n        /* \"#utility.yul\":31295:31298   */\n      dup5\n        /* \"#utility.yul\":31291:31307   */\n      add\n        /* \"#utility.yul\":31284:31307   */\n      swap2\n      pop\n        /* \"#utility.yul\":31035:31313   */\n      pop\n        /* \"#utility.yul\":30927:31313   */\n      swap3\n      swap2\n      pop\n      pop\n      jump\t// out\n        /* \"#utility.yul\":31319:31590   */\n    tag_339:\n        /* \"#utility.yul\":31449:31452   */\n      0x00\n        /* \"#utility.yul\":31471:31564   */\n      tag_731\n        /* \"#utility.yul\":31560:31563   */\n      dup3\n        /* \"#utility.yul\":31551:31557   */\n      dup5\n        /* \"#utility.yul\":31471:31564   */\n      tag_438\n      jump\t// in\n    tag_731:\n        /* \"#utility.yul\":31464:31564   */\n      swap2\n      pop\n        /* \"#utility.yul\":31581:31584   */\n      dup2\n        /* \"#utility.yul\":31574:31584   */\n      swap1\n      pop\n        /* \"#utility.yul\":31319:31590   */\n      swap3\n      swap2\n      pop\n      pop\n      jump\t// out\n        /* \"#utility.yul\":31596:31775   */\n    tag_439:\n        /* \"#utility.yul\":31736:31767   */\n      0x416464726573733a2063616c6c20746f206e6f6e2d636f6e7472616374000000\n        /* \"#utility.yul\":31732:31733   */\n      0x00\n        /* \"#utility.yul\":31724:31730   */\n      dup3\n        /* \"#utility.yul\":31720:31734   */\n      add\n        /* \"#utility.yul\":31713:31768   */\n      mstore\n        /* \"#utility.yul\":31596:31775   */\n      pop\n      jump\t// out\n        /* \"#utility.yul\":31781:32147   */\n    tag_440:\n        /* \"#utility.yul\":31923:31926   */\n      0x00\n        /* \"#utility.yul\":31944:32011   */\n      tag_734\n        /* \"#utility.yul\":32008:32010   */\n      0x1d\n        /* \"#utility.yul\":32003:32006   */\n      dup4\n        /* \"#utility.yul\":31944:32011   */\n      tag_392\n      jump\t// in\n    tag_734:\n        /* \"#utility.yul\":31937:32011   */\n      swap2\n      pop\n        /* \"#utility.yul\":32020:32113   */\n      tag_735\n        /* \"#utility.yul\":32109:32112   */\n      dup3\n        /* \"#utility.yul\":32020:32113   */\n      tag_439\n      jump\t// in\n    tag_735:\n        /* \"#utility.yul\":32138:32140   */\n      0x20\n        /* \"#utility.yul\":32133:32136   */\n      dup3\n        /* \"#utility.yul\":32129:32141   */\n      add\n        /* \"#utility.yul\":32122:32141   */\n      swap1\n      pop\n        /* \"#utility.yul\":31781:32147   */\n      swap2\n      swap1\n      pop\n      jump\t// out\n        /* \"#utility.yul\":32153:32572   */\n    tag_351:\n        /* \"#utility.yul\":32319:32323   */\n      0x00\n        /* \"#utility.yul\":32357:32359   */\n      0x20\n        /* \"#utility.yul\":32346:32355   */\n      dup3\n        /* \"#utility.yul\":32342:32360   */\n      add\n        /* \"#utility.yul\":32334:32360   */\n      swap1\n      pop\n        /* \"#utility.yul\":32406:32415   */\n      dup2\n        /* \"#utility.yul\":32400:32404   */\n      dup2\n        /* \"#utility.yul\":32396:32416   */\n      sub\n        /* \"#utility.yul\":32392:32393   */\n      0x00\n        /* \"#utility.yul\":32381:32390   */\n      dup4\n        /* \"#utility.yul\":32377:32394   */\n      add\n        /* \"#utility.yul\":32370:32417   */\n      mstore\n        /* \"#utility.yul\":32434:32565   */\n      tag_737\n        /* \"#utility.yul\":32560:32564   */\n      dup2\n        /* \"#utility.yul\":32434:32565   */\n      tag_440\n      jump\t// in\n    tag_737:\n        /* \"#utility.yul\":32426:32565   */\n      swap1\n      pop\n        /* \"#utility.yul\":32153:32572   */\n      swap2\n      swap1\n      pop\n      jump\t// out\n    stop\n    data_9fdcd12e4b726339b32a442b0a448365d5d85c96b2d2cff917b4f66c63110398 416464726573733a206c6f772d6c6576656c2064656c65676174652063616c6c206661696c6564\n\n    auxdata: 0xa2646970667358221220e1c4874ad6f32b1b31904c46d059eda3c3faa2354e79c921b30cac71597a0c9364736f6c634300081a0033\n}\n",
				"bytecode": {
					"linkReferences": {},
					"object": "60a06040523073ffffffffffffffffffffffffffffffffffffffff1660809073ffffffffffffffffffffffffffffffffffffffff168152503480156041575f80fd5b50608051612c926100765f395f81816104ea01528181610578015281816107ee0152818161087c015261092b0152612c925ff3fe6080604052600436106100f2575f3560e01c8063542e37cc11610089578063b88a802f11610058578063b88a802f1461030c578063bb6ceb4f14610322578063d547741f1461035e578063f396d89914610386576100f2565b8063542e37cc14610254578063651f066a1461027c57806391d14854146102a6578063a217fddf146102e2576100f2565b80633659cfe6116100c55780633659cfe6146101be578063485cc955146101e65780634f1ef2861461020e57806352d1902d1461022a576100f2565b806301ffc9a7146100f6578063248a9ca3146101325780632f2ff15d1461016e57806336568abe14610196575b5f80fd5b348015610101575f80fd5b5061011c60048036038101906101179190611c2f565b6103ae565b6040516101299190611c74565b60405180910390f35b34801561013d575f80fd5b5061015860048036038101906101539190611cc0565b610427565b6040516101659190611cfa565b60405180910390f35b348015610179575f80fd5b50610194600480360381019061018f9190611d6d565b610444565b005b3480156101a1575f80fd5b506101bc60048036038101906101b79190611d6d565b610465565b005b3480156101c9575f80fd5b506101e460048036038101906101df9190611dab565b6104e8565b005b3480156101f1575f80fd5b5061020c60048036038101906102079190611dd6565b61066e565b005b61022860048036038101906102239190611f50565b6107ec565b005b348015610235575f80fd5b5061023e610928565b60405161024b9190611cfa565b60405180910390f35b34801561025f575f80fd5b5061027a6004803603810190610275919061206e565b6109df565b005b348015610287575f80fd5b50610290610a2b565b60405161029d91906120cd565b60405180910390f35b3480156102b1575f80fd5b506102cc60048036038101906102c79190611d6d565b610a6f565b6040516102d99190611c74565b60405180910390f35b3480156102ed575f80fd5b506102f6610ad3565b6040516103039190611cfa565b60405180910390f35b348015610317575f80fd5b50610320610ad9565b005b34801561032d575f80fd5b5061034860048036038101906103439190611dab565b610dcc565b60405161035591906120cd565b60405180910390f35b348015610369575f80fd5b50610384600480360381019061037f9190611d6d565b610e1f565b005b348015610391575f80fd5b506103ac60048036038101906103a7919061213f565b610e40565b005b5f7f7965db0b000000000000000000000000000000000000000000000000000000007bffffffffffffffffffffffffffffffffffffffffffffffffffffffff1916827bffffffffffffffffffffffffffffffffffffffffffffffffffffffff19161480610420575061041f82610f04565b5b9050919050565b5f60c95f8381526020019081526020015f20600101549050919050565b61044d82610427565b61045681610f6d565b6104608383610f81565b505050565b61046d61105c565b73ffffffffffffffffffffffffffffffffffffffff168173ffffffffffffffffffffffffffffffffffffffff16146104da576040517f08c379a00000000000000000000000000000000000000000000000000000000081526004016104d19061220a565b60405180910390fd5b6104e48282611063565b5050565b7f000000000000000000000000000000000000000000000000000000000000000073ffffffffffffffffffffffffffffffffffffffff163073ffffffffffffffffffffffffffffffffffffffff1603610576576040517f08c379a000000000000000000000000000000000000000000000000000000000815260040161056d90612298565b60405180910390fd5b7f000000000000000000000000000000000000000000000000000000000000000073ffffffffffffffffffffffffffffffffffffffff166105b561113e565b73ffffffffffffffffffffffffffffffffffffffff161461060b576040517f08c379a000000000000000000000000000000000000000000000000000000000815260040161060290612326565b60405180910390fd5b61061481611191565b61066b815f67ffffffffffffffff81111561063257610631611e2c565b5b6040519080825280601f01601f1916602001820160405280156106645781602001600182028036833780820191505090505b505f6111a1565b50565b5f8060019054906101000a900460ff1615905080801561069d575060015f8054906101000a900460ff1660ff16105b806106c957506106ac3061130b565b1580156106c8575060015f8054906101000a900460ff1660ff16145b5b610708576040517f08c379a00000000000000000000000000000000000000000000000000000000081526004016106ff906123b4565b60405180910390fd5b60015f806101000a81548160ff021916908360ff16021790555080156107435760015f60016101000a81548160ff0219169083151502179055505b8260fb5f6101000a81548173ffffffffffffffffffffffffffffffffffffffff021916908373ffffffffffffffffffffffffffffffffffffffff16021790555061078f5f801b8361132d565b80156107e7575f8060016101000a81548160ff0219169083151502179055507f7f26b83ff96e1f2b6a682f133852f6798a09c465da95921460cefb384740249860016040516107de9190612420565b60405180910390a15b505050565b7f000000000000000000000000000000000000000000000000000000000000000073ffffffffffffffffffffffffffffffffffffffff163073ffffffffffffffffffffffffffffffffffffffff160361087a576040517f08c379a000000000000000000000000000000000000000000000000000000000815260040161087190612298565b60405180910390fd5b7f000000000000000000000000000000000000000000000000000000000000000073ffffffffffffffffffffffffffffffffffffffff166108b961113e565b73ffffffffffffffffffffffffffffffffffffffff161461090f576040517f08c379a000000000000000000000000000000000000000000000000000000000815260040161090690612326565b60405180910390fd5b61091882611191565b610924828260016111a1565b5050565b5f7f000000000000000000000000000000000000000000000000000000000000000073ffffffffffffffffffffffffffffffffffffffff163073ffffffffffffffffffffffffffffffffffffffff16146109b7576040517f08c379a00000000000000000000000000000000000000000000000000000000081526004016109ae906124a9565b60405180910390fd5b7f360894a13ba1a3210667c828492db98dca3e2076cc3735a920a3ca505d382bbc5f1b905090565b5f801b6109eb81610f6d565b5f5b8251811015610a2657610a19838281518110610a0c57610a0b6124c7565b5b602002602001015161133b565b80806001019150506109ed565b505050565b5f60fc5f3373ffffffffffffffffffffffffffffffffffffffff1673ffffffffffffffffffffffffffffffffffffffff1681526020019081526020015f2054905090565b5f60c95f8481526020019081526020015f205f015f8373ffffffffffffffffffffffffffffffffffffffff1673ffffffffffffffffffffffffffffffffffffffff1681526020019081526020015f205f9054906101000a900460ff16905092915050565b5f801b81565b5f60fc5f3373ffffffffffffffffffffffffffffffffffffffff1673ffffffffffffffffffffffffffffffffffffffff1681526020019081526020015f205411610b58576040517f08c379a0000000000000000000000000000000000000000000000000000000008152600401610b4f9061253e565b60405180910390fd5b60fb5f9054906101000a900473ffffffffffffffffffffffffffffffffffffffff1673ffffffffffffffffffffffffffffffffffffffff166370a08231306040518263ffffffff1660e01b8152600401610bb2919061256b565b602060405180830381865afa158015610bcd573d5f803e3d5ffd5b505050506040513d601f19601f82011682018060405250810190610bf191906125ae565b60fc5f3373ffffffffffffffffffffffffffffffffffffffff1673ffffffffffffffffffffffffffffffffffffffff1681526020019081526020015f20541115610c70576040517f08c379a0000000000000000000000000000000000000000000000000000000008152600401610c6790612649565b60405180910390fd5b5f60fc5f3373ffffffffffffffffffffffffffffffffffffffff1673ffffffffffffffffffffffffffffffffffffffff1681526020019081526020015f205490505f60fc5f3373ffffffffffffffffffffffffffffffffffffffff1673ffffffffffffffffffffffffffffffffffffffff1681526020019081526020015f208190555060fb5f9054906101000a900473ffffffffffffffffffffffffffffffffffffffff1673ffffffffffffffffffffffffffffffffffffffff1663a9059cbb33836040518363ffffffff1660e01b8152600401610d4f929190612667565b6020604051808303815f875af1158015610d6b573d5f803e3d5ffd5b505050506040513d601f19601f82011682018060405250810190610d8f91906126b8565b507fba8de60c3403ec381d1d484652ea1980e3c3e56359195c92525bff4ce47ad98e3382604051610dc1929190612667565b60405180910390a150565b5f805f1b610dd981610f6d565b60fc5f8473ffffffffffffffffffffffffffffffffffffffff1673ffffffffffffffffffffffffffffffffffffffff1681526020019081526020015f2054915050919050565b610e2882610427565b610e3181610f6d565b610e3b8383611063565b505050565b5f801b610e4c81610f6d565b5f5b83839050811015610efe57838382818110610e6c57610e6b6124c7565b5b9050604002016020013560fc5f868685818110610e8c57610e8b6124c7565b5b9050604002015f016020810190610ea39190611dab565b73ffffffffffffffffffffffffffffffffffffffff1673ffffffffffffffffffffffffffffffffffffffff1681526020019081526020015f205f828254610eea9190612710565b925050819055508080600101915050610e4e565b50505050565b5f7f01ffc9a7000000000000000000000000000000000000000000000000000000007bffffffffffffffffffffffffffffffffffffffffffffffffffffffff1916827bffffffffffffffffffffffffffffffffffffffffffffffffffffffff1916149050919050565b610f7e81610f7961105c565b61162f565b50565b610f8b8282610a6f565b61105857600160c95f8481526020019081526020015f205f015f8373ffffffffffffffffffffffffffffffffffffffff1673ffffffffffffffffffffffffffffffffffffffff1681526020019081526020015f205f6101000a81548160ff021916908315150217905550610ffd61105c565b73ffffffffffffffffffffffffffffffffffffffff168173ffffffffffffffffffffffffffffffffffffffff16837f2f8788117e7eff1d82e926ec794901d17c78024a50270940304540a733656f0d60405160405180910390a45b5050565b5f33905090565b61106d8282610a6f565b1561113a575f60c95f8481526020019081526020015f205f015f8373ffffffffffffffffffffffffffffffffffffffff1673ffffffffffffffffffffffffffffffffffffffff1681526020019081526020015f205f6101000a81548160ff0219169083151502179055506110df61105c565b73ffffffffffffffffffffffffffffffffffffffff168173ffffffffffffffffffffffffffffffffffffffff16837ff6391f5c32d9c69d2a47ea670b442974b53935d1edc7fd64eb21e047a839171b60405160405180910390a45b5050565b5f61116a7f360894a13ba1a3210667c828492db98dca3e2076cc3735a920a3ca505d382bbc5f1b6116b3565b5f015f9054906101000a900473ffffffffffffffffffffffffffffffffffffffff16905090565b5f801b61119d81610f6d565b5050565b6111cc7f4910fdfa16fed3260ed0e7147f7cc6da11a60208b5b9406d12a635614ffd91435f1b6116bc565b5f015f9054906101000a900460ff16156111ee576111e9836116c5565b611306565b8273ffffffffffffffffffffffffffffffffffffffff166352d1902d6040518163ffffffff1660e01b8152600401602060405180830381865afa92505050801561125657506040513d601f19601f820116820180604052508101906112539190612757565b60015b611295576040517f08c379a000000000000000000000000000000000000000000000000000000000815260040161128c906127f2565b60405180910390fd5b7f360894a13ba1a3210667c828492db98dca3e2076cc3735a920a3ca505d382bbc5f1b81146112f9576040517f08c379a00000000000000000000000000000000000000000000000000000000081526004016112f090612880565b60405180910390fd5b5061130583838361177b565b5b505050565b5f808273ffffffffffffffffffffffffffffffffffffffff163b119050919050565b6113378282610f81565b5050565b5f60fc5f8373ffffffffffffffffffffffffffffffffffffffff1673ffffffffffffffffffffffffffffffffffffffff1681526020019081526020015f2054116113ba576040517f08c379a00000000000000000000000000000000000000000000000000000000081526004016113b19061253e565b60405180910390fd5b60fb5f9054906101000a900473ffffffffffffffffffffffffffffffffffffffff1673ffffffffffffffffffffffffffffffffffffffff166370a08231306040518263ffffffff1660e01b8152600401611414919061256b565b602060405180830381865afa15801561142f573d5f803e3d5ffd5b505050506040513d601f19601f8201168201806040525081019061145391906125ae565b60fc5f8373ffffffffffffffffffffffffffffffffffffffff1673ffffffffffffffffffffffffffffffffffffffff1681526020019081526020015f205411156114d2576040517f08c379a00000000000000000000000000000000000000000000000000000000081526004016114c990612649565b60405180910390fd5b5f60fc5f8373ffffffffffffffffffffffffffffffffffffffff1673ffffffffffffffffffffffffffffffffffffffff1681526020019081526020015f205490505f60fc5f8473ffffffffffffffffffffffffffffffffffffffff1673ffffffffffffffffffffffffffffffffffffffff1681526020019081526020015f208190555060fb5f9054906101000a900473ffffffffffffffffffffffffffffffffffffffff1673ffffffffffffffffffffffffffffffffffffffff1663a9059cbb83836040518363ffffffff1660e01b81526004016115b1929190612667565b6020604051808303815f875af11580156115cd573d5f803e3d5ffd5b505050506040513d601f19601f820116820180604052508101906115f191906126b8565b507fba8de60c3403ec381d1d484652ea1980e3c3e56359195c92525bff4ce47ad98e8282604051611623929190612667565b60405180910390a15050565b6116398282610a6f565b6116af57611646816117a6565b611653835f1c60206117d3565b604051602001611664929190612984565b6040516020818303038152906040526040517f08c379a00000000000000000000000000000000000000000000000000000000081526004016116a691906129f5565b60405180910390fd5b5050565b5f819050919050565b5f819050919050565b6116ce8161130b565b61170d576040517f08c379a000000000000000000000000000000000000000000000000000000000815260040161170490612a85565b60405180910390fd5b806117397f360894a13ba1a3210667c828492db98dca3e2076cc3735a920a3ca505d382bbc5f1b6116b3565b5f015f6101000a81548173ffffffffffffffffffffffffffffffffffffffff021916908373ffffffffffffffffffffffffffffffffffffffff16021790555050565b61178483611a08565b5f825111806117905750805b156117a15761179f8383611a57565b505b505050565b60606117cc8273ffffffffffffffffffffffffffffffffffffffff16601460ff166117d3565b9050919050565b60605f60028360026117e59190612aa3565b6117ef9190612710565b67ffffffffffffffff81111561180857611807611e2c565b5b6040519080825280601f01601f19166020018201604052801561183a5781602001600182028036833780820191505090505b5090507f3000000000000000000000000000000000000000000000000000000000000000815f81518110611871576118706124c7565b5b60200101907effffffffffffffffffffffffffffffffffffffffffffffffffffffffffffff191690815f1a9053507f7800000000000000000000000000000000000000000000000000000000000000816001815181106118d4576118d36124c7565b5b60200101907effffffffffffffffffffffffffffffffffffffffffffffffffffffffffffff191690815f1a9053505f60018460026119129190612aa3565b61191c9190612710565b90505b60018111156119bb577f3031323334353637383961626364656600000000000000000000000000000000600f86166010811061195e5761195d6124c7565b5b1a60f81b828281518110611975576119746124c7565b5b60200101907effffffffffffffffffffffffffffffffffffffffffffffffffffffffffffff191690815f1a905350600485901c9450806119b490612ae4565b905061191f565b505f84146119fe576040517f08c379a00000000000000000000000000000000000000000000000000000000081526004016119f590612b55565b60405180910390fd5b8091505092915050565b611a11816116c5565b8073ffffffffffffffffffffffffffffffffffffffff167fbc7cd75a20ee27fd9adebab32041f755214dbc6bffa90cc0225b39da2e5c2d3b60405160405180910390a250565b6060611a7c8383604051806060016040528060278152602001612c3660279139611a84565b905092915050565b60605f808573ffffffffffffffffffffffffffffffffffffffff1685604051611aad9190612bb7565b5f60405180830381855af49150503d805f8114611ae5576040519150601f19603f3d011682016040523d82523d5f602084013e611aea565b606091505b5091509150611afb86838387611b06565b925050509392505050565b60608315611b67575f835103611b5f57611b1f8561130b565b611b5e576040517f08c379a0000000000000000000000000000000000000000000000000000000008152600401611b5590612c17565b60405180910390fd5b5b829050611b72565b611b718383611b7a565b5b949350505050565b5f82511115611b8c5781518083602001fd5b806040517f08c379a0000000000000000000000000000000000000000000000000000000008152600401611bc091906129f5565b60405180910390fd5b5f604051905090565b5f80fd5b5f80fd5b5f7fffffffff0000000000000000000000000000000000000000000000000000000082169050919050565b611c0e81611bda565b8114611c18575f80fd5b50565b5f81359050611c2981611c05565b92915050565b5f60208284031215611c4457611c43611bd2565b5b5f611c5184828501611c1b565b91505092915050565b5f8115159050919050565b611c6e81611c5a565b82525050565b5f602082019050611c875f830184611c65565b92915050565b5f819050919050565b611c9f81611c8d565b8114611ca9575f80fd5b50565b5f81359050611cba81611c96565b92915050565b5f60208284031215611cd557611cd4611bd2565b5b5f611ce284828501611cac565b91505092915050565b611cf481611c8d565b82525050565b5f602082019050611d0d5f830184611ceb565b92915050565b5f73ffffffffffffffffffffffffffffffffffffffff82169050919050565b5f611d3c82611d13565b9050919050565b611d4c81611d32565b8114611d56575f80fd5b50565b5f81359050611d6781611d43565b92915050565b5f8060408385031215611d8357611d82611bd2565b5b5f611d9085828601611cac565b9250506020611da185828601611d59565b9150509250929050565b5f60208284031215611dc057611dbf611bd2565b5b5f611dcd84828501611d59565b91505092915050565b5f8060408385031215611dec57611deb611bd2565b5b5f611df985828601611d59565b9250506020611e0a85828601611d59565b9150509250929050565b5f80fd5b5f80fd5b5f601f19601f8301169050919050565b7f4e487b71000000000000000000000000000000000000000000000000000000005f52604160045260245ffd5b611e6282611e1c565b810181811067ffffffffffffffff82111715611e8157611e80611e2c565b5b80604052505050565b5f611e93611bc9565b9050611e9f8282611e59565b919050565b5f67ffffffffffffffff821115611ebe57611ebd611e2c565b5b611ec782611e1c565b9050602081019050919050565b828183375f83830152505050565b5f611ef4611eef84611ea4565b611e8a565b905082815260208101848484011115611f1057611f0f611e18565b5b611f1b848285611ed4565b509392505050565b5f82601f830112611f3757611f36611e14565b5b8135611f47848260208601611ee2565b91505092915050565b5f8060408385031215611f6657611f65611bd2565b5b5f611f7385828601611d59565b925050602083013567ffffffffffffffff811115611f9457611f93611bd6565b5b611fa085828601611f23565b9150509250929050565b5f67ffffffffffffffff821115611fc457611fc3611e2c565b5b602082029050602081019050919050565b5f80fd5b5f611feb611fe684611faa565b611e8a565b9050808382526020820190506020840283018581111561200e5761200d611fd5565b5b835b8181101561203757806120238882611d59565b845260208401935050602081019050612010565b5050509392505050565b5f82601f83011261205557612054611e14565b5b8135612065848260208601611fd9565b91505092915050565b5f6020828403121561208357612082611bd2565b5b5f82013567ffffffffffffffff8111156120a05761209f611bd6565b5b6120ac84828501612041565b91505092915050565b5f819050919050565b6120c7816120b5565b82525050565b5f6020820190506120e05f8301846120be565b92915050565b5f80fd5b5f8083601f8401126120ff576120fe611e14565b5b8235905067ffffffffffffffff81111561211c5761211b6120e6565b5b60208301915083604082028301111561213857612137611fd5565b5b9250929050565b5f806020838503121561215557612154611bd2565b5b5f83013567ffffffffffffffff81111561217257612171611bd6565b5b61217e858286016120ea565b92509250509250929050565b5f82825260208201905092915050565b7f416363657373436f6e74726f6c3a2063616e206f6e6c792072656e6f756e63655f8201527f20726f6c657320666f722073656c660000000000000000000000000000000000602082015250565b5f6121f4602f8361218a565b91506121ff8261219a565b604082019050919050565b5f6020820190508181035f830152612221816121e8565b9050919050565b7f46756e6374696f6e206d7573742062652063616c6c6564207468726f756768205f8201527f64656c656761746563616c6c0000000000000000000000000000000000000000602082015250565b5f612282602c8361218a565b915061228d82612228565b604082019050919050565b5f6020820190508181035f8301526122af81612276565b9050919050565b7f46756e6374696f6e206d7573742062652063616c6c6564207468726f756768205f8201527f6163746976652070726f78790000000000000000000000000000000000000000602082015250565b5f612310602c8361218a565b915061231b826122b6565b604082019050919050565b5f6020820190508181035f83015261233d81612304565b9050919050565b7f496e697469616c697a61626c653a20636f6e747261637420697320616c7265615f8201527f647920696e697469616c697a6564000000000000000000000000000000000000602082015250565b5f61239e602e8361218a565b91506123a982612344565b604082019050919050565b5f6020820190508181035f8301526123cb81612392565b9050919050565b5f819050919050565b5f60ff82169050919050565b5f819050919050565b5f61240a612405612400846123d2565b6123e7565b6123db565b9050919050565b61241a816123f0565b82525050565b5f6020820190506124335f830184612411565b92915050565b7f555550535570677261646561626c653a206d757374206e6f742062652063616c5f8201527f6c6564207468726f7567682064656c656761746563616c6c0000000000000000602082015250565b5f61249360388361218a565b915061249e82612439565b604082019050919050565b5f6020820190508181035f8301526124c081612487565b9050919050565b7f4e487b71000000000000000000000000000000000000000000000000000000005f52603260045260245ffd5b7f596f7520646f6e2774206861766520616e7920726577617264000000000000005f82015250565b5f61252860198361218a565b9150612533826124f4565b602082019050919050565b5f6020820190508181035f8301526125558161251c565b9050919050565b61256581611d32565b82525050565b5f60208201905061257e5f83018461255c565b92915050565b61258d816120b5565b8114612597575f80fd5b50565b5f815190506125a881612584565b92915050565b5f602082840312156125c3576125c2611bd2565b5b5f6125d08482850161259a565b91505092915050565b7f596f752063616e27742077697468647261772061742074686973206d6f6d656e5f8201527f7400000000000000000000000000000000000000000000000000000000000000602082015250565b5f61263360218361218a565b915061263e826125d9565b604082019050919050565b5f6020820190508181035f83015261266081612627565b9050919050565b5f60408201905061267a5f83018561255c565b61268760208301846120be565b9392505050565b61269781611c5a565b81146126a1575f80fd5b50565b5f815190506126b28161268e565b92915050565b5f602082840312156126cd576126cc611bd2565b5b5f6126da848285016126a4565b91505092915050565b7f4e487b71000000000000000000000000000000000000000000000000000000005f52601160045260245ffd5b5f61271a826120b5565b9150612725836120b5565b925082820190508082111561273d5761273c6126e3565b5b92915050565b5f8151905061275181611c96565b92915050565b5f6020828403121561276c5761276b611bd2565b5b5f61277984828501612743565b91505092915050565b7f45524331393637557067726164653a206e657720696d706c656d656e746174695f8201527f6f6e206973206e6f742055555053000000000000000000000000000000000000602082015250565b5f6127dc602e8361218a565b91506127e782612782565b604082019050919050565b5f6020820190508181035f830152612809816127d0565b9050919050565b7f45524331393637557067726164653a20756e737570706f727465642070726f785f8201527f6961626c65555549440000000000000000000000000000000000000000000000602082015250565b5f61286a60298361218a565b915061287582612810565b604082019050919050565b5f6020820190508181035f8301526128978161285e565b9050919050565b5f81905092915050565b7f416363657373436f6e74726f6c3a206163636f756e74200000000000000000005f82015250565b5f6128dc60178361289e565b91506128e7826128a8565b601782019050919050565b5f81519050919050565b8281835e5f83830152505050565b5f612914826128f2565b61291e818561289e565b935061292e8185602086016128fc565b80840191505092915050565b7f206973206d697373696e6720726f6c65200000000000000000000000000000005f82015250565b5f61296e60118361289e565b91506129798261293a565b601182019050919050565b5f61298e826128d0565b915061299a828561290a565b91506129a582612962565b91506129b1828461290a565b91508190509392505050565b5f6129c7826128f2565b6129d1818561218a565b93506129e18185602086016128fc565b6129ea81611e1c565b840191505092915050565b5f6020820190508181035f830152612a0d81846129bd565b905092915050565b7f455243313936373a206e657720696d706c656d656e746174696f6e206973206e5f8201527f6f74206120636f6e747261637400000000000000000000000000000000000000602082015250565b5f612a6f602d8361218a565b9150612a7a82612a15565b604082019050919050565b5f6020820190508181035f830152612a9c81612a63565b9050919050565b5f612aad826120b5565b9150612ab8836120b5565b9250828202612ac6816120b5565b91508282048414831517612add57612adc6126e3565b5b5092915050565b5f612aee826120b5565b91505f8203612b0057612aff6126e3565b5b600182039050919050565b7f537472696e67733a20686578206c656e67746820696e73756666696369656e745f82015250565b5f612b3f60208361218a565b9150612b4a82612b0b565b602082019050919050565b5f6020820190508181035f830152612b6c81612b33565b9050919050565b5f81519050919050565b5f81905092915050565b5f612b9182612b73565b612b9b8185612b7d565b9350612bab8185602086016128fc565b80840191505092915050565b5f612bc28284612b87565b915081905092915050565b7f416464726573733a2063616c6c20746f206e6f6e2d636f6e74726163740000005f82015250565b5f612c01601d8361218a565b9150612c0c82612bcd565b602082019050919050565b5f6020820190508181035f830152612c2e81612bf5565b905091905056fe416464726573733a206c6f772d6c6576656c2064656c65676174652063616c6c206661696c6564a2646970667358221220e1c4874ad6f32b1b31904c46d059eda3c3faa2354e79c921b30cac71597a0c9364736f6c634300081a0033",
					"opcodes": "PUSH1 0xA0 PUSH1 0x40 MSTORE ADDRESS PUSH20 0xFFFFFFFFFFFFFFFFFFFFFFFFFFFFFFFFFFFFFFFF AND PUSH1 0x80 SWAP1 PUSH20 0xFFFFFFFFFFFFFFFFFFFFFFFFFFFFFFFFFFFFFFFF AND DUP2 MSTORE POP CALLVALUE DUP1 ISZERO PUSH1 0x41 JUMPI PUSH0 DUP1 REVERT JUMPDEST POP PUSH1 0x80 MLOAD PUSH2 0x2C92 PUSH2 0x76 PUSH0 CODECOPY PUSH0 DUP2 DUP2 PUSH2 0x4EA ADD MSTORE DUP2 DUP2 PUSH2 0x578 ADD MSTORE DUP2 DUP2 PUSH2 0x7EE ADD MSTORE DUP2 DUP2 PUSH2 0x87C ADD MSTORE PUSH2 0x92B ADD MSTORE PUSH2 0x2C92 PUSH0 RETURN INVALID PUSH1 0x80 PUSH1 0x40 MSTORE PUSH1 0x4 CALLDATASIZE LT PUSH2 0xF2 JUMPI PUSH0 CALLDATALOAD PUSH1 0xE0 SHR DUP1 PUSH4 0x542E37CC GT PUSH2 0x89 JUMPI DUP1 PUSH4 0xB88A802F GT PUSH2 0x58 JUMPI DUP1 PUSH4 0xB88A802F EQ PUSH2 0x30C JUMPI DUP1 PUSH4 0xBB6CEB4F EQ PUSH2 0x322 JUMPI DUP1 PUSH4 0xD547741F EQ PUSH2 0x35E JUMPI DUP1 PUSH4 0xF396D899 EQ PUSH2 0x386 JUMPI PUSH2 0xF2 JUMP JUMPDEST DUP1 PUSH4 0x542E37CC EQ PUSH2 0x254 JUMPI DUP1 PUSH4 0x651F066A EQ PUSH2 0x27C JUMPI DUP1 PUSH4 0x91D14854 EQ PUSH2 0x2A6 JUMPI DUP1 PUSH4 0xA217FDDF EQ PUSH2 0x2E2 JUMPI PUSH2 0xF2 JUMP JUMPDEST DUP1 PUSH4 0x3659CFE6 GT PUSH2 0xC5 JUMPI DUP1 PUSH4 0x3659CFE6 EQ PUSH2 0x1BE JUMPI DUP1 PUSH4 0x485CC955 EQ PUSH2 0x1E6 JUMPI DUP1 PUSH4 0x4F1EF286 EQ PUSH2 0x20E JUMPI DUP1 PUSH4 0x52D1902D EQ PUSH2 0x22A JUMPI PUSH2 0xF2 JUMP JUMPDEST DUP1 PUSH4 0x1FFC9A7 EQ PUSH2 0xF6 JUMPI DUP1 PUSH4 0x248A9CA3 EQ PUSH2 0x132 JUMPI DUP1 PUSH4 0x2F2FF15D EQ PUSH2 0x16E JUMPI DUP1 PUSH4 0x36568ABE EQ PUSH2 0x196 JUMPI JUMPDEST PUSH0 DUP1 REVERT JUMPDEST CALLVALUE DUP1 ISZERO PUSH2 0x101 JUMPI PUSH0 DUP1 REVERT JUMPDEST POP PUSH2 0x11C PUSH1 0x4 DUP1 CALLDATASIZE SUB DUP2 ADD SWAP1 PUSH2 0x117 SWAP2 SWAP1 PUSH2 0x1C2F JUMP JUMPDEST PUSH2 0x3AE JUMP JUMPDEST PUSH1 0x40 MLOAD PUSH2 0x129 SWAP2 SWAP1 PUSH2 0x1C74 JUMP JUMPDEST PUSH1 0x40 MLOAD DUP1 SWAP2 SUB SWAP1 RETURN JUMPDEST CALLVALUE DUP1 ISZERO PUSH2 0x13D JUMPI PUSH0 DUP1 REVERT JUMPDEST POP PUSH2 0x158 PUSH1 0x4 DUP1 CALLDATASIZE SUB DUP2 ADD SWAP1 PUSH2 0x153 SWAP2 SWAP1 PUSH2 0x1CC0 JUMP JUMPDEST PUSH2 0x427 JUMP JUMPDEST PUSH1 0x40 MLOAD PUSH2 0x165 SWAP2 SWAP1 PUSH2 0x1CFA JUMP JUMPDEST PUSH1 0x40 MLOAD DUP1 SWAP2 SUB SWAP1 RETURN JUMPDEST CALLVALUE DUP1 ISZERO PUSH2 0x179 JUMPI PUSH0 DUP1 REVERT JUMPDEST POP PUSH2 0x194 PUSH1 0x4 DUP1 CALLDATASIZE SUB DUP2 ADD SWAP1 PUSH2 0x18F SWAP2 SWAP1 PUSH2 0x1D6D JUMP JUMPDEST PUSH2 0x444 JUMP JUMPDEST STOP JUMPDEST CALLVALUE DUP1 ISZERO PUSH2 0x1A1 JUMPI PUSH0 DUP1 REVERT JUMPDEST POP PUSH2 0x1BC PUSH1 0x4 DUP1 CALLDATASIZE SUB DUP2 ADD SWAP1 PUSH2 0x1B7 SWAP2 SWAP1 PUSH2 0x1D6D JUMP JUMPDEST PUSH2 0x465 JUMP JUMPDEST STOP JUMPDEST CALLVALUE DUP1 ISZERO PUSH2 0x1C9 JUMPI PUSH0 DUP1 REVERT JUMPDEST POP PUSH2 0x1E4 PUSH1 0x4 DUP1 CALLDATASIZE SUB DUP2 ADD SWAP1 PUSH2 0x1DF SWAP2 SWAP1 PUSH2 0x1DAB JUMP JUMPDEST PUSH2 0x4E8 JUMP JUMPDEST STOP JUMPDEST CALLVALUE DUP1 ISZERO PUSH2 0x1F1 JUMPI PUSH0 DUP1 REVERT JUMPDEST POP PUSH2 0x20C PUSH1 0x4 DUP1 CALLDATASIZE SUB DUP2 ADD SWAP1 PUSH2 0x207 SWAP2 SWAP1 PUSH2 0x1DD6 JUMP JUMPDEST PUSH2 0x66E JUMP JUMPDEST STOP JUMPDEST PUSH2 0x228 PUSH1 0x4 DUP1 CALLDATASIZE SUB DUP2 ADD SWAP1 PUSH2 0x223 SWAP2 SWAP1 PUSH2 0x1F50 JUMP JUMPDEST PUSH2 0x7EC JUMP JUMPDEST STOP JUMPDEST CALLVALUE DUP1 ISZERO PUSH2 0x235 JUMPI PUSH0 DUP1 REVERT JUMPDEST POP PUSH2 0x23E PUSH2 0x928 JUMP JUMPDEST PUSH1 0x40 MLOAD PUSH2 0x24B SWAP2 SWAP1 PUSH2 0x1CFA JUMP JUMPDEST PUSH1 0x40 MLOAD DUP1 SWAP2 SUB SWAP1 RETURN JUMPDEST CALLVALUE DUP1 ISZERO PUSH2 0x25F JUMPI PUSH0 DUP1 REVERT JUMPDEST POP PUSH2 0x27A PUSH1 0x4 DUP1 CALLDATASIZE SUB DUP2 ADD SWAP1 PUSH2 0x275 SWAP2 SWAP1 PUSH2 0x206E JUMP JUMPDEST PUSH2 0x9DF JUMP JUMPDEST STOP JUMPDEST CALLVALUE DUP1 ISZERO PUSH2 0x287 JUMPI PUSH0 DUP1 REVERT JUMPDEST POP PUSH2 0x290 PUSH2 0xA2B JUMP JUMPDEST PUSH1 0x40 MLOAD PUSH2 0x29D SWAP2 SWAP1 PUSH2 0x20CD JUMP JUMPDEST PUSH1 0x40 MLOAD DUP1 SWAP2 SUB SWAP1 RETURN JUMPDEST CALLVALUE DUP1 ISZERO PUSH2 0x2B1 JUMPI PUSH0 DUP1 REVERT JUMPDEST POP PUSH2 0x2CC PUSH1 0x4 DUP1 CALLDATASIZE SUB DUP2 ADD SWAP1 PUSH2 0x2C7 SWAP2 SWAP1 PUSH2 0x1D6D JUMP JUMPDEST PUSH2 0xA6F JUMP JUMPDEST PUSH1 0x40 MLOAD PUSH2 0x2D9 SWAP2 SWAP1 PUSH2 0x1C74 JUMP JUMPDEST PUSH1 0x40 MLOAD DUP1 SWAP2 SUB SWAP1 RETURN JUMPDEST CALLVALUE DUP1 ISZERO PUSH2 0x2ED JUMPI PUSH0 DUP1 REVERT JUMPDEST POP PUSH2 0x2F6 PUSH2 0xAD3 JUMP JUMPDEST PUSH1 0x40 MLOAD PUSH2 0x303 SWAP2 SWAP1 PUSH2 0x1CFA JUMP JUMPDEST PUSH1 0x40 MLOAD DUP1 SWAP2 SUB SWAP1 RETURN JUMPDEST CALLVALUE DUP1 ISZERO PUSH2 0x317 JUMPI PUSH0 DUP1 REVERT JUMPDEST POP PUSH2 0x320 PUSH2 0xAD9 JUMP JUMPDEST STOP JUMPDEST CALLVALUE DUP1 ISZERO PUSH2 0x32D JUMPI PUSH0 DUP1 REVERT JUMPDEST POP PUSH2 0x348 PUSH1 0x4 DUP1 CALLDATASIZE SUB DUP2 ADD SWAP1 PUSH2 0x343 SWAP2 SWAP1 PUSH2 0x1DAB JUMP JUMPDEST PUSH2 0xDCC JUMP JUMPDEST PUSH1 0x40 MLOAD PUSH2 0x355 SWAP2 SWAP1 PUSH2 0x20CD JUMP JUMPDEST PUSH1 0x40 MLOAD DUP1 SWAP2 SUB SWAP1 RETURN JUMPDEST CALLVALUE DUP1 ISZERO PUSH2 0x369 JUMPI PUSH0 DUP1 REVERT JUMPDEST POP PUSH2 0x384 PUSH1 0x4 DUP1 CALLDATASIZE SUB DUP2 ADD SWAP1 PUSH2 0x37F SWAP2 SWAP1 PUSH2 0x1D6D JUMP JUMPDEST PUSH2 0xE1F JUMP JUMPDEST STOP JUMPDEST CALLVALUE DUP1 ISZERO PUSH2 0x391 JUMPI PUSH0 DUP1 REVERT JUMPDEST POP PUSH2 0x3AC PUSH1 0x4 DUP1 CALLDATASIZE SUB DUP2 ADD SWAP1 PUSH2 0x3A7 SWAP2 SWAP1 PUSH2 0x213F JUMP JUMPDEST PUSH2 0xE40 JUMP JUMPDEST STOP JUMPDEST PUSH0 PUSH32 0x7965DB0B00000000000000000000000000000000000000000000000000000000 PUSH28 0xFFFFFFFFFFFFFFFFFFFFFFFFFFFFFFFFFFFFFFFFFFFFFFFFFFFFFFFF NOT AND DUP3 PUSH28 0xFFFFFFFFFFFFFFFFFFFFFFFFFFFFFFFFFFFFFFFFFFFFFFFFFFFFFFFF NOT AND EQ DUP1 PUSH2 0x420 JUMPI POP PUSH2 0x41F DUP3 PUSH2 0xF04 JUMP JUMPDEST JUMPDEST SWAP1 POP SWAP2 SWAP1 POP JUMP JUMPDEST PUSH0 PUSH1 0xC9 PUSH0 DUP4 DUP2 MSTORE PUSH1 0x20 ADD SWAP1 DUP2 MSTORE PUSH1 0x20 ADD PUSH0 KECCAK256 PUSH1 0x1 ADD SLOAD SWAP1 POP SWAP2 SWAP1 POP JUMP JUMPDEST PUSH2 0x44D DUP3 PUSH2 0x427 JUMP JUMPDEST PUSH2 0x456 DUP2 PUSH2 0xF6D JUMP JUMPDEST PUSH2 0x460 DUP4 DUP4 PUSH2 0xF81 JUMP JUMPDEST POP POP POP JUMP JUMPDEST PUSH2 0x46D PUSH2 0x105C JUMP JUMPDEST PUSH20 0xFFFFFFFFFFFFFFFFFFFFFFFFFFFFFFFFFFFFFFFF AND DUP2 PUSH20 0xFFFFFFFFFFFFFFFFFFFFFFFFFFFFFFFFFFFFFFFF AND EQ PUSH2 0x4DA JUMPI PUSH1 0x40 MLOAD PUSH32 0x8C379A000000000000000000000000000000000000000000000000000000000 DUP2 MSTORE PUSH1 0x4 ADD PUSH2 0x4D1 SWAP1 PUSH2 0x220A JUMP JUMPDEST PUSH1 0x40 MLOAD DUP1 SWAP2 SUB SWAP1 REVERT JUMPDEST PUSH2 0x4E4 DUP3 DUP3 PUSH2 0x1063 JUMP JUMPDEST POP POP JUMP JUMPDEST PUSH32 0x0 PUSH20 0xFFFFFFFFFFFFFFFFFFFFFFFFFFFFFFFFFFFFFFFF AND ADDRESS PUSH20 0xFFFFFFFFFFFFFFFFFFFFFFFFFFFFFFFFFFFFFFFF AND SUB PUSH2 0x576 JUMPI PUSH1 0x40 MLOAD PUSH32 0x8C379A000000000000000000000000000000000000000000000000000000000 DUP2 MSTORE PUSH1 0x4 ADD PUSH2 0x56D SWAP1 PUSH2 0x2298 JUMP JUMPDEST PUSH1 0x40 MLOAD DUP1 SWAP2 SUB SWAP1 REVERT JUMPDEST PUSH32 0x0 PUSH20 0xFFFFFFFFFFFFFFFFFFFFFFFFFFFFFFFFFFFFFFFF AND PUSH2 0x5B5 PUSH2 0x113E JUMP JUMPDEST PUSH20 0xFFFFFFFFFFFFFFFFFFFFFFFFFFFFFFFFFFFFFFFF AND EQ PUSH2 0x60B JUMPI PUSH1 0x40 MLOAD PUSH32 0x8C379A000000000000000000000000000000000000000000000000000000000 DUP2 MSTORE PUSH1 0x4 ADD PUSH2 0x602 SWAP1 PUSH2 0x2326 JUMP JUMPDEST PUSH1 0x40 MLOAD DUP1 SWAP2 SUB SWAP1 REVERT JUMPDEST PUSH2 0x614 DUP2 PUSH2 0x1191 JUMP JUMPDEST PUSH2 0x66B DUP2 PUSH0 PUSH8 0xFFFFFFFFFFFFFFFF DUP2 GT ISZERO PUSH2 0x632 JUMPI PUSH2 0x631 PUSH2 0x1E2C JUMP JUMPDEST JUMPDEST PUSH1 0x40 MLOAD SWAP1 DUP1 DUP3 MSTORE DUP1 PUSH1 0x1F ADD PUSH1 0x1F NOT AND PUSH1 0x20 ADD DUP3 ADD PUSH1 0x40 MSTORE DUP1 ISZERO PUSH2 0x664 JUMPI DUP2 PUSH1 0x20 ADD PUSH1 0x1 DUP3 MUL DUP1 CALLDATASIZE DUP4 CALLDATACOPY DUP1 DUP3 ADD SWAP2 POP POP SWAP1 POP JUMPDEST POP PUSH0 PUSH2 0x11A1 JUMP JUMPDEST POP JUMP JUMPDEST PUSH0 DUP1 PUSH1 0x1 SWAP1 SLOAD SWAP1 PUSH2 0x100 EXP SWAP1 DIV PUSH1 0xFF AND ISZERO SWAP1 POP DUP1 DUP1 ISZERO PUSH2 0x69D JUMPI POP PUSH1 0x1 PUSH0 DUP1 SLOAD SWAP1 PUSH2 0x100 EXP SWAP1 DIV PUSH1 0xFF AND PUSH1 0xFF AND LT JUMPDEST DUP1 PUSH2 0x6C9 JUMPI POP PUSH2 0x6AC ADDRESS PUSH2 0x130B JUMP JUMPDEST ISZERO DUP1 ISZERO PUSH2 0x6C8 JUMPI POP PUSH1 0x1 PUSH0 DUP1 SLOAD SWAP1 PUSH2 0x100 EXP SWAP1 DIV PUSH1 0xFF AND PUSH1 0xFF AND EQ JUMPDEST JUMPDEST PUSH2 0x708 JUMPI PUSH1 0x40 MLOAD PUSH32 0x8C379A000000000000000000000000000000000000000000000000000000000 DUP2 MSTORE PUSH1 0x4 ADD PUSH2 0x6FF SWAP1 PUSH2 0x23B4 JUMP JUMPDEST PUSH1 0x40 MLOAD DUP1 SWAP2 SUB SWAP1 REVERT JUMPDEST PUSH1 0x1 PUSH0 DUP1 PUSH2 0x100 EXP DUP2 SLOAD DUP2 PUSH1 0xFF MUL NOT AND SWAP1 DUP4 PUSH1 0xFF AND MUL OR SWAP1 SSTORE POP DUP1 ISZERO PUSH2 0x743 JUMPI PUSH1 0x1 PUSH0 PUSH1 0x1 PUSH2 0x100 EXP DUP2 SLOAD DUP2 PUSH1 0xFF MUL NOT AND SWAP1 DUP4 ISZERO ISZERO MUL OR SWAP1 SSTORE POP JUMPDEST DUP3 PUSH1 0xFB PUSH0 PUSH2 0x100 EXP DUP2 SLOAD DUP2 PUSH20 0xFFFFFFFFFFFFFFFFFFFFFFFFFFFFFFFFFFFFFFFF MUL NOT AND SWAP1 DUP4 PUSH20 0xFFFFFFFFFFFFFFFFFFFFFFFFFFFFFFFFFFFFFFFF AND MUL OR SWAP1 SSTORE POP PUSH2 0x78F PUSH0 DUP1 SHL DUP4 PUSH2 0x132D JUMP JUMPDEST DUP1 ISZERO PUSH2 0x7E7 JUMPI PUSH0 DUP1 PUSH1 0x1 PUSH2 0x100 EXP DUP2 SLOAD DUP2 PUSH1 0xFF MUL NOT AND SWAP1 DUP4 ISZERO ISZERO MUL OR SWAP1 SSTORE POP PUSH32 0x7F26B83FF96E1F2B6A682F133852F6798A09C465DA95921460CEFB3847402498 PUSH1 0x1 PUSH1 0x40 MLOAD PUSH2 0x7DE SWAP2 SWAP1 PUSH2 0x2420 JUMP JUMPDEST PUSH1 0x40 MLOAD DUP1 SWAP2 SUB SWAP1 LOG1 JUMPDEST POP POP POP JUMP JUMPDEST PUSH32 0x0 PUSH20 0xFFFFFFFFFFFFFFFFFFFFFFFFFFFFFFFFFFFFFFFF AND ADDRESS PUSH20 0xFFFFFFFFFFFFFFFFFFFFFFFFFFFFFFFFFFFFFFFF AND SUB PUSH2 0x87A JUMPI PUSH1 0x40 MLOAD PUSH32 0x8C379A000000000000000000000000000000000000000000000000000000000 DUP2 MSTORE PUSH1 0x4 ADD PUSH2 0x871 SWAP1 PUSH2 0x2298 JUMP JUMPDEST PUSH1 0x40 MLOAD DUP1 SWAP2 SUB SWAP1 REVERT JUMPDEST PUSH32 0x0 PUSH20 0xFFFFFFFFFFFFFFFFFFFFFFFFFFFFFFFFFFFFFFFF AND PUSH2 0x8B9 PUSH2 0x113E JUMP JUMPDEST PUSH20 0xFFFFFFFFFFFFFFFFFFFFFFFFFFFFFFFFFFFFFFFF AND EQ PUSH2 0x90F JUMPI PUSH1 0x40 MLOAD PUSH32 0x8C379A000000000000000000000000000000000000000000000000000000000 DUP2 MSTORE PUSH1 0x4 ADD PUSH2 0x906 SWAP1 PUSH2 0x2326 JUMP JUMPDEST PUSH1 0x40 MLOAD DUP1 SWAP2 SUB SWAP1 REVERT JUMPDEST PUSH2 0x918 DUP3 PUSH2 0x1191 JUMP JUMPDEST PUSH2 0x924 DUP3 DUP3 PUSH1 0x1 PUSH2 0x11A1 JUMP JUMPDEST POP POP JUMP JUMPDEST PUSH0 PUSH32 0x0 PUSH20 0xFFFFFFFFFFFFFFFFFFFFFFFFFFFFFFFFFFFFFFFF AND ADDRESS PUSH20 0xFFFFFFFFFFFFFFFFFFFFFFFFFFFFFFFFFFFFFFFF AND EQ PUSH2 0x9B7 JUMPI PUSH1 0x40 MLOAD PUSH32 0x8C379A000000000000000000000000000000000000000000000000000000000 DUP2 MSTORE PUSH1 0x4 ADD PUSH2 0x9AE SWAP1 PUSH2 0x24A9 JUMP JUMPDEST PUSH1 0x40 MLOAD DUP1 SWAP2 SUB SWAP1 REVERT JUMPDEST PUSH32 0x360894A13BA1A3210667C828492DB98DCA3E2076CC3735A920A3CA505D382BBC PUSH0 SHL SWAP1 POP SWAP1 JUMP JUMPDEST PUSH0 DUP1 SHL PUSH2 0x9EB DUP2 PUSH2 0xF6D JUMP JUMPDEST PUSH0 JUMPDEST DUP3 MLOAD DUP2 LT ISZERO PUSH2 0xA26 JUMPI PUSH2 0xA19 DUP4 DUP3 DUP2 MLOAD DUP2 LT PUSH2 0xA0C JUMPI PUSH2 0xA0B PUSH2 0x24C7 JUMP JUMPDEST JUMPDEST PUSH1 0x20 MUL PUSH1 0x20 ADD ADD MLOAD PUSH2 0x133B JUMP JUMPDEST DUP1 DUP1 PUSH1 0x1 ADD SWAP2 POP POP PUSH2 0x9ED JUMP JUMPDEST POP POP POP JUMP JUMPDEST PUSH0 PUSH1 0xFC PUSH0 CALLER PUSH20 0xFFFFFFFFFFFFFFFFFFFFFFFFFFFFFFFFFFFFFFFF AND PUSH20 0xFFFFFFFFFFFFFFFFFFFFFFFFFFFFFFFFFFFFFFFF AND DUP2 MSTORE PUSH1 0x20 ADD SWAP1 DUP2 MSTORE PUSH1 0x20 ADD PUSH0 KECCAK256 SLOAD SWAP1 POP SWAP1 JUMP JUMPDEST PUSH0 PUSH1 0xC9 PUSH0 DUP5 DUP2 MSTORE PUSH1 0x20 ADD SWAP1 DUP2 MSTORE PUSH1 0x20 ADD PUSH0 KECCAK256 PUSH0 ADD PUSH0 DUP4 PUSH20 0xFFFFFFFFFFFFFFFFFFFFFFFFFFFFFFFFFFFFFFFF AND PUSH20 0xFFFFFFFFFFFFFFFFFFFFFFFFFFFFFFFFFFFFFFFF AND DUP2 MSTORE PUSH1 0x20 ADD SWAP1 DUP2 MSTORE PUSH1 0x20 ADD PUSH0 KECCAK256 PUSH0 SWAP1 SLOAD SWAP1 PUSH2 0x100 EXP SWAP1 DIV PUSH1 0xFF AND SWAP1 POP SWAP3 SWAP2 POP POP JUMP JUMPDEST PUSH0 DUP1 SHL DUP2 JUMP JUMPDEST PUSH0 PUSH1 0xFC PUSH0 CALLER PUSH20 0xFFFFFFFFFFFFFFFFFFFFFFFFFFFFFFFFFFFFFFFF AND PUSH20 0xFFFFFFFFFFFFFFFFFFFFFFFFFFFFFFFFFFFFFFFF AND DUP2 MSTORE PUSH1 0x20 ADD SWAP1 DUP2 MSTORE PUSH1 0x20 ADD PUSH0 KECCAK256 SLOAD GT PUSH2 0xB58 JUMPI PUSH1 0x40 MLOAD PUSH32 0x8C379A000000000000000000000000000000000000000000000000000000000 DUP2 MSTORE PUSH1 0x4 ADD PUSH2 0xB4F SWAP1 PUSH2 0x253E JUMP JUMPDEST PUSH1 0x40 MLOAD DUP1 SWAP2 SUB SWAP1 REVERT JUMPDEST PUSH1 0xFB PUSH0 SWAP1 SLOAD SWAP1 PUSH2 0x100 EXP SWAP1 DIV PUSH20 0xFFFFFFFFFFFFFFFFFFFFFFFFFFFFFFFFFFFFFFFF AND PUSH20 0xFFFFFFFFFFFFFFFFFFFFFFFFFFFFFFFFFFFFFFFF AND PUSH4 0x70A08231 ADDRESS PUSH1 0x40 MLOAD DUP3 PUSH4 0xFFFFFFFF AND PUSH1 0xE0 SHL DUP2 MSTORE PUSH1 0x4 ADD PUSH2 0xBB2 SWAP2 SWAP1 PUSH2 0x256B JUMP JUMPDEST PUSH1 0x20 PUSH1 0x40 MLOAD DUP1 DUP4 SUB DUP2 DUP7 GAS STATICCALL ISZERO DUP1 ISZERO PUSH2 0xBCD JUMPI RETURNDATASIZE PUSH0 DUP1 RETURNDATACOPY RETURNDATASIZE PUSH0 REVERT JUMPDEST POP POP POP POP PUSH1 0x40 MLOAD RETURNDATASIZE PUSH1 0x1F NOT PUSH1 0x1F DUP3 ADD AND DUP3 ADD DUP1 PUSH1 0x40 MSTORE POP DUP2 ADD SWAP1 PUSH2 0xBF1 SWAP2 SWAP1 PUSH2 0x25AE JUMP JUMPDEST PUSH1 0xFC PUSH0 CALLER PUSH20 0xFFFFFFFFFFFFFFFFFFFFFFFFFFFFFFFFFFFFFFFF AND PUSH20 0xFFFFFFFFFFFFFFFFFFFFFFFFFFFFFFFFFFFFFFFF AND DUP2 MSTORE PUSH1 0x20 ADD SWAP1 DUP2 MSTORE PUSH1 0x20 ADD PUSH0 KECCAK256 SLOAD GT ISZERO PUSH2 0xC70 JUMPI PUSH1 0x40 MLOAD PUSH32 0x8C379A000000000000000000000000000000000000000000000000000000000 DUP2 MSTORE PUSH1 0x4 ADD PUSH2 0xC67 SWAP1 PUSH2 0x2649 JUMP JUMPDEST PUSH1 0x40 MLOAD DUP1 SWAP2 SUB SWAP1 REVERT JUMPDEST PUSH0 PUSH1 0xFC PUSH0 CALLER PUSH20 0xFFFFFFFFFFFFFFFFFFFFFFFFFFFFFFFFFFFFFFFF AND PUSH20 0xFFFFFFFFFFFFFFFFFFFFFFFFFFFFFFFFFFFFFFFF AND DUP2 MSTORE PUSH1 0x20 ADD SWAP1 DUP2 MSTORE PUSH1 0x20 ADD PUSH0 KECCAK256 SLOAD SWAP1 POP PUSH0 PUSH1 0xFC PUSH0 CALLER PUSH20 0xFFFFFFFFFFFFFFFFFFFFFFFFFFFFFFFFFFFFFFFF AND PUSH20 0xFFFFFFFFFFFFFFFFFFFFFFFFFFFFFFFFFFFFFFFF AND DUP2 MSTORE PUSH1 0x20 ADD SWAP1 DUP2 MSTORE PUSH1 0x20 ADD PUSH0 KECCAK256 DUP2 SWAP1 SSTORE POP PUSH1 0xFB PUSH0 SWAP1 SLOAD SWAP1 PUSH2 0x100 EXP SWAP1 DIV PUSH20 0xFFFFFFFFFFFFFFFFFFFFFFFFFFFFFFFFFFFFFFFF AND PUSH20 0xFFFFFFFFFFFFFFFFFFFFFFFFFFFFFFFFFFFFFFFF AND PUSH4 0xA9059CBB CALLER DUP4 PUSH1 0x40 MLOAD DUP4 PUSH4 0xFFFFFFFF AND PUSH1 0xE0 SHL DUP2 MSTORE PUSH1 0x4 ADD PUSH2 0xD4F SWAP3 SWAP2 SWAP1 PUSH2 0x2667 JUMP JUMPDEST PUSH1 0x20 PUSH1 0x40 MLOAD DUP1 DUP4 SUB DUP2 PUSH0 DUP8 GAS CALL ISZERO DUP1 ISZERO PUSH2 0xD6B JUMPI RETURNDATASIZE PUSH0 DUP1 RETURNDATACOPY RETURNDATASIZE PUSH0 REVERT JUMPDEST POP POP POP POP PUSH1 0x40 MLOAD RETURNDATASIZE PUSH1 0x1F NOT PUSH1 0x1F DUP3 ADD AND DUP3 ADD DUP1 PUSH1 0x40 MSTORE POP DUP2 ADD SWAP1 PUSH2 0xD8F SWAP2 SWAP1 PUSH2 0x26B8 JUMP JUMPDEST POP PUSH32 0xBA8DE60C3403EC381D1D484652EA1980E3C3E56359195C92525BFF4CE47AD98E CALLER DUP3 PUSH1 0x40 MLOAD PUSH2 0xDC1 SWAP3 SWAP2 SWAP1 PUSH2 0x2667 JUMP JUMPDEST PUSH1 0x40 MLOAD DUP1 SWAP2 SUB SWAP1 LOG1 POP JUMP JUMPDEST PUSH0 DUP1 PUSH0 SHL PUSH2 0xDD9 DUP2 PUSH2 0xF6D JUMP JUMPDEST PUSH1 0xFC PUSH0 DUP5 PUSH20 0xFFFFFFFFFFFFFFFFFFFFFFFFFFFFFFFFFFFFFFFF AND PUSH20 0xFFFFFFFFFFFFFFFFFFFFFFFFFFFFFFFFFFFFFFFF AND DUP2 MSTORE PUSH1 0x20 ADD SWAP1 DUP2 MSTORE PUSH1 0x20 ADD PUSH0 KECCAK256 SLOAD SWAP2 POP POP SWAP2 SWAP1 POP JUMP JUMPDEST PUSH2 0xE28 DUP3 PUSH2 0x427 JUMP JUMPDEST PUSH2 0xE31 DUP2 PUSH2 0xF6D JUMP JUMPDEST PUSH2 0xE3B DUP4 DUP4 PUSH2 0x1063 JUMP JUMPDEST POP POP POP JUMP JUMPDEST PUSH0 DUP1 SHL PUSH2 0xE4C DUP2 PUSH2 0xF6D JUMP JUMPDEST PUSH0 JUMPDEST DUP4 DUP4 SWAP1 POP DUP2 LT ISZERO PUSH2 0xEFE JUMPI DUP4 DUP4 DUP3 DUP2 DUP2 LT PUSH2 0xE6C JUMPI PUSH2 0xE6B PUSH2 0x24C7 JUMP JUMPDEST JUMPDEST SWAP1 POP PUSH1 0x40 MUL ADD PUSH1 0x20 ADD CALLDATALOAD PUSH1 0xFC PUSH0 DUP7 DUP7 DUP6 DUP2 DUP2 LT PUSH2 0xE8C JUMPI PUSH2 0xE8B PUSH2 0x24C7 JUMP JUMPDEST JUMPDEST SWAP1 POP PUSH1 0x40 MUL ADD PUSH0 ADD PUSH1 0x20 DUP2 ADD SWAP1 PUSH2 0xEA3 SWAP2 SWAP1 PUSH2 0x1DAB JUMP JUMPDEST PUSH20 0xFFFFFFFFFFFFFFFFFFFFFFFFFFFFFFFFFFFFFFFF AND PUSH20 0xFFFFFFFFFFFFFFFFFFFFFFFFFFFFFFFFFFFFFFFF AND DUP2 MSTORE PUSH1 0x20 ADD SWAP1 DUP2 MSTORE PUSH1 0x20 ADD PUSH0 KECCAK256 PUSH0 DUP3 DUP3 SLOAD PUSH2 0xEEA SWAP2 SWAP1 PUSH2 0x2710 JUMP JUMPDEST SWAP3 POP POP DUP2 SWAP1 SSTORE POP DUP1 DUP1 PUSH1 0x1 ADD SWAP2 POP POP PUSH2 0xE4E JUMP JUMPDEST POP POP POP POP JUMP JUMPDEST PUSH0 PUSH32 0x1FFC9A700000000000000000000000000000000000000000000000000000000 PUSH28 0xFFFFFFFFFFFFFFFFFFFFFFFFFFFFFFFFFFFFFFFFFFFFFFFFFFFFFFFF NOT AND DUP3 PUSH28 0xFFFFFFFFFFFFFFFFFFFFFFFFFFFFFFFFFFFFFFFFFFFFFFFFFFFFFFFF NOT AND EQ SWAP1 POP SWAP2 SWAP1 POP JUMP JUMPDEST PUSH2 0xF7E DUP2 PUSH2 0xF79 PUSH2 0x105C JUMP JUMPDEST PUSH2 0x162F JUMP JUMPDEST POP JUMP JUMPDEST PUSH2 0xF8B DUP3 DUP3 PUSH2 0xA6F JUMP JUMPDEST PUSH2 0x1058 JUMPI PUSH1 0x1 PUSH1 0xC9 PUSH0 DUP5 DUP2 MSTORE PUSH1 0x20 ADD SWAP1 DUP2 MSTORE PUSH1 0x20 ADD PUSH0 KECCAK256 PUSH0 ADD PUSH0 DUP4 PUSH20 0xFFFFFFFFFFFFFFFFFFFFFFFFFFFFFFFFFFFFFFFF AND PUSH20 0xFFFFFFFFFFFFFFFFFFFFFFFFFFFFFFFFFFFFFFFF AND DUP2 MSTORE PUSH1 0x20 ADD SWAP1 DUP2 MSTORE PUSH1 0x20 ADD PUSH0 KECCAK256 PUSH0 PUSH2 0x100 EXP DUP2 SLOAD DUP2 PUSH1 0xFF MUL NOT AND SWAP1 DUP4 ISZERO ISZERO MUL OR SWAP1 SSTORE POP PUSH2 0xFFD PUSH2 0x105C JUMP JUMPDEST PUSH20 0xFFFFFFFFFFFFFFFFFFFFFFFFFFFFFFFFFFFFFFFF AND DUP2 PUSH20 0xFFFFFFFFFFFFFFFFFFFFFFFFFFFFFFFFFFFFFFFF AND DUP4 PUSH32 0x2F8788117E7EFF1D82E926EC794901D17C78024A50270940304540A733656F0D PUSH1 0x40 MLOAD PUSH1 0x40 MLOAD DUP1 SWAP2 SUB SWAP1 LOG4 JUMPDEST POP POP JUMP JUMPDEST PUSH0 CALLER SWAP1 POP SWAP1 JUMP JUMPDEST PUSH2 0x106D DUP3 DUP3 PUSH2 0xA6F JUMP JUMPDEST ISZERO PUSH2 0x113A JUMPI PUSH0 PUSH1 0xC9 PUSH0 DUP5 DUP2 MSTORE PUSH1 0x20 ADD SWAP1 DUP2 MSTORE PUSH1 0x20 ADD PUSH0 KECCAK256 PUSH0 ADD PUSH0 DUP4 PUSH20 0xFFFFFFFFFFFFFFFFFFFFFFFFFFFFFFFFFFFFFFFF AND PUSH20 0xFFFFFFFFFFFFFFFFFFFFFFFFFFFFFFFFFFFFFFFF AND DUP2 MSTORE PUSH1 0x20 ADD SWAP1 DUP2 MSTORE PUSH1 0x20 ADD PUSH0 KECCAK256 PUSH0 PUSH2 0x100 EXP DUP2 SLOAD DUP2 PUSH1 0xFF MUL NOT AND SWAP1 DUP4 ISZERO ISZERO MUL OR SWAP1 SSTORE POP PUSH2 0x10DF PUSH2 0x105C JUMP JUMPDEST PUSH20 0xFFFFFFFFFFFFFFFFFFFFFFFFFFFFFFFFFFFFFFFF AND DUP2 PUSH20 0xFFFFFFFFFFFFFFFFFFFFFFFFFFFFFFFFFFFFFFFF AND DUP4 PUSH32 0xF6391F5C32D9C69D2A47EA670B442974B53935D1EDC7FD64EB21E047A839171B PUSH1 0x40 MLOAD PUSH1 0x40 MLOAD DUP1 SWAP2 SUB SWAP1 LOG4 JUMPDEST POP POP JUMP JUMPDEST PUSH0 PUSH2 0x116A PUSH32 0x360894A13BA1A3210667C828492DB98DCA3E2076CC3735A920A3CA505D382BBC PUSH0 SHL PUSH2 0x16B3 JUMP JUMPDEST PUSH0 ADD PUSH0 SWAP1 SLOAD SWAP1 PUSH2 0x100 EXP SWAP1 DIV PUSH20 0xFFFFFFFFFFFFFFFFFFFFFFFFFFFFFFFFFFFFFFFF AND SWAP1 POP SWAP1 JUMP JUMPDEST PUSH0 DUP1 SHL PUSH2 0x119D DUP2 PUSH2 0xF6D JUMP JUMPDEST POP POP JUMP JUMPDEST PUSH2 0x11CC PUSH32 0x4910FDFA16FED3260ED0E7147F7CC6DA11A60208B5B9406D12A635614FFD9143 PUSH0 SHL PUSH2 0x16BC JUMP JUMPDEST PUSH0 ADD PUSH0 SWAP1 SLOAD SWAP1 PUSH2 0x100 EXP SWAP1 DIV PUSH1 0xFF AND ISZERO PUSH2 0x11EE JUMPI PUSH2 0x11E9 DUP4 PUSH2 0x16C5 JUMP JUMPDEST PUSH2 0x1306 JUMP JUMPDEST DUP3 PUSH20 0xFFFFFFFFFFFFFFFFFFFFFFFFFFFFFFFFFFFFFFFF AND PUSH4 0x52D1902D PUSH1 0x40 MLOAD DUP2 PUSH4 0xFFFFFFFF AND PUSH1 0xE0 SHL DUP2 MSTORE PUSH1 0x4 ADD PUSH1 0x20 PUSH1 0x40 MLOAD DUP1 DUP4 SUB DUP2 DUP7 GAS STATICCALL SWAP3 POP POP POP DUP1 ISZERO PUSH2 0x1256 JUMPI POP PUSH1 0x40 MLOAD RETURNDATASIZE PUSH1 0x1F NOT PUSH1 0x1F DUP3 ADD AND DUP3 ADD DUP1 PUSH1 0x40 MSTORE POP DUP2 ADD SWAP1 PUSH2 0x1253 SWAP2 SWAP1 PUSH2 0x2757 JUMP JUMPDEST PUSH1 0x1 JUMPDEST PUSH2 0x1295 JUMPI PUSH1 0x40 MLOAD PUSH32 0x8C379A000000000000000000000000000000000000000000000000000000000 DUP2 MSTORE PUSH1 0x4 ADD PUSH2 0x128C SWAP1 PUSH2 0x27F2 JUMP JUMPDEST PUSH1 0x40 MLOAD DUP1 SWAP2 SUB SWAP1 REVERT JUMPDEST PUSH32 0x360894A13BA1A3210667C828492DB98DCA3E2076CC3735A920A3CA505D382BBC PUSH0 SHL DUP2 EQ PUSH2 0x12F9 JUMPI PUSH1 0x40 MLOAD PUSH32 0x8C379A000000000000000000000000000000000000000000000000000000000 DUP2 MSTORE PUSH1 0x4 ADD PUSH2 0x12F0 SWAP1 PUSH2 0x2880 JUMP JUMPDEST PUSH1 0x40 MLOAD DUP1 SWAP2 SUB SWAP1 REVERT JUMPDEST POP PUSH2 0x1305 DUP4 DUP4 DUP4 PUSH2 0x177B JUMP JUMPDEST JUMPDEST POP POP POP JUMP JUMPDEST PUSH0 DUP1 DUP3 PUSH20 0xFFFFFFFFFFFFFFFFFFFFFFFFFFFFFFFFFFFFFFFF AND EXTCODESIZE GT SWAP1 POP SWAP2 SWAP1 POP JUMP JUMPDEST PUSH2 0x1337 DUP3 DUP3 PUSH2 0xF81 JUMP JUMPDEST POP POP JUMP JUMPDEST PUSH0 PUSH1 0xFC PUSH0 DUP4 PUSH20 0xFFFFFFFFFFFFFFFFFFFFFFFFFFFFFFFFFFFFFFFF AND PUSH20 0xFFFFFFFFFFFFFFFFFFFFFFFFFFFFFFFFFFFFFFFF AND DUP2 MSTORE PUSH1 0x20 ADD SWAP1 DUP2 MSTORE PUSH1 0x20 ADD PUSH0 KECCAK256 SLOAD GT PUSH2 0x13BA JUMPI PUSH1 0x40 MLOAD PUSH32 0x8C379A000000000000000000000000000000000000000000000000000000000 DUP2 MSTORE PUSH1 0x4 ADD PUSH2 0x13B1 SWAP1 PUSH2 0x253E JUMP JUMPDEST PUSH1 0x40 MLOAD DUP1 SWAP2 SUB SWAP1 REVERT JUMPDEST PUSH1 0xFB PUSH0 SWAP1 SLOAD SWAP1 PUSH2 0x100 EXP SWAP1 DIV PUSH20 0xFFFFFFFFFFFFFFFFFFFFFFFFFFFFFFFFFFFFFFFF AND PUSH20 0xFFFFFFFFFFFFFFFFFFFFFFFFFFFFFFFFFFFFFFFF AND PUSH4 0x70A08231 ADDRESS PUSH1 0x40 MLOAD DUP3 PUSH4 0xFFFFFFFF AND PUSH1 0xE0 SHL DUP2 MSTORE PUSH1 0x4 ADD PUSH2 0x1414 SWAP2 SWAP1 PUSH2 0x256B JUMP JUMPDEST PUSH1 0x20 PUSH1 0x40 MLOAD DUP1 DUP4 SUB DUP2 DUP7 GAS STATICCALL ISZERO DUP1 ISZERO PUSH2 0x142F JUMPI RETURNDATASIZE PUSH0 DUP1 RETURNDATACOPY RETURNDATASIZE PUSH0 REVERT JUMPDEST POP POP POP POP PUSH1 0x40 MLOAD RETURNDATASIZE PUSH1 0x1F NOT PUSH1 0x1F DUP3 ADD AND DUP3 ADD DUP1 PUSH1 0x40 MSTORE POP DUP2 ADD SWAP1 PUSH2 0x1453 SWAP2 SWAP1 PUSH2 0x25AE JUMP JUMPDEST PUSH1 0xFC PUSH0 DUP4 PUSH20 0xFFFFFFFFFFFFFFFFFFFFFFFFFFFFFFFFFFFFFFFF AND PUSH20 0xFFFFFFFFFFFFFFFFFFFFFFFFFFFFFFFFFFFFFFFF AND DUP2 MSTORE PUSH1 0x20 ADD SWAP1 DUP2 MSTORE PUSH1 0x20 ADD PUSH0 KECCAK256 SLOAD GT ISZERO PUSH2 0x14D2 JUMPI PUSH1 0x40 MLOAD PUSH32 0x8C379A000000000000000000000000000000000000000000000000000000000 DUP2 MSTORE PUSH1 0x4 ADD PUSH2 0x14C9 SWAP1 PUSH2 0x2649 JUMP JUMPDEST PUSH1 0x40 MLOAD DUP1 SWAP2 SUB SWAP1 REVERT JUMPDEST PUSH0 PUSH1 0xFC PUSH0 DUP4 PUSH20 0xFFFFFFFFFFFFFFFFFFFFFFFFFFFFFFFFFFFFFFFF AND PUSH20 0xFFFFFFFFFFFFFFFFFFFFFFFFFFFFFFFFFFFFFFFF AND DUP2 MSTORE PUSH1 0x20 ADD SWAP1 DUP2 MSTORE PUSH1 0x20 ADD PUSH0 KECCAK256 SLOAD SWAP1 POP PUSH0 PUSH1 0xFC PUSH0 DUP5 PUSH20 0xFFFFFFFFFFFFFFFFFFFFFFFFFFFFFFFFFFFFFFFF AND PUSH20 0xFFFFFFFFFFFFFFFFFFFFFFFFFFFFFFFFFFFFFFFF AND DUP2 MSTORE PUSH1 0x20 ADD SWAP1 DUP2 MSTORE PUSH1 0x20 ADD PUSH0 KECCAK256 DUP2 SWAP1 SSTORE POP PUSH1 0xFB PUSH0 SWAP1 SLOAD SWAP1 PUSH2 0x100 EXP SWAP1 DIV PUSH20 0xFFFFFFFFFFFFFFFFFFFFFFFFFFFFFFFFFFFFFFFF AND PUSH20 0xFFFFFFFFFFFFFFFFFFFFFFFFFFFFFFFFFFFFFFFF AND PUSH4 0xA9059CBB DUP4 DUP4 PUSH1 0x40 MLOAD DUP4 PUSH4 0xFFFFFFFF AND PUSH1 0xE0 SHL DUP2 MSTORE PUSH1 0x4 ADD PUSH2 0x15B1 SWAP3 SWAP2 SWAP1 PUSH2 0x2667 JUMP JUMPDEST PUSH1 0x20 PUSH1 0x40 MLOAD DUP1 DUP4 SUB DUP2 PUSH0 DUP8 GAS CALL ISZERO DUP1 ISZERO PUSH2 0x15CD JUMPI RETURNDATASIZE PUSH0 DUP1 RETURNDATACOPY RETURNDATASIZE PUSH0 REVERT JUMPDEST POP POP POP POP PUSH1 0x40 MLOAD RETURNDATASIZE PUSH1 0x1F NOT PUSH1 0x1F DUP3 ADD AND DUP3 ADD DUP1 PUSH1 0x40 MSTORE POP DUP2 ADD SWAP1 PUSH2 0x15F1 SWAP2 SWAP1 PUSH2 0x26B8 JUMP JUMPDEST POP PUSH32 0xBA8DE60C3403EC381D1D484652EA1980E3C3E56359195C92525BFF4CE47AD98E DUP3 DUP3 PUSH1 0x40 MLOAD PUSH2 0x1623 SWAP3 SWAP2 SWAP1 PUSH2 0x2667 JUMP JUMPDEST PUSH1 0x40 MLOAD DUP1 SWAP2 SUB SWAP1 LOG1 POP POP JUMP JUMPDEST PUSH2 0x1639 DUP3 DUP3 PUSH2 0xA6F JUMP JUMPDEST PUSH2 0x16AF JUMPI PUSH2 0x1646 DUP2 PUSH2 0x17A6 JUMP JUMPDEST PUSH2 0x1653 DUP4 PUSH0 SHR PUSH1 0x20 PUSH2 0x17D3 JUMP JUMPDEST PUSH1 0x40 MLOAD PUSH1 0x20 ADD PUSH2 0x1664 SWAP3 SWAP2 SWAP1 PUSH2 0x2984 JUMP JUMPDEST PUSH1 0x40 MLOAD PUSH1 0x20 DUP2 DUP4 SUB SUB DUP2 MSTORE SWAP1 PUSH1 0x40 MSTORE PUSH1 0x40 MLOAD PUSH32 0x8C379A000000000000000000000000000000000000000000000000000000000 DUP2 MSTORE PUSH1 0x4 ADD PUSH2 0x16A6 SWAP2 SWAP1 PUSH2 0x29F5 JUMP JUMPDEST PUSH1 0x40 MLOAD DUP1 SWAP2 SUB SWAP1 REVERT JUMPDEST POP POP JUMP JUMPDEST PUSH0 DUP2 SWAP1 POP SWAP2 SWAP1 POP JUMP JUMPDEST PUSH0 DUP2 SWAP1 POP SWAP2 SWAP1 POP JUMP JUMPDEST PUSH2 0x16CE DUP2 PUSH2 0x130B JUMP JUMPDEST PUSH2 0x170D JUMPI PUSH1 0x40 MLOAD PUSH32 0x8C379A000000000000000000000000000000000000000000000000000000000 DUP2 MSTORE PUSH1 0x4 ADD PUSH2 0x1704 SWAP1 PUSH2 0x2A85 JUMP JUMPDEST PUSH1 0x40 MLOAD DUP1 SWAP2 SUB SWAP1 REVERT JUMPDEST DUP1 PUSH2 0x1739 PUSH32 0x360894A13BA1A3210667C828492DB98DCA3E2076CC3735A920A3CA505D382BBC PUSH0 SHL PUSH2 0x16B3 JUMP JUMPDEST PUSH0 ADD PUSH0 PUSH2 0x100 EXP DUP2 SLOAD DUP2 PUSH20 0xFFFFFFFFFFFFFFFFFFFFFFFFFFFFFFFFFFFFFFFF MUL NOT AND SWAP1 DUP4 PUSH20 0xFFFFFFFFFFFFFFFFFFFFFFFFFFFFFFFFFFFFFFFF AND MUL OR SWAP1 SSTORE POP POP JUMP JUMPDEST PUSH2 0x1784 DUP4 PUSH2 0x1A08 JUMP JUMPDEST PUSH0 DUP3 MLOAD GT DUP1 PUSH2 0x1790 JUMPI POP DUP1 JUMPDEST ISZERO PUSH2 0x17A1 JUMPI PUSH2 0x179F DUP4 DUP4 PUSH2 0x1A57 JUMP JUMPDEST POP JUMPDEST POP POP POP JUMP JUMPDEST PUSH1 0x60 PUSH2 0x17CC DUP3 PUSH20 0xFFFFFFFFFFFFFFFFFFFFFFFFFFFFFFFFFFFFFFFF AND PUSH1 0x14 PUSH1 0xFF AND PUSH2 0x17D3 JUMP JUMPDEST SWAP1 POP SWAP2 SWAP1 POP JUMP JUMPDEST PUSH1 0x60 PUSH0 PUSH1 0x2 DUP4 PUSH1 0x2 PUSH2 0x17E5 SWAP2 SWAP1 PUSH2 0x2AA3 JUMP JUMPDEST PUSH2 0x17EF SWAP2 SWAP1 PUSH2 0x2710 JUMP JUMPDEST PUSH8 0xFFFFFFFFFFFFFFFF DUP2 GT ISZERO PUSH2 0x1808 JUMPI PUSH2 0x1807 PUSH2 0x1E2C JUMP JUMPDEST JUMPDEST PUSH1 0x40 MLOAD SWAP1 DUP1 DUP3 MSTORE DUP1 PUSH1 0x1F ADD PUSH1 0x1F NOT AND PUSH1 0x20 ADD DUP3 ADD PUSH1 0x40 MSTORE DUP1 ISZERO PUSH2 0x183A JUMPI DUP2 PUSH1 0x20 ADD PUSH1 0x1 DUP3 MUL DUP1 CALLDATASIZE DUP4 CALLDATACOPY DUP1 DUP3 ADD SWAP2 POP POP SWAP1 POP JUMPDEST POP SWAP1 POP PUSH32 0x3000000000000000000000000000000000000000000000000000000000000000 DUP2 PUSH0 DUP2 MLOAD DUP2 LT PUSH2 0x1871 JUMPI PUSH2 0x1870 PUSH2 0x24C7 JUMP JUMPDEST JUMPDEST PUSH1 0x20 ADD ADD SWAP1 PUSH31 0xFFFFFFFFFFFFFFFFFFFFFFFFFFFFFFFFFFFFFFFFFFFFFFFFFFFFFFFFFFFFFF NOT AND SWAP1 DUP2 PUSH0 BYTE SWAP1 MSTORE8 POP PUSH32 0x7800000000000000000000000000000000000000000000000000000000000000 DUP2 PUSH1 0x1 DUP2 MLOAD DUP2 LT PUSH2 0x18D4 JUMPI PUSH2 0x18D3 PUSH2 0x24C7 JUMP JUMPDEST JUMPDEST PUSH1 0x20 ADD ADD SWAP1 PUSH31 0xFFFFFFFFFFFFFFFFFFFFFFFFFFFFFFFFFFFFFFFFFFFFFFFFFFFFFFFFFFFFFF NOT AND SWAP1 DUP2 PUSH0 BYTE SWAP1 MSTORE8 POP PUSH0 PUSH1 0x1 DUP5 PUSH1 0x2 PUSH2 0x1912 SWAP2 SWAP1 PUSH2 0x2AA3 JUMP JUMPDEST PUSH2 0x191C SWAP2 SWAP1 PUSH2 0x2710 JUMP JUMPDEST SWAP1 POP JUMPDEST PUSH1 0x1 DUP2 GT ISZERO PUSH2 0x19BB JUMPI PUSH32 0x3031323334353637383961626364656600000000000000000000000000000000 PUSH1 0xF DUP7 AND PUSH1 0x10 DUP2 LT PUSH2 0x195E JUMPI PUSH2 0x195D PUSH2 0x24C7 JUMP JUMPDEST JUMPDEST BYTE PUSH1 0xF8 SHL DUP3 DUP3 DUP2 MLOAD DUP2 LT PUSH2 0x1975 JUMPI PUSH2 0x1974 PUSH2 0x24C7 JUMP JUMPDEST JUMPDEST PUSH1 0x20 ADD ADD SWAP1 PUSH31 0xFFFFFFFFFFFFFFFFFFFFFFFFFFFFFFFFFFFFFFFFFFFFFFFFFFFFFFFFFFFFFF NOT AND SWAP1 DUP2 PUSH0 BYTE SWAP1 MSTORE8 POP PUSH1 0x4 DUP6 SWAP1 SHR SWAP5 POP DUP1 PUSH2 0x19B4 SWAP1 PUSH2 0x2AE4 JUMP JUMPDEST SWAP1 POP PUSH2 0x191F JUMP JUMPDEST POP PUSH0 DUP5 EQ PUSH2 0x19FE JUMPI PUSH1 0x40 MLOAD PUSH32 0x8C379A000000000000000000000000000000000000000000000000000000000 DUP2 MSTORE PUSH1 0x4 ADD PUSH2 0x19F5 SWAP1 PUSH2 0x2B55 JUMP JUMPDEST PUSH1 0x40 MLOAD DUP1 SWAP2 SUB SWAP1 REVERT JUMPDEST DUP1 SWAP2 POP POP SWAP3 SWAP2 POP POP JUMP JUMPDEST PUSH2 0x1A11 DUP2 PUSH2 0x16C5 JUMP JUMPDEST DUP1 PUSH20 0xFFFFFFFFFFFFFFFFFFFFFFFFFFFFFFFFFFFFFFFF AND PUSH32 0xBC7CD75A20EE27FD9ADEBAB32041F755214DBC6BFFA90CC0225B39DA2E5C2D3B PUSH1 0x40 MLOAD PUSH1 0x40 MLOAD DUP1 SWAP2 SUB SWAP1 LOG2 POP JUMP JUMPDEST PUSH1 0x60 PUSH2 0x1A7C DUP4 DUP4 PUSH1 0x40 MLOAD DUP1 PUSH1 0x60 ADD PUSH1 0x40 MSTORE DUP1 PUSH1 0x27 DUP2 MSTORE PUSH1 0x20 ADD PUSH2 0x2C36 PUSH1 0x27 SWAP2 CODECOPY PUSH2 0x1A84 JUMP JUMPDEST SWAP1 POP SWAP3 SWAP2 POP POP JUMP JUMPDEST PUSH1 0x60 PUSH0 DUP1 DUP6 PUSH20 0xFFFFFFFFFFFFFFFFFFFFFFFFFFFFFFFFFFFFFFFF AND DUP6 PUSH1 0x40 MLOAD PUSH2 0x1AAD SWAP2 SWAP1 PUSH2 0x2BB7 JUMP JUMPDEST PUSH0 PUSH1 0x40 MLOAD DUP1 DUP4 SUB DUP2 DUP6 GAS DELEGATECALL SWAP2 POP POP RETURNDATASIZE DUP1 PUSH0 DUP2 EQ PUSH2 0x1AE5 JUMPI PUSH1 0x40 MLOAD SWAP2 POP PUSH1 0x1F NOT PUSH1 0x3F RETURNDATASIZE ADD AND DUP3 ADD PUSH1 0x40 MSTORE RETURNDATASIZE DUP3 MSTORE RETURNDATASIZE PUSH0 PUSH1 0x20 DUP5 ADD RETURNDATACOPY PUSH2 0x1AEA JUMP JUMPDEST PUSH1 0x60 SWAP2 POP JUMPDEST POP SWAP2 POP SWAP2 POP PUSH2 0x1AFB DUP7 DUP4 DUP4 DUP8 PUSH2 0x1B06 JUMP JUMPDEST SWAP3 POP POP POP SWAP4 SWAP3 POP POP POP JUMP JUMPDEST PUSH1 0x60 DUP4 ISZERO PUSH2 0x1B67 JUMPI PUSH0 DUP4 MLOAD SUB PUSH2 0x1B5F JUMPI PUSH2 0x1B1F DUP6 PUSH2 0x130B JUMP JUMPDEST PUSH2 0x1B5E JUMPI PUSH1 0x40 MLOAD PUSH32 0x8C379A000000000000000000000000000000000000000000000000000000000 DUP2 MSTORE PUSH1 0x4 ADD PUSH2 0x1B55 SWAP1 PUSH2 0x2C17 JUMP JUMPDEST PUSH1 0x40 MLOAD DUP1 SWAP2 SUB SWAP1 REVERT JUMPDEST JUMPDEST DUP3 SWAP1 POP PUSH2 0x1B72 JUMP JUMPDEST PUSH2 0x1B71 DUP4 DUP4 PUSH2 0x1B7A JUMP JUMPDEST JUMPDEST SWAP5 SWAP4 POP POP POP POP JUMP JUMPDEST PUSH0 DUP3 MLOAD GT ISZERO PUSH2 0x1B8C JUMPI DUP2 MLOAD DUP1 DUP4 PUSH1 0x20 ADD REVERT JUMPDEST DUP1 PUSH1 0x40 MLOAD PUSH32 0x8C379A000000000000000000000000000000000000000000000000000000000 DUP2 MSTORE PUSH1 0x4 ADD PUSH2 0x1BC0 SWAP2 SWAP1 PUSH2 0x29F5 JUMP JUMPDEST PUSH1 0x40 MLOAD DUP1 SWAP2 SUB SWAP1 REVERT JUMPDEST PUSH0 PUSH1 0x40 MLOAD SWAP1 POP SWAP1 JUMP JUMPDEST PUSH0 DUP1 REVERT JUMPDEST PUSH0 DUP1 REVERT JUMPDEST PUSH0 PUSH32 0xFFFFFFFF00000000000000000000000000000000000000000000000000000000 DUP3 AND SWAP1 POP SWAP2 SWAP1 POP JUMP JUMPDEST PUSH2 0x1C0E DUP2 PUSH2 0x1BDA JUMP JUMPDEST DUP2 EQ PUSH2 0x1C18 JUMPI PUSH0 DUP1 REVERT JUMPDEST POP JUMP JUMPDEST PUSH0 DUP2 CALLDATALOAD SWAP1 POP PUSH2 0x1C29 DUP2 PUSH2 0x1C05 JUMP JUMPDEST SWAP3 SWAP2 POP POP JUMP JUMPDEST PUSH0 PUSH1 0x20 DUP3 DUP5 SUB SLT ISZERO PUSH2 0x1C44 JUMPI PUSH2 0x1C43 PUSH2 0x1BD2 JUMP JUMPDEST JUMPDEST PUSH0 PUSH2 0x1C51 DUP5 DUP3 DUP6 ADD PUSH2 0x1C1B JUMP JUMPDEST SWAP2 POP POP SWAP3 SWAP2 POP POP JUMP JUMPDEST PUSH0 DUP2 ISZERO ISZERO SWAP1 POP SWAP2 SWAP1 POP JUMP JUMPDEST PUSH2 0x1C6E DUP2 PUSH2 0x1C5A JUMP JUMPDEST DUP3 MSTORE POP POP JUMP JUMPDEST PUSH0 PUSH1 0x20 DUP3 ADD SWAP1 POP PUSH2 0x1C87 PUSH0 DUP4 ADD DUP5 PUSH2 0x1C65 JUMP JUMPDEST SWAP3 SWAP2 POP POP JUMP JUMPDEST PUSH0 DUP2 SWAP1 POP SWAP2 SWAP1 POP JUMP JUMPDEST PUSH2 0x1C9F DUP2 PUSH2 0x1C8D JUMP JUMPDEST DUP2 EQ PUSH2 0x1CA9 JUMPI PUSH0 DUP1 REVERT JUMPDEST POP JUMP JUMPDEST PUSH0 DUP2 CALLDATALOAD SWAP1 POP PUSH2 0x1CBA DUP2 PUSH2 0x1C96 JUMP JUMPDEST SWAP3 SWAP2 POP POP JUMP JUMPDEST PUSH0 PUSH1 0x20 DUP3 DUP5 SUB SLT ISZERO PUSH2 0x1CD5 JUMPI PUSH2 0x1CD4 PUSH2 0x1BD2 JUMP JUMPDEST JUMPDEST PUSH0 PUSH2 0x1CE2 DUP5 DUP3 DUP6 ADD PUSH2 0x1CAC JUMP JUMPDEST SWAP2 POP POP SWAP3 SWAP2 POP POP JUMP JUMPDEST PUSH2 0x1CF4 DUP2 PUSH2 0x1C8D JUMP JUMPDEST DUP3 MSTORE POP POP JUMP JUMPDEST PUSH0 PUSH1 0x20 DUP3 ADD SWAP1 POP PUSH2 0x1D0D PUSH0 DUP4 ADD DUP5 PUSH2 0x1CEB JUMP JUMPDEST SWAP3 SWAP2 POP POP JUMP JUMPDEST PUSH0 PUSH20 0xFFFFFFFFFFFFFFFFFFFFFFFFFFFFFFFFFFFFFFFF DUP3 AND SWAP1 POP SWAP2 SWAP1 POP JUMP JUMPDEST PUSH0 PUSH2 0x1D3C DUP3 PUSH2 0x1D13 JUMP JUMPDEST SWAP1 POP SWAP2 SWAP1 POP JUMP JUMPDEST PUSH2 0x1D4C DUP2 PUSH2 0x1D32 JUMP JUMPDEST DUP2 EQ PUSH2 0x1D56 JUMPI PUSH0 DUP1 REVERT JUMPDEST POP JUMP JUMPDEST PUSH0 DUP2 CALLDATALOAD SWAP1 POP PUSH2 0x1D67 DUP2 PUSH2 0x1D43 JUMP JUMPDEST SWAP3 SWAP2 POP POP JUMP JUMPDEST PUSH0 DUP1 PUSH1 0x40 DUP4 DUP6 SUB SLT ISZERO PUSH2 0x1D83 JUMPI PUSH2 0x1D82 PUSH2 0x1BD2 JUMP JUMPDEST JUMPDEST PUSH0 PUSH2 0x1D90 DUP6 DUP3 DUP7 ADD PUSH2 0x1CAC JUMP JUMPDEST SWAP3 POP POP PUSH1 0x20 PUSH2 0x1DA1 DUP6 DUP3 DUP7 ADD PUSH2 0x1D59 JUMP JUMPDEST SWAP2 POP POP SWAP3 POP SWAP3 SWAP1 POP JUMP JUMPDEST PUSH0 PUSH1 0x20 DUP3 DUP5 SUB SLT ISZERO PUSH2 0x1DC0 JUMPI PUSH2 0x1DBF PUSH2 0x1BD2 JUMP JUMPDEST JUMPDEST PUSH0 PUSH2 0x1DCD DUP5 DUP3 DUP6 ADD PUSH2 0x1D59 JUMP JUMPDEST SWAP2 POP POP SWAP3 SWAP2 POP POP JUMP JUMPDEST PUSH0 DUP1 PUSH1 0x40 DUP4 DUP6 SUB SLT ISZERO PUSH2 0x1DEC JUMPI PUSH2 0x1DEB PUSH2 0x1BD2 JUMP JUMPDEST JUMPDEST PUSH0 PUSH2 0x1DF9 DUP6 DUP3 DUP7 ADD PUSH2 0x1D59 JUMP JUMPDEST SWAP3 POP POP PUSH1 0x20 PUSH2 0x1E0A DUP6 DUP3 DUP7 ADD PUSH2 0x1D59 JUMP JUMPDEST SWAP2 POP POP SWAP3 POP SWAP3 SWAP1 POP JUMP JUMPDEST PUSH0 DUP1 REVERT JUMPDEST PUSH0 DUP1 REVERT JUMPDEST PUSH0 PUSH1 0x1F NOT PUSH1 0x1F DUP4 ADD AND SWAP1 POP SWAP2 SWAP1 POP JUMP JUMPDEST PUSH32 0x4E487B7100000000000000000000000000000000000000000000000000000000 PUSH0 MSTORE PUSH1 0x41 PUSH1 0x4 MSTORE PUSH1 0x24 PUSH0 REVERT JUMPDEST PUSH2 0x1E62 DUP3 PUSH2 0x1E1C JUMP JUMPDEST DUP2 ADD DUP2 DUP2 LT PUSH8 0xFFFFFFFFFFFFFFFF DUP3 GT OR ISZERO PUSH2 0x1E81 JUMPI PUSH2 0x1E80 PUSH2 0x1E2C JUMP JUMPDEST JUMPDEST DUP1 PUSH1 0x40 MSTORE POP POP POP JUMP JUMPDEST PUSH0 PUSH2 0x1E93 PUSH2 0x1BC9 JUMP JUMPDEST SWAP1 POP PUSH2 0x1E9F DUP3 DUP3 PUSH2 0x1E59 JUMP JUMPDEST SWAP2 SWAP1 POP JUMP JUMPDEST PUSH0 PUSH8 0xFFFFFFFFFFFFFFFF DUP3 GT ISZERO PUSH2 0x1EBE JUMPI PUSH2 0x1EBD PUSH2 0x1E2C JUMP JUMPDEST JUMPDEST PUSH2 0x1EC7 DUP3 PUSH2 0x1E1C JUMP JUMPDEST SWAP1 POP PUSH1 0x20 DUP2 ADD SWAP1 POP SWAP2 SWAP1 POP JUMP JUMPDEST DUP3 DUP2 DUP4 CALLDATACOPY PUSH0 DUP4 DUP4 ADD MSTORE POP POP POP JUMP JUMPDEST PUSH0 PUSH2 0x1EF4 PUSH2 0x1EEF DUP5 PUSH2 0x1EA4 JUMP JUMPDEST PUSH2 0x1E8A JUMP JUMPDEST SWAP1 POP DUP3 DUP2 MSTORE PUSH1 0x20 DUP2 ADD DUP5 DUP5 DUP5 ADD GT ISZERO PUSH2 0x1F10 JUMPI PUSH2 0x1F0F PUSH2 0x1E18 JUMP JUMPDEST JUMPDEST PUSH2 0x1F1B DUP5 DUP3 DUP6 PUSH2 0x1ED4 JUMP JUMPDEST POP SWAP4 SWAP3 POP POP POP JUMP JUMPDEST PUSH0 DUP3 PUSH1 0x1F DUP4 ADD SLT PUSH2 0x1F37 JUMPI PUSH2 0x1F36 PUSH2 0x1E14 JUMP JUMPDEST JUMPDEST DUP2 CALLDATALOAD PUSH2 0x1F47 DUP5 DUP3 PUSH1 0x20 DUP7 ADD PUSH2 0x1EE2 JUMP JUMPDEST SWAP2 POP POP SWAP3 SWAP2 POP POP JUMP JUMPDEST PUSH0 DUP1 PUSH1 0x40 DUP4 DUP6 SUB SLT ISZERO PUSH2 0x1F66 JUMPI PUSH2 0x1F65 PUSH2 0x1BD2 JUMP JUMPDEST JUMPDEST PUSH0 PUSH2 0x1F73 DUP6 DUP3 DUP7 ADD PUSH2 0x1D59 JUMP JUMPDEST SWAP3 POP POP PUSH1 0x20 DUP4 ADD CALLDATALOAD PUSH8 0xFFFFFFFFFFFFFFFF DUP2 GT ISZERO PUSH2 0x1F94 JUMPI PUSH2 0x1F93 PUSH2 0x1BD6 JUMP JUMPDEST JUMPDEST PUSH2 0x1FA0 DUP6 DUP3 DUP7 ADD PUSH2 0x1F23 JUMP JUMPDEST SWAP2 POP POP SWAP3 POP SWAP3 SWAP1 POP JUMP JUMPDEST PUSH0 PUSH8 0xFFFFFFFFFFFFFFFF DUP3 GT ISZERO PUSH2 0x1FC4 JUMPI PUSH2 0x1FC3 PUSH2 0x1E2C JUMP JUMPDEST JUMPDEST PUSH1 0x20 DUP3 MUL SWAP1 POP PUSH1 0x20 DUP2 ADD SWAP1 POP SWAP2 SWAP1 POP JUMP JUMPDEST PUSH0 DUP1 REVERT JUMPDEST PUSH0 PUSH2 0x1FEB PUSH2 0x1FE6 DUP5 PUSH2 0x1FAA JUMP JUMPDEST PUSH2 0x1E8A JUMP JUMPDEST SWAP1 POP DUP1 DUP4 DUP3 MSTORE PUSH1 0x20 DUP3 ADD SWAP1 POP PUSH1 0x20 DUP5 MUL DUP4 ADD DUP6 DUP2 GT ISZERO PUSH2 0x200E JUMPI PUSH2 0x200D PUSH2 0x1FD5 JUMP JUMPDEST JUMPDEST DUP4 JUMPDEST DUP2 DUP2 LT ISZERO PUSH2 0x2037 JUMPI DUP1 PUSH2 0x2023 DUP9 DUP3 PUSH2 0x1D59 JUMP JUMPDEST DUP5 MSTORE PUSH1 0x20 DUP5 ADD SWAP4 POP POP PUSH1 0x20 DUP2 ADD SWAP1 POP PUSH2 0x2010 JUMP JUMPDEST POP POP POP SWAP4 SWAP3 POP POP POP JUMP JUMPDEST PUSH0 DUP3 PUSH1 0x1F DUP4 ADD SLT PUSH2 0x2055 JUMPI PUSH2 0x2054 PUSH2 0x1E14 JUMP JUMPDEST JUMPDEST DUP2 CALLDATALOAD PUSH2 0x2065 DUP5 DUP3 PUSH1 0x20 DUP7 ADD PUSH2 0x1FD9 JUMP JUMPDEST SWAP2 POP POP SWAP3 SWAP2 POP POP JUMP JUMPDEST PUSH0 PUSH1 0x20 DUP3 DUP5 SUB SLT ISZERO PUSH2 0x2083 JUMPI PUSH2 0x2082 PUSH2 0x1BD2 JUMP JUMPDEST JUMPDEST PUSH0 DUP3 ADD CALLDATALOAD PUSH8 0xFFFFFFFFFFFFFFFF DUP2 GT ISZERO PUSH2 0x20A0 JUMPI PUSH2 0x209F PUSH2 0x1BD6 JUMP JUMPDEST JUMPDEST PUSH2 0x20AC DUP5 DUP3 DUP6 ADD PUSH2 0x2041 JUMP JUMPDEST SWAP2 POP POP SWAP3 SWAP2 POP POP JUMP JUMPDEST PUSH0 DUP2 SWAP1 POP SWAP2 SWAP1 POP JUMP JUMPDEST PUSH2 0x20C7 DUP2 PUSH2 0x20B5 JUMP JUMPDEST DUP3 MSTORE POP POP JUMP JUMPDEST PUSH0 PUSH1 0x20 DUP3 ADD SWAP1 POP PUSH2 0x20E0 PUSH0 DUP4 ADD DUP5 PUSH2 0x20BE JUMP JUMPDEST SWAP3 SWAP2 POP POP JUMP JUMPDEST PUSH0 DUP1 REVERT JUMPDEST PUSH0 DUP1 DUP4 PUSH1 0x1F DUP5 ADD SLT PUSH2 0x20FF JUMPI PUSH2 0x20FE PUSH2 0x1E14 JUMP JUMPDEST JUMPDEST DUP3 CALLDATALOAD SWAP1 POP PUSH8 0xFFFFFFFFFFFFFFFF DUP2 GT ISZERO PUSH2 0x211C JUMPI PUSH2 0x211B PUSH2 0x20E6 JUMP JUMPDEST JUMPDEST PUSH1 0x20 DUP4 ADD SWAP2 POP DUP4 PUSH1 0x40 DUP3 MUL DUP4 ADD GT ISZERO PUSH2 0x2138 JUMPI PUSH2 0x2137 PUSH2 0x1FD5 JUMP JUMPDEST JUMPDEST SWAP3 POP SWAP3 SWAP1 POP JUMP JUMPDEST PUSH0 DUP1 PUSH1 0x20 DUP4 DUP6 SUB SLT ISZERO PUSH2 0x2155 JUMPI PUSH2 0x2154 PUSH2 0x1BD2 JUMP JUMPDEST JUMPDEST PUSH0 DUP4 ADD CALLDATALOAD PUSH8 0xFFFFFFFFFFFFFFFF DUP2 GT ISZERO PUSH2 0x2172 JUMPI PUSH2 0x2171 PUSH2 0x1BD6 JUMP JUMPDEST JUMPDEST PUSH2 0x217E DUP6 DUP3 DUP7 ADD PUSH2 0x20EA JUMP JUMPDEST SWAP3 POP SWAP3 POP POP SWAP3 POP SWAP3 SWAP1 POP JUMP JUMPDEST PUSH0 DUP3 DUP3 MSTORE PUSH1 0x20 DUP3 ADD SWAP1 POP SWAP3 SWAP2 POP POP JUMP JUMPDEST PUSH32 0x416363657373436F6E74726F6C3A2063616E206F6E6C792072656E6F756E6365 PUSH0 DUP3 ADD MSTORE PUSH32 0x20726F6C657320666F722073656C660000000000000000000000000000000000 PUSH1 0x20 DUP3 ADD MSTORE POP JUMP JUMPDEST PUSH0 PUSH2 0x21F4 PUSH1 0x2F DUP4 PUSH2 0x218A JUMP JUMPDEST SWAP2 POP PUSH2 0x21FF DUP3 PUSH2 0x219A JUMP JUMPDEST PUSH1 0x40 DUP3 ADD SWAP1 POP SWAP2 SWAP1 POP JUMP JUMPDEST PUSH0 PUSH1 0x20 DUP3 ADD SWAP1 POP DUP2 DUP2 SUB PUSH0 DUP4 ADD MSTORE PUSH2 0x2221 DUP2 PUSH2 0x21E8 JUMP JUMPDEST SWAP1 POP SWAP2 SWAP1 POP JUMP JUMPDEST PUSH32 0x46756E6374696F6E206D7573742062652063616C6C6564207468726F75676820 PUSH0 DUP3 ADD MSTORE PUSH32 0x64656C656761746563616C6C0000000000000000000000000000000000000000 PUSH1 0x20 DUP3 ADD MSTORE POP JUMP JUMPDEST PUSH0 PUSH2 0x2282 PUSH1 0x2C DUP4 PUSH2 0x218A JUMP JUMPDEST SWAP2 POP PUSH2 0x228D DUP3 PUSH2 0x2228 JUMP JUMPDEST PUSH1 0x40 DUP3 ADD SWAP1 POP SWAP2 SWAP1 POP JUMP JUMPDEST PUSH0 PUSH1 0x20 DUP3 ADD SWAP1 POP DUP2 DUP2 SUB PUSH0 DUP4 ADD MSTORE PUSH2 0x22AF DUP2 PUSH2 0x2276 JUMP JUMPDEST SWAP1 POP SWAP2 SWAP1 POP JUMP JUMPDEST PUSH32 0x46756E6374696F6E206D7573742062652063616C6C6564207468726F75676820 PUSH0 DUP3 ADD MSTORE PUSH32 0x6163746976652070726F78790000000000000000000000000000000000000000 PUSH1 0x20 DUP3 ADD MSTORE POP JUMP JUMPDEST PUSH0 PUSH2 0x2310 PUSH1 0x2C DUP4 PUSH2 0x218A JUMP JUMPDEST SWAP2 POP PUSH2 0x231B DUP3 PUSH2 0x22B6 JUMP JUMPDEST PUSH1 0x40 DUP3 ADD SWAP1 POP SWAP2 SWAP1 POP JUMP JUMPDEST PUSH0 PUSH1 0x20 DUP3 ADD SWAP1 POP DUP2 DUP2 SUB PUSH0 DUP4 ADD MSTORE PUSH2 0x233D DUP2 PUSH2 0x2304 JUMP JUMPDEST SWAP1 POP SWAP2 SWAP1 POP JUMP JUMPDEST PUSH32 0x496E697469616C697A61626C653A20636F6E747261637420697320616C726561 PUSH0 DUP3 ADD MSTORE PUSH32 0x647920696E697469616C697A6564000000000000000000000000000000000000 PUSH1 0x20 DUP3 ADD MSTORE POP JUMP JUMPDEST PUSH0 PUSH2 0x239E PUSH1 0x2E DUP4 PUSH2 0x218A JUMP JUMPDEST SWAP2 POP PUSH2 0x23A9 DUP3 PUSH2 0x2344 JUMP JUMPDEST PUSH1 0x40 DUP3 ADD SWAP1 POP SWAP2 SWAP1 POP JUMP JUMPDEST PUSH0 PUSH1 0x20 DUP3 ADD SWAP1 POP DUP2 DUP2 SUB PUSH0 DUP4 ADD MSTORE PUSH2 0x23CB DUP2 PUSH2 0x2392 JUMP JUMPDEST SWAP1 POP SWAP2 SWAP1 POP JUMP JUMPDEST PUSH0 DUP2 SWAP1 POP SWAP2 SWAP1 POP JUMP JUMPDEST PUSH0 PUSH1 0xFF DUP3 AND SWAP1 POP SWAP2 SWAP1 POP JUMP JUMPDEST PUSH0 DUP2 SWAP1 POP SWAP2 SWAP1 POP JUMP JUMPDEST PUSH0 PUSH2 0x240A PUSH2 0x2405 PUSH2 0x2400 DUP5 PUSH2 0x23D2 JUMP JUMPDEST PUSH2 0x23E7 JUMP JUMPDEST PUSH2 0x23DB JUMP JUMPDEST SWAP1 POP SWAP2 SWAP1 POP JUMP JUMPDEST PUSH2 0x241A DUP2 PUSH2 0x23F0 JUMP JUMPDEST DUP3 MSTORE POP POP JUMP JUMPDEST PUSH0 PUSH1 0x20 DUP3 ADD SWAP1 POP PUSH2 0x2433 PUSH0 DUP4 ADD DUP5 PUSH2 0x2411 JUMP JUMPDEST SWAP3 SWAP2 POP POP JUMP JUMPDEST PUSH32 0x555550535570677261646561626C653A206D757374206E6F742062652063616C PUSH0 DUP3 ADD MSTORE PUSH32 0x6C6564207468726F7567682064656C656761746563616C6C0000000000000000 PUSH1 0x20 DUP3 ADD MSTORE POP JUMP JUMPDEST PUSH0 PUSH2 0x2493 PUSH1 0x38 DUP4 PUSH2 0x218A JUMP JUMPDEST SWAP2 POP PUSH2 0x249E DUP3 PUSH2 0x2439 JUMP JUMPDEST PUSH1 0x40 DUP3 ADD SWAP1 POP SWAP2 SWAP1 POP JUMP JUMPDEST PUSH0 PUSH1 0x20 DUP3 ADD SWAP1 POP DUP2 DUP2 SUB PUSH0 DUP4 ADD MSTORE PUSH2 0x24C0 DUP2 PUSH2 0x2487 JUMP JUMPDEST SWAP1 POP SWAP2 SWAP1 POP JUMP JUMPDEST PUSH32 0x4E487B7100000000000000000000000000000000000000000000000000000000 PUSH0 MSTORE PUSH1 0x32 PUSH1 0x4 MSTORE PUSH1 0x24 PUSH0 REVERT JUMPDEST PUSH32 0x596F7520646F6E2774206861766520616E792072657761726400000000000000 PUSH0 DUP3 ADD MSTORE POP JUMP JUMPDEST PUSH0 PUSH2 0x2528 PUSH1 0x19 DUP4 PUSH2 0x218A JUMP JUMPDEST SWAP2 POP PUSH2 0x2533 DUP3 PUSH2 0x24F4 JUMP JUMPDEST PUSH1 0x20 DUP3 ADD SWAP1 POP SWAP2 SWAP1 POP JUMP JUMPDEST PUSH0 PUSH1 0x20 DUP3 ADD SWAP1 POP DUP2 DUP2 SUB PUSH0 DUP4 ADD MSTORE PUSH2 0x2555 DUP2 PUSH2 0x251C JUMP JUMPDEST SWAP1 POP SWAP2 SWAP1 POP JUMP JUMPDEST PUSH2 0x2565 DUP2 PUSH2 0x1D32 JUMP JUMPDEST DUP3 MSTORE POP POP JUMP JUMPDEST PUSH0 PUSH1 0x20 DUP3 ADD SWAP1 POP PUSH2 0x257E PUSH0 DUP4 ADD DUP5 PUSH2 0x255C JUMP JUMPDEST SWAP3 SWAP2 POP POP JUMP JUMPDEST PUSH2 0x258D DUP2 PUSH2 0x20B5 JUMP JUMPDEST DUP2 EQ PUSH2 0x2597 JUMPI PUSH0 DUP1 REVERT JUMPDEST POP JUMP JUMPDEST PUSH0 DUP2 MLOAD SWAP1 POP PUSH2 0x25A8 DUP2 PUSH2 0x2584 JUMP JUMPDEST SWAP3 SWAP2 POP POP JUMP JUMPDEST PUSH0 PUSH1 0x20 DUP3 DUP5 SUB SLT ISZERO PUSH2 0x25C3 JUMPI PUSH2 0x25C2 PUSH2 0x1BD2 JUMP JUMPDEST JUMPDEST PUSH0 PUSH2 0x25D0 DUP5 DUP3 DUP6 ADD PUSH2 0x259A JUMP JUMPDEST SWAP2 POP POP SWAP3 SWAP2 POP POP JUMP JUMPDEST PUSH32 0x596F752063616E27742077697468647261772061742074686973206D6F6D656E PUSH0 DUP3 ADD MSTORE PUSH32 0x7400000000000000000000000000000000000000000000000000000000000000 PUSH1 0x20 DUP3 ADD MSTORE POP JUMP JUMPDEST PUSH0 PUSH2 0x2633 PUSH1 0x21 DUP4 PUSH2 0x218A JUMP JUMPDEST SWAP2 POP PUSH2 0x263E DUP3 PUSH2 0x25D9 JUMP JUMPDEST PUSH1 0x40 DUP3 ADD SWAP1 POP SWAP2 SWAP1 POP JUMP JUMPDEST PUSH0 PUSH1 0x20 DUP3 ADD SWAP1 POP DUP2 DUP2 SUB PUSH0 DUP4 ADD MSTORE PUSH2 0x2660 DUP2 PUSH2 0x2627 JUMP JUMPDEST SWAP1 POP SWAP2 SWAP1 POP JUMP JUMPDEST PUSH0 PUSH1 0x40 DUP3 ADD SWAP1 POP PUSH2 0x267A PUSH0 DUP4 ADD DUP6 PUSH2 0x255C JUMP JUMPDEST PUSH2 0x2687 PUSH1 0x20 DUP4 ADD DUP5 PUSH2 0x20BE JUMP JUMPDEST SWAP4 SWAP3 POP POP POP JUMP JUMPDEST PUSH2 0x2697 DUP2 PUSH2 0x1C5A JUMP JUMPDEST DUP2 EQ PUSH2 0x26A1 JUMPI PUSH0 DUP1 REVERT JUMPDEST POP JUMP JUMPDEST PUSH0 DUP2 MLOAD SWAP1 POP PUSH2 0x26B2 DUP2 PUSH2 0x268E JUMP JUMPDEST SWAP3 SWAP2 POP POP JUMP JUMPDEST PUSH0 PUSH1 0x20 DUP3 DUP5 SUB SLT ISZERO PUSH2 0x26CD JUMPI PUSH2 0x26CC PUSH2 0x1BD2 JUMP JUMPDEST JUMPDEST PUSH0 PUSH2 0x26DA DUP5 DUP3 DUP6 ADD PUSH2 0x26A4 JUMP JUMPDEST SWAP2 POP POP SWAP3 SWAP2 POP POP JUMP JUMPDEST PUSH32 0x4E487B7100000000000000000000000000000000000000000000000000000000 PUSH0 MSTORE PUSH1 0x11 PUSH1 0x4 MSTORE PUSH1 0x24 PUSH0 REVERT JUMPDEST PUSH0 PUSH2 0x271A DUP3 PUSH2 0x20B5 JUMP JUMPDEST SWAP2 POP PUSH2 0x2725 DUP4 PUSH2 0x20B5 JUMP JUMPDEST SWAP3 POP DUP3 DUP3 ADD SWAP1 POP DUP1 DUP3 GT ISZERO PUSH2 0x273D JUMPI PUSH2 0x273C PUSH2 0x26E3 JUMP JUMPDEST JUMPDEST SWAP3 SWAP2 POP POP JUMP JUMPDEST PUSH0 DUP2 MLOAD SWAP1 POP PUSH2 0x2751 DUP2 PUSH2 0x1C96 JUMP JUMPDEST SWAP3 SWAP2 POP POP JUMP JUMPDEST PUSH0 PUSH1 0x20 DUP3 DUP5 SUB SLT ISZERO PUSH2 0x276C JUMPI PUSH2 0x276B PUSH2 0x1BD2 JUMP JUMPDEST JUMPDEST PUSH0 PUSH2 0x2779 DUP5 DUP3 DUP6 ADD PUSH2 0x2743 JUMP JUMPDEST SWAP2 POP POP SWAP3 SWAP2 POP POP JUMP JUMPDEST PUSH32 0x45524331393637557067726164653A206E657720696D706C656D656E74617469 PUSH0 DUP3 ADD MSTORE PUSH32 0x6F6E206973206E6F742055555053000000000000000000000000000000000000 PUSH1 0x20 DUP3 ADD MSTORE POP JUMP JUMPDEST PUSH0 PUSH2 0x27DC PUSH1 0x2E DUP4 PUSH2 0x218A JUMP JUMPDEST SWAP2 POP PUSH2 0x27E7 DUP3 PUSH2 0x2782 JUMP JUMPDEST PUSH1 0x40 DUP3 ADD SWAP1 POP SWAP2 SWAP1 POP JUMP JUMPDEST PUSH0 PUSH1 0x20 DUP3 ADD SWAP1 POP DUP2 DUP2 SUB PUSH0 DUP4 ADD MSTORE PUSH2 0x2809 DUP2 PUSH2 0x27D0 JUMP JUMPDEST SWAP1 POP SWAP2 SWAP1 POP JUMP JUMPDEST PUSH32 0x45524331393637557067726164653A20756E737570706F727465642070726F78 PUSH0 DUP3 ADD MSTORE PUSH32 0x6961626C65555549440000000000000000000000000000000000000000000000 PUSH1 0x20 DUP3 ADD MSTORE POP JUMP JUMPDEST PUSH0 PUSH2 0x286A PUSH1 0x29 DUP4 PUSH2 0x218A JUMP JUMPDEST SWAP2 POP PUSH2 0x2875 DUP3 PUSH2 0x2810 JUMP JUMPDEST PUSH1 0x40 DUP3 ADD SWAP1 POP SWAP2 SWAP1 POP JUMP JUMPDEST PUSH0 PUSH1 0x20 DUP3 ADD SWAP1 POP DUP2 DUP2 SUB PUSH0 DUP4 ADD MSTORE PUSH2 0x2897 DUP2 PUSH2 0x285E JUMP JUMPDEST SWAP1 POP SWAP2 SWAP1 POP JUMP JUMPDEST PUSH0 DUP2 SWAP1 POP SWAP3 SWAP2 POP POP JUMP JUMPDEST PUSH32 0x416363657373436F6E74726F6C3A206163636F756E7420000000000000000000 PUSH0 DUP3 ADD MSTORE POP JUMP JUMPDEST PUSH0 PUSH2 0x28DC PUSH1 0x17 DUP4 PUSH2 0x289E JUMP JUMPDEST SWAP2 POP PUSH2 0x28E7 DUP3 PUSH2 0x28A8 JUMP JUMPDEST PUSH1 0x17 DUP3 ADD SWAP1 POP SWAP2 SWAP1 POP JUMP JUMPDEST PUSH0 DUP2 MLOAD SWAP1 POP SWAP2 SWAP1 POP JUMP JUMPDEST DUP3 DUP2 DUP4 MCOPY PUSH0 DUP4 DUP4 ADD MSTORE POP POP POP JUMP JUMPDEST PUSH0 PUSH2 0x2914 DUP3 PUSH2 0x28F2 JUMP JUMPDEST PUSH2 0x291E DUP2 DUP6 PUSH2 0x289E JUMP JUMPDEST SWAP4 POP PUSH2 0x292E DUP2 DUP6 PUSH1 0x20 DUP7 ADD PUSH2 0x28FC JUMP JUMPDEST DUP1 DUP5 ADD SWAP2 POP POP SWAP3 SWAP2 POP POP JUMP JUMPDEST PUSH32 0x206973206D697373696E6720726F6C6520000000000000000000000000000000 PUSH0 DUP3 ADD MSTORE POP JUMP JUMPDEST PUSH0 PUSH2 0x296E PUSH1 0x11 DUP4 PUSH2 0x289E JUMP JUMPDEST SWAP2 POP PUSH2 0x2979 DUP3 PUSH2 0x293A JUMP JUMPDEST PUSH1 0x11 DUP3 ADD SWAP1 POP SWAP2 SWAP1 POP JUMP JUMPDEST PUSH0 PUSH2 0x298E DUP3 PUSH2 0x28D0 JUMP JUMPDEST SWAP2 POP PUSH2 0x299A DUP3 DUP6 PUSH2 0x290A JUMP JUMPDEST SWAP2 POP PUSH2 0x29A5 DUP3 PUSH2 0x2962 JUMP JUMPDEST SWAP2 POP PUSH2 0x29B1 DUP3 DUP5 PUSH2 0x290A JUMP JUMPDEST SWAP2 POP DUP2 SWAP1 POP SWAP4 SWAP3 POP POP POP JUMP JUMPDEST PUSH0 PUSH2 0x29C7 DUP3 PUSH2 0x28F2 JUMP JUMPDEST PUSH2 0x29D1 DUP2 DUP6 PUSH2 0x218A JUMP JUMPDEST SWAP4 POP PUSH2 0x29E1 DUP2 DUP6 PUSH1 0x20 DUP7 ADD PUSH2 0x28FC JUMP JUMPDEST PUSH2 0x29EA DUP2 PUSH2 0x1E1C JUMP JUMPDEST DUP5 ADD SWAP2 POP POP SWAP3 SWAP2 POP POP JUMP JUMPDEST PUSH0 PUSH1 0x20 DUP3 ADD SWAP1 POP DUP2 DUP2 SUB PUSH0 DUP4 ADD MSTORE PUSH2 0x2A0D DUP2 DUP5 PUSH2 0x29BD JUMP JUMPDEST SWAP1 POP SWAP3 SWAP2 POP POP JUMP JUMPDEST PUSH32 0x455243313936373A206E657720696D706C656D656E746174696F6E206973206E PUSH0 DUP3 ADD MSTORE PUSH32 0x6F74206120636F6E747261637400000000000000000000000000000000000000 PUSH1 0x20 DUP3 ADD MSTORE POP JUMP JUMPDEST PUSH0 PUSH2 0x2A6F PUSH1 0x2D DUP4 PUSH2 0x218A JUMP JUMPDEST SWAP2 POP PUSH2 0x2A7A DUP3 PUSH2 0x2A15 JUMP JUMPDEST PUSH1 0x40 DUP3 ADD SWAP1 POP SWAP2 SWAP1 POP JUMP JUMPDEST PUSH0 PUSH1 0x20 DUP3 ADD SWAP1 POP DUP2 DUP2 SUB PUSH0 DUP4 ADD MSTORE PUSH2 0x2A9C DUP2 PUSH2 0x2A63 JUMP JUMPDEST SWAP1 POP SWAP2 SWAP1 POP JUMP JUMPDEST PUSH0 PUSH2 0x2AAD DUP3 PUSH2 0x20B5 JUMP JUMPDEST SWAP2 POP PUSH2 0x2AB8 DUP4 PUSH2 0x20B5 JUMP JUMPDEST SWAP3 POP DUP3 DUP3 MUL PUSH2 0x2AC6 DUP2 PUSH2 0x20B5 JUMP JUMPDEST SWAP2 POP DUP3 DUP3 DIV DUP5 EQ DUP4 ISZERO OR PUSH2 0x2ADD JUMPI PUSH2 0x2ADC PUSH2 0x26E3 JUMP JUMPDEST JUMPDEST POP SWAP3 SWAP2 POP POP JUMP JUMPDEST PUSH0 PUSH2 0x2AEE DUP3 PUSH2 0x20B5 JUMP JUMPDEST SWAP2 POP PUSH0 DUP3 SUB PUSH2 0x2B00 JUMPI PUSH2 0x2AFF PUSH2 0x26E3 JUMP JUMPDEST JUMPDEST PUSH1 0x1 DUP3 SUB SWAP1 POP SWAP2 SWAP1 POP JUMP JUMPDEST PUSH32 0x537472696E67733A20686578206C656E67746820696E73756666696369656E74 PUSH0 DUP3 ADD MSTORE POP JUMP JUMPDEST PUSH0 PUSH2 0x2B3F PUSH1 0x20 DUP4 PUSH2 0x218A JUMP JUMPDEST SWAP2 POP PUSH2 0x2B4A DUP3 PUSH2 0x2B0B JUMP JUMPDEST PUSH1 0x20 DUP3 ADD SWAP1 POP SWAP2 SWAP1 POP JUMP JUMPDEST PUSH0 PUSH1 0x20 DUP3 ADD SWAP1 POP DUP2 DUP2 SUB PUSH0 DUP4 ADD MSTORE PUSH2 0x2B6C DUP2 PUSH2 0x2B33 JUMP JUMPDEST SWAP1 POP SWAP2 SWAP1 POP JUMP JUMPDEST PUSH0 DUP2 MLOAD SWAP1 POP SWAP2 SWAP1 POP JUMP JUMPDEST PUSH0 DUP2 SWAP1 POP SWAP3 SWAP2 POP POP JUMP JUMPDEST PUSH0 PUSH2 0x2B91 DUP3 PUSH2 0x2B73 JUMP JUMPDEST PUSH2 0x2B9B DUP2 DUP6 PUSH2 0x2B7D JUMP JUMPDEST SWAP4 POP PUSH2 0x2BAB DUP2 DUP6 PUSH1 0x20 DUP7 ADD PUSH2 0x28FC JUMP JUMPDEST DUP1 DUP5 ADD SWAP2 POP POP SWAP3 SWAP2 POP POP JUMP JUMPDEST PUSH0 PUSH2 0x2BC2 DUP3 DUP5 PUSH2 0x2B87 JUMP JUMPDEST SWAP2 POP DUP2 SWAP1 POP SWAP3 SWAP2 POP POP JUMP JUMPDEST PUSH32 0x416464726573733A2063616C6C20746F206E6F6E2D636F6E7472616374000000 PUSH0 DUP3 ADD MSTORE POP JUMP JUMPDEST PUSH0 PUSH2 0x2C01 PUSH1 0x1D DUP4 PUSH2 0x218A JUMP JUMPDEST SWAP2 POP PUSH2 0x2C0C DUP3 PUSH2 0x2BCD JUMP JUMPDEST PUSH1 0x20 DUP3 ADD SWAP1 POP SWAP2 SWAP1 POP JUMP JUMPDEST PUSH0 PUSH1 0x20 DUP3 ADD SWAP1 POP DUP2 DUP2 SUB PUSH0 DUP4 ADD MSTORE PUSH2 0x2C2E DUP2 PUSH2 0x2BF5 JUMP JUMPDEST SWAP1 POP SWAP2 SWAP1 POP JUMP INVALID COINBASE PUSH5 0x6472657373 GASPRICE KECCAK256 PUSH13 0x6F772D6C6576656C2064656C65 PUSH8 0x6174652063616C6C KECCAK256 PUSH7 0x61696C6564A264 PUSH10 0x70667358221220E1C487 BLOBBASEFEE 0xD6 RETURN 0x2B SHL BALANCE SWAP1 0x4C CHAINID 0xD0 MSIZE 0xED LOG3 0xC3 STATICCALL LOG2 CALLDATALOAD 0x4E PUSH26 0xC921B30CAC71597A0C9364736F6C634300081A00330000000000 "
				},
				"gasEstimates": {
					"creation": {
						"codeDepositCost": "2282000",
						"executionCost": "infinite",
						"totalCost": "infinite"
					},
					"external": {
						"DEFAULT_ADMIN_ROLE()": "419",
						"claimReward()": "infinite",
						"claimRewardAdminList(address[])": "infinite",
						"getRoleAdmin(bytes32)": "infinite",
						"grantRole(bytes32,address)": "infinite",
						"hasRole(bytes32,address)": "3189",
						"initialize(address,address)": "infinite",
						"playerBalance()": "2564",
						"playerBalanceAdmin(address)": "infinite",
						"playersReward((address,uint256)[])": "infinite",
						"proxiableUUID()": "infinite",
						"renounceRole(bytes32,address)": "infinite",
						"revokeRole(bytes32,address)": "infinite",
						"supportsInterface(bytes4)": "741",
						"upgradeTo(address)": "infinite",
						"upgradeToAndCall(address,bytes)": "infinite"
					},
					"internal": {
						"_authorizeUpgrade(address)": "infinite",
						"claimRewardAdmin(address)": "infinite"
					}
				},
				"methodIdentifiers": {
					"DEFAULT_ADMIN_ROLE()": "a217fddf",
					"claimReward()": "b88a802f",
					"claimRewardAdminList(address[])": "542e37cc",
					"getRoleAdmin(bytes32)": "248a9ca3",
					"grantRole(bytes32,address)": "2f2ff15d",
					"hasRole(bytes32,address)": "91d14854",
					"initialize(address,address)": "485cc955",
					"playerBalance()": "651f066a",
					"playerBalanceAdmin(address)": "bb6ceb4f",
					"playersReward((address,uint256)[])": "f396d899",
					"proxiableUUID()": "52d1902d",
					"renounceRole(bytes32,address)": "36568abe",
					"revokeRole(bytes32,address)": "d547741f",
					"supportsInterface(bytes4)": "01ffc9a7",
					"upgradeTo(address)": "3659cfe6",
					"upgradeToAndCall(address,bytes)": "4f1ef286"
				}
			},
			"storageLayout": {
				"storage": [
					{
						"astId": 780,
						"contract": "contracts/GameVault.sol:GameVault",
						"label": "_initialized",
						"offset": 0,
						"slot": "0",
						"type": "t_uint8"
					},
					{
						"astId": 783,
						"contract": "contracts/GameVault.sol:GameVault",
						"label": "_initializing",
						"offset": 1,
						"slot": "0",
						"type": "t_bool"
					},
					{
						"astId": 762,
						"contract": "contracts/GameVault.sol:GameVault",
						"label": "__gap",
						"offset": 0,
						"slot": "1",
						"type": "t_array(t_uint256)50_storage"
					},
					{
						"astId": 1077,
						"contract": "contracts/GameVault.sol:GameVault",
						"label": "__gap",
						"offset": 0,
						"slot": "51",
						"type": "t_array(t_uint256)50_storage"
					},
					{
						"astId": 1939,
						"contract": "contracts/GameVault.sol:GameVault",
						"label": "__gap",
						"offset": 0,
						"slot": "101",
						"type": "t_array(t_uint256)50_storage"
					},
					{
						"astId": 2322,
						"contract": "contracts/GameVault.sol:GameVault",
						"label": "__gap",
						"offset": 0,
						"slot": "151",
						"type": "t_array(t_uint256)50_storage"
					},
					{
						"astId": 39,
						"contract": "contracts/GameVault.sol:GameVault",
						"label": "_roles",
						"offset": 0,
						"slot": "201",
						"type": "t_mapping(t_bytes32,t_struct(RoleData)34_storage)"
					},
					{
						"astId": 334,
						"contract": "contracts/GameVault.sol:GameVault",
						"label": "__gap",
						"offset": 0,
						"slot": "202",
						"type": "t_array(t_uint256)49_storage"
					},
					{
						"astId": 3325,
						"contract": "contracts/GameVault.sol:GameVault",
						"label": "tether",
						"offset": 0,
						"slot": "251",
						"type": "t_contract(IERC20Upgradeable)1156"
					},
					{
						"astId": 3339,
						"contract": "contracts/GameVault.sol:GameVault",
						"label": "playersBalance",
						"offset": 0,
						"slot": "252",
						"type": "t_mapping(t_address,t_uint256)"
					}
				],
				"types": {
					"t_address": {
						"encoding": "inplace",
						"label": "address",
						"numberOfBytes": "20"
					},
					"t_array(t_uint256)49_storage": {
						"base": "t_uint256",
						"encoding": "inplace",
						"label": "uint256[49]",
						"numberOfBytes": "1568"
					},
					"t_array(t_uint256)50_storage": {
						"base": "t_uint256",
						"encoding": "inplace",
						"label": "uint256[50]",
						"numberOfBytes": "1600"
					},
					"t_bool": {
						"encoding": "inplace",
						"label": "bool",
						"numberOfBytes": "1"
					},
					"t_bytes32": {
						"encoding": "inplace",
						"label": "bytes32",
						"numberOfBytes": "32"
					},
					"t_contract(IERC20Upgradeable)1156": {
						"encoding": "inplace",
						"label": "contract IERC20Upgradeable",
						"numberOfBytes": "20"
					},
					"t_mapping(t_address,t_bool)": {
						"encoding": "mapping",
						"key": "t_address",
						"label": "mapping(address => bool)",
						"numberOfBytes": "32",
						"value": "t_bool"
					},
					"t_mapping(t_address,t_uint256)": {
						"encoding": "mapping",
						"key": "t_address",
						"label": "mapping(address => uint256)",
						"numberOfBytes": "32",
						"value": "t_uint256"
					},
					"t_mapping(t_bytes32,t_struct(RoleData)34_storage)": {
						"encoding": "mapping",
						"key": "t_bytes32",
						"label": "mapping(bytes32 => struct AccessControlUpgradeable.RoleData)",
						"numberOfBytes": "32",
						"value": "t_struct(RoleData)34_storage"
					},
					"t_struct(RoleData)34_storage": {
						"encoding": "inplace",
						"label": "struct AccessControlUpgradeable.RoleData",
						"members": [
							{
								"astId": 31,
								"contract": "contracts/GameVault.sol:GameVault",
								"label": "members",
								"offset": 0,
								"slot": "0",
								"type": "t_mapping(t_address,t_bool)"
							},
							{
								"astId": 33,
								"contract": "contracts/GameVault.sol:GameVault",
								"label": "adminRole",
								"offset": 0,
								"slot": "1",
								"type": "t_bytes32"
							}
						],
						"numberOfBytes": "64"
					},
					"t_uint256": {
						"encoding": "inplace",
						"label": "uint256",
						"numberOfBytes": "32"
					},
					"t_uint8": {
						"encoding": "inplace",
						"label": "uint8",
						"numberOfBytes": "1"
					}
				}
			},
			"userdoc": {
				"kind": "user",
				"methods": {},
				"version": 1
			}
		}
	}
}