{
	"contracts/DevVault.sol": {
		"DevVault": {
			"abi": [
				{
					"anonymous": false,
					"inputs": [
						{
							"indexed": false,
							"internalType": "address",
							"name": "previousAdmin",
							"type": "address"
						},
						{
							"indexed": false,
							"internalType": "address",
							"name": "newAdmin",
							"type": "address"
						}
					],
					"name": "AdminChanged",
					"type": "event"
				},
				{
					"anonymous": false,
					"inputs": [
						{
							"indexed": true,
							"internalType": "address",
							"name": "beacon",
							"type": "address"
						}
					],
					"name": "BeaconUpgraded",
					"type": "event"
				},
				{
					"anonymous": false,
					"inputs": [
						{
							"indexed": false,
							"internalType": "uint8",
							"name": "version",
							"type": "uint8"
						}
					],
					"name": "Initialized",
					"type": "event"
				},
				{
					"anonymous": false,
					"inputs": [
						{
							"indexed": true,
							"internalType": "bytes32",
							"name": "role",
							"type": "bytes32"
						},
						{
							"indexed": true,
							"internalType": "bytes32",
							"name": "previousAdminRole",
							"type": "bytes32"
						},
						{
							"indexed": true,
							"internalType": "bytes32",
							"name": "newAdminRole",
							"type": "bytes32"
						}
					],
					"name": "RoleAdminChanged",
					"type": "event"
				},
				{
					"anonymous": false,
					"inputs": [
						{
							"indexed": true,
							"internalType": "bytes32",
							"name": "role",
							"type": "bytes32"
						},
						{
							"indexed": true,
							"internalType": "address",
							"name": "account",
							"type": "address"
						},
						{
							"indexed": true,
							"internalType": "address",
							"name": "sender",
							"type": "address"
						}
					],
					"name": "RoleGranted",
					"type": "event"
				},
				{
					"anonymous": false,
					"inputs": [
						{
							"indexed": true,
							"internalType": "bytes32",
							"name": "role",
							"type": "bytes32"
						},
						{
							"indexed": true,
							"internalType": "address",
							"name": "account",
							"type": "address"
						},
						{
							"indexed": true,
							"internalType": "address",
							"name": "sender",
							"type": "address"
						}
					],
					"name": "RoleRevoked",
					"type": "event"
				},
				{
					"anonymous": false,
					"inputs": [
						{
							"indexed": true,
							"internalType": "address",
							"name": "implementation",
							"type": "address"
						}
					],
					"name": "Upgraded",
					"type": "event"
				},
				{
					"inputs": [],
					"name": "DEFAULT_ADMIN_ROLE",
					"outputs": [
						{
							"internalType": "bytes32",
							"name": "",
							"type": "bytes32"
						}
					],
					"stateMutability": "view",
					"type": "function"
				},
				{
					"inputs": [
						{
							"internalType": "bytes32",
							"name": "role",
							"type": "bytes32"
						}
					],
					"name": "getRoleAdmin",
					"outputs": [
						{
							"internalType": "bytes32",
							"name": "",
							"type": "bytes32"
						}
					],
					"stateMutability": "view",
					"type": "function"
				},
				{
					"inputs": [
						{
							"internalType": "bytes32",
							"name": "role",
							"type": "bytes32"
						},
						{
							"internalType": "address",
							"name": "account",
							"type": "address"
						}
					],
					"name": "grantRole",
					"outputs": [],
					"stateMutability": "nonpayable",
					"type": "function"
				},
				{
					"inputs": [
						{
							"internalType": "bytes32",
							"name": "role",
							"type": "bytes32"
						},
						{
							"internalType": "address",
							"name": "account",
							"type": "address"
						}
					],
					"name": "hasRole",
					"outputs": [
						{
							"internalType": "bool",
							"name": "",
							"type": "bool"
						}
					],
					"stateMutability": "view",
					"type": "function"
				},
				{
					"inputs": [
						{
							"internalType": "address",
							"name": "_tether",
							"type": "address"
						},
						{
							"internalType": "address",
							"name": "_owner",
							"type": "address"
						}
					],
					"name": "initialize",
					"outputs": [],
					"stateMutability": "nonpayable",
					"type": "function"
				},
				{
					"inputs": [],
					"name": "proxiableUUID",
					"outputs": [
						{
							"internalType": "bytes32",
							"name": "",
							"type": "bytes32"
						}
					],
					"stateMutability": "view",
					"type": "function"
				},
				{
					"inputs": [
						{
							"internalType": "bytes32",
							"name": "role",
							"type": "bytes32"
						},
						{
							"internalType": "address",
							"name": "account",
							"type": "address"
						}
					],
					"name": "renounceRole",
					"outputs": [],
					"stateMutability": "nonpayable",
					"type": "function"
				},
				{
					"inputs": [
						{
							"internalType": "bytes32",
							"name": "role",
							"type": "bytes32"
						},
						{
							"internalType": "address",
							"name": "account",
							"type": "address"
						}
					],
					"name": "revokeRole",
					"outputs": [],
					"stateMutability": "nonpayable",
					"type": "function"
				},
				{
					"inputs": [
						{
							"internalType": "bytes4",
							"name": "interfaceId",
							"type": "bytes4"
						}
					],
					"name": "supportsInterface",
					"outputs": [
						{
							"internalType": "bool",
							"name": "",
							"type": "bool"
						}
					],
					"stateMutability": "view",
					"type": "function"
				},
				{
					"inputs": [
						{
							"internalType": "address",
							"name": "newImplementation",
							"type": "address"
						}
					],
					"name": "upgradeTo",
					"outputs": [],
					"stateMutability": "nonpayable",
					"type": "function"
				},
				{
					"inputs": [
						{
							"internalType": "address",
							"name": "newImplementation",
							"type": "address"
						},
						{
							"internalType": "bytes",
							"name": "data",
							"type": "bytes"
						}
					],
					"name": "upgradeToAndCall",
					"outputs": [],
					"stateMutability": "payable",
					"type": "function"
				},
				{
					"inputs": [
						{
							"internalType": "address",
							"name": "_to",
							"type": "address"
						}
					],
					"name": "withdraw",
					"outputs": [],
					"stateMutability": "nonpayable",
					"type": "function"
				}
			],
			"devdoc": {
				"events": {
					"AdminChanged(address,address)": {
						"details": "Emitted when the admin account has changed."
					},
					"BeaconUpgraded(address)": {
						"details": "Emitted when the beacon is changed."
					},
					"Initialized(uint8)": {
						"details": "Triggered when the contract has been initialized or reinitialized."
					},
					"RoleAdminChanged(bytes32,bytes32,bytes32)": {
						"details": "Emitted when `newAdminRole` is set as ``role``'s admin role, replacing `previousAdminRole` `DEFAULT_ADMIN_ROLE` is the starting admin for all roles, despite {RoleAdminChanged} not being emitted signaling this. _Available since v3.1._"
					},
					"RoleGranted(bytes32,address,address)": {
						"details": "Emitted when `account` is granted `role`. `sender` is the account that originated the contract call, an admin role bearer except when using {AccessControl-_setupRole}."
					},
					"RoleRevoked(bytes32,address,address)": {
						"details": "Emitted when `account` is revoked `role`. `sender` is the account that originated the contract call:   - if using `revokeRole`, it is the admin role bearer   - if using `renounceRole`, it is the role bearer (i.e. `account`)"
					},
					"Upgraded(address)": {
						"details": "Emitted when the implementation is upgraded."
					}
				},
				"kind": "dev",
				"methods": {
					"getRoleAdmin(bytes32)": {
						"details": "Returns the admin role that controls `role`. See {grantRole} and {revokeRole}. To change a role's admin, use {_setRoleAdmin}."
					},
					"grantRole(bytes32,address)": {
						"details": "Grants `role` to `account`. If `account` had not been already granted `role`, emits a {RoleGranted} event. Requirements: - the caller must have ``role``'s admin role. May emit a {RoleGranted} event."
					},
					"hasRole(bytes32,address)": {
						"details": "Returns `true` if `account` has been granted `role`."
					},
					"proxiableUUID()": {
						"details": "Implementation of the ERC1822 {proxiableUUID} function. This returns the storage slot used by the implementation. It is used to validate the implementation's compatibility when performing an upgrade. IMPORTANT: A proxy pointing at a proxiable contract should not be considered proxiable itself, because this risks bricking a proxy that upgrades to it, by delegating to itself until out of gas. Thus it is critical that this function revert if invoked through a proxy. This is guaranteed by the `notDelegated` modifier."
					},
					"renounceRole(bytes32,address)": {
						"details": "Revokes `role` from the calling account. Roles are often managed via {grantRole} and {revokeRole}: this function's purpose is to provide a mechanism for accounts to lose their privileges if they are compromised (such as when a trusted device is misplaced). If the calling account had been revoked `role`, emits a {RoleRevoked} event. Requirements: - the caller must be `account`. May emit a {RoleRevoked} event."
					},
					"revokeRole(bytes32,address)": {
						"details": "Revokes `role` from `account`. If `account` had been granted `role`, emits a {RoleRevoked} event. Requirements: - the caller must have ``role``'s admin role. May emit a {RoleRevoked} event."
					},
					"supportsInterface(bytes4)": {
						"details": "See {IERC165-supportsInterface}."
					},
					"upgradeTo(address)": {
						"custom:oz-upgrades-unsafe-allow-reachable": "delegatecall",
						"details": "Upgrade the implementation of the proxy to `newImplementation`. Calls {_authorizeUpgrade}. Emits an {Upgraded} event."
					},
					"upgradeToAndCall(address,bytes)": {
						"custom:oz-upgrades-unsafe-allow-reachable": "delegatecall",
						"details": "Upgrade the implementation of the proxy to `newImplementation`, and subsequently execute the function call encoded in `data`. Calls {_authorizeUpgrade}. Emits an {Upgraded} event."
					}
				},
				"version": 1
			},
			"evm": {
				"assembly": "    /* \"contracts/DevVault.sol\":381:975  contract DevVault is Initializable, UUPSUpgradeable, AccessControlUpgradeable{... */\n  mstore(0x40, 0xa0)\n    /* \"@openzeppelin/contracts-upgradeable/proxy/utils/UUPSUpgradeable.sol\":1198:1202  this */\n  address\n    /* \"@openzeppelin/contracts-upgradeable/proxy/utils/UUPSUpgradeable.sol\":1155:1203  address private immutable __self = address(this) */\n  0xffffffffffffffffffffffffffffffffffffffff\n  and\n  0x80\n  swap1\n  0xffffffffffffffffffffffffffffffffffffffff\n  and\n  dup2\n  mstore\n  pop\n    /* \"contracts/DevVault.sol\":381:975  contract DevVault is Initializable, UUPSUpgradeable, AccessControlUpgradeable{... */\n  callvalue\n  dup1\n  iszero\n  tag_1\n  jumpi\n  0x00\n  dup1\n  revert\ntag_1:\n  pop\n  mload(0x80)\n  codecopy(0x00, dataOffset(sub_0), dataSize(sub_0))\n  0x00\n  assignImmutable(\"0x44986917507edc118e82cff103288e6e452145dcea4c0554fb5180f3e053ae11\")\n  return(0x00, dataSize(sub_0))\nstop\n\nsub_0: assembly {\n        /* \"contracts/DevVault.sol\":381:975  contract DevVault is Initializable, UUPSUpgradeable, AccessControlUpgradeable{... */\n      mstore(0x40, 0x80)\n      jumpi(tag_1, lt(calldatasize, 0x04))\n      shr(0xe0, calldataload(0x00))\n      dup1\n      0x4f1ef286\n      gt\n      tag_14\n      jumpi\n      dup1\n      0x4f1ef286\n      eq\n      tag_8\n      jumpi\n      dup1\n      0x51cff8d9\n      eq\n      tag_9\n      jumpi\n      dup1\n      0x52d1902d\n      eq\n      tag_10\n      jumpi\n      dup1\n      0x91d14854\n      eq\n      tag_11\n      jumpi\n      dup1\n      0xa217fddf\n      eq\n      tag_12\n      jumpi\n      dup1\n      0xd547741f\n      eq\n      tag_13\n      jumpi\n      jump(tag_1)\n    tag_14:\n      dup1\n      0x01ffc9a7\n      eq\n      tag_2\n      jumpi\n      dup1\n      0x248a9ca3\n      eq\n      tag_3\n      jumpi\n      dup1\n      0x2f2ff15d\n      eq\n      tag_4\n      jumpi\n      dup1\n      0x36568abe\n      eq\n      tag_5\n      jumpi\n      dup1\n      0x3659cfe6\n      eq\n      tag_6\n      jumpi\n      dup1\n      0x485cc955\n      eq\n      tag_7\n      jumpi\n    tag_1:\n      0x00\n      dup1\n      revert\n        /* \"@openzeppelin/contracts-upgradeable/access/AccessControlUpgradeable.sol\":3050:3263  function supportsInterface(bytes4 interfaceId) public view virtual override returns (bool) {... */\n    tag_2:\n      callvalue\n      dup1\n      iszero\n      tag_15\n      jumpi\n      0x00\n      dup1\n      revert\n    tag_15:\n      pop\n      tag_16\n      0x04\n      dup1\n      calldatasize\n      sub\n      dup2\n      add\n      swap1\n      tag_17\n      swap2\n      swap1\n      tag_18\n      jump\t// in\n    tag_17:\n      tag_19\n      jump\t// in\n    tag_16:\n      mload(0x40)\n      tag_20\n      swap2\n      swap1\n      tag_21\n      jump\t// in\n    tag_20:\n      mload(0x40)\n      dup1\n      swap2\n      sub\n      swap1\n      return\n        /* \"@openzeppelin/contracts-upgradeable/access/AccessControlUpgradeable.sol\":4855:4984  function getRoleAdmin(bytes32 role) public view virtual override returns (bytes32) {... */\n    tag_3:\n      callvalue\n      dup1\n      iszero\n      tag_22\n      jumpi\n      0x00\n      dup1\n      revert\n    tag_22:\n      pop\n      tag_23\n      0x04\n      dup1\n      calldatasize\n      sub\n      dup2\n      add\n      swap1\n      tag_24\n      swap2\n      swap1\n      tag_25\n      jump\t// in\n    tag_24:\n      tag_26\n      jump\t// in\n    tag_23:\n      mload(0x40)\n      tag_27\n      swap2\n      swap1\n      tag_28\n      jump\t// in\n    tag_27:\n      mload(0x40)\n      dup1\n      swap2\n      sub\n      swap1\n      return\n        /* \"@openzeppelin/contracts-upgradeable/access/AccessControlUpgradeable.sol\":5280:5425  function grantRole(bytes32 role, address account) public virtual override onlyRole(getRoleAdmin(role)) {... */\n    tag_4:\n      callvalue\n      dup1\n      iszero\n      tag_29\n      jumpi\n      0x00\n      dup1\n      revert\n    tag_29:\n      pop\n      tag_30\n      0x04\n      dup1\n      calldatasize\n      sub\n      dup2\n      add\n      swap1\n      tag_31\n      swap2\n      swap1\n      tag_32\n      jump\t// in\n    tag_31:\n      tag_33\n      jump\t// in\n    tag_30:\n      stop\n        /* \"@openzeppelin/contracts-upgradeable/access/AccessControlUpgradeable.sol\":6389:6603  function renounceRole(bytes32 role, address account) public virtual override {... */\n    tag_5:\n      callvalue\n      dup1\n      iszero\n      tag_34\n      jumpi\n      0x00\n      dup1\n      revert\n    tag_34:\n      pop\n      tag_35\n      0x04\n      dup1\n      calldatasize\n      sub\n      dup2\n      add\n      swap1\n      tag_36\n      swap2\n      swap1\n      tag_32\n      jump\t// in\n    tag_36:\n      tag_37\n      jump\t// in\n    tag_35:\n      stop\n        /* \"@openzeppelin/contracts-upgradeable/proxy/utils/UUPSUpgradeable.sol\":3408:3603  function upgradeTo(address newImplementation) public virtual onlyProxy {... */\n    tag_6:\n      callvalue\n      dup1\n      iszero\n      tag_38\n      jumpi\n      0x00\n      dup1\n      revert\n    tag_38:\n      pop\n      tag_39\n      0x04\n      dup1\n      calldatasize\n      sub\n      dup2\n      add\n      swap1\n      tag_40\n      swap2\n      swap1\n      tag_41\n      jump\t// in\n    tag_40:\n      tag_42\n      jump\t// in\n    tag_39:\n      stop\n        /* \"contracts/DevVault.sol\":495:667  function initialize (address _tether, address _owner) public initializer{... */\n    tag_7:\n      callvalue\n      dup1\n      iszero\n      tag_43\n      jumpi\n      0x00\n      dup1\n      revert\n    tag_43:\n      pop\n      tag_44\n      0x04\n      dup1\n      calldatasize\n      sub\n      dup2\n      add\n      swap1\n      tag_45\n      swap2\n      swap1\n      tag_46\n      jump\t// in\n    tag_45:\n      tag_47\n      jump\t// in\n    tag_44:\n      stop\n        /* \"@openzeppelin/contracts-upgradeable/proxy/utils/UUPSUpgradeable.sol\":3922:4142  function upgradeToAndCall(address newImplementation, bytes memory data) public payable virtual onlyProxy {... */\n    tag_8:\n      tag_48\n      0x04\n      dup1\n      calldatasize\n      sub\n      dup2\n      add\n      swap1\n      tag_49\n      swap2\n      swap1\n      tag_50\n      jump\t// in\n    tag_49:\n      tag_51\n      jump\t// in\n    tag_48:\n      stop\n        /* \"contracts/DevVault.sol\":672:843  function withdraw (address _to) external onlyRole(DEFAULT_ADMIN_ROLE){... */\n    tag_9:\n      callvalue\n      dup1\n      iszero\n      tag_52\n      jumpi\n      0x00\n      dup1\n      revert\n    tag_52:\n      pop\n      tag_53\n      0x04\n      dup1\n      calldatasize\n      sub\n      dup2\n      add\n      swap1\n      tag_54\n      swap2\n      swap1\n      tag_41\n      jump\t// in\n    tag_54:\n      tag_55\n      jump\t// in\n    tag_53:\n      stop\n        /* \"@openzeppelin/contracts-upgradeable/proxy/utils/UUPSUpgradeable.sol\":3027:3158  function proxiableUUID() external view virtual override notDelegated returns (bytes32) {... */\n    tag_10:\n      callvalue\n      dup1\n      iszero\n      tag_56\n      jumpi\n      0x00\n      dup1\n      revert\n    tag_56:\n      pop\n      tag_57\n      tag_58\n      jump\t// in\n    tag_57:\n      mload(0x40)\n      tag_59\n      swap2\n      swap1\n      tag_28\n      jump\t// in\n    tag_59:\n      mload(0x40)\n      dup1\n      swap2\n      sub\n      swap1\n      return\n        /* \"@openzeppelin/contracts-upgradeable/access/AccessControlUpgradeable.sol\":3350:3495  function hasRole(bytes32 role, address account) public view virtual override returns (bool) {... */\n    tag_11:\n      callvalue\n      dup1\n      iszero\n      tag_60\n      jumpi\n      0x00\n      dup1\n      revert\n    tag_60:\n      pop\n      tag_61\n      0x04\n      dup1\n      calldatasize\n      sub\n      dup2\n      add\n      swap1\n      tag_62\n      swap2\n      swap1\n      tag_32\n      jump\t// in\n    tag_62:\n      tag_63\n      jump\t// in\n    tag_61:\n      mload(0x40)\n      tag_64\n      swap2\n      swap1\n      tag_21\n      jump\t// in\n    tag_64:\n      mload(0x40)\n      dup1\n      swap2\n      sub\n      swap1\n      return\n        /* \"@openzeppelin/contracts-upgradeable/access/AccessControlUpgradeable.sol\":2320:2369  bytes32 public constant DEFAULT_ADMIN_ROLE = 0x00 */\n    tag_12:\n      callvalue\n      dup1\n      iszero\n      tag_65\n      jumpi\n      0x00\n      dup1\n      revert\n    tag_65:\n      pop\n      tag_66\n      tag_67\n      jump\t// in\n    tag_66:\n      mload(0x40)\n      tag_68\n      swap2\n      swap1\n      tag_28\n      jump\t// in\n    tag_68:\n      mload(0x40)\n      dup1\n      swap2\n      sub\n      swap1\n      return\n        /* \"@openzeppelin/contracts-upgradeable/access/AccessControlUpgradeable.sol\":5705:5852  function revokeRole(bytes32 role, address account) public virtual override onlyRole(getRoleAdmin(role)) {... */\n    tag_13:\n      callvalue\n      dup1\n      iszero\n      tag_69\n      jumpi\n      0x00\n      dup1\n      revert\n    tag_69:\n      pop\n      tag_70\n      0x04\n      dup1\n      calldatasize\n      sub\n      dup2\n      add\n      swap1\n      tag_71\n      swap2\n      swap1\n      tag_32\n      jump\t// in\n    tag_71:\n      tag_72\n      jump\t// in\n    tag_70:\n      stop\n        /* \"@openzeppelin/contracts-upgradeable/access/AccessControlUpgradeable.sol\":3050:3263  function supportsInterface(bytes4 interfaceId) public view virtual override returns (bool) {... */\n    tag_19:\n        /* \"@openzeppelin/contracts-upgradeable/access/AccessControlUpgradeable.sol\":3135:3139  bool */\n      0x00\n        /* \"@openzeppelin/contracts-upgradeable/access/AccessControlUpgradeable.sol\":3173:3216  type(IAccessControlUpgradeable).interfaceId */\n      0x7965db0b00000000000000000000000000000000000000000000000000000000\n        /* \"@openzeppelin/contracts-upgradeable/access/AccessControlUpgradeable.sol\":3158:3216  interfaceId == type(IAccessControlUpgradeable).interfaceId */\n      not(0xffffffffffffffffffffffffffffffffffffffffffffffffffffffff)\n      and\n        /* \"@openzeppelin/contracts-upgradeable/access/AccessControlUpgradeable.sol\":3158:3169  interfaceId */\n      dup3\n        /* \"@openzeppelin/contracts-upgradeable/access/AccessControlUpgradeable.sol\":3158:3216  interfaceId == type(IAccessControlUpgradeable).interfaceId */\n      not(0xffffffffffffffffffffffffffffffffffffffffffffffffffffffff)\n      and\n      eq\n        /* \"@openzeppelin/contracts-upgradeable/access/AccessControlUpgradeable.sol\":3158:3256  interfaceId == type(IAccessControlUpgradeable).interfaceId || super.supportsInterface(interfaceId) */\n      dup1\n      tag_74\n      jumpi\n      pop\n        /* \"@openzeppelin/contracts-upgradeable/access/AccessControlUpgradeable.sol\":3220:3256  super.supportsInterface(interfaceId) */\n      tag_75\n        /* \"@openzeppelin/contracts-upgradeable/access/AccessControlUpgradeable.sol\":3244:3255  interfaceId */\n      dup3\n        /* \"@openzeppelin/contracts-upgradeable/access/AccessControlUpgradeable.sol\":3220:3243  super.supportsInterface */\n      tag_76\n        /* \"@openzeppelin/contracts-upgradeable/access/AccessControlUpgradeable.sol\":3220:3256  super.supportsInterface(interfaceId) */\n      jump\t// in\n    tag_75:\n        /* \"@openzeppelin/contracts-upgradeable/access/AccessControlUpgradeable.sol\":3158:3256  interfaceId == type(IAccessControlUpgradeable).interfaceId || super.supportsInterface(interfaceId) */\n    tag_74:\n        /* \"@openzeppelin/contracts-upgradeable/access/AccessControlUpgradeable.sol\":3151:3256  return interfaceId == type(IAccessControlUpgradeable).interfaceId || super.supportsInterface(interfaceId) */\n      swap1\n      pop\n        /* \"@openzeppelin/contracts-upgradeable/access/AccessControlUpgradeable.sol\":3050:3263  function supportsInterface(bytes4 interfaceId) public view virtual override returns (bool) {... */\n      swap2\n      swap1\n      pop\n      jump\t// out\n        /* \"@openzeppelin/contracts-upgradeable/access/AccessControlUpgradeable.sol\":4855:4984  function getRoleAdmin(bytes32 role) public view virtual override returns (bytes32) {... */\n    tag_26:\n        /* \"@openzeppelin/contracts-upgradeable/access/AccessControlUpgradeable.sol\":4929:4936  bytes32 */\n      0x00\n        /* \"@openzeppelin/contracts-upgradeable/access/AccessControlUpgradeable.sol\":4955:4961  _roles */\n      0xc9\n        /* \"@openzeppelin/contracts-upgradeable/access/AccessControlUpgradeable.sol\":4955:4967  _roles[role] */\n      0x00\n        /* \"@openzeppelin/contracts-upgradeable/access/AccessControlUpgradeable.sol\":4962:4966  role */\n      dup4\n        /* \"@openzeppelin/contracts-upgradeable/access/AccessControlUpgradeable.sol\":4955:4967  _roles[role] */\n      dup2\n      mstore\n      0x20\n      add\n      swap1\n      dup2\n      mstore\n      0x20\n      add\n      0x00\n      keccak256\n        /* \"@openzeppelin/contracts-upgradeable/access/AccessControlUpgradeable.sol\":4955:4977  _roles[role].adminRole */\n      0x01\n      add\n      sload\n        /* \"@openzeppelin/contracts-upgradeable/access/AccessControlUpgradeable.sol\":4948:4977  return _roles[role].adminRole */\n      swap1\n      pop\n        /* \"@openzeppelin/contracts-upgradeable/access/AccessControlUpgradeable.sol\":4855:4984  function getRoleAdmin(bytes32 role) public view virtual override returns (bytes32) {... */\n      swap2\n      swap1\n      pop\n      jump\t// out\n        /* \"@openzeppelin/contracts-upgradeable/access/AccessControlUpgradeable.sol\":5280:5425  function grantRole(bytes32 role, address account) public virtual override onlyRole(getRoleAdmin(role)) {... */\n    tag_33:\n        /* \"@openzeppelin/contracts-upgradeable/access/AccessControlUpgradeable.sol\":5363:5381  getRoleAdmin(role) */\n      tag_78\n        /* \"@openzeppelin/contracts-upgradeable/access/AccessControlUpgradeable.sol\":5376:5380  role */\n      dup3\n        /* \"@openzeppelin/contracts-upgradeable/access/AccessControlUpgradeable.sol\":5363:5375  getRoleAdmin */\n      tag_26\n        /* \"@openzeppelin/contracts-upgradeable/access/AccessControlUpgradeable.sol\":5363:5381  getRoleAdmin(role) */\n      jump\t// in\n    tag_78:\n        /* \"@openzeppelin/contracts-upgradeable/access/AccessControlUpgradeable.sol\":2798:2814  _checkRole(role) */\n      tag_80\n        /* \"@openzeppelin/contracts-upgradeable/access/AccessControlUpgradeable.sol\":2809:2813  role */\n      dup2\n        /* \"@openzeppelin/contracts-upgradeable/access/AccessControlUpgradeable.sol\":2798:2808  _checkRole */\n      tag_81\n        /* \"@openzeppelin/contracts-upgradeable/access/AccessControlUpgradeable.sol\":2798:2814  _checkRole(role) */\n      jump\t// in\n    tag_80:\n        /* \"@openzeppelin/contracts-upgradeable/access/AccessControlUpgradeable.sol\":5393:5418  _grantRole(role, account) */\n      tag_83\n        /* \"@openzeppelin/contracts-upgradeable/access/AccessControlUpgradeable.sol\":5404:5408  role */\n      dup4\n        /* \"@openzeppelin/contracts-upgradeable/access/AccessControlUpgradeable.sol\":5410:5417  account */\n      dup4\n        /* \"@openzeppelin/contracts-upgradeable/access/AccessControlUpgradeable.sol\":5393:5403  _grantRole */\n      tag_84\n        /* \"@openzeppelin/contracts-upgradeable/access/AccessControlUpgradeable.sol\":5393:5418  _grantRole(role, account) */\n      jump\t// in\n    tag_83:\n        /* \"@openzeppelin/contracts-upgradeable/access/AccessControlUpgradeable.sol\":5280:5425  function grantRole(bytes32 role, address account) public virtual override onlyRole(getRoleAdmin(role)) {... */\n      pop\n      pop\n      pop\n      jump\t// out\n        /* \"@openzeppelin/contracts-upgradeable/access/AccessControlUpgradeable.sol\":6389:6603  function renounceRole(bytes32 role, address account) public virtual override {... */\n    tag_37:\n        /* \"@openzeppelin/contracts-upgradeable/access/AccessControlUpgradeable.sol\":6495:6507  _msgSender() */\n      tag_86\n        /* \"@openzeppelin/contracts-upgradeable/access/AccessControlUpgradeable.sol\":6495:6505  _msgSender */\n      tag_87\n        /* \"@openzeppelin/contracts-upgradeable/access/AccessControlUpgradeable.sol\":6495:6507  _msgSender() */\n      jump\t// in\n    tag_86:\n        /* \"@openzeppelin/contracts-upgradeable/access/AccessControlUpgradeable.sol\":6484:6507  account == _msgSender() */\n      0xffffffffffffffffffffffffffffffffffffffff\n      and\n        /* \"@openzeppelin/contracts-upgradeable/access/AccessControlUpgradeable.sol\":6484:6491  account */\n      dup2\n        /* \"@openzeppelin/contracts-upgradeable/access/AccessControlUpgradeable.sol\":6484:6507  account == _msgSender() */\n      0xffffffffffffffffffffffffffffffffffffffff\n      and\n      eq\n        /* \"@openzeppelin/contracts-upgradeable/access/AccessControlUpgradeable.sol\":6476:6559  require(account == _msgSender(), \"AccessControl: can only renounce roles for self\") */\n      tag_88\n      jumpi\n      mload(0x40)\n      0x08c379a000000000000000000000000000000000000000000000000000000000\n      dup2\n      mstore\n      0x04\n      add\n      tag_89\n      swap1\n      tag_90\n      jump\t// in\n    tag_89:\n      mload(0x40)\n      dup1\n      swap2\n      sub\n      swap1\n      revert\n    tag_88:\n        /* \"@openzeppelin/contracts-upgradeable/access/AccessControlUpgradeable.sol\":6570:6596  _revokeRole(role, account) */\n      tag_91\n        /* \"@openzeppelin/contracts-upgradeable/access/AccessControlUpgradeable.sol\":6582:6586  role */\n      dup3\n        /* \"@openzeppelin/contracts-upgradeable/access/AccessControlUpgradeable.sol\":6588:6595  account */\n      dup3\n        /* \"@openzeppelin/contracts-upgradeable/access/AccessControlUpgradeable.sol\":6570:6581  _revokeRole */\n      tag_92\n        /* \"@openzeppelin/contracts-upgradeable/access/AccessControlUpgradeable.sol\":6570:6596  _revokeRole(role, account) */\n      jump\t// in\n    tag_91:\n        /* \"@openzeppelin/contracts-upgradeable/access/AccessControlUpgradeable.sol\":6389:6603  function renounceRole(bytes32 role, address account) public virtual override {... */\n      pop\n      pop\n      jump\t// out\n        /* \"@openzeppelin/contracts-upgradeable/proxy/utils/UUPSUpgradeable.sol\":3408:3603  function upgradeTo(address newImplementation) public virtual onlyProxy {... */\n    tag_42:\n        /* \"@openzeppelin/contracts-upgradeable/proxy/utils/UUPSUpgradeable.sol\":1764:1770  __self */\n      immutable(\"0x44986917507edc118e82cff103288e6e452145dcea4c0554fb5180f3e053ae11\")\n        /* \"@openzeppelin/contracts-upgradeable/proxy/utils/UUPSUpgradeable.sol\":1747:1770  address(this) != __self */\n      0xffffffffffffffffffffffffffffffffffffffff\n      and\n        /* \"@openzeppelin/contracts-upgradeable/proxy/utils/UUPSUpgradeable.sol\":1755:1759  this */\n      address\n        /* \"@openzeppelin/contracts-upgradeable/proxy/utils/UUPSUpgradeable.sol\":1747:1770  address(this) != __self */\n      0xffffffffffffffffffffffffffffffffffffffff\n      and\n      sub\n        /* \"@openzeppelin/contracts-upgradeable/proxy/utils/UUPSUpgradeable.sol\":1739:1819  require(address(this) != __self, \"Function must be called through delegatecall\") */\n      tag_94\n      jumpi\n      mload(0x40)\n      0x08c379a000000000000000000000000000000000000000000000000000000000\n      dup2\n      mstore\n      0x04\n      add\n      tag_95\n      swap1\n      tag_96\n      jump\t// in\n    tag_95:\n      mload(0x40)\n      dup1\n      swap2\n      sub\n      swap1\n      revert\n    tag_94:\n        /* \"@openzeppelin/contracts-upgradeable/proxy/utils/UUPSUpgradeable.sol\":1861:1867  __self */\n      immutable(\"0x44986917507edc118e82cff103288e6e452145dcea4c0554fb5180f3e053ae11\")\n        /* \"@openzeppelin/contracts-upgradeable/proxy/utils/UUPSUpgradeable.sol\":1837:1867  _getImplementation() == __self */\n      0xffffffffffffffffffffffffffffffffffffffff\n      and\n        /* \"@openzeppelin/contracts-upgradeable/proxy/utils/UUPSUpgradeable.sol\":1837:1857  _getImplementation() */\n      tag_97\n        /* \"@openzeppelin/contracts-upgradeable/proxy/utils/UUPSUpgradeable.sol\":1837:1855  _getImplementation */\n      tag_98\n        /* \"@openzeppelin/contracts-upgradeable/proxy/utils/UUPSUpgradeable.sol\":1837:1857  _getImplementation() */\n      jump\t// in\n    tag_97:\n        /* \"@openzeppelin/contracts-upgradeable/proxy/utils/UUPSUpgradeable.sol\":1837:1867  _getImplementation() == __self */\n      0xffffffffffffffffffffffffffffffffffffffff\n      and\n      eq\n        /* \"@openzeppelin/contracts-upgradeable/proxy/utils/UUPSUpgradeable.sol\":1829:1916  require(_getImplementation() == __self, \"Function must be called through active proxy\") */\n      tag_99\n      jumpi\n      mload(0x40)\n      0x08c379a000000000000000000000000000000000000000000000000000000000\n      dup2\n      mstore\n      0x04\n      add\n      tag_100\n      swap1\n      tag_101\n      jump\t// in\n    tag_100:\n      mload(0x40)\n      dup1\n      swap2\n      sub\n      swap1\n      revert\n    tag_99:\n        /* \"@openzeppelin/contracts-upgradeable/proxy/utils/UUPSUpgradeable.sol\":3489:3525  _authorizeUpgrade(newImplementation) */\n      tag_103\n        /* \"@openzeppelin/contracts-upgradeable/proxy/utils/UUPSUpgradeable.sol\":3507:3524  newImplementation */\n      dup2\n        /* \"@openzeppelin/contracts-upgradeable/proxy/utils/UUPSUpgradeable.sol\":3489:3506  _authorizeUpgrade */\n      tag_104\n        /* \"@openzeppelin/contracts-upgradeable/proxy/utils/UUPSUpgradeable.sol\":3489:3525  _authorizeUpgrade(newImplementation) */\n      jump\t// in\n    tag_103:\n        /* \"@openzeppelin/contracts-upgradeable/proxy/utils/UUPSUpgradeable.sol\":3535:3596  _upgradeToAndCallUUPS(newImplementation, new bytes(0), false) */\n      tag_105\n        /* \"@openzeppelin/contracts-upgradeable/proxy/utils/UUPSUpgradeable.sol\":3557:3574  newImplementation */\n      dup2\n        /* \"@openzeppelin/contracts-upgradeable/proxy/utils/UUPSUpgradeable.sol\":3586:3587  0 */\n      0x00\n        /* \"@openzeppelin/contracts-upgradeable/proxy/utils/UUPSUpgradeable.sol\":3576:3588  new bytes(0) */\n      0xffffffffffffffff\n      dup2\n      gt\n      iszero\n      tag_106\n      jumpi\n      tag_107\n      tag_108\n      jump\t// in\n    tag_107:\n    tag_106:\n      mload(0x40)\n      swap1\n      dup1\n      dup3\n      mstore\n      dup1\n      0x1f\n      add\n      not(0x1f)\n      and\n      0x20\n      add\n      dup3\n      add\n      0x40\n      mstore\n      dup1\n      iszero\n      tag_109\n      jumpi\n      dup2\n      0x20\n      add\n      0x01\n      dup3\n      mul\n      dup1\n      calldatasize\n      dup4\n      calldatacopy\n      dup1\n      dup3\n      add\n      swap2\n      pop\n      pop\n      swap1\n      pop\n    tag_109:\n      pop\n        /* \"@openzeppelin/contracts-upgradeable/proxy/utils/UUPSUpgradeable.sol\":3590:3595  false */\n      0x00\n        /* \"@openzeppelin/contracts-upgradeable/proxy/utils/UUPSUpgradeable.sol\":3535:3556  _upgradeToAndCallUUPS */\n      tag_110\n        /* \"@openzeppelin/contracts-upgradeable/proxy/utils/UUPSUpgradeable.sol\":3535:3596  _upgradeToAndCallUUPS(newImplementation, new bytes(0), false) */\n      jump\t// in\n    tag_105:\n        /* \"@openzeppelin/contracts-upgradeable/proxy/utils/UUPSUpgradeable.sol\":3408:3603  function upgradeTo(address newImplementation) public virtual onlyProxy {... */\n      pop\n      jump\t// out\n        /* \"contracts/DevVault.sol\":495:667  function initialize (address _tether, address _owner) public initializer{... */\n    tag_47:\n        /* \"@openzeppelin/contracts-upgradeable/proxy/utils/Initializable.sol\":3279:3298  bool isTopLevelCall */\n      0x00\n        /* \"@openzeppelin/contracts-upgradeable/proxy/utils/Initializable.sol\":3302:3315  _initializing */\n      dup1\n      0x01\n      swap1\n      sload\n      swap1\n      0x0100\n      exp\n      swap1\n      div\n      0xff\n      and\n        /* \"@openzeppelin/contracts-upgradeable/proxy/utils/Initializable.sol\":3301:3315  !_initializing */\n      iszero\n        /* \"@openzeppelin/contracts-upgradeable/proxy/utils/Initializable.sol\":3279:3315  bool isTopLevelCall = !_initializing */\n      swap1\n      pop\n        /* \"@openzeppelin/contracts-upgradeable/proxy/utils/Initializable.sol\":3347:3361  isTopLevelCall */\n      dup1\n        /* \"@openzeppelin/contracts-upgradeable/proxy/utils/Initializable.sol\":3347:3381  isTopLevelCall && _initialized < 1 */\n      dup1\n      iszero\n      tag_112\n      jumpi\n      pop\n        /* \"@openzeppelin/contracts-upgradeable/proxy/utils/Initializable.sol\":3380:3381  1 */\n      0x01\n        /* \"@openzeppelin/contracts-upgradeable/proxy/utils/Initializable.sol\":3365:3377  _initialized */\n      0x00\n      dup1\n      sload\n      swap1\n      0x0100\n      exp\n      swap1\n      div\n      0xff\n      and\n        /* \"@openzeppelin/contracts-upgradeable/proxy/utils/Initializable.sol\":3365:3381  _initialized < 1 */\n      0xff\n      and\n      lt\n        /* \"@openzeppelin/contracts-upgradeable/proxy/utils/Initializable.sol\":3347:3381  isTopLevelCall && _initialized < 1 */\n    tag_112:\n        /* \"@openzeppelin/contracts-upgradeable/proxy/utils/Initializable.sol\":3346:3454  (isTopLevelCall && _initialized < 1) || (!AddressUpgradeable.isContract(address(this)) && _initialized == 1) */\n      dup1\n      tag_113\n      jumpi\n      pop\n        /* \"@openzeppelin/contracts-upgradeable/proxy/utils/Initializable.sol\":3388:3432  AddressUpgradeable.isContract(address(this)) */\n      tag_114\n        /* \"@openzeppelin/contracts-upgradeable/proxy/utils/Initializable.sol\":3426:3430  this */\n      address\n        /* \"@openzeppelin/contracts-upgradeable/proxy/utils/Initializable.sol\":3388:3417  AddressUpgradeable.isContract */\n      tag_115\n        /* \"@openzeppelin/contracts-upgradeable/proxy/utils/Initializable.sol\":3388:3432  AddressUpgradeable.isContract(address(this)) */\n      jump\t// in\n    tag_114:\n        /* \"@openzeppelin/contracts-upgradeable/proxy/utils/Initializable.sol\":3387:3432  !AddressUpgradeable.isContract(address(this)) */\n      iszero\n        /* \"@openzeppelin/contracts-upgradeable/proxy/utils/Initializable.sol\":3387:3453  !AddressUpgradeable.isContract(address(this)) && _initialized == 1 */\n      dup1\n      iszero\n      tag_116\n      jumpi\n      pop\n        /* \"@openzeppelin/contracts-upgradeable/proxy/utils/Initializable.sol\":3452:3453  1 */\n      0x01\n        /* \"@openzeppelin/contracts-upgradeable/proxy/utils/Initializable.sol\":3436:3448  _initialized */\n      0x00\n      dup1\n      sload\n      swap1\n      0x0100\n      exp\n      swap1\n      div\n      0xff\n      and\n        /* \"@openzeppelin/contracts-upgradeable/proxy/utils/Initializable.sol\":3436:3453  _initialized == 1 */\n      0xff\n      and\n      eq\n        /* \"@openzeppelin/contracts-upgradeable/proxy/utils/Initializable.sol\":3387:3453  !AddressUpgradeable.isContract(address(this)) && _initialized == 1 */\n    tag_116:\n        /* \"@openzeppelin/contracts-upgradeable/proxy/utils/Initializable.sol\":3346:3454  (isTopLevelCall && _initialized < 1) || (!AddressUpgradeable.isContract(address(this)) && _initialized == 1) */\n    tag_113:\n        /* \"@openzeppelin/contracts-upgradeable/proxy/utils/Initializable.sol\":3325:3526  require(... */\n      tag_117\n      jumpi\n      mload(0x40)\n      0x08c379a000000000000000000000000000000000000000000000000000000000\n      dup2\n      mstore\n      0x04\n      add\n      tag_118\n      swap1\n      tag_119\n      jump\t// in\n    tag_118:\n      mload(0x40)\n      dup1\n      swap2\n      sub\n      swap1\n      revert\n    tag_117:\n        /* \"@openzeppelin/contracts-upgradeable/proxy/utils/Initializable.sol\":3551:3552  1 */\n      0x01\n        /* \"@openzeppelin/contracts-upgradeable/proxy/utils/Initializable.sol\":3536:3548  _initialized */\n      0x00\n      dup1\n        /* \"@openzeppelin/contracts-upgradeable/proxy/utils/Initializable.sol\":3536:3552  _initialized = 1 */\n      0x0100\n      exp\n      dup2\n      sload\n      dup2\n      0xff\n      mul\n      not\n      and\n      swap1\n      dup4\n      0xff\n      and\n      mul\n      or\n      swap1\n      sstore\n      pop\n        /* \"@openzeppelin/contracts-upgradeable/proxy/utils/Initializable.sol\":3566:3580  isTopLevelCall */\n      dup1\n        /* \"@openzeppelin/contracts-upgradeable/proxy/utils/Initializable.sol\":3562:3627  if (isTopLevelCall) {... */\n      iszero\n      tag_120\n      jumpi\n        /* \"@openzeppelin/contracts-upgradeable/proxy/utils/Initializable.sol\":3612:3616  true */\n      0x01\n        /* \"@openzeppelin/contracts-upgradeable/proxy/utils/Initializable.sol\":3596:3609  _initializing */\n      0x00\n      0x01\n        /* \"@openzeppelin/contracts-upgradeable/proxy/utils/Initializable.sol\":3596:3616  _initializing = true */\n      0x0100\n      exp\n      dup2\n      sload\n      dup2\n      0xff\n      mul\n      not\n      and\n      swap1\n      dup4\n      iszero\n      iszero\n      mul\n      or\n      swap1\n      sstore\n      pop\n        /* \"@openzeppelin/contracts-upgradeable/proxy/utils/Initializable.sol\":3562:3627  if (isTopLevelCall) {... */\n    tag_120:\n        /* \"contracts/DevVault.sol\":577:615  _setupRole(DEFAULT_ADMIN_ROLE, _owner) */\n      tag_122\n        /* \"@openzeppelin/contracts-upgradeable/access/AccessControlUpgradeable.sol\":2365:2369  0x00 */\n      0x00\n        /* \"contracts/DevVault.sol\":588:606  DEFAULT_ADMIN_ROLE */\n      dup1\n      shl\n        /* \"contracts/DevVault.sol\":608:614  _owner */\n      dup4\n        /* \"contracts/DevVault.sol\":577:587  _setupRole */\n      tag_123\n        /* \"contracts/DevVault.sol\":577:615  _setupRole(DEFAULT_ADMIN_ROLE, _owner) */\n      jump\t// in\n    tag_122:\n        /* \"contracts/DevVault.sol\":652:659  _tether */\n      dup3\n        /* \"contracts/DevVault.sol\":625:631  tether */\n      0xfb\n      0x00\n        /* \"contracts/DevVault.sol\":625:660  tether = IERC20Upgradeable(_tether) */\n      0x0100\n      exp\n      dup2\n      sload\n      dup2\n      0xffffffffffffffffffffffffffffffffffffffff\n      mul\n      not\n      and\n      swap1\n      dup4\n      0xffffffffffffffffffffffffffffffffffffffff\n      and\n      mul\n      or\n      swap1\n      sstore\n      pop\n        /* \"@openzeppelin/contracts-upgradeable/proxy/utils/Initializable.sol\":3651:3665  isTopLevelCall */\n      dup1\n        /* \"@openzeppelin/contracts-upgradeable/proxy/utils/Initializable.sol\":3647:3746  if (isTopLevelCall) {... */\n      iszero\n      tag_124\n      jumpi\n        /* \"@openzeppelin/contracts-upgradeable/proxy/utils/Initializable.sol\":3697:3702  false */\n      0x00\n        /* \"@openzeppelin/contracts-upgradeable/proxy/utils/Initializable.sol\":3681:3694  _initializing */\n      dup1\n      0x01\n        /* \"@openzeppelin/contracts-upgradeable/proxy/utils/Initializable.sol\":3681:3702  _initializing = false */\n      0x0100\n      exp\n      dup2\n      sload\n      dup2\n      0xff\n      mul\n      not\n      and\n      swap1\n      dup4\n      iszero\n      iszero\n      mul\n      or\n      swap1\n      sstore\n      pop\n        /* \"@openzeppelin/contracts-upgradeable/proxy/utils/Initializable.sol\":3721:3735  Initialized(1) */\n      0x7f26b83ff96e1f2b6a682f133852f6798a09c465da95921460cefb3847402498\n        /* \"@openzeppelin/contracts-upgradeable/proxy/utils/Initializable.sol\":3733:3734  1 */\n      0x01\n        /* \"@openzeppelin/contracts-upgradeable/proxy/utils/Initializable.sol\":3721:3735  Initialized(1) */\n      mload(0x40)\n      tag_125\n      swap2\n      swap1\n      tag_126\n      jump\t// in\n    tag_125:\n      mload(0x40)\n      dup1\n      swap2\n      sub\n      swap1\n      log1\n        /* \"@openzeppelin/contracts-upgradeable/proxy/utils/Initializable.sol\":3647:3746  if (isTopLevelCall) {... */\n    tag_124:\n        /* \"@openzeppelin/contracts-upgradeable/proxy/utils/Initializable.sol\":3269:3752  {... */\n      pop\n        /* \"contracts/DevVault.sol\":495:667  function initialize (address _tether, address _owner) public initializer{... */\n      pop\n      pop\n      jump\t// out\n        /* \"@openzeppelin/contracts-upgradeable/proxy/utils/UUPSUpgradeable.sol\":3922:4142  function upgradeToAndCall(address newImplementation, bytes memory data) public payable virtual onlyProxy {... */\n    tag_51:\n        /* \"@openzeppelin/contracts-upgradeable/proxy/utils/UUPSUpgradeable.sol\":1764:1770  __self */\n      immutable(\"0x44986917507edc118e82cff103288e6e452145dcea4c0554fb5180f3e053ae11\")\n        /* \"@openzeppelin/contracts-upgradeable/proxy/utils/UUPSUpgradeable.sol\":1747:1770  address(this) != __self */\n      0xffffffffffffffffffffffffffffffffffffffff\n      and\n        /* \"@openzeppelin/contracts-upgradeable/proxy/utils/UUPSUpgradeable.sol\":1755:1759  this */\n      address\n        /* \"@openzeppelin/contracts-upgradeable/proxy/utils/UUPSUpgradeable.sol\":1747:1770  address(this) != __self */\n      0xffffffffffffffffffffffffffffffffffffffff\n      and\n      sub\n        /* \"@openzeppelin/contracts-upgradeable/proxy/utils/UUPSUpgradeable.sol\":1739:1819  require(address(this) != __self, \"Function must be called through delegatecall\") */\n      tag_128\n      jumpi\n      mload(0x40)\n      0x08c379a000000000000000000000000000000000000000000000000000000000\n      dup2\n      mstore\n      0x04\n      add\n      tag_129\n      swap1\n      tag_96\n      jump\t// in\n    tag_129:\n      mload(0x40)\n      dup1\n      swap2\n      sub\n      swap1\n      revert\n    tag_128:\n        /* \"@openzeppelin/contracts-upgradeable/proxy/utils/UUPSUpgradeable.sol\":1861:1867  __self */\n      immutable(\"0x44986917507edc118e82cff103288e6e452145dcea4c0554fb5180f3e053ae11\")\n        /* \"@openzeppelin/contracts-upgradeable/proxy/utils/UUPSUpgradeable.sol\":1837:1867  _getImplementation() == __self */\n      0xffffffffffffffffffffffffffffffffffffffff\n      and\n        /* \"@openzeppelin/contracts-upgradeable/proxy/utils/UUPSUpgradeable.sol\":1837:1857  _getImplementation() */\n      tag_130\n        /* \"@openzeppelin/contracts-upgradeable/proxy/utils/UUPSUpgradeable.sol\":1837:1855  _getImplementation */\n      tag_98\n        /* \"@openzeppelin/contracts-upgradeable/proxy/utils/UUPSUpgradeable.sol\":1837:1857  _getImplementation() */\n      jump\t// in\n    tag_130:\n        /* \"@openzeppelin/contracts-upgradeable/proxy/utils/UUPSUpgradeable.sol\":1837:1867  _getImplementation() == __self */\n      0xffffffffffffffffffffffffffffffffffffffff\n      and\n      eq\n        /* \"@openzeppelin/contracts-upgradeable/proxy/utils/UUPSUpgradeable.sol\":1829:1916  require(_getImplementation() == __self, \"Function must be called through active proxy\") */\n      tag_131\n      jumpi\n      mload(0x40)\n      0x08c379a000000000000000000000000000000000000000000000000000000000\n      dup2\n      mstore\n      0x04\n      add\n      tag_132\n      swap1\n      tag_101\n      jump\t// in\n    tag_132:\n      mload(0x40)\n      dup1\n      swap2\n      sub\n      swap1\n      revert\n    tag_131:\n        /* \"@openzeppelin/contracts-upgradeable/proxy/utils/UUPSUpgradeable.sol\":4037:4073  _authorizeUpgrade(newImplementation) */\n      tag_134\n        /* \"@openzeppelin/contracts-upgradeable/proxy/utils/UUPSUpgradeable.sol\":4055:4072  newImplementation */\n      dup3\n        /* \"@openzeppelin/contracts-upgradeable/proxy/utils/UUPSUpgradeable.sol\":4037:4054  _authorizeUpgrade */\n      tag_104\n        /* \"@openzeppelin/contracts-upgradeable/proxy/utils/UUPSUpgradeable.sol\":4037:4073  _authorizeUpgrade(newImplementation) */\n      jump\t// in\n    tag_134:\n        /* \"@openzeppelin/contracts-upgradeable/proxy/utils/UUPSUpgradeable.sol\":4083:4135  _upgradeToAndCallUUPS(newImplementation, data, true) */\n      tag_135\n        /* \"@openzeppelin/contracts-upgradeable/proxy/utils/UUPSUpgradeable.sol\":4105:4122  newImplementation */\n      dup3\n        /* \"@openzeppelin/contracts-upgradeable/proxy/utils/UUPSUpgradeable.sol\":4124:4128  data */\n      dup3\n        /* \"@openzeppelin/contracts-upgradeable/proxy/utils/UUPSUpgradeable.sol\":4130:4134  true */\n      0x01\n        /* \"@openzeppelin/contracts-upgradeable/proxy/utils/UUPSUpgradeable.sol\":4083:4104  _upgradeToAndCallUUPS */\n      tag_110\n        /* \"@openzeppelin/contracts-upgradeable/proxy/utils/UUPSUpgradeable.sol\":4083:4135  _upgradeToAndCallUUPS(newImplementation, data, true) */\n      jump\t// in\n    tag_135:\n        /* \"@openzeppelin/contracts-upgradeable/proxy/utils/UUPSUpgradeable.sol\":3922:4142  function upgradeToAndCall(address newImplementation, bytes memory data) public payable virtual onlyProxy {... */\n      pop\n      pop\n      jump\t// out\n        /* \"contracts/DevVault.sol\":672:843  function withdraw (address _to) external onlyRole(DEFAULT_ADMIN_ROLE){... */\n    tag_55:\n        /* \"@openzeppelin/contracts-upgradeable/access/AccessControlUpgradeable.sol\":2365:2369  0x00 */\n      0x00\n        /* \"contracts/DevVault.sol\":722:740  DEFAULT_ADMIN_ROLE */\n      dup1\n      shl\n        /* \"@openzeppelin/contracts-upgradeable/access/AccessControlUpgradeable.sol\":2798:2814  _checkRole(role) */\n      tag_137\n        /* \"@openzeppelin/contracts-upgradeable/access/AccessControlUpgradeable.sol\":2809:2813  role */\n      dup2\n        /* \"@openzeppelin/contracts-upgradeable/access/AccessControlUpgradeable.sol\":2798:2808  _checkRole */\n      tag_81\n        /* \"@openzeppelin/contracts-upgradeable/access/AccessControlUpgradeable.sol\":2798:2814  _checkRole(role) */\n      jump\t// in\n    tag_137:\n        /* \"contracts/DevVault.sol\":751:763  uint balance */\n      0x00\n        /* \"contracts/DevVault.sol\":766:772  tether */\n      0xfb\n      0x00\n      swap1\n      sload\n      swap1\n      0x0100\n      exp\n      swap1\n      div\n      0xffffffffffffffffffffffffffffffffffffffff\n      and\n        /* \"contracts/DevVault.sol\":766:782  tether.balanceOf */\n      0xffffffffffffffffffffffffffffffffffffffff\n      and\n      0x70a08231\n        /* \"contracts/DevVault.sol\":791:795  this */\n      address\n        /* \"contracts/DevVault.sol\":766:797  tether.balanceOf(address(this)) */\n      mload(0x40)\n      dup3\n      0xffffffff\n      and\n      0xe0\n      shl\n      dup2\n      mstore\n      0x04\n      add\n      tag_139\n      swap2\n      swap1\n      tag_140\n      jump\t// in\n    tag_139:\n      0x20\n      mload(0x40)\n      dup1\n      dup4\n      sub\n      dup2\n      dup7\n      gas\n      staticcall\n      iszero\n      dup1\n      iszero\n      tag_142\n      jumpi\n      returndatasize\n      0x00\n      dup1\n      returndatacopy\n      revert(0x00, returndatasize)\n    tag_142:\n      pop\n      pop\n      pop\n      pop\n      mload(0x40)\n      returndatasize\n      not(0x1f)\n      0x1f\n      dup3\n      add\n      and\n      dup3\n      add\n      dup1\n      0x40\n      mstore\n      pop\n      dup2\n      add\n      swap1\n      tag_143\n      swap2\n      swap1\n      tag_144\n      jump\t// in\n    tag_143:\n        /* \"contracts/DevVault.sol\":751:797  uint balance = tether.balanceOf(address(this)) */\n      swap1\n      pop\n        /* \"contracts/DevVault.sol\":807:813  tether */\n      0xfb\n      0x00\n      swap1\n      sload\n      swap1\n      0x0100\n      exp\n      swap1\n      div\n      0xffffffffffffffffffffffffffffffffffffffff\n      and\n        /* \"contracts/DevVault.sol\":807:822  tether.transfer */\n      0xffffffffffffffffffffffffffffffffffffffff\n      and\n      0xa9059cbb\n        /* \"contracts/DevVault.sol\":823:826  _to */\n      dup5\n        /* \"contracts/DevVault.sol\":828:835  balance */\n      dup4\n        /* \"contracts/DevVault.sol\":807:836  tether.transfer(_to, balance) */\n      mload(0x40)\n      dup4\n      0xffffffff\n      and\n      0xe0\n      shl\n      dup2\n      mstore\n      0x04\n      add\n      tag_145\n      swap3\n      swap2\n      swap1\n      tag_146\n      jump\t// in\n    tag_145:\n      0x20\n      mload(0x40)\n      dup1\n      dup4\n      sub\n      dup2\n      0x00\n      dup8\n      gas\n      call\n      iszero\n      dup1\n      iszero\n      tag_148\n      jumpi\n      returndatasize\n      0x00\n      dup1\n      returndatacopy\n      revert(0x00, returndatasize)\n    tag_148:\n      pop\n      pop\n      pop\n      pop\n      mload(0x40)\n      returndatasize\n      not(0x1f)\n      0x1f\n      dup3\n      add\n      and\n      dup3\n      add\n      dup1\n      0x40\n      mstore\n      pop\n      dup2\n      add\n      swap1\n      tag_149\n      swap2\n      swap1\n      tag_150\n      jump\t// in\n    tag_149:\n      pop\n        /* \"contracts/DevVault.sol\":741:843  {... */\n      pop\n        /* \"contracts/DevVault.sol\":672:843  function withdraw (address _to) external onlyRole(DEFAULT_ADMIN_ROLE){... */\n      pop\n      pop\n      jump\t// out\n        /* \"@openzeppelin/contracts-upgradeable/proxy/utils/UUPSUpgradeable.sol\":3027:3158  function proxiableUUID() external view virtual override notDelegated returns (bytes32) {... */\n    tag_58:\n        /* \"@openzeppelin/contracts-upgradeable/proxy/utils/UUPSUpgradeable.sol\":3105:3112  bytes32 */\n      0x00\n        /* \"@openzeppelin/contracts-upgradeable/proxy/utils/UUPSUpgradeable.sol\":2199:2205  __self */\n      immutable(\"0x44986917507edc118e82cff103288e6e452145dcea4c0554fb5180f3e053ae11\")\n        /* \"@openzeppelin/contracts-upgradeable/proxy/utils/UUPSUpgradeable.sol\":2182:2205  address(this) == __self */\n      0xffffffffffffffffffffffffffffffffffffffff\n      and\n        /* \"@openzeppelin/contracts-upgradeable/proxy/utils/UUPSUpgradeable.sol\":2190:2194  this */\n      address\n        /* \"@openzeppelin/contracts-upgradeable/proxy/utils/UUPSUpgradeable.sol\":2182:2205  address(this) == __self */\n      0xffffffffffffffffffffffffffffffffffffffff\n      and\n      eq\n        /* \"@openzeppelin/contracts-upgradeable/proxy/utils/UUPSUpgradeable.sol\":2174:2266  require(address(this) == __self, \"UUPSUpgradeable: must not be called through delegatecall\") */\n      tag_152\n      jumpi\n      mload(0x40)\n      0x08c379a000000000000000000000000000000000000000000000000000000000\n      dup2\n      mstore\n      0x04\n      add\n      tag_153\n      swap1\n      tag_154\n      jump\t// in\n    tag_153:\n      mload(0x40)\n      dup1\n      swap2\n      sub\n      swap1\n      revert\n    tag_152:\n        /* \"@openzeppelin/contracts-upgradeable/proxy/ERC1967/ERC1967UpgradeUpgradeable.sol\":1180:1246  0x360894a13ba1a3210667c828492db98dca3e2076cc3735a920a3ca505d382bbc */\n      0x360894a13ba1a3210667c828492db98dca3e2076cc3735a920a3ca505d382bbc\n        /* \"@openzeppelin/contracts-upgradeable/proxy/utils/UUPSUpgradeable.sol\":3131:3151  _IMPLEMENTATION_SLOT */\n      0x00\n      shl\n        /* \"@openzeppelin/contracts-upgradeable/proxy/utils/UUPSUpgradeable.sol\":3124:3151  return _IMPLEMENTATION_SLOT */\n      swap1\n      pop\n        /* \"@openzeppelin/contracts-upgradeable/proxy/utils/UUPSUpgradeable.sol\":3027:3158  function proxiableUUID() external view virtual override notDelegated returns (bytes32) {... */\n      swap1\n      jump\t// out\n        /* \"@openzeppelin/contracts-upgradeable/access/AccessControlUpgradeable.sol\":3350:3495  function hasRole(bytes32 role, address account) public view virtual override returns (bool) {... */\n    tag_63:\n        /* \"@openzeppelin/contracts-upgradeable/access/AccessControlUpgradeable.sol\":3436:3440  bool */\n      0x00\n        /* \"@openzeppelin/contracts-upgradeable/access/AccessControlUpgradeable.sol\":3459:3465  _roles */\n      0xc9\n        /* \"@openzeppelin/contracts-upgradeable/access/AccessControlUpgradeable.sol\":3459:3471  _roles[role] */\n      0x00\n        /* \"@openzeppelin/contracts-upgradeable/access/AccessControlUpgradeable.sol\":3466:3470  role */\n      dup5\n        /* \"@openzeppelin/contracts-upgradeable/access/AccessControlUpgradeable.sol\":3459:3471  _roles[role] */\n      dup2\n      mstore\n      0x20\n      add\n      swap1\n      dup2\n      mstore\n      0x20\n      add\n      0x00\n      keccak256\n        /* \"@openzeppelin/contracts-upgradeable/access/AccessControlUpgradeable.sol\":3459:3479  _roles[role].members */\n      0x00\n      add\n        /* \"@openzeppelin/contracts-upgradeable/access/AccessControlUpgradeable.sol\":3459:3488  _roles[role].members[account] */\n      0x00\n        /* \"@openzeppelin/contracts-upgradeable/access/AccessControlUpgradeable.sol\":3480:3487  account */\n      dup4\n        /* \"@openzeppelin/contracts-upgradeable/access/AccessControlUpgradeable.sol\":3459:3488  _roles[role].members[account] */\n      0xffffffffffffffffffffffffffffffffffffffff\n      and\n      0xffffffffffffffffffffffffffffffffffffffff\n      and\n      dup2\n      mstore\n      0x20\n      add\n      swap1\n      dup2\n      mstore\n      0x20\n      add\n      0x00\n      keccak256\n      0x00\n      swap1\n      sload\n      swap1\n      0x0100\n      exp\n      swap1\n      div\n      0xff\n      and\n        /* \"@openzeppelin/contracts-upgradeable/access/AccessControlUpgradeable.sol\":3452:3488  return _roles[role].members[account] */\n      swap1\n      pop\n        /* \"@openzeppelin/contracts-upgradeable/access/AccessControlUpgradeable.sol\":3350:3495  function hasRole(bytes32 role, address account) public view virtual override returns (bool) {... */\n      swap3\n      swap2\n      pop\n      pop\n      jump\t// out\n        /* \"@openzeppelin/contracts-upgradeable/access/AccessControlUpgradeable.sol\":2320:2369  bytes32 public constant DEFAULT_ADMIN_ROLE = 0x00 */\n    tag_67:\n        /* \"@openzeppelin/contracts-upgradeable/access/AccessControlUpgradeable.sol\":2365:2369  0x00 */\n      0x00\n        /* \"@openzeppelin/contracts-upgradeable/access/AccessControlUpgradeable.sol\":2320:2369  bytes32 public constant DEFAULT_ADMIN_ROLE = 0x00 */\n      dup1\n      shl\n      dup2\n      jump\t// out\n        /* \"@openzeppelin/contracts-upgradeable/access/AccessControlUpgradeable.sol\":5705:5852  function revokeRole(bytes32 role, address account) public virtual override onlyRole(getRoleAdmin(role)) {... */\n    tag_72:\n        /* \"@openzeppelin/contracts-upgradeable/access/AccessControlUpgradeable.sol\":5789:5807  getRoleAdmin(role) */\n      tag_157\n        /* \"@openzeppelin/contracts-upgradeable/access/AccessControlUpgradeable.sol\":5802:5806  role */\n      dup3\n        /* \"@openzeppelin/contracts-upgradeable/access/AccessControlUpgradeable.sol\":5789:5801  getRoleAdmin */\n      tag_26\n        /* \"@openzeppelin/contracts-upgradeable/access/AccessControlUpgradeable.sol\":5789:5807  getRoleAdmin(role) */\n      jump\t// in\n    tag_157:\n        /* \"@openzeppelin/contracts-upgradeable/access/AccessControlUpgradeable.sol\":2798:2814  _checkRole(role) */\n      tag_159\n        /* \"@openzeppelin/contracts-upgradeable/access/AccessControlUpgradeable.sol\":2809:2813  role */\n      dup2\n        /* \"@openzeppelin/contracts-upgradeable/access/AccessControlUpgradeable.sol\":2798:2808  _checkRole */\n      tag_81\n        /* \"@openzeppelin/contracts-upgradeable/access/AccessControlUpgradeable.sol\":2798:2814  _checkRole(role) */\n      jump\t// in\n    tag_159:\n        /* \"@openzeppelin/contracts-upgradeable/access/AccessControlUpgradeable.sol\":5819:5845  _revokeRole(role, account) */\n      tag_161\n        /* \"@openzeppelin/contracts-upgradeable/access/AccessControlUpgradeable.sol\":5831:5835  role */\n      dup4\n        /* \"@openzeppelin/contracts-upgradeable/access/AccessControlUpgradeable.sol\":5837:5844  account */\n      dup4\n        /* \"@openzeppelin/contracts-upgradeable/access/AccessControlUpgradeable.sol\":5819:5830  _revokeRole */\n      tag_92\n        /* \"@openzeppelin/contracts-upgradeable/access/AccessControlUpgradeable.sol\":5819:5845  _revokeRole(role, account) */\n      jump\t// in\n    tag_161:\n        /* \"@openzeppelin/contracts-upgradeable/access/AccessControlUpgradeable.sol\":5705:5852  function revokeRole(bytes32 role, address account) public virtual override onlyRole(getRoleAdmin(role)) {... */\n      pop\n      pop\n      pop\n      jump\t// out\n        /* \"@openzeppelin/contracts-upgradeable/utils/introspection/ERC165Upgradeable.sol\":1081:1247  function supportsInterface(bytes4 interfaceId) public view virtual override returns (bool) {... */\n    tag_76:\n        /* \"@openzeppelin/contracts-upgradeable/utils/introspection/ERC165Upgradeable.sol\":1166:1170  bool */\n      0x00\n        /* \"@openzeppelin/contracts-upgradeable/utils/introspection/ERC165Upgradeable.sol\":1204:1240  type(IERC165Upgradeable).interfaceId */\n      0x01ffc9a700000000000000000000000000000000000000000000000000000000\n        /* \"@openzeppelin/contracts-upgradeable/utils/introspection/ERC165Upgradeable.sol\":1189:1240  interfaceId == type(IERC165Upgradeable).interfaceId */\n      not(0xffffffffffffffffffffffffffffffffffffffffffffffffffffffff)\n      and\n        /* \"@openzeppelin/contracts-upgradeable/utils/introspection/ERC165Upgradeable.sol\":1189:1200  interfaceId */\n      dup3\n        /* \"@openzeppelin/contracts-upgradeable/utils/introspection/ERC165Upgradeable.sol\":1189:1240  interfaceId == type(IERC165Upgradeable).interfaceId */\n      not(0xffffffffffffffffffffffffffffffffffffffffffffffffffffffff)\n      and\n      eq\n        /* \"@openzeppelin/contracts-upgradeable/utils/introspection/ERC165Upgradeable.sol\":1182:1240  return interfaceId == type(IERC165Upgradeable).interfaceId */\n      swap1\n      pop\n        /* \"@openzeppelin/contracts-upgradeable/utils/introspection/ERC165Upgradeable.sol\":1081:1247  function supportsInterface(bytes4 interfaceId) public view virtual override returns (bool) {... */\n      swap2\n      swap1\n      pop\n      jump\t// out\n        /* \"@openzeppelin/contracts-upgradeable/access/AccessControlUpgradeable.sol\":3789:3892  function _checkRole(bytes32 role) internal view virtual {... */\n    tag_81:\n        /* \"@openzeppelin/contracts-upgradeable/access/AccessControlUpgradeable.sol\":3855:3885  _checkRole(role, _msgSender()) */\n      tag_164\n        /* \"@openzeppelin/contracts-upgradeable/access/AccessControlUpgradeable.sol\":3866:3870  role */\n      dup2\n        /* \"@openzeppelin/contracts-upgradeable/access/AccessControlUpgradeable.sol\":3872:3884  _msgSender() */\n      tag_165\n        /* \"@openzeppelin/contracts-upgradeable/access/AccessControlUpgradeable.sol\":3872:3882  _msgSender */\n      tag_87\n        /* \"@openzeppelin/contracts-upgradeable/access/AccessControlUpgradeable.sol\":3872:3884  _msgSender() */\n      jump\t// in\n    tag_165:\n        /* \"@openzeppelin/contracts-upgradeable/access/AccessControlUpgradeable.sol\":3855:3865  _checkRole */\n      tag_166\n        /* \"@openzeppelin/contracts-upgradeable/access/AccessControlUpgradeable.sol\":3855:3885  _checkRole(role, _msgSender()) */\n      jump\t// in\n    tag_164:\n        /* \"@openzeppelin/contracts-upgradeable/access/AccessControlUpgradeable.sol\":3789:3892  function _checkRole(bytes32 role) internal view virtual {... */\n      pop\n      jump\t// out\n        /* \"@openzeppelin/contracts-upgradeable/access/AccessControlUpgradeable.sol\":7938:8171  function _grantRole(bytes32 role, address account) internal virtual {... */\n    tag_84:\n        /* \"@openzeppelin/contracts-upgradeable/access/AccessControlUpgradeable.sol\":8021:8043  hasRole(role, account) */\n      tag_168\n        /* \"@openzeppelin/contracts-upgradeable/access/AccessControlUpgradeable.sol\":8029:8033  role */\n      dup3\n        /* \"@openzeppelin/contracts-upgradeable/access/AccessControlUpgradeable.sol\":8035:8042  account */\n      dup3\n        /* \"@openzeppelin/contracts-upgradeable/access/AccessControlUpgradeable.sol\":8021:8028  hasRole */\n      tag_63\n        /* \"@openzeppelin/contracts-upgradeable/access/AccessControlUpgradeable.sol\":8021:8043  hasRole(role, account) */\n      jump\t// in\n    tag_168:\n        /* \"@openzeppelin/contracts-upgradeable/access/AccessControlUpgradeable.sol\":8016:8165  if (!hasRole(role, account)) {... */\n      tag_169\n      jumpi\n        /* \"@openzeppelin/contracts-upgradeable/access/AccessControlUpgradeable.sol\":8091:8095  true */\n      0x01\n        /* \"@openzeppelin/contracts-upgradeable/access/AccessControlUpgradeable.sol\":8059:8065  _roles */\n      0xc9\n        /* \"@openzeppelin/contracts-upgradeable/access/AccessControlUpgradeable.sol\":8059:8071  _roles[role] */\n      0x00\n        /* \"@openzeppelin/contracts-upgradeable/access/AccessControlUpgradeable.sol\":8066:8070  role */\n      dup5\n        /* \"@openzeppelin/contracts-upgradeable/access/AccessControlUpgradeable.sol\":8059:8071  _roles[role] */\n      dup2\n      mstore\n      0x20\n      add\n      swap1\n      dup2\n      mstore\n      0x20\n      add\n      0x00\n      keccak256\n        /* \"@openzeppelin/contracts-upgradeable/access/AccessControlUpgradeable.sol\":8059:8079  _roles[role].members */\n      0x00\n      add\n        /* \"@openzeppelin/contracts-upgradeable/access/AccessControlUpgradeable.sol\":8059:8088  _roles[role].members[account] */\n      0x00\n        /* \"@openzeppelin/contracts-upgradeable/access/AccessControlUpgradeable.sol\":8080:8087  account */\n      dup4\n        /* \"@openzeppelin/contracts-upgradeable/access/AccessControlUpgradeable.sol\":8059:8088  _roles[role].members[account] */\n      0xffffffffffffffffffffffffffffffffffffffff\n      and\n      0xffffffffffffffffffffffffffffffffffffffff\n      and\n      dup2\n      mstore\n      0x20\n      add\n      swap1\n      dup2\n      mstore\n      0x20\n      add\n      0x00\n      keccak256\n      0x00\n        /* \"@openzeppelin/contracts-upgradeable/access/AccessControlUpgradeable.sol\":8059:8095  _roles[role].members[account] = true */\n      0x0100\n      exp\n      dup2\n      sload\n      dup2\n      0xff\n      mul\n      not\n      and\n      swap1\n      dup4\n      iszero\n      iszero\n      mul\n      or\n      swap1\n      sstore\n      pop\n        /* \"@openzeppelin/contracts-upgradeable/access/AccessControlUpgradeable.sol\":8141:8153  _msgSender() */\n      tag_170\n        /* \"@openzeppelin/contracts-upgradeable/access/AccessControlUpgradeable.sol\":8141:8151  _msgSender */\n      tag_87\n        /* \"@openzeppelin/contracts-upgradeable/access/AccessControlUpgradeable.sol\":8141:8153  _msgSender() */\n      jump\t// in\n    tag_170:\n        /* \"@openzeppelin/contracts-upgradeable/access/AccessControlUpgradeable.sol\":8114:8154  RoleGranted(role, account, _msgSender()) */\n      0xffffffffffffffffffffffffffffffffffffffff\n      and\n        /* \"@openzeppelin/contracts-upgradeable/access/AccessControlUpgradeable.sol\":8132:8139  account */\n      dup2\n        /* \"@openzeppelin/contracts-upgradeable/access/AccessControlUpgradeable.sol\":8114:8154  RoleGranted(role, account, _msgSender()) */\n      0xffffffffffffffffffffffffffffffffffffffff\n      and\n        /* \"@openzeppelin/contracts-upgradeable/access/AccessControlUpgradeable.sol\":8126:8130  role */\n      dup4\n        /* \"@openzeppelin/contracts-upgradeable/access/AccessControlUpgradeable.sol\":8114:8154  RoleGranted(role, account, _msgSender()) */\n      0x2f8788117e7eff1d82e926ec794901d17c78024a50270940304540a733656f0d\n      mload(0x40)\n      mload(0x40)\n      dup1\n      swap2\n      sub\n      swap1\n      log4\n        /* \"@openzeppelin/contracts-upgradeable/access/AccessControlUpgradeable.sol\":8016:8165  if (!hasRole(role, account)) {... */\n    tag_169:\n        /* \"@openzeppelin/contracts-upgradeable/access/AccessControlUpgradeable.sol\":7938:8171  function _grantRole(bytes32 role, address account) internal virtual {... */\n      pop\n      pop\n      jump\t// out\n        /* \"@openzeppelin/contracts-upgradeable/utils/ContextUpgradeable.sol\":886:982  function _msgSender() internal view virtual returns (address) {... */\n    tag_87:\n        /* \"@openzeppelin/contracts-upgradeable/utils/ContextUpgradeable.sol\":939:946  address */\n      0x00\n        /* \"@openzeppelin/contracts-upgradeable/utils/ContextUpgradeable.sol\":965:975  msg.sender */\n      caller\n        /* \"@openzeppelin/contracts-upgradeable/utils/ContextUpgradeable.sol\":958:975  return msg.sender */\n      swap1\n      pop\n        /* \"@openzeppelin/contracts-upgradeable/utils/ContextUpgradeable.sol\":886:982  function _msgSender() internal view virtual returns (address) {... */\n      swap1\n      jump\t// out\n        /* \"@openzeppelin/contracts-upgradeable/access/AccessControlUpgradeable.sol\":8342:8576  function _revokeRole(bytes32 role, address account) internal virtual {... */\n    tag_92:\n        /* \"@openzeppelin/contracts-upgradeable/access/AccessControlUpgradeable.sol\":8425:8447  hasRole(role, account) */\n      tag_173\n        /* \"@openzeppelin/contracts-upgradeable/access/AccessControlUpgradeable.sol\":8433:8437  role */\n      dup3\n        /* \"@openzeppelin/contracts-upgradeable/access/AccessControlUpgradeable.sol\":8439:8446  account */\n      dup3\n        /* \"@openzeppelin/contracts-upgradeable/access/AccessControlUpgradeable.sol\":8425:8432  hasRole */\n      tag_63\n        /* \"@openzeppelin/contracts-upgradeable/access/AccessControlUpgradeable.sol\":8425:8447  hasRole(role, account) */\n      jump\t// in\n    tag_173:\n        /* \"@openzeppelin/contracts-upgradeable/access/AccessControlUpgradeable.sol\":8421:8570  if (hasRole(role, account)) {... */\n      iszero\n      tag_174\n      jumpi\n        /* \"@openzeppelin/contracts-upgradeable/access/AccessControlUpgradeable.sol\":8495:8500  false */\n      0x00\n        /* \"@openzeppelin/contracts-upgradeable/access/AccessControlUpgradeable.sol\":8463:8469  _roles */\n      0xc9\n        /* \"@openzeppelin/contracts-upgradeable/access/AccessControlUpgradeable.sol\":8463:8475  _roles[role] */\n      0x00\n        /* \"@openzeppelin/contracts-upgradeable/access/AccessControlUpgradeable.sol\":8470:8474  role */\n      dup5\n        /* \"@openzeppelin/contracts-upgradeable/access/AccessControlUpgradeable.sol\":8463:8475  _roles[role] */\n      dup2\n      mstore\n      0x20\n      add\n      swap1\n      dup2\n      mstore\n      0x20\n      add\n      0x00\n      keccak256\n        /* \"@openzeppelin/contracts-upgradeable/access/AccessControlUpgradeable.sol\":8463:8483  _roles[role].members */\n      0x00\n      add\n        /* \"@openzeppelin/contracts-upgradeable/access/AccessControlUpgradeable.sol\":8463:8492  _roles[role].members[account] */\n      0x00\n        /* \"@openzeppelin/contracts-upgradeable/access/AccessControlUpgradeable.sol\":8484:8491  account */\n      dup4\n        /* \"@openzeppelin/contracts-upgradeable/access/AccessControlUpgradeable.sol\":8463:8492  _roles[role].members[account] */\n      0xffffffffffffffffffffffffffffffffffffffff\n      and\n      0xffffffffffffffffffffffffffffffffffffffff\n      and\n      dup2\n      mstore\n      0x20\n      add\n      swap1\n      dup2\n      mstore\n      0x20\n      add\n      0x00\n      keccak256\n      0x00\n        /* \"@openzeppelin/contracts-upgradeable/access/AccessControlUpgradeable.sol\":8463:8500  _roles[role].members[account] = false */\n      0x0100\n      exp\n      dup2\n      sload\n      dup2\n      0xff\n      mul\n      not\n      and\n      swap1\n      dup4\n      iszero\n      iszero\n      mul\n      or\n      swap1\n      sstore\n      pop\n        /* \"@openzeppelin/contracts-upgradeable/access/AccessControlUpgradeable.sol\":8546:8558  _msgSender() */\n      tag_175\n        /* \"@openzeppelin/contracts-upgradeable/access/AccessControlUpgradeable.sol\":8546:8556  _msgSender */\n      tag_87\n        /* \"@openzeppelin/contracts-upgradeable/access/AccessControlUpgradeable.sol\":8546:8558  _msgSender() */\n      jump\t// in\n    tag_175:\n        /* \"@openzeppelin/contracts-upgradeable/access/AccessControlUpgradeable.sol\":8519:8559  RoleRevoked(role, account, _msgSender()) */\n      0xffffffffffffffffffffffffffffffffffffffff\n      and\n        /* \"@openzeppelin/contracts-upgradeable/access/AccessControlUpgradeable.sol\":8537:8544  account */\n      dup2\n        /* \"@openzeppelin/contracts-upgradeable/access/AccessControlUpgradeable.sol\":8519:8559  RoleRevoked(role, account, _msgSender()) */\n      0xffffffffffffffffffffffffffffffffffffffff\n      and\n        /* \"@openzeppelin/contracts-upgradeable/access/AccessControlUpgradeable.sol\":8531:8535  role */\n      dup4\n        /* \"@openzeppelin/contracts-upgradeable/access/AccessControlUpgradeable.sol\":8519:8559  RoleRevoked(role, account, _msgSender()) */\n      0xf6391f5c32d9c69d2a47ea670b442974b53935d1edc7fd64eb21e047a839171b\n      mload(0x40)\n      mload(0x40)\n      dup1\n      swap2\n      sub\n      swap1\n      log4\n        /* \"@openzeppelin/contracts-upgradeable/access/AccessControlUpgradeable.sol\":8421:8570  if (hasRole(role, account)) {... */\n    tag_174:\n        /* \"@openzeppelin/contracts-upgradeable/access/AccessControlUpgradeable.sol\":8342:8576  function _revokeRole(bytes32 role, address account) internal virtual {... */\n      pop\n      pop\n      jump\t// out\n        /* \"@openzeppelin/contracts-upgradeable/proxy/ERC1967/ERC1967UpgradeUpgradeable.sol\":1478:1629  function _getImplementation() internal view returns (address) {... */\n    tag_98:\n        /* \"@openzeppelin/contracts-upgradeable/proxy/ERC1967/ERC1967UpgradeUpgradeable.sol\":1531:1538  address */\n      0x00\n        /* \"@openzeppelin/contracts-upgradeable/proxy/ERC1967/ERC1967UpgradeUpgradeable.sol\":1557:1616  StorageSlotUpgradeable.getAddressSlot(_IMPLEMENTATION_SLOT) */\n      tag_177\n        /* \"@openzeppelin/contracts-upgradeable/proxy/ERC1967/ERC1967UpgradeUpgradeable.sol\":1180:1246  0x360894a13ba1a3210667c828492db98dca3e2076cc3735a920a3ca505d382bbc */\n      0x360894a13ba1a3210667c828492db98dca3e2076cc3735a920a3ca505d382bbc\n        /* \"@openzeppelin/contracts-upgradeable/proxy/ERC1967/ERC1967UpgradeUpgradeable.sol\":1595:1615  _IMPLEMENTATION_SLOT */\n      0x00\n      shl\n        /* \"@openzeppelin/contracts-upgradeable/proxy/ERC1967/ERC1967UpgradeUpgradeable.sol\":1557:1594  StorageSlotUpgradeable.getAddressSlot */\n      tag_178\n        /* \"@openzeppelin/contracts-upgradeable/proxy/ERC1967/ERC1967UpgradeUpgradeable.sol\":1557:1616  StorageSlotUpgradeable.getAddressSlot(_IMPLEMENTATION_SLOT) */\n      jump\t// in\n    tag_177:\n        /* \"@openzeppelin/contracts-upgradeable/proxy/ERC1967/ERC1967UpgradeUpgradeable.sol\":1557:1622  StorageSlotUpgradeable.getAddressSlot(_IMPLEMENTATION_SLOT).value */\n      0x00\n      add\n      0x00\n      swap1\n      sload\n      swap1\n      0x0100\n      exp\n      swap1\n      div\n      0xffffffffffffffffffffffffffffffffffffffff\n      and\n        /* \"@openzeppelin/contracts-upgradeable/proxy/ERC1967/ERC1967UpgradeUpgradeable.sol\":1550:1622  return StorageSlotUpgradeable.getAddressSlot(_IMPLEMENTATION_SLOT).value */\n      swap1\n      pop\n        /* \"@openzeppelin/contracts-upgradeable/proxy/ERC1967/ERC1967UpgradeUpgradeable.sol\":1478:1629  function _getImplementation() internal view returns (address) {... */\n      swap1\n      jump\t// out\n        /* \"contracts/DevVault.sol\":848:973  function _authorizeUpgrade(... */\n    tag_104:\n        /* \"@openzeppelin/contracts-upgradeable/access/AccessControlUpgradeable.sol\":2365:2369  0x00 */\n      0x00\n        /* \"contracts/DevVault.sol\":951:969  DEFAULT_ADMIN_ROLE */\n      dup1\n      shl\n        /* \"@openzeppelin/contracts-upgradeable/access/AccessControlUpgradeable.sol\":2798:2814  _checkRole(role) */\n      tag_180\n        /* \"@openzeppelin/contracts-upgradeable/access/AccessControlUpgradeable.sol\":2809:2813  role */\n      dup2\n        /* \"@openzeppelin/contracts-upgradeable/access/AccessControlUpgradeable.sol\":2798:2808  _checkRole */\n      tag_81\n        /* \"@openzeppelin/contracts-upgradeable/access/AccessControlUpgradeable.sol\":2798:2814  _checkRole(role) */\n      jump\t// in\n    tag_180:\n        /* \"contracts/DevVault.sol\":848:973  function _authorizeUpgrade(... */\n      pop\n      pop\n      jump\t// out\n        /* \"@openzeppelin/contracts-upgradeable/proxy/ERC1967/ERC1967UpgradeUpgradeable.sol\":2841:3785  function _upgradeToAndCallUUPS(address newImplementation, bytes memory data, bool forceCall) internal {... */\n    tag_110:\n        /* \"@openzeppelin/contracts-upgradeable/proxy/ERC1967/ERC1967UpgradeUpgradeable.sol\":3257:3310  StorageSlotUpgradeable.getBooleanSlot(_ROLLBACK_SLOT) */\n      tag_183\n        /* \"@openzeppelin/contracts-upgradeable/proxy/ERC1967/ERC1967UpgradeUpgradeable.sol\":839:905  0x4910fdfa16fed3260ed0e7147f7cc6da11a60208b5b9406d12a635614ffd9143 */\n      0x4910fdfa16fed3260ed0e7147f7cc6da11a60208b5b9406d12a635614ffd9143\n        /* \"@openzeppelin/contracts-upgradeable/proxy/ERC1967/ERC1967UpgradeUpgradeable.sol\":3295:3309  _ROLLBACK_SLOT */\n      0x00\n      shl\n        /* \"@openzeppelin/contracts-upgradeable/proxy/ERC1967/ERC1967UpgradeUpgradeable.sol\":3257:3294  StorageSlotUpgradeable.getBooleanSlot */\n      tag_184\n        /* \"@openzeppelin/contracts-upgradeable/proxy/ERC1967/ERC1967UpgradeUpgradeable.sol\":3257:3310  StorageSlotUpgradeable.getBooleanSlot(_ROLLBACK_SLOT) */\n      jump\t// in\n    tag_183:\n        /* \"@openzeppelin/contracts-upgradeable/proxy/ERC1967/ERC1967UpgradeUpgradeable.sol\":3257:3316  StorageSlotUpgradeable.getBooleanSlot(_ROLLBACK_SLOT).value */\n      0x00\n      add\n      0x00\n      swap1\n      sload\n      swap1\n      0x0100\n      exp\n      swap1\n      div\n      0xff\n      and\n        /* \"@openzeppelin/contracts-upgradeable/proxy/ERC1967/ERC1967UpgradeUpgradeable.sol\":3253:3779  if (StorageSlotUpgradeable.getBooleanSlot(_ROLLBACK_SLOT).value) {... */\n      iszero\n      tag_185\n      jumpi\n        /* \"@openzeppelin/contracts-upgradeable/proxy/ERC1967/ERC1967UpgradeUpgradeable.sol\":3332:3369  _setImplementation(newImplementation) */\n      tag_186\n        /* \"@openzeppelin/contracts-upgradeable/proxy/ERC1967/ERC1967UpgradeUpgradeable.sol\":3351:3368  newImplementation */\n      dup4\n        /* \"@openzeppelin/contracts-upgradeable/proxy/ERC1967/ERC1967UpgradeUpgradeable.sol\":3332:3350  _setImplementation */\n      tag_187\n        /* \"@openzeppelin/contracts-upgradeable/proxy/ERC1967/ERC1967UpgradeUpgradeable.sol\":3332:3369  _setImplementation(newImplementation) */\n      jump\t// in\n    tag_186:\n        /* \"@openzeppelin/contracts-upgradeable/proxy/ERC1967/ERC1967UpgradeUpgradeable.sol\":3253:3779  if (StorageSlotUpgradeable.getBooleanSlot(_ROLLBACK_SLOT).value) {... */\n      jump(tag_188)\n    tag_185:\n        /* \"@openzeppelin/contracts-upgradeable/proxy/ERC1967/ERC1967UpgradeUpgradeable.sol\":3433:3450  newImplementation */\n      dup3\n        /* \"@openzeppelin/contracts-upgradeable/proxy/ERC1967/ERC1967UpgradeUpgradeable.sol\":3404:3465  IERC1822ProxiableUpgradeable(newImplementation).proxiableUUID */\n      0xffffffffffffffffffffffffffffffffffffffff\n      and\n      0x52d1902d\n        /* \"@openzeppelin/contracts-upgradeable/proxy/ERC1967/ERC1967UpgradeUpgradeable.sol\":3404:3467  IERC1822ProxiableUpgradeable(newImplementation).proxiableUUID() */\n      mload(0x40)\n      dup2\n      0xffffffff\n      and\n      0xe0\n      shl\n      dup2\n      mstore\n      0x04\n      add\n      0x20\n      mload(0x40)\n      dup1\n      dup4\n      sub\n      dup2\n      dup7\n      gas\n      staticcall\n      swap3\n      pop\n      pop\n      pop\n      dup1\n      iszero\n      tag_189\n      jumpi\n      pop\n      mload(0x40)\n      returndatasize\n      not(0x1f)\n      0x1f\n      dup3\n      add\n      and\n      dup3\n      add\n      dup1\n      0x40\n      mstore\n      pop\n      dup2\n      add\n      swap1\n      tag_190\n      swap2\n      swap1\n      tag_191\n      jump\t// in\n    tag_190:\n      0x01\n    tag_189:\n        /* \"@openzeppelin/contracts-upgradeable/proxy/ERC1967/ERC1967UpgradeUpgradeable.sol\":3400:3702  try IERC1822ProxiableUpgradeable(newImplementation).proxiableUUID() returns (bytes32 slot) {... */\n      tag_192\n      jumpi\n        /* \"@openzeppelin/contracts-upgradeable/proxy/ERC1967/ERC1967UpgradeUpgradeable.sol\":3631:3687  revert(\"ERC1967Upgrade: new implementation is not UUPS\") */\n      mload(0x40)\n      0x08c379a000000000000000000000000000000000000000000000000000000000\n      dup2\n      mstore\n      0x04\n      add\n      tag_196\n      swap1\n      tag_197\n      jump\t// in\n    tag_196:\n      mload(0x40)\n      dup1\n      swap2\n      sub\n      swap1\n      revert\n        /* \"@openzeppelin/contracts-upgradeable/proxy/ERC1967/ERC1967UpgradeUpgradeable.sol\":3400:3702  try IERC1822ProxiableUpgradeable(newImplementation).proxiableUUID() returns (bytes32 slot) {... */\n    tag_192:\n        /* \"@openzeppelin/contracts-upgradeable/proxy/ERC1967/ERC1967UpgradeUpgradeable.sol\":1180:1246  0x360894a13ba1a3210667c828492db98dca3e2076cc3735a920a3ca505d382bbc */\n      0x360894a13ba1a3210667c828492db98dca3e2076cc3735a920a3ca505d382bbc\n        /* \"@openzeppelin/contracts-upgradeable/proxy/ERC1967/ERC1967UpgradeUpgradeable.sol\":3525:3545  _IMPLEMENTATION_SLOT */\n      0x00\n      shl\n        /* \"@openzeppelin/contracts-upgradeable/proxy/ERC1967/ERC1967UpgradeUpgradeable.sol\":3517:3521  slot */\n      dup2\n        /* \"@openzeppelin/contracts-upgradeable/proxy/ERC1967/ERC1967UpgradeUpgradeable.sol\":3517:3545  slot == _IMPLEMENTATION_SLOT */\n      eq\n        /* \"@openzeppelin/contracts-upgradeable/proxy/ERC1967/ERC1967UpgradeUpgradeable.sol\":3509:3591  require(slot == _IMPLEMENTATION_SLOT, \"ERC1967Upgrade: unsupported proxiableUUID\") */\n      tag_199\n      jumpi\n      mload(0x40)\n      0x08c379a000000000000000000000000000000000000000000000000000000000\n      dup2\n      mstore\n      0x04\n      add\n      tag_200\n      swap1\n      tag_201\n      jump\t// in\n    tag_200:\n      mload(0x40)\n      dup1\n      swap2\n      sub\n      swap1\n      revert\n    tag_199:\n        /* \"@openzeppelin/contracts-upgradeable/proxy/ERC1967/ERC1967UpgradeUpgradeable.sol\":3468:3606  returns (bytes32 slot) {... */\n      pop\n        /* \"@openzeppelin/contracts-upgradeable/proxy/ERC1967/ERC1967UpgradeUpgradeable.sol\":3715:3768  _upgradeToAndCall(newImplementation, data, forceCall) */\n      tag_202\n        /* \"@openzeppelin/contracts-upgradeable/proxy/ERC1967/ERC1967UpgradeUpgradeable.sol\":3733:3750  newImplementation */\n      dup4\n        /* \"@openzeppelin/contracts-upgradeable/proxy/ERC1967/ERC1967UpgradeUpgradeable.sol\":3752:3756  data */\n      dup4\n        /* \"@openzeppelin/contracts-upgradeable/proxy/ERC1967/ERC1967UpgradeUpgradeable.sol\":3758:3767  forceCall */\n      dup4\n        /* \"@openzeppelin/contracts-upgradeable/proxy/ERC1967/ERC1967UpgradeUpgradeable.sol\":3715:3732  _upgradeToAndCall */\n      tag_203\n        /* \"@openzeppelin/contracts-upgradeable/proxy/ERC1967/ERC1967UpgradeUpgradeable.sol\":3715:3768  _upgradeToAndCall(newImplementation, data, forceCall) */\n      jump\t// in\n    tag_202:\n        /* \"@openzeppelin/contracts-upgradeable/proxy/ERC1967/ERC1967UpgradeUpgradeable.sol\":3253:3779  if (StorageSlotUpgradeable.getBooleanSlot(_ROLLBACK_SLOT).value) {... */\n    tag_188:\n        /* \"@openzeppelin/contracts-upgradeable/proxy/ERC1967/ERC1967UpgradeUpgradeable.sol\":2841:3785  function _upgradeToAndCallUUPS(address newImplementation, bytes memory data, bool forceCall) internal {... */\n      pop\n      pop\n      pop\n      jump\t// out\n        /* \"@openzeppelin/contracts-upgradeable/utils/AddressUpgradeable.sol\":1423:1743  function isContract(address account) internal view returns (bool) {... */\n    tag_115:\n        /* \"@openzeppelin/contracts-upgradeable/utils/AddressUpgradeable.sol\":1483:1487  bool */\n      0x00\n        /* \"@openzeppelin/contracts-upgradeable/utils/AddressUpgradeable.sol\":1735:1736  0 */\n      dup1\n        /* \"@openzeppelin/contracts-upgradeable/utils/AddressUpgradeable.sol\":1713:1720  account */\n      dup3\n        /* \"@openzeppelin/contracts-upgradeable/utils/AddressUpgradeable.sol\":1713:1732  account.code.length */\n      0xffffffffffffffffffffffffffffffffffffffff\n      and\n      extcodesize\n        /* \"@openzeppelin/contracts-upgradeable/utils/AddressUpgradeable.sol\":1713:1736  account.code.length > 0 */\n      gt\n        /* \"@openzeppelin/contracts-upgradeable/utils/AddressUpgradeable.sol\":1706:1736  return account.code.length > 0 */\n      swap1\n      pop\n        /* \"@openzeppelin/contracts-upgradeable/utils/AddressUpgradeable.sol\":1423:1743  function isContract(address account) internal view returns (bool) {... */\n      swap2\n      swap1\n      pop\n      jump\t// out\n        /* \"@openzeppelin/contracts-upgradeable/access/AccessControlUpgradeable.sol\":7288:7398  function _setupRole(bytes32 role, address account) internal virtual {... */\n    tag_123:\n        /* \"@openzeppelin/contracts-upgradeable/access/AccessControlUpgradeable.sol\":7366:7391  _grantRole(role, account) */\n      tag_206\n        /* \"@openzeppelin/contracts-upgradeable/access/AccessControlUpgradeable.sol\":7377:7381  role */\n      dup3\n        /* \"@openzeppelin/contracts-upgradeable/access/AccessControlUpgradeable.sol\":7383:7390  account */\n      dup3\n        /* \"@openzeppelin/contracts-upgradeable/access/AccessControlUpgradeable.sol\":7366:7376  _grantRole */\n      tag_84\n        /* \"@openzeppelin/contracts-upgradeable/access/AccessControlUpgradeable.sol\":7366:7391  _grantRole(role, account) */\n      jump\t// in\n    tag_206:\n        /* \"@openzeppelin/contracts-upgradeable/access/AccessControlUpgradeable.sol\":7288:7398  function _setupRole(bytes32 role, address account) internal virtual {... */\n      pop\n      pop\n      jump\t// out\n        /* \"@openzeppelin/contracts-upgradeable/access/AccessControlUpgradeable.sol\":4173:4674  function _checkRole(bytes32 role, address account) internal view virtual {... */\n    tag_166:\n        /* \"@openzeppelin/contracts-upgradeable/access/AccessControlUpgradeable.sol\":4261:4283  hasRole(role, account) */\n      tag_208\n        /* \"@openzeppelin/contracts-upgradeable/access/AccessControlUpgradeable.sol\":4269:4273  role */\n      dup3\n        /* \"@openzeppelin/contracts-upgradeable/access/AccessControlUpgradeable.sol\":4275:4282  account */\n      dup3\n        /* \"@openzeppelin/contracts-upgradeable/access/AccessControlUpgradeable.sol\":4261:4268  hasRole */\n      tag_63\n        /* \"@openzeppelin/contracts-upgradeable/access/AccessControlUpgradeable.sol\":4261:4283  hasRole(role, account) */\n      jump\t// in\n    tag_208:\n        /* \"@openzeppelin/contracts-upgradeable/access/AccessControlUpgradeable.sol\":4256:4668  if (!hasRole(role, account)) {... */\n      tag_209\n      jumpi\n        /* \"@openzeppelin/contracts-upgradeable/access/AccessControlUpgradeable.sol\":4444:4483  StringsUpgradeable.toHexString(account) */\n      tag_210\n        /* \"@openzeppelin/contracts-upgradeable/access/AccessControlUpgradeable.sol\":4475:4482  account */\n      dup2\n        /* \"@openzeppelin/contracts-upgradeable/access/AccessControlUpgradeable.sol\":4444:4474  StringsUpgradeable.toHexString */\n      tag_211\n        /* \"@openzeppelin/contracts-upgradeable/access/AccessControlUpgradeable.sol\":4444:4483  StringsUpgradeable.toHexString(account) */\n      jump\t// in\n    tag_210:\n        /* \"@openzeppelin/contracts-upgradeable/access/AccessControlUpgradeable.sol\":4554:4603  StringsUpgradeable.toHexString(uint256(role), 32) */\n      tag_212\n        /* \"@openzeppelin/contracts-upgradeable/access/AccessControlUpgradeable.sol\":4593:4597  role */\n      dup4\n        /* \"@openzeppelin/contracts-upgradeable/access/AccessControlUpgradeable.sol\":4585:4598  uint256(role) */\n      0x00\n      shr\n        /* \"@openzeppelin/contracts-upgradeable/access/AccessControlUpgradeable.sol\":4600:4602  32 */\n      0x20\n        /* \"@openzeppelin/contracts-upgradeable/access/AccessControlUpgradeable.sol\":4554:4584  StringsUpgradeable.toHexString */\n      tag_213\n        /* \"@openzeppelin/contracts-upgradeable/access/AccessControlUpgradeable.sol\":4554:4603  StringsUpgradeable.toHexString(uint256(role), 32) */\n      jump\t// in\n    tag_212:\n        /* \"@openzeppelin/contracts-upgradeable/access/AccessControlUpgradeable.sol\":4351:4625  abi.encodePacked(... */\n      add(0x20, mload(0x40))\n      tag_214\n      swap3\n      swap2\n      swap1\n      tag_215\n      jump\t// in\n    tag_214:\n      mload(0x40)\n      0x20\n      dup2\n      dup4\n      sub\n      sub\n      dup2\n      mstore\n      swap1\n      0x40\n      mstore\n        /* \"@openzeppelin/contracts-upgradeable/access/AccessControlUpgradeable.sol\":4299:4657  revert(... */\n      mload(0x40)\n      0x08c379a000000000000000000000000000000000000000000000000000000000\n      dup2\n      mstore\n      0x04\n      add\n      tag_216\n      swap2\n      swap1\n      tag_217\n      jump\t// in\n    tag_216:\n      mload(0x40)\n      dup1\n      swap2\n      sub\n      swap1\n      revert\n        /* \"@openzeppelin/contracts-upgradeable/access/AccessControlUpgradeable.sol\":4256:4668  if (!hasRole(role, account)) {... */\n    tag_209:\n        /* \"@openzeppelin/contracts-upgradeable/access/AccessControlUpgradeable.sol\":4173:4674  function _checkRole(bytes32 role, address account) internal view virtual {... */\n      pop\n      pop\n      jump\t// out\n        /* \"@openzeppelin/contracts-upgradeable/utils/StorageSlotUpgradeable.sol\":1870:2060  function getAddressSlot(bytes32 slot) internal pure returns (AddressSlot storage r) {... */\n    tag_178:\n        /* \"@openzeppelin/contracts-upgradeable/utils/StorageSlotUpgradeable.sol\":1931:1952  AddressSlot storage r */\n      0x00\n        /* \"@openzeppelin/contracts-upgradeable/utils/StorageSlotUpgradeable.sol\":2040:2044  slot */\n      dup2\n        /* \"@openzeppelin/contracts-upgradeable/utils/StorageSlotUpgradeable.sol\":2030:2044  r.slot := slot */\n      swap1\n      pop\n        /* \"@openzeppelin/contracts-upgradeable/utils/StorageSlotUpgradeable.sol\":1870:2060  function getAddressSlot(bytes32 slot) internal pure returns (AddressSlot storage r) {... */\n      swap2\n      swap1\n      pop\n      jump\t// out\n        /* \"@openzeppelin/contracts-upgradeable/utils/StorageSlotUpgradeable.sol\":2158:2348  function getBooleanSlot(bytes32 slot) internal pure returns (BooleanSlot storage r) {... */\n    tag_184:\n        /* \"@openzeppelin/contracts-upgradeable/utils/StorageSlotUpgradeable.sol\":2219:2240  BooleanSlot storage r */\n      0x00\n        /* \"@openzeppelin/contracts-upgradeable/utils/StorageSlotUpgradeable.sol\":2328:2332  slot */\n      dup2\n        /* \"@openzeppelin/contracts-upgradeable/utils/StorageSlotUpgradeable.sol\":2318:2332  r.slot := slot */\n      swap1\n      pop\n        /* \"@openzeppelin/contracts-upgradeable/utils/StorageSlotUpgradeable.sol\":2158:2348  function getBooleanSlot(bytes32 slot) internal pure returns (BooleanSlot storage r) {... */\n      swap2\n      swap1\n      pop\n      jump\t// out\n        /* \"@openzeppelin/contracts-upgradeable/proxy/ERC1967/ERC1967UpgradeUpgradeable.sol\":1720:2001  function _setImplementation(address newImplementation) private {... */\n    tag_187:\n        /* \"@openzeppelin/contracts-upgradeable/proxy/ERC1967/ERC1967UpgradeUpgradeable.sol\":1801:1849  AddressUpgradeable.isContract(newImplementation) */\n      tag_221\n        /* \"@openzeppelin/contracts-upgradeable/proxy/ERC1967/ERC1967UpgradeUpgradeable.sol\":1831:1848  newImplementation */\n      dup2\n        /* \"@openzeppelin/contracts-upgradeable/proxy/ERC1967/ERC1967UpgradeUpgradeable.sol\":1801:1830  AddressUpgradeable.isContract */\n      tag_115\n        /* \"@openzeppelin/contracts-upgradeable/proxy/ERC1967/ERC1967UpgradeUpgradeable.sol\":1801:1849  AddressUpgradeable.isContract(newImplementation) */\n      jump\t// in\n    tag_221:\n        /* \"@openzeppelin/contracts-upgradeable/proxy/ERC1967/ERC1967UpgradeUpgradeable.sol\":1793:1899  require(AddressUpgradeable.isContract(newImplementation), \"ERC1967: new implementation is not a contract\") */\n      tag_222\n      jumpi\n      mload(0x40)\n      0x08c379a000000000000000000000000000000000000000000000000000000000\n      dup2\n      mstore\n      0x04\n      add\n      tag_223\n      swap1\n      tag_224\n      jump\t// in\n    tag_223:\n      mload(0x40)\n      dup1\n      swap2\n      sub\n      swap1\n      revert\n    tag_222:\n        /* \"@openzeppelin/contracts-upgradeable/proxy/ERC1967/ERC1967UpgradeUpgradeable.sol\":1977:1994  newImplementation */\n      dup1\n        /* \"@openzeppelin/contracts-upgradeable/proxy/ERC1967/ERC1967UpgradeUpgradeable.sol\":1909:1968  StorageSlotUpgradeable.getAddressSlot(_IMPLEMENTATION_SLOT) */\n      tag_225\n        /* \"@openzeppelin/contracts-upgradeable/proxy/ERC1967/ERC1967UpgradeUpgradeable.sol\":1180:1246  0x360894a13ba1a3210667c828492db98dca3e2076cc3735a920a3ca505d382bbc */\n      0x360894a13ba1a3210667c828492db98dca3e2076cc3735a920a3ca505d382bbc\n        /* \"@openzeppelin/contracts-upgradeable/proxy/ERC1967/ERC1967UpgradeUpgradeable.sol\":1947:1967  _IMPLEMENTATION_SLOT */\n      0x00\n      shl\n        /* \"@openzeppelin/contracts-upgradeable/proxy/ERC1967/ERC1967UpgradeUpgradeable.sol\":1909:1946  StorageSlotUpgradeable.getAddressSlot */\n      tag_178\n        /* \"@openzeppelin/contracts-upgradeable/proxy/ERC1967/ERC1967UpgradeUpgradeable.sol\":1909:1968  StorageSlotUpgradeable.getAddressSlot(_IMPLEMENTATION_SLOT) */\n      jump\t// in\n    tag_225:\n        /* \"@openzeppelin/contracts-upgradeable/proxy/ERC1967/ERC1967UpgradeUpgradeable.sol\":1909:1974  StorageSlotUpgradeable.getAddressSlot(_IMPLEMENTATION_SLOT).value */\n      0x00\n      add\n      0x00\n        /* \"@openzeppelin/contracts-upgradeable/proxy/ERC1967/ERC1967UpgradeUpgradeable.sol\":1909:1994  StorageSlotUpgradeable.getAddressSlot(_IMPLEMENTATION_SLOT).value = newImplementation */\n      0x0100\n      exp\n      dup2\n      sload\n      dup2\n      0xffffffffffffffffffffffffffffffffffffffff\n      mul\n      not\n      and\n      swap1\n      dup4\n      0xffffffffffffffffffffffffffffffffffffffff\n      and\n      mul\n      or\n      swap1\n      sstore\n      pop\n        /* \"@openzeppelin/contracts-upgradeable/proxy/ERC1967/ERC1967UpgradeUpgradeable.sol\":1720:2001  function _setImplementation(address newImplementation) private {... */\n      pop\n      jump\t// out\n        /* \"@openzeppelin/contracts-upgradeable/proxy/ERC1967/ERC1967UpgradeUpgradeable.sol\":2393:2669  function _upgradeToAndCall(address newImplementation, bytes memory data, bool forceCall) internal {... */\n    tag_203:\n        /* \"@openzeppelin/contracts-upgradeable/proxy/ERC1967/ERC1967UpgradeUpgradeable.sol\":2501:2530  _upgradeTo(newImplementation) */\n      tag_227\n        /* \"@openzeppelin/contracts-upgradeable/proxy/ERC1967/ERC1967UpgradeUpgradeable.sol\":2512:2529  newImplementation */\n      dup4\n        /* \"@openzeppelin/contracts-upgradeable/proxy/ERC1967/ERC1967UpgradeUpgradeable.sol\":2501:2511  _upgradeTo */\n      tag_228\n        /* \"@openzeppelin/contracts-upgradeable/proxy/ERC1967/ERC1967UpgradeUpgradeable.sol\":2501:2530  _upgradeTo(newImplementation) */\n      jump\t// in\n    tag_227:\n        /* \"@openzeppelin/contracts-upgradeable/proxy/ERC1967/ERC1967UpgradeUpgradeable.sol\":2558:2559  0 */\n      0x00\n        /* \"@openzeppelin/contracts-upgradeable/proxy/ERC1967/ERC1967UpgradeUpgradeable.sol\":2544:2548  data */\n      dup3\n        /* \"@openzeppelin/contracts-upgradeable/proxy/ERC1967/ERC1967UpgradeUpgradeable.sol\":2544:2555  data.length */\n      mload\n        /* \"@openzeppelin/contracts-upgradeable/proxy/ERC1967/ERC1967UpgradeUpgradeable.sol\":2544:2559  data.length > 0 */\n      gt\n        /* \"@openzeppelin/contracts-upgradeable/proxy/ERC1967/ERC1967UpgradeUpgradeable.sol\":2544:2572  data.length > 0 || forceCall */\n      dup1\n      tag_229\n      jumpi\n      pop\n        /* \"@openzeppelin/contracts-upgradeable/proxy/ERC1967/ERC1967UpgradeUpgradeable.sol\":2563:2572  forceCall */\n      dup1\n        /* \"@openzeppelin/contracts-upgradeable/proxy/ERC1967/ERC1967UpgradeUpgradeable.sol\":2544:2572  data.length > 0 || forceCall */\n    tag_229:\n        /* \"@openzeppelin/contracts-upgradeable/proxy/ERC1967/ERC1967UpgradeUpgradeable.sol\":2540:2663  if (data.length > 0 || forceCall) {... */\n      iszero\n      tag_230\n      jumpi\n        /* \"@openzeppelin/contracts-upgradeable/proxy/ERC1967/ERC1967UpgradeUpgradeable.sol\":2588:2652  AddressUpgradeable.functionDelegateCall(newImplementation, data) */\n      tag_231\n        /* \"@openzeppelin/contracts-upgradeable/proxy/ERC1967/ERC1967UpgradeUpgradeable.sol\":2628:2645  newImplementation */\n      dup4\n        /* \"@openzeppelin/contracts-upgradeable/proxy/ERC1967/ERC1967UpgradeUpgradeable.sol\":2647:2651  data */\n      dup4\n        /* \"@openzeppelin/contracts-upgradeable/proxy/ERC1967/ERC1967UpgradeUpgradeable.sol\":2588:2627  AddressUpgradeable.functionDelegateCall */\n      tag_232\n        /* \"@openzeppelin/contracts-upgradeable/proxy/ERC1967/ERC1967UpgradeUpgradeable.sol\":2588:2652  AddressUpgradeable.functionDelegateCall(newImplementation, data) */\n      jump\t// in\n    tag_231:\n      pop\n        /* \"@openzeppelin/contracts-upgradeable/proxy/ERC1967/ERC1967UpgradeUpgradeable.sol\":2540:2663  if (data.length > 0 || forceCall) {... */\n    tag_230:\n        /* \"@openzeppelin/contracts-upgradeable/proxy/ERC1967/ERC1967UpgradeUpgradeable.sol\":2393:2669  function _upgradeToAndCall(address newImplementation, bytes memory data, bool forceCall) internal {... */\n      pop\n      pop\n      pop\n      jump\t// out\n        /* \"@openzeppelin/contracts-upgradeable/utils/StringsUpgradeable.sol\":2473:2622  function toHexString(address addr) internal pure returns (string memory) {... */\n    tag_211:\n        /* \"@openzeppelin/contracts-upgradeable/utils/StringsUpgradeable.sol\":2531:2544  string memory */\n      0x60\n        /* \"@openzeppelin/contracts-upgradeable/utils/StringsUpgradeable.sol\":2563:2615  toHexString(uint256(uint160(addr)), _ADDRESS_LENGTH) */\n      tag_234\n        /* \"@openzeppelin/contracts-upgradeable/utils/StringsUpgradeable.sol\":2591:2595  addr */\n      dup3\n        /* \"@openzeppelin/contracts-upgradeable/utils/StringsUpgradeable.sol\":2575:2597  uint256(uint160(addr)) */\n      0xffffffffffffffffffffffffffffffffffffffff\n      and\n        /* \"@openzeppelin/contracts-upgradeable/utils/StringsUpgradeable.sol\":376:378  20 */\n      0x14\n        /* \"@openzeppelin/contracts-upgradeable/utils/StringsUpgradeable.sol\":2563:2615  toHexString(uint256(uint160(addr)), _ADDRESS_LENGTH) */\n      0xff\n      and\n        /* \"@openzeppelin/contracts-upgradeable/utils/StringsUpgradeable.sol\":2563:2574  toHexString */\n      tag_213\n        /* \"@openzeppelin/contracts-upgradeable/utils/StringsUpgradeable.sol\":2563:2615  toHexString(uint256(uint160(addr)), _ADDRESS_LENGTH) */\n      jump\t// in\n    tag_234:\n        /* \"@openzeppelin/contracts-upgradeable/utils/StringsUpgradeable.sol\":2556:2615  return toHexString(uint256(uint160(addr)), _ADDRESS_LENGTH) */\n      swap1\n      pop\n        /* \"@openzeppelin/contracts-upgradeable/utils/StringsUpgradeable.sol\":2473:2622  function toHexString(address addr) internal pure returns (string memory) {... */\n      swap2\n      swap1\n      pop\n      jump\t// out\n        /* \"@openzeppelin/contracts-upgradeable/utils/StringsUpgradeable.sol\":1884:2321  function toHexString(uint256 value, uint256 length) internal pure returns (string memory) {... */\n    tag_213:\n        /* \"@openzeppelin/contracts-upgradeable/utils/StringsUpgradeable.sol\":1959:1972  string memory */\n      0x60\n        /* \"@openzeppelin/contracts-upgradeable/utils/StringsUpgradeable.sol\":1984:2003  bytes memory buffer */\n      0x00\n        /* \"@openzeppelin/contracts-upgradeable/utils/StringsUpgradeable.sol\":2029:2030  2 */\n      0x02\n        /* \"@openzeppelin/contracts-upgradeable/utils/StringsUpgradeable.sol\":2020:2026  length */\n      dup4\n        /* \"@openzeppelin/contracts-upgradeable/utils/StringsUpgradeable.sol\":2016:2017  2 */\n      0x02\n        /* \"@openzeppelin/contracts-upgradeable/utils/StringsUpgradeable.sol\":2016:2026  2 * length */\n      tag_236\n      swap2\n      swap1\n      tag_237\n      jump\t// in\n    tag_236:\n        /* \"@openzeppelin/contracts-upgradeable/utils/StringsUpgradeable.sol\":2016:2030  2 * length + 2 */\n      tag_238\n      swap2\n      swap1\n      tag_239\n      jump\t// in\n    tag_238:\n        /* \"@openzeppelin/contracts-upgradeable/utils/StringsUpgradeable.sol\":2006:2031  new bytes(2 * length + 2) */\n      0xffffffffffffffff\n      dup2\n      gt\n      iszero\n      tag_240\n      jumpi\n      tag_241\n      tag_108\n      jump\t// in\n    tag_241:\n    tag_240:\n      mload(0x40)\n      swap1\n      dup1\n      dup3\n      mstore\n      dup1\n      0x1f\n      add\n      not(0x1f)\n      and\n      0x20\n      add\n      dup3\n      add\n      0x40\n      mstore\n      dup1\n      iszero\n      tag_242\n      jumpi\n      dup2\n      0x20\n      add\n      0x01\n      dup3\n      mul\n      dup1\n      calldatasize\n      dup4\n      calldatacopy\n      dup1\n      dup3\n      add\n      swap2\n      pop\n      pop\n      swap1\n      pop\n    tag_242:\n      pop\n        /* \"@openzeppelin/contracts-upgradeable/utils/StringsUpgradeable.sol\":1984:2031  bytes memory buffer = new bytes(2 * length + 2) */\n      swap1\n      pop\n        /* \"@openzeppelin/contracts-upgradeable/utils/StringsUpgradeable.sol\":2041:2056  buffer[0] = \"0\" */\n      0x3000000000000000000000000000000000000000000000000000000000000000\n        /* \"@openzeppelin/contracts-upgradeable/utils/StringsUpgradeable.sol\":2041:2047  buffer */\n      dup2\n        /* \"@openzeppelin/contracts-upgradeable/utils/StringsUpgradeable.sol\":2048:2049  0 */\n      0x00\n        /* \"@openzeppelin/contracts-upgradeable/utils/StringsUpgradeable.sol\":2041:2050  buffer[0] */\n      dup2\n      mload\n      dup2\n      lt\n      tag_243\n      jumpi\n      tag_244\n      tag_245\n      jump\t// in\n    tag_244:\n    tag_243:\n      0x20\n      add\n      add\n        /* \"@openzeppelin/contracts-upgradeable/utils/StringsUpgradeable.sol\":2041:2056  buffer[0] = \"0\" */\n      swap1\n      not(0xffffffffffffffffffffffffffffffffffffffffffffffffffffffffffffff)\n      and\n      swap1\n      dup2\n      0x00\n      byte\n      swap1\n      mstore8\n      pop\n        /* \"@openzeppelin/contracts-upgradeable/utils/StringsUpgradeable.sol\":2066:2081  buffer[1] = \"x\" */\n      0x7800000000000000000000000000000000000000000000000000000000000000\n        /* \"@openzeppelin/contracts-upgradeable/utils/StringsUpgradeable.sol\":2066:2072  buffer */\n      dup2\n        /* \"@openzeppelin/contracts-upgradeable/utils/StringsUpgradeable.sol\":2073:2074  1 */\n      0x01\n        /* \"@openzeppelin/contracts-upgradeable/utils/StringsUpgradeable.sol\":2066:2075  buffer[1] */\n      dup2\n      mload\n      dup2\n      lt\n      tag_246\n      jumpi\n      tag_247\n      tag_245\n      jump\t// in\n    tag_247:\n    tag_246:\n      0x20\n      add\n      add\n        /* \"@openzeppelin/contracts-upgradeable/utils/StringsUpgradeable.sol\":2066:2081  buffer[1] = \"x\" */\n      swap1\n      not(0xffffffffffffffffffffffffffffffffffffffffffffffffffffffffffffff)\n      and\n      swap1\n      dup2\n      0x00\n      byte\n      swap1\n      mstore8\n      pop\n        /* \"@openzeppelin/contracts-upgradeable/utils/StringsUpgradeable.sol\":2096:2105  uint256 i */\n      0x00\n        /* \"@openzeppelin/contracts-upgradeable/utils/StringsUpgradeable.sol\":2121:2122  1 */\n      0x01\n        /* \"@openzeppelin/contracts-upgradeable/utils/StringsUpgradeable.sol\":2112:2118  length */\n      dup5\n        /* \"@openzeppelin/contracts-upgradeable/utils/StringsUpgradeable.sol\":2108:2109  2 */\n      0x02\n        /* \"@openzeppelin/contracts-upgradeable/utils/StringsUpgradeable.sol\":2108:2118  2 * length */\n      tag_251\n      swap2\n      swap1\n      tag_237\n      jump\t// in\n    tag_251:\n        /* \"@openzeppelin/contracts-upgradeable/utils/StringsUpgradeable.sol\":2108:2122  2 * length + 1 */\n      tag_252\n      swap2\n      swap1\n      tag_239\n      jump\t// in\n    tag_252:\n        /* \"@openzeppelin/contracts-upgradeable/utils/StringsUpgradeable.sol\":2096:2122  uint256 i = 2 * length + 1 */\n      swap1\n      pop\n        /* \"@openzeppelin/contracts-upgradeable/utils/StringsUpgradeable.sol\":2091:2219  for (uint256 i = 2 * length + 1; i > 1; --i) {... */\n    tag_248:\n        /* \"@openzeppelin/contracts-upgradeable/utils/StringsUpgradeable.sol\":2128:2129  1 */\n      0x01\n        /* \"@openzeppelin/contracts-upgradeable/utils/StringsUpgradeable.sol\":2124:2125  i */\n      dup2\n        /* \"@openzeppelin/contracts-upgradeable/utils/StringsUpgradeable.sol\":2124:2129  i > 1 */\n      gt\n        /* \"@openzeppelin/contracts-upgradeable/utils/StringsUpgradeable.sol\":2091:2219  for (uint256 i = 2 * length + 1; i > 1; --i) {... */\n      iszero\n      tag_249\n      jumpi\n        /* \"@openzeppelin/contracts-upgradeable/utils/StringsUpgradeable.sol\":2162:2170  _SYMBOLS */\n      0x3031323334353637383961626364656600000000000000000000000000000000\n        /* \"@openzeppelin/contracts-upgradeable/utils/StringsUpgradeable.sol\":2179:2182  0xf */\n      0x0f\n        /* \"@openzeppelin/contracts-upgradeable/utils/StringsUpgradeable.sol\":2171:2176  value */\n      dup7\n        /* \"@openzeppelin/contracts-upgradeable/utils/StringsUpgradeable.sol\":2171:2182  value & 0xf */\n      and\n        /* \"@openzeppelin/contracts-upgradeable/utils/StringsUpgradeable.sol\":2162:2183  _SYMBOLS[value & 0xf] */\n      0x10\n      dup2\n      lt\n      tag_253\n      jumpi\n      tag_254\n      tag_245\n      jump\t// in\n    tag_254:\n    tag_253:\n      byte\n      0xf8\n      shl\n        /* \"@openzeppelin/contracts-upgradeable/utils/StringsUpgradeable.sol\":2150:2156  buffer */\n      dup3\n        /* \"@openzeppelin/contracts-upgradeable/utils/StringsUpgradeable.sol\":2157:2158  i */\n      dup3\n        /* \"@openzeppelin/contracts-upgradeable/utils/StringsUpgradeable.sol\":2150:2159  buffer[i] */\n      dup2\n      mload\n      dup2\n      lt\n      tag_255\n      jumpi\n      tag_256\n      tag_245\n      jump\t// in\n    tag_256:\n    tag_255:\n      0x20\n      add\n      add\n        /* \"@openzeppelin/contracts-upgradeable/utils/StringsUpgradeable.sol\":2150:2183  buffer[i] = _SYMBOLS[value & 0xf] */\n      swap1\n      not(0xffffffffffffffffffffffffffffffffffffffffffffffffffffffffffffff)\n      and\n      swap1\n      dup2\n      0x00\n      byte\n      swap1\n      mstore8\n      pop\n        /* \"@openzeppelin/contracts-upgradeable/utils/StringsUpgradeable.sol\":2207:2208  4 */\n      0x04\n        /* \"@openzeppelin/contracts-upgradeable/utils/StringsUpgradeable.sol\":2197:2208  value >>= 4 */\n      dup6\n      swap1\n      shr\n      swap5\n      pop\n        /* \"@openzeppelin/contracts-upgradeable/utils/StringsUpgradeable.sol\":2131:2134  --i */\n      dup1\n      tag_257\n      swap1\n      tag_258\n      jump\t// in\n    tag_257:\n      swap1\n      pop\n        /* \"@openzeppelin/contracts-upgradeable/utils/StringsUpgradeable.sol\":2091:2219  for (uint256 i = 2 * length + 1; i > 1; --i) {... */\n      jump(tag_248)\n    tag_249:\n      pop\n        /* \"@openzeppelin/contracts-upgradeable/utils/StringsUpgradeable.sol\":2245:2246  0 */\n      0x00\n        /* \"@openzeppelin/contracts-upgradeable/utils/StringsUpgradeable.sol\":2236:2241  value */\n      dup5\n        /* \"@openzeppelin/contracts-upgradeable/utils/StringsUpgradeable.sol\":2236:2246  value == 0 */\n      eq\n        /* \"@openzeppelin/contracts-upgradeable/utils/StringsUpgradeable.sol\":2228:2283  require(value == 0, \"Strings: hex length insufficient\") */\n      tag_259\n      jumpi\n      mload(0x40)\n      0x08c379a000000000000000000000000000000000000000000000000000000000\n      dup2\n      mstore\n      0x04\n      add\n      tag_260\n      swap1\n      tag_261\n      jump\t// in\n    tag_260:\n      mload(0x40)\n      dup1\n      swap2\n      sub\n      swap1\n      revert\n    tag_259:\n        /* \"@openzeppelin/contracts-upgradeable/utils/StringsUpgradeable.sol\":2307:2313  buffer */\n      dup1\n        /* \"@openzeppelin/contracts-upgradeable/utils/StringsUpgradeable.sol\":2293:2314  return string(buffer) */\n      swap2\n      pop\n      pop\n        /* \"@openzeppelin/contracts-upgradeable/utils/StringsUpgradeable.sol\":1884:2321  function toHexString(uint256 value, uint256 length) internal pure returns (string memory) {... */\n      swap3\n      swap2\n      pop\n      pop\n      jump\t// out\n        /* \"@openzeppelin/contracts-upgradeable/proxy/ERC1967/ERC1967UpgradeUpgradeable.sol\":2107:2259  function _upgradeTo(address newImplementation) internal {... */\n    tag_228:\n        /* \"@openzeppelin/contracts-upgradeable/proxy/ERC1967/ERC1967UpgradeUpgradeable.sol\":2173:2210  _setImplementation(newImplementation) */\n      tag_263\n        /* \"@openzeppelin/contracts-upgradeable/proxy/ERC1967/ERC1967UpgradeUpgradeable.sol\":2192:2209  newImplementation */\n      dup2\n        /* \"@openzeppelin/contracts-upgradeable/proxy/ERC1967/ERC1967UpgradeUpgradeable.sol\":2173:2191  _setImplementation */\n      tag_187\n        /* \"@openzeppelin/contracts-upgradeable/proxy/ERC1967/ERC1967UpgradeUpgradeable.sol\":2173:2210  _setImplementation(newImplementation) */\n      jump\t// in\n    tag_263:\n        /* \"@openzeppelin/contracts-upgradeable/proxy/ERC1967/ERC1967UpgradeUpgradeable.sol\":2234:2251  newImplementation */\n      dup1\n        /* \"@openzeppelin/contracts-upgradeable/proxy/ERC1967/ERC1967UpgradeUpgradeable.sol\":2225:2252  Upgraded(newImplementation) */\n      0xffffffffffffffffffffffffffffffffffffffff\n      and\n      0xbc7cd75a20ee27fd9adebab32041f755214dbc6bffa90cc0225b39da2e5c2d3b\n      mload(0x40)\n      mload(0x40)\n      dup1\n      swap2\n      sub\n      swap1\n      log2\n        /* \"@openzeppelin/contracts-upgradeable/proxy/ERC1967/ERC1967UpgradeUpgradeable.sol\":2107:2259  function _upgradeTo(address newImplementation) internal {... */\n      pop\n      jump\t// out\n        /* \"@openzeppelin/contracts-upgradeable/utils/AddressUpgradeable.sol\":6685:6883  function functionDelegateCall(address target, bytes memory data) internal returns (bytes memory) {... */\n    tag_232:\n        /* \"@openzeppelin/contracts-upgradeable/utils/AddressUpgradeable.sol\":6768:6780  bytes memory */\n      0x60\n        /* \"@openzeppelin/contracts-upgradeable/utils/AddressUpgradeable.sol\":6799:6876  functionDelegateCall(target, data, \"Address: low-level delegate call failed\") */\n      tag_265\n        /* \"@openzeppelin/contracts-upgradeable/utils/AddressUpgradeable.sol\":6820:6826  target */\n      dup4\n        /* \"@openzeppelin/contracts-upgradeable/utils/AddressUpgradeable.sol\":6828:6832  data */\n      dup4\n        /* \"@openzeppelin/contracts-upgradeable/utils/AddressUpgradeable.sol\":6799:6876  functionDelegateCall(target, data, \"Address: low-level delegate call failed\") */\n      mload(0x40)\n      dup1\n      0x60\n      add\n      0x40\n      mstore\n      dup1\n      0x27\n      dup2\n      mstore\n      0x20\n      add\n      data_9fdcd12e4b726339b32a442b0a448365d5d85c96b2d2cff917b4f66c63110398\n      0x27\n      swap2\n      codecopy\n        /* \"@openzeppelin/contracts-upgradeable/utils/AddressUpgradeable.sol\":6799:6819  functionDelegateCall */\n      tag_266\n        /* \"@openzeppelin/contracts-upgradeable/utils/AddressUpgradeable.sol\":6799:6876  functionDelegateCall(target, data, \"Address: low-level delegate call failed\") */\n      jump\t// in\n    tag_265:\n        /* \"@openzeppelin/contracts-upgradeable/utils/AddressUpgradeable.sol\":6792:6876  return functionDelegateCall(target, data, \"Address: low-level delegate call failed\") */\n      swap1\n      pop\n        /* \"@openzeppelin/contracts-upgradeable/utils/AddressUpgradeable.sol\":6685:6883  function functionDelegateCall(address target, bytes memory data) internal returns (bytes memory) {... */\n      swap3\n      swap2\n      pop\n      pop\n      jump\t// out\n        /* \"@openzeppelin/contracts-upgradeable/utils/AddressUpgradeable.sol\":7069:7394  function functionDelegateCall(... */\n    tag_266:\n        /* \"@openzeppelin/contracts-upgradeable/utils/AddressUpgradeable.sol\":7210:7222  bytes memory */\n      0x60\n        /* \"@openzeppelin/contracts-upgradeable/utils/AddressUpgradeable.sol\":7235:7247  bool success */\n      0x00\n        /* \"@openzeppelin/contracts-upgradeable/utils/AddressUpgradeable.sol\":7249:7272  bytes memory returndata */\n      dup1\n        /* \"@openzeppelin/contracts-upgradeable/utils/AddressUpgradeable.sol\":7276:7282  target */\n      dup6\n        /* \"@openzeppelin/contracts-upgradeable/utils/AddressUpgradeable.sol\":7276:7295  target.delegatecall */\n      0xffffffffffffffffffffffffffffffffffffffff\n      and\n        /* \"@openzeppelin/contracts-upgradeable/utils/AddressUpgradeable.sol\":7296:7300  data */\n      dup6\n        /* \"@openzeppelin/contracts-upgradeable/utils/AddressUpgradeable.sol\":7276:7301  target.delegatecall(data) */\n      mload(0x40)\n      tag_268\n      swap2\n      swap1\n      tag_269\n      jump\t// in\n    tag_268:\n      0x00\n      mload(0x40)\n      dup1\n      dup4\n      sub\n      dup2\n      dup6\n      gas\n      delegatecall\n      swap2\n      pop\n      pop\n      returndatasize\n      dup1\n      0x00\n      dup2\n      eq\n      tag_272\n      jumpi\n      mload(0x40)\n      swap2\n      pop\n      and(add(returndatasize, 0x3f), not(0x1f))\n      dup3\n      add\n      0x40\n      mstore\n      returndatasize\n      dup3\n      mstore\n      returndatasize\n      0x00\n      0x20\n      dup5\n      add\n      returndatacopy\n      jump(tag_271)\n    tag_272:\n      0x60\n      swap2\n      pop\n    tag_271:\n      pop\n        /* \"@openzeppelin/contracts-upgradeable/utils/AddressUpgradeable.sol\":7234:7301  (bool success, bytes memory returndata) = target.delegatecall(data) */\n      swap2\n      pop\n      swap2\n      pop\n        /* \"@openzeppelin/contracts-upgradeable/utils/AddressUpgradeable.sol\":7318:7387  verifyCallResultFromTarget(target, success, returndata, errorMessage) */\n      tag_273\n        /* \"@openzeppelin/contracts-upgradeable/utils/AddressUpgradeable.sol\":7345:7351  target */\n      dup7\n        /* \"@openzeppelin/contracts-upgradeable/utils/AddressUpgradeable.sol\":7353:7360  success */\n      dup4\n        /* \"@openzeppelin/contracts-upgradeable/utils/AddressUpgradeable.sol\":7362:7372  returndata */\n      dup4\n        /* \"@openzeppelin/contracts-upgradeable/utils/AddressUpgradeable.sol\":7374:7386  errorMessage */\n      dup8\n        /* \"@openzeppelin/contracts-upgradeable/utils/AddressUpgradeable.sol\":7318:7344  verifyCallResultFromTarget */\n      tag_274\n        /* \"@openzeppelin/contracts-upgradeable/utils/AddressUpgradeable.sol\":7318:7387  verifyCallResultFromTarget(target, success, returndata, errorMessage) */\n      jump\t// in\n    tag_273:\n        /* \"@openzeppelin/contracts-upgradeable/utils/AddressUpgradeable.sol\":7311:7387  return verifyCallResultFromTarget(target, success, returndata, errorMessage) */\n      swap3\n      pop\n      pop\n      pop\n        /* \"@openzeppelin/contracts-upgradeable/utils/AddressUpgradeable.sol\":7069:7394  function functionDelegateCall(... */\n      swap4\n      swap3\n      pop\n      pop\n      pop\n      jump\t// out\n        /* \"@openzeppelin/contracts-upgradeable/utils/AddressUpgradeable.sol\":7682:8310  function verifyCallResultFromTarget(... */\n    tag_274:\n        /* \"@openzeppelin/contracts-upgradeable/utils/AddressUpgradeable.sol\":7862:7874  bytes memory */\n      0x60\n        /* \"@openzeppelin/contracts-upgradeable/utils/AddressUpgradeable.sol\":7890:7897  success */\n      dup4\n        /* \"@openzeppelin/contracts-upgradeable/utils/AddressUpgradeable.sol\":7886:8304  if (success) {... */\n      iszero\n      tag_276\n      jumpi\n        /* \"@openzeppelin/contracts-upgradeable/utils/AddressUpgradeable.sol\":7938:7939  0 */\n      0x00\n        /* \"@openzeppelin/contracts-upgradeable/utils/AddressUpgradeable.sol\":7917:7927  returndata */\n      dup4\n        /* \"@openzeppelin/contracts-upgradeable/utils/AddressUpgradeable.sol\":7917:7934  returndata.length */\n      mload\n        /* \"@openzeppelin/contracts-upgradeable/utils/AddressUpgradeable.sol\":7917:7939  returndata.length == 0 */\n      sub\n        /* \"@openzeppelin/contracts-upgradeable/utils/AddressUpgradeable.sol\":7913:8199  if (returndata.length == 0) {... */\n      tag_277\n      jumpi\n        /* \"@openzeppelin/contracts-upgradeable/utils/AddressUpgradeable.sol\":8132:8150  isContract(target) */\n      tag_278\n        /* \"@openzeppelin/contracts-upgradeable/utils/AddressUpgradeable.sol\":8143:8149  target */\n      dup6\n        /* \"@openzeppelin/contracts-upgradeable/utils/AddressUpgradeable.sol\":8132:8142  isContract */\n      tag_115\n        /* \"@openzeppelin/contracts-upgradeable/utils/AddressUpgradeable.sol\":8132:8150  isContract(target) */\n      jump\t// in\n    tag_278:\n        /* \"@openzeppelin/contracts-upgradeable/utils/AddressUpgradeable.sol\":8124:8184  require(isContract(target), \"Address: call to non-contract\") */\n      tag_279\n      jumpi\n      mload(0x40)\n      0x08c379a000000000000000000000000000000000000000000000000000000000\n      dup2\n      mstore\n      0x04\n      add\n      tag_280\n      swap1\n      tag_281\n      jump\t// in\n    tag_280:\n      mload(0x40)\n      dup1\n      swap2\n      sub\n      swap1\n      revert\n    tag_279:\n        /* \"@openzeppelin/contracts-upgradeable/utils/AddressUpgradeable.sol\":7913:8199  if (returndata.length == 0) {... */\n    tag_277:\n        /* \"@openzeppelin/contracts-upgradeable/utils/AddressUpgradeable.sol\":8219:8229  returndata */\n      dup3\n        /* \"@openzeppelin/contracts-upgradeable/utils/AddressUpgradeable.sol\":8212:8229  return returndata */\n      swap1\n      pop\n      jump(tag_275)\n        /* \"@openzeppelin/contracts-upgradeable/utils/AddressUpgradeable.sol\":7886:8304  if (success) {... */\n    tag_276:\n        /* \"@openzeppelin/contracts-upgradeable/utils/AddressUpgradeable.sol\":8260:8293  _revert(returndata, errorMessage) */\n      tag_283\n        /* \"@openzeppelin/contracts-upgradeable/utils/AddressUpgradeable.sol\":8268:8278  returndata */\n      dup4\n        /* \"@openzeppelin/contracts-upgradeable/utils/AddressUpgradeable.sol\":8280:8292  errorMessage */\n      dup4\n        /* \"@openzeppelin/contracts-upgradeable/utils/AddressUpgradeable.sol\":8260:8267  _revert */\n      tag_284\n        /* \"@openzeppelin/contracts-upgradeable/utils/AddressUpgradeable.sol\":8260:8293  _revert(returndata, errorMessage) */\n      jump\t// in\n    tag_283:\n        /* \"@openzeppelin/contracts-upgradeable/utils/AddressUpgradeable.sol\":7682:8310  function verifyCallResultFromTarget(... */\n    tag_275:\n      swap5\n      swap4\n      pop\n      pop\n      pop\n      pop\n      jump\t// out\n        /* \"@openzeppelin/contracts-upgradeable/utils/AddressUpgradeable.sol\":8832:9372  function _revert(bytes memory returndata, string memory errorMessage) private pure {... */\n    tag_284:\n        /* \"@openzeppelin/contracts-upgradeable/utils/AddressUpgradeable.sol\":9011:9012  0 */\n      0x00\n        /* \"@openzeppelin/contracts-upgradeable/utils/AddressUpgradeable.sol\":8991:9001  returndata */\n      dup3\n        /* \"@openzeppelin/contracts-upgradeable/utils/AddressUpgradeable.sol\":8991:9008  returndata.length */\n      mload\n        /* \"@openzeppelin/contracts-upgradeable/utils/AddressUpgradeable.sol\":8991:9012  returndata.length > 0 */\n      gt\n        /* \"@openzeppelin/contracts-upgradeable/utils/AddressUpgradeable.sol\":8987:9366  if (returndata.length > 0) {... */\n      iszero\n      tag_286\n      jumpi\n        /* \"@openzeppelin/contracts-upgradeable/utils/AddressUpgradeable.sol\":9219:9229  returndata */\n      dup2\n        /* \"@openzeppelin/contracts-upgradeable/utils/AddressUpgradeable.sol\":9213:9230  mload(returndata) */\n      mload\n        /* \"@openzeppelin/contracts-upgradeable/utils/AddressUpgradeable.sol\":9275:9290  returndata_size */\n      dup1\n        /* \"@openzeppelin/contracts-upgradeable/utils/AddressUpgradeable.sol\":9262:9272  returndata */\n      dup4\n        /* \"@openzeppelin/contracts-upgradeable/utils/AddressUpgradeable.sol\":9258:9260  32 */\n      0x20\n        /* \"@openzeppelin/contracts-upgradeable/utils/AddressUpgradeable.sol\":9254:9273  add(32, returndata) */\n      add\n        /* \"@openzeppelin/contracts-upgradeable/utils/AddressUpgradeable.sol\":9247:9291  revert(add(32, returndata), returndata_size) */\n      revert\n        /* \"@openzeppelin/contracts-upgradeable/utils/AddressUpgradeable.sol\":8987:9366  if (returndata.length > 0) {... */\n    tag_286:\n        /* \"@openzeppelin/contracts-upgradeable/utils/AddressUpgradeable.sol\":9342:9354  errorMessage */\n      dup1\n        /* \"@openzeppelin/contracts-upgradeable/utils/AddressUpgradeable.sol\":9335:9355  revert(errorMessage) */\n      mload(0x40)\n      0x08c379a000000000000000000000000000000000000000000000000000000000\n      dup2\n      mstore\n      0x04\n      add\n      tag_288\n      swap2\n      swap1\n      tag_217\n      jump\t// in\n    tag_288:\n      mload(0x40)\n      dup1\n      swap2\n      sub\n      swap1\n      revert\n        /* \"#utility.yul\":7:82   */\n    tag_289:\n        /* \"#utility.yul\":40:46   */\n      0x00\n        /* \"#utility.yul\":73:75   */\n      0x40\n        /* \"#utility.yul\":67:76   */\n      mload\n        /* \"#utility.yul\":57:76   */\n      swap1\n      pop\n        /* \"#utility.yul\":7:82   */\n      swap1\n      jump\t// out\n        /* \"#utility.yul\":88:205   */\n    tag_290:\n        /* \"#utility.yul\":197:198   */\n      0x00\n        /* \"#utility.yul\":194:195   */\n      dup1\n        /* \"#utility.yul\":187:199   */\n      revert\n        /* \"#utility.yul\":211:328   */\n    tag_291:\n        /* \"#utility.yul\":320:321   */\n      0x00\n        /* \"#utility.yul\":317:318   */\n      dup1\n        /* \"#utility.yul\":310:322   */\n      revert\n        /* \"#utility.yul\":334:483   */\n    tag_292:\n        /* \"#utility.yul\":370:377   */\n      0x00\n        /* \"#utility.yul\":410:476   */\n      0xffffffff00000000000000000000000000000000000000000000000000000000\n        /* \"#utility.yul\":403:408   */\n      dup3\n        /* \"#utility.yul\":399:477   */\n      and\n        /* \"#utility.yul\":388:477   */\n      swap1\n      pop\n        /* \"#utility.yul\":334:483   */\n      swap2\n      swap1\n      pop\n      jump\t// out\n        /* \"#utility.yul\":489:609   */\n    tag_293:\n        /* \"#utility.yul\":561:584   */\n      tag_367\n        /* \"#utility.yul\":578:583   */\n      dup2\n        /* \"#utility.yul\":561:584   */\n      tag_292\n      jump\t// in\n    tag_367:\n        /* \"#utility.yul\":554:559   */\n      dup2\n        /* \"#utility.yul\":551:585   */\n      eq\n        /* \"#utility.yul\":541:603   */\n      tag_368\n      jumpi\n        /* \"#utility.yul\":599:600   */\n      0x00\n        /* \"#utility.yul\":596:597   */\n      dup1\n        /* \"#utility.yul\":589:601   */\n      revert\n        /* \"#utility.yul\":541:603   */\n    tag_368:\n        /* \"#utility.yul\":489:609   */\n      pop\n      jump\t// out\n        /* \"#utility.yul\":615:752   */\n    tag_294:\n        /* \"#utility.yul\":660:665   */\n      0x00\n        /* \"#utility.yul\":698:704   */\n      dup2\n        /* \"#utility.yul\":685:705   */\n      calldataload\n        /* \"#utility.yul\":676:705   */\n      swap1\n      pop\n        /* \"#utility.yul\":714:746   */\n      tag_370\n        /* \"#utility.yul\":740:745   */\n      dup2\n        /* \"#utility.yul\":714:746   */\n      tag_293\n      jump\t// in\n    tag_370:\n        /* \"#utility.yul\":615:752   */\n      swap3\n      swap2\n      pop\n      pop\n      jump\t// out\n        /* \"#utility.yul\":758:1085   */\n    tag_18:\n        /* \"#utility.yul\":816:822   */\n      0x00\n        /* \"#utility.yul\":865:867   */\n      0x20\n        /* \"#utility.yul\":853:862   */\n      dup3\n        /* \"#utility.yul\":844:851   */\n      dup5\n        /* \"#utility.yul\":840:863   */\n      sub\n        /* \"#utility.yul\":836:868   */\n      slt\n        /* \"#utility.yul\":833:952   */\n      iszero\n      tag_372\n      jumpi\n        /* \"#utility.yul\":871:950   */\n      tag_373\n      tag_290\n      jump\t// in\n    tag_373:\n        /* \"#utility.yul\":833:952   */\n    tag_372:\n        /* \"#utility.yul\":991:992   */\n      0x00\n        /* \"#utility.yul\":1016:1068   */\n      tag_374\n        /* \"#utility.yul\":1060:1067   */\n      dup5\n        /* \"#utility.yul\":1051:1057   */\n      dup3\n        /* \"#utility.yul\":1040:1049   */\n      dup6\n        /* \"#utility.yul\":1036:1058   */\n      add\n        /* \"#utility.yul\":1016:1068   */\n      tag_294\n      jump\t// in\n    tag_374:\n        /* \"#utility.yul\":1006:1068   */\n      swap2\n      pop\n        /* \"#utility.yul\":962:1078   */\n      pop\n        /* \"#utility.yul\":758:1085   */\n      swap3\n      swap2\n      pop\n      pop\n      jump\t// out\n        /* \"#utility.yul\":1091:1181   */\n    tag_295:\n        /* \"#utility.yul\":1125:1132   */\n      0x00\n        /* \"#utility.yul\":1168:1173   */\n      dup2\n        /* \"#utility.yul\":1161:1174   */\n      iszero\n        /* \"#utility.yul\":1154:1175   */\n      iszero\n        /* \"#utility.yul\":1143:1175   */\n      swap1\n      pop\n        /* \"#utility.yul\":1091:1181   */\n      swap2\n      swap1\n      pop\n      jump\t// out\n        /* \"#utility.yul\":1187:1296   */\n    tag_296:\n        /* \"#utility.yul\":1268:1289   */\n      tag_377\n        /* \"#utility.yul\":1283:1288   */\n      dup2\n        /* \"#utility.yul\":1268:1289   */\n      tag_295\n      jump\t// in\n    tag_377:\n        /* \"#utility.yul\":1263:1266   */\n      dup3\n        /* \"#utility.yul\":1256:1290   */\n      mstore\n        /* \"#utility.yul\":1187:1296   */\n      pop\n      pop\n      jump\t// out\n        /* \"#utility.yul\":1302:1512   */\n    tag_21:\n        /* \"#utility.yul\":1389:1393   */\n      0x00\n        /* \"#utility.yul\":1427:1429   */\n      0x20\n        /* \"#utility.yul\":1416:1425   */\n      dup3\n        /* \"#utility.yul\":1412:1430   */\n      add\n        /* \"#utility.yul\":1404:1430   */\n      swap1\n      pop\n        /* \"#utility.yul\":1440:1505   */\n      tag_379\n        /* \"#utility.yul\":1502:1503   */\n      0x00\n        /* \"#utility.yul\":1491:1500   */\n      dup4\n        /* \"#utility.yul\":1487:1504   */\n      add\n        /* \"#utility.yul\":1478:1484   */\n      dup5\n        /* \"#utility.yul\":1440:1505   */\n      tag_296\n      jump\t// in\n    tag_379:\n        /* \"#utility.yul\":1302:1512   */\n      swap3\n      swap2\n      pop\n      pop\n      jump\t// out\n        /* \"#utility.yul\":1518:1595   */\n    tag_297:\n        /* \"#utility.yul\":1555:1562   */\n      0x00\n        /* \"#utility.yul\":1584:1589   */\n      dup2\n        /* \"#utility.yul\":1573:1589   */\n      swap1\n      pop\n        /* \"#utility.yul\":1518:1595   */\n      swap2\n      swap1\n      pop\n      jump\t// out\n        /* \"#utility.yul\":1601:1723   */\n    tag_298:\n        /* \"#utility.yul\":1674:1698   */\n      tag_382\n        /* \"#utility.yul\":1692:1697   */\n      dup2\n        /* \"#utility.yul\":1674:1698   */\n      tag_297\n      jump\t// in\n    tag_382:\n        /* \"#utility.yul\":1667:1672   */\n      dup2\n        /* \"#utility.yul\":1664:1699   */\n      eq\n        /* \"#utility.yul\":1654:1717   */\n      tag_383\n      jumpi\n        /* \"#utility.yul\":1713:1714   */\n      0x00\n        /* \"#utility.yul\":1710:1711   */\n      dup1\n        /* \"#utility.yul\":1703:1715   */\n      revert\n        /* \"#utility.yul\":1654:1717   */\n    tag_383:\n        /* \"#utility.yul\":1601:1723   */\n      pop\n      jump\t// out\n        /* \"#utility.yul\":1729:1868   */\n    tag_299:\n        /* \"#utility.yul\":1775:1780   */\n      0x00\n        /* \"#utility.yul\":1813:1819   */\n      dup2\n        /* \"#utility.yul\":1800:1820   */\n      calldataload\n        /* \"#utility.yul\":1791:1820   */\n      swap1\n      pop\n        /* \"#utility.yul\":1829:1862   */\n      tag_385\n        /* \"#utility.yul\":1856:1861   */\n      dup2\n        /* \"#utility.yul\":1829:1862   */\n      tag_298\n      jump\t// in\n    tag_385:\n        /* \"#utility.yul\":1729:1868   */\n      swap3\n      swap2\n      pop\n      pop\n      jump\t// out\n        /* \"#utility.yul\":1874:2203   */\n    tag_25:\n        /* \"#utility.yul\":1933:1939   */\n      0x00\n        /* \"#utility.yul\":1982:1984   */\n      0x20\n        /* \"#utility.yul\":1970:1979   */\n      dup3\n        /* \"#utility.yul\":1961:1968   */\n      dup5\n        /* \"#utility.yul\":1957:1980   */\n      sub\n        /* \"#utility.yul\":1953:1985   */\n      slt\n        /* \"#utility.yul\":1950:2069   */\n      iszero\n      tag_387\n      jumpi\n        /* \"#utility.yul\":1988:2067   */\n      tag_388\n      tag_290\n      jump\t// in\n    tag_388:\n        /* \"#utility.yul\":1950:2069   */\n    tag_387:\n        /* \"#utility.yul\":2108:2109   */\n      0x00\n        /* \"#utility.yul\":2133:2186   */\n      tag_389\n        /* \"#utility.yul\":2178:2185   */\n      dup5\n        /* \"#utility.yul\":2169:2175   */\n      dup3\n        /* \"#utility.yul\":2158:2167   */\n      dup6\n        /* \"#utility.yul\":2154:2176   */\n      add\n        /* \"#utility.yul\":2133:2186   */\n      tag_299\n      jump\t// in\n    tag_389:\n        /* \"#utility.yul\":2123:2186   */\n      swap2\n      pop\n        /* \"#utility.yul\":2079:2196   */\n      pop\n        /* \"#utility.yul\":1874:2203   */\n      swap3\n      swap2\n      pop\n      pop\n      jump\t// out\n        /* \"#utility.yul\":2209:2327   */\n    tag_300:\n        /* \"#utility.yul\":2296:2320   */\n      tag_391\n        /* \"#utility.yul\":2314:2319   */\n      dup2\n        /* \"#utility.yul\":2296:2320   */\n      tag_297\n      jump\t// in\n    tag_391:\n        /* \"#utility.yul\":2291:2294   */\n      dup3\n        /* \"#utility.yul\":2284:2321   */\n      mstore\n        /* \"#utility.yul\":2209:2327   */\n      pop\n      pop\n      jump\t// out\n        /* \"#utility.yul\":2333:2555   */\n    tag_28:\n        /* \"#utility.yul\":2426:2430   */\n      0x00\n        /* \"#utility.yul\":2464:2466   */\n      0x20\n        /* \"#utility.yul\":2453:2462   */\n      dup3\n        /* \"#utility.yul\":2449:2467   */\n      add\n        /* \"#utility.yul\":2441:2467   */\n      swap1\n      pop\n        /* \"#utility.yul\":2477:2548   */\n      tag_393\n        /* \"#utility.yul\":2545:2546   */\n      0x00\n        /* \"#utility.yul\":2534:2543   */\n      dup4\n        /* \"#utility.yul\":2530:2547   */\n      add\n        /* \"#utility.yul\":2521:2527   */\n      dup5\n        /* \"#utility.yul\":2477:2548   */\n      tag_300\n      jump\t// in\n    tag_393:\n        /* \"#utility.yul\":2333:2555   */\n      swap3\n      swap2\n      pop\n      pop\n      jump\t// out\n        /* \"#utility.yul\":2561:2687   */\n    tag_301:\n        /* \"#utility.yul\":2598:2605   */\n      0x00\n        /* \"#utility.yul\":2638:2680   */\n      0xffffffffffffffffffffffffffffffffffffffff\n        /* \"#utility.yul\":2631:2636   */\n      dup3\n        /* \"#utility.yul\":2627:2681   */\n      and\n        /* \"#utility.yul\":2616:2681   */\n      swap1\n      pop\n        /* \"#utility.yul\":2561:2687   */\n      swap2\n      swap1\n      pop\n      jump\t// out\n        /* \"#utility.yul\":2693:2789   */\n    tag_302:\n        /* \"#utility.yul\":2730:2737   */\n      0x00\n        /* \"#utility.yul\":2759:2783   */\n      tag_396\n        /* \"#utility.yul\":2777:2782   */\n      dup3\n        /* \"#utility.yul\":2759:2783   */\n      tag_301\n      jump\t// in\n    tag_396:\n        /* \"#utility.yul\":2748:2783   */\n      swap1\n      pop\n        /* \"#utility.yul\":2693:2789   */\n      swap2\n      swap1\n      pop\n      jump\t// out\n        /* \"#utility.yul\":2795:2917   */\n    tag_303:\n        /* \"#utility.yul\":2868:2892   */\n      tag_398\n        /* \"#utility.yul\":2886:2891   */\n      dup2\n        /* \"#utility.yul\":2868:2892   */\n      tag_302\n      jump\t// in\n    tag_398:\n        /* \"#utility.yul\":2861:2866   */\n      dup2\n        /* \"#utility.yul\":2858:2893   */\n      eq\n        /* \"#utility.yul\":2848:2911   */\n      tag_399\n      jumpi\n        /* \"#utility.yul\":2907:2908   */\n      0x00\n        /* \"#utility.yul\":2904:2905   */\n      dup1\n        /* \"#utility.yul\":2897:2909   */\n      revert\n        /* \"#utility.yul\":2848:2911   */\n    tag_399:\n        /* \"#utility.yul\":2795:2917   */\n      pop\n      jump\t// out\n        /* \"#utility.yul\":2923:3062   */\n    tag_304:\n        /* \"#utility.yul\":2969:2974   */\n      0x00\n        /* \"#utility.yul\":3007:3013   */\n      dup2\n        /* \"#utility.yul\":2994:3014   */\n      calldataload\n        /* \"#utility.yul\":2985:3014   */\n      swap1\n      pop\n        /* \"#utility.yul\":3023:3056   */\n      tag_401\n        /* \"#utility.yul\":3050:3055   */\n      dup2\n        /* \"#utility.yul\":3023:3056   */\n      tag_303\n      jump\t// in\n    tag_401:\n        /* \"#utility.yul\":2923:3062   */\n      swap3\n      swap2\n      pop\n      pop\n      jump\t// out\n        /* \"#utility.yul\":3068:3542   */\n    tag_32:\n        /* \"#utility.yul\":3136:3142   */\n      0x00\n        /* \"#utility.yul\":3144:3150   */\n      dup1\n        /* \"#utility.yul\":3193:3195   */\n      0x40\n        /* \"#utility.yul\":3181:3190   */\n      dup4\n        /* \"#utility.yul\":3172:3179   */\n      dup6\n        /* \"#utility.yul\":3168:3191   */\n      sub\n        /* \"#utility.yul\":3164:3196   */\n      slt\n        /* \"#utility.yul\":3161:3280   */\n      iszero\n      tag_403\n      jumpi\n        /* \"#utility.yul\":3199:3278   */\n      tag_404\n      tag_290\n      jump\t// in\n    tag_404:\n        /* \"#utility.yul\":3161:3280   */\n    tag_403:\n        /* \"#utility.yul\":3319:3320   */\n      0x00\n        /* \"#utility.yul\":3344:3397   */\n      tag_405\n        /* \"#utility.yul\":3389:3396   */\n      dup6\n        /* \"#utility.yul\":3380:3386   */\n      dup3\n        /* \"#utility.yul\":3369:3378   */\n      dup7\n        /* \"#utility.yul\":3365:3387   */\n      add\n        /* \"#utility.yul\":3344:3397   */\n      tag_299\n      jump\t// in\n    tag_405:\n        /* \"#utility.yul\":3334:3397   */\n      swap3\n      pop\n        /* \"#utility.yul\":3290:3407   */\n      pop\n        /* \"#utility.yul\":3446:3448   */\n      0x20\n        /* \"#utility.yul\":3472:3525   */\n      tag_406\n        /* \"#utility.yul\":3517:3524   */\n      dup6\n        /* \"#utility.yul\":3508:3514   */\n      dup3\n        /* \"#utility.yul\":3497:3506   */\n      dup7\n        /* \"#utility.yul\":3493:3515   */\n      add\n        /* \"#utility.yul\":3472:3525   */\n      tag_304\n      jump\t// in\n    tag_406:\n        /* \"#utility.yul\":3462:3525   */\n      swap2\n      pop\n        /* \"#utility.yul\":3417:3535   */\n      pop\n        /* \"#utility.yul\":3068:3542   */\n      swap3\n      pop\n      swap3\n      swap1\n      pop\n      jump\t// out\n        /* \"#utility.yul\":3548:3877   */\n    tag_41:\n        /* \"#utility.yul\":3607:3613   */\n      0x00\n        /* \"#utility.yul\":3656:3658   */\n      0x20\n        /* \"#utility.yul\":3644:3653   */\n      dup3\n        /* \"#utility.yul\":3635:3642   */\n      dup5\n        /* \"#utility.yul\":3631:3654   */\n      sub\n        /* \"#utility.yul\":3627:3659   */\n      slt\n        /* \"#utility.yul\":3624:3743   */\n      iszero\n      tag_408\n      jumpi\n        /* \"#utility.yul\":3662:3741   */\n      tag_409\n      tag_290\n      jump\t// in\n    tag_409:\n        /* \"#utility.yul\":3624:3743   */\n    tag_408:\n        /* \"#utility.yul\":3782:3783   */\n      0x00\n        /* \"#utility.yul\":3807:3860   */\n      tag_410\n        /* \"#utility.yul\":3852:3859   */\n      dup5\n        /* \"#utility.yul\":3843:3849   */\n      dup3\n        /* \"#utility.yul\":3832:3841   */\n      dup6\n        /* \"#utility.yul\":3828:3850   */\n      add\n        /* \"#utility.yul\":3807:3860   */\n      tag_304\n      jump\t// in\n    tag_410:\n        /* \"#utility.yul\":3797:3860   */\n      swap2\n      pop\n        /* \"#utility.yul\":3753:3870   */\n      pop\n        /* \"#utility.yul\":3548:3877   */\n      swap3\n      swap2\n      pop\n      pop\n      jump\t// out\n        /* \"#utility.yul\":3883:4357   */\n    tag_46:\n        /* \"#utility.yul\":3951:3957   */\n      0x00\n        /* \"#utility.yul\":3959:3965   */\n      dup1\n        /* \"#utility.yul\":4008:4010   */\n      0x40\n        /* \"#utility.yul\":3996:4005   */\n      dup4\n        /* \"#utility.yul\":3987:3994   */\n      dup6\n        /* \"#utility.yul\":3983:4006   */\n      sub\n        /* \"#utility.yul\":3979:4011   */\n      slt\n        /* \"#utility.yul\":3976:4095   */\n      iszero\n      tag_412\n      jumpi\n        /* \"#utility.yul\":4014:4093   */\n      tag_413\n      tag_290\n      jump\t// in\n    tag_413:\n        /* \"#utility.yul\":3976:4095   */\n    tag_412:\n        /* \"#utility.yul\":4134:4135   */\n      0x00\n        /* \"#utility.yul\":4159:4212   */\n      tag_414\n        /* \"#utility.yul\":4204:4211   */\n      dup6\n        /* \"#utility.yul\":4195:4201   */\n      dup3\n        /* \"#utility.yul\":4184:4193   */\n      dup7\n        /* \"#utility.yul\":4180:4202   */\n      add\n        /* \"#utility.yul\":4159:4212   */\n      tag_304\n      jump\t// in\n    tag_414:\n        /* \"#utility.yul\":4149:4212   */\n      swap3\n      pop\n        /* \"#utility.yul\":4105:4222   */\n      pop\n        /* \"#utility.yul\":4261:4263   */\n      0x20\n        /* \"#utility.yul\":4287:4340   */\n      tag_415\n        /* \"#utility.yul\":4332:4339   */\n      dup6\n        /* \"#utility.yul\":4323:4329   */\n      dup3\n        /* \"#utility.yul\":4312:4321   */\n      dup7\n        /* \"#utility.yul\":4308:4330   */\n      add\n        /* \"#utility.yul\":4287:4340   */\n      tag_304\n      jump\t// in\n    tag_415:\n        /* \"#utility.yul\":4277:4340   */\n      swap2\n      pop\n        /* \"#utility.yul\":4232:4350   */\n      pop\n        /* \"#utility.yul\":3883:4357   */\n      swap3\n      pop\n      swap3\n      swap1\n      pop\n      jump\t// out\n        /* \"#utility.yul\":4363:4480   */\n    tag_305:\n        /* \"#utility.yul\":4472:4473   */\n      0x00\n        /* \"#utility.yul\":4469:4470   */\n      dup1\n        /* \"#utility.yul\":4462:4474   */\n      revert\n        /* \"#utility.yul\":4486:4603   */\n    tag_306:\n        /* \"#utility.yul\":4595:4596   */\n      0x00\n        /* \"#utility.yul\":4592:4593   */\n      dup1\n        /* \"#utility.yul\":4585:4597   */\n      revert\n        /* \"#utility.yul\":4609:4711   */\n    tag_307:\n        /* \"#utility.yul\":4650:4656   */\n      0x00\n        /* \"#utility.yul\":4701:4703   */\n      0x1f\n        /* \"#utility.yul\":4697:4704   */\n      not\n        /* \"#utility.yul\":4692:4694   */\n      0x1f\n        /* \"#utility.yul\":4685:4690   */\n      dup4\n        /* \"#utility.yul\":4681:4695   */\n      add\n        /* \"#utility.yul\":4677:4705   */\n      and\n        /* \"#utility.yul\":4667:4705   */\n      swap1\n      pop\n        /* \"#utility.yul\":4609:4711   */\n      swap2\n      swap1\n      pop\n      jump\t// out\n        /* \"#utility.yul\":4717:4897   */\n    tag_108:\n        /* \"#utility.yul\":4765:4842   */\n      0x4e487b7100000000000000000000000000000000000000000000000000000000\n        /* \"#utility.yul\":4762:4763   */\n      0x00\n        /* \"#utility.yul\":4755:4843   */\n      mstore\n        /* \"#utility.yul\":4862:4866   */\n      0x41\n        /* \"#utility.yul\":4859:4860   */\n      0x04\n        /* \"#utility.yul\":4852:4867   */\n      mstore\n        /* \"#utility.yul\":4886:4890   */\n      0x24\n        /* \"#utility.yul\":4883:4884   */\n      0x00\n        /* \"#utility.yul\":4876:4891   */\n      revert\n        /* \"#utility.yul\":4903:5184   */\n    tag_308:\n        /* \"#utility.yul\":4986:5013   */\n      tag_421\n        /* \"#utility.yul\":5008:5012   */\n      dup3\n        /* \"#utility.yul\":4986:5013   */\n      tag_307\n      jump\t// in\n    tag_421:\n        /* \"#utility.yul\":4978:4984   */\n      dup2\n        /* \"#utility.yul\":4974:5014   */\n      add\n        /* \"#utility.yul\":5116:5122   */\n      dup2\n        /* \"#utility.yul\":5104:5114   */\n      dup2\n        /* \"#utility.yul\":5101:5123   */\n      lt\n        /* \"#utility.yul\":5080:5098   */\n      0xffffffffffffffff\n        /* \"#utility.yul\":5068:5078   */\n      dup3\n        /* \"#utility.yul\":5065:5099   */\n      gt\n        /* \"#utility.yul\":5062:5124   */\n      or\n        /* \"#utility.yul\":5059:5147   */\n      iszero\n      tag_422\n      jumpi\n        /* \"#utility.yul\":5127:5145   */\n      tag_423\n      tag_108\n      jump\t// in\n    tag_423:\n        /* \"#utility.yul\":5059:5147   */\n    tag_422:\n        /* \"#utility.yul\":5167:5177   */\n      dup1\n        /* \"#utility.yul\":5163:5165   */\n      0x40\n        /* \"#utility.yul\":5156:5178   */\n      mstore\n        /* \"#utility.yul\":4946:5184   */\n      pop\n        /* \"#utility.yul\":4903:5184   */\n      pop\n      pop\n      jump\t// out\n        /* \"#utility.yul\":5190:5319   */\n    tag_309:\n        /* \"#utility.yul\":5224:5230   */\n      0x00\n        /* \"#utility.yul\":5251:5271   */\n      tag_425\n      tag_289\n      jump\t// in\n    tag_425:\n        /* \"#utility.yul\":5241:5271   */\n      swap1\n      pop\n        /* \"#utility.yul\":5280:5313   */\n      tag_426\n        /* \"#utility.yul\":5308:5312   */\n      dup3\n        /* \"#utility.yul\":5300:5306   */\n      dup3\n        /* \"#utility.yul\":5280:5313   */\n      tag_308\n      jump\t// in\n    tag_426:\n        /* \"#utility.yul\":5190:5319   */\n      swap2\n      swap1\n      pop\n      jump\t// out\n        /* \"#utility.yul\":5325:5632   */\n    tag_310:\n        /* \"#utility.yul\":5386:5390   */\n      0x00\n        /* \"#utility.yul\":5476:5494   */\n      0xffffffffffffffff\n        /* \"#utility.yul\":5468:5474   */\n      dup3\n        /* \"#utility.yul\":5465:5495   */\n      gt\n        /* \"#utility.yul\":5462:5518   */\n      iszero\n      tag_428\n      jumpi\n        /* \"#utility.yul\":5498:5516   */\n      tag_429\n      tag_108\n      jump\t// in\n    tag_429:\n        /* \"#utility.yul\":5462:5518   */\n    tag_428:\n        /* \"#utility.yul\":5536:5565   */\n      tag_430\n        /* \"#utility.yul\":5558:5564   */\n      dup3\n        /* \"#utility.yul\":5536:5565   */\n      tag_307\n      jump\t// in\n    tag_430:\n        /* \"#utility.yul\":5528:5565   */\n      swap1\n      pop\n        /* \"#utility.yul\":5620:5624   */\n      0x20\n        /* \"#utility.yul\":5614:5618   */\n      dup2\n        /* \"#utility.yul\":5610:5625   */\n      add\n        /* \"#utility.yul\":5602:5625   */\n      swap1\n      pop\n        /* \"#utility.yul\":5325:5632   */\n      swap2\n      swap1\n      pop\n      jump\t// out\n        /* \"#utility.yul\":5638:5786   */\n    tag_311:\n        /* \"#utility.yul\":5736:5742   */\n      dup3\n        /* \"#utility.yul\":5731:5734   */\n      dup2\n        /* \"#utility.yul\":5726:5729   */\n      dup4\n        /* \"#utility.yul\":5713:5743   */\n      calldatacopy\n        /* \"#utility.yul\":5777:5778   */\n      0x00\n        /* \"#utility.yul\":5768:5774   */\n      dup4\n        /* \"#utility.yul\":5763:5766   */\n      dup4\n        /* \"#utility.yul\":5759:5775   */\n      add\n        /* \"#utility.yul\":5752:5779   */\n      mstore\n        /* \"#utility.yul\":5638:5786   */\n      pop\n      pop\n      pop\n      jump\t// out\n        /* \"#utility.yul\":5792:6215   */\n    tag_312:\n        /* \"#utility.yul\":5869:5874   */\n      0x00\n        /* \"#utility.yul\":5894:5959   */\n      tag_433\n        /* \"#utility.yul\":5910:5958   */\n      tag_434\n        /* \"#utility.yul\":5951:5957   */\n      dup5\n        /* \"#utility.yul\":5910:5958   */\n      tag_310\n      jump\t// in\n    tag_434:\n        /* \"#utility.yul\":5894:5959   */\n      tag_309\n      jump\t// in\n    tag_433:\n        /* \"#utility.yul\":5885:5959   */\n      swap1\n      pop\n        /* \"#utility.yul\":5982:5988   */\n      dup3\n        /* \"#utility.yul\":5975:5980   */\n      dup2\n        /* \"#utility.yul\":5968:5989   */\n      mstore\n        /* \"#utility.yul\":6020:6024   */\n      0x20\n        /* \"#utility.yul\":6013:6018   */\n      dup2\n        /* \"#utility.yul\":6009:6025   */\n      add\n        /* \"#utility.yul\":6058:6061   */\n      dup5\n        /* \"#utility.yul\":6049:6055   */\n      dup5\n        /* \"#utility.yul\":6044:6047   */\n      dup5\n        /* \"#utility.yul\":6040:6056   */\n      add\n        /* \"#utility.yul\":6037:6062   */\n      gt\n        /* \"#utility.yul\":6034:6146   */\n      iszero\n      tag_435\n      jumpi\n        /* \"#utility.yul\":6065:6144   */\n      tag_436\n      tag_306\n      jump\t// in\n    tag_436:\n        /* \"#utility.yul\":6034:6146   */\n    tag_435:\n        /* \"#utility.yul\":6155:6209   */\n      tag_437\n        /* \"#utility.yul\":6202:6208   */\n      dup5\n        /* \"#utility.yul\":6197:6200   */\n      dup3\n        /* \"#utility.yul\":6192:6195   */\n      dup6\n        /* \"#utility.yul\":6155:6209   */\n      tag_311\n      jump\t// in\n    tag_437:\n        /* \"#utility.yul\":5875:6215   */\n      pop\n        /* \"#utility.yul\":5792:6215   */\n      swap4\n      swap3\n      pop\n      pop\n      pop\n      jump\t// out\n        /* \"#utility.yul\":6234:6572   */\n    tag_313:\n        /* \"#utility.yul\":6289:6294   */\n      0x00\n        /* \"#utility.yul\":6338:6341   */\n      dup3\n        /* \"#utility.yul\":6331:6335   */\n      0x1f\n        /* \"#utility.yul\":6323:6329   */\n      dup4\n        /* \"#utility.yul\":6319:6336   */\n      add\n        /* \"#utility.yul\":6315:6342   */\n      slt\n        /* \"#utility.yul\":6305:6427   */\n      tag_439\n      jumpi\n        /* \"#utility.yul\":6346:6425   */\n      tag_440\n      tag_305\n      jump\t// in\n    tag_440:\n        /* \"#utility.yul\":6305:6427   */\n    tag_439:\n        /* \"#utility.yul\":6463:6469   */\n      dup2\n        /* \"#utility.yul\":6450:6470   */\n      calldataload\n        /* \"#utility.yul\":6488:6566   */\n      tag_441\n        /* \"#utility.yul\":6562:6565   */\n      dup5\n        /* \"#utility.yul\":6554:6560   */\n      dup3\n        /* \"#utility.yul\":6547:6551   */\n      0x20\n        /* \"#utility.yul\":6539:6545   */\n      dup7\n        /* \"#utility.yul\":6535:6552   */\n      add\n        /* \"#utility.yul\":6488:6566   */\n      tag_312\n      jump\t// in\n    tag_441:\n        /* \"#utility.yul\":6479:6566   */\n      swap2\n      pop\n        /* \"#utility.yul\":6295:6572   */\n      pop\n        /* \"#utility.yul\":6234:6572   */\n      swap3\n      swap2\n      pop\n      pop\n      jump\t// out\n        /* \"#utility.yul\":6578:7230   */\n    tag_50:\n        /* \"#utility.yul\":6655:6661   */\n      0x00\n        /* \"#utility.yul\":6663:6669   */\n      dup1\n        /* \"#utility.yul\":6712:6714   */\n      0x40\n        /* \"#utility.yul\":6700:6709   */\n      dup4\n        /* \"#utility.yul\":6691:6698   */\n      dup6\n        /* \"#utility.yul\":6687:6710   */\n      sub\n        /* \"#utility.yul\":6683:6715   */\n      slt\n        /* \"#utility.yul\":6680:6799   */\n      iszero\n      tag_443\n      jumpi\n        /* \"#utility.yul\":6718:6797   */\n      tag_444\n      tag_290\n      jump\t// in\n    tag_444:\n        /* \"#utility.yul\":6680:6799   */\n    tag_443:\n        /* \"#utility.yul\":6838:6839   */\n      0x00\n        /* \"#utility.yul\":6863:6916   */\n      tag_445\n        /* \"#utility.yul\":6908:6915   */\n      dup6\n        /* \"#utility.yul\":6899:6905   */\n      dup3\n        /* \"#utility.yul\":6888:6897   */\n      dup7\n        /* \"#utility.yul\":6884:6906   */\n      add\n        /* \"#utility.yul\":6863:6916   */\n      tag_304\n      jump\t// in\n    tag_445:\n        /* \"#utility.yul\":6853:6916   */\n      swap3\n      pop\n        /* \"#utility.yul\":6809:6926   */\n      pop\n        /* \"#utility.yul\":6993:6995   */\n      0x20\n        /* \"#utility.yul\":6982:6991   */\n      dup4\n        /* \"#utility.yul\":6978:6996   */\n      add\n        /* \"#utility.yul\":6965:6997   */\n      calldataload\n        /* \"#utility.yul\":7024:7042   */\n      0xffffffffffffffff\n        /* \"#utility.yul\":7016:7022   */\n      dup2\n        /* \"#utility.yul\":7013:7043   */\n      gt\n        /* \"#utility.yul\":7010:7127   */\n      iszero\n      tag_446\n      jumpi\n        /* \"#utility.yul\":7046:7125   */\n      tag_447\n      tag_291\n      jump\t// in\n    tag_447:\n        /* \"#utility.yul\":7010:7127   */\n    tag_446:\n        /* \"#utility.yul\":7151:7213   */\n      tag_448\n        /* \"#utility.yul\":7205:7212   */\n      dup6\n        /* \"#utility.yul\":7196:7202   */\n      dup3\n        /* \"#utility.yul\":7185:7194   */\n      dup7\n        /* \"#utility.yul\":7181:7203   */\n      add\n        /* \"#utility.yul\":7151:7213   */\n      tag_313\n      jump\t// in\n    tag_448:\n        /* \"#utility.yul\":7141:7213   */\n      swap2\n      pop\n        /* \"#utility.yul\":6936:7223   */\n      pop\n        /* \"#utility.yul\":6578:7230   */\n      swap3\n      pop\n      swap3\n      swap1\n      pop\n      jump\t// out\n        /* \"#utility.yul\":7236:7405   */\n    tag_314:\n        /* \"#utility.yul\":7320:7331   */\n      0x00\n        /* \"#utility.yul\":7354:7360   */\n      dup3\n        /* \"#utility.yul\":7349:7352   */\n      dup3\n        /* \"#utility.yul\":7342:7361   */\n      mstore\n        /* \"#utility.yul\":7394:7398   */\n      0x20\n        /* \"#utility.yul\":7389:7392   */\n      dup3\n        /* \"#utility.yul\":7385:7399   */\n      add\n        /* \"#utility.yul\":7370:7399   */\n      swap1\n      pop\n        /* \"#utility.yul\":7236:7405   */\n      swap3\n      swap2\n      pop\n      pop\n      jump\t// out\n        /* \"#utility.yul\":7411:7645   */\n    tag_315:\n        /* \"#utility.yul\":7551:7585   */\n      0x416363657373436f6e74726f6c3a2063616e206f6e6c792072656e6f756e6365\n        /* \"#utility.yul\":7547:7548   */\n      0x00\n        /* \"#utility.yul\":7539:7545   */\n      dup3\n        /* \"#utility.yul\":7535:7549   */\n      add\n        /* \"#utility.yul\":7528:7586   */\n      mstore\n        /* \"#utility.yul\":7620:7637   */\n      0x20726f6c657320666f722073656c660000000000000000000000000000000000\n        /* \"#utility.yul\":7615:7617   */\n      0x20\n        /* \"#utility.yul\":7607:7613   */\n      dup3\n        /* \"#utility.yul\":7603:7618   */\n      add\n        /* \"#utility.yul\":7596:7638   */\n      mstore\n        /* \"#utility.yul\":7411:7645   */\n      pop\n      jump\t// out\n        /* \"#utility.yul\":7651:8017   */\n    tag_316:\n        /* \"#utility.yul\":7793:7796   */\n      0x00\n        /* \"#utility.yul\":7814:7881   */\n      tag_452\n        /* \"#utility.yul\":7878:7880   */\n      0x2f\n        /* \"#utility.yul\":7873:7876   */\n      dup4\n        /* \"#utility.yul\":7814:7881   */\n      tag_314\n      jump\t// in\n    tag_452:\n        /* \"#utility.yul\":7807:7881   */\n      swap2\n      pop\n        /* \"#utility.yul\":7890:7983   */\n      tag_453\n        /* \"#utility.yul\":7979:7982   */\n      dup3\n        /* \"#utility.yul\":7890:7983   */\n      tag_315\n      jump\t// in\n    tag_453:\n        /* \"#utility.yul\":8008:8010   */\n      0x40\n        /* \"#utility.yul\":8003:8006   */\n      dup3\n        /* \"#utility.yul\":7999:8011   */\n      add\n        /* \"#utility.yul\":7992:8011   */\n      swap1\n      pop\n        /* \"#utility.yul\":7651:8017   */\n      swap2\n      swap1\n      pop\n      jump\t// out\n        /* \"#utility.yul\":8023:8442   */\n    tag_90:\n        /* \"#utility.yul\":8189:8193   */\n      0x00\n        /* \"#utility.yul\":8227:8229   */\n      0x20\n        /* \"#utility.yul\":8216:8225   */\n      dup3\n        /* \"#utility.yul\":8212:8230   */\n      add\n        /* \"#utility.yul\":8204:8230   */\n      swap1\n      pop\n        /* \"#utility.yul\":8276:8285   */\n      dup2\n        /* \"#utility.yul\":8270:8274   */\n      dup2\n        /* \"#utility.yul\":8266:8286   */\n      sub\n        /* \"#utility.yul\":8262:8263   */\n      0x00\n        /* \"#utility.yul\":8251:8260   */\n      dup4\n        /* \"#utility.yul\":8247:8264   */\n      add\n        /* \"#utility.yul\":8240:8287   */\n      mstore\n        /* \"#utility.yul\":8304:8435   */\n      tag_455\n        /* \"#utility.yul\":8430:8434   */\n      dup2\n        /* \"#utility.yul\":8304:8435   */\n      tag_316\n      jump\t// in\n    tag_455:\n        /* \"#utility.yul\":8296:8435   */\n      swap1\n      pop\n        /* \"#utility.yul\":8023:8442   */\n      swap2\n      swap1\n      pop\n      jump\t// out\n        /* \"#utility.yul\":8448:8679   */\n    tag_317:\n        /* \"#utility.yul\":8588:8622   */\n      0x46756e6374696f6e206d7573742062652063616c6c6564207468726f75676820\n        /* \"#utility.yul\":8584:8585   */\n      0x00\n        /* \"#utility.yul\":8576:8582   */\n      dup3\n        /* \"#utility.yul\":8572:8586   */\n      add\n        /* \"#utility.yul\":8565:8623   */\n      mstore\n        /* \"#utility.yul\":8657:8671   */\n      0x64656c656761746563616c6c0000000000000000000000000000000000000000\n        /* \"#utility.yul\":8652:8654   */\n      0x20\n        /* \"#utility.yul\":8644:8650   */\n      dup3\n        /* \"#utility.yul\":8640:8655   */\n      add\n        /* \"#utility.yul\":8633:8672   */\n      mstore\n        /* \"#utility.yul\":8448:8679   */\n      pop\n      jump\t// out\n        /* \"#utility.yul\":8685:9051   */\n    tag_318:\n        /* \"#utility.yul\":8827:8830   */\n      0x00\n        /* \"#utility.yul\":8848:8915   */\n      tag_458\n        /* \"#utility.yul\":8912:8914   */\n      0x2c\n        /* \"#utility.yul\":8907:8910   */\n      dup4\n        /* \"#utility.yul\":8848:8915   */\n      tag_314\n      jump\t// in\n    tag_458:\n        /* \"#utility.yul\":8841:8915   */\n      swap2\n      pop\n        /* \"#utility.yul\":8924:9017   */\n      tag_459\n        /* \"#utility.yul\":9013:9016   */\n      dup3\n        /* \"#utility.yul\":8924:9017   */\n      tag_317\n      jump\t// in\n    tag_459:\n        /* \"#utility.yul\":9042:9044   */\n      0x40\n        /* \"#utility.yul\":9037:9040   */\n      dup3\n        /* \"#utility.yul\":9033:9045   */\n      add\n        /* \"#utility.yul\":9026:9045   */\n      swap1\n      pop\n        /* \"#utility.yul\":8685:9051   */\n      swap2\n      swap1\n      pop\n      jump\t// out\n        /* \"#utility.yul\":9057:9476   */\n    tag_96:\n        /* \"#utility.yul\":9223:9227   */\n      0x00\n        /* \"#utility.yul\":9261:9263   */\n      0x20\n        /* \"#utility.yul\":9250:9259   */\n      dup3\n        /* \"#utility.yul\":9246:9264   */\n      add\n        /* \"#utility.yul\":9238:9264   */\n      swap1\n      pop\n        /* \"#utility.yul\":9310:9319   */\n      dup2\n        /* \"#utility.yul\":9304:9308   */\n      dup2\n        /* \"#utility.yul\":9300:9320   */\n      sub\n        /* \"#utility.yul\":9296:9297   */\n      0x00\n        /* \"#utility.yul\":9285:9294   */\n      dup4\n        /* \"#utility.yul\":9281:9298   */\n      add\n        /* \"#utility.yul\":9274:9321   */\n      mstore\n        /* \"#utility.yul\":9338:9469   */\n      tag_461\n        /* \"#utility.yul\":9464:9468   */\n      dup2\n        /* \"#utility.yul\":9338:9469   */\n      tag_318\n      jump\t// in\n    tag_461:\n        /* \"#utility.yul\":9330:9469   */\n      swap1\n      pop\n        /* \"#utility.yul\":9057:9476   */\n      swap2\n      swap1\n      pop\n      jump\t// out\n        /* \"#utility.yul\":9482:9713   */\n    tag_319:\n        /* \"#utility.yul\":9622:9656   */\n      0x46756e6374696f6e206d7573742062652063616c6c6564207468726f75676820\n        /* \"#utility.yul\":9618:9619   */\n      0x00\n        /* \"#utility.yul\":9610:9616   */\n      dup3\n        /* \"#utility.yul\":9606:9620   */\n      add\n        /* \"#utility.yul\":9599:9657   */\n      mstore\n        /* \"#utility.yul\":9691:9705   */\n      0x6163746976652070726f78790000000000000000000000000000000000000000\n        /* \"#utility.yul\":9686:9688   */\n      0x20\n        /* \"#utility.yul\":9678:9684   */\n      dup3\n        /* \"#utility.yul\":9674:9689   */\n      add\n        /* \"#utility.yul\":9667:9706   */\n      mstore\n        /* \"#utility.yul\":9482:9713   */\n      pop\n      jump\t// out\n        /* \"#utility.yul\":9719:10085   */\n    tag_320:\n        /* \"#utility.yul\":9861:9864   */\n      0x00\n        /* \"#utility.yul\":9882:9949   */\n      tag_464\n        /* \"#utility.yul\":9946:9948   */\n      0x2c\n        /* \"#utility.yul\":9941:9944   */\n      dup4\n        /* \"#utility.yul\":9882:9949   */\n      tag_314\n      jump\t// in\n    tag_464:\n        /* \"#utility.yul\":9875:9949   */\n      swap2\n      pop\n        /* \"#utility.yul\":9958:10051   */\n      tag_465\n        /* \"#utility.yul\":10047:10050   */\n      dup3\n        /* \"#utility.yul\":9958:10051   */\n      tag_319\n      jump\t// in\n    tag_465:\n        /* \"#utility.yul\":10076:10078   */\n      0x40\n        /* \"#utility.yul\":10071:10074   */\n      dup3\n        /* \"#utility.yul\":10067:10079   */\n      add\n        /* \"#utility.yul\":10060:10079   */\n      swap1\n      pop\n        /* \"#utility.yul\":9719:10085   */\n      swap2\n      swap1\n      pop\n      jump\t// out\n        /* \"#utility.yul\":10091:10510   */\n    tag_101:\n        /* \"#utility.yul\":10257:10261   */\n      0x00\n        /* \"#utility.yul\":10295:10297   */\n      0x20\n        /* \"#utility.yul\":10284:10293   */\n      dup3\n        /* \"#utility.yul\":10280:10298   */\n      add\n        /* \"#utility.yul\":10272:10298   */\n      swap1\n      pop\n        /* \"#utility.yul\":10344:10353   */\n      dup2\n        /* \"#utility.yul\":10338:10342   */\n      dup2\n        /* \"#utility.yul\":10334:10354   */\n      sub\n        /* \"#utility.yul\":10330:10331   */\n      0x00\n        /* \"#utility.yul\":10319:10328   */\n      dup4\n        /* \"#utility.yul\":10315:10332   */\n      add\n        /* \"#utility.yul\":10308:10355   */\n      mstore\n        /* \"#utility.yul\":10372:10503   */\n      tag_467\n        /* \"#utility.yul\":10498:10502   */\n      dup2\n        /* \"#utility.yul\":10372:10503   */\n      tag_320\n      jump\t// in\n    tag_467:\n        /* \"#utility.yul\":10364:10503   */\n      swap1\n      pop\n        /* \"#utility.yul\":10091:10510   */\n      swap2\n      swap1\n      pop\n      jump\t// out\n        /* \"#utility.yul\":10516:10749   */\n    tag_321:\n        /* \"#utility.yul\":10656:10690   */\n      0x496e697469616c697a61626c653a20636f6e747261637420697320616c726561\n        /* \"#utility.yul\":10652:10653   */\n      0x00\n        /* \"#utility.yul\":10644:10650   */\n      dup3\n        /* \"#utility.yul\":10640:10654   */\n      add\n        /* \"#utility.yul\":10633:10691   */\n      mstore\n        /* \"#utility.yul\":10725:10741   */\n      0x647920696e697469616c697a6564000000000000000000000000000000000000\n        /* \"#utility.yul\":10720:10722   */\n      0x20\n        /* \"#utility.yul\":10712:10718   */\n      dup3\n        /* \"#utility.yul\":10708:10723   */\n      add\n        /* \"#utility.yul\":10701:10742   */\n      mstore\n        /* \"#utility.yul\":10516:10749   */\n      pop\n      jump\t// out\n        /* \"#utility.yul\":10755:11121   */\n    tag_322:\n        /* \"#utility.yul\":10897:10900   */\n      0x00\n        /* \"#utility.yul\":10918:10985   */\n      tag_470\n        /* \"#utility.yul\":10982:10984   */\n      0x2e\n        /* \"#utility.yul\":10977:10980   */\n      dup4\n        /* \"#utility.yul\":10918:10985   */\n      tag_314\n      jump\t// in\n    tag_470:\n        /* \"#utility.yul\":10911:10985   */\n      swap2\n      pop\n        /* \"#utility.yul\":10994:11087   */\n      tag_471\n        /* \"#utility.yul\":11083:11086   */\n      dup3\n        /* \"#utility.yul\":10994:11087   */\n      tag_321\n      jump\t// in\n    tag_471:\n        /* \"#utility.yul\":11112:11114   */\n      0x40\n        /* \"#utility.yul\":11107:11110   */\n      dup3\n        /* \"#utility.yul\":11103:11115   */\n      add\n        /* \"#utility.yul\":11096:11115   */\n      swap1\n      pop\n        /* \"#utility.yul\":10755:11121   */\n      swap2\n      swap1\n      pop\n      jump\t// out\n        /* \"#utility.yul\":11127:11546   */\n    tag_119:\n        /* \"#utility.yul\":11293:11297   */\n      0x00\n        /* \"#utility.yul\":11331:11333   */\n      0x20\n        /* \"#utility.yul\":11320:11329   */\n      dup3\n        /* \"#utility.yul\":11316:11334   */\n      add\n        /* \"#utility.yul\":11308:11334   */\n      swap1\n      pop\n        /* \"#utility.yul\":11380:11389   */\n      dup2\n        /* \"#utility.yul\":11374:11378   */\n      dup2\n        /* \"#utility.yul\":11370:11390   */\n      sub\n        /* \"#utility.yul\":11366:11367   */\n      0x00\n        /* \"#utility.yul\":11355:11364   */\n      dup4\n        /* \"#utility.yul\":11351:11368   */\n      add\n        /* \"#utility.yul\":11344:11391   */\n      mstore\n        /* \"#utility.yul\":11408:11539   */\n      tag_473\n        /* \"#utility.yul\":11534:11538   */\n      dup2\n        /* \"#utility.yul\":11408:11539   */\n      tag_322\n      jump\t// in\n    tag_473:\n        /* \"#utility.yul\":11400:11539   */\n      swap1\n      pop\n        /* \"#utility.yul\":11127:11546   */\n      swap2\n      swap1\n      pop\n      jump\t// out\n        /* \"#utility.yul\":11552:11637   */\n    tag_323:\n        /* \"#utility.yul\":11597:11604   */\n      0x00\n        /* \"#utility.yul\":11626:11631   */\n      dup2\n        /* \"#utility.yul\":11615:11631   */\n      swap1\n      pop\n        /* \"#utility.yul\":11552:11637   */\n      swap2\n      swap1\n      pop\n      jump\t// out\n        /* \"#utility.yul\":11643:11729   */\n    tag_324:\n        /* \"#utility.yul\":11678:11685   */\n      0x00\n        /* \"#utility.yul\":11718:11722   */\n      0xff\n        /* \"#utility.yul\":11711:11716   */\n      dup3\n        /* \"#utility.yul\":11707:11723   */\n      and\n        /* \"#utility.yul\":11696:11723   */\n      swap1\n      pop\n        /* \"#utility.yul\":11643:11729   */\n      swap2\n      swap1\n      pop\n      jump\t// out\n        /* \"#utility.yul\":11735:11795   */\n    tag_325:\n        /* \"#utility.yul\":11763:11766   */\n      0x00\n        /* \"#utility.yul\":11784:11789   */\n      dup2\n        /* \"#utility.yul\":11777:11789   */\n      swap1\n      pop\n        /* \"#utility.yul\":11735:11795   */\n      swap2\n      swap1\n      pop\n      jump\t// out\n        /* \"#utility.yul\":11801:11955   */\n    tag_326:\n        /* \"#utility.yul\":11857:11866   */\n      0x00\n        /* \"#utility.yul\":11890:11949   */\n      tag_478\n        /* \"#utility.yul\":11906:11948   */\n      tag_479\n        /* \"#utility.yul\":11915:11947   */\n      tag_480\n        /* \"#utility.yul\":11941:11946   */\n      dup5\n        /* \"#utility.yul\":11915:11947   */\n      tag_323\n      jump\t// in\n    tag_480:\n        /* \"#utility.yul\":11906:11948   */\n      tag_325\n      jump\t// in\n    tag_479:\n        /* \"#utility.yul\":11890:11949   */\n      tag_324\n      jump\t// in\n    tag_478:\n        /* \"#utility.yul\":11877:11949   */\n      swap1\n      pop\n        /* \"#utility.yul\":11801:11955   */\n      swap2\n      swap1\n      pop\n      jump\t// out\n        /* \"#utility.yul\":11961:12104   */\n    tag_327:\n        /* \"#utility.yul\":12054:12097   */\n      tag_482\n        /* \"#utility.yul\":12091:12096   */\n      dup2\n        /* \"#utility.yul\":12054:12097   */\n      tag_326\n      jump\t// in\n    tag_482:\n        /* \"#utility.yul\":12049:12052   */\n      dup3\n        /* \"#utility.yul\":12042:12098   */\n      mstore\n        /* \"#utility.yul\":11961:12104   */\n      pop\n      pop\n      jump\t// out\n        /* \"#utility.yul\":12110:12344   */\n    tag_126:\n        /* \"#utility.yul\":12209:12213   */\n      0x00\n        /* \"#utility.yul\":12247:12249   */\n      0x20\n        /* \"#utility.yul\":12236:12245   */\n      dup3\n        /* \"#utility.yul\":12232:12250   */\n      add\n        /* \"#utility.yul\":12224:12250   */\n      swap1\n      pop\n        /* \"#utility.yul\":12260:12337   */\n      tag_484\n        /* \"#utility.yul\":12334:12335   */\n      0x00\n        /* \"#utility.yul\":12323:12332   */\n      dup4\n        /* \"#utility.yul\":12319:12336   */\n      add\n        /* \"#utility.yul\":12310:12316   */\n      dup5\n        /* \"#utility.yul\":12260:12337   */\n      tag_327\n      jump\t// in\n    tag_484:\n        /* \"#utility.yul\":12110:12344   */\n      swap3\n      swap2\n      pop\n      pop\n      jump\t// out\n        /* \"#utility.yul\":12350:12468   */\n    tag_328:\n        /* \"#utility.yul\":12437:12461   */\n      tag_486\n        /* \"#utility.yul\":12455:12460   */\n      dup2\n        /* \"#utility.yul\":12437:12461   */\n      tag_302\n      jump\t// in\n    tag_486:\n        /* \"#utility.yul\":12432:12435   */\n      dup3\n        /* \"#utility.yul\":12425:12462   */\n      mstore\n        /* \"#utility.yul\":12350:12468   */\n      pop\n      pop\n      jump\t// out\n        /* \"#utility.yul\":12474:12696   */\n    tag_140:\n        /* \"#utility.yul\":12567:12571   */\n      0x00\n        /* \"#utility.yul\":12605:12607   */\n      0x20\n        /* \"#utility.yul\":12594:12603   */\n      dup3\n        /* \"#utility.yul\":12590:12608   */\n      add\n        /* \"#utility.yul\":12582:12608   */\n      swap1\n      pop\n        /* \"#utility.yul\":12618:12689   */\n      tag_488\n        /* \"#utility.yul\":12686:12687   */\n      0x00\n        /* \"#utility.yul\":12675:12684   */\n      dup4\n        /* \"#utility.yul\":12671:12688   */\n      add\n        /* \"#utility.yul\":12662:12668   */\n      dup5\n        /* \"#utility.yul\":12618:12689   */\n      tag_328\n      jump\t// in\n    tag_488:\n        /* \"#utility.yul\":12474:12696   */\n      swap3\n      swap2\n      pop\n      pop\n      jump\t// out\n        /* \"#utility.yul\":12702:12779   */\n    tag_329:\n        /* \"#utility.yul\":12739:12746   */\n      0x00\n        /* \"#utility.yul\":12768:12773   */\n      dup2\n        /* \"#utility.yul\":12757:12773   */\n      swap1\n      pop\n        /* \"#utility.yul\":12702:12779   */\n      swap2\n      swap1\n      pop\n      jump\t// out\n        /* \"#utility.yul\":12785:12907   */\n    tag_330:\n        /* \"#utility.yul\":12858:12882   */\n      tag_491\n        /* \"#utility.yul\":12876:12881   */\n      dup2\n        /* \"#utility.yul\":12858:12882   */\n      tag_329\n      jump\t// in\n    tag_491:\n        /* \"#utility.yul\":12851:12856   */\n      dup2\n        /* \"#utility.yul\":12848:12883   */\n      eq\n        /* \"#utility.yul\":12838:12901   */\n      tag_492\n      jumpi\n        /* \"#utility.yul\":12897:12898   */\n      0x00\n        /* \"#utility.yul\":12894:12895   */\n      dup1\n        /* \"#utility.yul\":12887:12899   */\n      revert\n        /* \"#utility.yul\":12838:12901   */\n    tag_492:\n        /* \"#utility.yul\":12785:12907   */\n      pop\n      jump\t// out\n        /* \"#utility.yul\":12913:13056   */\n    tag_331:\n        /* \"#utility.yul\":12970:12975   */\n      0x00\n        /* \"#utility.yul\":13001:13007   */\n      dup2\n        /* \"#utility.yul\":12995:13008   */\n      mload\n        /* \"#utility.yul\":12986:13008   */\n      swap1\n      pop\n        /* \"#utility.yul\":13017:13050   */\n      tag_494\n        /* \"#utility.yul\":13044:13049   */\n      dup2\n        /* \"#utility.yul\":13017:13050   */\n      tag_330\n      jump\t// in\n    tag_494:\n        /* \"#utility.yul\":12913:13056   */\n      swap3\n      swap2\n      pop\n      pop\n      jump\t// out\n        /* \"#utility.yul\":13062:13413   */\n    tag_144:\n        /* \"#utility.yul\":13132:13138   */\n      0x00\n        /* \"#utility.yul\":13181:13183   */\n      0x20\n        /* \"#utility.yul\":13169:13178   */\n      dup3\n        /* \"#utility.yul\":13160:13167   */\n      dup5\n        /* \"#utility.yul\":13156:13179   */\n      sub\n        /* \"#utility.yul\":13152:13184   */\n      slt\n        /* \"#utility.yul\":13149:13268   */\n      iszero\n      tag_496\n      jumpi\n        /* \"#utility.yul\":13187:13266   */\n      tag_497\n      tag_290\n      jump\t// in\n    tag_497:\n        /* \"#utility.yul\":13149:13268   */\n    tag_496:\n        /* \"#utility.yul\":13307:13308   */\n      0x00\n        /* \"#utility.yul\":13332:13396   */\n      tag_498\n        /* \"#utility.yul\":13388:13395   */\n      dup5\n        /* \"#utility.yul\":13379:13385   */\n      dup3\n        /* \"#utility.yul\":13368:13377   */\n      dup6\n        /* \"#utility.yul\":13364:13386   */\n      add\n        /* \"#utility.yul\":13332:13396   */\n      tag_331\n      jump\t// in\n    tag_498:\n        /* \"#utility.yul\":13322:13396   */\n      swap2\n      pop\n        /* \"#utility.yul\":13278:13406   */\n      pop\n        /* \"#utility.yul\":13062:13413   */\n      swap3\n      swap2\n      pop\n      pop\n      jump\t// out\n        /* \"#utility.yul\":13419:13537   */\n    tag_332:\n        /* \"#utility.yul\":13506:13530   */\n      tag_500\n        /* \"#utility.yul\":13524:13529   */\n      dup2\n        /* \"#utility.yul\":13506:13530   */\n      tag_329\n      jump\t// in\n    tag_500:\n        /* \"#utility.yul\":13501:13504   */\n      dup3\n        /* \"#utility.yul\":13494:13531   */\n      mstore\n        /* \"#utility.yul\":13419:13537   */\n      pop\n      pop\n      jump\t// out\n        /* \"#utility.yul\":13543:13875   */\n    tag_146:\n        /* \"#utility.yul\":13664:13668   */\n      0x00\n        /* \"#utility.yul\":13702:13704   */\n      0x40\n        /* \"#utility.yul\":13691:13700   */\n      dup3\n        /* \"#utility.yul\":13687:13705   */\n      add\n        /* \"#utility.yul\":13679:13705   */\n      swap1\n      pop\n        /* \"#utility.yul\":13715:13786   */\n      tag_502\n        /* \"#utility.yul\":13783:13784   */\n      0x00\n        /* \"#utility.yul\":13772:13781   */\n      dup4\n        /* \"#utility.yul\":13768:13785   */\n      add\n        /* \"#utility.yul\":13759:13765   */\n      dup6\n        /* \"#utility.yul\":13715:13786   */\n      tag_328\n      jump\t// in\n    tag_502:\n        /* \"#utility.yul\":13796:13868   */\n      tag_503\n        /* \"#utility.yul\":13864:13866   */\n      0x20\n        /* \"#utility.yul\":13853:13862   */\n      dup4\n        /* \"#utility.yul\":13849:13867   */\n      add\n        /* \"#utility.yul\":13840:13846   */\n      dup5\n        /* \"#utility.yul\":13796:13868   */\n      tag_332\n      jump\t// in\n    tag_503:\n        /* \"#utility.yul\":13543:13875   */\n      swap4\n      swap3\n      pop\n      pop\n      pop\n      jump\t// out\n        /* \"#utility.yul\":13881:13997   */\n    tag_333:\n        /* \"#utility.yul\":13951:13972   */\n      tag_505\n        /* \"#utility.yul\":13966:13971   */\n      dup2\n        /* \"#utility.yul\":13951:13972   */\n      tag_295\n      jump\t// in\n    tag_505:\n        /* \"#utility.yul\":13944:13949   */\n      dup2\n        /* \"#utility.yul\":13941:13973   */\n      eq\n        /* \"#utility.yul\":13931:13991   */\n      tag_506\n      jumpi\n        /* \"#utility.yul\":13987:13988   */\n      0x00\n        /* \"#utility.yul\":13984:13985   */\n      dup1\n        /* \"#utility.yul\":13977:13989   */\n      revert\n        /* \"#utility.yul\":13931:13991   */\n    tag_506:\n        /* \"#utility.yul\":13881:13997   */\n      pop\n      jump\t// out\n        /* \"#utility.yul\":14003:14140   */\n    tag_334:\n        /* \"#utility.yul\":14057:14062   */\n      0x00\n        /* \"#utility.yul\":14088:14094   */\n      dup2\n        /* \"#utility.yul\":14082:14095   */\n      mload\n        /* \"#utility.yul\":14073:14095   */\n      swap1\n      pop\n        /* \"#utility.yul\":14104:14134   */\n      tag_508\n        /* \"#utility.yul\":14128:14133   */\n      dup2\n        /* \"#utility.yul\":14104:14134   */\n      tag_333\n      jump\t// in\n    tag_508:\n        /* \"#utility.yul\":14003:14140   */\n      swap3\n      swap2\n      pop\n      pop\n      jump\t// out\n        /* \"#utility.yul\":14146:14491   */\n    tag_150:\n        /* \"#utility.yul\":14213:14219   */\n      0x00\n        /* \"#utility.yul\":14262:14264   */\n      0x20\n        /* \"#utility.yul\":14250:14259   */\n      dup3\n        /* \"#utility.yul\":14241:14248   */\n      dup5\n        /* \"#utility.yul\":14237:14260   */\n      sub\n        /* \"#utility.yul\":14233:14265   */\n      slt\n        /* \"#utility.yul\":14230:14349   */\n      iszero\n      tag_510\n      jumpi\n        /* \"#utility.yul\":14268:14347   */\n      tag_511\n      tag_290\n      jump\t// in\n    tag_511:\n        /* \"#utility.yul\":14230:14349   */\n    tag_510:\n        /* \"#utility.yul\":14388:14389   */\n      0x00\n        /* \"#utility.yul\":14413:14474   */\n      tag_512\n        /* \"#utility.yul\":14466:14473   */\n      dup5\n        /* \"#utility.yul\":14457:14463   */\n      dup3\n        /* \"#utility.yul\":14446:14455   */\n      dup6\n        /* \"#utility.yul\":14442:14464   */\n      add\n        /* \"#utility.yul\":14413:14474   */\n      tag_334\n      jump\t// in\n    tag_512:\n        /* \"#utility.yul\":14403:14474   */\n      swap2\n      pop\n        /* \"#utility.yul\":14359:14484   */\n      pop\n        /* \"#utility.yul\":14146:14491   */\n      swap3\n      swap2\n      pop\n      pop\n      jump\t// out\n        /* \"#utility.yul\":14497:14740   */\n    tag_335:\n        /* \"#utility.yul\":14637:14671   */\n      0x555550535570677261646561626c653a206d757374206e6f742062652063616c\n        /* \"#utility.yul\":14633:14634   */\n      0x00\n        /* \"#utility.yul\":14625:14631   */\n      dup3\n        /* \"#utility.yul\":14621:14635   */\n      add\n        /* \"#utility.yul\":14614:14672   */\n      mstore\n        /* \"#utility.yul\":14706:14732   */\n      0x6c6564207468726f7567682064656c656761746563616c6c0000000000000000\n        /* \"#utility.yul\":14701:14703   */\n      0x20\n        /* \"#utility.yul\":14693:14699   */\n      dup3\n        /* \"#utility.yul\":14689:14704   */\n      add\n        /* \"#utility.yul\":14682:14733   */\n      mstore\n        /* \"#utility.yul\":14497:14740   */\n      pop\n      jump\t// out\n        /* \"#utility.yul\":14746:15112   */\n    tag_336:\n        /* \"#utility.yul\":14888:14891   */\n      0x00\n        /* \"#utility.yul\":14909:14976   */\n      tag_515\n        /* \"#utility.yul\":14973:14975   */\n      0x38\n        /* \"#utility.yul\":14968:14971   */\n      dup4\n        /* \"#utility.yul\":14909:14976   */\n      tag_314\n      jump\t// in\n    tag_515:\n        /* \"#utility.yul\":14902:14976   */\n      swap2\n      pop\n        /* \"#utility.yul\":14985:15078   */\n      tag_516\n        /* \"#utility.yul\":15074:15077   */\n      dup3\n        /* \"#utility.yul\":14985:15078   */\n      tag_335\n      jump\t// in\n    tag_516:\n        /* \"#utility.yul\":15103:15105   */\n      0x40\n        /* \"#utility.yul\":15098:15101   */\n      dup3\n        /* \"#utility.yul\":15094:15106   */\n      add\n        /* \"#utility.yul\":15087:15106   */\n      swap1\n      pop\n        /* \"#utility.yul\":14746:15112   */\n      swap2\n      swap1\n      pop\n      jump\t// out\n        /* \"#utility.yul\":15118:15537   */\n    tag_154:\n        /* \"#utility.yul\":15284:15288   */\n      0x00\n        /* \"#utility.yul\":15322:15324   */\n      0x20\n        /* \"#utility.yul\":15311:15320   */\n      dup3\n        /* \"#utility.yul\":15307:15325   */\n      add\n        /* \"#utility.yul\":15299:15325   */\n      swap1\n      pop\n        /* \"#utility.yul\":15371:15380   */\n      dup2\n        /* \"#utility.yul\":15365:15369   */\n      dup2\n        /* \"#utility.yul\":15361:15381   */\n      sub\n        /* \"#utility.yul\":15357:15358   */\n      0x00\n        /* \"#utility.yul\":15346:15355   */\n      dup4\n        /* \"#utility.yul\":15342:15359   */\n      add\n        /* \"#utility.yul\":15335:15382   */\n      mstore\n        /* \"#utility.yul\":15399:15530   */\n      tag_518\n        /* \"#utility.yul\":15525:15529   */\n      dup2\n        /* \"#utility.yul\":15399:15530   */\n      tag_336\n      jump\t// in\n    tag_518:\n        /* \"#utility.yul\":15391:15530   */\n      swap1\n      pop\n        /* \"#utility.yul\":15118:15537   */\n      swap2\n      swap1\n      pop\n      jump\t// out\n        /* \"#utility.yul\":15543:15686   */\n    tag_337:\n        /* \"#utility.yul\":15600:15605   */\n      0x00\n        /* \"#utility.yul\":15631:15637   */\n      dup2\n        /* \"#utility.yul\":15625:15638   */\n      mload\n        /* \"#utility.yul\":15616:15638   */\n      swap1\n      pop\n        /* \"#utility.yul\":15647:15680   */\n      tag_520\n        /* \"#utility.yul\":15674:15679   */\n      dup2\n        /* \"#utility.yul\":15647:15680   */\n      tag_298\n      jump\t// in\n    tag_520:\n        /* \"#utility.yul\":15543:15686   */\n      swap3\n      swap2\n      pop\n      pop\n      jump\t// out\n        /* \"#utility.yul\":15692:16043   */\n    tag_191:\n        /* \"#utility.yul\":15762:15768   */\n      0x00\n        /* \"#utility.yul\":15811:15813   */\n      0x20\n        /* \"#utility.yul\":15799:15808   */\n      dup3\n        /* \"#utility.yul\":15790:15797   */\n      dup5\n        /* \"#utility.yul\":15786:15809   */\n      sub\n        /* \"#utility.yul\":15782:15814   */\n      slt\n        /* \"#utility.yul\":15779:15898   */\n      iszero\n      tag_522\n      jumpi\n        /* \"#utility.yul\":15817:15896   */\n      tag_523\n      tag_290\n      jump\t// in\n    tag_523:\n        /* \"#utility.yul\":15779:15898   */\n    tag_522:\n        /* \"#utility.yul\":15937:15938   */\n      0x00\n        /* \"#utility.yul\":15962:16026   */\n      tag_524\n        /* \"#utility.yul\":16018:16025   */\n      dup5\n        /* \"#utility.yul\":16009:16015   */\n      dup3\n        /* \"#utility.yul\":15998:16007   */\n      dup6\n        /* \"#utility.yul\":15994:16016   */\n      add\n        /* \"#utility.yul\":15962:16026   */\n      tag_337\n      jump\t// in\n    tag_524:\n        /* \"#utility.yul\":15952:16026   */\n      swap2\n      pop\n        /* \"#utility.yul\":15908:16036   */\n      pop\n        /* \"#utility.yul\":15692:16043   */\n      swap3\n      swap2\n      pop\n      pop\n      jump\t// out\n        /* \"#utility.yul\":16049:16282   */\n    tag_338:\n        /* \"#utility.yul\":16189:16223   */\n      0x45524331393637557067726164653a206e657720696d706c656d656e74617469\n        /* \"#utility.yul\":16185:16186   */\n      0x00\n        /* \"#utility.yul\":16177:16183   */\n      dup3\n        /* \"#utility.yul\":16173:16187   */\n      add\n        /* \"#utility.yul\":16166:16224   */\n      mstore\n        /* \"#utility.yul\":16258:16274   */\n      0x6f6e206973206e6f742055555053000000000000000000000000000000000000\n        /* \"#utility.yul\":16253:16255   */\n      0x20\n        /* \"#utility.yul\":16245:16251   */\n      dup3\n        /* \"#utility.yul\":16241:16256   */\n      add\n        /* \"#utility.yul\":16234:16275   */\n      mstore\n        /* \"#utility.yul\":16049:16282   */\n      pop\n      jump\t// out\n        /* \"#utility.yul\":16288:16654   */\n    tag_339:\n        /* \"#utility.yul\":16430:16433   */\n      0x00\n        /* \"#utility.yul\":16451:16518   */\n      tag_527\n        /* \"#utility.yul\":16515:16517   */\n      0x2e\n        /* \"#utility.yul\":16510:16513   */\n      dup4\n        /* \"#utility.yul\":16451:16518   */\n      tag_314\n      jump\t// in\n    tag_527:\n        /* \"#utility.yul\":16444:16518   */\n      swap2\n      pop\n        /* \"#utility.yul\":16527:16620   */\n      tag_528\n        /* \"#utility.yul\":16616:16619   */\n      dup3\n        /* \"#utility.yul\":16527:16620   */\n      tag_338\n      jump\t// in\n    tag_528:\n        /* \"#utility.yul\":16645:16647   */\n      0x40\n        /* \"#utility.yul\":16640:16643   */\n      dup3\n        /* \"#utility.yul\":16636:16648   */\n      add\n        /* \"#utility.yul\":16629:16648   */\n      swap1\n      pop\n        /* \"#utility.yul\":16288:16654   */\n      swap2\n      swap1\n      pop\n      jump\t// out\n        /* \"#utility.yul\":16660:17079   */\n    tag_197:\n        /* \"#utility.yul\":16826:16830   */\n      0x00\n        /* \"#utility.yul\":16864:16866   */\n      0x20\n        /* \"#utility.yul\":16853:16862   */\n      dup3\n        /* \"#utility.yul\":16849:16867   */\n      add\n        /* \"#utility.yul\":16841:16867   */\n      swap1\n      pop\n        /* \"#utility.yul\":16913:16922   */\n      dup2\n        /* \"#utility.yul\":16907:16911   */\n      dup2\n        /* \"#utility.yul\":16903:16923   */\n      sub\n        /* \"#utility.yul\":16899:16900   */\n      0x00\n        /* \"#utility.yul\":16888:16897   */\n      dup4\n        /* \"#utility.yul\":16884:16901   */\n      add\n        /* \"#utility.yul\":16877:16924   */\n      mstore\n        /* \"#utility.yul\":16941:17072   */\n      tag_530\n        /* \"#utility.yul\":17067:17071   */\n      dup2\n        /* \"#utility.yul\":16941:17072   */\n      tag_339\n      jump\t// in\n    tag_530:\n        /* \"#utility.yul\":16933:17072   */\n      swap1\n      pop\n        /* \"#utility.yul\":16660:17079   */\n      swap2\n      swap1\n      pop\n      jump\t// out\n        /* \"#utility.yul\":17085:17313   */\n    tag_340:\n        /* \"#utility.yul\":17225:17259   */\n      0x45524331393637557067726164653a20756e737570706f727465642070726f78\n        /* \"#utility.yul\":17221:17222   */\n      0x00\n        /* \"#utility.yul\":17213:17219   */\n      dup3\n        /* \"#utility.yul\":17209:17223   */\n      add\n        /* \"#utility.yul\":17202:17260   */\n      mstore\n        /* \"#utility.yul\":17294:17305   */\n      0x6961626c65555549440000000000000000000000000000000000000000000000\n        /* \"#utility.yul\":17289:17291   */\n      0x20\n        /* \"#utility.yul\":17281:17287   */\n      dup3\n        /* \"#utility.yul\":17277:17292   */\n      add\n        /* \"#utility.yul\":17270:17306   */\n      mstore\n        /* \"#utility.yul\":17085:17313   */\n      pop\n      jump\t// out\n        /* \"#utility.yul\":17319:17685   */\n    tag_341:\n        /* \"#utility.yul\":17461:17464   */\n      0x00\n        /* \"#utility.yul\":17482:17549   */\n      tag_533\n        /* \"#utility.yul\":17546:17548   */\n      0x29\n        /* \"#utility.yul\":17541:17544   */\n      dup4\n        /* \"#utility.yul\":17482:17549   */\n      tag_314\n      jump\t// in\n    tag_533:\n        /* \"#utility.yul\":17475:17549   */\n      swap2\n      pop\n        /* \"#utility.yul\":17558:17651   */\n      tag_534\n        /* \"#utility.yul\":17647:17650   */\n      dup3\n        /* \"#utility.yul\":17558:17651   */\n      tag_340\n      jump\t// in\n    tag_534:\n        /* \"#utility.yul\":17676:17678   */\n      0x40\n        /* \"#utility.yul\":17671:17674   */\n      dup3\n        /* \"#utility.yul\":17667:17679   */\n      add\n        /* \"#utility.yul\":17660:17679   */\n      swap1\n      pop\n        /* \"#utility.yul\":17319:17685   */\n      swap2\n      swap1\n      pop\n      jump\t// out\n        /* \"#utility.yul\":17691:18110   */\n    tag_201:\n        /* \"#utility.yul\":17857:17861   */\n      0x00\n        /* \"#utility.yul\":17895:17897   */\n      0x20\n        /* \"#utility.yul\":17884:17893   */\n      dup3\n        /* \"#utility.yul\":17880:17898   */\n      add\n        /* \"#utility.yul\":17872:17898   */\n      swap1\n      pop\n        /* \"#utility.yul\":17944:17953   */\n      dup2\n        /* \"#utility.yul\":17938:17942   */\n      dup2\n        /* \"#utility.yul\":17934:17954   */\n      sub\n        /* \"#utility.yul\":17930:17931   */\n      0x00\n        /* \"#utility.yul\":17919:17928   */\n      dup4\n        /* \"#utility.yul\":17915:17932   */\n      add\n        /* \"#utility.yul\":17908:17955   */\n      mstore\n        /* \"#utility.yul\":17972:18103   */\n      tag_536\n        /* \"#utility.yul\":18098:18102   */\n      dup2\n        /* \"#utility.yul\":17972:18103   */\n      tag_341\n      jump\t// in\n    tag_536:\n        /* \"#utility.yul\":17964:18103   */\n      swap1\n      pop\n        /* \"#utility.yul\":17691:18110   */\n      swap2\n      swap1\n      pop\n      jump\t// out\n        /* \"#utility.yul\":18116:18264   */\n    tag_342:\n        /* \"#utility.yul\":18218:18229   */\n      0x00\n        /* \"#utility.yul\":18255:18258   */\n      dup2\n        /* \"#utility.yul\":18240:18258   */\n      swap1\n      pop\n        /* \"#utility.yul\":18116:18264   */\n      swap3\n      swap2\n      pop\n      pop\n      jump\t// out\n        /* \"#utility.yul\":18270:18443   */\n    tag_343:\n        /* \"#utility.yul\":18410:18435   */\n      0x416363657373436f6e74726f6c3a206163636f756e7420000000000000000000\n        /* \"#utility.yul\":18406:18407   */\n      0x00\n        /* \"#utility.yul\":18398:18404   */\n      dup3\n        /* \"#utility.yul\":18394:18408   */\n      add\n        /* \"#utility.yul\":18387:18436   */\n      mstore\n        /* \"#utility.yul\":18270:18443   */\n      pop\n      jump\t// out\n        /* \"#utility.yul\":18449:18851   */\n    tag_344:\n        /* \"#utility.yul\":18609:18612   */\n      0x00\n        /* \"#utility.yul\":18630:18715   */\n      tag_540\n        /* \"#utility.yul\":18712:18714   */\n      0x17\n        /* \"#utility.yul\":18707:18710   */\n      dup4\n        /* \"#utility.yul\":18630:18715   */\n      tag_342\n      jump\t// in\n    tag_540:\n        /* \"#utility.yul\":18623:18715   */\n      swap2\n      pop\n        /* \"#utility.yul\":18724:18817   */\n      tag_541\n        /* \"#utility.yul\":18813:18816   */\n      dup3\n        /* \"#utility.yul\":18724:18817   */\n      tag_343\n      jump\t// in\n    tag_541:\n        /* \"#utility.yul\":18842:18844   */\n      0x17\n        /* \"#utility.yul\":18837:18840   */\n      dup3\n        /* \"#utility.yul\":18833:18845   */\n      add\n        /* \"#utility.yul\":18826:18845   */\n      swap1\n      pop\n        /* \"#utility.yul\":18449:18851   */\n      swap2\n      swap1\n      pop\n      jump\t// out\n        /* \"#utility.yul\":18857:18956   */\n    tag_345:\n        /* \"#utility.yul\":18909:18915   */\n      0x00\n        /* \"#utility.yul\":18943:18948   */\n      dup2\n        /* \"#utility.yul\":18937:18949   */\n      mload\n        /* \"#utility.yul\":18927:18949   */\n      swap1\n      pop\n        /* \"#utility.yul\":18857:18956   */\n      swap2\n      swap1\n      pop\n      jump\t// out\n        /* \"#utility.yul\":18962:19101   */\n    tag_346:\n        /* \"#utility.yul\":19051:19057   */\n      dup3\n        /* \"#utility.yul\":19046:19049   */\n      dup2\n        /* \"#utility.yul\":19041:19044   */\n      dup4\n        /* \"#utility.yul\":19035:19058   */\n      mcopy\n        /* \"#utility.yul\":19092:19093   */\n      0x00\n        /* \"#utility.yul\":19083:19089   */\n      dup4\n        /* \"#utility.yul\":19078:19081   */\n      dup4\n        /* \"#utility.yul\":19074:19090   */\n      add\n        /* \"#utility.yul\":19067:19094   */\n      mstore\n        /* \"#utility.yul\":18962:19101   */\n      pop\n      pop\n      pop\n      jump\t// out\n        /* \"#utility.yul\":19107:19497   */\n    tag_347:\n        /* \"#utility.yul\":19213:19216   */\n      0x00\n        /* \"#utility.yul\":19241:19280   */\n      tag_545\n        /* \"#utility.yul\":19274:19279   */\n      dup3\n        /* \"#utility.yul\":19241:19280   */\n      tag_345\n      jump\t// in\n    tag_545:\n        /* \"#utility.yul\":19296:19385   */\n      tag_546\n        /* \"#utility.yul\":19378:19384   */\n      dup2\n        /* \"#utility.yul\":19373:19376   */\n      dup6\n        /* \"#utility.yul\":19296:19385   */\n      tag_342\n      jump\t// in\n    tag_546:\n        /* \"#utility.yul\":19289:19385   */\n      swap4\n      pop\n        /* \"#utility.yul\":19394:19459   */\n      tag_547\n        /* \"#utility.yul\":19452:19458   */\n      dup2\n        /* \"#utility.yul\":19447:19450   */\n      dup6\n        /* \"#utility.yul\":19440:19444   */\n      0x20\n        /* \"#utility.yul\":19433:19438   */\n      dup7\n        /* \"#utility.yul\":19429:19445   */\n      add\n        /* \"#utility.yul\":19394:19459   */\n      tag_346\n      jump\t// in\n    tag_547:\n        /* \"#utility.yul\":19484:19490   */\n      dup1\n        /* \"#utility.yul\":19479:19482   */\n      dup5\n        /* \"#utility.yul\":19475:19491   */\n      add\n        /* \"#utility.yul\":19468:19491   */\n      swap2\n      pop\n        /* \"#utility.yul\":19217:19497   */\n      pop\n        /* \"#utility.yul\":19107:19497   */\n      swap3\n      swap2\n      pop\n      pop\n      jump\t// out\n        /* \"#utility.yul\":19503:19670   */\n    tag_348:\n        /* \"#utility.yul\":19643:19662   */\n      0x206973206d697373696e6720726f6c6520000000000000000000000000000000\n        /* \"#utility.yul\":19639:19640   */\n      0x00\n        /* \"#utility.yul\":19631:19637   */\n      dup3\n        /* \"#utility.yul\":19627:19641   */\n      add\n        /* \"#utility.yul\":19620:19663   */\n      mstore\n        /* \"#utility.yul\":19503:19670   */\n      pop\n      jump\t// out\n        /* \"#utility.yul\":19676:20078   */\n    tag_349:\n        /* \"#utility.yul\":19836:19839   */\n      0x00\n        /* \"#utility.yul\":19857:19942   */\n      tag_550\n        /* \"#utility.yul\":19939:19941   */\n      0x11\n        /* \"#utility.yul\":19934:19937   */\n      dup4\n        /* \"#utility.yul\":19857:19942   */\n      tag_342\n      jump\t// in\n    tag_550:\n        /* \"#utility.yul\":19850:19942   */\n      swap2\n      pop\n        /* \"#utility.yul\":19951:20044   */\n      tag_551\n        /* \"#utility.yul\":20040:20043   */\n      dup3\n        /* \"#utility.yul\":19951:20044   */\n      tag_348\n      jump\t// in\n    tag_551:\n        /* \"#utility.yul\":20069:20071   */\n      0x11\n        /* \"#utility.yul\":20064:20067   */\n      dup3\n        /* \"#utility.yul\":20060:20072   */\n      add\n        /* \"#utility.yul\":20053:20072   */\n      swap1\n      pop\n        /* \"#utility.yul\":19676:20078   */\n      swap2\n      swap1\n      pop\n      jump\t// out\n        /* \"#utility.yul\":20084:21051   */\n    tag_215:\n        /* \"#utility.yul\":20466:20469   */\n      0x00\n        /* \"#utility.yul\":20488:20636   */\n      tag_553\n        /* \"#utility.yul\":20632:20635   */\n      dup3\n        /* \"#utility.yul\":20488:20636   */\n      tag_344\n      jump\t// in\n    tag_553:\n        /* \"#utility.yul\":20481:20636   */\n      swap2\n      pop\n        /* \"#utility.yul\":20653:20748   */\n      tag_554\n        /* \"#utility.yul\":20744:20747   */\n      dup3\n        /* \"#utility.yul\":20735:20741   */\n      dup6\n        /* \"#utility.yul\":20653:20748   */\n      tag_347\n      jump\t// in\n    tag_554:\n        /* \"#utility.yul\":20646:20748   */\n      swap2\n      pop\n        /* \"#utility.yul\":20765:20913   */\n      tag_555\n        /* \"#utility.yul\":20909:20912   */\n      dup3\n        /* \"#utility.yul\":20765:20913   */\n      tag_349\n      jump\t// in\n    tag_555:\n        /* \"#utility.yul\":20758:20913   */\n      swap2\n      pop\n        /* \"#utility.yul\":20930:21025   */\n      tag_556\n        /* \"#utility.yul\":21021:21024   */\n      dup3\n        /* \"#utility.yul\":21012:21018   */\n      dup5\n        /* \"#utility.yul\":20930:21025   */\n      tag_347\n      jump\t// in\n    tag_556:\n        /* \"#utility.yul\":20923:21025   */\n      swap2\n      pop\n        /* \"#utility.yul\":21042:21045   */\n      dup2\n        /* \"#utility.yul\":21035:21045   */\n      swap1\n      pop\n        /* \"#utility.yul\":20084:21051   */\n      swap4\n      swap3\n      pop\n      pop\n      pop\n      jump\t// out\n        /* \"#utility.yul\":21057:21434   */\n    tag_350:\n        /* \"#utility.yul\":21145:21148   */\n      0x00\n        /* \"#utility.yul\":21173:21212   */\n      tag_558\n        /* \"#utility.yul\":21206:21211   */\n      dup3\n        /* \"#utility.yul\":21173:21212   */\n      tag_345\n      jump\t// in\n    tag_558:\n        /* \"#utility.yul\":21228:21299   */\n      tag_559\n        /* \"#utility.yul\":21292:21298   */\n      dup2\n        /* \"#utility.yul\":21287:21290   */\n      dup6\n        /* \"#utility.yul\":21228:21299   */\n      tag_314\n      jump\t// in\n    tag_559:\n        /* \"#utility.yul\":21221:21299   */\n      swap4\n      pop\n        /* \"#utility.yul\":21308:21373   */\n      tag_560\n        /* \"#utility.yul\":21366:21372   */\n      dup2\n        /* \"#utility.yul\":21361:21364   */\n      dup6\n        /* \"#utility.yul\":21354:21358   */\n      0x20\n        /* \"#utility.yul\":21347:21352   */\n      dup7\n        /* \"#utility.yul\":21343:21359   */\n      add\n        /* \"#utility.yul\":21308:21373   */\n      tag_346\n      jump\t// in\n    tag_560:\n        /* \"#utility.yul\":21398:21427   */\n      tag_561\n        /* \"#utility.yul\":21420:21426   */\n      dup2\n        /* \"#utility.yul\":21398:21427   */\n      tag_307\n      jump\t// in\n    tag_561:\n        /* \"#utility.yul\":21393:21396   */\n      dup5\n        /* \"#utility.yul\":21389:21428   */\n      add\n        /* \"#utility.yul\":21382:21428   */\n      swap2\n      pop\n        /* \"#utility.yul\":21149:21434   */\n      pop\n        /* \"#utility.yul\":21057:21434   */\n      swap3\n      swap2\n      pop\n      pop\n      jump\t// out\n        /* \"#utility.yul\":21440:21753   */\n    tag_217:\n        /* \"#utility.yul\":21553:21557   */\n      0x00\n        /* \"#utility.yul\":21591:21593   */\n      0x20\n        /* \"#utility.yul\":21580:21589   */\n      dup3\n        /* \"#utility.yul\":21576:21594   */\n      add\n        /* \"#utility.yul\":21568:21594   */\n      swap1\n      pop\n        /* \"#utility.yul\":21640:21649   */\n      dup2\n        /* \"#utility.yul\":21634:21638   */\n      dup2\n        /* \"#utility.yul\":21630:21650   */\n      sub\n        /* \"#utility.yul\":21626:21627   */\n      0x00\n        /* \"#utility.yul\":21615:21624   */\n      dup4\n        /* \"#utility.yul\":21611:21628   */\n      add\n        /* \"#utility.yul\":21604:21651   */\n      mstore\n        /* \"#utility.yul\":21668:21746   */\n      tag_563\n        /* \"#utility.yul\":21741:21745   */\n      dup2\n        /* \"#utility.yul\":21732:21738   */\n      dup5\n        /* \"#utility.yul\":21668:21746   */\n      tag_350\n      jump\t// in\n    tag_563:\n        /* \"#utility.yul\":21660:21746   */\n      swap1\n      pop\n        /* \"#utility.yul\":21440:21753   */\n      swap3\n      swap2\n      pop\n      pop\n      jump\t// out\n        /* \"#utility.yul\":21759:21991   */\n    tag_351:\n        /* \"#utility.yul\":21899:21933   */\n      0x455243313936373a206e657720696d706c656d656e746174696f6e206973206e\n        /* \"#utility.yul\":21895:21896   */\n      0x00\n        /* \"#utility.yul\":21887:21893   */\n      dup3\n        /* \"#utility.yul\":21883:21897   */\n      add\n        /* \"#utility.yul\":21876:21934   */\n      mstore\n        /* \"#utility.yul\":21968:21983   */\n      0x6f74206120636f6e747261637400000000000000000000000000000000000000\n        /* \"#utility.yul\":21963:21965   */\n      0x20\n        /* \"#utility.yul\":21955:21961   */\n      dup3\n        /* \"#utility.yul\":21951:21966   */\n      add\n        /* \"#utility.yul\":21944:21984   */\n      mstore\n        /* \"#utility.yul\":21759:21991   */\n      pop\n      jump\t// out\n        /* \"#utility.yul\":21997:22363   */\n    tag_352:\n        /* \"#utility.yul\":22139:22142   */\n      0x00\n        /* \"#utility.yul\":22160:22227   */\n      tag_566\n        /* \"#utility.yul\":22224:22226   */\n      0x2d\n        /* \"#utility.yul\":22219:22222   */\n      dup4\n        /* \"#utility.yul\":22160:22227   */\n      tag_314\n      jump\t// in\n    tag_566:\n        /* \"#utility.yul\":22153:22227   */\n      swap2\n      pop\n        /* \"#utility.yul\":22236:22329   */\n      tag_567\n        /* \"#utility.yul\":22325:22328   */\n      dup3\n        /* \"#utility.yul\":22236:22329   */\n      tag_351\n      jump\t// in\n    tag_567:\n        /* \"#utility.yul\":22354:22356   */\n      0x40\n        /* \"#utility.yul\":22349:22352   */\n      dup3\n        /* \"#utility.yul\":22345:22357   */\n      add\n        /* \"#utility.yul\":22338:22357   */\n      swap1\n      pop\n        /* \"#utility.yul\":21997:22363   */\n      swap2\n      swap1\n      pop\n      jump\t// out\n        /* \"#utility.yul\":22369:22788   */\n    tag_224:\n        /* \"#utility.yul\":22535:22539   */\n      0x00\n        /* \"#utility.yul\":22573:22575   */\n      0x20\n        /* \"#utility.yul\":22562:22571   */\n      dup3\n        /* \"#utility.yul\":22558:22576   */\n      add\n        /* \"#utility.yul\":22550:22576   */\n      swap1\n      pop\n        /* \"#utility.yul\":22622:22631   */\n      dup2\n        /* \"#utility.yul\":22616:22620   */\n      dup2\n        /* \"#utility.yul\":22612:22632   */\n      sub\n        /* \"#utility.yul\":22608:22609   */\n      0x00\n        /* \"#utility.yul\":22597:22606   */\n      dup4\n        /* \"#utility.yul\":22593:22610   */\n      add\n        /* \"#utility.yul\":22586:22633   */\n      mstore\n        /* \"#utility.yul\":22650:22781   */\n      tag_569\n        /* \"#utility.yul\":22776:22780   */\n      dup2\n        /* \"#utility.yul\":22650:22781   */\n      tag_352\n      jump\t// in\n    tag_569:\n        /* \"#utility.yul\":22642:22781   */\n      swap1\n      pop\n        /* \"#utility.yul\":22369:22788   */\n      swap2\n      swap1\n      pop\n      jump\t// out\n        /* \"#utility.yul\":22794:22974   */\n    tag_353:\n        /* \"#utility.yul\":22842:22919   */\n      0x4e487b7100000000000000000000000000000000000000000000000000000000\n        /* \"#utility.yul\":22839:22840   */\n      0x00\n        /* \"#utility.yul\":22832:22920   */\n      mstore\n        /* \"#utility.yul\":22939:22943   */\n      0x11\n        /* \"#utility.yul\":22936:22937   */\n      0x04\n        /* \"#utility.yul\":22929:22944   */\n      mstore\n        /* \"#utility.yul\":22963:22967   */\n      0x24\n        /* \"#utility.yul\":22960:22961   */\n      0x00\n        /* \"#utility.yul\":22953:22968   */\n      revert\n        /* \"#utility.yul\":22980:23390   */\n    tag_237:\n        /* \"#utility.yul\":23020:23027   */\n      0x00\n        /* \"#utility.yul\":23043:23063   */\n      tag_572\n        /* \"#utility.yul\":23061:23062   */\n      dup3\n        /* \"#utility.yul\":23043:23063   */\n      tag_329\n      jump\t// in\n    tag_572:\n        /* \"#utility.yul\":23038:23063   */\n      swap2\n      pop\n        /* \"#utility.yul\":23077:23097   */\n      tag_573\n        /* \"#utility.yul\":23095:23096   */\n      dup4\n        /* \"#utility.yul\":23077:23097   */\n      tag_329\n      jump\t// in\n    tag_573:\n        /* \"#utility.yul\":23072:23097   */\n      swap3\n      pop\n        /* \"#utility.yul\":23132:23133   */\n      dup3\n        /* \"#utility.yul\":23129:23130   */\n      dup3\n        /* \"#utility.yul\":23125:23134   */\n      mul\n        /* \"#utility.yul\":23154:23184   */\n      tag_574\n        /* \"#utility.yul\":23172:23183   */\n      dup2\n        /* \"#utility.yul\":23154:23184   */\n      tag_329\n      jump\t// in\n    tag_574:\n        /* \"#utility.yul\":23143:23184   */\n      swap2\n      pop\n        /* \"#utility.yul\":23333:23334   */\n      dup3\n        /* \"#utility.yul\":23324:23331   */\n      dup3\n        /* \"#utility.yul\":23320:23335   */\n      div\n        /* \"#utility.yul\":23317:23318   */\n      dup5\n        /* \"#utility.yul\":23314:23336   */\n      eq\n        /* \"#utility.yul\":23294:23295   */\n      dup4\n        /* \"#utility.yul\":23287:23296   */\n      iszero\n        /* \"#utility.yul\":23267:23350   */\n      or\n        /* \"#utility.yul\":23244:23383   */\n      tag_575\n      jumpi\n        /* \"#utility.yul\":23363:23381   */\n      tag_576\n      tag_353\n      jump\t// in\n    tag_576:\n        /* \"#utility.yul\":23244:23383   */\n    tag_575:\n        /* \"#utility.yul\":23028:23390   */\n      pop\n        /* \"#utility.yul\":22980:23390   */\n      swap3\n      swap2\n      pop\n      pop\n      jump\t// out\n        /* \"#utility.yul\":23396:23587   */\n    tag_239:\n        /* \"#utility.yul\":23436:23439   */\n      0x00\n        /* \"#utility.yul\":23455:23475   */\n      tag_578\n        /* \"#utility.yul\":23473:23474   */\n      dup3\n        /* \"#utility.yul\":23455:23475   */\n      tag_329\n      jump\t// in\n    tag_578:\n        /* \"#utility.yul\":23450:23475   */\n      swap2\n      pop\n        /* \"#utility.yul\":23489:23509   */\n      tag_579\n        /* \"#utility.yul\":23507:23508   */\n      dup4\n        /* \"#utility.yul\":23489:23509   */\n      tag_329\n      jump\t// in\n    tag_579:\n        /* \"#utility.yul\":23484:23509   */\n      swap3\n      pop\n        /* \"#utility.yul\":23532:23533   */\n      dup3\n        /* \"#utility.yul\":23529:23530   */\n      dup3\n        /* \"#utility.yul\":23525:23534   */\n      add\n        /* \"#utility.yul\":23518:23534   */\n      swap1\n      pop\n        /* \"#utility.yul\":23553:23556   */\n      dup1\n        /* \"#utility.yul\":23550:23551   */\n      dup3\n        /* \"#utility.yul\":23547:23557   */\n      gt\n        /* \"#utility.yul\":23544:23580   */\n      iszero\n      tag_580\n      jumpi\n        /* \"#utility.yul\":23560:23578   */\n      tag_581\n      tag_353\n      jump\t// in\n    tag_581:\n        /* \"#utility.yul\":23544:23580   */\n    tag_580:\n        /* \"#utility.yul\":23396:23587   */\n      swap3\n      swap2\n      pop\n      pop\n      jump\t// out\n        /* \"#utility.yul\":23593:23773   */\n    tag_245:\n        /* \"#utility.yul\":23641:23718   */\n      0x4e487b7100000000000000000000000000000000000000000000000000000000\n        /* \"#utility.yul\":23638:23639   */\n      0x00\n        /* \"#utility.yul\":23631:23719   */\n      mstore\n        /* \"#utility.yul\":23738:23742   */\n      0x32\n        /* \"#utility.yul\":23735:23736   */\n      0x04\n        /* \"#utility.yul\":23728:23743   */\n      mstore\n        /* \"#utility.yul\":23762:23766   */\n      0x24\n        /* \"#utility.yul\":23759:23760   */\n      0x00\n        /* \"#utility.yul\":23752:23767   */\n      revert\n        /* \"#utility.yul\":23779:23950   */\n    tag_258:\n        /* \"#utility.yul\":23818:23821   */\n      0x00\n        /* \"#utility.yul\":23841:23865   */\n      tag_584\n        /* \"#utility.yul\":23859:23864   */\n      dup3\n        /* \"#utility.yul\":23841:23865   */\n      tag_329\n      jump\t// in\n    tag_584:\n        /* \"#utility.yul\":23832:23865   */\n      swap2\n      pop\n        /* \"#utility.yul\":23887:23891   */\n      0x00\n        /* \"#utility.yul\":23880:23885   */\n      dup3\n        /* \"#utility.yul\":23877:23892   */\n      sub\n        /* \"#utility.yul\":23874:23915   */\n      tag_585\n      jumpi\n        /* \"#utility.yul\":23895:23913   */\n      tag_586\n      tag_353\n      jump\t// in\n    tag_586:\n        /* \"#utility.yul\":23874:23915   */\n    tag_585:\n        /* \"#utility.yul\":23942:23943   */\n      0x01\n        /* \"#utility.yul\":23935:23940   */\n      dup3\n        /* \"#utility.yul\":23931:23944   */\n      sub\n        /* \"#utility.yul\":23924:23944   */\n      swap1\n      pop\n        /* \"#utility.yul\":23779:23950   */\n      swap2\n      swap1\n      pop\n      jump\t// out\n        /* \"#utility.yul\":23956:24138   */\n    tag_354:\n        /* \"#utility.yul\":24096:24130   */\n      0x537472696e67733a20686578206c656e67746820696e73756666696369656e74\n        /* \"#utility.yul\":24092:24093   */\n      0x00\n        /* \"#utility.yul\":24084:24090   */\n      dup3\n        /* \"#utility.yul\":24080:24094   */\n      add\n        /* \"#utility.yul\":24073:24131   */\n      mstore\n        /* \"#utility.yul\":23956:24138   */\n      pop\n      jump\t// out\n        /* \"#utility.yul\":24144:24510   */\n    tag_355:\n        /* \"#utility.yul\":24286:24289   */\n      0x00\n        /* \"#utility.yul\":24307:24374   */\n      tag_589\n        /* \"#utility.yul\":24371:24373   */\n      0x20\n        /* \"#utility.yul\":24366:24369   */\n      dup4\n        /* \"#utility.yul\":24307:24374   */\n      tag_314\n      jump\t// in\n    tag_589:\n        /* \"#utility.yul\":24300:24374   */\n      swap2\n      pop\n        /* \"#utility.yul\":24383:24476   */\n      tag_590\n        /* \"#utility.yul\":24472:24475   */\n      dup3\n        /* \"#utility.yul\":24383:24476   */\n      tag_354\n      jump\t// in\n    tag_590:\n        /* \"#utility.yul\":24501:24503   */\n      0x20\n        /* \"#utility.yul\":24496:24499   */\n      dup3\n        /* \"#utility.yul\":24492:24504   */\n      add\n        /* \"#utility.yul\":24485:24504   */\n      swap1\n      pop\n        /* \"#utility.yul\":24144:24510   */\n      swap2\n      swap1\n      pop\n      jump\t// out\n        /* \"#utility.yul\":24516:24935   */\n    tag_261:\n        /* \"#utility.yul\":24682:24686   */\n      0x00\n        /* \"#utility.yul\":24720:24722   */\n      0x20\n        /* \"#utility.yul\":24709:24718   */\n      dup3\n        /* \"#utility.yul\":24705:24723   */\n      add\n        /* \"#utility.yul\":24697:24723   */\n      swap1\n      pop\n        /* \"#utility.yul\":24769:24778   */\n      dup2\n        /* \"#utility.yul\":24763:24767   */\n      dup2\n        /* \"#utility.yul\":24759:24779   */\n      sub\n        /* \"#utility.yul\":24755:24756   */\n      0x00\n        /* \"#utility.yul\":24744:24753   */\n      dup4\n        /* \"#utility.yul\":24740:24757   */\n      add\n        /* \"#utility.yul\":24733:24780   */\n      mstore\n        /* \"#utility.yul\":24797:24928   */\n      tag_592\n        /* \"#utility.yul\":24923:24927   */\n      dup2\n        /* \"#utility.yul\":24797:24928   */\n      tag_355\n      jump\t// in\n    tag_592:\n        /* \"#utility.yul\":24789:24928   */\n      swap1\n      pop\n        /* \"#utility.yul\":24516:24935   */\n      swap2\n      swap1\n      pop\n      jump\t// out\n        /* \"#utility.yul\":24941:25039   */\n    tag_356:\n        /* \"#utility.yul\":24992:24998   */\n      0x00\n        /* \"#utility.yul\":25026:25031   */\n      dup2\n        /* \"#utility.yul\":25020:25032   */\n      mload\n        /* \"#utility.yul\":25010:25032   */\n      swap1\n      pop\n        /* \"#utility.yul\":24941:25039   */\n      swap2\n      swap1\n      pop\n      jump\t// out\n        /* \"#utility.yul\":25045:25192   */\n    tag_357:\n        /* \"#utility.yul\":25146:25157   */\n      0x00\n        /* \"#utility.yul\":25183:25186   */\n      dup2\n        /* \"#utility.yul\":25168:25186   */\n      swap1\n      pop\n        /* \"#utility.yul\":25045:25192   */\n      swap3\n      swap2\n      pop\n      pop\n      jump\t// out\n        /* \"#utility.yul\":25198:25584   */\n    tag_358:\n        /* \"#utility.yul\":25302:25305   */\n      0x00\n        /* \"#utility.yul\":25330:25368   */\n      tag_596\n        /* \"#utility.yul\":25362:25367   */\n      dup3\n        /* \"#utility.yul\":25330:25368   */\n      tag_356\n      jump\t// in\n    tag_596:\n        /* \"#utility.yul\":25384:25472   */\n      tag_597\n        /* \"#utility.yul\":25465:25471   */\n      dup2\n        /* \"#utility.yul\":25460:25463   */\n      dup6\n        /* \"#utility.yul\":25384:25472   */\n      tag_357\n      jump\t// in\n    tag_597:\n        /* \"#utility.yul\":25377:25472   */\n      swap4\n      pop\n        /* \"#utility.yul\":25481:25546   */\n      tag_598\n        /* \"#utility.yul\":25539:25545   */\n      dup2\n        /* \"#utility.yul\":25534:25537   */\n      dup6\n        /* \"#utility.yul\":25527:25531   */\n      0x20\n        /* \"#utility.yul\":25520:25525   */\n      dup7\n        /* \"#utility.yul\":25516:25532   */\n      add\n        /* \"#utility.yul\":25481:25546   */\n      tag_346\n      jump\t// in\n    tag_598:\n        /* \"#utility.yul\":25571:25577   */\n      dup1\n        /* \"#utility.yul\":25566:25569   */\n      dup5\n        /* \"#utility.yul\":25562:25578   */\n      add\n        /* \"#utility.yul\":25555:25578   */\n      swap2\n      pop\n        /* \"#utility.yul\":25306:25584   */\n      pop\n        /* \"#utility.yul\":25198:25584   */\n      swap3\n      swap2\n      pop\n      pop\n      jump\t// out\n        /* \"#utility.yul\":25590:25861   */\n    tag_269:\n        /* \"#utility.yul\":25720:25723   */\n      0x00\n        /* \"#utility.yul\":25742:25835   */\n      tag_600\n        /* \"#utility.yul\":25831:25834   */\n      dup3\n        /* \"#utility.yul\":25822:25828   */\n      dup5\n        /* \"#utility.yul\":25742:25835   */\n      tag_358\n      jump\t// in\n    tag_600:\n        /* \"#utility.yul\":25735:25835   */\n      swap2\n      pop\n        /* \"#utility.yul\":25852:25855   */\n      dup2\n        /* \"#utility.yul\":25845:25855   */\n      swap1\n      pop\n        /* \"#utility.yul\":25590:25861   */\n      swap3\n      swap2\n      pop\n      pop\n      jump\t// out\n        /* \"#utility.yul\":25867:26046   */\n    tag_359:\n        /* \"#utility.yul\":26007:26038   */\n      0x416464726573733a2063616c6c20746f206e6f6e2d636f6e7472616374000000\n        /* \"#utility.yul\":26003:26004   */\n      0x00\n        /* \"#utility.yul\":25995:26001   */\n      dup3\n        /* \"#utility.yul\":25991:26005   */\n      add\n        /* \"#utility.yul\":25984:26039   */\n      mstore\n        /* \"#utility.yul\":25867:26046   */\n      pop\n      jump\t// out\n        /* \"#utility.yul\":26052:26418   */\n    tag_360:\n        /* \"#utility.yul\":26194:26197   */\n      0x00\n        /* \"#utility.yul\":26215:26282   */\n      tag_603\n        /* \"#utility.yul\":26279:26281   */\n      0x1d\n        /* \"#utility.yul\":26274:26277   */\n      dup4\n        /* \"#utility.yul\":26215:26282   */\n      tag_314\n      jump\t// in\n    tag_603:\n        /* \"#utility.yul\":26208:26282   */\n      swap2\n      pop\n        /* \"#utility.yul\":26291:26384   */\n      tag_604\n        /* \"#utility.yul\":26380:26383   */\n      dup3\n        /* \"#utility.yul\":26291:26384   */\n      tag_359\n      jump\t// in\n    tag_604:\n        /* \"#utility.yul\":26409:26411   */\n      0x20\n        /* \"#utility.yul\":26404:26407   */\n      dup3\n        /* \"#utility.yul\":26400:26412   */\n      add\n        /* \"#utility.yul\":26393:26412   */\n      swap1\n      pop\n        /* \"#utility.yul\":26052:26418   */\n      swap2\n      swap1\n      pop\n      jump\t// out\n        /* \"#utility.yul\":26424:26843   */\n    tag_281:\n        /* \"#utility.yul\":26590:26594   */\n      0x00\n        /* \"#utility.yul\":26628:26630   */\n      0x20\n        /* \"#utility.yul\":26617:26626   */\n      dup3\n        /* \"#utility.yul\":26613:26631   */\n      add\n        /* \"#utility.yul\":26605:26631   */\n      swap1\n      pop\n        /* \"#utility.yul\":26677:26686   */\n      dup2\n        /* \"#utility.yul\":26671:26675   */\n      dup2\n        /* \"#utility.yul\":26667:26687   */\n      sub\n        /* \"#utility.yul\":26663:26664   */\n      0x00\n        /* \"#utility.yul\":26652:26661   */\n      dup4\n        /* \"#utility.yul\":26648:26665   */\n      add\n        /* \"#utility.yul\":26641:26688   */\n      mstore\n        /* \"#utility.yul\":26705:26836   */\n      tag_606\n        /* \"#utility.yul\":26831:26835   */\n      dup2\n        /* \"#utility.yul\":26705:26836   */\n      tag_360\n      jump\t// in\n    tag_606:\n        /* \"#utility.yul\":26697:26836   */\n      swap1\n      pop\n        /* \"#utility.yul\":26424:26843   */\n      swap2\n      swap1\n      pop\n      jump\t// out\n    stop\n    data_9fdcd12e4b726339b32a442b0a448365d5d85c96b2d2cff917b4f66c63110398 416464726573733a206c6f772d6c6576656c2064656c65676174652063616c6c206661696c6564\n\n    auxdata: 0xa2646970667358221220208b8808897ed27996a45e921d4b368229ed2c5e6d684711fc7964af832962e064736f6c634300081a0033\n}\n",
				"bytecode": {
					"linkReferences": {},
					"object": "60a06040523073ffffffffffffffffffffffffffffffffffffffff1660809073ffffffffffffffffffffffffffffffffffffffff168152503480156041575f80fd5b506080516122a06100765f395f81816103fa01528181610488015281816106fe0152818161078c015261098501526122a05ff3fe6080604052600436106100a6575f3560e01c80634f1ef286116100635780634f1ef286146101c257806351cff8d9146101de57806352d1902d1461020657806391d1485414610230578063a217fddf1461026c578063d547741f14610296576100a6565b806301ffc9a7146100aa578063248a9ca3146100e65780632f2ff15d1461012257806336568abe1461014a5780633659cfe614610172578063485cc9551461019a575b5f80fd5b3480156100b5575f80fd5b506100d060048036038101906100cb91906114fb565b6102be565b6040516100dd9190611540565b60405180910390f35b3480156100f1575f80fd5b5061010c6004803603810190610107919061158c565b610337565b60405161011991906115c6565b60405180910390f35b34801561012d575f80fd5b5061014860048036038101906101439190611639565b610354565b005b348015610155575f80fd5b50610170600480360381019061016b9190611639565b610375565b005b34801561017d575f80fd5b5061019860048036038101906101939190611677565b6103f8565b005b3480156101a5575f80fd5b506101c060048036038101906101bb91906116a2565b61057e565b005b6101dc60048036038101906101d7919061181c565b6106fc565b005b3480156101e9575f80fd5b5061020460048036038101906101ff9190611677565b610838565b005b348015610211575f80fd5b5061021a610982565b60405161022791906115c6565b60405180910390f35b34801561023b575f80fd5b5061025660048036038101906102519190611639565b610a39565b6040516102639190611540565b60405180910390f35b348015610277575f80fd5b50610280610a9d565b60405161028d91906115c6565b60405180910390f35b3480156102a1575f80fd5b506102bc60048036038101906102b79190611639565b610aa3565b005b5f7f7965db0b000000000000000000000000000000000000000000000000000000007bffffffffffffffffffffffffffffffffffffffffffffffffffffffff1916827bffffffffffffffffffffffffffffffffffffffffffffffffffffffff19161480610330575061032f82610ac4565b5b9050919050565b5f60c95f8381526020019081526020015f20600101549050919050565b61035d82610337565b61036681610b2d565b6103708383610b41565b505050565b61037d610c1c565b73ffffffffffffffffffffffffffffffffffffffff168173ffffffffffffffffffffffffffffffffffffffff16146103ea576040517f08c379a00000000000000000000000000000000000000000000000000000000081526004016103e1906118f6565b60405180910390fd5b6103f48282610c23565b5050565b7f000000000000000000000000000000000000000000000000000000000000000073ffffffffffffffffffffffffffffffffffffffff163073ffffffffffffffffffffffffffffffffffffffff1603610486576040517f08c379a000000000000000000000000000000000000000000000000000000000815260040161047d90611984565b60405180910390fd5b7f000000000000000000000000000000000000000000000000000000000000000073ffffffffffffffffffffffffffffffffffffffff166104c5610cfe565b73ffffffffffffffffffffffffffffffffffffffff161461051b576040517f08c379a000000000000000000000000000000000000000000000000000000000815260040161051290611a12565b60405180910390fd5b61052481610d51565b61057b815f67ffffffffffffffff811115610542576105416116f8565b5b6040519080825280601f01601f1916602001820160405280156105745781602001600182028036833780820191505090505b505f610d61565b50565b5f8060019054906101000a900460ff161590508080156105ad575060015f8054906101000a900460ff1660ff16105b806105d957506105bc30610ecb565b1580156105d8575060015f8054906101000a900460ff1660ff16145b5b610618576040517f08c379a000000000000000000000000000000000000000000000000000000000815260040161060f90611aa0565b60405180910390fd5b60015f806101000a81548160ff021916908360ff16021790555080156106535760015f60016101000a81548160ff0219169083151502179055505b61065f5f801b83610eed565b8260fb5f6101000a81548173ffffffffffffffffffffffffffffffffffffffff021916908373ffffffffffffffffffffffffffffffffffffffff16021790555080156106f7575f8060016101000a81548160ff0219169083151502179055507f7f26b83ff96e1f2b6a682f133852f6798a09c465da95921460cefb384740249860016040516106ee9190611b0c565b60405180910390a15b505050565b7f000000000000000000000000000000000000000000000000000000000000000073ffffffffffffffffffffffffffffffffffffffff163073ffffffffffffffffffffffffffffffffffffffff160361078a576040517f08c379a000000000000000000000000000000000000000000000000000000000815260040161078190611984565b60405180910390fd5b7f000000000000000000000000000000000000000000000000000000000000000073ffffffffffffffffffffffffffffffffffffffff166107c9610cfe565b73ffffffffffffffffffffffffffffffffffffffff161461081f576040517f08c379a000000000000000000000000000000000000000000000000000000000815260040161081690611a12565b60405180910390fd5b61082882610d51565b61083482826001610d61565b5050565b5f801b61084481610b2d565b5f60fb5f9054906101000a900473ffffffffffffffffffffffffffffffffffffffff1673ffffffffffffffffffffffffffffffffffffffff166370a08231306040518263ffffffff1660e01b815260040161089f9190611b34565b602060405180830381865afa1580156108ba573d5f803e3d5ffd5b505050506040513d601f19601f820116820180604052508101906108de9190611b80565b905060fb5f9054906101000a900473ffffffffffffffffffffffffffffffffffffffff1673ffffffffffffffffffffffffffffffffffffffff1663a9059cbb84836040518363ffffffff1660e01b815260040161093c929190611bba565b6020604051808303815f875af1158015610958573d5f803e3d5ffd5b505050506040513d601f19601f8201168201806040525081019061097c9190611c0b565b50505050565b5f7f000000000000000000000000000000000000000000000000000000000000000073ffffffffffffffffffffffffffffffffffffffff163073ffffffffffffffffffffffffffffffffffffffff1614610a11576040517f08c379a0000000000000000000000000000000000000000000000000000000008152600401610a0890611ca6565b60405180910390fd5b7f360894a13ba1a3210667c828492db98dca3e2076cc3735a920a3ca505d382bbc5f1b905090565b5f60c95f8481526020019081526020015f205f015f8373ffffffffffffffffffffffffffffffffffffffff1673ffffffffffffffffffffffffffffffffffffffff1681526020019081526020015f205f9054906101000a900460ff16905092915050565b5f801b81565b610aac82610337565b610ab581610b2d565b610abf8383610c23565b505050565b5f7f01ffc9a7000000000000000000000000000000000000000000000000000000007bffffffffffffffffffffffffffffffffffffffffffffffffffffffff1916827bffffffffffffffffffffffffffffffffffffffffffffffffffffffff1916149050919050565b610b3e81610b39610c1c565b610efb565b50565b610b4b8282610a39565b610c1857600160c95f8481526020019081526020015f205f015f8373ffffffffffffffffffffffffffffffffffffffff1673ffffffffffffffffffffffffffffffffffffffff1681526020019081526020015f205f6101000a81548160ff021916908315150217905550610bbd610c1c565b73ffffffffffffffffffffffffffffffffffffffff168173ffffffffffffffffffffffffffffffffffffffff16837f2f8788117e7eff1d82e926ec794901d17c78024a50270940304540a733656f0d60405160405180910390a45b5050565b5f33905090565b610c2d8282610a39565b15610cfa575f60c95f8481526020019081526020015f205f015f8373ffffffffffffffffffffffffffffffffffffffff1673ffffffffffffffffffffffffffffffffffffffff1681526020019081526020015f205f6101000a81548160ff021916908315150217905550610c9f610c1c565b73ffffffffffffffffffffffffffffffffffffffff168173ffffffffffffffffffffffffffffffffffffffff16837ff6391f5c32d9c69d2a47ea670b442974b53935d1edc7fd64eb21e047a839171b60405160405180910390a45b5050565b5f610d2a7f360894a13ba1a3210667c828492db98dca3e2076cc3735a920a3ca505d382bbc5f1b610f7f565b5f015f9054906101000a900473ffffffffffffffffffffffffffffffffffffffff16905090565b5f801b610d5d81610b2d565b5050565b610d8c7f4910fdfa16fed3260ed0e7147f7cc6da11a60208b5b9406d12a635614ffd91435f1b610f88565b5f015f9054906101000a900460ff1615610dae57610da983610f91565b610ec6565b8273ffffffffffffffffffffffffffffffffffffffff166352d1902d6040518163ffffffff1660e01b8152600401602060405180830381865afa925050508015610e1657506040513d601f19601f82011682018060405250810190610e139190611cd8565b60015b610e55576040517f08c379a0000000000000000000000000000000000000000000000000000000008152600401610e4c90611d73565b60405180910390fd5b7f360894a13ba1a3210667c828492db98dca3e2076cc3735a920a3ca505d382bbc5f1b8114610eb9576040517f08c379a0000000000000000000000000000000000000000000000000000000008152600401610eb090611e01565b60405180910390fd5b50610ec5838383611047565b5b505050565b5f808273ffffffffffffffffffffffffffffffffffffffff163b119050919050565b610ef78282610b41565b5050565b610f058282610a39565b610f7b57610f1281611072565b610f1f835f1c602061109f565b604051602001610f30929190611f05565b6040516020818303038152906040526040517f08c379a0000000000000000000000000000000000000000000000000000000008152600401610f729190611f76565b60405180910390fd5b5050565b5f819050919050565b5f819050919050565b610f9a81610ecb565b610fd9576040517f08c379a0000000000000000000000000000000000000000000000000000000008152600401610fd090612006565b60405180910390fd5b806110057f360894a13ba1a3210667c828492db98dca3e2076cc3735a920a3ca505d382bbc5f1b610f7f565b5f015f6101000a81548173ffffffffffffffffffffffffffffffffffffffff021916908373ffffffffffffffffffffffffffffffffffffffff16021790555050565b611050836112d4565b5f8251118061105c5750805b1561106d5761106b8383611323565b505b505050565b60606110988273ffffffffffffffffffffffffffffffffffffffff16601460ff1661109f565b9050919050565b60605f60028360026110b19190612051565b6110bb9190612092565b67ffffffffffffffff8111156110d4576110d36116f8565b5b6040519080825280601f01601f1916602001820160405280156111065781602001600182028036833780820191505090505b5090507f3000000000000000000000000000000000000000000000000000000000000000815f8151811061113d5761113c6120c5565b5b60200101907effffffffffffffffffffffffffffffffffffffffffffffffffffffffffffff191690815f1a9053507f7800000000000000000000000000000000000000000000000000000000000000816001815181106111a05761119f6120c5565b5b60200101907effffffffffffffffffffffffffffffffffffffffffffffffffffffffffffff191690815f1a9053505f60018460026111de9190612051565b6111e89190612092565b90505b6001811115611287577f3031323334353637383961626364656600000000000000000000000000000000600f86166010811061122a576112296120c5565b5b1a60f81b828281518110611241576112406120c5565b5b60200101907effffffffffffffffffffffffffffffffffffffffffffffffffffffffffffff191690815f1a905350600485901c945080611280906120f2565b90506111eb565b505f84146112ca576040517f08c379a00000000000000000000000000000000000000000000000000000000081526004016112c190612163565b60405180910390fd5b8091505092915050565b6112dd81610f91565b8073ffffffffffffffffffffffffffffffffffffffff167fbc7cd75a20ee27fd9adebab32041f755214dbc6bffa90cc0225b39da2e5c2d3b60405160405180910390a250565b6060611348838360405180606001604052806027815260200161224460279139611350565b905092915050565b60605f808573ffffffffffffffffffffffffffffffffffffffff168560405161137991906121c5565b5f60405180830381855af49150503d805f81146113b1576040519150601f19603f3d011682016040523d82523d5f602084013e6113b6565b606091505b50915091506113c7868383876113d2565b925050509392505050565b60608315611433575f83510361142b576113eb85610ecb565b61142a576040517f08c379a000000000000000000000000000000000000000000000000000000000815260040161142190612225565b60405180910390fd5b5b82905061143e565b61143d8383611446565b5b949350505050565b5f825111156114585781518083602001fd5b806040517f08c379a000000000000000000000000000000000000000000000000000000000815260040161148c9190611f76565b60405180910390fd5b5f604051905090565b5f80fd5b5f80fd5b5f7fffffffff0000000000000000000000000000000000000000000000000000000082169050919050565b6114da816114a6565b81146114e4575f80fd5b50565b5f813590506114f5816114d1565b92915050565b5f602082840312156115105761150f61149e565b5b5f61151d848285016114e7565b91505092915050565b5f8115159050919050565b61153a81611526565b82525050565b5f6020820190506115535f830184611531565b92915050565b5f819050919050565b61156b81611559565b8114611575575f80fd5b50565b5f8135905061158681611562565b92915050565b5f602082840312156115a1576115a061149e565b5b5f6115ae84828501611578565b91505092915050565b6115c081611559565b82525050565b5f6020820190506115d95f8301846115b7565b92915050565b5f73ffffffffffffffffffffffffffffffffffffffff82169050919050565b5f611608826115df565b9050919050565b611618816115fe565b8114611622575f80fd5b50565b5f813590506116338161160f565b92915050565b5f806040838503121561164f5761164e61149e565b5b5f61165c85828601611578565b925050602061166d85828601611625565b9150509250929050565b5f6020828403121561168c5761168b61149e565b5b5f61169984828501611625565b91505092915050565b5f80604083850312156116b8576116b761149e565b5b5f6116c585828601611625565b92505060206116d685828601611625565b9150509250929050565b5f80fd5b5f80fd5b5f601f19601f8301169050919050565b7f4e487b71000000000000000000000000000000000000000000000000000000005f52604160045260245ffd5b61172e826116e8565b810181811067ffffffffffffffff8211171561174d5761174c6116f8565b5b80604052505050565b5f61175f611495565b905061176b8282611725565b919050565b5f67ffffffffffffffff82111561178a576117896116f8565b5b611793826116e8565b9050602081019050919050565b828183375f83830152505050565b5f6117c06117bb84611770565b611756565b9050828152602081018484840111156117dc576117db6116e4565b5b6117e78482856117a0565b509392505050565b5f82601f830112611803576118026116e0565b5b81356118138482602086016117ae565b91505092915050565b5f80604083850312156118325761183161149e565b5b5f61183f85828601611625565b925050602083013567ffffffffffffffff8111156118605761185f6114a2565b5b61186c858286016117ef565b9150509250929050565b5f82825260208201905092915050565b7f416363657373436f6e74726f6c3a2063616e206f6e6c792072656e6f756e63655f8201527f20726f6c657320666f722073656c660000000000000000000000000000000000602082015250565b5f6118e0602f83611876565b91506118eb82611886565b604082019050919050565b5f6020820190508181035f83015261190d816118d4565b9050919050565b7f46756e6374696f6e206d7573742062652063616c6c6564207468726f756768205f8201527f64656c656761746563616c6c0000000000000000000000000000000000000000602082015250565b5f61196e602c83611876565b915061197982611914565b604082019050919050565b5f6020820190508181035f83015261199b81611962565b9050919050565b7f46756e6374696f6e206d7573742062652063616c6c6564207468726f756768205f8201527f6163746976652070726f78790000000000000000000000000000000000000000602082015250565b5f6119fc602c83611876565b9150611a07826119a2565b604082019050919050565b5f6020820190508181035f830152611a29816119f0565b9050919050565b7f496e697469616c697a61626c653a20636f6e747261637420697320616c7265615f8201527f647920696e697469616c697a6564000000000000000000000000000000000000602082015250565b5f611a8a602e83611876565b9150611a9582611a30565b604082019050919050565b5f6020820190508181035f830152611ab781611a7e565b9050919050565b5f819050919050565b5f60ff82169050919050565b5f819050919050565b5f611af6611af1611aec84611abe565b611ad3565b611ac7565b9050919050565b611b0681611adc565b82525050565b5f602082019050611b1f5f830184611afd565b92915050565b611b2e816115fe565b82525050565b5f602082019050611b475f830184611b25565b92915050565b5f819050919050565b611b5f81611b4d565b8114611b69575f80fd5b50565b5f81519050611b7a81611b56565b92915050565b5f60208284031215611b9557611b9461149e565b5b5f611ba284828501611b6c565b91505092915050565b611bb481611b4d565b82525050565b5f604082019050611bcd5f830185611b25565b611bda6020830184611bab565b9392505050565b611bea81611526565b8114611bf4575f80fd5b50565b5f81519050611c0581611be1565b92915050565b5f60208284031215611c2057611c1f61149e565b5b5f611c2d84828501611bf7565b91505092915050565b7f555550535570677261646561626c653a206d757374206e6f742062652063616c5f8201527f6c6564207468726f7567682064656c656761746563616c6c0000000000000000602082015250565b5f611c90603883611876565b9150611c9b82611c36565b604082019050919050565b5f6020820190508181035f830152611cbd81611c84565b9050919050565b5f81519050611cd281611562565b92915050565b5f60208284031215611ced57611cec61149e565b5b5f611cfa84828501611cc4565b91505092915050565b7f45524331393637557067726164653a206e657720696d706c656d656e746174695f8201527f6f6e206973206e6f742055555053000000000000000000000000000000000000602082015250565b5f611d5d602e83611876565b9150611d6882611d03565b604082019050919050565b5f6020820190508181035f830152611d8a81611d51565b9050919050565b7f45524331393637557067726164653a20756e737570706f727465642070726f785f8201527f6961626c65555549440000000000000000000000000000000000000000000000602082015250565b5f611deb602983611876565b9150611df682611d91565b604082019050919050565b5f6020820190508181035f830152611e1881611ddf565b9050919050565b5f81905092915050565b7f416363657373436f6e74726f6c3a206163636f756e74200000000000000000005f82015250565b5f611e5d601783611e1f565b9150611e6882611e29565b601782019050919050565b5f81519050919050565b8281835e5f83830152505050565b5f611e9582611e73565b611e9f8185611e1f565b9350611eaf818560208601611e7d565b80840191505092915050565b7f206973206d697373696e6720726f6c65200000000000000000000000000000005f82015250565b5f611eef601183611e1f565b9150611efa82611ebb565b601182019050919050565b5f611f0f82611e51565b9150611f1b8285611e8b565b9150611f2682611ee3565b9150611f328284611e8b565b91508190509392505050565b5f611f4882611e73565b611f528185611876565b9350611f62818560208601611e7d565b611f6b816116e8565b840191505092915050565b5f6020820190508181035f830152611f8e8184611f3e565b905092915050565b7f455243313936373a206e657720696d706c656d656e746174696f6e206973206e5f8201527f6f74206120636f6e747261637400000000000000000000000000000000000000602082015250565b5f611ff0602d83611876565b9150611ffb82611f96565b604082019050919050565b5f6020820190508181035f83015261201d81611fe4565b9050919050565b7f4e487b71000000000000000000000000000000000000000000000000000000005f52601160045260245ffd5b5f61205b82611b4d565b915061206683611b4d565b925082820261207481611b4d565b9150828204841483151761208b5761208a612024565b5b5092915050565b5f61209c82611b4d565b91506120a783611b4d565b92508282019050808211156120bf576120be612024565b5b92915050565b7f4e487b71000000000000000000000000000000000000000000000000000000005f52603260045260245ffd5b5f6120fc82611b4d565b91505f820361210e5761210d612024565b5b600182039050919050565b7f537472696e67733a20686578206c656e67746820696e73756666696369656e745f82015250565b5f61214d602083611876565b915061215882612119565b602082019050919050565b5f6020820190508181035f83015261217a81612141565b9050919050565b5f81519050919050565b5f81905092915050565b5f61219f82612181565b6121a9818561218b565b93506121b9818560208601611e7d565b80840191505092915050565b5f6121d08284612195565b915081905092915050565b7f416464726573733a2063616c6c20746f206e6f6e2d636f6e74726163740000005f82015250565b5f61220f601d83611876565b915061221a826121db565b602082019050919050565b5f6020820190508181035f83015261223c81612203565b905091905056fe416464726573733a206c6f772d6c6576656c2064656c65676174652063616c6c206661696c6564a2646970667358221220208b8808897ed27996a45e921d4b368229ed2c5e6d684711fc7964af832962e064736f6c634300081a0033",
					"opcodes": "PUSH1 0xA0 PUSH1 0x40 MSTORE ADDRESS PUSH20 0xFFFFFFFFFFFFFFFFFFFFFFFFFFFFFFFFFFFFFFFF AND PUSH1 0x80 SWAP1 PUSH20 0xFFFFFFFFFFFFFFFFFFFFFFFFFFFFFFFFFFFFFFFF AND DUP2 MSTORE POP CALLVALUE DUP1 ISZERO PUSH1 0x41 JUMPI PUSH0 DUP1 REVERT JUMPDEST POP PUSH1 0x80 MLOAD PUSH2 0x22A0 PUSH2 0x76 PUSH0 CODECOPY PUSH0 DUP2 DUP2 PUSH2 0x3FA ADD MSTORE DUP2 DUP2 PUSH2 0x488 ADD MSTORE DUP2 DUP2 PUSH2 0x6FE ADD MSTORE DUP2 DUP2 PUSH2 0x78C ADD MSTORE PUSH2 0x985 ADD MSTORE PUSH2 0x22A0 PUSH0 RETURN INVALID PUSH1 0x80 PUSH1 0x40 MSTORE PUSH1 0x4 CALLDATASIZE LT PUSH2 0xA6 JUMPI PUSH0 CALLDATALOAD PUSH1 0xE0 SHR DUP1 PUSH4 0x4F1EF286 GT PUSH2 0x63 JUMPI DUP1 PUSH4 0x4F1EF286 EQ PUSH2 0x1C2 JUMPI DUP1 PUSH4 0x51CFF8D9 EQ PUSH2 0x1DE JUMPI DUP1 PUSH4 0x52D1902D EQ PUSH2 0x206 JUMPI DUP1 PUSH4 0x91D14854 EQ PUSH2 0x230 JUMPI DUP1 PUSH4 0xA217FDDF EQ PUSH2 0x26C JUMPI DUP1 PUSH4 0xD547741F EQ PUSH2 0x296 JUMPI PUSH2 0xA6 JUMP JUMPDEST DUP1 PUSH4 0x1FFC9A7 EQ PUSH2 0xAA JUMPI DUP1 PUSH4 0x248A9CA3 EQ PUSH2 0xE6 JUMPI DUP1 PUSH4 0x2F2FF15D EQ PUSH2 0x122 JUMPI DUP1 PUSH4 0x36568ABE EQ PUSH2 0x14A JUMPI DUP1 PUSH4 0x3659CFE6 EQ PUSH2 0x172 JUMPI DUP1 PUSH4 0x485CC955 EQ PUSH2 0x19A JUMPI JUMPDEST PUSH0 DUP1 REVERT JUMPDEST CALLVALUE DUP1 ISZERO PUSH2 0xB5 JUMPI PUSH0 DUP1 REVERT JUMPDEST POP PUSH2 0xD0 PUSH1 0x4 DUP1 CALLDATASIZE SUB DUP2 ADD SWAP1 PUSH2 0xCB SWAP2 SWAP1 PUSH2 0x14FB JUMP JUMPDEST PUSH2 0x2BE JUMP JUMPDEST PUSH1 0x40 MLOAD PUSH2 0xDD SWAP2 SWAP1 PUSH2 0x1540 JUMP JUMPDEST PUSH1 0x40 MLOAD DUP1 SWAP2 SUB SWAP1 RETURN JUMPDEST CALLVALUE DUP1 ISZERO PUSH2 0xF1 JUMPI PUSH0 DUP1 REVERT JUMPDEST POP PUSH2 0x10C PUSH1 0x4 DUP1 CALLDATASIZE SUB DUP2 ADD SWAP1 PUSH2 0x107 SWAP2 SWAP1 PUSH2 0x158C JUMP JUMPDEST PUSH2 0x337 JUMP JUMPDEST PUSH1 0x40 MLOAD PUSH2 0x119 SWAP2 SWAP1 PUSH2 0x15C6 JUMP JUMPDEST PUSH1 0x40 MLOAD DUP1 SWAP2 SUB SWAP1 RETURN JUMPDEST CALLVALUE DUP1 ISZERO PUSH2 0x12D JUMPI PUSH0 DUP1 REVERT JUMPDEST POP PUSH2 0x148 PUSH1 0x4 DUP1 CALLDATASIZE SUB DUP2 ADD SWAP1 PUSH2 0x143 SWAP2 SWAP1 PUSH2 0x1639 JUMP JUMPDEST PUSH2 0x354 JUMP JUMPDEST STOP JUMPDEST CALLVALUE DUP1 ISZERO PUSH2 0x155 JUMPI PUSH0 DUP1 REVERT JUMPDEST POP PUSH2 0x170 PUSH1 0x4 DUP1 CALLDATASIZE SUB DUP2 ADD SWAP1 PUSH2 0x16B SWAP2 SWAP1 PUSH2 0x1639 JUMP JUMPDEST PUSH2 0x375 JUMP JUMPDEST STOP JUMPDEST CALLVALUE DUP1 ISZERO PUSH2 0x17D JUMPI PUSH0 DUP1 REVERT JUMPDEST POP PUSH2 0x198 PUSH1 0x4 DUP1 CALLDATASIZE SUB DUP2 ADD SWAP1 PUSH2 0x193 SWAP2 SWAP1 PUSH2 0x1677 JUMP JUMPDEST PUSH2 0x3F8 JUMP JUMPDEST STOP JUMPDEST CALLVALUE DUP1 ISZERO PUSH2 0x1A5 JUMPI PUSH0 DUP1 REVERT JUMPDEST POP PUSH2 0x1C0 PUSH1 0x4 DUP1 CALLDATASIZE SUB DUP2 ADD SWAP1 PUSH2 0x1BB SWAP2 SWAP1 PUSH2 0x16A2 JUMP JUMPDEST PUSH2 0x57E JUMP JUMPDEST STOP JUMPDEST PUSH2 0x1DC PUSH1 0x4 DUP1 CALLDATASIZE SUB DUP2 ADD SWAP1 PUSH2 0x1D7 SWAP2 SWAP1 PUSH2 0x181C JUMP JUMPDEST PUSH2 0x6FC JUMP JUMPDEST STOP JUMPDEST CALLVALUE DUP1 ISZERO PUSH2 0x1E9 JUMPI PUSH0 DUP1 REVERT JUMPDEST POP PUSH2 0x204 PUSH1 0x4 DUP1 CALLDATASIZE SUB DUP2 ADD SWAP1 PUSH2 0x1FF SWAP2 SWAP1 PUSH2 0x1677 JUMP JUMPDEST PUSH2 0x838 JUMP JUMPDEST STOP JUMPDEST CALLVALUE DUP1 ISZERO PUSH2 0x211 JUMPI PUSH0 DUP1 REVERT JUMPDEST POP PUSH2 0x21A PUSH2 0x982 JUMP JUMPDEST PUSH1 0x40 MLOAD PUSH2 0x227 SWAP2 SWAP1 PUSH2 0x15C6 JUMP JUMPDEST PUSH1 0x40 MLOAD DUP1 SWAP2 SUB SWAP1 RETURN JUMPDEST CALLVALUE DUP1 ISZERO PUSH2 0x23B JUMPI PUSH0 DUP1 REVERT JUMPDEST POP PUSH2 0x256 PUSH1 0x4 DUP1 CALLDATASIZE SUB DUP2 ADD SWAP1 PUSH2 0x251 SWAP2 SWAP1 PUSH2 0x1639 JUMP JUMPDEST PUSH2 0xA39 JUMP JUMPDEST PUSH1 0x40 MLOAD PUSH2 0x263 SWAP2 SWAP1 PUSH2 0x1540 JUMP JUMPDEST PUSH1 0x40 MLOAD DUP1 SWAP2 SUB SWAP1 RETURN JUMPDEST CALLVALUE DUP1 ISZERO PUSH2 0x277 JUMPI PUSH0 DUP1 REVERT JUMPDEST POP PUSH2 0x280 PUSH2 0xA9D JUMP JUMPDEST PUSH1 0x40 MLOAD PUSH2 0x28D SWAP2 SWAP1 PUSH2 0x15C6 JUMP JUMPDEST PUSH1 0x40 MLOAD DUP1 SWAP2 SUB SWAP1 RETURN JUMPDEST CALLVALUE DUP1 ISZERO PUSH2 0x2A1 JUMPI PUSH0 DUP1 REVERT JUMPDEST POP PUSH2 0x2BC PUSH1 0x4 DUP1 CALLDATASIZE SUB DUP2 ADD SWAP1 PUSH2 0x2B7 SWAP2 SWAP1 PUSH2 0x1639 JUMP JUMPDEST PUSH2 0xAA3 JUMP JUMPDEST STOP JUMPDEST PUSH0 PUSH32 0x7965DB0B00000000000000000000000000000000000000000000000000000000 PUSH28 0xFFFFFFFFFFFFFFFFFFFFFFFFFFFFFFFFFFFFFFFFFFFFFFFFFFFFFFFF NOT AND DUP3 PUSH28 0xFFFFFFFFFFFFFFFFFFFFFFFFFFFFFFFFFFFFFFFFFFFFFFFFFFFFFFFF NOT AND EQ DUP1 PUSH2 0x330 JUMPI POP PUSH2 0x32F DUP3 PUSH2 0xAC4 JUMP JUMPDEST JUMPDEST SWAP1 POP SWAP2 SWAP1 POP JUMP JUMPDEST PUSH0 PUSH1 0xC9 PUSH0 DUP4 DUP2 MSTORE PUSH1 0x20 ADD SWAP1 DUP2 MSTORE PUSH1 0x20 ADD PUSH0 KECCAK256 PUSH1 0x1 ADD SLOAD SWAP1 POP SWAP2 SWAP1 POP JUMP JUMPDEST PUSH2 0x35D DUP3 PUSH2 0x337 JUMP JUMPDEST PUSH2 0x366 DUP2 PUSH2 0xB2D JUMP JUMPDEST PUSH2 0x370 DUP4 DUP4 PUSH2 0xB41 JUMP JUMPDEST POP POP POP JUMP JUMPDEST PUSH2 0x37D PUSH2 0xC1C JUMP JUMPDEST PUSH20 0xFFFFFFFFFFFFFFFFFFFFFFFFFFFFFFFFFFFFFFFF AND DUP2 PUSH20 0xFFFFFFFFFFFFFFFFFFFFFFFFFFFFFFFFFFFFFFFF AND EQ PUSH2 0x3EA JUMPI PUSH1 0x40 MLOAD PUSH32 0x8C379A000000000000000000000000000000000000000000000000000000000 DUP2 MSTORE PUSH1 0x4 ADD PUSH2 0x3E1 SWAP1 PUSH2 0x18F6 JUMP JUMPDEST PUSH1 0x40 MLOAD DUP1 SWAP2 SUB SWAP1 REVERT JUMPDEST PUSH2 0x3F4 DUP3 DUP3 PUSH2 0xC23 JUMP JUMPDEST POP POP JUMP JUMPDEST PUSH32 0x0 PUSH20 0xFFFFFFFFFFFFFFFFFFFFFFFFFFFFFFFFFFFFFFFF AND ADDRESS PUSH20 0xFFFFFFFFFFFFFFFFFFFFFFFFFFFFFFFFFFFFFFFF AND SUB PUSH2 0x486 JUMPI PUSH1 0x40 MLOAD PUSH32 0x8C379A000000000000000000000000000000000000000000000000000000000 DUP2 MSTORE PUSH1 0x4 ADD PUSH2 0x47D SWAP1 PUSH2 0x1984 JUMP JUMPDEST PUSH1 0x40 MLOAD DUP1 SWAP2 SUB SWAP1 REVERT JUMPDEST PUSH32 0x0 PUSH20 0xFFFFFFFFFFFFFFFFFFFFFFFFFFFFFFFFFFFFFFFF AND PUSH2 0x4C5 PUSH2 0xCFE JUMP JUMPDEST PUSH20 0xFFFFFFFFFFFFFFFFFFFFFFFFFFFFFFFFFFFFFFFF AND EQ PUSH2 0x51B JUMPI PUSH1 0x40 MLOAD PUSH32 0x8C379A000000000000000000000000000000000000000000000000000000000 DUP2 MSTORE PUSH1 0x4 ADD PUSH2 0x512 SWAP1 PUSH2 0x1A12 JUMP JUMPDEST PUSH1 0x40 MLOAD DUP1 SWAP2 SUB SWAP1 REVERT JUMPDEST PUSH2 0x524 DUP2 PUSH2 0xD51 JUMP JUMPDEST PUSH2 0x57B DUP2 PUSH0 PUSH8 0xFFFFFFFFFFFFFFFF DUP2 GT ISZERO PUSH2 0x542 JUMPI PUSH2 0x541 PUSH2 0x16F8 JUMP JUMPDEST JUMPDEST PUSH1 0x40 MLOAD SWAP1 DUP1 DUP3 MSTORE DUP1 PUSH1 0x1F ADD PUSH1 0x1F NOT AND PUSH1 0x20 ADD DUP3 ADD PUSH1 0x40 MSTORE DUP1 ISZERO PUSH2 0x574 JUMPI DUP2 PUSH1 0x20 ADD PUSH1 0x1 DUP3 MUL DUP1 CALLDATASIZE DUP4 CALLDATACOPY DUP1 DUP3 ADD SWAP2 POP POP SWAP1 POP JUMPDEST POP PUSH0 PUSH2 0xD61 JUMP JUMPDEST POP JUMP JUMPDEST PUSH0 DUP1 PUSH1 0x1 SWAP1 SLOAD SWAP1 PUSH2 0x100 EXP SWAP1 DIV PUSH1 0xFF AND ISZERO SWAP1 POP DUP1 DUP1 ISZERO PUSH2 0x5AD JUMPI POP PUSH1 0x1 PUSH0 DUP1 SLOAD SWAP1 PUSH2 0x100 EXP SWAP1 DIV PUSH1 0xFF AND PUSH1 0xFF AND LT JUMPDEST DUP1 PUSH2 0x5D9 JUMPI POP PUSH2 0x5BC ADDRESS PUSH2 0xECB JUMP JUMPDEST ISZERO DUP1 ISZERO PUSH2 0x5D8 JUMPI POP PUSH1 0x1 PUSH0 DUP1 SLOAD SWAP1 PUSH2 0x100 EXP SWAP1 DIV PUSH1 0xFF AND PUSH1 0xFF AND EQ JUMPDEST JUMPDEST PUSH2 0x618 JUMPI PUSH1 0x40 MLOAD PUSH32 0x8C379A000000000000000000000000000000000000000000000000000000000 DUP2 MSTORE PUSH1 0x4 ADD PUSH2 0x60F SWAP1 PUSH2 0x1AA0 JUMP JUMPDEST PUSH1 0x40 MLOAD DUP1 SWAP2 SUB SWAP1 REVERT JUMPDEST PUSH1 0x1 PUSH0 DUP1 PUSH2 0x100 EXP DUP2 SLOAD DUP2 PUSH1 0xFF MUL NOT AND SWAP1 DUP4 PUSH1 0xFF AND MUL OR SWAP1 SSTORE POP DUP1 ISZERO PUSH2 0x653 JUMPI PUSH1 0x1 PUSH0 PUSH1 0x1 PUSH2 0x100 EXP DUP2 SLOAD DUP2 PUSH1 0xFF MUL NOT AND SWAP1 DUP4 ISZERO ISZERO MUL OR SWAP1 SSTORE POP JUMPDEST PUSH2 0x65F PUSH0 DUP1 SHL DUP4 PUSH2 0xEED JUMP JUMPDEST DUP3 PUSH1 0xFB PUSH0 PUSH2 0x100 EXP DUP2 SLOAD DUP2 PUSH20 0xFFFFFFFFFFFFFFFFFFFFFFFFFFFFFFFFFFFFFFFF MUL NOT AND SWAP1 DUP4 PUSH20 0xFFFFFFFFFFFFFFFFFFFFFFFFFFFFFFFFFFFFFFFF AND MUL OR SWAP1 SSTORE POP DUP1 ISZERO PUSH2 0x6F7 JUMPI PUSH0 DUP1 PUSH1 0x1 PUSH2 0x100 EXP DUP2 SLOAD DUP2 PUSH1 0xFF MUL NOT AND SWAP1 DUP4 ISZERO ISZERO MUL OR SWAP1 SSTORE POP PUSH32 0x7F26B83FF96E1F2B6A682F133852F6798A09C465DA95921460CEFB3847402498 PUSH1 0x1 PUSH1 0x40 MLOAD PUSH2 0x6EE SWAP2 SWAP1 PUSH2 0x1B0C JUMP JUMPDEST PUSH1 0x40 MLOAD DUP1 SWAP2 SUB SWAP1 LOG1 JUMPDEST POP POP POP JUMP JUMPDEST PUSH32 0x0 PUSH20 0xFFFFFFFFFFFFFFFFFFFFFFFFFFFFFFFFFFFFFFFF AND ADDRESS PUSH20 0xFFFFFFFFFFFFFFFFFFFFFFFFFFFFFFFFFFFFFFFF AND SUB PUSH2 0x78A JUMPI PUSH1 0x40 MLOAD PUSH32 0x8C379A000000000000000000000000000000000000000000000000000000000 DUP2 MSTORE PUSH1 0x4 ADD PUSH2 0x781 SWAP1 PUSH2 0x1984 JUMP JUMPDEST PUSH1 0x40 MLOAD DUP1 SWAP2 SUB SWAP1 REVERT JUMPDEST PUSH32 0x0 PUSH20 0xFFFFFFFFFFFFFFFFFFFFFFFFFFFFFFFFFFFFFFFF AND PUSH2 0x7C9 PUSH2 0xCFE JUMP JUMPDEST PUSH20 0xFFFFFFFFFFFFFFFFFFFFFFFFFFFFFFFFFFFFFFFF AND EQ PUSH2 0x81F JUMPI PUSH1 0x40 MLOAD PUSH32 0x8C379A000000000000000000000000000000000000000000000000000000000 DUP2 MSTORE PUSH1 0x4 ADD PUSH2 0x816 SWAP1 PUSH2 0x1A12 JUMP JUMPDEST PUSH1 0x40 MLOAD DUP1 SWAP2 SUB SWAP1 REVERT JUMPDEST PUSH2 0x828 DUP3 PUSH2 0xD51 JUMP JUMPDEST PUSH2 0x834 DUP3 DUP3 PUSH1 0x1 PUSH2 0xD61 JUMP JUMPDEST POP POP JUMP JUMPDEST PUSH0 DUP1 SHL PUSH2 0x844 DUP2 PUSH2 0xB2D JUMP JUMPDEST PUSH0 PUSH1 0xFB PUSH0 SWAP1 SLOAD SWAP1 PUSH2 0x100 EXP SWAP1 DIV PUSH20 0xFFFFFFFFFFFFFFFFFFFFFFFFFFFFFFFFFFFFFFFF AND PUSH20 0xFFFFFFFFFFFFFFFFFFFFFFFFFFFFFFFFFFFFFFFF AND PUSH4 0x70A08231 ADDRESS PUSH1 0x40 MLOAD DUP3 PUSH4 0xFFFFFFFF AND PUSH1 0xE0 SHL DUP2 MSTORE PUSH1 0x4 ADD PUSH2 0x89F SWAP2 SWAP1 PUSH2 0x1B34 JUMP JUMPDEST PUSH1 0x20 PUSH1 0x40 MLOAD DUP1 DUP4 SUB DUP2 DUP7 GAS STATICCALL ISZERO DUP1 ISZERO PUSH2 0x8BA JUMPI RETURNDATASIZE PUSH0 DUP1 RETURNDATACOPY RETURNDATASIZE PUSH0 REVERT JUMPDEST POP POP POP POP PUSH1 0x40 MLOAD RETURNDATASIZE PUSH1 0x1F NOT PUSH1 0x1F DUP3 ADD AND DUP3 ADD DUP1 PUSH1 0x40 MSTORE POP DUP2 ADD SWAP1 PUSH2 0x8DE SWAP2 SWAP1 PUSH2 0x1B80 JUMP JUMPDEST SWAP1 POP PUSH1 0xFB PUSH0 SWAP1 SLOAD SWAP1 PUSH2 0x100 EXP SWAP1 DIV PUSH20 0xFFFFFFFFFFFFFFFFFFFFFFFFFFFFFFFFFFFFFFFF AND PUSH20 0xFFFFFFFFFFFFFFFFFFFFFFFFFFFFFFFFFFFFFFFF AND PUSH4 0xA9059CBB DUP5 DUP4 PUSH1 0x40 MLOAD DUP4 PUSH4 0xFFFFFFFF AND PUSH1 0xE0 SHL DUP2 MSTORE PUSH1 0x4 ADD PUSH2 0x93C SWAP3 SWAP2 SWAP1 PUSH2 0x1BBA JUMP JUMPDEST PUSH1 0x20 PUSH1 0x40 MLOAD DUP1 DUP4 SUB DUP2 PUSH0 DUP8 GAS CALL ISZERO DUP1 ISZERO PUSH2 0x958 JUMPI RETURNDATASIZE PUSH0 DUP1 RETURNDATACOPY RETURNDATASIZE PUSH0 REVERT JUMPDEST POP POP POP POP PUSH1 0x40 MLOAD RETURNDATASIZE PUSH1 0x1F NOT PUSH1 0x1F DUP3 ADD AND DUP3 ADD DUP1 PUSH1 0x40 MSTORE POP DUP2 ADD SWAP1 PUSH2 0x97C SWAP2 SWAP1 PUSH2 0x1C0B JUMP JUMPDEST POP POP POP POP JUMP JUMPDEST PUSH0 PUSH32 0x0 PUSH20 0xFFFFFFFFFFFFFFFFFFFFFFFFFFFFFFFFFFFFFFFF AND ADDRESS PUSH20 0xFFFFFFFFFFFFFFFFFFFFFFFFFFFFFFFFFFFFFFFF AND EQ PUSH2 0xA11 JUMPI PUSH1 0x40 MLOAD PUSH32 0x8C379A000000000000000000000000000000000000000000000000000000000 DUP2 MSTORE PUSH1 0x4 ADD PUSH2 0xA08 SWAP1 PUSH2 0x1CA6 JUMP JUMPDEST PUSH1 0x40 MLOAD DUP1 SWAP2 SUB SWAP1 REVERT JUMPDEST PUSH32 0x360894A13BA1A3210667C828492DB98DCA3E2076CC3735A920A3CA505D382BBC PUSH0 SHL SWAP1 POP SWAP1 JUMP JUMPDEST PUSH0 PUSH1 0xC9 PUSH0 DUP5 DUP2 MSTORE PUSH1 0x20 ADD SWAP1 DUP2 MSTORE PUSH1 0x20 ADD PUSH0 KECCAK256 PUSH0 ADD PUSH0 DUP4 PUSH20 0xFFFFFFFFFFFFFFFFFFFFFFFFFFFFFFFFFFFFFFFF AND PUSH20 0xFFFFFFFFFFFFFFFFFFFFFFFFFFFFFFFFFFFFFFFF AND DUP2 MSTORE PUSH1 0x20 ADD SWAP1 DUP2 MSTORE PUSH1 0x20 ADD PUSH0 KECCAK256 PUSH0 SWAP1 SLOAD SWAP1 PUSH2 0x100 EXP SWAP1 DIV PUSH1 0xFF AND SWAP1 POP SWAP3 SWAP2 POP POP JUMP JUMPDEST PUSH0 DUP1 SHL DUP2 JUMP JUMPDEST PUSH2 0xAAC DUP3 PUSH2 0x337 JUMP JUMPDEST PUSH2 0xAB5 DUP2 PUSH2 0xB2D JUMP JUMPDEST PUSH2 0xABF DUP4 DUP4 PUSH2 0xC23 JUMP JUMPDEST POP POP POP JUMP JUMPDEST PUSH0 PUSH32 0x1FFC9A700000000000000000000000000000000000000000000000000000000 PUSH28 0xFFFFFFFFFFFFFFFFFFFFFFFFFFFFFFFFFFFFFFFFFFFFFFFFFFFFFFFF NOT AND DUP3 PUSH28 0xFFFFFFFFFFFFFFFFFFFFFFFFFFFFFFFFFFFFFFFFFFFFFFFFFFFFFFFF NOT AND EQ SWAP1 POP SWAP2 SWAP1 POP JUMP JUMPDEST PUSH2 0xB3E DUP2 PUSH2 0xB39 PUSH2 0xC1C JUMP JUMPDEST PUSH2 0xEFB JUMP JUMPDEST POP JUMP JUMPDEST PUSH2 0xB4B DUP3 DUP3 PUSH2 0xA39 JUMP JUMPDEST PUSH2 0xC18 JUMPI PUSH1 0x1 PUSH1 0xC9 PUSH0 DUP5 DUP2 MSTORE PUSH1 0x20 ADD SWAP1 DUP2 MSTORE PUSH1 0x20 ADD PUSH0 KECCAK256 PUSH0 ADD PUSH0 DUP4 PUSH20 0xFFFFFFFFFFFFFFFFFFFFFFFFFFFFFFFFFFFFFFFF AND PUSH20 0xFFFFFFFFFFFFFFFFFFFFFFFFFFFFFFFFFFFFFFFF AND DUP2 MSTORE PUSH1 0x20 ADD SWAP1 DUP2 MSTORE PUSH1 0x20 ADD PUSH0 KECCAK256 PUSH0 PUSH2 0x100 EXP DUP2 SLOAD DUP2 PUSH1 0xFF MUL NOT AND SWAP1 DUP4 ISZERO ISZERO MUL OR SWAP1 SSTORE POP PUSH2 0xBBD PUSH2 0xC1C JUMP JUMPDEST PUSH20 0xFFFFFFFFFFFFFFFFFFFFFFFFFFFFFFFFFFFFFFFF AND DUP2 PUSH20 0xFFFFFFFFFFFFFFFFFFFFFFFFFFFFFFFFFFFFFFFF AND DUP4 PUSH32 0x2F8788117E7EFF1D82E926EC794901D17C78024A50270940304540A733656F0D PUSH1 0x40 MLOAD PUSH1 0x40 MLOAD DUP1 SWAP2 SUB SWAP1 LOG4 JUMPDEST POP POP JUMP JUMPDEST PUSH0 CALLER SWAP1 POP SWAP1 JUMP JUMPDEST PUSH2 0xC2D DUP3 DUP3 PUSH2 0xA39 JUMP JUMPDEST ISZERO PUSH2 0xCFA JUMPI PUSH0 PUSH1 0xC9 PUSH0 DUP5 DUP2 MSTORE PUSH1 0x20 ADD SWAP1 DUP2 MSTORE PUSH1 0x20 ADD PUSH0 KECCAK256 PUSH0 ADD PUSH0 DUP4 PUSH20 0xFFFFFFFFFFFFFFFFFFFFFFFFFFFFFFFFFFFFFFFF AND PUSH20 0xFFFFFFFFFFFFFFFFFFFFFFFFFFFFFFFFFFFFFFFF AND DUP2 MSTORE PUSH1 0x20 ADD SWAP1 DUP2 MSTORE PUSH1 0x20 ADD PUSH0 KECCAK256 PUSH0 PUSH2 0x100 EXP DUP2 SLOAD DUP2 PUSH1 0xFF MUL NOT AND SWAP1 DUP4 ISZERO ISZERO MUL OR SWAP1 SSTORE POP PUSH2 0xC9F PUSH2 0xC1C JUMP JUMPDEST PUSH20 0xFFFFFFFFFFFFFFFFFFFFFFFFFFFFFFFFFFFFFFFF AND DUP2 PUSH20 0xFFFFFFFFFFFFFFFFFFFFFFFFFFFFFFFFFFFFFFFF AND DUP4 PUSH32 0xF6391F5C32D9C69D2A47EA670B442974B53935D1EDC7FD64EB21E047A839171B PUSH1 0x40 MLOAD PUSH1 0x40 MLOAD DUP1 SWAP2 SUB SWAP1 LOG4 JUMPDEST POP POP JUMP JUMPDEST PUSH0 PUSH2 0xD2A PUSH32 0x360894A13BA1A3210667C828492DB98DCA3E2076CC3735A920A3CA505D382BBC PUSH0 SHL PUSH2 0xF7F JUMP JUMPDEST PUSH0 ADD PUSH0 SWAP1 SLOAD SWAP1 PUSH2 0x100 EXP SWAP1 DIV PUSH20 0xFFFFFFFFFFFFFFFFFFFFFFFFFFFFFFFFFFFFFFFF AND SWAP1 POP SWAP1 JUMP JUMPDEST PUSH0 DUP1 SHL PUSH2 0xD5D DUP2 PUSH2 0xB2D JUMP JUMPDEST POP POP JUMP JUMPDEST PUSH2 0xD8C PUSH32 0x4910FDFA16FED3260ED0E7147F7CC6DA11A60208B5B9406D12A635614FFD9143 PUSH0 SHL PUSH2 0xF88 JUMP JUMPDEST PUSH0 ADD PUSH0 SWAP1 SLOAD SWAP1 PUSH2 0x100 EXP SWAP1 DIV PUSH1 0xFF AND ISZERO PUSH2 0xDAE JUMPI PUSH2 0xDA9 DUP4 PUSH2 0xF91 JUMP JUMPDEST PUSH2 0xEC6 JUMP JUMPDEST DUP3 PUSH20 0xFFFFFFFFFFFFFFFFFFFFFFFFFFFFFFFFFFFFFFFF AND PUSH4 0x52D1902D PUSH1 0x40 MLOAD DUP2 PUSH4 0xFFFFFFFF AND PUSH1 0xE0 SHL DUP2 MSTORE PUSH1 0x4 ADD PUSH1 0x20 PUSH1 0x40 MLOAD DUP1 DUP4 SUB DUP2 DUP7 GAS STATICCALL SWAP3 POP POP POP DUP1 ISZERO PUSH2 0xE16 JUMPI POP PUSH1 0x40 MLOAD RETURNDATASIZE PUSH1 0x1F NOT PUSH1 0x1F DUP3 ADD AND DUP3 ADD DUP1 PUSH1 0x40 MSTORE POP DUP2 ADD SWAP1 PUSH2 0xE13 SWAP2 SWAP1 PUSH2 0x1CD8 JUMP JUMPDEST PUSH1 0x1 JUMPDEST PUSH2 0xE55 JUMPI PUSH1 0x40 MLOAD PUSH32 0x8C379A000000000000000000000000000000000000000000000000000000000 DUP2 MSTORE PUSH1 0x4 ADD PUSH2 0xE4C SWAP1 PUSH2 0x1D73 JUMP JUMPDEST PUSH1 0x40 MLOAD DUP1 SWAP2 SUB SWAP1 REVERT JUMPDEST PUSH32 0x360894A13BA1A3210667C828492DB98DCA3E2076CC3735A920A3CA505D382BBC PUSH0 SHL DUP2 EQ PUSH2 0xEB9 JUMPI PUSH1 0x40 MLOAD PUSH32 0x8C379A000000000000000000000000000000000000000000000000000000000 DUP2 MSTORE PUSH1 0x4 ADD PUSH2 0xEB0 SWAP1 PUSH2 0x1E01 JUMP JUMPDEST PUSH1 0x40 MLOAD DUP1 SWAP2 SUB SWAP1 REVERT JUMPDEST POP PUSH2 0xEC5 DUP4 DUP4 DUP4 PUSH2 0x1047 JUMP JUMPDEST JUMPDEST POP POP POP JUMP JUMPDEST PUSH0 DUP1 DUP3 PUSH20 0xFFFFFFFFFFFFFFFFFFFFFFFFFFFFFFFFFFFFFFFF AND EXTCODESIZE GT SWAP1 POP SWAP2 SWAP1 POP JUMP JUMPDEST PUSH2 0xEF7 DUP3 DUP3 PUSH2 0xB41 JUMP JUMPDEST POP POP JUMP JUMPDEST PUSH2 0xF05 DUP3 DUP3 PUSH2 0xA39 JUMP JUMPDEST PUSH2 0xF7B JUMPI PUSH2 0xF12 DUP2 PUSH2 0x1072 JUMP JUMPDEST PUSH2 0xF1F DUP4 PUSH0 SHR PUSH1 0x20 PUSH2 0x109F JUMP JUMPDEST PUSH1 0x40 MLOAD PUSH1 0x20 ADD PUSH2 0xF30 SWAP3 SWAP2 SWAP1 PUSH2 0x1F05 JUMP JUMPDEST PUSH1 0x40 MLOAD PUSH1 0x20 DUP2 DUP4 SUB SUB DUP2 MSTORE SWAP1 PUSH1 0x40 MSTORE PUSH1 0x40 MLOAD PUSH32 0x8C379A000000000000000000000000000000000000000000000000000000000 DUP2 MSTORE PUSH1 0x4 ADD PUSH2 0xF72 SWAP2 SWAP1 PUSH2 0x1F76 JUMP JUMPDEST PUSH1 0x40 MLOAD DUP1 SWAP2 SUB SWAP1 REVERT JUMPDEST POP POP JUMP JUMPDEST PUSH0 DUP2 SWAP1 POP SWAP2 SWAP1 POP JUMP JUMPDEST PUSH0 DUP2 SWAP1 POP SWAP2 SWAP1 POP JUMP JUMPDEST PUSH2 0xF9A DUP2 PUSH2 0xECB JUMP JUMPDEST PUSH2 0xFD9 JUMPI PUSH1 0x40 MLOAD PUSH32 0x8C379A000000000000000000000000000000000000000000000000000000000 DUP2 MSTORE PUSH1 0x4 ADD PUSH2 0xFD0 SWAP1 PUSH2 0x2006 JUMP JUMPDEST PUSH1 0x40 MLOAD DUP1 SWAP2 SUB SWAP1 REVERT JUMPDEST DUP1 PUSH2 0x1005 PUSH32 0x360894A13BA1A3210667C828492DB98DCA3E2076CC3735A920A3CA505D382BBC PUSH0 SHL PUSH2 0xF7F JUMP JUMPDEST PUSH0 ADD PUSH0 PUSH2 0x100 EXP DUP2 SLOAD DUP2 PUSH20 0xFFFFFFFFFFFFFFFFFFFFFFFFFFFFFFFFFFFFFFFF MUL NOT AND SWAP1 DUP4 PUSH20 0xFFFFFFFFFFFFFFFFFFFFFFFFFFFFFFFFFFFFFFFF AND MUL OR SWAP1 SSTORE POP POP JUMP JUMPDEST PUSH2 0x1050 DUP4 PUSH2 0x12D4 JUMP JUMPDEST PUSH0 DUP3 MLOAD GT DUP1 PUSH2 0x105C JUMPI POP DUP1 JUMPDEST ISZERO PUSH2 0x106D JUMPI PUSH2 0x106B DUP4 DUP4 PUSH2 0x1323 JUMP JUMPDEST POP JUMPDEST POP POP POP JUMP JUMPDEST PUSH1 0x60 PUSH2 0x1098 DUP3 PUSH20 0xFFFFFFFFFFFFFFFFFFFFFFFFFFFFFFFFFFFFFFFF AND PUSH1 0x14 PUSH1 0xFF AND PUSH2 0x109F JUMP JUMPDEST SWAP1 POP SWAP2 SWAP1 POP JUMP JUMPDEST PUSH1 0x60 PUSH0 PUSH1 0x2 DUP4 PUSH1 0x2 PUSH2 0x10B1 SWAP2 SWAP1 PUSH2 0x2051 JUMP JUMPDEST PUSH2 0x10BB SWAP2 SWAP1 PUSH2 0x2092 JUMP JUMPDEST PUSH8 0xFFFFFFFFFFFFFFFF DUP2 GT ISZERO PUSH2 0x10D4 JUMPI PUSH2 0x10D3 PUSH2 0x16F8 JUMP JUMPDEST JUMPDEST PUSH1 0x40 MLOAD SWAP1 DUP1 DUP3 MSTORE DUP1 PUSH1 0x1F ADD PUSH1 0x1F NOT AND PUSH1 0x20 ADD DUP3 ADD PUSH1 0x40 MSTORE DUP1 ISZERO PUSH2 0x1106 JUMPI DUP2 PUSH1 0x20 ADD PUSH1 0x1 DUP3 MUL DUP1 CALLDATASIZE DUP4 CALLDATACOPY DUP1 DUP3 ADD SWAP2 POP POP SWAP1 POP JUMPDEST POP SWAP1 POP PUSH32 0x3000000000000000000000000000000000000000000000000000000000000000 DUP2 PUSH0 DUP2 MLOAD DUP2 LT PUSH2 0x113D JUMPI PUSH2 0x113C PUSH2 0x20C5 JUMP JUMPDEST JUMPDEST PUSH1 0x20 ADD ADD SWAP1 PUSH31 0xFFFFFFFFFFFFFFFFFFFFFFFFFFFFFFFFFFFFFFFFFFFFFFFFFFFFFFFFFFFFFF NOT AND SWAP1 DUP2 PUSH0 BYTE SWAP1 MSTORE8 POP PUSH32 0x7800000000000000000000000000000000000000000000000000000000000000 DUP2 PUSH1 0x1 DUP2 MLOAD DUP2 LT PUSH2 0x11A0 JUMPI PUSH2 0x119F PUSH2 0x20C5 JUMP JUMPDEST JUMPDEST PUSH1 0x20 ADD ADD SWAP1 PUSH31 0xFFFFFFFFFFFFFFFFFFFFFFFFFFFFFFFFFFFFFFFFFFFFFFFFFFFFFFFFFFFFFF NOT AND SWAP1 DUP2 PUSH0 BYTE SWAP1 MSTORE8 POP PUSH0 PUSH1 0x1 DUP5 PUSH1 0x2 PUSH2 0x11DE SWAP2 SWAP1 PUSH2 0x2051 JUMP JUMPDEST PUSH2 0x11E8 SWAP2 SWAP1 PUSH2 0x2092 JUMP JUMPDEST SWAP1 POP JUMPDEST PUSH1 0x1 DUP2 GT ISZERO PUSH2 0x1287 JUMPI PUSH32 0x3031323334353637383961626364656600000000000000000000000000000000 PUSH1 0xF DUP7 AND PUSH1 0x10 DUP2 LT PUSH2 0x122A JUMPI PUSH2 0x1229 PUSH2 0x20C5 JUMP JUMPDEST JUMPDEST BYTE PUSH1 0xF8 SHL DUP3 DUP3 DUP2 MLOAD DUP2 LT PUSH2 0x1241 JUMPI PUSH2 0x1240 PUSH2 0x20C5 JUMP JUMPDEST JUMPDEST PUSH1 0x20 ADD ADD SWAP1 PUSH31 0xFFFFFFFFFFFFFFFFFFFFFFFFFFFFFFFFFFFFFFFFFFFFFFFFFFFFFFFFFFFFFF NOT AND SWAP1 DUP2 PUSH0 BYTE SWAP1 MSTORE8 POP PUSH1 0x4 DUP6 SWAP1 SHR SWAP5 POP DUP1 PUSH2 0x1280 SWAP1 PUSH2 0x20F2 JUMP JUMPDEST SWAP1 POP PUSH2 0x11EB JUMP JUMPDEST POP PUSH0 DUP5 EQ PUSH2 0x12CA JUMPI PUSH1 0x40 MLOAD PUSH32 0x8C379A000000000000000000000000000000000000000000000000000000000 DUP2 MSTORE PUSH1 0x4 ADD PUSH2 0x12C1 SWAP1 PUSH2 0x2163 JUMP JUMPDEST PUSH1 0x40 MLOAD DUP1 SWAP2 SUB SWAP1 REVERT JUMPDEST DUP1 SWAP2 POP POP SWAP3 SWAP2 POP POP JUMP JUMPDEST PUSH2 0x12DD DUP2 PUSH2 0xF91 JUMP JUMPDEST DUP1 PUSH20 0xFFFFFFFFFFFFFFFFFFFFFFFFFFFFFFFFFFFFFFFF AND PUSH32 0xBC7CD75A20EE27FD9ADEBAB32041F755214DBC6BFFA90CC0225B39DA2E5C2D3B PUSH1 0x40 MLOAD PUSH1 0x40 MLOAD DUP1 SWAP2 SUB SWAP1 LOG2 POP JUMP JUMPDEST PUSH1 0x60 PUSH2 0x1348 DUP4 DUP4 PUSH1 0x40 MLOAD DUP1 PUSH1 0x60 ADD PUSH1 0x40 MSTORE DUP1 PUSH1 0x27 DUP2 MSTORE PUSH1 0x20 ADD PUSH2 0x2244 PUSH1 0x27 SWAP2 CODECOPY PUSH2 0x1350 JUMP JUMPDEST SWAP1 POP SWAP3 SWAP2 POP POP JUMP JUMPDEST PUSH1 0x60 PUSH0 DUP1 DUP6 PUSH20 0xFFFFFFFFFFFFFFFFFFFFFFFFFFFFFFFFFFFFFFFF AND DUP6 PUSH1 0x40 MLOAD PUSH2 0x1379 SWAP2 SWAP1 PUSH2 0x21C5 JUMP JUMPDEST PUSH0 PUSH1 0x40 MLOAD DUP1 DUP4 SUB DUP2 DUP6 GAS DELEGATECALL SWAP2 POP POP RETURNDATASIZE DUP1 PUSH0 DUP2 EQ PUSH2 0x13B1 JUMPI PUSH1 0x40 MLOAD SWAP2 POP PUSH1 0x1F NOT PUSH1 0x3F RETURNDATASIZE ADD AND DUP3 ADD PUSH1 0x40 MSTORE RETURNDATASIZE DUP3 MSTORE RETURNDATASIZE PUSH0 PUSH1 0x20 DUP5 ADD RETURNDATACOPY PUSH2 0x13B6 JUMP JUMPDEST PUSH1 0x60 SWAP2 POP JUMPDEST POP SWAP2 POP SWAP2 POP PUSH2 0x13C7 DUP7 DUP4 DUP4 DUP8 PUSH2 0x13D2 JUMP JUMPDEST SWAP3 POP POP POP SWAP4 SWAP3 POP POP POP JUMP JUMPDEST PUSH1 0x60 DUP4 ISZERO PUSH2 0x1433 JUMPI PUSH0 DUP4 MLOAD SUB PUSH2 0x142B JUMPI PUSH2 0x13EB DUP6 PUSH2 0xECB JUMP JUMPDEST PUSH2 0x142A JUMPI PUSH1 0x40 MLOAD PUSH32 0x8C379A000000000000000000000000000000000000000000000000000000000 DUP2 MSTORE PUSH1 0x4 ADD PUSH2 0x1421 SWAP1 PUSH2 0x2225 JUMP JUMPDEST PUSH1 0x40 MLOAD DUP1 SWAP2 SUB SWAP1 REVERT JUMPDEST JUMPDEST DUP3 SWAP1 POP PUSH2 0x143E JUMP JUMPDEST PUSH2 0x143D DUP4 DUP4 PUSH2 0x1446 JUMP JUMPDEST JUMPDEST SWAP5 SWAP4 POP POP POP POP JUMP JUMPDEST PUSH0 DUP3 MLOAD GT ISZERO PUSH2 0x1458 JUMPI DUP2 MLOAD DUP1 DUP4 PUSH1 0x20 ADD REVERT JUMPDEST DUP1 PUSH1 0x40 MLOAD PUSH32 0x8C379A000000000000000000000000000000000000000000000000000000000 DUP2 MSTORE PUSH1 0x4 ADD PUSH2 0x148C SWAP2 SWAP1 PUSH2 0x1F76 JUMP JUMPDEST PUSH1 0x40 MLOAD DUP1 SWAP2 SUB SWAP1 REVERT JUMPDEST PUSH0 PUSH1 0x40 MLOAD SWAP1 POP SWAP1 JUMP JUMPDEST PUSH0 DUP1 REVERT JUMPDEST PUSH0 DUP1 REVERT JUMPDEST PUSH0 PUSH32 0xFFFFFFFF00000000000000000000000000000000000000000000000000000000 DUP3 AND SWAP1 POP SWAP2 SWAP1 POP JUMP JUMPDEST PUSH2 0x14DA DUP2 PUSH2 0x14A6 JUMP JUMPDEST DUP2 EQ PUSH2 0x14E4 JUMPI PUSH0 DUP1 REVERT JUMPDEST POP JUMP JUMPDEST PUSH0 DUP2 CALLDATALOAD SWAP1 POP PUSH2 0x14F5 DUP2 PUSH2 0x14D1 JUMP JUMPDEST SWAP3 SWAP2 POP POP JUMP JUMPDEST PUSH0 PUSH1 0x20 DUP3 DUP5 SUB SLT ISZERO PUSH2 0x1510 JUMPI PUSH2 0x150F PUSH2 0x149E JUMP JUMPDEST JUMPDEST PUSH0 PUSH2 0x151D DUP5 DUP3 DUP6 ADD PUSH2 0x14E7 JUMP JUMPDEST SWAP2 POP POP SWAP3 SWAP2 POP POP JUMP JUMPDEST PUSH0 DUP2 ISZERO ISZERO SWAP1 POP SWAP2 SWAP1 POP JUMP JUMPDEST PUSH2 0x153A DUP2 PUSH2 0x1526 JUMP JUMPDEST DUP3 MSTORE POP POP JUMP JUMPDEST PUSH0 PUSH1 0x20 DUP3 ADD SWAP1 POP PUSH2 0x1553 PUSH0 DUP4 ADD DUP5 PUSH2 0x1531 JUMP JUMPDEST SWAP3 SWAP2 POP POP JUMP JUMPDEST PUSH0 DUP2 SWAP1 POP SWAP2 SWAP1 POP JUMP JUMPDEST PUSH2 0x156B DUP2 PUSH2 0x1559 JUMP JUMPDEST DUP2 EQ PUSH2 0x1575 JUMPI PUSH0 DUP1 REVERT JUMPDEST POP JUMP JUMPDEST PUSH0 DUP2 CALLDATALOAD SWAP1 POP PUSH2 0x1586 DUP2 PUSH2 0x1562 JUMP JUMPDEST SWAP3 SWAP2 POP POP JUMP JUMPDEST PUSH0 PUSH1 0x20 DUP3 DUP5 SUB SLT ISZERO PUSH2 0x15A1 JUMPI PUSH2 0x15A0 PUSH2 0x149E JUMP JUMPDEST JUMPDEST PUSH0 PUSH2 0x15AE DUP5 DUP3 DUP6 ADD PUSH2 0x1578 JUMP JUMPDEST SWAP2 POP POP SWAP3 SWAP2 POP POP JUMP JUMPDEST PUSH2 0x15C0 DUP2 PUSH2 0x1559 JUMP JUMPDEST DUP3 MSTORE POP POP JUMP JUMPDEST PUSH0 PUSH1 0x20 DUP3 ADD SWAP1 POP PUSH2 0x15D9 PUSH0 DUP4 ADD DUP5 PUSH2 0x15B7 JUMP JUMPDEST SWAP3 SWAP2 POP POP JUMP JUMPDEST PUSH0 PUSH20 0xFFFFFFFFFFFFFFFFFFFFFFFFFFFFFFFFFFFFFFFF DUP3 AND SWAP1 POP SWAP2 SWAP1 POP JUMP JUMPDEST PUSH0 PUSH2 0x1608 DUP3 PUSH2 0x15DF JUMP JUMPDEST SWAP1 POP SWAP2 SWAP1 POP JUMP JUMPDEST PUSH2 0x1618 DUP2 PUSH2 0x15FE JUMP JUMPDEST DUP2 EQ PUSH2 0x1622 JUMPI PUSH0 DUP1 REVERT JUMPDEST POP JUMP JUMPDEST PUSH0 DUP2 CALLDATALOAD SWAP1 POP PUSH2 0x1633 DUP2 PUSH2 0x160F JUMP JUMPDEST SWAP3 SWAP2 POP POP JUMP JUMPDEST PUSH0 DUP1 PUSH1 0x40 DUP4 DUP6 SUB SLT ISZERO PUSH2 0x164F JUMPI PUSH2 0x164E PUSH2 0x149E JUMP JUMPDEST JUMPDEST PUSH0 PUSH2 0x165C DUP6 DUP3 DUP7 ADD PUSH2 0x1578 JUMP JUMPDEST SWAP3 POP POP PUSH1 0x20 PUSH2 0x166D DUP6 DUP3 DUP7 ADD PUSH2 0x1625 JUMP JUMPDEST SWAP2 POP POP SWAP3 POP SWAP3 SWAP1 POP JUMP JUMPDEST PUSH0 PUSH1 0x20 DUP3 DUP5 SUB SLT ISZERO PUSH2 0x168C JUMPI PUSH2 0x168B PUSH2 0x149E JUMP JUMPDEST JUMPDEST PUSH0 PUSH2 0x1699 DUP5 DUP3 DUP6 ADD PUSH2 0x1625 JUMP JUMPDEST SWAP2 POP POP SWAP3 SWAP2 POP POP JUMP JUMPDEST PUSH0 DUP1 PUSH1 0x40 DUP4 DUP6 SUB SLT ISZERO PUSH2 0x16B8 JUMPI PUSH2 0x16B7 PUSH2 0x149E JUMP JUMPDEST JUMPDEST PUSH0 PUSH2 0x16C5 DUP6 DUP3 DUP7 ADD PUSH2 0x1625 JUMP JUMPDEST SWAP3 POP POP PUSH1 0x20 PUSH2 0x16D6 DUP6 DUP3 DUP7 ADD PUSH2 0x1625 JUMP JUMPDEST SWAP2 POP POP SWAP3 POP SWAP3 SWAP1 POP JUMP JUMPDEST PUSH0 DUP1 REVERT JUMPDEST PUSH0 DUP1 REVERT JUMPDEST PUSH0 PUSH1 0x1F NOT PUSH1 0x1F DUP4 ADD AND SWAP1 POP SWAP2 SWAP1 POP JUMP JUMPDEST PUSH32 0x4E487B7100000000000000000000000000000000000000000000000000000000 PUSH0 MSTORE PUSH1 0x41 PUSH1 0x4 MSTORE PUSH1 0x24 PUSH0 REVERT JUMPDEST PUSH2 0x172E DUP3 PUSH2 0x16E8 JUMP JUMPDEST DUP2 ADD DUP2 DUP2 LT PUSH8 0xFFFFFFFFFFFFFFFF DUP3 GT OR ISZERO PUSH2 0x174D JUMPI PUSH2 0x174C PUSH2 0x16F8 JUMP JUMPDEST JUMPDEST DUP1 PUSH1 0x40 MSTORE POP POP POP JUMP JUMPDEST PUSH0 PUSH2 0x175F PUSH2 0x1495 JUMP JUMPDEST SWAP1 POP PUSH2 0x176B DUP3 DUP3 PUSH2 0x1725 JUMP JUMPDEST SWAP2 SWAP1 POP JUMP JUMPDEST PUSH0 PUSH8 0xFFFFFFFFFFFFFFFF DUP3 GT ISZERO PUSH2 0x178A JUMPI PUSH2 0x1789 PUSH2 0x16F8 JUMP JUMPDEST JUMPDEST PUSH2 0x1793 DUP3 PUSH2 0x16E8 JUMP JUMPDEST SWAP1 POP PUSH1 0x20 DUP2 ADD SWAP1 POP SWAP2 SWAP1 POP JUMP JUMPDEST DUP3 DUP2 DUP4 CALLDATACOPY PUSH0 DUP4 DUP4 ADD MSTORE POP POP POP JUMP JUMPDEST PUSH0 PUSH2 0x17C0 PUSH2 0x17BB DUP5 PUSH2 0x1770 JUMP JUMPDEST PUSH2 0x1756 JUMP JUMPDEST SWAP1 POP DUP3 DUP2 MSTORE PUSH1 0x20 DUP2 ADD DUP5 DUP5 DUP5 ADD GT ISZERO PUSH2 0x17DC JUMPI PUSH2 0x17DB PUSH2 0x16E4 JUMP JUMPDEST JUMPDEST PUSH2 0x17E7 DUP5 DUP3 DUP6 PUSH2 0x17A0 JUMP JUMPDEST POP SWAP4 SWAP3 POP POP POP JUMP JUMPDEST PUSH0 DUP3 PUSH1 0x1F DUP4 ADD SLT PUSH2 0x1803 JUMPI PUSH2 0x1802 PUSH2 0x16E0 JUMP JUMPDEST JUMPDEST DUP2 CALLDATALOAD PUSH2 0x1813 DUP5 DUP3 PUSH1 0x20 DUP7 ADD PUSH2 0x17AE JUMP JUMPDEST SWAP2 POP POP SWAP3 SWAP2 POP POP JUMP JUMPDEST PUSH0 DUP1 PUSH1 0x40 DUP4 DUP6 SUB SLT ISZERO PUSH2 0x1832 JUMPI PUSH2 0x1831 PUSH2 0x149E JUMP JUMPDEST JUMPDEST PUSH0 PUSH2 0x183F DUP6 DUP3 DUP7 ADD PUSH2 0x1625 JUMP JUMPDEST SWAP3 POP POP PUSH1 0x20 DUP4 ADD CALLDATALOAD PUSH8 0xFFFFFFFFFFFFFFFF DUP2 GT ISZERO PUSH2 0x1860 JUMPI PUSH2 0x185F PUSH2 0x14A2 JUMP JUMPDEST JUMPDEST PUSH2 0x186C DUP6 DUP3 DUP7 ADD PUSH2 0x17EF JUMP JUMPDEST SWAP2 POP POP SWAP3 POP SWAP3 SWAP1 POP JUMP JUMPDEST PUSH0 DUP3 DUP3 MSTORE PUSH1 0x20 DUP3 ADD SWAP1 POP SWAP3 SWAP2 POP POP JUMP JUMPDEST PUSH32 0x416363657373436F6E74726F6C3A2063616E206F6E6C792072656E6F756E6365 PUSH0 DUP3 ADD MSTORE PUSH32 0x20726F6C657320666F722073656C660000000000000000000000000000000000 PUSH1 0x20 DUP3 ADD MSTORE POP JUMP JUMPDEST PUSH0 PUSH2 0x18E0 PUSH1 0x2F DUP4 PUSH2 0x1876 JUMP JUMPDEST SWAP2 POP PUSH2 0x18EB DUP3 PUSH2 0x1886 JUMP JUMPDEST PUSH1 0x40 DUP3 ADD SWAP1 POP SWAP2 SWAP1 POP JUMP JUMPDEST PUSH0 PUSH1 0x20 DUP3 ADD SWAP1 POP DUP2 DUP2 SUB PUSH0 DUP4 ADD MSTORE PUSH2 0x190D DUP2 PUSH2 0x18D4 JUMP JUMPDEST SWAP1 POP SWAP2 SWAP1 POP JUMP JUMPDEST PUSH32 0x46756E6374696F6E206D7573742062652063616C6C6564207468726F75676820 PUSH0 DUP3 ADD MSTORE PUSH32 0x64656C656761746563616C6C0000000000000000000000000000000000000000 PUSH1 0x20 DUP3 ADD MSTORE POP JUMP JUMPDEST PUSH0 PUSH2 0x196E PUSH1 0x2C DUP4 PUSH2 0x1876 JUMP JUMPDEST SWAP2 POP PUSH2 0x1979 DUP3 PUSH2 0x1914 JUMP JUMPDEST PUSH1 0x40 DUP3 ADD SWAP1 POP SWAP2 SWAP1 POP JUMP JUMPDEST PUSH0 PUSH1 0x20 DUP3 ADD SWAP1 POP DUP2 DUP2 SUB PUSH0 DUP4 ADD MSTORE PUSH2 0x199B DUP2 PUSH2 0x1962 JUMP JUMPDEST SWAP1 POP SWAP2 SWAP1 POP JUMP JUMPDEST PUSH32 0x46756E6374696F6E206D7573742062652063616C6C6564207468726F75676820 PUSH0 DUP3 ADD MSTORE PUSH32 0x6163746976652070726F78790000000000000000000000000000000000000000 PUSH1 0x20 DUP3 ADD MSTORE POP JUMP JUMPDEST PUSH0 PUSH2 0x19FC PUSH1 0x2C DUP4 PUSH2 0x1876 JUMP JUMPDEST SWAP2 POP PUSH2 0x1A07 DUP3 PUSH2 0x19A2 JUMP JUMPDEST PUSH1 0x40 DUP3 ADD SWAP1 POP SWAP2 SWAP1 POP JUMP JUMPDEST PUSH0 PUSH1 0x20 DUP3 ADD SWAP1 POP DUP2 DUP2 SUB PUSH0 DUP4 ADD MSTORE PUSH2 0x1A29 DUP2 PUSH2 0x19F0 JUMP JUMPDEST SWAP1 POP SWAP2 SWAP1 POP JUMP JUMPDEST PUSH32 0x496E697469616C697A61626C653A20636F6E747261637420697320616C726561 PUSH0 DUP3 ADD MSTORE PUSH32 0x647920696E697469616C697A6564000000000000000000000000000000000000 PUSH1 0x20 DUP3 ADD MSTORE POP JUMP JUMPDEST PUSH0 PUSH2 0x1A8A PUSH1 0x2E DUP4 PUSH2 0x1876 JUMP JUMPDEST SWAP2 POP PUSH2 0x1A95 DUP3 PUSH2 0x1A30 JUMP JUMPDEST PUSH1 0x40 DUP3 ADD SWAP1 POP SWAP2 SWAP1 POP JUMP JUMPDEST PUSH0 PUSH1 0x20 DUP3 ADD SWAP1 POP DUP2 DUP2 SUB PUSH0 DUP4 ADD MSTORE PUSH2 0x1AB7 DUP2 PUSH2 0x1A7E JUMP JUMPDEST SWAP1 POP SWAP2 SWAP1 POP JUMP JUMPDEST PUSH0 DUP2 SWAP1 POP SWAP2 SWAP1 POP JUMP JUMPDEST PUSH0 PUSH1 0xFF DUP3 AND SWAP1 POP SWAP2 SWAP1 POP JUMP JUMPDEST PUSH0 DUP2 SWAP1 POP SWAP2 SWAP1 POP JUMP JUMPDEST PUSH0 PUSH2 0x1AF6 PUSH2 0x1AF1 PUSH2 0x1AEC DUP5 PUSH2 0x1ABE JUMP JUMPDEST PUSH2 0x1AD3 JUMP JUMPDEST PUSH2 0x1AC7 JUMP JUMPDEST SWAP1 POP SWAP2 SWAP1 POP JUMP JUMPDEST PUSH2 0x1B06 DUP2 PUSH2 0x1ADC JUMP JUMPDEST DUP3 MSTORE POP POP JUMP JUMPDEST PUSH0 PUSH1 0x20 DUP3 ADD SWAP1 POP PUSH2 0x1B1F PUSH0 DUP4 ADD DUP5 PUSH2 0x1AFD JUMP JUMPDEST SWAP3 SWAP2 POP POP JUMP JUMPDEST PUSH2 0x1B2E DUP2 PUSH2 0x15FE JUMP JUMPDEST DUP3 MSTORE POP POP JUMP JUMPDEST PUSH0 PUSH1 0x20 DUP3 ADD SWAP1 POP PUSH2 0x1B47 PUSH0 DUP4 ADD DUP5 PUSH2 0x1B25 JUMP JUMPDEST SWAP3 SWAP2 POP POP JUMP JUMPDEST PUSH0 DUP2 SWAP1 POP SWAP2 SWAP1 POP JUMP JUMPDEST PUSH2 0x1B5F DUP2 PUSH2 0x1B4D JUMP JUMPDEST DUP2 EQ PUSH2 0x1B69 JUMPI PUSH0 DUP1 REVERT JUMPDEST POP JUMP JUMPDEST PUSH0 DUP2 MLOAD SWAP1 POP PUSH2 0x1B7A DUP2 PUSH2 0x1B56 JUMP JUMPDEST SWAP3 SWAP2 POP POP JUMP JUMPDEST PUSH0 PUSH1 0x20 DUP3 DUP5 SUB SLT ISZERO PUSH2 0x1B95 JUMPI PUSH2 0x1B94 PUSH2 0x149E JUMP JUMPDEST JUMPDEST PUSH0 PUSH2 0x1BA2 DUP5 DUP3 DUP6 ADD PUSH2 0x1B6C JUMP JUMPDEST SWAP2 POP POP SWAP3 SWAP2 POP POP JUMP JUMPDEST PUSH2 0x1BB4 DUP2 PUSH2 0x1B4D JUMP JUMPDEST DUP3 MSTORE POP POP JUMP JUMPDEST PUSH0 PUSH1 0x40 DUP3 ADD SWAP1 POP PUSH2 0x1BCD PUSH0 DUP4 ADD DUP6 PUSH2 0x1B25 JUMP JUMPDEST PUSH2 0x1BDA PUSH1 0x20 DUP4 ADD DUP5 PUSH2 0x1BAB JUMP JUMPDEST SWAP4 SWAP3 POP POP POP JUMP JUMPDEST PUSH2 0x1BEA DUP2 PUSH2 0x1526 JUMP JUMPDEST DUP2 EQ PUSH2 0x1BF4 JUMPI PUSH0 DUP1 REVERT JUMPDEST POP JUMP JUMPDEST PUSH0 DUP2 MLOAD SWAP1 POP PUSH2 0x1C05 DUP2 PUSH2 0x1BE1 JUMP JUMPDEST SWAP3 SWAP2 POP POP JUMP JUMPDEST PUSH0 PUSH1 0x20 DUP3 DUP5 SUB SLT ISZERO PUSH2 0x1C20 JUMPI PUSH2 0x1C1F PUSH2 0x149E JUMP JUMPDEST JUMPDEST PUSH0 PUSH2 0x1C2D DUP5 DUP3 DUP6 ADD PUSH2 0x1BF7 JUMP JUMPDEST SWAP2 POP POP SWAP3 SWAP2 POP POP JUMP JUMPDEST PUSH32 0x555550535570677261646561626C653A206D757374206E6F742062652063616C PUSH0 DUP3 ADD MSTORE PUSH32 0x6C6564207468726F7567682064656C656761746563616C6C0000000000000000 PUSH1 0x20 DUP3 ADD MSTORE POP JUMP JUMPDEST PUSH0 PUSH2 0x1C90 PUSH1 0x38 DUP4 PUSH2 0x1876 JUMP JUMPDEST SWAP2 POP PUSH2 0x1C9B DUP3 PUSH2 0x1C36 JUMP JUMPDEST PUSH1 0x40 DUP3 ADD SWAP1 POP SWAP2 SWAP1 POP JUMP JUMPDEST PUSH0 PUSH1 0x20 DUP3 ADD SWAP1 POP DUP2 DUP2 SUB PUSH0 DUP4 ADD MSTORE PUSH2 0x1CBD DUP2 PUSH2 0x1C84 JUMP JUMPDEST SWAP1 POP SWAP2 SWAP1 POP JUMP JUMPDEST PUSH0 DUP2 MLOAD SWAP1 POP PUSH2 0x1CD2 DUP2 PUSH2 0x1562 JUMP JUMPDEST SWAP3 SWAP2 POP POP JUMP JUMPDEST PUSH0 PUSH1 0x20 DUP3 DUP5 SUB SLT ISZERO PUSH2 0x1CED JUMPI PUSH2 0x1CEC PUSH2 0x149E JUMP JUMPDEST JUMPDEST PUSH0 PUSH2 0x1CFA DUP5 DUP3 DUP6 ADD PUSH2 0x1CC4 JUMP JUMPDEST SWAP2 POP POP SWAP3 SWAP2 POP POP JUMP JUMPDEST PUSH32 0x45524331393637557067726164653A206E657720696D706C656D656E74617469 PUSH0 DUP3 ADD MSTORE PUSH32 0x6F6E206973206E6F742055555053000000000000000000000000000000000000 PUSH1 0x20 DUP3 ADD MSTORE POP JUMP JUMPDEST PUSH0 PUSH2 0x1D5D PUSH1 0x2E DUP4 PUSH2 0x1876 JUMP JUMPDEST SWAP2 POP PUSH2 0x1D68 DUP3 PUSH2 0x1D03 JUMP JUMPDEST PUSH1 0x40 DUP3 ADD SWAP1 POP SWAP2 SWAP1 POP JUMP JUMPDEST PUSH0 PUSH1 0x20 DUP3 ADD SWAP1 POP DUP2 DUP2 SUB PUSH0 DUP4 ADD MSTORE PUSH2 0x1D8A DUP2 PUSH2 0x1D51 JUMP JUMPDEST SWAP1 POP SWAP2 SWAP1 POP JUMP JUMPDEST PUSH32 0x45524331393637557067726164653A20756E737570706F727465642070726F78 PUSH0 DUP3 ADD MSTORE PUSH32 0x6961626C65555549440000000000000000000000000000000000000000000000 PUSH1 0x20 DUP3 ADD MSTORE POP JUMP JUMPDEST PUSH0 PUSH2 0x1DEB PUSH1 0x29 DUP4 PUSH2 0x1876 JUMP JUMPDEST SWAP2 POP PUSH2 0x1DF6 DUP3 PUSH2 0x1D91 JUMP JUMPDEST PUSH1 0x40 DUP3 ADD SWAP1 POP SWAP2 SWAP1 POP JUMP JUMPDEST PUSH0 PUSH1 0x20 DUP3 ADD SWAP1 POP DUP2 DUP2 SUB PUSH0 DUP4 ADD MSTORE PUSH2 0x1E18 DUP2 PUSH2 0x1DDF JUMP JUMPDEST SWAP1 POP SWAP2 SWAP1 POP JUMP JUMPDEST PUSH0 DUP2 SWAP1 POP SWAP3 SWAP2 POP POP JUMP JUMPDEST PUSH32 0x416363657373436F6E74726F6C3A206163636F756E7420000000000000000000 PUSH0 DUP3 ADD MSTORE POP JUMP JUMPDEST PUSH0 PUSH2 0x1E5D PUSH1 0x17 DUP4 PUSH2 0x1E1F JUMP JUMPDEST SWAP2 POP PUSH2 0x1E68 DUP3 PUSH2 0x1E29 JUMP JUMPDEST PUSH1 0x17 DUP3 ADD SWAP1 POP SWAP2 SWAP1 POP JUMP JUMPDEST PUSH0 DUP2 MLOAD SWAP1 POP SWAP2 SWAP1 POP JUMP JUMPDEST DUP3 DUP2 DUP4 MCOPY PUSH0 DUP4 DUP4 ADD MSTORE POP POP POP JUMP JUMPDEST PUSH0 PUSH2 0x1E95 DUP3 PUSH2 0x1E73 JUMP JUMPDEST PUSH2 0x1E9F DUP2 DUP6 PUSH2 0x1E1F JUMP JUMPDEST SWAP4 POP PUSH2 0x1EAF DUP2 DUP6 PUSH1 0x20 DUP7 ADD PUSH2 0x1E7D JUMP JUMPDEST DUP1 DUP5 ADD SWAP2 POP POP SWAP3 SWAP2 POP POP JUMP JUMPDEST PUSH32 0x206973206D697373696E6720726F6C6520000000000000000000000000000000 PUSH0 DUP3 ADD MSTORE POP JUMP JUMPDEST PUSH0 PUSH2 0x1EEF PUSH1 0x11 DUP4 PUSH2 0x1E1F JUMP JUMPDEST SWAP2 POP PUSH2 0x1EFA DUP3 PUSH2 0x1EBB JUMP JUMPDEST PUSH1 0x11 DUP3 ADD SWAP1 POP SWAP2 SWAP1 POP JUMP JUMPDEST PUSH0 PUSH2 0x1F0F DUP3 PUSH2 0x1E51 JUMP JUMPDEST SWAP2 POP PUSH2 0x1F1B DUP3 DUP6 PUSH2 0x1E8B JUMP JUMPDEST SWAP2 POP PUSH2 0x1F26 DUP3 PUSH2 0x1EE3 JUMP JUMPDEST SWAP2 POP PUSH2 0x1F32 DUP3 DUP5 PUSH2 0x1E8B JUMP JUMPDEST SWAP2 POP DUP2 SWAP1 POP SWAP4 SWAP3 POP POP POP JUMP JUMPDEST PUSH0 PUSH2 0x1F48 DUP3 PUSH2 0x1E73 JUMP JUMPDEST PUSH2 0x1F52 DUP2 DUP6 PUSH2 0x1876 JUMP JUMPDEST SWAP4 POP PUSH2 0x1F62 DUP2 DUP6 PUSH1 0x20 DUP7 ADD PUSH2 0x1E7D JUMP JUMPDEST PUSH2 0x1F6B DUP2 PUSH2 0x16E8 JUMP JUMPDEST DUP5 ADD SWAP2 POP POP SWAP3 SWAP2 POP POP JUMP JUMPDEST PUSH0 PUSH1 0x20 DUP3 ADD SWAP1 POP DUP2 DUP2 SUB PUSH0 DUP4 ADD MSTORE PUSH2 0x1F8E DUP2 DUP5 PUSH2 0x1F3E JUMP JUMPDEST SWAP1 POP SWAP3 SWAP2 POP POP JUMP JUMPDEST PUSH32 0x455243313936373A206E657720696D706C656D656E746174696F6E206973206E PUSH0 DUP3 ADD MSTORE PUSH32 0x6F74206120636F6E747261637400000000000000000000000000000000000000 PUSH1 0x20 DUP3 ADD MSTORE POP JUMP JUMPDEST PUSH0 PUSH2 0x1FF0 PUSH1 0x2D DUP4 PUSH2 0x1876 JUMP JUMPDEST SWAP2 POP PUSH2 0x1FFB DUP3 PUSH2 0x1F96 JUMP JUMPDEST PUSH1 0x40 DUP3 ADD SWAP1 POP SWAP2 SWAP1 POP JUMP JUMPDEST PUSH0 PUSH1 0x20 DUP3 ADD SWAP1 POP DUP2 DUP2 SUB PUSH0 DUP4 ADD MSTORE PUSH2 0x201D DUP2 PUSH2 0x1FE4 JUMP JUMPDEST SWAP1 POP SWAP2 SWAP1 POP JUMP JUMPDEST PUSH32 0x4E487B7100000000000000000000000000000000000000000000000000000000 PUSH0 MSTORE PUSH1 0x11 PUSH1 0x4 MSTORE PUSH1 0x24 PUSH0 REVERT JUMPDEST PUSH0 PUSH2 0x205B DUP3 PUSH2 0x1B4D JUMP JUMPDEST SWAP2 POP PUSH2 0x2066 DUP4 PUSH2 0x1B4D JUMP JUMPDEST SWAP3 POP DUP3 DUP3 MUL PUSH2 0x2074 DUP2 PUSH2 0x1B4D JUMP JUMPDEST SWAP2 POP DUP3 DUP3 DIV DUP5 EQ DUP4 ISZERO OR PUSH2 0x208B JUMPI PUSH2 0x208A PUSH2 0x2024 JUMP JUMPDEST JUMPDEST POP SWAP3 SWAP2 POP POP JUMP JUMPDEST PUSH0 PUSH2 0x209C DUP3 PUSH2 0x1B4D JUMP JUMPDEST SWAP2 POP PUSH2 0x20A7 DUP4 PUSH2 0x1B4D JUMP JUMPDEST SWAP3 POP DUP3 DUP3 ADD SWAP1 POP DUP1 DUP3 GT ISZERO PUSH2 0x20BF JUMPI PUSH2 0x20BE PUSH2 0x2024 JUMP JUMPDEST JUMPDEST SWAP3 SWAP2 POP POP JUMP JUMPDEST PUSH32 0x4E487B7100000000000000000000000000000000000000000000000000000000 PUSH0 MSTORE PUSH1 0x32 PUSH1 0x4 MSTORE PUSH1 0x24 PUSH0 REVERT JUMPDEST PUSH0 PUSH2 0x20FC DUP3 PUSH2 0x1B4D JUMP JUMPDEST SWAP2 POP PUSH0 DUP3 SUB PUSH2 0x210E JUMPI PUSH2 0x210D PUSH2 0x2024 JUMP JUMPDEST JUMPDEST PUSH1 0x1 DUP3 SUB SWAP1 POP SWAP2 SWAP1 POP JUMP JUMPDEST PUSH32 0x537472696E67733A20686578206C656E67746820696E73756666696369656E74 PUSH0 DUP3 ADD MSTORE POP JUMP JUMPDEST PUSH0 PUSH2 0x214D PUSH1 0x20 DUP4 PUSH2 0x1876 JUMP JUMPDEST SWAP2 POP PUSH2 0x2158 DUP3 PUSH2 0x2119 JUMP JUMPDEST PUSH1 0x20 DUP3 ADD SWAP1 POP SWAP2 SWAP1 POP JUMP JUMPDEST PUSH0 PUSH1 0x20 DUP3 ADD SWAP1 POP DUP2 DUP2 SUB PUSH0 DUP4 ADD MSTORE PUSH2 0x217A DUP2 PUSH2 0x2141 JUMP JUMPDEST SWAP1 POP SWAP2 SWAP1 POP JUMP JUMPDEST PUSH0 DUP2 MLOAD SWAP1 POP SWAP2 SWAP1 POP JUMP JUMPDEST PUSH0 DUP2 SWAP1 POP SWAP3 SWAP2 POP POP JUMP JUMPDEST PUSH0 PUSH2 0x219F DUP3 PUSH2 0x2181 JUMP JUMPDEST PUSH2 0x21A9 DUP2 DUP6 PUSH2 0x218B JUMP JUMPDEST SWAP4 POP PUSH2 0x21B9 DUP2 DUP6 PUSH1 0x20 DUP7 ADD PUSH2 0x1E7D JUMP JUMPDEST DUP1 DUP5 ADD SWAP2 POP POP SWAP3 SWAP2 POP POP JUMP JUMPDEST PUSH0 PUSH2 0x21D0 DUP3 DUP5 PUSH2 0x2195 JUMP JUMPDEST SWAP2 POP DUP2 SWAP1 POP SWAP3 SWAP2 POP POP JUMP JUMPDEST PUSH32 0x416464726573733A2063616C6C20746F206E6F6E2D636F6E7472616374000000 PUSH0 DUP3 ADD MSTORE POP JUMP JUMPDEST PUSH0 PUSH2 0x220F PUSH1 0x1D DUP4 PUSH2 0x1876 JUMP JUMPDEST SWAP2 POP PUSH2 0x221A DUP3 PUSH2 0x21DB JUMP JUMPDEST PUSH1 0x20 DUP3 ADD SWAP1 POP SWAP2 SWAP1 POP JUMP JUMPDEST PUSH0 PUSH1 0x20 DUP3 ADD SWAP1 POP DUP2 DUP2 SUB PUSH0 DUP4 ADD MSTORE PUSH2 0x223C DUP2 PUSH2 0x2203 JUMP JUMPDEST SWAP1 POP SWAP2 SWAP1 POP JUMP INVALID COINBASE PUSH5 0x6472657373 GASPRICE KECCAK256 PUSH13 0x6F772D6C6576656C2064656C65 PUSH8 0x6174652063616C6C KECCAK256 PUSH7 0x61696C6564A264 PUSH10 0x70667358221220208B88 ADDMOD DUP10 PUSH31 0xD27996A45E921D4B368229ED2C5E6D684711FC7964AF832962E064736F6C63 NUMBER STOP ADDMOD BYTE STOP CALLER "
				},
				"gasEstimates": {
					"creation": {
						"codeDepositCost": "1772800",
						"executionCost": "infinite",
						"totalCost": "infinite"
					},
					"external": {
						"DEFAULT_ADMIN_ROLE()": "418",
						"getRoleAdmin(bytes32)": "infinite",
						"grantRole(bytes32,address)": "infinite",
						"hasRole(bytes32,address)": "3188",
						"initialize(address,address)": "infinite",
						"proxiableUUID()": "infinite",
						"renounceRole(bytes32,address)": "infinite",
						"revokeRole(bytes32,address)": "infinite",
						"supportsInterface(bytes4)": "718",
						"upgradeTo(address)": "infinite",
						"upgradeToAndCall(address,bytes)": "infinite",
						"withdraw(address)": "infinite"
					},
					"internal": {
						"_authorizeUpgrade(address)": "infinite"
					}
				},
				"methodIdentifiers": {
					"DEFAULT_ADMIN_ROLE()": "a217fddf",
					"getRoleAdmin(bytes32)": "248a9ca3",
					"grantRole(bytes32,address)": "2f2ff15d",
					"hasRole(bytes32,address)": "91d14854",
					"initialize(address,address)": "485cc955",
					"proxiableUUID()": "52d1902d",
					"renounceRole(bytes32,address)": "36568abe",
					"revokeRole(bytes32,address)": "d547741f",
					"supportsInterface(bytes4)": "01ffc9a7",
					"upgradeTo(address)": "3659cfe6",
					"upgradeToAndCall(address,bytes)": "4f1ef286",
					"withdraw(address)": "51cff8d9"
				}
			},
			"storageLayout": {
				"storage": [
					{
						"astId": 782,
						"contract": "contracts/DevVault.sol:DevVault",
						"label": "_initialized",
						"offset": 0,
						"slot": "0",
						"type": "t_uint8"
					},
					{
						"astId": 785,
						"contract": "contracts/DevVault.sol:DevVault",
						"label": "_initializing",
						"offset": 1,
						"slot": "0",
						"type": "t_bool"
					},
					{
						"astId": 764,
						"contract": "contracts/DevVault.sol:DevVault",
						"label": "__gap",
						"offset": 0,
						"slot": "1",
						"type": "t_array(t_uint256)50_storage"
					},
					{
						"astId": 1080,
						"contract": "contracts/DevVault.sol:DevVault",
						"label": "__gap",
						"offset": 0,
						"slot": "51",
						"type": "t_array(t_uint256)50_storage"
					},
					{
						"astId": 1951,
						"contract": "contracts/DevVault.sol:DevVault",
						"label": "__gap",
						"offset": 0,
						"slot": "101",
						"type": "t_array(t_uint256)50_storage"
					},
					{
						"astId": 2335,
						"contract": "contracts/DevVault.sol:DevVault",
						"label": "__gap",
						"offset": 0,
						"slot": "151",
						"type": "t_array(t_uint256)50_storage"
					},
					{
						"astId": 28,
						"contract": "contracts/DevVault.sol:DevVault",
						"label": "_roles",
						"offset": 0,
						"slot": "201",
						"type": "t_mapping(t_bytes32,t_struct(RoleData)23_storage)"
					},
					{
						"astId": 335,
						"contract": "contracts/DevVault.sol:DevVault",
						"label": "__gap",
						"offset": 0,
						"slot": "202",
						"type": "t_array(t_uint256)49_storage"
					},
					{
						"astId": 3334,
						"contract": "contracts/DevVault.sol:DevVault",
						"label": "tether",
						"offset": 0,
						"slot": "251",
						"type": "t_contract(IERC20Upgradeable)1159"
					}
				],
				"types": {
					"t_address": {
						"encoding": "inplace",
						"label": "address",
						"numberOfBytes": "20"
					},
					"t_array(t_uint256)49_storage": {
						"base": "t_uint256",
						"encoding": "inplace",
						"label": "uint256[49]",
						"numberOfBytes": "1568"
					},
					"t_array(t_uint256)50_storage": {
						"base": "t_uint256",
						"encoding": "inplace",
						"label": "uint256[50]",
						"numberOfBytes": "1600"
					},
					"t_bool": {
						"encoding": "inplace",
						"label": "bool",
						"numberOfBytes": "1"
					},
					"t_bytes32": {
						"encoding": "inplace",
						"label": "bytes32",
						"numberOfBytes": "32"
					},
					"t_contract(IERC20Upgradeable)1159": {
						"encoding": "inplace",
						"label": "contract IERC20Upgradeable",
						"numberOfBytes": "20"
					},
					"t_mapping(t_address,t_bool)": {
						"encoding": "mapping",
						"key": "t_address",
						"label": "mapping(address => bool)",
						"numberOfBytes": "32",
						"value": "t_bool"
					},
					"t_mapping(t_bytes32,t_struct(RoleData)23_storage)": {
						"encoding": "mapping",
						"key": "t_bytes32",
						"label": "mapping(bytes32 => struct AccessControlUpgradeable.RoleData)",
						"numberOfBytes": "32",
						"value": "t_struct(RoleData)23_storage"
					},
					"t_struct(RoleData)23_storage": {
						"encoding": "inplace",
						"label": "struct AccessControlUpgradeable.RoleData",
						"members": [
							{
								"astId": 20,
								"contract": "contracts/DevVault.sol:DevVault",
								"label": "members",
								"offset": 0,
								"slot": "0",
								"type": "t_mapping(t_address,t_bool)"
							},
							{
								"astId": 22,
								"contract": "contracts/DevVault.sol:DevVault",
								"label": "adminRole",
								"offset": 0,
								"slot": "1",
								"type": "t_bytes32"
							}
						],
						"numberOfBytes": "64"
					},
					"t_uint256": {
						"encoding": "inplace",
						"label": "uint256",
						"numberOfBytes": "32"
					},
					"t_uint8": {
						"encoding": "inplace",
						"label": "uint8",
						"numberOfBytes": "1"
					}
				}
			},
			"userdoc": {
				"kind": "user",
				"methods": {},
				"version": 1
			}
		}
	}
}